:020000040800F2
:10000000B01C00200D0200081502000817020008AD
:10001000190200081B0200081D0200080000000071
:100020000000000000000000000000001F020008A7
:100030002102000800000000230200082502000839
:1000400027020008270200082702000827020008EC
:1000500027020008270200082702000827020008DC
:1000600027020008270200082702000827020008CC
:1000700027020008270200082702000827020008BC
:1000800027020008270200082702000827020008AC
:10009000270200082702000827020008270200089C
:1000A00027020008011A000827020008270200089A
:1000B000611A0008B11A0008270200082702000888
:1000C000270200082702000827020008270200086C
:1000D0002702000841200008A92100082702000883
:1000E000270200082702000827020008270200084C
:1000F000270200082702000827020008270200083C
:10010000270200082702000827020008270200082B
:10011000270200082702000827020008270200081B
:10012000270200082702000827020008270200080B
:1001300000F002F800F05AF80AA090E8000C82449F
:100140008344AAF10107DA4501D100F04FF8AFF27C
:10015000090EBAE80F0013F0010F18BFFB1A43F0A5
:1001600001031847D4450000F44500000A444FF04D
:10017000000C10F8013B13F0070408BF10F8014B06
:100180001D1108BF10F8015B641E05D010F8016B4B
:10019000641E01F8016BF9D113F0080F1EBF10F8AF
:1001A000014BAD1C0C1B09D16D1E58BF01F801CBD2
:1001B000FAD505E014F8016B01F8016B6D1EF9D555
:1001C0009142D6D37047000000230024002500266A
:1001D000103A28BF78C1FBD8520728BF30C148BFAA
:1001E0000B6070471FB51FBD10B510BD00F031F892
:1001F0001146FFF7F7FF02F019FC00F04FF803B4C7
:10020000FFF7F2FF03BC00F057F8000009488047F1
:1002100009480047FEE7FEE7FEE7FEE7FEE7FEE7E8
:10022000FEE7FEE7FEE7FEE704480549054A064B00
:1002300070470000A119000831010008B016002025
:10024000B01C0020B0180020B01800207047704784
:100250007047754600F02CF8AE46050069465346D7
:1002600020F00700854618B020B5FFF7DDFFBDE898
:1002700020404FF000064FF000074FF000084FF00D
:10028000000B21F00701AC46ACE8C009ACE8C0099E
:10029000ACE8C009ACE8C0098D46704710B504460B
:1002A000AFF300802046BDE81040FFF7A8BF000074
:1002B000004870475016002001491820ABBEFEE7E9
:1002C000260002007047000008B50121042000F05C
:1002D000D3FFBE20ADF8000003208DF802001020EF
:1002E0008DF803006946144800F01BFB4020ADF870
:1002F000000003208DF8020004208DF803006946F9
:100300000D4800F00EFB20210B4800F0E6FB102109
:10031000094800F0E4FB0821074800F0E0FB042155
:10032000054800F0DCFB0221034800F0D8FB4FF445
:10033000FA6002F0DBFA08BD0008014070B505461E
:10034000002408E0E0B2294600F038F84FF4FA60E3
:1003500002F0CCFA641C0C2CF4DB70BD2DE9F05FCC
:1003600083464FF0000A1AE00120114901F82A00E3
:100370005BF82A0003F098FE804600220D4B03F044
:1003800075FC064600220C4B03F0D0F9044603F03E
:10039000D9FB074901EB8A0148800AF1010ABAF149
:1003A000080FE1DB024802F07DFABDE8F09F000093
:1003B000BC0100208099B9400000E03F2DE9FF5FBB
:1003C00005460E46032095FBF0F030B101280AD017
:1003D00002280FD003281BD113E00221534800F05C
:1003E0007CFB534C15E00421504800F076FB504C48
:1003F00009340EE008214D4800F06FFB4C4C1234DC
:1004000007E01021494800F068FB494C1B3400E02C
:1004100000BF00BF4FF4FA6002F068FA4FF0000925
:100420000AE0FF2002F0B2F904F809004FF4FA7074
:1004300002F05CFA09F10109B9F1090FF1DB1021B1
:100440003A4800F04CFB0821384800F048FB0421F2
:10045000364800F044FB0221344800F040FB20788D
:1004600001285DD1E07802285AD1A079032857D11C
:1004700095FBF0F100FB1150C0B9A07803F0A6FB8A
:10048000074600222B4B03F005FACDE90201607804
:1004900003F09CFBCDE90001DDE9022303F046F9FE
:1004A000824603F011F946F8250039E0032095FB58
:1004B000F0F100FB1150012819D1607903F086FB9F
:1004C000824600221B4B03F0E5F907468846207957
:1004D00003F07CFB3A464346CDE9000103F026F9E0
:1004E000CDE9020103F0F0F846F8250018E0207A83
:1004F00003F06CFB824600220E4B03F0CBF907465B
:100500008846E07903F062FB3A464346CDE90001B4
:1005100003F00CF9CDE9020103F0D6F846F8250006
:100520004FF4FA6002F0E2F9BDE8FF9F00080140D5
:1005300098010020000059402DE9FC4781468A4679
:100540001849504604F040F802D2DFF858A006E0FF
:100550000021504603F038FF01D24FF0000A00247A
:1005600004E00120104901F82400641C082CF8DB89
:10057000504603F099FD074600220C4B03F076FB32
:10058000054600220A4B03F0D1F8CDE9000103F043
:10059000D9FA054901EB89014880034802F082F944
:1005A000BDE8FC8700002041BC0100208099B940D3
:1005B0000000E03F70B504460D462946204604F091
:1005C00003F807D20121084600F014F901200A4976
:1005D00048700FE00949284604F032F806462146E3
:1005E00003F0F2FF06D20021012000F003F9002001
:1005F0000149487070BD00001C0000200000484305
:100600002DE9F04101460023087902280FD14878EE
:1006100091F800C00CEBCC0808EB0C1C00EB8C072D
:1006200012480068B84202D00020BDE8F0818D7900
:10063000087A91F807C00CEBCC0808EB0C1C00EB17
:100640008C06002204E002F10A00085C0344521CFC
:10065000B242F8DB642093FBF0FC00FB1C30C4B218
:10066000AC4201D10120E0E70020DEE7CC00002011
:1006700070B5014600234D7D002203E0D01C085CCC
:100680000344521C122AF9DB642093FBF0F600FBB2
:100690001630C4B2AC4201D1012070BD0020FCE78D
:1006A00038B50121082000F0E7FD4FF43040ADF8E7
:1006B000000003208DF8020010208DF80300694629
:1006C000264800F02EF94FF48040ADF800000320DA
:1006D0008DF8020004208DF8030069461F4800F0E1
:1006E00020F94FF480511D4800F0F9F9002409E089
:1006F00055201B4901F8240041F2090001EB840157
:100700004880641C082CF3DB002403E0144802F04A
:10071000C9F8641C082CF9DB002409E057201049B3
:1007200001F824004FF4607001EB84014880641CE0
:10073000082CF3DB0A4802F0B5F8002408E0012099
:10074000074901F82400002001EB84014880641C63
:10075000082CF4DB024802F0A5F838BD000C01407B
:10076000BC01002070B50546002405E0204600F0DD
:1007700013F82855601CC4B2082CF7DB70BD70B5A7
:100780000546002405E0295D204600F033F8601C92
:10079000C4B2082CF7DB70BD70B50546082D1DD21C
:1007A000DFE805F004070A0D101316194FF48074E2
:1007B00015E04FF4007412E04FF480640FE04FF442
:1007C00000640CE04FF4805409E04FF4005406E05C
:1007D0004FF4804403E04FF4004400E000BF00BF4A
:1007E0002146034800F070F90646304670BD00000F
:1007F000001C014070B505460E46082D1DD2DFE8ED
:1008000005F004070A0D101316194FF4807415E053
:100810004FF4007412E04FF480640FE04FF4006472
:100820000CE04FF4805409E04FF4005406E04FF41C
:10083000804403E04FF4004400E000BF00BF26B94D
:100840002146044800F049F903E02146014800F040
:1008500046F970BD0018014010B5164800786628AA
:100860000AD003DC38B155281FD109E0772818D009
:1008700088281AD111E018E00F4802F079FD14E041
:100880000E4802F0B3FA0E4C63780E4C6268216891
:100890000D4CE06800F09CF907E00C4802F026FCE3
:1008A00003E00B4802F0D8F900BF00BF0020014967
:1008B000087010BDD1000020D10300202C030020BF
:1008C00014000020C00200206002002099040020D3
:1008D0003904002001B54FF47A70009901EBC10191
:1008E000C9004FF0E02251610521116112E000BF03
:1008F0004FF0E021096901F480310029F8D04FF070
:10090000E021096921F480314FF0E0221161401E9D
:1009100000B900E0EBE700BF04214FF0E0221161D5
:1009200008BD2DE9F04102460025002600200023E5
:100930000024002791F803C00CF00F0591F803C0C4
:100940000CF0100CBCF1000F03D091F802C04CEA7F
:10095000050591F800C0BCF1000F31D014680020EB
:100960002BE04FF0010C0CFA00F3B1F800C00CEAD8
:1009700003069E4220D183004FF00F0C0CFA03F7C0
:10098000BC4305FA03FC4CEA040491F803C0BCF133
:10099000280F06D14FF0010C0CFA00FCC2F814C06D
:1009A0000AE091F803C0BCF1480F05D14FF0010CEB
:1009B0000CFA00FCC2F810C0401C0828D1D3146007
:1009C000B1F800C0BCF1FF0F34DD546800202EE008
:1009D00000F1080C4FF0010808FA0CF3B1F800C060
:1009E0000CEA03069E4221D183004FF00F0C0CFA53
:1009F00003F7BC4305FA03FC4CEA040491F803C076
:100A0000BCF1280F05D100F1080C08FA0CF8C2F867
:100A1000148091F803C0BCF1480F07D100F1080C15
:100A20004FF0010808FA0CF8C2F81080401C0828A2
:100A3000CED35460BDE8F081F0B50A46002300240F
:100A40000021002500F00046B6F1004F02D11D4EF6
:100A5000F16901E01B4E7168C0F3034583B200F4F5
:100A60004016B6F5401F08D121F07061154E76682A
:100A700026F07066134F7E6012E000F48016B6F523
:100A8000801F06D1032606FA05F4A14341F07061E8
:100A900006E0460D360103FA06F6B14341F07061F7
:100AA00022B1460D360103FA06F6314300F0004646
:100AB000B6F1004F02D1034EF16101E0014E7160C9
:100AC000F0BD0000000001400246002093680B408A
:100AD0000BB1012000E000207047416170470161C7
:100AE000704700002DE9F0413148007801285DD1C0
:100AF000304909792F4AD27802EBC20303EB021284
:100B000001EB820003F048FC2B49086029498979F0
:100B1000284A527902EBC20303EB021201EB820076
:100B200003F03AFC254908602249097A214AD27922
:100B300002EBC20303EB021201EB820003F02FF879
:100B4000064600221E4B02F0A5FE044602F0BCFD44
:100B50001C4908601749897A164A527A02EBC20387
:100B600003EB021201EB820003F019F806460022A3
:100B7000134B02F08FFE044602F0A6FD12490860F6
:100B80000C49097B0B4AD27A02EBC20303EB021237
:100B900001EB820003F003F806460022084B02F046
:100BA00079FE044602F090FD08490860BDE8F08136
:100BB000DD00002062150020640100206801002093
:100BC000000024406C01002070010020740100200E
:100BD00030B5094C2060094C2160094C2260094C59
:100BE00024780CB9012400E000241C43064D2C702D
:100BF0000124064D2C7030BD4C0100205401002012
:100C00005801002041010020470100204901002037
:100C100010B50121C02000F02FFB10BD08B5102039
:100C20008DF803004FF47F40ADF8000003208DF8ED
:100C3000020069460848FFF774FE04208DF803009F
:100C40004FF47F40ADF8000003208DF802006946A4
:100C50000248FFF766FE08BD00180140001C014075
:100C600010B5FFF7D5FFFFF7D9FF10BDFEB505465C
:100C70000E46681C0546062823D2DFE800F0220352
:100C80000910161C254C0121C80200F0F5FA19E0E4
:100C90004FF080440121084600F0CEFA12E0204CCB
:100CA0000121022000F0C8FA0CE01E4C01210420B2
:100CB00000F0C2FA06E01C4C0121082000F0BCFA4A
:100CC00000E000BF00BF204600F01EFF314617487D
:100CD00003F0AEFB074603F043FB80B2ADF804001F
:100CE00048F69F40ADF800000020ADF80600ADF8D2
:100CF00002008DF808006946204601F013F8012132
:100D0000204600F0EFFE01221146204601F001F8D6
:100D10000021204600F0ECFEFEBD0000002C01404A
:100D20000004004000080040000C00400000FA44AD
:100D3000002070472DE9F04106460F4690461C46BC
:100D4000002502E0FFF7F4FF054610480078002870
:100D5000F8D015B12846BDE8F08101210846FFF71B
:100D600049FD012060706078012802D1022001F065
:100D700013F900BF064800780028FBD123464246FD
:100D80003946304600F022F80020E4E7490100200F
:100D90004401002070B505460E46002413E0E0B281
:100DA0000021FFF7C9FB002045F824000120FFF7D0
:100DB00091FDE0B20021FFF71DFD0020305501201C
:100DC000FFF788FD641C082CE9DB70BD2DE9F05F9E
:100DD000834689461C464FF0000A02E0FFF7A8FF51
:100DE00082462A4800780028F8D0BAF1000F03D0D4
:100DF00021464846FFF7CEFF00210120FFF7FAFC0D
:100E0000002060702248006803F04EF90546002279
:100E1000204B03F029F82CD21F48006803F044F956
:100E2000074600221D4B03F055F8054602F04CFC26
:100E3000194908600846006803F036F905460022A3
:100E4000174B03F011F81FD21648016812480068CA
:100E500000F048F9144908600846006801F08EFC6B
:100E6000022001F099F800BF104800780028FBD15B
:100E70000AE00C4801680E4800F034F90A4908609D
:100E80000846006801F07AFCBDE8F09F49010020A7
:100E90006C01002000003C40500100200000D03FC9
:100EA000000030404C0100205C0100204401002083
:100EB000000088412DE9F04105460E461746984648
:100EC000002402E0FFF734FF04461A4800780028A7
:100ED000F8D014B12046BDE8F081174801681748E2
:100EE000006803F071FB0AD21448036812480268D4
:100EF000134801681348006800F046FB09E00F48FA
:100F000003680D4802680E4801680E48006800F04A
:100F100091FB022001F040F800BF0B480078002848
:100F2000FBD10A4801680A480068FFF743FB00202C
:100F3000D1E7000049010020700100206C01002071
:100F40004C010020500100204401002068010020D5
:100F5000640100202DE9F04105460E4617469846EB
:100F60000024FFF7E5FE044614B12046BDE8F081F9
:100F700000210846FFF73EFC0120FFF7ABFC0021F3
:100F80000120FFF737FC0120FFF7A4FC0020EDE76C
:100F900008B500214FF0006000F09AF84FF440705F
:100FA00000F08CF825208DF8000001208DF801005C
:100FB0008DF80300684600F049F826208DF80000FF
:100FC00002208DF8010001208DF80300684600F032
:100FD0003DF819208DF8000003208DF80100012054
:100FE0008DF80300684600F031F81C208DF80000F1
:100FF00004208DF8010001208DF80300684600F000
:1010000025F81D208DF8000005208DF80100012035
:101010008DF80300684600F019F81E208DF80000D6
:1010200006208DF8010001208DF80300684600F0CD
:101030000DF832208DF8000007208DF80100012006
:101040008DF80300684600F001F808BD70B5002176
:1010500000230F22C47804B3154C246804F4E06420
:10106000C4F5E064210AC1F10403CA40447804FADB
:1010700003F184781440214309010E4C0678A155F0
:10108000047804F01F050124AC4005786D11AD0013
:1010900005F1E025C5F8004109E0047804F01F05DA
:1010A0000124AC40044D0678761145F8264070BD09
:1010B0000CED00E000E400E080E100E002490143C3
:1010C000024A1160704700000000FA050CED00E0D4
:1010D000024A0A400243024B1A60704780FFFF1F1A
:1010E00008ED00E02DE9F04F87B0804689460025E5
:1010F000002006900024002605900490002703900D
:101100004946404603F09CFA04463146204603F027
:1011100097FA0490274631464FF0804003F088F953
:101120008346214603F081FA8246059902F0E8FFE2
:1011300003900596264611480399006803F078F954
:10114000394602900E48006803F072F901900D488C
:101150000499006803F06CF90090019902F0D0FF47
:101160008346029902F0CCFF8246069902F0C8FF3E
:1011700005460695284607B0BDE8F08F800100209F
:101180007C01002078010020F0B50C46059D014649
:1011900001EB81060D4F3F6807EBC606F46001EBDB
:1011A00081060A4F3F6807EBC606326101EB8106F4
:1011B000064F3F6807EBC606736101EB8106034FDC
:1011C0003F6807EBC6063562F0BD000094010020C1
:1011D00010B501460A7ACB7903EBC30404EB031381
:1011E00002EB83000A79012A13D14A780B7803EBCA
:1011F000C30404EB031302EB83020A4B1A600122BF
:10120000094B1A704A79094B1A704A7A084B1A70BE
:1012100007E00A79022A04D1034B1A704A79054B78
:101220001A7010BDCC000020D0000020D200002099
:10123000D3000020D100002029B1064AD269024320
:10124000044BDA6104E0034AD2698243014BDA615C
:10125000704700000010024029B1064A126902439B
:10126000044B1A6104E0034A12698243014B1A617C
:10127000704700000010024029B1064A92690243FB
:10128000044B9A6104E0034A92698243014B9A61DC
:10129000704700000010024029B1064AD26802439C
:1012A000044BDA6004E0034AD2688243014BDA60FF
:1012B000704700000010024010B500F029F84FF40C
:1012C000803000F0E7F800F043F90446012C1ED10D
:1012D000002000F0D3F8002000F00EF9A00200F08A
:1012E000FFF84FF4E011200400F018F9012000F09D
:1012F0000FF900BF392000F09BF80028FAD0022037
:1013000000F01AF900BF00F0B1F80828FBD110BDB9
:101310000F48006840F001000D4908600846406829
:101320000C4908400A494860084600680A490840D4
:10133000074908600846006820F4802008600846D5
:10134000406820F4FE0048604FF41F00886070473A
:10135000001002400000FFF8FFFFF6FE30B500214C
:101360000022002400232D4D6D6805F00C0121B1F1
:10137000042905D0082923D105E0294D056022E084
:10138000274D05601FE0254D6D6805F47012234D53
:101390006D6805F48034022505EB92421CB9214D9D
:1013A000554305600BE01D4D6D6805F400351DB11A
:1013B0001C4D5543056002E0194D5543056002E0A0
:1013C000174D056000BF00BF144D6D6805F0F001BA
:1013D0000909154D6B5C0568DD4045600F4D6D6872
:1013E00005F4E061090A104D6B5C4568DD408560DD
:1013F0000A4D6D6805F46051C90A0B4D6B5C456878
:10140000DD40C560054D6D6805F44041890B074D11
:101410006B5CC568B5FBF3F5056130BD001002409B
:1014200000127A0000093D0000000020100000209A
:1014300010B501460022002300204A11012A02D1E2
:10144000094C236806E0022A02D1074C236A01E016
:10145000054C636A01F01F02012494401C400CB14A
:10146000012000E0002010BD00100240024840684A
:1014700000F00C0070470000001002400146002000
:10148000034A506820F0F0000843506070470000A5
:10149000001002401149096821F480310F4A11609F
:1014A0001146096821F480211160B0F5803F03D016
:1014B000B0F5802F0ED106E00849096841F480316B
:1014C000064A116007E00549096841F4A021034A72
:1014D000116000E000BF00BF704700000010024034
:1014E00001460020034A506820F4E0600843506041
:1014F000704700000010024001460020034A506877
:1015000020F4605040EAC100506070470010024073
:101510000149086670470000000042420246002070
:10152000044B586820F47C1042EA01031843014B35
:10153000586070470010024001460020034A50687E
:1015400020F0030008435060704700000010024084
:1015500038B5002000900024002500BF3120FFF79F
:1015600067FF05460098401C00900098B0F5A06FFA
:1015700001D0002DF2D03120FFF75AFF08B101242D
:1015800000E00024204638BD2DE9F047804689461A
:1015900015461C462148007800283DD1204602F01F
:1015A00083FD064600221E4B02F05EFC1DD820463D
:1015B00002F07AFD064600221A4B02F01BFB14D201
:1015C00001210020FFF716F9012017490870FFF7E5
:1015D00081F921462846FFF785FD14490860084631
:1015E00001680320FEF7A8FF16E0204602F05CFD2C
:1015F000064600220B4B02F037FC0DD801210020DB
:10160000FFF7F8F801200849087009490320FEF7A0
:1016100093FF0120FFF75EF9BDE8F0874A01002043
:1016200000003740000039401C000020600100200D
:10163000000020412DE9F04106460F4614461D46A4
:101640002148007801281ED1022000F0A5FC00BF2F
:101650001E4800780028FBD12146284602F0B4FE3F
:101660002FD239463046FFF73DFD1949086008463C
:10167000006801F083F800210846FFF7BBF800205E
:10168000144908701DE010480078D0B94FF080412F
:10169000204602F0D5FF8046294602F095FF10D281
:1016A00039463046FFF71EFD0949086008460068C4
:1016B00001F064F800210846FFF79CF80020054976
:1016C0000870BDE8F08100004A01002044010020BC
:1016D0005C0100201C0000202DE9F047814601F04C
:1016E0000EF9DFF860A080211748FFF7F6F901F046
:1016F00006F9002408E01549085D01F0BFFC0AF86E
:10170000040001F0FCF8641C142CF4D380210E4872
:10171000FFF7E5F9002411E00A49891C01EB840177
:10172000086802F03CFA07460022094B02F0B2F8C2
:10173000054601F0C9FF49F82400641C042CEBDBCA
:10174000BDE8F087DC010020000C01402A470008BA
:1017500000408F4008B501210802FFF78DFD0121EF
:101760000820FFF789FD4FF42040ADF8000003206A
:101770008DF8020010208DF8030069461748FFF726
:10178000D0F84FF48040ADF8000003208DF802003F
:1017900048208DF8030069461048FFF7C2F84FF45F
:1017A000C070ADF8000003208DF8020010208DF805
:1017B000030069460A48FFF7B4F84FF400510748A0
:1017C000FFF78BF901F09BF880210548FFF787F9B7
:1017D0004FF480710248FFF782F908BD00200140F4
:1017E000000C01402DE9F0410646884614460025CC
:1017F0002D4800686421B0FBF1F0C2B228466D1C90
:10180000225429480068B0FBF1F201FB120228467D
:101810006D1C2254002228466D1C225428466D1C43
:1018200022542248027828466D1C22541F48007812
:10183000012805D11E48027828466D1C225404E078
:101840001C48027828466D1C22544146304600F060
:10185000DDFF29466D1C6054642096FBF0F0C2B297
:1018600028466D1C2254642096FBF0F100FB1160A9
:10187000C2B228466D1C2254002228466D1C2254F8
:10188000002705E018F8072028466D1C22547F1C0D
:10189000B742F7DBFF2228466D1C225428466D1CF8
:1018A0002254BDE8F0810000CC000020D0000020D0
:1018B000D2000020D100002010B500F001F810BDCA
:1018C0000CB50020019000903348006840F480304F
:1018D0003149086000BF3048006800F400300090D3
:1018E0000198401C0190009818B90198B0F5A06FBC
:1018F000F1D12948006800F4003010B101200090B7
:1019000001E0002000900098012843D1234800689E
:1019100040F01000214908600846006820F00300EC
:1019200008600846006840F0020008601A484068F5
:10193000194948600846406848600846406840F4D5
:10194000806048600846406820F47C104860084683
:10195000406840F4E81048600846006840F0807035
:10196000086000BF0C48006800F000700028F9D043
:101970000948406820F0030007494860084640686D
:1019800040F00200486000BF0348406800F00C00CF
:101990000828F9D10CBD00000010024000200240D0
:1019A00010B51348006840F001001149086008466E
:1019B0004068104908400E494860084600680E49D2
:1019C00008400B4908600846006820F48020086041
:1019D0000846406820F4FE0048604FF41F0088600D
:1019E000FFF76AFF4FF000600449086010BD000077
:1019F000001002400000FFF8FFFFF6FE08ED00E0D7
:101A000010B50121114800F073F9C8B110480078F1
:101A100088B910480068401E0E49086008460068F2
:101A200070B90D4801F0E2F90C4801F015F90320F6
:101A30000849086004E0032006490860FEF70CFF2F
:101A40000121024800F051F810BD0000002C0140B7
:101A5000D1000020840100202C0300203904002044
:101A600010B50121880700F043F9B0B10D480078A6
:101A700070B90D480068401E0B49086008460068B0
:101A800058B90A4800F00EFA03200749086004E03C
:101A900003200549086000F097F90121880700F04C
:101AA00024F810BDDD0000208C0100207A150020F4
:101AB00010B500240121094800F01AF948B10020AE
:101AC00007490870641CB4F5167F02D10024012078
:101AD00008700121014800F008F810BD0004004022
:101AE00044010020CA4302827047CA430282704701
:101AF00021B1028842F00102028004E002884FF620
:101B0000FE731A400280704710B50446684884424C
:101B100008D10121C014FFF7BFFB0021E014FFF73B
:101B2000BBFBC4E0B4F1804F08D101210846FFF7A8
:101B300093FB00210120FFF78FFBB8E05D48844252
:101B400008D101210220FFF787FB00210220FFF7C7
:101B500083FBACE05848844208D101210420FFF700
:101B60007BFB00210420FFF777FBA0E05348844271
:101B700008D101210820FFF76FFB00210820FFF7A3
:101B80006BFB94E04E48844208D101211020FFF7FE
:101B900063FB00211020FFF75FFB88E04948844287
:101BA00008D101212020FFF757FB00212020FFF75B
:101BB00053FB7CE04448844208D101214014FFF7E4
:101BC0006BFB00216014FFF767FB70E03F48844225
:101BD00009D10121C804FFF75FFB00214FF4002069
:101BE000FFF75AFB63E03A48844209D10121080516
:101BF000FFF752FB00214FF48010FFF74DFB56E03A
:101C00003448844209D101214805FFF745FB0021F2
:101C10004FF40010FFF740FB49E02F48844208D101
:101C200001214020FFF718FB00214020FFF714FBA3
:101C30003DE02A48844208D101218020FFF70CFBB7
:101C400000218020FFF708FB31E02548844208D1BD
:101C500001218015FFF700FB0021A015FFF7FCFA1A
:101C600025E02048844209D101210804FFF714FB34
:101C700000214FF48030FFF70FFB18E01A48844230
:101C800009D101214804FFF707FB00214FF4003080
:101C9000FFF702FB0BE01548844208D101218804BC
:101CA000FFF7FAFA00214FF48020FFF7F5FA10BD94
:101CB000002C01400004004000080040000C0040DF
:101CC000001000400014004000340140004C01406E
:101CD000005001400054014000180040001C00402A
:101CE0000020004000400140004401400048014005
:101CF00030B50246002000230024158A05EA0103BE
:101D0000958905EA010413B10CB1012000E000201F
:101D100030BD1AB183890B43838102E083898B43F1
:101D200083817047002202881D4B98420ED01D4BC4
:101D300098420BD0B0F1804F08D01B4B984205D091
:101D40001A4B984202D01A4B984204D14FF68F7327
:101D50001A404B881A43174B984207D0164B9842AB
:101D600004D04FF6FF431A40CB881A4302808B8879
:101D700083850B8803850A4B98420BD0094B984208
:101D800008D00E4B984205D00D4B984202D00D4B17
:101D9000984201D10B7A03860123838270470000A9
:101DA000002C0140003401400004004000080040C5
:101DB000000C0040001000400014004000400140B2
:101DC000004401400048014010B50F480078052844
:101DD00014D2DFE800F003040A0B0F000FE00B48F9
:101DE00000F060F8FEF77EFE09E008E001200849F7
:101DF000087004E000200649087000E000BF00BF42
:101E000000200149087010BDDD0000207A15002077
:101E10004101002030B5044600252046FEF728FC8D
:101E2000054655B12078552802D06078662802D141
:101E3000A07803490870012030BD0020FCE70000B5
:101E4000DD0000202DE9F0410746884614460025B4
:101E5000552228466D1C2254662228466D1C2254A9
:101E60000F48027828466D1C2254002605E018F819
:101E7000062028466D1C2254761CBE42F7DB4146E4
:101E8000384600F0C3FC29466D1C60546622284683
:101E90006D1C2254552228466D1C2254BDE8F08149
:101EA000DD00002070B5054600263648FEF746FAEC
:101EB00000242DE0344901EBC403324951F82400D9
:101EC000D3E9001200F02EFD304941F8240051F80A
:101ED000240000F081FD3146761C68542B4951F8EE
:101EE000240000F090FD3146761C6854274951F8D3
:101EF000240000F02DFD01463046761C295423496C
:101F000051F8240000F048FD3146761C6854641CEA
:101F1000052CCFDB1E48FFF7DFFB002421E01C4926
:101F200051F8240000F058FD3146761C68541849D9
:101F300051F8240000F067FD3146761C68541449BE
:101F400051F8240000F004FD01463046761C295467
:101F50000F4951F8240000F01FFD3146761C6854EB
:101F6000641C032CDBDB0B48FEF7FCFB0948027802
:101F70003046761C2A54074842783046761C2A544C
:101F800070BD0000900200206C0000206002002064
:101F9000C00200201400002070B505466C1C062C01
:101FA0001DD2DFE804F01C03080D121701210D48B3
:101FB000FFF79EFD14E001218807FFF799FD0FE070
:101FC00001210948FFF794FD0AE001210748FFF7C6
:101FD0008FFD05E001210648FFF78AFD00E000BF04
:101FE00000BF70BD002C014000040040000800400C
:101FF000000C004010B5012240F22551054800F0C8
:1020000016FA00F087FC4FF480710348FEF765FD77
:1020100010BD0000003801400008014010B5012249
:1020200040F22551044800F002FA00F073FC8021D0
:102030000248FEF752FD10BD00440040001401406C
:102040002DE9F0474FF00008C14608214B4800F049
:10205000B7F938B1494800F063FB05460821474805
:1020600000F045F940F22551444800F0B6F9002847
:102070007DD0424800F054FB0546414801680068A5
:10208000401C3F4A10603F484554104600680228F3
:102090000ED310460068801E3A490E5C1046006858
:1020A000401E0F5C06EA0700FF2801D14FF001082F
:1020B000B8F1000F5BD04FF000083148006832499A
:1020C000086000202E4908602E48FEF799FA8146E4
:1020D000B9F1000F4BD02B48FFF77AF82B48007866
:1020E000022844D12A480078552809D1294A2A498A
:1020F000A520FFF777FB2749B12000F05DFA36E015
:1021000023480078772809D1224A24496020FFF724
:1021100069FB20496C2000F04FFA28E01C48007849
:10212000662810D117491848006800F045FA0024C5
:1021300006E0144904F10A00085C19490855641CBA
:10214000682CF6DB13E01248007888280FD10D497F
:102150000D48006800F030FA002406E0094904F157
:102160000A00085C0F490855641C612CF6DB40F23C
:102170002551024800F0BBF8BDE8F0870038014067
:1021800088010020FA040020D8000020D0000020A0
:10219000D10000209A1400202C03002039040020D4
:1021A000D1030020990400202DE9F0410027B84612
:1021B00008213E4800F004F938B13C4800F0B0FA7C
:1021C00004460821394800F092F840F2255137487A
:1021D00000F003F9002861D0344800F0A1FA044669
:1021E000334801680068401C314A1060314844544B
:1021F0001046006802280DD310460068801E2D4945
:102200000D5C10460068401E0E5C662D02D1552EF6
:1022100000D10127002F41D000272548006826491A
:1022200008600020224908602248FEF721FA804613
:10223000B8F1000F32D01F48FFF7ECFD1F480078BF
:10224000012805D11E4A1F491220FFF7FBFD25E09A
:102250001A480078032804D11B49182000F081F99E
:102260001CE01648007803280AD10120174908709D
:102270000A20FEF72FFB1649182000F072F90DE036
:102280000E480078042809D10020104908700A205F
:10229000FEF720FB0F49182000F063F940F22551AA
:1022A0000D4800F024F8BDE8F08100000044004033
:1022B0009001002062150020D8000020DD000020E1
:1022C0009A1400207A150020F60000204101002019
:1022D0000E010020260100200038014001F40072A8
:1022E000B2F5007F00D100BFCA430280704710B52D
:1022F0000022002340F66A14A14200D100BF0A1256
:1023000001249440A3B2DC43048010BD21B1828932
:1023100042F40052828104E082894DF6FF731A4034
:102320008281704710B504462048844209D10121BA
:102330008803FEF7B1FF00214FF48040FEF7ACFFA9
:1023400032E01B48844209D101214804FEF784FF92
:1023500000214FF40030FEF77FFF25E0154884424E
:1023600009D101218804FEF777FF00214FF4802076
:10237000FEF772FF18E01048844209D10121C80419
:10238000FEF76AFF00214FF40020FEF765FF0BE027
:102390000A48844208D101210805FEF75DFF0021AB
:1023A0004FF48010FEF758FF10BD000000380140C8
:1023B0000044004000480040004C004000500040F5
:1023C00002460020B1F5007F00D100BF13880B400A
:1023D0000BB1012000E00020704770B502460024D8
:1023E00000230025002040F66A16B14200D100BF4C
:1023F000C1F3421501F01F03012606FA03F3012D74
:1024000002D19689334006E0022D02D1168A33406C
:1024100001E0968A33400C12012606FA04F416886D
:10242000344013B10CB1012000E0002070BDF0B5C4
:102430000346002400260025002040F66A17B94212
:1024400000D100BF1846C1F3421401F01F06012756
:1024500007FA06F5012C01D10C3004E0022C01D161
:10246000103000E014301AB107682F43076002E013
:102470000768AF430760F0BD2DE9F04786B0054619
:102480000E460024A24600BFA1460027B08900B135
:1024900000BF2F462C8A4CF6FF700440F08804439E
:1024A0002C82AC894EF6F3100440B0883189084381
:1024B000718908430443AC81AC8A4FF6FF40044065
:1024C000B0890443AC8201A8FEF748FF1F48874249
:1024D00002D1DDF810A001E0DDF80CA0A88900F41D
:1024E000004040B10AEBCA0000EB0A103168490015
:1024F000B0FBF1F807E00AEBCA0000EB0A10316804
:102500008900B0FBF1F86420B8FBF0F00401200969
:10251000642101FB1089A88900F4004040B13220F9
:1025200000EBC900B0FBF1F000F00700044308E045
:10253000322000EB09106421B0FBF1F000F00F0035
:1025400004432C8106B0BDE8F0870000003801404C
:1025500001468888C0F308007047C1F308028280F2
:10256000704770B505460E46002403E0305D00F06C
:1025700005F8641CAC42F9DB70BD000010B50446E0
:1025800080210B48FEF7ABFA00F0C4F92146094858
:10259000FFF7E3FF00BF40210648FFF711FF0028C7
:1025A000F9D080210248FEF798FA00F0B3F910BD87
:1025B000001401400044004070B505460E4600245A
:1025C00003E0305D00F0B4F8641CAC42F9DB70BD90
:1025D00000B585B001210520FEF74EFE01218803DC
:1025E000FEF74AFE01212120FEF746FE01214804A4
:1025F000FEF722FE01210820FEF71EFA10208DF8BA
:1026000013000001ADF8100003208DF8120004A99A
:102610003F48FEF786F918208DF813004FF400703C
:10262000ADF8100003208DF8120004A93848FEF719
:1026300078F904208DF813000002ADF81000032093
:102640008DF8120004A93248FEF76BF918208DF8B6
:1026500013002020ADF8100003208DF8120004A90B
:102660002C48FEF75EF904208DF813004020ADF8E9
:10267000100003208DF8120004A92648FEF751F936
:1026800010208DF813008020ADF8100003208DF885
:10269000120004A91F48FEF744F91F48FFF742FE45
:1026A0001E48FFF73FFE4FF4165000900020ADF893
:1026B0000600ADF80400ADF80800ADF80C000C20E1
:1026C000ADF80A0069461448FFF7D6FE694613487C
:1026D000FFF7D2FE40211048FFF700FE012240F232
:1026E00025510D48FFF7A3FE01210B48FFF70EFE11
:1026F00040210A48FFF7F2FD012240F22551074828
:10270000FFF795FE01210548FFF700FE05B000BD6B
:10271000000801400014014000380140004400401E
:1027200070B504462046FFF713FFC5B2284670BDBA
:1027300010B504464FF480710B48FEF7D0F900F055
:10274000E9F821460948FFF708FF00BF4021074884
:10275000FFF736FE0028F9D04FF480710248FEF7EB
:10276000BCF900F0D7F810BD000801400038014066
:1027700010B5FEF70DFCFFF72BFF10BD10B504469A
:1027800021460220FDF7D8FE10BD000070B50446BA
:10279000002520211C48FEF7A0F900262FE068063E
:1027A000050E04F0800020B180211748FEF797F94C
:1027B00003E080211448FEF790F94FF4FA7000F01E
:1027C00095F820211048FEF78AF94FF4FA7000F0CE
:1027D0008DF820210C48FEF780F94FF4FA7000F0D4
:1027E00085F840210848FEF76FF9012800D100E084
:1027F000002008B145F001056006040E761C082E85
:10280000CDDB284670BD00000008014070B50246CF
:102810000B460024002102E05D5C2C44491C9142DF
:10282000FADB642594FBF5F605FB1645E8B270BDAE
:1028300070B5044600254FF400411948FEF74DF9E4
:10284000002628E06806050E04F0800028B14FF449
:1028500000511348FEF743F904E04FF400511048CB
:10286000FEF73BF94FF400410D48FEF738F94FF4FD
:1028700080410B48FEF728F9012800D100E0002034
:1028800008B145F001054FF400410548FEF725F970
:102890006006040E761C082ED4DB284670BD0000AE
:1028A000000C014070B505464FF480510E48FEF70C
:1028B00014F900240FE015F82400FFF7B9FF05EB29
:1028C000840149880812FFF7B3FF05EB840188787B
:1028D000FFF7AEFF641C082CEDDB4FF4805102487B
:1028E000FEF7FDF870BD0000000C0140002800DA82
:1028F000002000BF011EA0F10100FBD1704708B508
:102900004FF4FA70009000BF0098411E009100281B
:10291000FAD108BD192000BF011EA0F10102D0B2FA
:10292000FAD1704737B504462046019901F080FD81
:102930000546029901F0E4FB3EBD37B5044620464A
:10294000029901F07DFE0546019901F047FC3EBD6C
:1029500070B5044600250021204601F035FD04D263
:102960000B49204601F064FD04460A49204601F067
:102970005FFD064601F0F4FC42F2107190FBF1F2AB
:1029800001FB1200642190FBF1F0C5B2284670BD36
:10299000000080BF00401C4670B5044600250021A1
:1029A000204601F011FD04D20949204601F040FD06
:1029B00004460849204601F03BFD064601F0D0FCE4
:1029C000642190FBF1F201FB1200C5B2284670BDF4
:1029D000000080BF00401C4670B50646002530460A
:1029E00001F0BEFC0446002C07DA6442642094FB2C
:1029F000F0F0C5B245F0800503E0642094FBF0F0F0
:102A0000C5B2284670BD70B505460026284601F0BF
:102A1000A7FC0446002C00DA6442642094FBF0F129
:102A200000FB1140C6B2304670BD0000FEF744FC0A
:102A3000FEF716F9FDF748FCFDF732FEFEF78AFEB9
:102A4000FFF796FE4FF080410020FEF70FF90020BF
:102A5000FFF7A2FAFFF7CEFA4FF07E510120FEF702
:102A600005F90120FFF798FAFFF7D8FA4FF08041F7
:102A70000220FEF7FBF8CDE00AE00020FDF78CFE17
:102A8000654908700846007810B101206349087054
:102A90006148007818B9614800780028EDD05E4898
:102AA000007850B901210220FDF7A4FE5C495D4881
:102AB000FEF770F90020594908705B4800785B49BF
:102AC000097808435A49097809B9012100E0002131
:102AD0000843E0B157480078C8B94F480078B0B112
:102AE0004F4B554A4F495548FEF7E4F95449087091
:102AF0000846007838B101210220FDF77BFE4849E5
:102B00004848FEF747F901204A49087037E048482D
:102B1000007878B14748007860B93F48007848B1FC
:102B20003F4B454A3F494548FEF750F9012041498E
:102B3000087024E04348007808B33E480078F0B9B4
:102B400035480078D8B1364B3B4A36493B48FEF70A
:102B5000F1F83B4908700846007838B1012102209D
:102B6000FDF748FE2E492F48FEF714F92C4B324A48
:102B70002C493248FEF72AF901202E4908702B48CB
:102B8000007808B9012000E000202E49097809B931
:102B9000012100E000210843F0B126480078D8B1B7
:102BA0001D480078C0B126480078A8B91C4B224ABD
:102BB0001C492248FEF7CEF92149087008460078E2
:102BC00038B101210220FDF715FE15491548FEF721
:102BD000E1F80020174908700CE01648007848B169
:102BE00019480368194802681948016819480068BB
:102BF000FEF7CAFC0F48007860B10748007848B17A
:102C0000094800780949097808430E4909780843BA
:102C10000028E2D130E700003E0100203F01002003
:102C20001C000020F0020020410100204001002093
:102C300047010020430100201400002090020020E2
:102C400048010020420100206C010020700100209A
:102C50004C010020500100202DE9F04104460026DF
:102C60000025BBE005EB85015F4A02EBC101C868A6
:102C7000FFF7B2FE3146761C605405EB85015A4AD7
:102C800002EBC101C868FFF7BEFE3146761C6054F6
:102C900005EB8501544A02EBC101C868FFF758FEF5
:102CA0003146761C605405EB85014F4A02EBC101A9
:102CB000C868FFF771FE3146761C605405EB85014C
:102CC000494A02EBC1010869FFF786FE3146761CCE
:102CD000605405EB8501444A02EBC1010869FFF726
:102CE00092FE3146761C605405EB85013E4A02EBAC
:102CF000C1010869FFF72CFE3146761C605405EBD4
:102D00008501394A02EBC1010869FFF745FE3146EA
:102D1000761C605405EB8501334A02EBC10148691A
:102D2000FFF75AFE3146761C605405EB85012E4AAA
:102D300002EBC1014869FFF766FE3146761C60541C
:102D400005EB8501284A02EBC1014869FFF700FE47
:102D500001463046761C215405EB8501224A02EBE0
:102D6000C1014869FFF718FE3146761C605405EB37
:102D700085011D4A02EBC101086AFFF72DFE3146AD
:102D8000761C605405EB8501174A02EBC101086A05
:102D9000FFF739FE3146761C605405EB8501124A77
:102DA00002EBC101086AFFF7D3FD3146761C60547F
:102DB00005EB85010C4A02EBC101086AFFF7ECFD47
:102DC00001463046761C2154002704E0002230469C
:102DD000761C22547F1C082FF8DB6D1C042DFFF697
:102DE00041AFBDE8F0810000B01500202DE9F041B1
:102DF0000546002600279048FDF7A0FA00242CE0A5
:102E00008E4901EBC4038C4951F82400D3E9001228
:102E1000FFF788FD8A4941F8240051F82400FFF7A4
:102E2000DBFD3146761C6854854951F82400FFF7D4
:102E3000EAFD3146761C6854814951F82400FFF7B9
:102E400087FD3146761C68547D4951F82400FFF710
:102E5000A3FD3146761C6854641C0C2CD0DB7948E9
:102E6000FEF73AFC002420E0764951F82400FFF7F1
:102E7000B3FD3146761C6854724951F82400FFF7BF
:102E8000C2FD3146761C68546E4951F82400FFF7A4
:102E90005FFD3146761C68546A4951F82400FFF7FB
:102EA0007BFD3146761C6854641C042CDCDB00245A
:102EB00007E06548005D012802D1A0403843C7B251
:102EC000641C082CF5DB3046761C2F5400275F4825
:102ED000FDF744FA00242CE05D4901EBC4035B4993
:102EE00051F82400D3E90012FFF727FD594941F8B2
:102EF000240051F82400FFF76FFD3146761C68541A
:102F0000544951F82400FFF77EFD3146761C685481
:102F1000504951F82400FFF71BFD3146761C6854D8
:102F20004C4951F82400FFF737FD3146761C6854B0
:102F3000641C082CD0DB4848FDF714FC002407E093
:102F40004548005D18B10120A0403843C7B2641C59
:102F5000082CF5DB3046761C2F5400273F48FDF740
:102F60000EFC002407E03D48005D18B10120A040A0
:102F70003843C7B2641C082CF5DB3046761C2F544E
:102F80000027002409E0364904F10800085C012804
:102F900002D1A0403843C7B2641C082CF3DB304692
:102FA000761C2F540027002407E02D48005D0128DF
:102FB00002D1A0403843C7B2641C082CF5DB304670
:102FC000761C2F54002727480068274908602748A7
:102FD0000068486026480068886026480068C86025
:102FE000254800680861002421E01F4951F82400A9
:102FF000FFF7F2FC01463046761C29541A4951F875
:103000002400FFF700FD3146761C6854164951F83C
:103010002400FFF79DFC3146761C6854124951F894
:103020002400FFF7B9FC3146761C6854641C102C50
:10303000DBDBBDE8F0810000900200206C00002086
:1030400060020020C002002024000020F0020020C6
:103050002C000020D0020020140000201C000020C2
:103060001C030020640100202002002068010020D1
:103070006C010020700100207401002070B504462E
:10308000002500262CE06806050E4FF40051164876
:10309000FDF725FD04F0800028B14FF400411248EF
:1030A000FDF71DFD04E04FF400410F48FDF715FD4D
:1030B000FFF725FC4FF400510B48FDF70EFDFFF71D
:1030C0001EFC4FF480410848FDF7FEFC012800D1AA
:1030D00000E0002008B145F001056006040E761CF2
:1030E000082ED0DB284670BD002001402DE9F04FAE
:1030F00097B0054600263046761C285C00F00F008D
:103100000C90002727E1002419E03046761C285C4B
:1031100015A908553046761C285C13A90855304679
:10312000761C285C11A908553046761C285C0FA92E
:10313000085515A8005DC0090DA90855641C062C8A
:10314000E3DB9DF83C0000F041FD0022854BCDE91A
:10315000040100F09FFBCDE908019DF8440000F058
:1031600035FD0022804BCDE9000100F093FBCDE955
:1031700004019DF84C109DF8542002F07F0202EBF0
:10318000C20303EB021201EB820000F008FDCDE95F
:103190000201DDE9042300F0C9FACDE90601DDE909
:1031A000082300F0C3FACDE90A0100F08DFA804649
:1031B0009DF83D0000F00AFD00226A4BCDE90401B4
:1031C00000F068FBCDE908019DF8450000F0FEFC29
:1031D0000022654BCDE9000100F05CFBCDE9040164
:1031E0009DF84D109DF8552002F07F0202EBC203BE
:1031F00003EB021201EB820000F0D1FCCDE90201E9
:10320000DDE9042300F092FACDE90601DDE90823A7
:1032100000F08CFACDE90A0100F056FA81469DF8DB
:103220003E0000F0D3FC00224E4BCDE9040100F03B
:1032300031FBCDE908019DF8460000F0C7FC0022F3
:10324000494BCDE9000100F025FBCDE904019DF8D3
:103250004E209DF8561001F07F0101EBC10303EBF6
:10326000011102EB810000F09AFCCDE90201DDE9D9
:10327000042300F05BFACDE90601DDE9082300F044
:1032800055FACDE90A0100F01FFA82469DF83F0089
:1032900000F09CFC0022334BCDE9040100F0FAFA67
:1032A000CDE908019DF8470000F090FC00222E4B6C
:1032B000CDE9000100F0EEFACDE904019DF84F10D0
:1032C0009DF8572002F07F0202EBC20303EB0212CB
:1032D00001EB820000F063FCCDE90201DDE904238B
:1032E00000F024FACDE90601DDE9082300F01EFA1A
:1032F000CDE90A0100F0E8F983469DF8340020B1D9
:103300001A49404601F094F880469DF8350020B1F6
:103310001649484601F08CF881469DF8360020B1E8
:103320001249504601F084F882469DF8370020B1DA
:103330000E49584601F07CF883460C98384100F05D
:10334000010038B153464A4641463846CDF800B0F0
:10335000FDF71AFF7F1C042FFFF6D5AE17B0BDE8AE
:10336000F08F00000088C34000005940000080BF7B
:103370002DE9F04F91B0054600263046761C15F831
:10338000009000240CE049FA04F000F0010018B1AC
:103390000120C449085502E00020C2490855641CB8
:1033A000082CF0DB3046761C15F80090002466E00F
:1033B0003046761C2F5C3046761C15F800A030464F
:1033C000761C285C0E903046761C285C0D9049FADD
:1033D00004F000F00100002850D04FEAD71B0D98F0
:1033E00000F0F4FB0022B04BCDE9040100F052FAEA
:1033F000CDE908010E9800F0E9FB0022AB4BCDE9C6
:10340000000100F047FACDE9040107F07F0101EB6C
:10341000C10202EB01110AEB810000F0C0FBCDE913
:103420000201DDE9042300F081F9CDE90601DDE9BF
:10343000082300F07BF9CDE90A0100F045F9804648
:10344000BBF1000F04D09A49404600F0F1FF8046DE
:10345000984840F82480984800EBC40041684046F2
:1034600001F0EEF80B90944850F834100B9800F0EF
:10347000B5FE0C90E0B20C99FDF75EF8641C082CC8
:1034800096DB3046761C15F800903046761C285C9A
:103490000F90002419E049FA04F000F0010098B1FF
:1034A0000F98204100F0010038B1E0B20121FDF792
:1034B000A1F901208149085506E0E0B20021FDF79D
:1034C00099F900207D490855641C082CE3DB30463F
:1034D000761C15F80090002410E049FA04F000F082
:1034E000010028B10121764A04F10800115404E0DA
:1034F0000021734A04F108001154641C082CECDB11
:103500003046761C15F8009000240CE049FA04F0CF
:1035100000F0010018B101206949085502E00020BF
:1035200067490855641C082CF0DB3046761C285C83
:103530000F903046761C15F80090002452E030467B
:10354000761C2F5C3046761C15F800A03046761CA1
:10355000285C0E903046761C285C0D9049FA04F0E9
:1035600000F00100E8B34FEAD71B0D9800F02EFBE6
:1035700000224D4BCDE9040100F08CF9CDE90801A2
:103580000E9800F023FB0022484BCDE9000100F02B
:1035900081F9CDE9040107F07F0101EBC10202EBE3
:1035A00001110AEB810000F0FAFACDE90201DDE930
:1035B000042300F0BBF8CDE90601DDE9082300F0A3
:1035C000B5F8CDE90A0100F07FF88046BBF1000FA5
:1035D00004D03749404600F02BFF8046394840F878
:1035E0002480641C082CAADB002456E03046761C9C
:1035F0002F5C3046761C15F800A03046761C285CFF
:103600000E903046761C285C0D900F98204100F0FB
:103610000100E0B34FEAD71B0D9800F0D7FA002263
:10362000214BCDE9040100F035F9CDE908010E98F0
:1036300000F0CCFA00221D4BCDE9000100F02AF980
:10364000CDE9040107F07F0101EBC10202EB01119A
:103650000AEB810000F0A3FACDE90201DDE90423C1
:1036600000F064F8CDE90601DDE9082300F05EF81A
:10367000CDE90A0100F028F88046BBF1000F04D024
:103680000B49404600F0D4FE80460E4900E003E0BE
:1036900004F1080041F82080641C082CA6DB11B05E
:1036A000BDE8F08F240000200088C340000059408E
:1036B000000080BFD00200202C0000201C00002051
:1036C0001C0300202002002021F00042A2F16052E1
:1036D000B2F5801F01F0004328BFD2F17F6C0BD9F7
:1036E0005FEA001C43EAC20242EB507018BF704709
:1036F00028BF20F001007047B2F5801FBCBF1846FC
:1037000070474FEA410C1CF5001F02D2084600F03A
:1037100056BF70B500F054FB00000089FFF7F6BFFC
:103720004FF00040A0F580007047000010B591EA0E
:10373000030F48BF83F0004300F1D483841A71EB78
:10374000030C05D2121943EB0C03001B61EB0C01B7
:10375000DFF824E14FEA1154A4EB135C1EEA430F97
:1037600018BF9EEA445F73D023EA0E03DCF1200EFB
:1037700021EA045143F4801332D322FA0CFE10EBF9
:103780000E0023FA0CFE41EB0E01CCF1200E03FAE1
:103790000EFE10EB0E0051F10001B1F5801FCCF1CF
:1037A000200E32D201EB045112FA0EF2BDE81040A5
:1037B00058BF7047401C38BF5FEA420218BF7047CD
:1037C000002814BF20F0010041F100014FEA41033D
:1037D00013F5001F38BF7047A1F1C04100F03EBB98
:1037E000012A43EB0302ACF1200CDCF11F0E32BFC7
:1037F0004FF0000E23FA0CF310EB030041EB0451E1
:10380000B4EB115FD0D0A1EB045101F58011490850
:103810005FEA300001EB04510ED350F1000038BFD5
:1038200012FA0EFE08D1BDE81040C9E7401C38BFAF
:103830005FEA4202CAD1C3E7BDE810404FEA410344
:1038400013F5001F38BF7047A1F1C04100F006BB5F
:103850009EEA445F08D011EA5E0FBDE8104004BF45
:1038600001F0004100207047BDE8104070B500F045
:10387000A7FA00BF64FBBE3E0000E0FF491058BF3E
:10388000C1F140415B1058BFC3F140438B42EFF39D
:10389000008070472DE9C04130B4DFF8A0C23CEA97
:1038A000111418BF3CEA131400F0EC8081EA030500
:1038B0001CEA111444EAD57418BF1CEA131500F071
:1038C000C780A4EB05044FF0004545EAC12145EA55
:1038D000C32341EA505143EA525304F17F749942A1
:1038E00004F500344FEAC0204FEAC22208BF9042DC
:1038F00000F09C804FEA13650FF24016765D4FEAA8
:10390000134506FB05F7C7F1807706FB07F74FEA7B
:10391000D737A7FB03687642C8F58038A7FB06CEE9
:1039200038BFA8F1010807FB08E64FF0000EA6FB20
:10393000028CE6FB03CEDCF1000CCEF1004E38BF6A
:10394000AEF1010EA6FB0C584FF000074FF000053A
:10395000E6FB0E87A1FB08C6A0FB07CE16EB0E0602
:1039600045F10005E1FB076515F1E04E7EBFA4F5CA
:1039700080345FEA46066D4116F1800745F1000587
:103980004FEA17274FEA066647EA0567A6F1DE46C3
:10399000B6F1805F4FEA15251FD9384624F0010C97
:1039A00005EBC471BCF1FE6F01EB0C1102D8F0BC49
:1039B000BDE8008124425CBF01F5801E9EEAC47F01
:1039C00002D4F0BCBDE80081244238D4F0BCA1F19F
:1039D000C041BDE8004100F041BA4FEAD22242EABC
:1039E00043524FEAD323A7FB02864FEAD02040EA96
:1039F000415007FB03661EEA0E0F4FEAD12105FB7B
:103A0000026658BFA6EB0056B6EB00564FEA520EC0
:103A10004EEAC37E18EB0E0E56EB530EBDD518EBD7
:103A200002085E417F1C55F10005B6E74FF4801592
:103A30004FF000074FF000064FF00008ADE7F0BC74
:103A40004FF0000001F1C04101F00041BDE80081EC
:103A500011EA0C1F0CEA131500D00CE013EA0C1F3E
:103A600000F025804FF00000F0BC81EA030101F076
:103A70000041BDE80081F0BCBDE8004181EA0301DE
:103A800000F0ECB9F0BCBDE8004170B500F098F969
:103A9000097EFC3E00F007B881EA03014FF0000008
:103AA00001F00041704781EA030100F0D7B9F0BC92
:103AB000BDE800414FF0000021497047FFFDFBF9D0
:103AC000F7F5F4F2F0EEEDEBE9E8E6E4E3E1E0DE51
:103AD000DDDBDAD8D7D5D4D3D1D0CFCDCCCBCAC8C3
:103AE000C7C6C5C4C2C1C0BFBEBDBCBBBAB9B8B7EA
:103AF000B6B5B4B3B2B1B0AFAEADACABAAA9A8A8DD
:103B0000A7A6A5A4A3A3A2A1A09F9F9E9D9C9C9BAA
:103B10009A99999897979695959493939291919055
:103B20008F8F8E8E8D8C8C8B8B8A898988888787E6
:103B30008685858484838382828181800000FF075B
:103B40000000F87F4FEA1153A3F58063D3F11E0301
:103B5000A8BFD3F1200C08DB4FF0004242EAC1229B
:103B600052EA505232FA03F0704709420BD4102B3C
:103B7000C4BF0020704703F5787CBCF1FF3F05D03F
:103B80004FF0FF3070474FF00000704770B500F005
:103B900017F900BF4992248000207047F0E710F029
:103BA000004248BF4042B0FA80F310FA03F10AD055
:103BB000C3F11D0303F580634FEA415002EB03524A
:103BC00002EBD12170474FF000007047B0FA80F34C
:103BD00010FA03F10AD0C3F11D0303F580634FEA25
:103BE00041504FEA035202EBD12170474FF00000E1
:103BF0007047000051EA030C17D41CF5801F58BF12
:103C0000BCF5801F00F10680994218BF704708BFBD
:103C10009042704707D711F5801F58BF13F5801FDA
:103C200019D499427047894270471CF5801F08D506
:103C3000BCF5801FF7D58B4218BF704708BF824282
:103C400070474FF4001C1CEB410F38BF1CEB430FB7
:103C500001D28B42704770B500F0B2F8922449004F
:103C60004FF000514FF08053FFF708BEDFF848C116
:103C700070B51CEA111E1EBF1CEA13159EEA0C0F3C
:103C800095EA0C0F00F06F8081EA030423EA4C13DD
:103C90004EEAD47E21EA4C1141F4801143F48013A2
:103CA000AE44A1FB024CA0FB0365AEF17F7E36194A
:103CB00055EB0C05A1FB034C4CF10003A0FB021CCF
:103CC00016EB0C06654153F10003094218BF46F09C
:103CD000010613F4007F0BD14FEA03314FEA0530A0
:103CE000340341EA155140EA16506FF003020AE02E
:103CF0004FEAC3214FEAC520F40241EA555140EA98
:103D000056506FF0020202EB2E4201EB025585EA9B
:103D1000CE710AD05FEA440C18BF24F0004450F181
:103D2000000041F1000120EAD47040F2FE7C6245BF
:103D300000D270BDA84214BF4FF080444FF0404401
:103D4000002E08BF0024BEF1806FA8BFA1F1C041C2
:103D5000BDE8704080F282804FF0000001F1C04168
:103D600001F0004170479EEA0C0F0CEA131518BFD2
:103D700095EA0C0F06D04FF0000081EA030E0EF01A
:103D8000004170BD00F01CF88900013E00F007B84A
:103D900000F009B84FEA430C5FEA5C5C08D081EAA6
:103DA000030100F05BB84FEA410C5FEA5C5CF6D1BE
:103DB0004FF00000014970470000FF070000F87F46
:103DC0000EF1020E2EF0030E5EF8046B364205D49F
:103DD000012A43EB030515F5001F12D8012841EB1A
:103DE000010C1CF5001F0CD80ED14FEAD17C15F543
:103DF000001F0CEB4C0C0CF1020C08BF4CEBD37CFD
:103E000004E04FF0080C01E04FEAD37C0CEB4C05CA
:103E100026FA05F606F00706B6F1040C06D20EEBFC
:103E2000860CBDE870404CF0010C6047DFE80CF0F8
:103E3000090B02024FF000414FF00000A1F50021F4
:103E400070BD19461046012851EB010418BFD4F586
:103E5000001484BF002001F0004170BD0808A0F5E7
:103E600000114FEA3101704753EA010C17D41CF5D9
:103E7000801F58BFBCF5801F00F106808B4218BF21
:103E8000704708BF8242704707D713F5801F58BF9D
:103E900011F5801F19D48B4270479B4270471CF567
:103EA000801F08D5BCF5801FF7D5994218BF704711
:103EB00008BF904270474FF4001C1CEB430F38BF03
:103EC0001CEB410F01D2994270470FB40CBC03BCEC
:103ED000FFF7C1BE10B591EA030F48BF83F000435E
:103EE0003FF52CAC841A71EB030C07D212198CF03D
:103EF000004C43EB0C03001B61EB0C01DFF8A4E169
:103F00004FEA1154A4EB135C1EEA430F18BF9EEA5C
:103F1000445F00F0B08023EA6E03524221EA04516C
:103F2000C3EB6E0338BF5B1EDCF1200E25D322FAF3
:103F30000CFE10EB0E0043FA0CFE41EB0E01CCF12F
:103F4000200E03FA0EFE10EB0E0051F10001CCF131
:103F5000200E29D412FA0EF201EB0451BDE81040F4
:103F600058BF7047401C1CBFB2F1004F704700287B
:103F70000CBF491C20F00100704712EB020E43EB0E
:103F8000030218BF4FF0010E4EEA4202ACF1200CC2
:103F9000DCF11E0E54D943FA0CFE10EB0E0051F169
:103FA000FF31CCF11E0ED5D50EF1010E12FA0EFE28
:103FB000404141EB010101EB445C5FEA5C5C10D9DC
:103FC00010EBDE7001EB045138BFBEF1004FBDE8CD
:103FD000104018BF704700280CBF491C20F001009A
:103FE000704730D24FEAD42C11F5001124F400644C
:103FF0001BD0B1FA81F20B3AA41AA41ED2F120030D
:10400000914030FA03F31943904001EBCC71002C3E
:1040100001EB0451BDE81040A8BF704701F1C04159
:104020004FF0000001F000417047B0FA80F310FA41
:1040300003F100D110BDE41A173C4805C90AE4E7B2
:1040400001EB045110BD491001EB0451BDE81040D3
:104050004FEA300002E04FF0000170474A0008BF0D
:104060000042F8D0B2F5001F28BF704701F00041B0
:104070004FF0000070479EEA445F07D011EA5E0FE0
:10408000BDE8104004BF002100207047BDE810408B
:1040900070B5FFF795FE00BF40DFF63E83F00041AC
:1040A000104670470000E0FF43004FEAD30C4FEA90
:1040B0003C0C43401FBF40070CF1605113F0FE4F12
:1040C00070471CF0006F03D100200CF000417047D6
:1040D0000CF0004343EA507010B540EACC0000F009
:1040E00028FA00BF000000924FEA0001FFF7B6BEB9
:1040F0004FF000414FF00000A1F500217047000093
:1041000090EA010F48BF81F0004100F1A082421AFD
:104110003CBF801A89184FEAD0524FF07F4C1CEAFE
:10412000410FA2EBD15318BF9CEA026F00F03B8015
:104130004FF0004C4CEA00204CEA012121FA03FC2C
:1041400010EB0C0C1ED202F1FF325FEA1C2040EB98
:10415000C25038BF70471CF07F0F4FEA400C18BFA9
:10416000BCF17F4F38BF7047C3F12003994008BFAF
:1041700020F00100BCF17F4F38BF7047A0F1C04074
:1041800000F01DBA4FEA3C00000A40EBC25028BFC5
:104190001CF0FF0F4FEA400CE6D018BFBCF17F4F78
:1041A00038BF7047EAE79CEA026F05D010EA5C0F5F
:1041B00008BF00F00040704710B500F0BAF900BF2A
:1041C00064FBBE3E401058BFC0F14040491058BF8C
:1041D000C1F140418142EFF3008070474FF47F0C02
:1041E0001CEAD0121EBF1CEAD11392EA0C0F93EA0C
:1041F0000C0F00F0858090EA010F48BF42F48072F6
:1042000040F4000C41F400002CF07F4120F07F408E
:1042100000B58142A2EB03020FF2081CACEB504E3A
:10422000C0F100009EF800E04FEA4E0E00FB0EFCCD
:1042300038BF49004FEA2C1C02F5FA020CFB0EF3C2
:104240004FEACE1E4FEA112C4FEAC1210EEB635EFE
:1042500042EB22420EFB0CFC4FEA1C5300FB031105
:104260004FEA112C4FEA01310EFB0CFC4FEADC4CFB
:1042700000FB0C11C14228BF09184CEB03335DF859
:1042800004EB10EB410143EBC250B2F57C0F38BF99
:10429000704729D512F0F00F1CBF00F1C04000F0AC
:1042A00000407047008182838485868788898B8C53
:1042B0008D8E8F919293959697999A9C9D9FA0A28F
:1042C000A3A5A7A8AAACAEB0B2B3B5B7B9BCBEC0DF
:1042D000C2C5C7C9CCCED1D4D7D9DCDFE2E6E9EC80
:1042E000F0F3F7FAFE0000004FEA400C0CF1807C7E
:1042F000BCF17E4F28BF7047B0F1C04000F05FB9FD
:1043000090EA010F0CEAD11348BF42F48072624573
:1043100038BF634507D213F47F0F16D080EA01003F
:1043200000F00040704710B500F003F9097EFC3E34
:1043300000F005B880EA010000F00040704780EA14
:10434000010000F0004000F03AB912F47F0F04BF02
:104350000248704780EA010000F031B90000C07FD8
:1043600041000B0ED3F19E0208D950F400034FEA2E
:10437000032323FA02F048BF4042704710B500F013
:10438000D8F800BF49922480002070476FF00042A7
:1043900082EA20007047000010F0004148BF404210
:1043A000B0FA80F310FA03F2C3F19D030BD051EA87
:1043B000C35101EB1220530638BF704700F10100D2
:1043C00008BF20F00100704750EA010C00F1138093
:1043D0001CF5000F58BFBCF5000F01D48842704790
:1043E00007D710F5000F58BF11F5000F15D48842FC
:1043F0007047894270471CF5000F04D5BCF5000FCB
:10440000F7D5814270474FF0807C1CEB400F38BFDE
:104410001CEB410F01D28142704710B500F089F8C2
:10442000922449004FF000504FF08051FFF7CABE70
:104430004FF47F0C1CEAD0121EBF1CEAD11392EA83
:104440000C0F93EA0C0F00F0478090EA010F48BF71
:1044500042F480724FF0004C4CEA00204CEA0121FB
:1044600002EB0302A0FB0113A2F50002002918BF12
:1044700043F001035B0028BF4FEA330342EB2242C3
:104480005FEA132C4CEBC2502EBFBCEB436FB2F56E
:104490007C0F70474FEA036CBCF1004F08BF20F05F
:1044A0000100B2F57C0F38BF70470BD582F0FF02D8
:1044B00012F5803FC8BF704700F1C040D8BF00F080
:1044C0000040704700F5000C5FEA4C0C48BF704795
:1044D000B0F1C04000F073B890EA010F0CEAD113BC
:1044E00048BF42F48072624538BF634504D280EA17
:1044F000010000F00040704710B500F01AF800BF4E
:104500008900013E00F007B800F009B85FEA410CED
:104510005FEA1C6C08D080EA010000F050B85FEA46
:10452000400C5FEA1C6CF6D14FF00040A0F5800013
:1045300070470EF1020E2EF0030E5EF8044B24427B
:1045400004D44FEA4102B2F17F4F11D84FEA400341
:10455000B3F17F4F0CD80ED14FEAD07CB2F17F4F30
:104560000CEB4C0C0CF1020C08BF4CEBD17C04E0C2
:104570004FF0080C01E04FEAD17C0CEB4C0324FA1D
:1045800003F404F00704B4F1040C06D20EEB840C1F
:10459000BDE810404CF0010C6047DFE80CF0070864
:1045A00002024FF00040A0F5800010BD0846420016
:1045B00018BFD2F1807288BF00F0004010BDFF210B
:1045C00041EAD050C005704751EA000C00F1138059
:1045D0001CF5000F58BFBCF5000F01D48142704795
:1045E00007D711F5000F58BF10F5000F15D4814201
:1045F0007047894270471CF5000F04D5BCF5000FC9
:10460000F7D5884270474FF0807C1CEB410F38BFD4
:104610001CEB400F01D28842704780EA010081EA1A
:10462000000180EA0100FFF7F8BE80F0004090EA48
:10463000010F7FF56CAD81F0004100F008B800007B
:1046400090EA010F48BF81F000413FF560AD421A8A
:1046500004D882F00042A0EB020011444FEAD0528D
:104660004FF07F4C1CEA410FA2EBD15318BF9CEADC
:10467000026F4AD04FF0004C4CEA00204CEA012176
:1046800021FA03FCB0EB0C0C0FD412F0FE0F36D065
:104690005FEA4C001DD5001240EBC25038BF704796
:1046A0001CF03F0F18BF70470BE0A2F101025FEA58
:1046B0001C2040EBC25038BF70471CF07F0F18BF62
:1046C0007047C3F12003994014BF401E20F0010041
:1046D000704780084FEA122308BF7047B0FA80FC89
:1046E000A2EB0C02CCF1280C60FA0CF093EA122F2A
:1046F00004BF00EBC25070474FEAC3707047130A03
:104700005FEADC1008BF7047F6E79CEA026F04D04E
:1047100010EA5C0F08BF0020704710B5FFF709FFD3
:1047200040DFF63E81F000407047010203000000C8
:1047300000000000000000005847000800000020B2
:10474000980100006C010008A047000898010020B3
:10475000181B0000C8010008412D010203040400D9
:10476000091A06070809020406080B9C803F08196D
:10477000CC11B2110413556601DF6655556602016E
:1047800001212A10180A1503180A13041891190F89
:1047900029134103308841DA030813B015020020C1
:0400000508000131BD
:00000001FF
