:020000040800F2
:10000000F8130020CD4800084D1300084F130008D6
:1000100053130008571300085B130008000000008A
:100020000000000000000000000000005F13000856
:100030006113000800000000631300086513000846
:10004000E7480008E7480008E7480008E7480008D4
:10005000E7480008E7480008E7480008E7480008C4
:10006000E7480008E7480008E7480008E7480008B4
:10007000E7480008E7480008E7480008E7480008A4
:10008000E7480008E7480008E7480008E748000894
:10009000E7480008E7480008E7480008E748000884
:1000A000E748000867130008E7480008E748000829
:1000B000B71300080714000827140008E7480008D1
:1000C000E7480008E7480008E7480008E748000854
:1000D000E74800087F1400083F180008E7480008B8
:1000E000E7480008E7480008E7480008E748000834
:1000F000E7480008E7480008E7480008E748000824
:10010000E7480008E7480008E7480008E748000813
:10011000E7480008E7480008E7480008E748000803
:10012000E7480008E7480008E7480008E7480008F3
:1001300000F002F800F060F80AA090E8000C824499
:100140008344AAF10107DA4501D100F055F8AFF276
:10015000090EBAE80F0013F0010F18BFFB1A43F0A5
:10016000010318471C5C00003C5C000010F8013BD8
:100170000A4413F0030408BF10F8014B1D1108BF17
:1001800010F8015B641E05D010F8016B641E01F8C5
:10019000016BF9D1002D15D010F8014B03F00C03C1
:1001A0000C2BA1EB04040ABF10F8013BA4EB831451
:1001B000A4EB032405F1010314F8016B5B1E01F8A5
:1001C000016BF9D5914238BF10F8013BD1D370478C
:1001D0000023002400250026103A28BF78C1FBD850
:1001E000520728BF30C148BF0B6070471FB505F0EC
:1001F000FEFC1FBD10B510BD04F09EFB1146FFF7BD
:10020000F5FF00F05EF804F0BCFB03B4FFF7F2FF6B
:1002100003BC04F0C1FB0000F0B503460C4600250A
:10022000214604E05E5C2E44B5B24E1CF1B2914210
:10023000F8DB642695FBF6F706FB1756F0B2F0BD27
:1002400030B502460B4600205D1EAD062C0E002187
:1002500008E00D19555D05F001058D400543E8B234
:100260004D1CE9B20429F4DB30BD10B502F09CFF4F
:100270004FF4803002F0B8FF02F0F5FF0446012C85
:100280001ED1002003F031F8002003F040F8A00256
:1002900003F034F84FF4E011200403F009F80120D2
:1002A00003F012F800BF392002F0C1FF0028FAD095
:1002B000022003F00CF800BF03F012F80828FBD16D
:1002C00010BD1CB5FFF7D1FF00F0D5FF00F086FD93
:1002D00001F09BFB01F0CDFB00F0CBFC00F010FE29
:1002E00001F003F801F00BF800F07EFEB7E010E03B
:1002F000FE4800F0E1FDFD480078FD490860FB483C
:100300000078FC4908700846007810B10120FA49CD
:100310000870F848007818B9F74800780028E7D046
:10032000F448007830B9F549F54802F068FC00203F
:10033000F1490870F3480078F34909780843F34914
:100340000978084325D0F248007810BBE9480078C6
:10035000F8B1F0480078E0B9EF48E949EF4BF04ACE
:10036000CDE90010E549E14802F031FBE9490870A8
:100370000120E7490870E748007850B101210520C5
:1003800000F032FDDD49DE4802F039FC0020E04992
:100390000870DC48007830BBDB48007818BBDB48CD
:1003A000007800BBDA480078E8B1D2480078D0B1D4
:1003B000D8480078B8B9D14AD749D84802F003FCE8
:1003C000D44908700020D2490870D248007850B152
:1003D0000121052000F008FDC849C94802F00FFCC2
:1003E0000020CB490870CB48007850B1012105208E
:1003F00000F0FAFCC149C24802F001FC0020C449E7
:1004000008701AE0C2480078B8B1C349BC4802F08D
:10041000C2F9C049087002F0AEF8BE49087008463B
:10042000007850B10121052000F0DEFCB349B4484A
:1004300002F0E5FB0020B6490870B548007870B1BD
:10044000AC48007858B1B7480078AE490978084000
:10045000AD4909780843AD4909780843D2D146E748
:100460002DE9F84F00260027B046AF4880780228D3
:100470001CD1AD49C87805F0ABFAAC494860AA492F
:10048000087A05F0A5FA8146A749C87905F0A0FACF
:100490008246A74905F0E4FA0546494605F0FCF80E
:1004A0000446A44905F066F9A04908609B49A248A2
:1004B00001F025FE8D4800F0FFFC9C4908689D492D
:1004C00005F0CEFA044605F04BFA86B2944A51691B
:1004D000106901F059FE9749009005F0C1FA834672
:1004E00005F0AEF8044604F05FFA814604F02EFDF4
:1004F00087B28B4AD169906901F046FE8D49009020
:1005000005F0AEFA834605F09BF8044604F04CFA79
:10051000814604F01BFD1FFA80F8642098FBF0F080
:100520008649C870642098FBF0F100FB1180834974
:100530000871642096FBF0F04871642096FBF0F19E
:1005400000FB11607D498871642097FBF0F0C87151
:10055000642097FBF0F100FB11707849087269483C
:10056000007869490978084368490978084373495C
:1005700048727149086905F0F3F980B2642190FB73
:10058000F1F201FB12006D4988726B49886905F030
:10059000E7F980B2642190FBF1F06849C8726649BE
:1005A000886905F0DDF980B2642190FBF1F201FB6E
:1005B0001200624908730120C87456480078087513
:1005C000152203215D48FFF727FE5C494875BDE809
:1005D000F88F2DE9FC5F4FF000090020019058488A
:1005E000407A57282CD15648007B56490870544809
:1005F000817B407B00EBC00202EB001001EB80002E
:10060000514908704E48007C4D49C97B01EBC1023D
:1006100002EB011100EB81004C4908704948007859
:1006200001280DD14649097D454AD27C02EBC2031F
:1006300003EB021201EB820005F0B2F944490860B5
:1006400036493D4801F05BFD284800F035FC27485D
:1006500000792E490870384908683E4905F08AF843
:1006600006464FF0814105F009FB05464FF08341F6
:1006700005F080F804462E4905F0F2F92849086093
:100680002D4948682B4905F075F8824604F0D8FFDB
:100690000646314A314B04F0C3FC044604F018FA14
:1006A0001F49486024498868224905F063F882465A
:1006B00004F0C6FF0646284A284B04F0B1FC044665
:1006C00004F006FA164988601B49C868194905F004
:1006D00051F81349C86018490869164905F04AF8E5
:1006E0000F49086114494869124939E0D8040020CB
:1006F000D4040020EE04002080020020E00400204A
:10070000380C002083020020820200208F0200208B
:1007100085020020860200204802002018020020E6
:10072000B80B002081020020C20C002078020020BB
:100730000000C84200002041780B00207204002015
:10074000400B00208E0200208C0200208D02002031
:100750009002002000004842CDCCCCCCCCCCF43F61
:1007600005F008F8FE494861FE498869FE4905F030
:1007700001F8FB498861FB49C869FB4904F0FAFFAD
:10078000F749C861F749086AF84904F0F3FF0646DB
:100790004FF0814105F072FA05464FF0834104F0B5
:1007A000E9FF0446F24905F05BF9ED490862ED49BD
:1007B000C86AEE4904F0DEFF06464FF0814105F0BD
:1007C0005DFA05464FF0834104F0D4FF0446E94941
:1007D00005F046F9E249C862E249886AE64904F050
:1007E000C9FFDF498862DF49086BE34904F0C2FFB3
:1007F000DB490863DB49486BDF4904F0BBFFD8499C
:100800004863D849886BDC4904F0B4FFD449886355
:10081000D449C86BD84904F0ADFFD149C8630A4632
:10082000D169906901F0B0FC8146CD48C0F82490B0
:100830008069CB4C0090E368226BE16A206A02F089
:1008400021FA2146886ACD4905F0D6F809D8214613
:10085000886ACB4905F0D7F903D82046806AC94990
:1008600008604FF08041484604F084FF0446C648C3
:1008700021464269052000F04AFAB949C86A04F0E5
:10088000DFFE06460022C14B04F008FA0446C04AC7
:10089000C04B04F0C5FB824604F01AF90190BA4837
:1008A000C2680320019900F032FAAD49086ABA49DA
:1008B00005F0A9F903D80120B849087016E0A84945
:1008C000086AAF4905F098F803D80220B3490870C8
:1008D0000CE0A349C86AB24905F095F903D8012094
:1008E000AE49087002E00020AC490870AB480078BF
:1008F00018B10121052000F077FA4FF000086FE0F1
:10090000974951F828009C4904F034FF044605F04B
:1009100027F8C1B208EB48000B30A24A11549049A5
:1009200051F8280005F01CF880B2642190FBF1F228
:1009300001FB1200C1B208EB48000C30994A115477
:10094000874951F828008C4905F08AF8044605F0DB
:1009500007F86421B0FBF1F201FB120108EB48003B
:100960000D30904A11547E4A08F1080152F82100D6
:10097000814904F0FFFE044604F0F2FFC1B208EB27
:1009800048000B30884A1154754A08F1080152F8A2
:10099000210004F0E5FF80B2642190FBF1F201FB3D
:1009A0001200C1B208EB48000C307F4A11546C4A67
:1009B00008F1080152F821006F4905F051F804468A
:1009C00004F0CEFF6421B0FBF1F201FB120108EB51
:1009D00048000D30744A115408F1010000F0FF087E
:1009E000B8F1080F8CDB4FF0000877E06F4951F841
:1009F000280004F0B5FF80B2642190FBF1F201FB06
:100A00001200C1B208EB48002530664A115467490C
:100A100051F82800584905F023F8044604F0A0FFD7
:100A20006421B0FBF1F201FB120108EB4800263013
:100A30005C4A11545D4951F828005D4905F010F8F1
:100A4000044604F08DFF6421B0FBF1F201FB1201BA
:100A500008EB48002730534A1154544A08F1040166
:100A600052F8210004F07CFF80B2642190FBF1F287
:100A700001FB1200C1B208EB480025304A4A11546C
:100A80004A4A08F1040152F821003B4904F0E8FF0A
:100A9000044604F065FF6421B0FBF1F201FB120192
:100AA00008EB48002630404A1154404A08F104013E
:100AB00052F821003E4904F0D3FF044604F050FFF1
:100AC0006421B0FBF1F201FB120108EB4800273072
:100AD000354A115408F1010000F0FF08B8F1040F85
:100AE00084DB01213348FFF7ABFB2E4981F823005B
:100AF00001213148FFF7A4FB2A4981F82400022193
:100B00002C48FFF79DFB284981F8230002212A4841
:100B1000FFF796FB244981F8240032220021214866
:100B2000FFF77AFB1F4981F83200322200211E486C
:100B3000FFF772FB1C4981F83200BDE8FC9F70B5DD
:100B400004460D46E1B21D4802F03DFE00BF802183
:100B50001A4802F0A6FE0028F9D0204670BD000019
:100B6000B80B0020780B0020000020410000484214
:100B7000000040420000F0420000C8420000304146
:100B80000000A0407802002048020020000024401D
:100B90009A9999999999E93F00002042860200208C
:100BA0000000E64295020020CA020020380C002016
:100BB00000401C46D8040020E0040020003801401A
:100BC00070B5044600254FF400416E4802F04DFA1E
:100BD000002628E06806050E14F0800F05D04FF4BB
:100BE0000051684802F03FFA04E04FF400516548B4
:100BF00002F03BFA4FF40041624802F034FA4FF43D
:100C00008041604802F015FA012800D100E0002080
:100C100008B145F001054FF400415A4802F025FAA9
:100C20006006040E761C082ED4DB284670BD70B515
:100C300005464FF48051534802F017FA002410E0A3
:100C400015F82400FFF7BCFF05EB84014988081262
:100C5000FFF7B6FF05EB84014988C8B2FFF7B0FF84
:100C6000641C082CECDB4FF48051464802F0FBF981
:100C700070BD38B50121082002F0FEFB4FF4304072
:100C8000ADF8000003208DF8020010208DF803005D
:100C900069463C4802F03CF94FF48040ADF8000052
:100CA00003208DF8020004208DF8030069463548C2
:100CB00002F02EF94FF48051324802F0D4F90024AA
:100CC00009E05520304901F8240041F2090001EB08
:100CD00084014880641C082CF3DB002403E02A48CC
:100CE000FFF7A5FF641C082CF9DB002409E057205E
:100CF000254901F824004FF4607001EB840148801D
:100D0000641C082CF3DB2048FFF791FF38BD2DE968
:100D1000F84F8046894692465146484604F02AFDDF
:100D2000009004F08DFC06460022184B04F078F980
:100D3000044603F0CDFE83465946154804F090FE64
:100D4000044604F00DFE104901EB880148800120A3
:100D50000D4901F828000846FFF769FFBDE8F88F44
:100D600070B505460E46002408E056F8242055F8D4
:100D700024102046FFF7CBFF601CC4B2082CF4DB24
:100D800070BD0000000C0140DA0C0020000024407F
:100D900000C8CC4510B50121C02002F06DFB10BD8C
:100DA00008B510208DF803004FF47F40ADF8000027
:100DB00003208DF802006946464802F0A9F8042095
:100DC0008DF803004FF47F40ADF8000003208DF84C
:100DD00002006946404802F09BF808BD10B5FFF7D5
:100DE000D9FFFFF7DDFF10BD70B505460E46082D93
:100DF0001DD2DFE805F004070A0D101316194FF491
:100E0000807415E04FF4007412E04FF480640FE03A
:100E10004FF400640CE04FF4805409E04FF40054A8
:100E200006E04FF4804403E04FF4004400E000BFCC
:100E300000BF26B92146274802F017F903E02146F2
:100E4000244802F010F970BD70B50546082D1DD27A
:100E5000DFE805F004070A0D101316194FF480742B
:100E600015E04FF4007412E04FF480640FE04FF48B
:100E700000640CE04FF4805409E04FF4005406E0A5
:100E80004FF4804403E04FF4004400E000BF00BF93
:100E90002146114802F0CDF80646304670BD70B5C7
:100EA0000546002405E0295D2046FFF79DFF601CF4
:100EB000C4B2082CF7DB70BD70B50546002405E010
:100EC0002046FFF7C1FF2855601CC4B2082CF7DB91
:100ED00070BD000000180140001C014010B5012148
:100EE000C80202F0C9FA0121084602F0D2FA012133
:100EF000022002F0CEFA0121042002F0CAFA10BD4D
:100F00000EB5694802F026FD4FF0804002F022FD48
:100F1000664802F01FFD664802F01CFDFFF7DEFF89
:100F20000520ADF8040048F69F40ADF80000002011
:100F3000ADF80600ADF8020069465B4802F0DEFD40
:100F40000121594803F0C6FB0121574803F006F977
:100F50000520ADF8040044F24F60ADF80000002019
:100F6000ADF80600ADF8020069464FF0804002F08F
:100F7000C5FD0121880703F0ADFB0121880703F0BF
:100F8000EDF84FF4FA60ADF8040048F69F40ADF874
:100F900000000020ADF80600ADF8020069464348A5
:100FA00002F0ACFD0121414803F094FB01213F48D0
:100FB00003F0D4F847F23050ADF8040048F69F40F3
:100FC000ADF800000020ADF80600ADF8020069465B
:100FD000374802F093FD0121354803F07BFB0121E6
:100FE000334803F0BBF80EBD10B5012211462F485F
:100FF00003F0D9F810BD10B5002201212B4803F0F1
:10100000D2F810BD10B501221146294803F0CBF8E3
:1010100010BD10B500220121254803F0C4F810BD11
:10102000014601EBC1024FF0E0235A6100229A61B0
:1010300001221A6100BF4FF0E022106910F0010F89
:1010400002D010F4803FF6D000224FF0E0231A6166
:101050009A617047014642F228324A434FF0E0233A
:101060005A6100229A6101221A6100BF4FF0E0220A
:10107000106910F0010F02D010F4803FF6D000226A
:101080004FF0E0231A619A61704730B5044600259D
:1010900004E06420FFF7DEFF681C85B204EB8400E7
:1010A000B5EB400FF5DB30BD002C014000040040E3
:1010B0000008004010B50121052002F0DDF90121F2
:1010C000880302F0D9F90121212002F0D5F901218C
:1010D000480402F0DEF90121082001F0E8FF10BD0C
:1010E00008B500214FF0006001F07CFE4FF4407025
:1010F00001F040FE25208DF8000000208DF8010051
:1011000001208DF80300684601F039FE26208DF895
:10111000000001208DF801008DF80300684601F001
:101120002EFE19208DF8000004208DF8010001200A
:101130008DF80300684601F022FE1C208DF80000A7
:1011400005208DF8010001208DF80300684601F0AC
:1011500016FE1D208DF8000007208DF801000120EB
:101160008DF80300684601F00AFE1E208DF800008D
:1011700008208DF8010001208DF80300684601F079
:10118000FEFD08BD08B518208DF803004FF400706F
:10119000ADF8000003208DF802006946674801F0B1
:1011A000B7FE10208DF803000001ADF80000032009
:1011B0008DF802006946614801F0AAFE04208DF80E
:1011C00003000002ADF8000003208DF8020069461C
:1011D0005A4801F09DFE18208DF803002020ADF83C
:1011E000000003208DF802006946554801F090FE8A
:1011F00010208DF803008020ADF8000003208DF84A
:10120000020069464E4801F083FE04208DF8030079
:101210004020ADF8000003208DF8020069464848E0
:1012200001F076FE08BD10B50120FFF713FF4FF463
:101230008071424801F019FF10BD10B540F6C4108E
:10124000FFF7EEFE4FF480713C4801F00CFF10BD3B
:1012500010B50120FFF7FEFE8021394801F003FFA1
:1012600010BD10B540F6C410FFF7DAFE80213448F7
:1012700001F0FBFE10BD1FB5FFF71CFFFFF782FF5B
:10128000FFF72EFF2F4802F05FF92F4802F05CF9BC
:101290004FF4165000900020ADF806004FF4805037
:1012A000ADF804004FF4C060ADF808000020ADF8C0
:1012B0000C000C20ADF80A006946224802F087F9BC
:1012C0004021204802F0FAFA01211E4802F00BFAF0
:1012D00069461D4802F07BF940211B4802F0EEFAF6
:1012E0000121194802F0FFF91FBD10B5012240F29B
:1012F0002551144802F003FAFFF795FF10BD10B511
:10130000012240F22551104802F0F9F9FFF7A0FF41
:1013100010BD10B5002240F225510A4802F0EFF945
:10132000FFF781FF10BD10B5002240F2255106489D
:1013300002F0E5F9FFF78CFF10BD00000008014046
:10134000001401400038014000440040704700BFD5
:10135000FEE700BFFEE700BFFEE700BFFEE7704705
:1013600070477047704710B50121F84803F0B5F990
:1013700001281FD10121F54803F0C0F9F448007895
:10138000401CF349087008460078172812D1002045
:101390000870002404E00020EE490855601CC4B227
:1013A000352CF8DB0020EC49087000220121E748C9
:1013B00002F0F9FE10BD10B50121880703F08DF988
:1013C00001281FD10121800703F098F9E348007834
:1013D000401CE249087008460078502812D10020CD
:1013E0000870002404E00020DD490855601CC4B2E8
:1013F000182CF8DB0020DB49087000220121880747
:1014000002F0D1FE10BD10B50121D74803F065F9F7
:10141000012807D10121D44803F070F9FFF7D9F86A
:10142000FFF71EF810BD10B50121D04803F055F9A3
:10143000012809D10121CD4803F060F90120CC49F0
:1014400008700020CB49087010BD70B50546002417
:1014500012E04021C84802F031FA285D00F1330162
:10146000C54802F0B0F900BF4021C34802F019FAA4
:101470000028F9D0601CC4B2352CEADB70BD10B571
:101480000821BD4802F00DFA012806D10821BA480A
:1014900002F014FAB84802F09AF940F22551B64821
:1014A00002F015FA08B3B44802F091F9AA49097894
:1014B000A84A5054A84800781146085C3338A64919
:1014C00009785054A4480078401CA3490870084685
:1014D0000078012804D1012211469C4802F063FEE5
:1014E00040F22551A44802F01CFA9B4800783528A8
:1014F00075D10020984908700120487095480078FF
:1015000055280DD193484078662809D1914890F824
:101510003300662804D18F4890F83400552802D053
:1015200000208D4948708B488078944991F90010CB
:10153000884226D18748C078904991F901108842A5
:101540001FD1844800798D4991F90210884218D141
:1015500080484079894991F90310884211D17D482A
:101560008079864991F9041088420AD17948C07976
:10157000824991F90510884203D10120764988708B
:1015800031E0744880787E4991F90010884227D173
:101590007048C0787A4991F90110884220D16D488D
:1015A0000079774991F90210884219D16948407948
:1015B000734991F90310884212D1664880797049C5
:1015C00091F9041088420BD16248C0796C4991F9B5
:1015D0000510884204D102205F49887003E0B3E01F
:1015E00000205D4948705B48407A412803D10120C2
:1015F0005949C87022E05748407A442803D1022054
:101600005549C8701AE05348407A512803D1032045
:101610005149C87012E04F48407A552803D1042040
:101620004D49C8700AE04B48407A572803D105203D
:101630004949C87002E0002047494870454890F881
:10164000310018B90020444908710AE0414890F877
:101650003100012802D14049087102E000203E49D2
:101660004870322200213B48FEF7D6FD394991F8F7
:101670003210884202D000203749487036484078FE
:10168000F8B13548C07802281CD133488078012849
:1016900009D1002405E02F48005D3A490855601C37
:1016A000C4B2352CF7DB2C48807802281CD10024EA
:1016B00005E02848005D34490855601CC4B2352C4B
:1016C000F7DB11E02448C07805280DD12248807846
:1016D000012809D1002405E01E48005D2B4908556A
:1016E000601CC4B2352CF7DB1B48407860B31A4845
:1016F000007948BBFFF7A1FD17488178C078401EEC
:1017000001EB4000C4B20A2C5AD2DFE804F05905BC
:10171000090D1115194D51551D48FFF796FE50E062
:101720001C48FFF792FE4CE01B48FFF78EFE48E096
:101730001A48FFF78AFE44E01948FFF786FE40E0AA
:101740001848FFF782FE3CE03EE00000002C01401C
:10175000FB040020FA0C0020F3040020FC0400200D
:101760002F0D0020F8040020000400400008004075
:10177000F0040020EF04002000380140665D0008FE
:101780006C5D0008580C00208D0C0020400B0020E0
:1017900095020020CA020020FF020020340300202E
:1017A000690300209E0300208248FFF74EFE08E0F8
:1017B0008148FFF74AFE04E08048FFF746FE00E05C
:1017C00000BF00BFFFF72FFD10BD70B50546002418
:1017D00014E040217A4802F071F84FF47A70FFF774
:1017E0001FFC295D764801F0EEFF00BF40217448E0
:1017F00002F057F80028F9D0601CC4B2182CE8DBBE
:1018000070BD70B50546002416E040216C4802F01A
:1018100055F84FF47A70FFF703FC285D00F13301AF
:10182000674801F0D0FF00BF4021654802F039F859
:101830000028F9D0601CC4B2352CE6DB70BD10B5B1
:1018400008215F4802F02DF8012806D108215C48E4
:1018500002F034F85A4801F0BAFF40F225515848D6
:1018600002F035F8C8B1564801F0B1FF5549097882
:10187000554A505453480078401C52490870084655
:101880000078012804D101221146800702F08BFC68
:1018900040F225514A4802F044F84A480078182896
:1018A00077D10020474908700120487046480078E9
:1018B00055280BD144484078662807D14248807D9E
:1018C000662803D14048C07D552802D000203D49FC
:1018D00048703D488078012802D13A4988701DE05F
:1018E00039488078022802D13649887016E0364897
:1018F0008078032805D13349887001203349087066
:101900000CE031488078042805D12E4988700020E9
:101910002E49087002E000202A4948701522032150
:101920002948FEF779FC2849497D884202D00020E9
:10193000244948702348407848B1002405E02248F3
:10194000005D23490855601CC4B2182CF7DB1D4804
:101950004078F0B1FFF785FC1A488478012C06D056
:10196000022C17D0032C19D0042C1FD11AE01948CF
:10197000FFF72BFF4FF4FA70FFF76CFB1648FFF7E9
:1019800040FF4FF4FA70FFF765FB1448FFF739FF8B
:101990000CE00EE01248FFF718FF07E01148FFF7D0
:1019A00014FF03E01048FFF710FF00BF00BFFFF770
:1019B0004FFC10BDD3030020080400203D0400208C
:1019C00000440040F80400202F0D00208202002077
:1019D000C20C00207204002095020020CA020020E0
:1019E0008A040020A2040020BA040020642000BF62
:1019F0000100A0F10100FBD170474FF4FA7000BF65
:101A00000100A0F10100FBD1704708B501210420BD
:101A100001F032FDBE20ADF8000003208DF8020079
:101A200010208DF803006946F74801F071FA402054
:101A3000ADF8000003208DF8020048208DF8030067
:101A40006946F14801F064FA0221EF4801F00BFB0E
:101A50000421ED4801F007FB0821EB4801F003FBEE
:101A60001021E94801F0FFFA2021E74801F0FDFAD2
:101A700008BD08B50121080201F0FEFC0121082083
:101A800001F0FAFC4FF42040ADF8000003208DF87F
:101A9000020010208DF803006946DC4801F038FA96
:101AA0004FF48040ADF8000003208DF8020048207C
:101AB0008DF803006946D54801F02AFA4FF4C0704A
:101AC000ADF8000003208DF8020010208DF803000F
:101AD0006946CF4801F01CFA4FF40051CB4801F0A1
:101AE000C4FAFFF78AFF8021C94801F0BCFA4FF41D
:101AF0008071C74801F0B7FA08BD70B504460025EB
:101B00002021C14801F0B1FA002629E06806050E3F
:101B100014F0800F04D08021BB4801F0A4FA03E048
:101B20008021B94801F0A1FAFFF760FF2021B648F3
:101B300001F099FAFFF75AFF2021B34801F095FA16
:101B4000FFF754FF4021B04801F073FA012800D19B
:101B500000E0002008B145F001056006040E761C87
:101B6000082ED3DB284670BD70B50446002500263C
:101B70002CE06806050E4FF40051A44801F073FAFA
:101B800014F0800F05D04FF40041A04801F06BFA2B
:101B900004E04FF400419D4801F067FAFFF72DFF84
:101BA0004FF40051994801F060FAFFF726FF4FF417
:101BB0008041964801F03DFA012800D100E0002064
:101BC00008B145F001056006040E761C082ED0DB36
:101BD000284670BD2DE9F04F8BB00746884603209C
:101BE00097FBF0F0C0F10305032097FBF0F100FB39
:101BF000117B05EB8500874901EB400935B1012DCB
:101C000009D0022D0CD0032D14D10EE002217E4804
:101C100001F02BFA0FE004217B4801F026FA0AE0DC
:101C20000821794801F021FA05E01021764801F0F9
:101C30001CFA00E000BF00BFFFF7D8FE002607E057
:101C4000FF20FFF75AFF09F80600FFF7CFFE761CCA
:101C50000A2EF5D335B1012D09D0022D0CD0032D5C
:101C600014D10EE00221684801F0FDF90FE00421D3
:101C7000654801F0F8F90AE00821634801F0F3F93A
:101C800005E01021604801F0EEF900E000BF00BF60
:101C9000FFF7ACFE05EB85005E4901EB400935B16D
:101CA000012D09D0022D0CD0032D14D10EE00221FC
:101CB000554801F0DAF90FE00421534801F0D5F955
:101CC0000AE00821504801F0D0F905E010214E4803
:101CD00001F0CBF900E000BF00BFFFF787FE002650
:101CE00007E0FF20FFF709FF09F80600FFF77EFE77
:101CF000761C0A2EF5D335B1012D09D0022D0CD05A
:101D0000032D14D10EE002213F4801F0ACF90FE0A1
:101D100004213D4801F0A7F90AE008213A4801F002
:101D2000A2F905E01021384801F09DF900E000BF5C
:101D300000BFFFF75BFE05EB8500364901EB400075
:101D4000801C30F81BA00C2F6ED2DFE807F00623B2
:101D5000406E8BA9C7E4FEFDFCFB404603F070FC1F
:101D6000CDE90601504603F033FE019003F068FC14
:101D70000022294BCDE9020102F090FFCDE90401D8
:101D8000DDE9062303F04CF9CDE9080102F0A0FEDD
:101D9000044659E1404603F053FCCDE906015046A4
:101DA00003F016FE019003F04BFC1C4A1C4BCDE9DE
:101DB000020102F073FFCDE90401DDE9062303F01F
:101DC0002FF9CDE9080102F083FE04463CE14046CC
:101DD00003F036FCCDE90601504603F0F9FD019011
:101DE00003F02EFC00220F4BCDE9020102F056FF5A
:101DF000CDE90401DDE9062303F012F9CDE908017C
:101E000002F066FE04461FE1000801400020014088
:101E1000000C0140470D002000005B40CDCCCCCC35
:101E2000CC0C5B4000205B400DE1404603F008FC19
:101E3000CDE90601504603F0CBFD019003F000FC14
:101E4000C54AC64BCDE9020102F028FFCDE90401E5
:101E5000DDE9062303F0E4F8CDE9080102F038FEDD
:101E60000446F1E0404603F0EBFBCDE906015046A5
:101E700003F0AEFD019003F0E3FB4FF06632B84B88
:101E8000CDE9020102F00AFFCDE90401DDE90623F4
:101E900003F0C6F8CDE9080102F01AFE0446D3E0CB
:101EA000404603F0CDFBCDE90601504603F090FD1E
:101EB000019003F0C5FB4FF06632A94BCDE902015A
:101EC00002F0ECFECDE90401DDE9062303F0A8F8F9
:101ED000CDE9080102F0FCFD0446B5E0404603F000
:101EE000AFFBCDE90601504603F072FD019003F00F
:101EF000A7FB9C4A9C4BCDE9020102F0CFFECDE945
:101F00000401DDE9062303F08BF8CDE9080102F0B6
:101F1000DFFD044698E0404603F092FBCDE9060160
:101F2000504603F055FD019003F08AFB4FF0333229
:101F30008E4BCDE9020102F0B1FECDE90401DDE9ED
:101F4000062303E062E044E026E007E003F068F8DF
:101F5000CDE9080102F0BCFD044675E0404603F0FF
:101F60006FFBCDE90601504603F032FD019003F00E
:101F700067FB4FF033327D4BCDE9020102F08EFE5C
:101F8000CDE90401DDE9062303F04AF8CDE90801B3
:101F900002F09EFD044657E0404603F051FBCDE9B8
:101FA0000601504603F014FD019003F049FB6D4A11
:101FB0006F4BCDE9020102F071FECDE90401DDE9CC
:101FC000062303F02DF8CDE9080102F081FD044657
:101FD0003AE0404603F034FBCDE90601504603F0F9
:101FE000F7FC019003F02CFB0022624BCDE90201CB
:101FF00002F054FECDE90401DDE9062303F010F8F8
:10200000CDE9080102F064FD04461DE0404603F0FE
:1020100017FBCDE90601504603F0DAFC019003F00E
:102020000FFB504A524BCDE9020102F037FECDE9D9
:102030000401DDE9062302F0F3FFCDE9080102F017
:1020400047FD044600E000BF00BF20460BB0BDE8DE
:10205000F08F2DE9F0410646FFF7CFFC464F802177
:10206000464801F002F8FFF7C8FC002507E04449A4
:10207000485DFFF779FD7855FFF7BFFC6D1C142D07
:10208000F5D380213D4800F0EEFF0C2E06D00D2E3A
:102090000FD00E2E18D00F2E2CD120E03649D1F8BB
:1020A000020003F07DFC8046364903F063FB0446E2
:1020B00021E03149D1F8060003F072FC8046314935
:1020C00003F058FB044616E02B49D1F80A0003F050
:1020D00067FC80462B4903F04DFB04460BE0264984
:1020E000D1F80E0003F05CFC8046264903F042FB69
:1020F000044600E000BF00BF2046BDE8F08170B597
:1021000005460E46002408E056F824102046FFF746
:1021100061FD45F82400601CC4B20C2CF4DB0C24D7
:1021200006E02046FFF795FF45F82400601CC4B286
:10213000102CF6DB70BD70B505460E460C2D05DA89
:1021400031462846FFF746FD044603E02846FFF7E0
:1021500080FF0446204670BD9A99999999D95A40B2
:1021600066E65A40CDCCCCCCCCEC5A4033F35A4046
:10217000CCAC5A4000A05A406F0D0020000C01402A
:10218000725D0008000020412DE9F34F8BB00E4630
:10219000002700200A900B9803F052FA0446002210
:1021A000FA4B02F03DFFCDE902010B9803F048FA2B
:1021B00004460D460B9803F043FA8046F44AF54B6B
:1021C00002F02EFF824622462B4602F029FFCDE97F
:1021D0000001DDE9022303F049F9EF4AEF4BCDE9B5
:1021E000040102F0A7FC0022ED4BCDE9060102F04C
:1021F00055FDCDE9080102F06BFC0746E949304680
:1022000003F0B8FA8146394603F02AFC804603F011
:1022100017FA0446E44AE54B03F036F8CDE9040129
:10222000384603F00DFA80468946304603F008FA36
:10223000DF4AE04BCDE9000102F0F2FE0446002245
:10224000DD4B02F02BFD824642464B4602F0E8FE93
:10225000CDE90201DDE9042302F020FD0022D04B8C
:10226000CDE9060102F0DCFECDE9080102F030FC08
:102270000A900A980DB0BDE8F08F2DE9F34F85B0B4
:10228000002003900027CD4AD1699069FFF77CFFB9
:1022900002900299059803F0F1FC0390C748C768C3
:1022A000384603F0CDF904460022C54B02F0B6FFD4
:1022B00020D8039803F0C4F98046C24AC24B02F00A
:1022C000AFFECDE90001384603F0BAF90446DDE976
:1022D000002303F0CBF8824602F0FAFB06463046B4
:1022E00003F0AEF904460022B54B02F05DFE4DD876
:1022F000B64E4BE0384603F0A3F904460022B44B37
:1023000002F08CFF2BD8039803F09AF90446B14AE7
:10231000B14B02F085FECDE90001384603F090F99B
:102320008046DDE9002303F0A1F8824602F0D0FBED
:102330000646304603F084F904460022A44B02F01E
:1023400033FE01D8A54E21E0304603F079F904466A
:1023500000229B4B02F062FF18D8A14E16E00398B2
:1023600003F06EF904469F4A9F4B02F059FE8046E7
:102370008946384603F064F942464B46CDE90001F0
:1023800003F074F8824602F0A3FB0646039803F0BC
:1023900057F904460022954B02F006FE02D24FF098
:1023A000010901E04FF000093946304603F066FCB0
:1023B000804603F045F904467B4A8D4B02F0F4FD5C
:1023C00001D2012000E0002009EA00093946304628
:1023D00003F054FC804603F033F904460022134610
:1023E00002F01CFF01D2012000E0002019EA000FDA
:1023F0000CD0384603F024F904466B4A7C4B02F0BB
:1024000099FB804602F064FB06463EE0039803F029
:1024100017F904460022774B02F000FF02D24FF07A
:10242000010901E04FF000093146384603F026FC6F
:10243000804603F005F904465B4A6D4B02F0B4FD9B
:1024400001D2012000E0002009EA000931463846A7
:1024500003F014FC804603F0F3F804460022134610
:1024600002F0DCFE01D2012000E0002019EA000F9A
:102470000BD0384603F0E4F880464B4A5C4B02F040
:10248000F5FF044602F024FB0646304603F0D8F878
:1024900004460022484B02F0C1FE01D2414E1DE02D
:1024A000304603F0CDF804463B4A534B02F07CFD26
:1024B0000AD2304603F0C4F804460022134602F064
:1024C000ADFE01D24D4E09E0304603F0B9F80446A6
:1024D0000022134602F068FD00D2494E304607B094
:1024E000BDE8F08F10B547494748006803F08BFB03
:1024F00001D8012010BD45494348006803F07CFA2B
:1025000001D80220F6E742494248006803F07BFB0D
:1025100001D80120EEE70020ECE710B500240121EE
:102520000320FEF761FC03E02448006A3649086096
:1025300039493548006803F05FFAF5D300210320DC
:10254000FEF752FCE0B210BD10B5002401210220BC
:10255000FEF74AFC03E01948006A2B4908602E493F
:102560002948006803F04FFBF5D300210220FEF755
:102570003BFCE0B210BD10B500242249224800689F
:1025800003F041FB4AD8012010BD000000604B4021
:102590006B2BF697DDD313409A99999999759640CC
:1025A00000408F400000C842CDCCCCCCCC54594028
:1025B0008195438B6CE7E33F00005940B80B002046
:1025C00000004E404FECC44EECC41E400000684278
:1025D00000003E4062277662277612400000E0410C
:1025E000000078422FBAE8A28B2E12400000D0BF24
:1025F000CCCC04400000D03F99990540CDCC2C4074
:10260000CDCCCC3D00002042140700200000A040AB
:102610000000E642180700200000B841F749F848DA
:10262000006803F0E9F901D8022010BDF549F64829
:10263000006803F0E8FA01D80120F6E7F349F04812
:10264000006803F0E0FA05D8FFF77EFF04460CB1FE
:10265000E0B2EAE7EE49EA48006803F0CDF905D2B6
:10266000FFF75BFF04460CB1E0B2DEE70020DCE7D9
:102670002DE9FE4F80464FF0000B01210320FEF7AD
:10268000B3FBE449404603F075F8019002F0D8FF2F
:10269000064602F089F9044602F058FC00F0FF09F2
:1026A00009EB8901480003F07BF94146009003F0F3
:1026B000DBFA019002F0C4FF044602F075F9064609
:1026C00002F044FCC0B20290DA4611E0CF49CC4897
:1026D000006803F098FA03D200210320FEF784FB80
:1026E000FFF749FF83460A20FEF7CFFC0AF1010AF3
:1026F000CA45EBDBFFF7F6FE8346BBF1000F06D0C1
:1027000000210320FEF770FB5846BDE8FE8F0298BB
:10271000FEF7BBFC00210320FEF766FB5846F4E7FA
:102720002DE9F14F84B0002003900290BA49C86AA5
:10273000BA4903F01FF80290029802F081FF0446A4
:10274000B74AB84B02F06AFD1FD8029802F078FF32
:10275000044602F097F980468946049802F070FF1B
:102760000646B14AB14B02F099FA04460022B04B3A
:1027700002F056FC42464B46CDE9000102F08EFACB
:10278000824602F0A5F9039001E00020039003982F
:1027900005B0BDE8F08F2DE9FC5F0E460027FFF77E
:1027A000EAFE074617B13846BDE8FC9FA14800780D
:1027B00020B9FEF727FC01209E4908709E4800784A
:1027C00001287DD1944AD1699069FFF7DDFC019021
:1027D0009A480168019803F051FA814602F030FFEF
:1027E000044600224FF0804302F018FD22D2002060
:1027F000934908609349086093480068401C9249D7
:10280000086092490220B268FEF781FA8E4800689B
:10281000502840D14FF07E50FFF782FF804640465F
:10282000FFF726FFC7B2002087490860002F32D08B
:102830003846B9E781480168019803F01FFA8146DC
:1028400002F0FEFE04460022814B02F0ADFB7BD27B
:102850007A480168019803F011FA814602F0F0FE0F
:1028600004466F4A7B4B02F0D9FC6DD26A49C868B6
:1028700002F0E6FE04460022774B02F095FB0BD8EF
:102880006E4908683146FFF7F8FC0090B2680220F4
:102890000099FEF73CFA92E069480068401C6849DC
:1028A000086068480068401C664908606448006821
:1028B000462802D10020694908606248006800E0AB
:1028C00080E014287BD15449486802F0B9FE0446E0
:1028D0000022634B02F068FB05D862490020326891
:1028E000FEF715FA2CE04C49086B5C49096803F0C7
:1028F000C5F9814602F0A4FE04464B4A5A4B02F049
:1029000053FB05D900215548006802F0F5FF17D1A7
:102910004148006B5149086048480168019803F03C
:10292000ADF90446FFF7FCFE80464046FFF7A0FEE7
:10293000C7B200204249086017B1384634E703E0C7
:102940000020404908603AE03C490868019903F0DA
:1029500095F9814602F074FE0446334A424B02F078
:102960005DFC2CD2002036490860364908603349A6
:1029700008683146FFF781FC0090B2680220009998
:10298000FEF7C5F92449486802F05AFE04460022C1
:10299000364B02F043FC12D81F49486802F050FE43
:1029A000044600224FF0804302F060FD814602F0B1
:1029B0008FF88346594600203268FEF7A8F90020B8
:1029C0001D4908700FB13846EEE60020ECE62DE90F
:1029D000FC5FDDE90CB70026DFF8948000BF002122
:1029E0002448006802F088FFF9D0234904480068B1
:1029F00003F009F942D80120BDE8FC9F0000A04087
:102A0000140700200000E642180700200000F041F3
:102A10000000504100002041B80B00200000C842D7
:102A20007B14AE47E17A843F9A9999999999D93F55
:102A300000405040F1040020F00400207802002003
:102A40003007002038070020340700200000C6426D
:102A500000000440E17A943F00C057400005002088
:102A600000004440000048429999A93F00004040BE
:102A7000000090412007002000002042A449A54802
:102A8000006802F0B9FF02D80220BDE8FC9FA2490D
:102A9000A248006803F0B7F801D80120F5E7A04983
:102AA0000220BA68FEF733F90520FEF7EEFA08E0D7
:102AB000FFF718FD06460EB13046E6E70A20FEF79E
:102AC000C9FA98499848006802F096FFF0D906E0E4
:102AD00001210320FEF788F90A20FEF7BBFA8D4892
:102AE000006802F0ADFD04460022904B02F05CFA53
:102AF000EED900210320FEF777F901210020FEF72F
:102B000073F98B4900203A68FEF701F90120FEF7BE
:102B1000BCFA8849086802F093FD0022864BCDE993
:102B2000000102F07DFA04460022844B02F002F814
:102B3000814601F0CDFF8046404602F081FD04460B
:102B400000227A4B02F030FA02D24FF083480AE0BA
:102B5000404602F075FD04460022794B02F05EFB10
:102B600001D2DFF8E08105E0FFF7BCFC06460EB1BC
:102B700030468AE741467448006803F044F8F3D9C8
:102B800001210846FEF730F9704901207A68FEF706
:102B9000BEF805E0FFF7A6FC06460EB1304674E726
:102BA000694801686A48006803F068F804466949A2
:102BB00003F029F8EED9FFF7DEFC06460EB13046E9
:102BC00063E7002061E770B505460C461646002114
:102BD0000120FEF709F90520FEF757FA0021084603
:102BE000FEF702F90520FEF750FA00210220A26844
:102BF000FEF78DF80520FEF748FA002070BD2DE99C
:102C0000F0410546884600240AE0002045F82400EB
:102C10004FF07E5200212046FEF779F8601CC4B2C6
:102C2000022CF2DB4C4A4D490320FEF770F80426D3
:102C30000AE0002045F824004FF07E520021204693
:102C4000FEF765F8701CC6B2082EF2DB002708E01C
:102C5000002008F8040000212046FEF7C5F8781C83
:102C6000C7B2082FF4DBBDE8F08110B5002406E000
:102C70003B4A00212046FEF74AF8601CC4B20C2CE7
:102C8000F6DB10BD70B5049C224D2860234D2960F1
:102C90002D4D2A602E4D2C604FF07E55314E356003
:102CA000214D2B6070BD2DE9FE4F814688462C4991
:102CB000404602F0D5FE2C49009002F0DFFF83462B
:102CC00002F0BEFC064601F06FFE044602F03EF93B
:102CD00000F0FF0A2549484602F0D0FF834602F083
:102CE000AFFC064601F060FE044602F02FF9C0B2C8
:102CF00002900AEB4A0000EBCA001D4901EB80017B
:102D0000029851F8200001900198BDE8FE8F000064
:102D10000000A040140700200000E6421807002031
:102D20000000C6420000BE422407002000003040E0
:102D300000002042780200200000F43F00801F4085
:102D400000003340000098411C070020000044426E
:102D50002C0700200000E0400000204133331341E5
:102D60000000C842200700200000A8410000704178
:102D70000405002031490143314A1160704770B5A4
:102D8000002100230F22C4780CB32D4C246804F4D6
:102D9000E064C4F5E064210AC1F10403CA40447848
:102DA00004FA03F18478144021430901254C067884
:102DB000A155047804F01F050124AC4005786D117D
:102DC0004FF0E02606EB8505C5F8004109E00478E0
:102DD00004F01F050124AC401B4D0678761145F820
:102DE000264070BD194A0A400243154B1B1F1A604A
:102DF000704739B1124A121D12680243104B1B1D55
:102E00001A6006E00E4A121D126882430C4B1B1D0D
:102E10001A607047042808D14FF0E021096941F099
:102E200004014FF0E022116107E04FF0E021096951
:102E300021F004014FF0E022116170470000FA0513
:102E40000CED00E000E400E080E100E080FFFF1F07
:102E500010B50446CA48844208D10121042000F07C
:102E600025FB0021042000F021FB46E0C5488442F8
:102E700008D10121082000F019FB0021082000F0F2
:102E800015FB3AE0C048844208D10121102000F02F
:102E90000DFB0021102000F009FB2EE0BB4884420E
:102EA00008D10121202000F001FB0021202000F0AA
:102EB000FDFA22E0B648844208D10121402000F00A
:102EC000F5FA0021402000F0F1FA16E0B148844202
:102ED00008D10121802000F0E9FA0021802000F0D3
:102EE000E5FA0AE0AC48844207D10121801500F0E0
:102EF000DDFA0021A01500F0D9FA10BD10B50121AE
:102F0000084600F0D3FA0021012000F0CFFA10BDEE
:102F10002DE9F04102460025002600200023002470
:102F2000002791F803C00CF00F0591F803C01CF0C6
:102F3000100F03D091F802C04CEA0505B1F800C0AB
:102F40001CF0FF0F31D0146800202BE04FF0010C73
:102F50000CFA00F3B1F800C00CEA03069E4220D13F
:102F600083004FF00F0C0CFA03F7BC4305FA03FC87
:102F70004CEA040491F803C0BCF1280F06D14FF0CD
:102F8000010C0CFA00FCC2F814C00AE091F803C06E
:102F9000BCF1480F05D14FF0010C0CFA00FCC2F84F
:102FA00010C0401C0828D1D31460B1F800C0BCF197
:102FB000FF0F34DD546800202EE000F1080C4FF0C4
:102FC000010808FA0CF3B1F800C00CEA03069E42AF
:102FD00021D183004FF00F0C0CFA03F7BC4305FA24
:102FE00003FC4CEA040491F803C0BCF1280F05D19E
:102FF00000F1080C08FA0CF8C2F8148091F803C02C
:10300000BCF1480F07D100F1080C4FF0010808FA95
:103010000CF8C2F81080401C0828CED35460BDE8DC
:10302000F0814FF6FF710180022181700421C1708F
:1030300070470246002093680B4201D0012000E057
:10304000002070470146886880B270470246002021
:10305000D3680B4201D0012000E0002070470146F8
:10306000C86880B2704701617047416170470AB11A
:10307000016100E041617047C16070474FF48032E8
:103080000A43826181618261826982697047024676
:103090000020424B18684FF68073184040EA021037
:1030A00008433E4B186070473D49C8617047F0B512
:1030B0000A46002300240021002500F00046B6F156
:1030C000004F02D1354EF16901E0344E7168C0F312
:1030D000034583B200F44016B6F5401F08D121F035
:1030E00070612E4E766826F070662C4F7E6012E07E
:1030F00000F48016B6F5801F06D1032606FA05F403
:10310000A14341F0706106E0460D360103FA06F670
:10311000B14341F0706122B1460D360103FA06F663
:10312000314300F00046B6F1004F02D11B4EF16171
:1031300001E01A4E7160F0BD30B500228B071C0F04
:103140000F2303FA04F2154B08338C1053F8243084
:103150009343124C08348D1044F8253023468C10CC
:1031600053F824308C07240F00FA04F423430B4C4B
:1031700008348D1044F8253030BD0A490860704786
:1031800000080140000C0140001001400014014003
:1031900000180140001C01400020014000000140D7
:1031A00000002042DC002042DC48006840F00100C2
:1031B000DA49086008464068D9490840D74948605C
:1031C00008460068D7490840D449086008460068A6
:1031D00020F4802008600846406820F4FE00486023
:1031E0004FF41F0088607047CC49096821F4803192
:1031F000CA4A11601146096821F480211160B0F5B6
:10320000803F03D0B0F5802F0ED106E0C349096896
:1032100041F48031C14A116007E0C049096841F4B6
:10322000A021BE4A116000E000BF00BF704710B58A
:1032300001460022002300204A11012A02D1B74C86
:10324000236806E0022A02D1B44C236A01E0B34CA1
:10325000636A01F01F02012494401C4201D0012046
:1032600000E0002010BD70B500240025002600BF3E
:103270003120FFF7DCFF0646641CB4F5A06F01D0D7
:10328000002EF5D03120FFF7D2FF08B1012500E074
:103290000025284670BD01460020A04A106820F095
:1032A000F80040EAC100106070479F49086070470D
:1032B00002460020994B586820F47C1042EA010332
:1032C0001843964B58607047974908667047014607
:1032D0000020924A506820F0030008435060704775
:1032E0008E48406800F00C007047014600208B4A71
:1032F000506820F0F00008435060704701460020FD
:10330000864A506820F4E0600843506070470146E8
:103310000020824A506820F4605040EAC1005060AA
:10332000704729B17D4A527A02437C4B5A7206E0BB
:103330007A4A527AC343DBB21A40784B5A727047CA
:103340007A490860704701460020744A506820F4AA
:1033500040400843506070470021754A11706F4A21
:1033600082F82010012802D0042808D103E00121AE
:103370006F4A117004E005216D4A117000E000BF32
:1033800000BF70476B49086070476449096A014390
:10339000624A11627047674944390860704730B526
:1033A00000210022002400235C4D6D6805F00C0113
:1033B00021B1042905D0082923D105E05E4D05601F
:1033C00022E05D4D05601FE0544D6D6805F47012FC
:1033D000524D6D6805F48034022505EB92421CB90C
:1033E000564D554305600BE04C4D6D6815F4003F9C
:1033F00003D0524D5543056002E04F4D55430560E3
:1034000002E04D4D056000BF00BF444D6D6805F002
:10341000F00109094A4D6B5C0568DD4045603F4D90
:103420006D6805F4E061090A454D6B5C4568DD4057
:1034300085603A4D6D6805F46051C90A404D6B5C7A
:103440004568DD40C560354D6D6805F44041890B28
:103450003C4D6B5CC568B5FBF3F5056130BD29B12A
:103460002E4A526902432D4B5A6104E02B4A52699D
:1034700082432A4B5A61704729B1284A9269024314
:10348000264B9A6104E0254A92698243234B9A6154
:10349000704729B1214AD2690243204BDA6104E026
:1034A0001E4AD26982431D4BDA61704729B11B4A1B
:1034B000D2680243194BDA6004E0184AD2688243AA
:1034C000164BDA60704729B1144A12690243134B54
:1034D0001A6104E0114A12698243104B1A61704765
:1034E00014494039086070470F49C86470470B4958
:1034F000C87170470948406A40F0807007494862C7
:10350000704701460020054A92680A4201D0012016
:1035100000E00020704701498872704700100240A7
:103520000000FFF8FFFFF6FE00004242D8004242D2
:10353000201002408004424200127A0000093D003F
:103540003C0700204C07002010B50446FC4884428C
:1035500009D101218803FFF7A9FF00214FF4804022
:10356000FFF7A4FF32E0F748844209D10121480463
:10357000FFF7A9FF00214FF40030FFF7A4FF25E07B
:10358000F148844209D101218804FFF79CFF002102
:103590004FF48020FFF797FF18E0EC48844209D1F0
:1035A0000121C804FFF78FFF00214FF40020FFF72F
:1035B0008AFF0BE0E648844208D101210805FFF7A5
:1035C00082FF00214FF48010FFF77DFF10BD2DE931
:1035D000F04786B005460E460024A24600BFA1462D
:1035E0000027B08900B100BF2F462C8A4CF6FF702F
:1035F0000440F08804432C82AC894EF6F31004405A
:10360000B08831890843718908430443AC81AC8A8E
:103610004FF6FF400440B0890443AC8201A8FFF795
:10362000BEFEC748874202D1DDF810A001E0DDF8F8
:103630000CA0A88910F4004F08D00AEBCA0000EBD8
:103640000A1031684900B0FBF1F807E00AEBCA0044
:1036500000EB0A1031688900B0FBF1F86420B8FB78
:10366000F0F004012009642101FB1089A88910F4FD
:10367000004F08D0322000EBC900B0FBF1F000F0A1
:103680000700044308E0322000EB09106421B0FB7E
:10369000F1F000F00F0004432C8106B0BDE8F08784
:1036A0004FF41651016000218180C18001810C21FD
:1036B000418100218181704710B502460020108AA7
:1036C0004FF2FF0318400B884C8823438C88234318
:1036D000CC8823431843108210BD00210180418013
:1036E0008180C180704721B1828942F40052828179
:1036F00004E082894DF6FF731A4082817047F0B56D
:1037000003460024002600250020A1F510676A3F2B
:1037100000D100BF1846C1F3421401F01F06012773
:1037200007FA06F5012C01D10C3004E0022C01D17E
:10373000103000E014301AB107682F43076002E030
:103740000768AF430760F0BD10B51AB1838A0B4319
:10375000838204E0838ACC43A4B22340838210BDD9
:10376000028A4FF6F0731A400282028A0A430282EA
:10377000704782894FF2FF731A40828182890A431F
:103780008281704721B1828942F00202828104E085
:1037900082894FF6FD731A4082817047028A4FF684
:1037A000DF731A400282028A0A430282704721B103
:1037B000028A42F48042028204E0028A4BF6FF73DE
:1037C0001A4002827047C1F30802828070470146A6
:1037D0008888C0F308007047818941F00101818128
:1037E0007047028BD2B20283028B42EA012202832B
:1037F0007047028B02F47F420283028B0A430283EA
:10380000704721B1828A42F02002828204E0828ADB
:103810004FF6DF731A408282704721B1828A42F0EC
:103820001002828204E0828A4FF6EF731A4082828D
:10383000704721B1828A42F00802828204E0828AC3
:103840004FF6F7731A408282704721B1828942F4A1
:103850000042828103E08289C2F30E0282817047B6
:1038600021B1828A42F40062828204E0828A4FF2AD
:10387000FF731A4082827047828A4FF6FB731A40A8
:103880008282828A0A438282704721B1828A42F010
:103890000202828204E0828A4FF6FD731A4082821D
:1038A000704702460020B1F5007F00D100BF1388A9
:1038B0000B4201D0012000E00020704701F40072AB
:1038C000B2F5007F00D100BFCA430280704770B5D7
:1038D00002460024002300250020A1F510666A3E60
:1038E00000D100BFC1F3421501F01F03012606FA03
:1038F00003F3012D02D19689334006E0022D02D157
:10390000168A334001E0968A33400C12012606FAEB
:1039100004F41688344013B10CB1012000E00020FB
:1039200070BD10B500220023A1F510646A3C00D1DF
:1039300000BF0A1201249440A3B2DC43048010BDEE
:10394000003801400044004000480040004C004066
:103950000050004010B50446FE48844208D10121C1
:10396000C014FFF7A3FD0021E014FFF79FFDC4E0A2
:10397000B4F1804F08D101210846FFF7A4FD0021D2
:103980000120FFF7A0FDB8E0F348844208D10121EF
:103990000220FFF798FD00210220FFF794FDACE024
:1039A000EE48844208D101210420FFF78CFD00215C
:1039B0000420FFF788FDA0E0E948844208D10121F6
:1039C0000820FFF780FD00210820FFF77CFD94E030
:1039D000E448844208D101211020FFF774FD002142
:1039E0001020FFF770FD88E0DF48844208D10121F4
:1039F0002020FFF768FD00212020FFF764FD7CE018
:103A0000DA48844208D101214014FFF74FFD00211C
:103A10006014FFF74BFD70E0D548844209D10121C5
:103A2000C804FFF743FD00214FF40020FFF73EFDDF
:103A300063E0D048844209D101210805FFF736FD33
:103A400000214FF48010FFF731FD56E0CA48844250
:103A500009D101214805FFF729FD00214FF400108D
:103A6000FFF724FD49E0C548844208D101214020E8
:103A7000FFF729FD00214020FFF725FD3DE0C0486C
:103A8000844208D101218020FFF71DFD0021802004
:103A9000FFF719FD31E0BB48844208D101218015B0
:103AA000FFF711FD0021A015FFF70DFD25E0B64839
:103AB000844209D101210804FFF7F8FC00214FF4EA
:103AC0008030FFF7F3FC18E0B048844209D10121AF
:103AD0004804FFF7EBFC00214FF40030FFF7E6FC51
:103AE0000BE0AB48844208D101218804FFF7DEFCDB
:103AF00000214FF48020FFF7D9FC10BD002202887E
:103B0000944B98420ED0994B98420BD0B0F1804F15
:103B100008D0914B984205D0904B984202D0904BE0
:103B2000984204D14FF68F731A404B881A438D4B3D
:103B3000984207D08C4B984204D04FF6FF431A406E
:103B4000CB881A4302808B8883850B880385814B41
:103B500098420BD0854B984208D08B4B984205D0A9
:103B60008A4B984202D08A4B984201D10B7A038645
:103B700001238382704770B5002400220023058C46
:103B80004FF6FE7635400584028C8388048B4FF611
:103B90008F752C40B51E2C400D882C43751E2A4075
:103BA0000D892A434D882A436A4DA8420BD06F4D98
:103BB000A84208D0744DA84205D0744DA84202D046
:103BC000734DA84213D14FF6F7752A404D892A4309
:103BD0004FF6FB752A408D882A434FF6FF652B4030
:103BE0004FF6FF552B408D892B43CD892B43838086
:103BF0000483CD888586028470BD70B500240022C0
:103C00000023058C4FF6EF7635400584028C8388BF
:103C1000048B48F6FF752C404FF6FF452C400D886D
:103C20002D0644EA15444FF6DF752A400D892D050F
:103C300042EA15424D882D0542EA1542454DA842FB
:103C400002D04A4DA8421BD14FF67F752A404D89BC
:103C50002D0542EA15424FF6BF752A408D882D0585
:103C600042EA15424FF6FF352B404FF2FF752B40CD
:103C70008D89AD0443EA1543CD89AD0443EA15436C
:103C800083800483CD880587028470BD70B50024CD
:103C900000220023058C4FF6FF6635400584028C18
:103CA0008388848B4FF68F752C404FF6FC752C4023
:103CB0000D882C434FF6FF552A400D892D0642EA08
:103CC00015424D882D0642EA1542224DA84202D0E7
:103CD000264DA8421BD14FF2FF752A404D892D0673
:103CE00042EA15424FF6FF352A408D882D0642EAFA
:103CF00015424EF6FF752B404DF6FF752B408D8912
:103D00002D0543EA1543CD892D0543EA15438380EC
:103D10008483CD888587028470BD70B5002200231E
:103D20000024058C4EF6FF7635400584038C84888C
:103D3000828B48F6FF752A404FF6FF452A400D88D2
:103D40002D0642EA15424DF6FF752B400D892D07D1
:103D500020E00000002C014000040040000800406A
:103D6000000C0040001000400014004000340140EE
:103D7000004C014000500140005401400018004038
:103D8000001C004000200040004001400044014071
:103D90000048014043EA15434D882D0743EA154387
:103DA000F84DA84202D0F84DA84206D14BF6FF7557
:103DB0002C408D89AD0544EA154484808283CD88EA
:103DC000A0F84050038470BD828B4FF2FF331A403D
:103DD0008283828B0B0642EA134282837047F0B5DE
:103DE0000C461546002200210026078C4EF6FF7C6B
:103DF00007EA0C070784828B018C27073E0C40F6EC
:103E0000FF473A402F0642EA17421F0742EA17428D
:103E1000DC4FB8420ED0DC4FB8420BD0B0F1804F2F
:103E200008D0DA4FB84205D0D94FB84202D0D94FA6
:103E3000B84206D14DF6FF77394046F480573943F2
:103E400005E047F6FF57394044F4805739438283F1
:103E50000184F0BD828B4FF6F3731A408283828B0C
:103E60000A4382837047F0B50C46154600220021B4
:103E70000026078C4FF6FF6C07EA0C070784828B3D
:103E8000018C27063E0C4FF60C773A401F0545EA99
:103E900017473A43BB4FB8420ED0BB4FB8420BD086
:103EA000B0F1804F08D0B94FB84205D0B84FB842F2
:103EB00002D0B84FB84206D14FF6FF57394046F40A
:103EC0008077394305E04FF2FF57394044F480775B
:103ED000394382830184F0BD028B4FF2FF331A40D5
:103EE0000283028B0B0642EA134202837047F0B54D
:103EF0000C461546002200210026078C4FF6EF7C69
:103F000007EA0C070784028B018C27053E0C40F65C
:103F1000FF473A401F0742EA17422F0642EA17427C
:103F2000984FB8420ED0984FB8420BD0B0F1804FA6
:103F300008D0964FB84205D0954FB84202D0954F61
:103F4000B84206D14FF6DF77394046F010073943C3
:103F500005E04FF65F77394044F01007394302839C
:103F60000184F0BD028B4FF6F3731A400283028B7B
:103F70000A4302837047F0B50C4615460022002123
:103F8000068C4FF6FE773E400684028B018C4FF67E
:103F90000C7632401E0545EA16463243794EB04251
:103FA0000ED0794EB0420BD0B0F1804F08D0774E92
:103FB000B04205D0764EB04202D0764EB04206D125
:103FC0004FF6FD76314044F00106314305E04FF6EF
:103FD000F576314044F00106314302830184F0BD9F
:103FE00070B505460C46674885420ED06648854246
:103FF0000BD0B5F1804F08D06448854205D06448A5
:10400000854202D06348854200D100E000BF20888D
:1040100050B92389A28861882846FFF7ACFFE18860
:104020002846FFF79FFF25E0208804280AD123892E
:10403000A28861882846FFF75AFFE1882846FFF7E3
:104040004BFF17E0208808280AD12389A2886188BD
:104050002846FFF708FFE1882846FFF7FBFE09E046
:104060002389A28861882846FFF7B9FEE18828469F
:10407000FFF7AAFE70BD2DE9F04105460C4600266B
:104080000127608808B9022600E00026A0880128E0
:1040900001D1022700E001272088A0B92389A28846
:1040A00061882846FFF767FFE1882846FFF75AFF37
:1040B00023893A4631462846FFF719FFE18828460A
:1040C000FFF70AFF13E02389A28861882846FFF7DB
:1040D0000EFFE1882846FFF7FFFE23893A46314666
:1040E0002846FFF748FFE1882846FFF73BFFBDE879
:1040F000F0810A884B881A438B881A43CB881A436D
:104100000B891A434B891A438B891A43A0F8442020
:1041100070474FF6FF71818000210180C18041808E
:10412000017270470021018041808180C18001813E
:1041300041818181C181704700210180418001213D
:1041400081800021C1800181704700210180418070
:104150008180C180018141818181704721B10288C4
:1041600042F00102028004E002884FF6FE731A401A
:104170000280704781B1B0F8442042F40042A0F8B8
:1041800044200FE0002C01400034014000040040B6
:1041900000080040000C0040B0F84420C2F30E02BA
:1041A000A0F84420704710B51AB183890B4383816E
:1041B00004E08389CC43A4B22340838110BD818273
:1041C000704741EA0203A0F84830704710B51AB1B1
:1041D00083890B43838104E08389CC43A4B22340C9
:1041E000838110BD01894FF6F8721140018170473B
:1041F0000A46002101894FF68F731940114301814E
:10420000704730B504460D4629462046FFF7F0FFBB
:10421000208940F00700208130BD2DE9F04104469F
:104220000D4616461F46602D06D13B4601223146FB
:104230002046FFF75CFE05E03B4601223146204662
:10424000FFF799FE29462046FFF7D2FF208940F06C
:1042500007002081BDE8F08130B50C4600210189BE
:10426000C9B21D0642EA154525432943018130BDE7
:104270002DE9F04105460E46174698460024434670
:104280003A4631462846FFF7E7FF2C894FF6F8708B
:10429000044044F007044FF68F70044044F070046B
:1042A0002C81BDE8F081F0B504460D4616461F4648
:1042B0003B46324629462046FFF7CEFF208940F490
:1042C00080402081F0BD0185828270470A4600212E
:1042D00001884FF68F731940114301807047F0B584
:1042E0000C4615461E460021002200230189028B40
:1042F000038C4FF6F877394021434FF6FC473A409C
:1043000040F201173A434FF6DD773B40370545EA67
:1043100017473B43018102830384F0BD0A46002115
:10432000018B4FF68F7319401143018370470A4682
:104330000021018B48F6FF731940130641EA13412F
:10434000018370470A460021818B4FF68F73194015
:104350001143818370470A460021818B48F6FF7321
:104360001940130641EA13418183704721B1028845
:1043700042F08002028004E002884FF67F731A4008
:104380000280704721B1828842F00402828004E0FA
:1043900082884FF6FB731A408280704721B1828871
:1043A00042F00802828004E082884FF6F7731A40D8
:1043B0008280704721B1828842F00102828004E04D
:1043C00082884FF6FE731A40828070470A460021A9
:1043D000018B4FF6F77319401143018370470A466A
:1043E0000021018B4FF2FF731940130641EA13417C
:1043F000018370470A460021818B4FF6F7731940FD
:104400001143818370470A460021818B4FF2FF736D
:104410001940130641EA1341818370470A4600217F
:10442000018B4FF6FB7319401143018370470A4615
:104430000021018B4FF6FF331940130641EA134167
:10444000018370470A460021818B4FF6FB731940A8
:104450001143818370470A460021818B4FF6FF3359
:104460001940130641EA1341818370470A4600212F
:10447000018B4FF67F7319401143018370470A4641
:104480000021018BC1F30E01130641EA13410183A0
:1044900070470A460021818B4FF67F731940114304
:1044A000818370470A460021818BC1F30E011306F8
:1044B00041EA1341818370470A460021018C4FF67F
:1044C000FD7319401143018470470A460021018C95
:1044D0004FF6F77319401143018470470A460021D3
:1044E000018C4FF6DF731940130541EA1341018433
:1044F00070470A460021018C4FF67F73194013055F
:1045000041EA1341018470470A460021018C4FF6AD
:10451000FF531940130641EA1341018470470A46CC
:104520000021018C4FF2FF731940130641EA134139
:10453000018470470A460021018C4DF6FF73194033
:10454000130741EA13410184704730B50023012469
:104550008C40A3B2048CDD43ADB22C400484048CA7
:1045600002FA01F5ADB22C43048430BD30B500230E
:1045700004248C40A3B2048CDD43ADB22C400484EF
:10458000048C02FA01F5ADB22C43048430BD70B541
:104590000346002000241846183001258D40ACB297
:1045A0001D8CE643B6B235401D8409B1082909D1F6
:1045B00000EB6100056825F070050560056815438E
:1045C00005600CE00D1FADB200EB6500056825F439
:1045D000E04505600568160645EA1645056070BDAC
:1045E00021B1028842F00202028004E002884FF604
:1045F000FD731A400280704721B1028842F0040224
:10460000028004E002884FF6FB731A400280704774
:1046100021B1828842F08002828004E082884FF6D5
:104620007F731A408280704702884FF6F7731A40F2
:10463000028002880A430280704782884FF68F7397
:104640001A40828082880A438280704702894FF62E
:10465000F8731A40028102890A4302817047028975
:104660004FF67F731A40028102890A430281704724
:1046700081847047818570478186704701877047C4
:1046800081877047A0F84010704702884FF6FF43BB
:104690001A40028002880A43028070470146888ED1
:1046A00070470146088F70470146888F7047014662
:1046B000B1F8400070470146888C70470146088D6C
:1046C000704702460020138A0B4201D0012000E00F
:1046D00000207047CA430282704730B5024600206E
:1046E00000230024158A05EA0103958905EA0104DF
:1046F00013B10CB1012000E0002030BDCA4302829A
:104700007047000000210020674A126842F480329E
:10471000654B1A6000BF644A126802F40030491CFD
:1047200010B9B1F5A06FF6D15F4A126812F4003FDC
:1047300001D0012000E00020012842D15B4A12682C
:1047400042F01002594B1A601A46126822F0030216
:104750001A601A46126842F002021A60524A5268FF
:10476000514B5A601A4652685A601A46526842F4CF
:1047700080625A601A46526822F47C125A601A46C5
:10478000526842F4E8125A601A46126842F0807287
:104790001A6000BF444A126812F0007FFAD0424A01
:1047A000526822F00302404B5A601A46526842F0A7
:1047B00002025A6000BF3C4A526802F00C02082A0A
:1047C000F9D1704710B5FFF79DFF10BD10B5364801
:1047D000006840F0010034490860084640683449E8
:1047E00008403149486008460068324908402E496F
:1047F00008600846006820F4802008600846406889
:1048000020F4FE0048604FF41F008860FFF7DAFFD5
:104810004FF000602849086010BD10B5002100204D
:104820000022214B5B6803F00C0121B1042906D062
:10483000082928D107E0214B214C236027E01F4B9A
:104840001F4C236023E0184B5B6803F47010164B79
:104850005B6803F48032022303EB904022B9194BCA
:104860004343174C23600DE00F4B5B6813F4003F8C
:1048700004D0144B4343124C236003E00F4B4343DB
:104880000F4C236003E00D4B0D4C236000BF00BFB5
:10489000054B5B68C3F303130B4CE15C084B1B68CF
:1048A000CB40074C236010BD0010024000200240A6
:1048B0000000FFF8FFFFF6FE08ED00E000127A00AE
:1048C0005007002000093D00540700200948804798
:1048D00009480047FEE7FEE7FEE7FEE7FEE7FEE7E2
:1048E000FEE7FEE7FEE7FEE704480549054A064BFA
:1048F00070470000CD47000831010008F80D002086
:10490000F8130020F80F0020F80F002070477047C0
:10491000704710B500F008F8006810BD10B50446E7
:1049200000F002F8046010BD00487047980D0020A8
:1049300000487047980D00207546FFF7F9FFAE4616
:1049400005006946534620F00700854618B020B59B
:10495000FFF7CAFFBDE820404FF000064FF0000708
:104960004FF000084FF0000B21F00701AC46ACE817
:10497000C009ACE8C009ACE8C009ACE8C0098D4684
:1049800070470446AFF300802046FBF73EFC000072
:10499000004870479C0D002001491820ABBEFEE77F
:1049A00026000200704700002DE9F041C1F30A52D1
:1049B000A2F2FF362F4A304B0D460446142E2FDA52
:1049C000002E12DA00F0B6F80022134600F026FCA2
:1049D0004CD2002DA4BF0024254647DA25F0004024
:1049E000204318BF254D41D018E0DFF894C02CFAC1
:1049F00006F705EA070C5CEA040C08BFBDE8F08185
:104A000000F098F80022134600F008FC2ED2002D8A
:104A100003DA4FF48010F0400544BD43002425E044
:104A2000332EC8BFBDE8F081A6F1140C4FF0FF375C
:104A300027FA0CF73C4208BFBDE8F08100F024FCE7
:104A40000022134600F0EAFB10D2002D0DDA142EDE
:104A500008BF6D1C09D0C6F13400012101FA00F035
:104A60002044A04238BF6D1C0446BC432946204662
:104A7000BDE8F0819C7500883CE4377E0000F0BF03
:104A8000FFFF0F002DE9F04106460F4600F008FC3D
:104A90000D46040018BF0120284320F00040C0F15B
:104AA0007F6010F1E0400FD5002E14BF01200020E0
:104AB000384320F00040C0F17F6000F1E040002862
:104AC000A4BF0120FFF72AFF20462946BDE8F08158
:104AD00021F00042A2F16052B2F5801F01F00043C4
:104AE00028BFD2F17F6C0BD95FEA001C43EAC202F7
:104AF00042EB507018BF704728BF20F0010070478C
:104B0000B2F5801FBCBF184670474FEA410C1CF538
:104B1000001F02D2084601F071B870B500F02AFB00
:104B200000000089FFF7F6BF4FF00040A0F58000BD
:104B30007047000010B591EA030F48BF83F00043AF
:104B400000F19C84841A71EB030C05D2121943EB1B
:104B50000C03001B61EB0C01DFF824E14FEA115458
:104B6000A4EB135C1EEA430F18BF9EEA445F73D0A8
:104B700023EA0E03DCF1200E21EA045143F48013F2
:104B800032D322FA0CFE10EB0E0023FA0CFE41EB9E
:104B90000E01CCF1200E03FA0EFE10EB0E0051F1C7
:104BA0000001B1F5801FCCF1200E32D201EB04518F
:104BB00012FA0EF2BDE8104058BF7047401C38BFD3
:104BC0005FEA420218BF7047002814BF20F00100BE
:104BD00041F100014FEA410313F5001F38BF704750
:104BE000A1F1C04100F014BB012A43EB0302ACF178
:104BF000200CDCF11F0E32BF4FF0000E23FA0CF335
:104C000010EB030041EB0451B4EB115FD0D0A1EBEA
:104C1000045101F5801149085FEA300001EB0451AD
:104C20000ED350F1000038BF12FA0EFE08D1BDE8D5
:104C30001040C9E7401C38BF5FEA4202CAD1C3E74F
:104C4000BDE810404FEA410313F5001F38BF70471D
:104C5000A1F1C04100F0DCBA9EEA445F08D011EA3D
:104C60005E0FBDE8104004BF01F000410020704716
:104C7000BDE8104070B500F07DFA00BF64FBBE3E99
:104C80000000E0FF491058BFC1F140415B1058BF20
:104C9000C3F140438B42EFF3008070472DE9C041E0
:104CA00030B4DFF8A0C23CEA111418BF3CEA131478
:104CB00000F0EC8081EA03051CEA111444EAD57483
:104CC00018BF1CEA131500F0C780A4EB05044FF0D1
:104CD000004545EAC12145EAC32341EA505143EA70
:104CE000525304F17F74994204F500344FEAC02016
:104CF0004FEAC22208BF904200F09C804FEA136541
:104D00000FF24016765D4FEA134506FB05F7C7F133
:104D1000807706FB07F74FEAD737A7FB0368764291
:104D2000C8F58038A7FB06CE38BFA8F1010807FBFD
:104D300008E64FF0000EA6FB028CE6FB03CEDCF18A
:104D4000000CCEF1004E38BFAEF1010EA6FB0C58A0
:104D50004FF000074FF00005E6FB0E87A1FB08C6E9
:104D6000A0FB07CE16EB0E0645F10005E1FB07653B
:104D700015F1E04E7EBFA4F580345FEA46066D4132
:104D800016F1800745F100054FEA17274FEA06663E
:104D900047EA0567A6F1DE46B6F1805F4FEA1525C2
:104DA0001FD9384624F0010C05EBC471BCF1FE6F2D
:104DB00001EB0C1102D8F0BCBDE8008124425CBFBD
:104DC00001F5801E9EEAC47F02D4F0BCBDE80081DC
:104DD000244238D4F0BCA1F1C041BDE8004100F04C
:104DE00017BA4FEAD22242EA43524FEAD323A7FB33
:104DF00002864FEAD02040EA415007FB03661EEAD4
:104E00000E0F4FEAD12105FB026658BFA6EB0056F4
:104E1000B6EB00564FEA520E4EEAC37E18EB0E0E6A
:104E200056EB530EBDD518EB02085E417F1C55F1C1
:104E30000005B6E74FF480154FF000074FF000066D
:104E40004FF00008ADE7F0BC4FF0000001F1C041A9
:104E500001F00041BDE8008111EA0C1F0CEA1315B6
:104E600000D00CE013EA0C1F00F025804FF000008A
:104E7000F0BC81EA030101F00041BDE80081F0BC13
:104E8000BDE8004181EA030100F0C2B9F0BCBDE811
:104E9000004170B500F06EF9097EFC3E00F007B8E5
:104EA00081EA03014FF0000001F00041704781EA00
:104EB000030100F0ADB9F0BCBDE800414FF00000C7
:104EC00021497047FFFDFBF9F7F5F4F2F0EEEDEB49
:104ED000E9E8E6E4E3E1E0DEDDDBDAD8D7D5D4D3F8
:104EE000D1D0CFCDCCCBCAC8C7C6C5C4C2C1C0BF44
:104EF000BEBDBCBBBAB9B8B7B6B5B4B3B2B1B0AF4A
:104F0000AEADACABAAA9A8A8A7A6A5A4A3A3A2A12D
:104F1000A09F9F9E9D9C9C9B9A99999897979695E8
:104F200095949393929191908F8F8E8E8D8C8C8B84
:104F30008B8A89898888878786858584848383820C
:104F4000828181800000FF070000F87F4FEA115343
:104F5000A3F58063D3F11E03A8BFD3F1200C08DBB7
:104F60004FF0004242EAC12252EA505232FA03F0B4
:104F7000704709420BD4102BC4BF0020704703F5C3
:104F8000787CBCF1FF3F05D04FF0FF3070474FF009
:104F90000000704770B500F0EDF800BF4992248022
:104FA00000207047F0E7000051EA030C17D41CF50D
:104FB000801F58BFBCF5801F00F10680994218BFC2
:104FC000704708BF9042704707D711F5801F58BF40
:104FD00013F5801F19D499427047894270471CF518
:104FE000801F08D5BCF5801FF7D58B4218BF7047CE
:104FF00008BF824270474FF4001C1CEB410F38BFC2
:105000001CEB430F01D28B42704770B500F0B2F831
:10501000922449004FF000514FF08053FFF732BE09
:10502000DFF848C170B51CEA111E1EBF1CEA13153B
:105030009EEA0C0F95EA0C0F00F06F8081EA0304E2
:1050400023EA4C134EEAD47E21EA4C1141F480113C
:1050500043F48013AE44A1FB024CA0FB0365AEF108
:105060007F7E361955EB0C05A1FB034C4CF1000378
:10507000A0FB021C16EB0C06654153F1000309422C
:1050800018BF46F0010613F4007F0BD14FEA03313D
:105090004FEA0530340341EA155140EA16506FF0EB
:1050A00003020AE04FEAC3214FEAC520F40241EAB5
:1050B000555140EA56506FF0020202EB2E4201EBCE
:1050C000025585EACE710AD05FEA440C18BF24F07D
:1050D000004450F1000041F1000120EAD47040F298
:1050E000FE7C624500D270BDA84214BF4FF08044E0
:1050F0004FF04044002E08BF0024BEF1806FA8BFCF
:10510000A1F1C041BDE8704080F282804FF0000004
:1051100001F1C04101F0004170479EEA0C0F0CEA1A
:10512000131518BF95EA0C0F06D04FF0000081EA66
:10513000030E0EF0004170BD00F01CF88900013E26
:1051400000F007B800F009B84FEA430C5FEA5C5C76
:1051500008D081EA030100F05BB84FEA410C5FEA36
:105160005C5CF6D14FF00000014970470000FF077A
:105170000000F87F0EF1020E2EF0030E5EF8046BB5
:10518000364205D4012A43EB030515F5001F12D85A
:10519000012841EB010C1CF5001F0CD80ED14FEA81
:1051A000D17C15F5001F0CEB4C0C0CF1020C08BF68
:1051B0004CEBD37C04E04FF0080C01E04FEAD37CC9
:1051C0000CEB4C0526FA05F606F00706B6F1040CC2
:1051D00006D20EEB860CBDE870404CF0010C604727
:1051E000DFE80CF0090B02024FF000414FF0000025
:1051F000A1F5002170BD19461046012851EB0104AC
:1052000018BFD4F5001484BF002001F0004170BD28
:105210000808A0F500114FEA3101704753EA010C6C
:1052200017D41CF5801F58BFBCF5801F00F1068005
:105230008B4218BF704708BF8242704707D713F5EB
:10524000801F58BF11F5801F19D48B4270479B42B5
:1052500070471CF5801F08D5BCF5801FF7D5994213
:1052600018BF704708BF904270474FF4001C1CEBFA
:10527000430F38BF1CEB410F01D2994270470FB466
:105280000CBC03BCFFF7C1BE91EA030F10B581F05F
:1052900000413FF557AC83F0004300F0EFB8000049
:1052A0002DE9F04101F5801CBCF5001FC0F2C38060
:1052B0004FEA115C21EA0C510CF1FD0C41F4801114
:1052C0005FEA5C0C0CF5C07C01D3400049413DA471
:1052D000890241EA905187028E0E0A0CA45D04FBFC
:1052E00004F602FB06F6C6F14046A4FB0662F60D84
:1052F00046EA422606FB06F4A4FB01235242C3F110
:10530000404338BF5B1EA6FB02420024E6FB032499
:10531000D20B42EA4446A6FB0623A1FB02E2A3FB12
:1053200007E4A4184FF0000252F10002E3FB01422F
:105330006442C2F1404E38BFAEF1010EA6FB042319
:105340004FF00002E6FB0E32A2FB03464FF00004D2
:10535000B61954F10004E2FB0264A1FB06E6A4FBCB
:1053600007E816EB08064FF0000858F10008E4FBC8
:1053700001687642C8F1405838BFA8F10108A2FB85
:1053800006E4A3FB08E52D194FF0000454F10004D6
:10539000E2FB0854A1FB05E6A7FB04E818EB0608AE
:1053A0004FF0000656F10006E1FB048618F12005D7
:1053B00056F10006A809A8F11B08B10908F03F083A
:1053C000B8F10A0F40EA86601CD901EB0C51BDE828
:1053D000F08100BFFCF5EEE8E2DDD8D3CFCBC7C348
:1053E000C0BDB9B6B4B1AEACA9A7A5A3A19F9D9B02
:1053F0009A9896959392908F8D8C8B8988878685C5
:1054000084838281A0FB006800FB01F208EB420864
:10541000B8EB872807D5341858EB0104D5D5401CC4
:1054200051F10001D1E7341A78EB0104CDD4401ECC
:1054300071F10001C9E75FEA4C0C5FEA9C5C0DD199
:1054400005D34FF0000001F00041BDE8F081BDE858
:10545000F04170B5FFF78EFE6DDBFFBEBDE8F04199
:105460004FF00000004970470000F87F10B591EA46
:10547000030F48BF83F000433FF564AB841A71EB20
:10548000030C07D212198CF0004C43EB0C03001BE9
:1054900061EB0C01DFF8A4E14FEA1154A4EB135CBB
:1054A0001EEA430F18BF9EEA445F00F0B08023EA73
:1054B0006E03524221EA0451C3EB6E0338BF5B1EF8
:1054C000DCF1200E25D322FA0CFE10EB0E0043FA7D
:1054D0000CFE41EB0E01CCF1200E03FA0EFE10EB98
:1054E0000E0051F10001CCF1200E29D412FA0EF277
:1054F00001EB0451BDE8104058BF7047401C1CBF71
:10550000B2F1004F704700280CBF491C20F0010089
:10551000704712EB020E43EB030218BF4FF0010E6F
:105520004EEA4202ACF1200CDCF11E0E54D943FAD3
:105530000CFE10EB0E0051F1FF31CCF11E0ED5D553
:105540000EF1010E12FA0EFE404141EB010101EB9A
:10555000445C5FEA5C5C10D910EBDE7001EB045137
:1055600038BFBEF1004FBDE8104018BF704700289B
:105570000CBF491C20F00100704730D24FEAD42CF8
:1055800011F5001124F400641BD0B1FA81F20B3A3A
:10559000A41AA41ED2F12003914030FA03F3194358
:1055A000904001EBCC71002C01EB0451BDE81040A0
:1055B000A8BF704701F1C0414FF0000001F0004169
:1055C0007047B0FA80F310FA03F100D110BDE41A6D
:1055D000173C4805C90AE4E701EB045110BD491026
:1055E00001EB0451BDE810404FEA300002E04FF0FB
:1055F000000170474A0008BF0042F8D0B2F5001F12
:1056000028BF704701F000414FF0000070479EEA4C
:10561000445F07D011EA5E0FBDE8104004BF0021CF
:1056200000207047BDE8104070B5FFF7A3FD00BF34
:1056300040DFF63E83F00041104670470000E0FF77
:1056400043004FEAD30C4FEA3C0C43401FBF4007D6
:105650000CF1605113F0FE4F70471CF0006F03D146
:1056600000200CF0004170470CF0004343EA5070FA
:1056700010B540EACC0000F074FA00BF00000092C0
:105680004FEA0001FFF7C4BD4FF000414FF00000AA
:10569000A1F500217047000090EA010F48BF81F09A
:1056A000004100F1F282421A3CBF801A89184FEA89
:1056B000D0524FF07F4C1CEA410FA2EBD15318BFE0
:1056C0009CEA026F00F03B804FF0004C4CEA002057
:1056D0004CEA012121FA03FC10EB0C0C1ED202F162
:1056E000FF325FEA1C2040EBC25038BF70471CF00D
:1056F0007F0F4FEA400C18BFBCF17F4F38BF704797
:10570000C3F12003994008BF20F00100BCF17F4F96
:1057100038BF7047A0F1C04000F070BA4FEA3C00BB
:10572000000A40EBC25028BF1CF0FF0F4FEA400CAC
:10573000E6D018BFBCF17F4F38BF7047EAE79CEA5C
:10574000026F05D010EA5C0F08BF00F00040704700
:1057500010B500F006FA00BF64FBBE3E401058BF13
:10576000C0F14040491058BFC1F140418142EFF3C0
:10577000008070474FF47F0C1CEAD0121EBF1CEA59
:10578000D11392EA0C0F93EA0C0F00F0858090EA97
:10579000010F48BF42F4807240F4000C41F4000055
:1057A0002CF07F4120F07F4000B58142A2EB030244
:1057B0000FF2081CACEB504EC0F100009EF800E068
:1057C0004FEA4E0E00FB0EFC38BF49004FEA2C1C7E
:1057D00002F5FA020CFB0EF34FEACE1E4FEA112C33
:1057E0004FEAC1210EEB635E42EB22420EFB0CFC42
:1057F0004FEA1C5300FB03114FEA112C4FEA013111
:105800000EFB0CFC4FEADC4C00FB0C11C14228BF24
:1058100009184CEB03335DF804EB10EB410143EB4B
:10582000C250B2F57C0F38BF704729D512F0F00F87
:105830001CBF00F1C04000F000407047008182832F
:105840008485868788898B8C8D8E8F91929395968F
:1058500097999A9C9D9FA0A2A3A5A7A8AAACAEB019
:10586000B2B3B5B7B9BCBEC0C2C5C7C9CCCED1D41E
:10587000D7D9DCDFE2E6E9ECF0F3F7FAFE0000004E
:105880004FEA400C0CF1807CBCF17E4F28BF704782
:10589000B0F1C04000F0B2B990EA010F0CEAD113A8
:1058A00048BF42F48072624538BF634507D213F4A3
:1058B0007F0F16D080EA010000F00040704710B55D
:1058C00000F04FF9097EFC3E00F005B880EA0100C7
:1058D00000F00040704780EA010000F0004000F056
:1058E0008DB912F47F0F04BF0248704780EA0100AF
:1058F00000F084B90000C07F50EA010C00F1138071
:105900001CF5000F58BFBCF5000F01D4884270474A
:1059100007D710F5000F58BF11F5000F15D48842B6
:105920007047894270471CF5000F04D5BCF5000F85
:10593000F7D5814270474FF0807C1CEB400F38BF99
:105940001CEB410F01D28142704710B500F009F9FC
:10595000922449004FF000504FF08051FFF7FEBEF7
:10596000C10DD1F19E0206DB4FEA002343F0004354
:1059700023FA02F07047004207D54FEA4001B1F127
:10598000FE4F02D24FF00000704710B500F0E9F86A
:1059900049922480002070476FEA20007047000081
:1059A00010F0004148BF4042B0FA80F310FA03F211
:1059B000C3F19D030BD051EAC35101EB12205306F2
:1059C00038BF704700F1010008BF20F001007047A8
:1059D000B0FA80F310FA03F2C3F19D030AD0D9059F
:1059E00001EB1220530638BF704700F1010008BFD9
:1059F00020F001007047000050EA010C00F1138014
:105A00001CF5000F58BFBCF5000F01D48842704749
:105A100007D710F5000F58BF11F5000F15D48842B5
:105A20007047894270471CF5000F04D5BCF5000F84
:105A3000F7D5814270474FF0807C1CEB400F38BF98
:105A40001CEB410F01D28142704710B500F089F87C
:105A5000922449004FF000504FF08051FFF77EBE76
:105A60004FF47F0C1CEAD0121EBF1CEAD11392EA3D
:105A70000C0F93EA0C0F00F0478090EA010F48BF2B
:105A800042F480724FF0004C4CEA00204CEA0121B5
:105A900002EB0302A0FB0113A2F50002002918BFCC
:105AA00043F001035B0028BF4FEA330342EB22427D
:105AB0005FEA132C4CEBC2502EBFBCEB436FB2F528
:105AC0007C0F70474FEA036CBCF1004F08BF20F019
:105AD0000100B2F57C0F38BF70470BD582F0FF0292
