:020000040800F2
:10000000102500200D020008150200081702000844
:10001000190200081B0200081D0200080000000071
:100020000000000000000000000000001F020008A7
:100030002102000800000000230200082502000839
:1000400027020008270200082702000827020008EC
:1000500027020008270200082702000827020008DC
:1000600027020008270200082702000827020008CC
:1000700027020008270200082702000827020008BC
:1000800027020008270200082702000827020008AC
:10009000270200082702000827020008270200089C
:1000A00027020008311F0008270200082702000865
:1000B000691F0008B91F000819200008270200085E
:1000C000270200082702000827020008270200086C
:1000D0002702000855260008C52600082702000848
:1000E000270200082702000827020008270200084C
:1000F000270200082702000827020008270200083C
:10010000270200082702000827020008270200082B
:10011000270200082702000827020008270200081B
:10012000270200082702000827020008270200080B
:1001300000F002F800F05AF80AA090E8000C82449F
:100140008344AAF10107DA4501D100F04FF8AFF27C
:10015000090EBAE80F0013F0010F18BFFB1A43F0A5
:100160000103184704510000245100000A444FF0D5
:10017000000C10F8013B13F0070408BF10F8014B06
:100180001D1108BF10F8015B641E05D010F8016B4B
:10019000641E01F8016BF9D113F0080F1EBF10F8AF
:1001A000014BAD1C0C1B09D16D1E58BF01F801CBD2
:1001B000FAD505E014F8016B01F8016B6D1EF9D555
:1001C0009142D6D37047000000230024002500266A
:1001D000103A28BF78C1FBD8520728BF30C148BFAA
:1001E0000B6070471FB51FBD10B510BD00F031F892
:1001F0001146FFF7F7FF02F0BDFF00F04FF803B420
:10020000FFF7F2FF03BC00F057F8000009488047F1
:1002100009480047FEE7FEE7FEE7FEE7FEE7FEE7E8
:10022000FEE7FEE7FEE7FEE704480549054A064B00
:1002300070470000D11E000831010008101F002087
:100240001025002010210020102100207047704749
:100250007047754600F02CF8AE46050069465346D7
:1002600020F00700854618B020B5FFF7DDFFBDE898
:1002700020404FF000064FF000074FF000084FF00D
:10028000000B21F00701AC46ACE8C009ACE8C0099E
:10029000ACE8C009ACE8C0098D46704710B504460B
:1002A000AFF300802046BDE81040FFF7A8BF000074
:1002B00000487047B01E002001491820ABBEFEE781
:1002C000260002007047000008B50121042001F05B
:1002D0009DFABE20ADF8000003208DF8020010202A
:1002E0008DF803006946144800F0F9FA4020ADF893
:1002F000000003208DF8020004208DF803006946F9
:100300000D4800F0ECFA20210B4800F0C4FB10214E
:10031000094800F0C2FB0821074800F0BEFB042199
:10032000054800F0BAFB0221034800F0B6FB4FF489
:10033000FA6002F087FE08BD0008014070B505466E
:10034000002408E0E0B2294600F038F84FF4FA60E3
:1003500002F078FE641C0C2CF4DB70BD2DE9F05F1C
:1003600083464FF0000A1AE00120114901F82A00E3
:100370005BF82A0004F094FB804600220D4B04F049
:1003800071F9064600220C4B03F0CCFE044604F043
:10039000D5F8074901EB8A0148800AF1010ABAF150
:1003A000080FE1DB024802F029FEBDE8F09F0000E3
:1003B0006C0300208099B9400000E03F2DE9FF5F09
:1003C00005460E46032095FBF0F030B101280AD017
:1003D00002280FD003281BD113E00221534800F05C
:1003E0005AFB534C15E00421504800F054FB504C8C
:1003F00009340EE008214D4800F04DFB4C4C1234FE
:1004000007E01021494800F046FB494C1B3400E04E
:1004100000BF00BF4FF4FA6002F014FE4FF0000975
:100420000AE0FF2002F05EFD04F809004FF4FA70C4
:1004300002F008FE09F10109B9F1090FF1DB102101
:100440003A4800F02AFB0821384800F026FB042136
:10045000364800F022FB0221344800F01EFB2078D1
:1004600001285DD1E07802285AD1A079032857D11C
:1004700095FBF0F100FB1150C0B9A07804F0A2F890
:10048000074600222B4B03F001FFCDE90201607803
:1004900004F098F8CDE90001DDE9022303F042FE03
:1004A000824603F00DFE46F8250039E0032095FB57
:1004B000F0F100FB1150012819D1607904F082F8A5
:1004C000824600221B4B03F0E1FE07468846207956
:1004D00004F078F83A464346CDE9000103F022FEE5
:1004E000CDE9020103F0ECFD46F8250018E0207A82
:1004F00004F068F8824600220E4B03F0C7FE074660
:100500008846E07904F05EF83A464346CDE90001BA
:1005100003F008FECDE9020103F0D2FD46F8250004
:100520004FF4FA6002F08EFDBDE8FF9F0008014025
:1005300048030020000059402DE9FC4781468A46C7
:100540001849504604F058FD02D2DFF858A006E0E2
:100550000021504604F050FC01D24FF0000A002464
:1005600004E00120104901F82400641C082CF8DB89
:10057000504604F095FA074600220C4B04F072F83E
:10058000054600220A4B03F0CDFDCDE9000103F042
:10059000D5FF054901EB89014880034802F02EFD93
:1005A000BDE8FC87000020416C0300208099B94021
:1005B0000000E03F10B50D480088B0F5487F07DA2D
:1005C0000021072000F0F4F80020094908800BE022
:1005D00006480088B0F5487F06DB0121072000F0BF
:1005E000E7F801200249088010BD0000AC0100209E
:1005F0007C01002070B502460C46FF25FF2309E070
:1006000012F8010B80EA05010648405C80EA030508
:100610000548435C201EA4F10106B4B2F0D143EAC0
:10062000052070BD460200206651000870B50146E5
:1006300000234D7D002203E0D01C085C0344521CC3
:10064000122AF9DB642093FBF0F600FB1630C4B2EB
:10065000AC4201D1012070BD0020FCE738B501217A
:10066000082001F0D3F84FF43040ADF8000003202B
:100670008DF8020010208DF803006946264800F02E
:100680002EF94FF48040ADF8000003208DF80200F1
:1006900004208DF8030069461F4800F020F94FF44C
:1006A00080511D4800F0F9F9002409E055201B494C
:1006B00001F8240041F2090001EB84014880641C28
:1006C000082CF3DB002403E0144802F097FC641CC0
:1006D000082CF9DB002409E05720104901F8240018
:1006E0004FF4607001EB84014880641C082CF3DB3C
:1006F0000A4802F083FC002408E00120074901F8C1
:100700002400002001EB84014880641C082CF4DBE9
:10071000024802F073FC38BD000C01406C0300205D
:1007200070B50546002405E0204600F013F8285572
:10073000601CC4B2082CF7DB70BD70B50546002400
:1007400005E0295D204600F033F8601CC4B2082C97
:10075000F7DB70BD70B50546082D1DD2DFE805F04A
:1007600004070A0D101316194FF4807415E04FF4A6
:10077000007412E04FF480640FE04FF400640CE06A
:100780004FF4805409E04FF4005406E04FF48044E5
:1007900003E04FF4004400E000BF00BF21460348DF
:1007A00000F070F90646304670BD0000001C0140A4
:1007B00070B505460E46082D1DD2DFE805F004078A
:1007C0000A0D101316194FF4807415E04FF40074DD
:1007D00012E04FF480640FE04FF400640CE04FF43B
:1007E000805409E04FF4005406E04FF4804403E0E5
:1007F0004FF4004400E000BF00BF26B92146044882
:1008000000F049F903E02146014800F046F970BDC7
:100810000018014010B51648007866280AD003DC9D
:1008200038B155281ED109E0772817D0882819D16A
:1008300010E017E00F4803F097FA13E00E4802F0BB
:10084000C3FF0E4B5A780E4BD9680E4B986800F0D8
:1008500069F907E00C4803F045F903E00B4802F0A2
:10086000E9FE00BF00BF00200149087010BD000074
:10087000ED000020210600207C050020180000204B
:100880002018002050180020E906002089060020CA
:1008900001B54FF47A70009901EBC101C9004FF026
:1008A000E02251610521116112E000BF4FF0E0210B
:1008B000096901F480310029F8D04FF0E02109697D
:1008C00021F480314FF0E0221161401E00B900E0B8
:1008D000EBE700BF04214FF0E022116108BD2DE9D4
:1008E000F0410246002500260020002300240027B6
:1008F00091F803C00CF00F0591F803C00CF0100C38
:10090000BCF1000F03D091F802C04CEA050591F844
:1009100000C0BCF1000F31D0146800202BE04FF074
:10092000010C0CFA00F3B1F800C00CEA03069E4279
:1009300020D183004FF00F0C0CFA03F7BC4305FAEB
:1009400003FC4CEA040491F803C0BCF1280F06D163
:100950004FF0010C0CFA00FCC2F814C00AE091F848
:1009600003C0BCF1480F05D14FF0010C0CFA00FC9C
:10097000C2F810C0401C0828D1D31460B1F800C0E0
:10098000BCF1FF0F34DD546800202EE000F1080CAC
:100990004FF0010808FA0CF3B1F800C00CEA0306A6
:1009A0009E4221D183004FF00F0C0CFA03F7BC4399
:1009B00005FA03FC4CEA040491F803C0BCF1280FCB
:1009C00005D100F1080C08FA0CF8C2F8148091F86F
:1009D00003C0BCF1480F07D100F1080C4FF001082B
:1009E00008FA0CF8C2F81080401C0828CED35460D6
:1009F000BDE8F081F0B50A4600230024002100255F
:100A000000F00046B6F1004F02D11D4EF16901E041
:100A10001B4E7168C0F3034583B200F44016B6F56F
:100A2000401F08D121F07061154E766826F070667F
:100A3000134F7E6012E000F48016B6F5801F06D1D9
:100A4000032606FA05F4A14341F0706106E0460D65
:100A5000360103FA06F6B14341F0706122B1460D4A
:100A6000360103FA06F6314300F00046B6F1004FB6
:100A700002D1034EF16101E0014E7160F0BD000052
:100A8000000001400246002093680B400BB101209A
:100A900000E000207047416170470161704700002D
:100AA0001A48007801282FD1194800791849C978C7
:100AB00001EBC10202EB011100EB81001549088036
:100AC000134880791249497901EBC10202EB011107
:100AD00000EB8100104908800D48007A0C49C97963
:100AE00001EBC10202EB011100EB81000B49088010
:100AF0000748007B0649C97A01EBC10202EB0111EC
:100B000000EB81000649088070470000F9000020D2
:100B1000B2170020AC010020AE010020B00100207F
:100B2000B401002010B5054B1860054B1960054B4A
:100B30001A700123044C237010BD0000980100209E
:100B4000A80100205E0100206501002010B50121F0
:100B5000C02000F05BFE10BD08B510208DF803002A
:100B60004FF47F40ADF8000003208DF80200694685
:100B70000848FFF7B4FE04208DF803004FF47F40CF
:100B8000ADF8000003208DF8020069460248FFF727
:100B9000A6FE08BD00180140001C014010B5FFF77B
:100BA000D5FFFFF7D9FF10BD10B545F2555000F045
:100BB00029F8062000F01AF840F21A6000F01CF83C
:100BC00000F00CF800F002F810BD00004CF6CC402C
:100BD0000149086070470000003000404AF6AA2032
:100BE000014908607047000000300040014948603A
:100BF00070470000003000400149886070470000E5
:100C0000003000400149086070470000003000409B
:100C100010B50548FFF784FD044801F05FF804486B
:100C2000FFF78CFB10BD00001800002050180020BA
:100C300020180020FEB505460E46681C054606280D
:100C400023D2DFE800F022030910161C254C0121F5
:100C5000C80200F0DBFD19E04FF080440121084696
:100C600000F0B4FD12E0204C0121022000F0AEFDA6
:100C70000CE01E4C0121042000F0A8FD06E01C4CF5
:100C80000121082000F0A2FD00E000BF00BF2046C7
:100C900001F0FEF93146174804F0E2F8074604F087
:100CA0005BF880B2ADF8040048F69F40ADF8000054
:100CB0000020ADF80600ADF802008DF80800694686
:100CC000204601F0F5FA0121204601F0CFF901227A
:100CD0001146204601F0E1FA0021204601F0CCF94E
:100CE000FEBD0000002C0140000400400008004050
:100CF000000C00400000FA4470B55C4840795B4944
:100D0000097940EA01205A4908805A480088098830
:100D1000084464287EDA55480078574908705348DB
:100D20004078487052490888C11700EB5171CD10C6
:100D30004F490888C11700EB5171C910A0EBC101E0
:100D400009B1681C85B24C498D70002461E0E1173F
:100D500004EB5171C910A4EBC10141B90022204636
:100D6000E11704EB5171C910C91C434B5A54E117E8
:100D700004EB5171C910C91C3F4A515C4A1020460E
:100D8000E11704EB5171C910C91C3B4B5A54E117D0
:100D900004EB5171C910C91C1A46515C354A1288BE
:100DA0002244364B53F822201268802303EAC212F1
:100DB0001143E21704EB5272D210D21C2E4B9954FD
:100DC0002B480088401EA04221D129490888C1171C
:100DD00000EB5171C910A0EBC101C1B1E21704EBE6
:100DE0005272D210D21C9A5C214B1988CB1701EB9E
:100DF0005373DB10A1EBC303C3F108031A41204670
:100E0000E31704EB5373DB10DB1C1B4EF254601C26
:100E100084B200E01AE016480088844297DBE81CA0
:100E200081B21548FFF7E6FB15490880084600889F
:100E3000010A114AE81C115411480178281D115467
:100E4000681DC1B2104600F069FE0EE00748007848
:100E5000094908700548407840F080004870022039
:100E600088700321044800F059FE70BD90180020DE
:100E7000420200204002002010190020201B002008
:100E80004402002070B55C4840795B49097940EA2A
:100E900001205A4908805A48008809880844642873
:100EA0007EDA5548007857490870534840784870B2
:100EB00052490888C11700EB5171CD104F4908887D
:100EC000C11700EB5171C910A0EBC10109B1681C39
:100ED00085B24C498D70002461E0E11704EB51713B
:100EE000C910A4EBC10141B900222046E11704EB6F
:100EF0005171C910C91C434B5A54E11704EB51718D
:100F0000C910C91C3F4A515C4A102046E11704EB46
:100F10005171C910C91C3B4B5A54E11704EB517174
:100F2000C910C91C1A46515C354A12882244364BF6
:100F300053F822201268802303EAC2121143E217F9
:100F400004EB5272D210D21C2E4B99542B480088BD
:100F5000401EA04221D129490888C11700EB5171D8
:100F6000C910A0EBC101C1B1E21704EB5272D2105B
:100F7000D21C9A5C214B1988CB1701EB5373DB1001
:100F8000A1EBC303C3F108031A412046E31704EBA6
:100F90005373DB10DB1C1B4EF254601C84B200E068
:100FA0001AE016480088844297DBE81C81B2154895
:100FB000FFF720FB1549088008460088010A114AFE
:100FC000E81C115411480178281D1154681DC1B244
:100FD000104600F0A3FD0EE00748007809490870AC
:100FE0000548407840F08000487002208870032156
:100FF000044800F093FD70BD9018002042020020CC
:101000004002002010190020901900204402002006
:1010100010B5394840793849097940EA0120374903
:1010200008803748008809880844B0F57A7F53DA89
:1010300031480078334908702F48407848702F486D
:1010400000784006000E8870002419E02C480088C3
:1010500020442D4951F820000088000A032101EBAB
:101060004401284A5054264800882044264951F813
:1010700020000078042101EB44015054601CC4B2EC
:101080001E4800888442E1DB1C480088032202EBF2
:10109000400081B21B48FFF7ADFA1C4908800846A2
:1010A0000088010A15480088032202EB4000154A17
:1010B00011541648017811480088042202EB4000C0
:1010C000104A11540D480078052202EB4000C1B2CD
:1010D0000C4800F023FD0EE007480078094908702D
:1010E0000548407840F08000487002208870032155
:1010F000044800F013FD10BD9018002042020020AB
:101100004002002010190020B01C002044020020E2
:1011100010B52848008864283CDA27480079FF2861
:1011200003D025484079FF2807D101202349214ACF
:10113000128851F82210086006E000201F491D4A5D
:10114000128851F8221008601B4800781C4908706A
:101150001948407848701848807888701648C078D8
:10116000C870154800790871134840794871062104
:101170001348FFF73FFA1349088008460088000A21
:101180000F4988710F480078C87108210C4800F099
:10119000C5FC0EE008480078094908700648407808
:1011A00040F080004870022088700321044800F05D
:1011B000B5FC10BD4002002090180020201B00202C
:1011C000101900204402002010B51F4800790002C9
:1011D0001E491F4A128851F8221008801B481C49DA
:1011E000098850F8210000881749497908431749B0
:1011F000174A128851F822100880134800781549C0
:1012000008701148407848700F48807888700E4800
:10121000C078C8700C48007908710B484079487153
:1012200006210C48FFF7E6F90B49088008460088BC
:10123000000A0849887108480078C87108210548E3
:1012400000F06CFC10BD000090180020B01C0020C5
:1012500040020020101900204402002010B53B4835
:1012600040793A49097940EA0120394908803948EA
:10127000008809880844642858DA00242CE0E11723
:1012800004EB5171C910C91D304A515C01F00101D4
:1012900041B101202F49098821442F4A52F82110D9
:1012A000086007E000202B49098821442A4A52F8A7
:1012B00021100860E11704EB5171C910C91D234AC0
:1012C000515C4A102046E11704EB5171C910C91D49
:1012D0001E4B5A54601C84B21D4800888442CEDBE9
:1012E0001A4800781D490870184840784870174817
:1012F000807888701548C078C870144800790871E3
:1013000012484079487106211448FFF773F91449CF
:10131000088008460088000A104988711048007843
:10132000C87108210D4800F0F9FB0EE0074800786D
:101330000A4908700548407840F080004870022053
:1013400088700321054800F0E9FB10BD90180020CB
:101350004202002040020020201B00201019002023
:101360004402002010B5374840793649097940EAEF
:101370000120354908803548008809880844B0F5BF
:101380007A7F4EDA002422E0072000EB44002D494A
:10139000085C00022D49098821442D4A52F8211089
:1013A00008802A4800882044114651F8200000880F
:1013B000082101EB4401234A515C08432349098871
:1013C0002144234A52F821100880601CC4B21E48F0
:1013D00000888442D8DB1B4800781E4908701948F1
:1013E000407848701748807888701648C078C87070
:1013F000144800790871134840794871062115484E
:10140000FFF7F8F81449088008460088000A1149D7
:10141000887111480078C87108210E4800F07EFBE1
:101420000EE0084800780B4908700648407840F004
:1014300080004870022088700321064800F06EFB8F
:1014400010BD000090180020420200204002002041
:10145000B01C002010190020440200201E481F4923
:101460000860001F4860001F88601D48C8601D4854
:101470001D490860001D48601C481D4908601D4842
:1014800048601D4888601D48C8601D4808611D48A7
:1014900048611D4888611D48C8611D4808621D4893
:1014A00048621D4888621D48C8621D4888641D48FE
:1014B000C8641D4808651D4848651D4888651D4865
:1014C000C8651D4808661D4848661D48C1F880006B
:1014D0001C48C1F884007047100123429019002075
:1014E00000012142A4812342201B0020B0010020E2
:1014F000B01C0020B2010020B40100203200002006
:1015000034000020AC010020AE0100203A00002091
:101510003C0000203800002036000020760100202A
:101520007401002068010020780100207A01002069
:101530007C01002080010020820100208401002025
:1015400086010020880100200020704710B500248B
:101550000EE0E0B20021FEF7EFFF0120FFF798F95F
:10156000E0B20021FFF724F90120FFF791F9641C94
:10157000082CEEDB10BD10B50024FFF7E5FF044694
:101580000CB1204610BD4FF081410220FEF7D4FF80
:101590000120FFF77DF90020F4E710B50024FFF7E4
:1015A000D3FF04460CB1204610BD00210220FEF7F7
:1015B000C3FF00210720FEF7BFFF00210420FEF734
:1015C000BBFF00210320FEF7B7FF0020ECE708B5C2
:1015D00000214FF0006000F09BF84FF4407000F0E5
:1015E0008DF825208DF8000000208DF801000120E5
:1015F0008DF80300684600F049F826208DF80000B9
:1016000001208DF801008DF80300684600F03EF8D7
:1016100019208DF8000002208DF8010001208DF8BE
:101620000300684600F032F81C208DF8000003200B
:101630008DF8010001208DF80300684600F026F8BF
:101640001D208DF8000004208DF8010001208DF888
:101650000300684600F01AF81E208DF800000520EF
:101660008DF8010001208DF80300684600F00EF8A7
:1016700032208DF8000006208DF8010001208DF841
:101680000300684600F002F808BD000070B50021B4
:1016900000230F22C47804B3154C246804F4E064DA
:1016A000C4F5E064210AC1F10403CA40447804FA95
:1016B00003F184781440214309010E4C0678A155AA
:1016C000047804F01F050124AC4005786D11AD00CD
:1016D00005F1E025C5F8004109E0047804F01F0594
:1016E0000124AC40044D0678761145F8264070BDC3
:1016F0000CED00E000E400E080E100E0024901437D
:10170000024A1160704700000000FA050CED00E08D
:10171000024A0A400243024B1A60704780FFFF1FD3
:1017200008ED00E010B50024FFF70EFF04460CB1F1
:10173000204610BD104801680220FEF7FDFE0F484C
:1017400001880F480088401D81420ADB4FF082412A
:101750000420FEF7F1FE4FF082410320FEF7ECFE7D
:1017600007E000210420FEF7E7FE00210320FEF73A
:10177000E3FE0020DDE70000E0010020B0010020D2
:10178000B2010020F0B50C46059D014601EB810633
:101790000D4F3F6807EBC606F46001EB81060A4F68
:1017A0003F6807EBC606326101EB8106064F3F68D2
:1017B00007EBC606736101EB8106034F3F6807EB39
:1017C000C6063562F0BD00001400002029B1064AAB
:1017D000D2690243044BDA6104E0034AD2698243CE
:1017E000014BDA61704700000010024029B1064A3F
:1017F00012690243044B1A6104E0034A12698243EE
:10180000014B1A61704700000010024029B1064ADE
:1018100092690243044B9A6104E0034A926982434D
:10182000014B9A61704700000010024029B1064A3E
:10183000D2680243044BDA6004E0034AD268824370
:10184000014BDA60704700000010024010B500F054
:1018500029F84FF4803000F0E7F800F043F904462F
:10186000012C1ED1002000F0D3F8002000F00EF96A
:10187000A00200F0FFF84FF4E011200400F018F986
:10188000012000F00FF900BF392000F09BF800287C
:10189000FAD0022000F01AF900BF00F0B1F80828D1
:1018A000FBD110BD0F48006840F001000D490860F1
:1018B000084640680C4908400A49486008460068E4
:1018C0000A490840074908600846006820F480205B
:1018D00008600846406820F4FE0048604FF41F008E
:1018E00088607047001002400000FFF8FFFFF6FE1E
:1018F00030B500210022002400232D4D6D6805F035
:101900000C0121B1042905D0082923D105E0294D76
:10191000056022E0274D05601FE0254D6D6805F448
:101920007012234D6D6805F48034022505EB924258
:101930001CB9214D554305600BE01D4D6D6805F444
:1019400000351DB11C4D5543056002E0194D55434E
:10195000056002E0174D056000BF00BF144D6D68C3
:1019600005F0F0010909154D6B5C0568DD40456027
:101970000F4D6D6805F4E061090A104D6B5C456818
:10198000DD4085600A4D6D6805F46051C90A0B4D54
:101990006B5C4568DD40C560054D6D6805F44041F0
:1019A000890B074D6B5CC568B5FBF3F5056130BD70
:1019B0000010024000127A0000093D0000000020E3
:1019C0001000002010B501460022002300204A111B
:1019D000012A02D1094C236806E0022A02D1074CF1
:1019E000236A01E0054C636A01F01F020124944060
:1019F0001C400CB1012000E0002010BD001002408E
:101A00000248406800F00C007047000000100240DF
:101A100001460020034A506820F0F000084350605F
:101A200070470000001002401149096821F480311C
:101A30000F4A11601146096821F480211160B0F548
:101A4000803F03D0B0F5802F0ED106E00849096829
:101A500041F48031064A116007E00549096841F404
:101A6000A021034A116000E000BF00BF70470000E2
:101A70000010024001460020034A506820F4E06054
:101A800008435060704700000010024001460020EB
:101A9000034A506820F4605040EAC100506070472B
:101AA00000100240014908667047000000004242F1
:101AB00002460020044B586820F47C1042EA0103DF
:101AC0001843014B58607047001002400146002047
:101AD000034A506820F0030008435060704700003C
:101AE0000010024038B5002000900024002500BFFF
:101AF0003120FFF767FF05460098401C00900098D2
:101B0000B0F5A06F01D0002DF2D03120FFF75AFFC1
:101B100008B1012400E00024204638BD70B5054618
:101B20000E4600200D49086000240CE000BF802113
:101B30000B4800F0FDFE0028F9D0295D084800F0B0
:101B4000C4FF601CC4B2B442F0DB00BF40210448B3
:101B500000F0EEFE0028F9D070BD0000A001214287
:101B60000038014010B55648007801287ED155480C
:101B70000078652869D153484078012817D051482A
:101B80004078022813D04F48407803280FD04D48A2
:101B9000407805280BD04B484078062807D04948A4
:101BA00040780F2803D047484078102870D1454826
:101BB000C0784449897840EA0120434908800846B2
:101BC0000088B0F57A7F52DA40480088801E81B2E2
:101BD0003C48FEF70FFD3E4908803C480088401E07
:101BE0003849095C39480088801E364A105C41EA51
:101BF000002437480088A04228D1104640780528A4
:101C000014D006DC01280BD002280CD003281CD1EC
:101C100012E0062813D00F280BD0102815D111E0A0
:101C2000FFF76AF811E0FFF72DF90EE0FFF770FA01
:101C30000BE0FFF713FB08E0FFF7EAF905E0FFF719
:101C4000C3FA02E0FFF78EFB00BF30E01D480078CA
:101C5000204908701B48407840F0800048700420FC
:101C6000887003211B48FFF759FF20E027E0154843
:101C70000078184908701348407840F08000487098
:101C80000220887003211348FFF748FF0FE0FFE7A9
:101C90000C4800780F4908700A48407840F08000EE
:101CA00048700120887003210A48FFF737FF0020A1
:101CB000034908700549088001200749086010BDE4
:101CC0001E02002090180020400200201C0200206C
:101CD0004402002010190020A00121422DE9F04704
:101CE000814601F0B8F9DFF860A080211748FEF7BF
:101CF000D2FE01F0B0F9002408E01549085D01F0BA
:101D0000B9FE0AF8040001F0A6F9641C142CF4D3FF
:101D100080210E48FEF7C1FE002411E00A49891C0B
:101D200001EB8401086802F036FC07460022094BEB
:101D300002F0ACFA054602F0C3F949F82400641C2D
:101D4000042CEBDBBDE8F0878C030020000C014085
:101D50005A51000800408F4008B501210802FFF7E2
:101D600055FD01210820FFF751FD4FF42040ADF84B
:101D7000000003208DF8020010208DF80300694652
:101D80001748FEF7ACFD4FF48040ADF8000003208B
:101D90008DF8020048208DF8030069461048FEF7D0
:101DA0009EFD4FF4C070ADF8000003208DF80200D6
:101DB00010208DF8030069460A48FEF790FD4FF4A5
:101DC00000510748FEF767FE01F045F980210548FC
:101DD000FEF763FE4FF480710248FEF75EFE08BD19
:101DE00000200140000C014010B500F001F810BDCA
:101DF0000CB50020019000903348006840F480301A
:101E00003149086000BF3048006800F4003000909D
:101E10000198401C0190009818B90198B0F5A06F86
:101E2000F1D12948006800F4003010B10120009081
:101E300001E0002000900098012843D12348006869
:101E400040F01000214908600846006820F00300B7
:101E500008600846006840F0020008601A484068C0
:101E6000194948600846406848600846406840F4A0
:101E7000806048600846406820F47C10486008464E
:101E8000406840F4E81048600846006840F0807000
:101E9000086000BF0C48006800F000700028F9D00E
:101EA0000948406820F00300074948600846406838
:101EB00040F00200486000BF0348406800F00C009A
:101EC0000828F9D10CBD000000100240002002409B
:101ED00010B51348006840F0010011490860084639
:101EE0004068104908400E494860084600680E499D
:101EF00008400B4908600846006820F4802008600C
:101F00000846406820F4FE0048604FF41F008860D7
:101F1000FFF76AFF4FF000600449086010BD000041
:101F2000001002400000FFF8FFFFF6FE08ED00E0A1
:101F300010B50121094800F09FF968B10121074857
:101F400000F097F80021054800F096F800200449B9
:101F5000086001200349087010BD0000002C0140FA
:101F6000A00121421E02002010B50121880700F0C7
:101F700083F9B0B10D48007870B90D480068401E73
:101F80000B4908600846006858B90A4800F068FA2A
:101F900003200749086004E003200549086000F0B9
:101FA000D9F90121880700F064F810BDF90000207C
:101FB00024020020CA17002010B50121114800F0AA
:101FC0005BF9C8B11048007888B910480068401E15
:101FD0000E4908600846006870B90D4801F0F4FB2E
:101FE0000C4801F027FB03200849086004E00320A7
:101FF00006490860FEF70EFC0121024800F039F89E
:1020000010BD000000040040ED0000202C02002064
:102010007C0500208906002010B501210E4800F043
:102020002BF9C0B101210C4800F023F80B480088BF
:1020300002F0CEFE044600F0F1FE094908600948AE
:10204000008840B90848008802F0C2FE044600F04B
:10205000E5FE0349086010BD00080040B201002001
:10206000E00100203A00002082010020CA430282E1
:102070007047CA430282704721B1028842F00102D0
:10208000028004E002884FF6FE731A400280704717
:1020900010B504466848844208D10121C014FFF7F6
:1020A000C5FB0021E014FFF7C1FBC4E0B4F1804F91
:1020B00008D101210846FFF799FB00210120FFF715
:1020C00095FBB8E05D48844208D101210220FFF76A
:1020D0008DFB00210220FFF789FBACE058488442C9
:1020E00008D101210420FFF781FB00210420FFF724
:1020F0007DFBA0E05348844208D101210820FFF76E
:1021000075FB00210820FFF771FB94E04E488442E4
:1021100008D101211020FFF769FB00211020FFF7F3
:1021200065FB88E04948844208D101212020FFF75F
:102130005DFB00212020FFF759FB7CE044488442EE
:1021400008D101214014FFF771FB00216014FFF753
:102150006DFB70E03F48844209D10121C804FFF7BC
:1021600065FB00214FF40020FFF760FB63E03A4875
:10217000844209D101210805FFF758FB00214FF4E3
:102180008010FFF753FB56E03448844209D1012107
:102190004805FFF74BFB00214FF40010FFF746FB0B
:1021A00049E02F48844208D101214020FFF71EFB5F
:1021B00000214020FFF71AFB3DE02A48844208D165
:1021C00001218020FFF712FB00218020FFF70EFB8A
:1021D00031E02548844208D101218015FFF706FB34
:1021E0000021A015FFF702FB25E02048844209D119
:1021F00001210804FFF71AFB00214FF48030FFF79C
:1022000015FB18E01A48844209D101214804FFF760
:102210000DFB00214FF40030FFF708FB0BE01548E1
:10222000844208D101218804FFF700FB00214FF40C
:102230008020FFF7FBFA10BD002C01400004004095
:1022400000080040000C0040001000400014004056
:1022500000340140004C0140005001400054014056
:1022600000180040001C00400020004000400140D9
:10227000004401400048014030B5024600200023E0
:102280000024158A05EA0103958905EA010413B1C2
:102290000CB1012000E0002030BD1AB183890B434E
:1022A000838102E083898B438381704781847047F7
:1022B000002202881D4B98420ED01D4B98420BD035
:1022C000B0F1804F08D01B4B984205D01A4B984272
:1022D00002D01A4B984204D14FF68F731A404B88A4
:1022E0001A43174B984207D0164B984204D04FF62A
:1022F000FF431A40CB881A4302808B8883850B8862
:1023000003850A4B98420BD0094B984208D00E4BDC
:10231000984205D00D4B984202D00D4B984201D106
:102320000B7A03860123838270470000002C014052
:10233000003401400004004000080040000C004050
:1023400000100040001400400040014000440140E3
:102350000048014010B50F480078052814D2DFE886
:1023600000F003040A0B0F000FE00B4800F078F8B0
:10237000FEF796FB09E008E001200849087004E038
:1023800000200649087000E000BF00BF002001499E
:10239000087010BDF9000020CA1700205D01002060
:1023A00030B5044600252046FEF740F9054655B1F4
:1023B0002078552802D06078662802D1A078034999
:1023C0000870012030BD0020FCE70000F90000206B
:1023D0002DE9F04107468846144600255522284637
:1023E0006D1C2254662228466D1C22541A4802781D
:1023F00028466D1C225419490888C11700EB116149
:10240000C1F3072329466D1C635414490888C1177A
:1024100000EB11610912A0EB0121CBB229466D1C22
:102420006354002605E018F8062028466D1C225447
:10243000761CBE42F7DB4146384600F093FD294644
:102440006D1C6054662228466D1C22545522284675
:102450006D1C2254BDE8F081F9000020B20100207B
:1024600070B5054600263648FDF768FF00242DE0CC
:10247000344901EBC403324951F82400D3E9001276
:1024800000F0F4FD304941F8240051F8240000F038
:1024900047FE3146761C68542B4951F8240000F061
:1024A00056FE3146761C6854274951F8240000F046
:1024B000F3FD01463046761C2954234951F8240087
:1024C00000F00EFE3146761C6854641C052CCFDBF0
:1024D0001E48FFF703FC002421E01C4951F82400AA
:1024E00000F01EFE3146761C6854184951F824004D
:1024F00000F02DFE3146761C6854144951F8240032
:1025000000F0CAFD01463046761C29540F4951F8A7
:10251000240000F0E5FD3146761C6854641C032C51
:10252000DBDB0B48FEF7FCF8094802783046761CE6
:102530002A54074842783046761C2A5470BD000061
:10254000E004002088000020B004002010050020D6
:10255000180000200EB501210846FFF737F94FF0AB
:102560008040FFF795FD4FF4FA60ADF8040048F69F
:102570009F40ADF800000020ADF80600ADF8020065
:1025800069464FF08040FFF793FE01218807FFF76F
:102590006DFD012211469007FFF77FFE012188079C
:1025A000FFF76AFD0EBD00000EB501210420FFF704
:1025B0000DF91248FFF76CFD47F23050ADF80400FA
:1025C00048F69F40ADF800000020ADF80600ADF8D9
:1025D00002008DF8080069460848FFF769FE0121EE
:1025E0000648FFF743FD012211460448FFF755FE58
:1025F00001210248FFF740FD0EBD00000008004029
:102600000EB50121C802FFF701F91148FFF740FD9F
:102610001420ADF8040041F61F40ADF80000002082
:10262000ADF80600ADF802008DF8080069460848CC
:10263000FFF73EFE01210648FFF718FD0122114673
:102640000348FFF72AFE01210148FFF715FD0EBDE3
:10265000002C014070B540F22551164800F075F984
:1026600038B30721134800F063F908B1012400E0F2
:102670000024104800F024FAC5B20F48008840F248
:10268000FF71884215DAA4B90C480B4909884554F2
:1026900009480088401C0849088001210848FFF7C4
:1026A000E8FC00210648FFF701FE01210448FFF77E
:1026B000E3FC70BD003801401C020020901800208F
:1026C000002C014070B5002500260821534800F079
:1026D0002FF938B1514800F0E5FA044608214F4877
:1026E00000F0BDF804214D4800F022F918B1042192
:1026F0004A4800F0ABF80221484800F019F918B137
:102700000221464800F0A2F80121444800F010F9E7
:1027100018B10121414800F099F840F225513F4895
:1027200000F013F9002860D040F225513B4800F03A
:1027300096F83A4800F0B6FA04463948016800684D
:10274000401C374A10603748445410460068182827
:1027500008D13448807D662804D13248C07D552890
:1027600000D10125002D40D000252D4800682E49BC
:10277000086000202A4908602A48FDF757FF0646EE
:102780003EB32848FFF70CFE2848007801280CD1FA
:10279000274A28491020FFF71BFE00202649086021
:1027A0002349182000F0A8F91FE0204800780228EB
:1027B00004D12249182000F09FF916E01B48007848
:1027C000032807D101201E4908701E49182000F077
:1027D00093F90AE015480078042806D1002018492A
:1027E00008701949182000F087F940F227710B484A
:1027F00000F0ABF880B140F22771084800F02FF8E4
:102800000A20FEF745F801200B490860002240F23B
:102810002771024800F0C3F870BD0000004400407A
:1028200028020020B2170020F4000020F900002048
:10283000EA160020CA1700209C81224212010020C3
:102840005D0100202A0100204201002001F40072F5
:10285000B2F5007F00D100BFCA430280704710B5B7
:102860000022002340F66A14A14200D100BF0A12E0
:1028700001249440A3B2DC43048010BD21B18289BD
:1028800042F40052828104E082894DF6FF731A40BF
:102890008281704710B504462048844209D1012145
:1028A0008803FEF7C3FF00214FF48040FEF7BEFF10
:1028B00032E01B48844209D101214804FEF796FF0B
:1028C00000214FF40030FEF791FF25E015488442C7
:1028D00009D101218804FEF789FF00214FF48020EF
:1028E000FEF784FF18E01048844209D10121C80492
:1028F000FEF77CFF00214FF40020FEF777FF0BE08E
:102900000A48844208D101210805FEF76FFF002123
:102910004FF48010FEF76AFF10BD00000038014040
:102920000044004000480040004C0040005000407F
:1029300002460020B1F5007F00D100BF13880B4094
:102940000BB1012000E00020704770B50246002462
:1029500000230025002040F66A16B14200D100BFD6
:10296000C1F3421501F01F03012606FA03F3012DFE
:1029700002D19689334006E0022D02D1168A3340F7
:1029800001E0968A33400C12012606FA04F41688F8
:10299000344013B10CB1012000E0002070BDF0B54F
:1029A0000346002400260025002040F66A17B9429D
:1029B00000D100BF1846C1F3421401F01F060127E1
:1029C00007FA06F5012C01D10C3004E0022C01D1EC
:1029D000103000E014301AB107682F43076002E09E
:1029E0000768AF430760F0BD2DE9F04786B00546A4
:1029F0000E460024A24600BFA1460027B08900B1C0
:102A000000BF2F462C8A4CF6FF700440F088044328
:102A10002C82AC894EF6F3100440B088318908430B
:102A2000718908430443AC81AC8A4FF6FF400440EF
:102A3000B0890443AC8201A8FEF75AFF1F488742C1
:102A400002D1DDF810A001E0DDF80CA0A88900F4A7
:102A5000004040B10AEBCA0000EB0A10316849009F
:102A6000B0FBF1F807E00AEBCA0000EB0A1031688E
:102A70008900B0FBF1F86420B8FBF0F004012009F4
:102A8000642101FB1089A88900F4004040B1322084
:102A900000EBC900B0FBF1F000F00700044308E0D0
:102AA000322000EB09106421B0FBF1F000F00F00C0
:102AB00004432C8106B0BDE8F087000000380140D7
:102AC00001468888C0F308007047C1F3080282807D
:102AD0007047000010B50024FEF736FD04460CB127
:102AE000204610BD034801680220FDF725FD0020A7
:102AF000F7E70000E001002070B505460E4600240F
:102B000003E0305D00F0DCF8641CAC42F9DB70BD22
:102B100000B585B001210520FEF778FE012188036C
:102B2000FEF774FE01212120FEF770FE012148040A
:102B3000FEF74CFE01210820FDF75CFF10208DF808
:102B400013000001ADF8100003208DF8120004A955
:102B50004E48FDF7C4FE18208DF813004FF40070A6
:102B6000ADF8100003208DF8120004A94748FDF7C6
:102B7000B6FE04208DF813000002ADF8100003200B
:102B80008DF8120004A94148FDF7A9FE18208DF820
:102B900013002020ADF8100003208DF8120004A9C6
:102BA0003B48FDF79CFE04208DF813004020ADF853
:102BB000100003208DF8120004A93548FDF78FFEA0
:102BC00010208DF813008020ADF8100003208DF840
:102BD000120004A92E48FDF782FE01202D4908604D
:102BE0002D49C1F89C012D48FFF754FE2C48FFF7F2
:102BF00051FE4FF4964000900020ADF80600ADF86D
:102C00000400ADF80800ADF80C000C20ADF80A0087
:102C100069462248FFF7E8FE4FF4165000906946D7
:102C20001F48FFF7E1FE40211C48FFF70FFE01227D
:102C300040F225511948FFF7B2FE0122282117481A
:102C4000FFF7ADFE012260211448FFF7A8FE012125
:102C50001248FFF713FE40211148FFF7F7FD01224C
:102C600040F225510E48FFF79AFE012228210C4818
:102C7000FFF795FE012260210948FFF790FE012130
:102C80000748FFF7FBFD05B000BD0000000801404C
:102C900000140140A001214200802242003801407E
:102CA0000044004070B504462046FFF709FFC5B256
:102CB000284670BD10B5FEF78AFCFFF729FF10BD4E
:102CC00010B504460020084908600C20FDF7E0FD1F
:102CD000012240F227710548FFF761FE21460348B3
:102CE000FFF7F3FE10BD00009C812242004400402B
:102CF0002DE9F0413548008800EB80004FF6FF7168
:102D000001EA4000324908803248008800EB800028
:102D10004FF6FF7101EA40002F4908802F480088D4
:102D200000EB80004FF6FF7101EA40002C4908805B
:102D30004FF416702B4908802B4988682B4902F004
:102D40008FF8804601F0ACFE06460022284B01F0C9
:102D5000E9F9044601F0F2FB26490880264800887C
:102D60002649088026480088264908802648007899
:102D700025494978084300EB80004000234908803A
:102D80002349C86A194902F06BF8804601F088FEB1
:102D900006460022164B01F0C5F9044601F0CEFBB1
:102DA0001C4908801A49C868104902F059F80446BD
:102DB00001F0EEFF1849088015490B20FDF7FEFAD7
:102DC00013490320FDF7FAFABDE8F081B0010020B5
:102DD0002C000020B20100202E000020B4010020B1
:102DE0003000002032000020501800200000204158
:102DF0000000E03F34000020AC010020280000204B
:102E0000AE0100202A000020180000203A00002017
:102E10006018002038000020360000202DE9F0471F
:102E20000446294D2948C06A2949086008460068B7
:102E300001F036FE06460022264B01F011FD02D2BB
:102E40002846234908602448008801F0C1FF06464F
:102E5000214602F002F921490860214948681F49CA
:102E6000096801F0FDFF81461D488168484601F070
:102E7000F7FF07461A4908681849096801F0F0FF8A
:102E80008046394601F038FE064611480168304652
:102E900002F0E3F80546284601F002FE064600224D
:102EA000134601F0A3FB01D2002509E0284601F0FA
:102EB000F7FD06460022074B01F0D2FC00D8024D78
:102EC0002846BDE8F087000000002041601800207F
:102ED000E401002000002440B0010020D0010020C7
:102EE000EC01002070B50446002520211C48FDF7A8
:102EF000D2FD00262FE06806050E04F0800020B108
:102F000080211748FDF7C9FD03E080211448FDF733
:102F1000C2FD4FF4FA7000F095F820211048FDF73B
:102F2000BCFD4FF4FA7000F08DF820210C48FDF73D
:102F3000B2FD4FF4FA7000F085F840210848FDF723
:102F4000A1FD012800D100E0002008B145F00105F5
:102F50006006040E761C082ECDDB284670BD0000EE
:102F60000008014070B502460B460024002102E033
:102F70005D5C2C44491C9142FADB642594FBF5F618
:102F800005FB1645E8B270BD70B5044600254FF448
:102F900000411948FDF77FFD002628E06806050E70
:102FA00004F0800028B14FF400511348FDF775FD7F
:102FB00004E04FF400511048FDF76DFD4FF400415F
:102FC0000D48FDF76AFD4FF480410B48FDF75AFDAF
:102FD000012800D100E0002008B145F001054FF4C0
:102FE00000410548FDF757FD6006040E761C082ECB
:102FF000D4DB284670BD0000000C014070B50546CA
:103000004FF480510E48FDF746FD00240FE015F8FF
:103010002400FFF7B9FF05EB840149880812FFF788
:10302000B3FF05EB84018878FFF7AEFF641C082C22
:10303000EDDB4FF480510248FDF72FFD70BD00001D
:10304000000C0140002800DA002000BF011EA0F1A2
:103050000100FBD1704708B54FF4FA70009000BF33
:103060000098411E00910028FAD108BD37B50446EA
:103070002046019901F0F4FE0546029901F03CFD5D
:103080003EBD37B504462046029901F0F1FF0546E2
:10309000019901F09FFD3EBD70B504460025002159
:1030A000204601F0A9FE04D20B49204601F0D8FECB
:1030B00004460A49204601F0D3FE064601F04CFEC4
:1030C00042F2107190FBF1F201FB1200642190FBBF
:1030D000F1F0C5B2284670BD000080BF00401C461C
:1030E00070B5044600250021204601F085FE04D27B
:1030F0000949204601F0B4FE04460849204601F083
:10310000AFFE064601F028FE642190FBF1F201FBC0
:103110001200C5B2284670BD000080BF00401C46AA
:1031200070B506460025304601F016FE0446002C18
:1031300007DA6442642094FBF0F0C5B245F08005E4
:1031400003E0642094FBF0F0C5B2284670BD70B572
:1031500005460026284601F0FFFD0446002C00DA53
:103160006442642094FBF0F100FB1140C6B230468B
:1031700070BD0000FEF76AFBFDF710FDFDF7A4F837
:10318000FDF76CFAFEF7E8FDFFF794FDFFF738FA5C
:10319000FFF7E0F9FFF708FA4FF080410220FDF752
:1031A00049FDFDF735FDFDF7FFFCABE0FDF716FD32
:1031B000FFF79EFDFEF752F9FEF7D4FC5248008857
:1031C00078B35248007860BB4F480088642802DD1D
:1031D00064204D4908804C480088012802DA00200C
:1031E000494908804848008801F0ECF9054600226A
:1031F000474B01F04BF8074600F062FF04462146BA
:103200000220FDF799F94FF082410420FDF794F96F
:103210004FF082410320FDF78FF901203B490870F0
:103220004AE0FFE73848008898B938480078012814
:103230000FD100210220FDF77FF900210420FDF7C6
:103240007BF900210320FDF777F900202F49087052
:1032500032E02D48008878B32C48007801282BD123
:1032600029480088642802DD642027490880264810
:103270000088012802DA00202349088022480088BB
:1032800001F0A0F905460022214B00F0FFFF0746A0
:1032900000F016FF044621460220FDF74DF94FF0DD
:1032A00082410420FDF748F94FF082410320FDF7E9
:1032B00043F90120154908701648008840B10121E2
:1032C0000720FDF775FA012013490880134908709B
:1032D0001048008860B911480078012808D1002101
:1032E0000720FDF765FA00200B4908800B4908709C
:1032F0000848008820B90948007808B9FDF75AF94C
:1033000000F00EF852E70000780100207E01002056
:10331000000024407A0100207C0100207F01002071
:103320002DE9F041B3480078002863D1B248008805
:1033300030B9B248008818B9B1480088002859D07F
:10334000B048008868B3AF480088642802DD642074
:10335000AC490880AB480088012802DA0020A9495E
:103360000880A848008801F02DF905460022A64BE8
:1033700000F08CFF074600F0A3FE04462146022021
:10338000FDF7DAF84FF082410420FDF7D5F84FF051
:1033900082410320FDF7D0F801209C490870BDE868
:1033A000F0819848008898B99848007801280FD192
:1033B00000210220FDF7C0F800210420FDF7BCF831
:1033C00000210320FDF7B8F800209049087009E0BB
:1033D0008C48008830B98D48007818B9FEF7CBF8D2
:1033E0008B4908708A48007808B1FEF7AFF80120D1
:1033F000804908707F48007870B38248008858B3CD
:1034000080480088642802DD64207E4908807D4869
:103410000088012802DA00207A490880794800886B
:1034200001F0D0F805460022774B00F02FFF074649
:1034300000F046FE044621460220FDF77DF84FF0DD
:1034400082410420FDF778F84FF082410320FDF718
:1034500073F801206D49087066480078002868D02C
:1034600065480088002864D164480088002860D13D
:103470006348008800285CD16448007801282FD177
:103480006048008860B35F480088642802DD6420DB
:103490005C4908805B480088012802DA002059490D
:1034A00008805848008801F08DF805460022564BE8
:1034B00000F0ECFE074600F003FE04462146022021
:1034C000FDF73AF84FF082410420FDF735F84FF050
:1034D00082410320FDF730F801204C4908705EE777
:1034E0004848008898B94948007801280FD1002140
:1034F0000220FDF721F800210420FDF71DF800212E
:103500000320FDF719F800204049087009E03D4804
:10351000008830B93D48007818B9FEF73EF83C49BC
:1035200008703B48007808B1FEF710F800203149D8
:1035300008703048007860B33648008848B3334894
:10354000007830BB3448008868B93448008850B9E6
:103550003348008838B933490220FCF7EDFF0120D9
:103560003149087002E000202F4908702F48008878
:10357000FA2802D1E6202D4908802B48007840B96E
:10358000FEF7D0F8224908700846007808B1FDF728
:10359000DDFF1848007850B31E48008838BB1B4830
:1035A000007820BBFA2021490880214908801A4868
:1035B000008868B91948008850B91948008838B996
:1035C00018490220FCF7B8FF01201749087002E0F3
:1035D0000020154908701448007840B9FFF77AFABE
:1035E0000B4908700846007808B1FDF7AFFF00BF2F
:1035F000D5E600005F010020760100207401002064
:103600006801002078010020000024407E01002095
:10361000640100203A000020B0010020B401002025
:10362000AC0100200000204122020020B201002055
:10363000820100202DE9F041044600260025BBE070
:1036400005EB85015F4A02EBC101C868FFF768FD21
:103650003146761C605405EB85015A4A02EBC101E4
:10366000C868FFF774FD3146761C605405EB850190
:10367000544A02EBC101C868FFF70EFD3146761CC3
:10368000605405EB85014F4A02EBC101C868FFF7A2
:1036900027FD3146761C605405EB8501494A02EB53
:1036A000C1010869FFF73CFD3146761C605405EB0B
:1036B0008501444A02EBC1010869FFF748FD314624
:1036C000761C605405EB85013E4A02EBC101086996
:1036D000FFF7E2FC3146761C605405EB8501394A60
:1036E00002EBC1010869FFF7FBFC3146761C605410
:1036F00005EB8501334A02EBC1014869FFF710FD74
:103700003146761C605405EB85012E4A02EBC1015F
:103710004869FFF71CFD3146761C605405EB8501B6
:10372000284A02EBC1014869FFF7B6FC0146304662
:10373000761C215405EB8501224A02EBC101486940
:10374000FFF7CEFC3146761C605405EB85011D4A1F
:1037500002EBC101086AFFF7E3FC3146761C6054B6
:1037600005EB8501174A02EBC101086AFFF7EFFC80
:103770003146761C605405EB8501124A02EBC1010B
:10378000086AFFF789FC3146761C605405EB850119
:103790000C4A02EBC101086AFFF7A2FC0146304661
:1037A000761C2154002704E000223046761C225467
:1037B0007F1C082FF8DB6D1C042DFFF641AFBDE820
:1037C000F0810000A00300202DE9F041054600260D
:1037D00000279748FCF7B2FD00242CE0954901EB47
:1037E000C403934951F82400D3E90012FFF73EFCCB
:1037F000914941F8240051F82400FFF791FC31462B
:10380000761C68548C4951F82400FFF7A0FC31461F
:10381000761C6854884951F82400FFF73DFC314676
:10382000761C6854844951F82400FFF759FC31464E
:10383000761C6854641C0C2CD0DB8048FEF74EFAD2
:10384000002420E07D4951F82400FFF769FC31464F
:10385000761C6854794951F82400FFF778FC31460A
:10386000761C6854754951F82400FFF715FC314661
:10387000761C6854714951F82400FFF731FC314639
:10388000761C6854641C042CDCDB002407E06C48C4
:10389000005D012802D1A0403843C7B2641C082C47
:1038A000F5DB3046761C2F5400276648FCF756FDA2
:1038B00000242DE0644901EBC403624951F824005F
:1038C000D3E90012FFF7DDFB604941F8240051F80D
:1038D0002400FFF725FC3146761C68545B4951F8FB
:1038E0002400FFF734FC3146761C6854574951F8E0
:1038F0002400FFF7D1FB3146761C6854534951F838
:103900002400FFF7EDFB01463046761C2954641C69
:10391000082CCFDB4E48FCF703FF002407E04C489F
:10392000005D18B10120A0403843C7B2641C082CC8
:10393000F5DB3046761C2F5400274648FCF7FDFE89
:10394000002407E04348005D18B10120A04038433F
:10395000C7B2641C082CF5DB3046761C2F540027B8
:10396000002409E03C4904F10800085C012802D168
:10397000A0403843C7B2641C082CF3DB3046761CE9
:103980002F540027002407E03348005D012802D1AE
:10399000A0403843C7B2641C082CF5DB3046761CC7
:1039A0002F5400272D48008801F012FA2C49086096
:1039B0002C48008801F00CFA294948602A48008800
:1039C00001F006FA264988602848008801F000FACC
:1039D0002349C8602648008801F0FAF920490861A7
:1039E000002421E01E4951F82400FFF799FB01460D
:1039F0003046761C29541A4951F82400FFF7A7FBDA
:103A00003146761C6854164951F82400FFF744FBF0
:103A10003146761C6854124951F82400FFF760FBC8
:103A20003146761C6854641C102CDBDBBDE8F08149
:103A3000E004002088000020B004002010050020D1
:103A40003E00002040050020480000202005002006
:103A500018000020200000206C050020AC01002090
:103A600070040020AE010020B0010020B20100204F
:103A7000B401002070B50446002500262CE068063D
:103A8000050E4FF400511648FDF707F804F08000CA
:103A900028B14FF400411248FCF7FFFF04E04FF457
:103AA00000410F48FCF7F7FFFFF7D5FA4FF400513C
:103AB0000B48FCF7F0FFFFF7CEFA4FF480410848BF
:103AC000FCF7E0FF012800D100E0002008B145F03C
:103AD00001056006040E761C082ED0DB284670BD5A
:103AE000002001402DE9F04F97B0054600263046F2
:103AF000761C285C00F00F000C90002727E10024C2
:103B000019E03046761C285C15A908553046761C0D
:103B1000285C13A908553046761C285C11A9085565
:103B20003046761C285C0FA9085515A8005DC00911
:103B30000DA90855641C062CE3DB9DF83C0000F041
:103B400041FD0022854BCDE9040100F09FFBCDE94A
:103B500008019DF8440000F035FD0022804BCDE9BE
:103B6000000100F093FBCDE904019DF84C109DF895
:103B7000542002F07F0202EBC20303EB021201EBBE
:103B8000820000F008FDCDE90201DDE9042300F028
:103B9000C9FACDE90601DDE9082300F0C3FACDE951
:103BA0000A0100F08DFA80469DF83D0000F00AFD04
:103BB00000226A4BCDE9040100F068FBCDE9080161
:103BC0009DF8450000F0FEFC0022654BCDE90001A8
:103BD00000F05CFBCDE904019DF84D109DF85520E7
:103BE00002F07F0202EBC20303EB021201EB820040
:103BF00000F0D1FCCDE90201DDE9042300F092FAE6
:103C0000CDE90601DDE9082300F08CFACDE90A01CF
:103C100000F056FA81469DF83E0000F0D3FC0022E9
:103C20004E4BCDE9040100F031FBCDE908019DF8D0
:103C3000460000F0C7FC0022494BCDE9000100F02E
:103C400025FBCDE904019DF84E209DF8561001F0AA
:103C50007F0101EBC10303EB011102EB810000F0D6
:103C60009AFCCDE90201DDE9042300F05BFACDE91D
:103C70000601DDE9082300F055FACDE90A0100F05C
:103C80001FFA82469DF83F0000F09CFC0022334B57
:103C9000CDE9040100F0FAFACDE908019DF84700EA
:103CA00000F090FC00222E4BCDE9000100F0EEFA6E
:103CB000CDE904019DF84F109DF8572002F07F02D6
:103CC00002EBC20303EB021201EB820000F063FC83
:103CD000CDE90201DDE9042300F024FACDE9060173
:103CE000DDE9082300F01EFACDE90A0100F0E8F949
:103CF00083469DF8340020B11A49404601F0B0F8DF
:103D000080469DF8350020B11649484601F0A8F8D4
:103D100081469DF8360020B11249504601F0A0F8C6
:103D200082469DF8370020B10E49584601F098F8B8
:103D300083460C98384100F0010038B153464A469A
:103D400041463846CDF800B0FDF71CFD7F1C042F1E
:103D5000FFF6D5AE17B0BDE8F08F00000088C34075
:103D600000005940000080BF2DE9F04F91B005469A
:103D700000263046761C15F8009000240CE049FA25
:103D800004F000F0010018B10120C449085502E018
:103D90000020C2490855641C082CF0DB3046761C14
:103DA00015F80090002466E03046761C2F5C304603
:103DB000761C15F800A03046761C285C0E90304624
:103DC000761C285C0D9049FA04F000F001000028F0
:103DD00050D04FEAD71B0D9800F0F4FB0022B04BF7
:103DE000CDE9040100F052FACDE908010E9800F087
:103DF000E9FB0022AB4BCDE9000100F047FACDE929
:103E0000040107F07F0101EBC10202EB01110AEB93
:103E1000810000F0C0FBCDE90201DDE9042300F0E0
:103E200081F9CDE90601DDE9082300F07BF9CDE950
:103E30000A0100F045F98046BBF1000F04D09A4911
:103E4000404601F00DF88046984840F82480984894
:103E500000EBC4004168404601F00AF90B90944819
:103E600050F834100B9800F0B5FE0C90E0B20C99AD
:103E7000FCF762FB641C082C96DB3046761C15F8B8
:103E800000903046761C285C0F90002419E049FA17
:103E900004F000F0010098B10F98204100F00100FB
:103EA00038B1E0B20121FCF783FC012081490855BB
:103EB00006E0E0B20021FCF77BFC00207D490855BC
:103EC000641C082CE3DB3046761C15F800900024B7
:103ED00010E049FA04F000F0010028B10121764A0F
:103EE00004F10800115404E00021734A04F10800B1
:103EF0001154641C082CECDB3046761C15F800903D
:103F000000240CE049FA04F000F0010018B101208F
:103F10006949085502E0002067490855641C082CCF
:103F2000F0DB3046761C285C0F903046761C15F886
:103F30000090002452E03046761C2F5C3046761C00
:103F400015F800A03046761C285C0E903046761C92
:103F5000285C0D9049FA04F000F00100E8B34FEA44
:103F6000D71B0D9800F02EFB00224D4BCDE904012C
:103F700000F08CF9CDE908010E9800F023FB002237
:103F8000484BCDE9000100F081F9CDE9040107F0CB
:103F90007F0101EBC10202EB01110AEB810000F08D
:103FA000FAFACDE90201DDE9042300F0BBF8CDE91E
:103FB0000601DDE9082300F0B5F8CDE90A0100F0BB
:103FC0007FF88046BBF1000F04D03749404600F02F
:103FD00047FF8046394840F82480641C082CAADB3F
:103FE000002456E03046761C2F5C3046761C15F8CF
:103FF00000A03046761C285C0E903046761C285C6B
:104000000D900F98204100F00100E0B34FEAD71B5C
:104010000D9800F0D7FA0022214BCDE9040100F001
:1040200035F9CDE908010E9800F0CCFA00221D4BBD
:10403000CDE9000100F02AF9CDE9040107F07F0184
:1040400001EBC10202EB01110AEB810000F0A3FABF
:10405000CDE90201DDE9042300F064F8CDE90601B1
:10406000DDE9082300F05EF8CDE90A0100F028F848
:104070008046BBF1000F04D00B49404600F0F0FE33
:1040800080460E4900E003E004F1080041F820807A
:10409000641C082CA6DB11B0BDE8F08F3E000020A8
:1040A0000088C34000005940000080BF2005002068
:1040B00048000020200000206C0500207004002033
:1040C00021F00042A2F16052B2F5801F01F00043DE
:1040D00028BFD2F17F6C0BD95FEA001C43EAC20211
:1040E00042EB507018BF704728BF20F001007047A6
:1040F000B2F5801FBCBF184670474FEA410C1CF553
:10410000001F02D2084600F072BF70B500F054FBE9
:1041100000000089FFF7F6BF4FF00040A0F58000D7
:104120007047000010B591EA030F48BF83F00043C9
:1041300000F1D483841A71EB030C05D2121943EBFE
:104140000C03001B61EB0C01DFF824E14FEA115472
:10415000A4EB135C1EEA430F18BF9EEA445F73D0C2
:1041600023EA0E03DCF1200E21EA045143F480130C
:1041700032D322FA0CFE10EB0E0023FA0CFE41EBB8
:104180000E01CCF1200E03FA0EFE10EB0E0051F1E1
:104190000001B1F5801FCCF1200E32D201EB0451A9
:1041A00012FA0EF2BDE8104058BF7047401C38BFED
:1041B0005FEA420218BF7047002814BF20F00100D8
:1041C00041F100014FEA410313F5001F38BF70476A
:1041D000A1F1C04100F03EBB012A43EB0302ACF168
:1041E000200CDCF11F0E32BF4FF0000E23FA0CF34F
:1041F00010EB030041EB0451B4EB115FD0D0A1EB05
:10420000045101F5801149085FEA300001EB0451C7
:104210000ED350F1000038BF12FA0EFE08D1BDE8EF
:104220001040C9E7401C38BF5FEA4202CAD1C3E769
:10423000BDE810404FEA410313F5001F38BF704737
:10424000A1F1C04100F006BB9EEA445F08D011EA2C
:104250005E0FBDE8104004BF01F000410020704730
:10426000BDE8104070B500F0A7FA00BF64FBBE3E89
:104270000000E0FF491058BFC1F140415B1058BF3A
:10428000C3F140438B42EFF3008070472DE9C041FA
:1042900030B4DFF8A0C23CEA111418BF3CEA131492
:1042A00000F0EC8081EA03051CEA111444EAD5749D
:1042B00018BF1CEA131500F0C780A4EB05044FF0EB
:1042C000004545EAC12145EAC32341EA505143EA8A
:1042D000525304F17F74994204F500344FEAC02030
:1042E0004FEAC22208BF904200F09C804FEA13655B
:1042F0000FF24016765D4FEA134506FB05F7C7F14E
:10430000807706FB07F74FEAD737A7FB03687642AB
:10431000C8F58038A7FB06CE38BFA8F1010807FB17
:1043200008E64FF0000EA6FB028CE6FB03CEDCF1A4
:10433000000CCEF1004E38BFAEF1010EA6FB0C58BA
:104340004FF000074FF00005E6FB0E87A1FB08C603
:10435000A0FB07CE16EB0E0645F10005E1FB076555
:1043600015F1E04E7EBFA4F580345FEA46066D414C
:1043700016F1800745F100054FEA17274FEA066658
:1043800047EA0567A6F1DE46B6F1805F4FEA1525DC
:104390001FD9384624F0010C05EBC471BCF1FE6F47
:1043A00001EB0C1102D8F0BCBDE8008124425CBFD7
:1043B00001F5801E9EEAC47F02D4F0BCBDE80081F6
:1043C000244238D4F0BCA1F1C041BDE8004100F066
:1043D00041BA4FEAD22242EA43524FEAD323A7FB23
:1043E00002864FEAD02040EA415007FB03661EEAEE
:1043F0000E0F4FEAD12105FB026658BFA6EB00560F
:10440000B6EB00564FEA520E4EEAC37E18EB0E0E84
:1044100056EB530EBDD518EB02085E417F1C55F1DB
:104420000005B6E74FF480154FF000074FF0000687
:104430004FF00008ADE7F0BC4FF0000001F1C041C3
:1044400001F00041BDE8008111EA0C1F0CEA1315D0
:1044500000D00CE013EA0C1F00F025804FF00000A4
:10446000F0BC81EA030101F00041BDE80081F0BC2D
:10447000BDE8004181EA030100F0ECB9F0BCBDE801
:10448000004170B500F098F9097EFC3E00F007B8D5
:1044900081EA03014FF0000001F00041704781EA1A
:1044A000030100F0D7B9F0BCBDE800414FF00000B7
:1044B00021497047FFFDFBF9F7F5F4F2F0EEEDEB63
:1044C000E9E8E6E4E3E1E0DEDDDBDAD8D7D5D4D312
:1044D000D1D0CFCDCCCBCAC8C7C6C5C4C2C1C0BF5E
:1044E000BEBDBCBBBAB9B8B7B6B5B4B3B2B1B0AF64
:1044F000AEADACABAAA9A8A8A7A6A5A4A3A3A2A148
:10450000A09F9F9E9D9C9C9B9A9999989797969502
:1045100095949393929191908F8F8E8E8D8C8C8B9E
:104520008B8A898988888787868585848483838226
:10453000828181800000FF070000F87F4FEA11535D
:10454000A3F58063D3F11E03A8BFD3F1200C08DBD1
:104550004FF0004242EAC12252EA505232FA03F0CE
:10456000704709420BD4102BC4BF0020704703F5DD
:10457000787CBCF1FF3F05D04FF0FF3070474FF023
:104580000000704770B500F017F900BF4992248011
:1045900000207047F0E710F0004248BF4042B0FAF8
:1045A00080F310FA03F10AD0C3F11D0303F5806311
:1045B0004FEA415002EB035202EBD12170474FF01A
:1045C00000007047B0FA80F310FA03F10AD0C3F18B
:1045D0001D0303F580634FEA41504FEA035202EB9B
:1045E000D12170474FF000007047000051EA030CE2
:1045F00017D41CF5801F58BFBCF5801F00F1068042
:10460000994218BF704708BF9042704707D711F50D
:10461000801F58BF13F5801F19D4994270478942F3
:1046200070471CF5801F08D5BCF5801FF7D58B425D
:1046300018BF704708BF824270474FF4001C1CEB44
:10464000410F38BF1CEB430F01D28B42704770B54E
:1046500000F0B2F8922449004FF000514FF080531F
:10466000FFF708BEDFF848C170B51CEA111E1EBF77
:104670001CEA13159EEA0C0F95EA0C0F00F06F80F0
:1046800081EA030423EA4C134EEAD47E21EA4C115A
:1046900041F4801143F48013AE44A1FB024CA0FB13
:1046A0000365AEF17F7E361955EB0C05A1FB034C7B
:1046B0004CF10003A0FB021C16EB0C06654153F104
:1046C0000003094218BF46F0010613F4007F0BD126
:1046D0004FEA03314FEA0530340341EA155140EA0D
:1046E00016506FF003020AE04FEAC3214FEAC520DB
:1046F000F40241EA555140EA56506FF0020202EBD3
:104700002E4201EB025585EACE710AD05FEA440CD5
:1047100018BF24F0004450F1000041F1000120EAEC
:10472000D47040F2FE7C624500D270BDA84214BF36
:104730004FF080444FF04044002E08BF0024BEF1EB
:10474000806FA8BFA1F1C041BDE8704080F28280B7
:104750004FF0000001F1C04101F0004170479EEAB6
:104760000C0F0CEA131518BF95EA0C0F06D04FF08A
:10477000000081EA030E0EF0004170BD00F01CF84D
:104780008900013E00F007B800F009B84FEA430C79
:104790005FEA5C5C08D081EA030100F05BB84FEA95
:1047A000410C5FEA5C5CF6D14FF0000001497047B4
:1047B0000000FF070000F87F0EF1020E2EF0030E3E
:1047C0005EF8046B364205D4012A43EB030515F568
:1047D000001F12D8012841EB010C1CF5001F0CD85A
:1047E0000ED14FEAD17C15F5001F0CEB4C0C0CF1EF
:1047F000020C08BF4CEBD37C04E04FF0080C01E046
:104800004FEAD37C0CEB4C0526FA05F606F00706BA
:10481000B6F1040C06D20EEB860CBDE870404CF0ED
:10482000010C6047DFE80CF0090B02024FF0004179
:104830004FF00000A1F5002170BD19461046012877
:1048400051EB010418BFD4F5001484BF002001F01F
:10485000004170BD0808A0F500114FEA3101704712
:1048600053EA010C17D41CF5801F58BFBCF5801FFC
:1048700000F106808B4218BF704708BF8242704724
:1048800007D713F5801F58BF11F5801F19D48B422D
:1048900070479B4270471CF5801F08D5BCF5801FF0
:1048A000F7D5994218BF704708BF904270474FF440
:1048B000001C1CEB430F38BF1CEB410F01D2994287
:1048C00070470FB40CBC03BCFFF7C1BE10B591EA32
:1048D000030F48BF83F000433FF52CAC841A71EB03
:1048E000030C07D212198CF0004C43EB0C03001B95
:1048F00061EB0C01DFF8A4E14FEA1154A4EB135C67
:104900001EEA430F18BF9EEA445F00F0B08023EA1E
:104910006E03524221EA0451C3EB6E0338BF5B1EA3
:10492000DCF1200E25D322FA0CFE10EB0E0043FA28
:104930000CFE41EB0E01CCF1200E03FA0EFE10EB43
:104940000E0051F10001CCF1200E29D412FA0EF222
:1049500001EB0451BDE8104058BF7047401C1CBF1C
:10496000B2F1004F704700280CBF491C20F0010035
:10497000704712EB020E43EB030218BF4FF0010E1B
:104980004EEA4202ACF1200CDCF11E0E54D943FA7F
:104990000CFE10EB0E0051F1FF31CCF11E0ED5D5FF
:1049A0000EF1010E12FA0EFE404141EB010101EB46
:1049B000445C5FEA5C5C10D910EBDE7001EB0451E3
:1049C00038BFBEF1004FBDE8104018BF7047002847
:1049D0000CBF491C20F00100704730D24FEAD42CA4
:1049E00011F5001124F400641BD0B1FA81F20B3AE6
:1049F000A41AA41ED2F12003914030FA03F3194304
:104A0000904001EBCC71002C01EB0451BDE810404B
:104A1000A8BF704701F1C0414FF0000001F0004114
:104A20007047B0FA80F310FA03F100D110BDE41A18
:104A3000173C4805C90AE4E701EB045110BD4910D1
:104A400001EB0451BDE810404FEA300002E04FF0A6
:104A5000000170474A0008BF0042F8D0B2F5001FBD
:104A600028BF704701F000414FF0000070479EEAF8
:104A7000445F07D011EA5E0FBDE8104004BF00217B
:104A800000207047BDE8104070B5FFF795FE00BFED
:104A900040DFF63E83F00041104670470000E0FF23
:104AA00043004FEAD30C4FEA3C0C43401FBF400782
:104AB0000CF1605113F0FE4F70471CF0006F03D1F2
:104AC00000200CF0004170470CF0004343EA5070A6
:104AD00010B540EACC0000F044FA00BF000000929C
:104AE0004FEA0001FFF7B6BE4FF000414FF0000063
:104AF000A1F500217047000090EA010F48BF81F046
:104B0000004100F1BC82421A3CBF801A89184FEA6A
:104B1000D0524FF07F4C1CEA410FA2EBD15318BF8B
:104B20009CEA026F00F03B804FF0004C4CEA002002
:104B30004CEA012121FA03FC10EB0C0C1ED202F10D
:104B4000FF325FEA1C2040EBC25038BF70471CF0B8
:104B50007F0F4FEA400C18BFBCF17F4F38BF704742
:104B6000C3F12003994008BF20F00100BCF17F4F42
:104B700038BF7047A0F1C04000F039BA4FEA3C009E
:104B8000000A40EBC25028BF1CF0FF0F4FEA400C58
:104B9000E6D018BFBCF17F4F38BF7047EAE79CEA08
:104BA000026F05D010EA5C0F08BF00F000407047AC
:104BB00010B500F0D6F900BF64FBBE3E401058BFF0
:104BC000C0F14040491058BFC1F140418142EFF36C
:104BD000008070474FF47F0C1CEAD0121EBF1CEA05
:104BE000D11392EA0C0F93EA0C0F00F0858090EA43
:104BF000010F48BF42F4807240F4000C41F4000001
:104C00002CF07F4120F07F4000B58142A2EB0302EF
:104C10000FF2081CACEB504EC0F100009EF800E013
:104C20004FEA4E0E00FB0EFC38BF49004FEA2C1C29
:104C300002F5FA020CFB0EF34FEACE1E4FEA112CDE
:104C40004FEAC1210EEB635E42EB22420EFB0CFCED
:104C50004FEA1C5300FB03114FEA112C4FEA0131BC
:104C60000EFB0CFC4FEADC4C00FB0C11C14228BFD0
:104C700009184CEB03335DF804EB10EB410143EBF7
:104C8000C250B2F57C0F38BF704729D512F0F00F33
:104C90001CBF00F1C04000F00040704700818283DB
:104CA0008485868788898B8C8D8E8F91929395963B
:104CB00097999A9C9D9FA0A2A3A5A7A8AAACAEB0C5
:104CC000B2B3B5B7B9BCBEC0C2C5C7C9CCCED1D4CA
:104CD000D7D9DCDFE2E6E9ECF0F3F7FAFE000000FA
:104CE0004FEA400C0CF1807CBCF17E4F28BF70472E
:104CF000B0F1C04000F07BB990EA010F0CEAD1138B
:104D000048BF42F48072624538BF634507D213F44E
:104D10007F0F16D080EA010000F00040704710B508
:104D200000F01FF9097EFC3E00F005B880EA0100A2
:104D300000F00040704780EA010000F0004000F001
:104D400056B912F47F0F04BF0248704780EA010091
:104D500000F04DB90000C07F41000B0ED3F19E0260
:104D600008D950F400034FEA032323FA02F048BFA6
:104D70004042704710B500F0F4F800BF499224801B
:104D8000002070476FF0004282EA20007047000068
:104D9000C10DD1F19E0206DB4FEA002343F0004330
:104DA00023FA02F07047004207D54FEA4001B1F103
:104DB000FE4F02D24FF00000704710B500F0D1F85E
:104DC00049922480002070476FEA2000704700005D
:104DD000B0FA80F310FA03F2C3F19D030AD0D905AB
:104DE00001EB1220530638BF704700F1010008BFE5
:104DF00020F001007047000050EA010C00F1138020
:104E00001CF5000F58BFBCF5000F01D48842704755
:104E100007D710F5000F58BF11F5000F15D48842C1
:104E20007047894270471CF5000F04D5BCF5000F90
:104E3000F7D5814270474FF0807C1CEB400F38BFA4
:104E40001CEB410F01D28142704710B500F089F888
:104E5000922449004FF000504FF08051FFF7AEBE52
:104E60004FF47F0C1CEAD0121EBF1CEAD11392EA49
:104E70000C0F93EA0C0F00F0478090EA010F48BF37
:104E800042F480724FF0004C4CEA00204CEA0121C1
:104E900002EB0302A0FB0113A2F50002002918BFD8
:104EA00043F001035B0028BF4FEA330342EB224289
:104EB0005FEA132C4CEBC2502EBFBCEB436FB2F534
:104EC0007C0F70474FEA036CBCF1004F08BF20F025
:104ED0000100B2F57C0F38BF70470BD582F0FF029E
:104EE00012F5803FC8BF704700F1C040D8BF00F046
:104EF0000040704700F5000C5FEA4C0C48BF70475B
:104F0000B0F1C04000F073B890EA010F0CEAD11381
:104F100048BF42F48072624538BF634504D280EADC
:104F2000010000F00040704710B500F01AF800BF13
:104F30008900013E00F007B800F009B85FEA410CB3
:104F40005FEA1C6C08D080EA010000F050B85FEA0C
:104F5000400C5FEA1C6CF6D14FF00040A0F58000D9
:104F600070470EF1020E2EF0030E5EF8044B244241
:104F700004D44FEA4102B2F17F4F11D84FEA400307
:104F8000B3F17F4F0CD80ED14FEAD07CB2F17F4FF6
:104F90000CEB4C0C0CF1020C08BF4CEBD17C04E088
:104FA0004FF0080C01E04FEAD17C0CEB4C0324FAE3
:104FB00003F404F00704B4F1040C06D20EEB840CE5
:104FC000BDE810404CF0010C6047DFE80CF007082A
:104FD00002024FF00040A0F5800010BD08464200DC
:104FE00018BFD2F1807288BF00F0004010BDFF21D1
:104FF00041EAD050C005704751EA000C00F113801F
:105000001CF5000F58BFBCF5000F01D4814270475A
:1050100007D711F5000F58BF10F5000F15D48142C6
:105020007047894270471CF5000F04D5BCF5000F8E
:10503000F7D5884270474FF0807C1CEB410F38BF9A
:105040001CEB400F01D28842704780EA010081EAE0
:10505000000180EA0100FFF7F8BE80F0004090EA0E
:10506000010F7FF550AD81F0004100F008B800005D
:1050700090EA010F48BF81F000413FF544AD421A6C
:1050800004D882F00042A0EB020011444FEAD05253
:105090004FF07F4C1CEA410FA2EBD15318BF9CEAA2
:1050A000026F4AD04FF0004C4CEA00204CEA01213C
:1050B00021FA03FCB0EB0C0C0FD412F0FE0F36D02B
:1050C0005FEA4C001DD5001240EBC25038BF70475C
:1050D0001CF03F0F18BF70470BE0A2F101025FEA1E
:1050E0001C2040EBC25038BF70471CF07F0F18BF28
:1050F0007047C3F12003994014BF401E20F0010007
:10510000704780084FEA122308BF7047B0FA80FC4E
:10511000A2EB0C02CCF1280C60FA0CF093EA122FEF
:1051200004BF00EBC25070474FEAC3707047130AC8
:105130005FEADC1008BF7047F6E79CEA026F04D014
:1051400010EA5C0F08BF0020704710B5FFF709FF99
:1051500040DFF63E81F0004070470102030000008E
:1051600000000000000000C0C101C30302C2C60667
:1051700007C705C5C404CC0C0DCD0FCFCE0E0ACA8F
:10518000CB0BC90908C8D81819D91BDBDA1A1EDEDF
:10519000DF1FDD1D1CDC14D4D515D71716D6D2128F
:1051A00013D311D1D010F03031F133F3F23236F69F
:1051B000F737F53534F43CFCFD3DFF3F3EFEFA3A4F
:1051C0003BFB39F9F83828E8E929EB2B2AEAEE2EDF
:1051D0002FEF2DEDEC2CE42425E527E7E62622E24F
:1051E000E323E12120E0A06061A163A3A26266A69F
:1051F000A767A56564A46CACAD6DAF6F6EAEAA6A0F
:105200006BAB69A9A86878B8B979BB7B7ABABE7E5E
:105210007FBF7DBDBC7CB47475B577B7B67672B20E
:10522000B373B17170B0509091519353529296569E
:105230005797559594549C5C5D9D5F9F9E5E5A9ACE
:105240009B5B99595898884849894B8B8A4A4E8E5E
:105250008F4F8D4D4C8C44848545874746868242CE
:1052600043834181804000008852000800000020F4
:10527000480300006C010008285300084803002080
:10528000C8210000C8010008412D010203040410D8
:105290000B0607080902040608A0030232200B9C33
:1052A000803F0819E811B2110413556601DF6655F5
:1052B0005566020101212A10180A1503180A130461
:1052C0001891190F291301184AFA2391031E8841D6
:1052D000293001362009CDCC4C3D0AD7A33C9A7029
:1052E0006433803F1A400319041A80041AA0041A78
:1052F000C0041AE004619A030823B1041AEA0923DE
:10530000FF08930C202808C1814001C08041046936
:105310000C2908E918A91C091A3009163809366041
:08532000092E70092F60110035
:0400000508000131BD
:00000001FF
