:020000040800F2
:10000000900C00200D02000835310008373100083F
:100010003B3100083F310008433100080000000078
:100020000000000000000000000000004731000850
:1000300049310008000000004B3100084D31000834
:1000400027020008270200082702000827020008EC
:1000500027020008270200082702000827020008DC
:1000600027020008270200082702000827020008CC
:1000700027020008270200082702000827020008BC
:1000800027020008270200082702000827020008AC
:10009000270200082702000827020008270200089C
:1000A000270200084F310008270200082702000835
:1000B00093310008013200081F32000827020008AF
:1000C000270200082702000827020008270200086C
:1000D00027020008C3320008F9320008270200088E
:1000E000270200082702000827020008270200084C
:1000F000270200082702000827020008270200083C
:1001000027020008270200083B32000827020008E7
:10011000270200082702000873320008270200089F
:10012000270200082702000827020008270200080B
:1001300000F002F800F05AF80AA090E8000C82449F
:100140008344AAF10107DA4501D100F04FF8AFF27C
:10015000090EBAE80F0013F0010F18BFFB1A43F0A5
:1001600001031847D8C00000F8C000000A444FF04F
:10017000000C10F8013B13F0070408BF10F8014B06
:100180001D1108BF10F8015B641E05D010F8016B4B
:10019000641E01F8016BF9D113F0080F1EBF10F8AF
:1001A000014BAD1C0C1B09D16D1E58BF01F801CBD2
:1001B000FAD505E014F8016B01F8016B6D1EF9D555
:1001C0009142D6D37047000000230024002500266A
:1001D000103A28BF78C1FBD8520728BF30C148BFAA
:1001E0000B6070471FB51FBD10B510BD04F02DFB8F
:1001F0001146FFF7F7FF02F067F904F04BFB03B479
:10020000FFF7F2FF03BC04F053FB000009488047EE
:1002100009480047FEE7FEE7FEE7FEE7FEE7FEE7E8
:10022000FEE7FEE7FEE7FEE704480549054A064B00
:1002300070470000372300083101000890060020B5
:10024000900C0020900800209008002010B5044673
:10025000CC48844208D10121042000F02DFB00216C
:10026000042000F029FB46E0C748844208D1012160
:10027000082000F021FB0021082000F01DFB3AE0DF
:10028000C248844208D10121102000F015FB002152
:10029000102000F011FB2EE0BD48844208D101215E
:1002A000202000F009FB0021202000F005FB22E0C7
:1002B000B848844208D10121402000F0FDFA002115
:1002C000402000F0F9FA16E0B348844208D1012139
:1002D000802000F0F1FA0021802000F0EDFA0AE021
:1002E000AE48844207D10121801500F0E5FA0021D3
:1002F000A01500F0E1FA10BD10B50121084600F08C
:10030000DBFA0021012000F0D7FA10BD2DE9F04101
:10031000024600250026002000230024002791F833
:1003200003C00CF00F0591F803C00CF0100CBCF1E9
:10033000000F03D091F802C04CEA050591F800C007
:10034000BCF1000F31D0146800202BE04FF0010CFD
:100350000CFA00F3B1F800C00CEA03069E4220D16B
:1003600083004FF00F0C0CFA03F7BC4305FA03FCB3
:100370004CEA040491F803C0BCF1280F06D14FF0F9
:10038000010C0CFA00FCC2F814C00AE091F803C09A
:10039000BCF1480F05D14FF0010C0CFA00FCC2F87B
:1003A00010C0401C0828D1D31460B1F800C0BCF1C3
:1003B000FF0F34DD546800202EE000F1080C4FF0F0
:1003C000010808FA0CF3B1F800C00CEA03069E42DB
:1003D00021D183004FF00F0C0CFA03F7BC4305FA50
:1003E00003FC4CEA040491F803C0BCF1280F05D1CA
:1003F00000F1080C08FA0CF8C2F8148091F803C058
:10040000BCF1480F07D100F1080C4FF0010808FAC1
:100410000CF8C2F81080401C0828CED35460BDE808
:10042000F0814FF6FF710180022181700421C170BB
:1004300070470246002093680B400BB1012000E09A
:10044000002070470146886880B27047024600204D
:10045000D3680B400BB1012000E00020704701463B
:10046000C86880B2704701617047416170470AB146
:10047000016100E041617047C16070474FF4803214
:100480000A438261816182618269826970470246A2
:100490000020434B18684FF68073184040EA021062
:1004A00008433F4B186070473E49C8617047F0B53C
:1004B0000A46002300240021002500F00046B6F182
:1004C000004F02D1364EF16901E0354E7168C0F33C
:1004D000034583B200F44016B6F5401F08D121F061
:1004E00070612F4E766826F070662D4F7E6012E0A8
:1004F00000F48016B6F5801F06D1032606FA05F42F
:10050000A14341F0706106E0460D360103FA06F69C
:10051000B14341F0706122B1460D360103FA06F68F
:10052000314300F00046B6F1004F02D11C4EF1619C
:1005300001E01B4E7160F0BD30B500228B071C0F2F
:100540000F2303FA04F2164B08338C1053F82430AF
:100550009343134C08348D1044F8253023468C10F7
:1005600053F824308C07240F00FA04F423430C4C76
:1005700008348D1044F8253030BD0A49DC3108605C
:100580007047000000080140000C014000100140CD
:100590000014014000180140001C014000200140EF
:1005A0000000014000002042DF48006840F00100E8
:1005B000DD49086008464068DC490840DA4948607F
:1005C00008460068DA490840D749086008460068CC
:1005D00020F4802008600846406820F4FE0048604F
:1005E0004FF41F0088607047CF49096821F48031BB
:1005F000CD4A11601146096821F480211160B0F5DF
:10060000803F03D0B0F5802F0ED106E0C6490968BF
:1006100041F48031C44A116007E0C349096841F4DC
:10062000A021C14A116000E000BF00BF704710B5B3
:1006300001460022002300204A11012A02D1BA4CAF
:10064000236806E0022A02D1B74C236A01E0B64CC7
:10065000636A01F01F02012494401C400CB1012088
:1006600000E0002010BD38B50020009000240025D7
:1006700000BF3120FFF7DBFF05460098401C0090CB
:100680000098B0F5A06F01D0002DF2D03120FFF717
:10069000CEFF08B1012400E00024204638BD014609
:1006A0000020A14A106820F0F80040EAC100106064
:1006B0007047A04908607047024600209A4B58686E
:1006C00020F47C1042EA01031843974B58607047AE
:1006D00098490866704701460020934A506820F008
:1006E00003000843506070478F48406800F00C00DA
:1006F0007047014600208C4A506820F0F000084303
:100700005060704701460020874A506820F4E0603E
:1007100008435060704701460020834A506820F427
:10072000605040EAC1005060704729B17E4A527A59
:1007300002437D4B5A7204E07B4A527A82437A4BE1
:100740005A7270477B49D8310860704701460020D3
:10075000754A506820F440400843506070470021BB
:10076000714A20321170704A82F82010012802D09C
:1007700004280AD104E001216B4A2032117005E0FF
:100780000521694A2032117000E000BF00BF7047A8
:100790006949086070476449096A0143624A116205
:1007A0007047654944390860704730B50021002220
:1007B000002400235C4D6D6805F00C0121B1042973
:1007C00005D0082923D105E05C4D056022E05B4D92
:1007D00005601FE0544D6D6805F47012524D6D6850
:1007E00005F48034022505EB92421CB9544D554363
:1007F00005600BE04C4D6D6805F400351DB1504DA2
:100800005543056002E04D4D5543056002E04B4DF8
:10081000056000BF00BF444D6D6805F0F001090997
:10082000484D6B5C0568DD4045603F4D6D6805F4E3
:10083000E061090A434D6B5C4568DD4085603A4DD7
:100840006D6805F46051C90A3E4D6B5C4568DD403A
:10085000C560354D6D6805F44041890B3A4D6B5CC0
:10086000C568B5FBF3F5056130BD29B12E4A526963
:1008700002432D4B5A6104E02B4A526982432A4BB2
:100880005A61704729B1284A92690243264B9A61FE
:1008900004E0254A92698243234B9A61704729B14B
:1008A000214AD2690243204BDA6104E01E4AD26930
:1008B00082431D4BDA61704729B11B4AD26802435B
:1008C000194BDA6004E0184AD2688243164BDA60AA
:1008D000704729B1144A12690243134B1A6104E0AC
:1008E000114A12698243104B1A617047124940390C
:1008F000086070470F49C86470470B49C87170475A
:100900000948406A40F080700749486270470146D4
:100910000020054A92680A400AB1012000E0002048
:100920007047014988727047001002400000FFF8CC
:10093000FFFFF6FE000042428004424200127A00AD
:1009400000093D00000000201000002010B5044602
:10095000FE48844208D10121C014FFF7ADFF0021F9
:10096000E014FFF7A9FFC4E0B4F1804F08D10121E2
:100970000846FFF7AEFF00210120FFF7AAFFB8E00D
:10098000F348844208D101210220FFF7A2FF002191
:100990000220FFF79EFFACE0EE48844208D101211F
:1009A0000420FFF796FF00210420FFF792FFA0E04C
:1009B000E948844208D101210820FFF78AFF00217D
:1009C0000820FFF786FF94E0E448844208D1012123
:1009D0001020FFF77EFF00211020FFF77AFF88E04C
:1009E000DF48844208D101212020FFF772FF002157
:1009F0002020FFF76EFF7CE0DA48844208D1012115
:100A00004014FFF759FF00216014FFF755FF70E015
:100A1000D548844209D10121C804FFF74DFF0021C8
:100A20004FF40020FFF748FF63E0D048844209D12B
:100A300001210805FFF740FF00214FF48010FFF768
:100A40003BFF56E0CA48844209D101214805FFF71F
:100A500033FF00214FF40010FFF72EFF49E0C54897
:100A6000844208D101214020FFF733FF00214020BC
:100A7000FFF72FFF3DE0C048844208D101218020CC
:100A8000FFF727FF00218020FFF723FF31E0BB485D
:100A9000844208D101218015FFF71BFF0021A0151A
:100AA000FFF717FF25E0B648844209D10121080469
:100AB000FFF702FF00214FF48030FFF7FDFE18E042
:100AC000B048844209D101214804FFF7F5FE002116
:100AD0004FF40030FFF7F0FE0BE0AB48844208D142
:100AE00001218804FFF7E8FE00214FF48020FFF782
:100AF000E3FE10BD00220288944B98420ED0994B21
:100B000098420BD0B0F1804F08D0914B984205D05D
:100B1000904B984202D0904B984204D14FF68F737D
:100B20001A404B881A438D4B984207D08C4B984201
:100B300004D04FF6FF431A40CB881A4302808B88BB
:100B400083850B880385814B98420BD0854B984257
:100B500008D08B4B984205D08A4B984202D08A4BE2
:100B6000984201D10B7A038601238382704770B5C6
:100B7000002400220023058C4FF6FE7635400584C4
:100B8000028C8388048B4FF68F752C40B51E2C4049
:100B90000D882C43751E2A400D892A434D882A430F
:100BA0006A4DA8420BD06F4DA84208D0744DA842A0
:100BB00005D0744DA84202D0734DA84213D14FF610
:100BC000F7752A404D892A434FF6FB752A408D88D8
:100BD0002A434FF6FF652B404FF6FF552B408D897A
:100BE0002B43CD892B4383800483CD888586028463
:100BF00070BD70B5002400220023058C4FF6EF76FF
:100C000035400584028C8388048B48F6FF752C40A0
:100C10004FF6FF452C400D884FF6FF7606EA052576
:100C20002C434FF6DF752A400D8906EA05152A4345
:100C30004D8806EA05152A43444DA84202D0494D85
:100C4000A8421DD14FF67F752A404D894FF6FF7699
:100C500006EA05152A434FF6BF752A408D8806EA35
:100C600005152A434FF6FF352B404FF2FF752B40F9
:100C70008D8906EA85052B43CD8906EA85052B4338
:100C800083800483CD880587028470BD70B50024FD
:100C900000220023058C4FF6FF6635400584028C48
:100CA0008388848B4FF68F752C404FF6FC752C4053
:100CB0000D882C434FF6FF552A400D894FF6FF76DD
:100CC00006EA05252A434D8806EA05252A431F4DD5
:100CD000A84202D0234DA8421DD14FF2FF752A40F1
:100CE0004D894FF6FF7606EA05252A434FF6FF3574
:100CF0002A408D8806EA05252A434EF6FF752B40CB
:100D00004DF6FF752B408D8906EA05152B43CD89DD
:100D100006EA05152B4383808483CD88858702846A
:100D200070BD70B5002200230024058C4EF6FF76BE
:100D300035400584038C8488828B48F6FF752A40F1
:100D40004FF6FF452A400D8820E00000002C0140AE
:100D50000004004000080040000C0040001000406B
:100D60000014004000340140004C0140005001409C
:100D70000054014000180040001C004000200040CA
:100D80000040014000440140004801404FF6FF761A
:100D900006EA05252A434DF6FF752B400D8906EA24
:100DA00005352B434D8806EA05352B43FA4DA842FD
:100DB00002D0FA4DA84208D14BF6FF752C408D8920
:100DC0004FF6FF7606EA85152C4384808283CD8812
:100DD000A0F84050038470BD828B4FF2FF331A405D
:100DE0008283828B4FF6FF7303EA01231A438283C7
:100DF0007047F0B50C461546002200210026078CEE
:100E00004EF6FF7C07EA0C070784828B018C4FF6B5
:100E1000FF7707EA043640F6FF473A404FF6FF7780
:100E200007EA05273A434FF6FF7707EA03373A43C5
:100E3000D94FB8420ED0D94FB8420BD0B0F1804F45
:100E400008D0D74FB84205D0D64FB84202D0D64FBF
:100E5000B84206D14DF6FF77394046F48057394302
:100E600005E047F6FF57394044F480573943828301
:100E70000184F0BD828B4FF6F3731A408283828B1C
:100E80000A4382837047F0B50C46154600220021C4
:100E90000026078C4FF6FF6C07EA0C070784828B4D
:100EA000018C4FF6FF7707EA04264FF60C773A409D
:100EB0004FF6FF7707EA03172F433A43B64FB8427E
:100EC0000ED0B64FB8420BD0B0F1804F08D0B44F1F
:100ED000B84205D0B34FB84202D0B34FB84206D1A2
:100EE0004FF6FF57394046F48077394305E04FF21B
:100EF000FF57394044F48077394382830184F0BD41
:100F0000028B4FF2FF331A400283028B4FF6FF73BE
:100F100003EA01231A4302837047F0B50C461546D5
:100F2000002200210026078C4FF6EF7C07EA0C0711
:100F30000784028B018C4FF6FF7707EA041640F610
:100F4000FF473A404FF6FF7707EA03373A434FF639
:100F5000FF7707EA05273A438F4FB8420ED08F4FED
:100F6000B8420BD0B0F1804F08D08D4FB84205D0B9
:100F70008C4FB84202D08C4FB84206D14FF6DF7783
:100F8000394046F01007394305E04FF65F773940A6
:100F900044F01007394302830184F0BD028B4FF601
:100FA000F3731A400283028B0A4302837047F0B541
:100FB0000C46154600220021068C4FF6FE773E4077
:100FC0000684028B018C4FF60C7632407E1C06EABA
:100FD00003162E433243704EB0420ED06F4EB042D5
:100FE0000BD0B0F1804F08D06D4EB04205D06D4EA1
:100FF000B04202D06C4EB04206D14FF6FD76314081
:1010000044F00106314305E04FF6F576314044F0F7
:101010000106314302830184F0BD70B505460C46DC
:101020005D4885420ED05D4885420BD0B5F1804FBA
:1010300008D05B48854205D05A48854202D05A48BC
:10104000854200D100E000BF208850B92389A288E2
:1010500061882846FFF7ABFFE1882846FFF79EFF2F
:1010600025E0208804280AD12389A288618828469F
:10107000FFF753FFE1882846FFF742FF17E020887B
:1010800008280AD12389A28861882846FFF7FBFE39
:10109000E1882846FFF7EEFE09E02389A2886188EF
:1010A0002846FFF7A6FEE1882846FFF795FE70BDAB
:1010B0002DE9F04105460C4600260127608808B955
:1010C000022600E00026A088012801D1022700E0C6
:1010D00001272088A0B92389A28861882846FFF7C4
:1010E00066FFE1882846FFF759FF23893A463146D3
:1010F0002846FFF712FFE1882846FFF701FF13E0BB
:101100002389A28861882846FFF707FFE1882846DF
:10111000FFF7F6FE23893A4631462846FFF747FF98
:10112000E1882846FFF73AFFBDE8F0810A884B883E
:101130001A438B881A43CB881A430B891A434B896D
:101140001A438B891A43A0F8442070474FF6FF7169
:10115000818000210180C18041800172704700219F
:10116000018041808180C180018141818181C18173
:101170007047002101804180012181800021C180D0
:10118000018170470021018041808180C1800181FF
:101190004181818170470000002C014000340140F2
:1011A0000004004000080040000C004021B102880B
:1011B00042F00102028004E002884FF6FE731A40FA
:1011C0000280704731B1B0F8442042F40042A0F8E8
:1011D000442005E0B0F84420C2F30E02A0F84420F9
:1011E00070471AB183890B43838102E083898B4363
:1011F000838170478182704741EA0203A0F848303A
:1012000070471AB183890B43838102E083898B4342
:101210008381704701894FF6F87211400181704750
:101220000A46002101894FF68F731940114301814D
:10123000704730B504460D4629462046FFF7F0FFBB
:10124000208940F00700208130BD2DE9F04104469F
:101250000D4616461F46602D06D13B4601223146FB
:101260002046FFF75AFE05E03B4601223146204664
:10127000FFF79DFE29462046FFF7D2FF208940F068
:1012800007002081BDE8F08130B50C4600210189BE
:10129000C9B24FF6FF7505EA0325154325432943D7
:1012A000018130BD2DE9F04105460E4617469846AE
:1012B000002443463A4631462846FFF7E5FF2C898D
:1012C0004FF6F870044044F007044FF68F70044066
:1012D00044F070042C81BDE8F081F0B504460D4661
:1012E00016461F463B46324629462046FFF7CCFFAE
:1012F000208940F480402081F0BD018582827047C2
:101300000A46002101884FF68F731940114301806E
:101310007047F0B50C4615461E46002100220023FA
:101320000189028B038C4FF6F877394021434FF641
:10133000FC473A4040F201173A434FF6DD773B4015
:101340004FF6FF7707EA06172F433B4301810283DD
:101350000384F0BD0A460021018B4FF68F731940BC
:101360001143018370470A460021018B48F6FF7341
:1013700019404FF6FF7303EA0223194301837047B4
:101380000A460021818B4FF68F73194011438183E8
:1013900070470A460021818B48F6FF7319404FF6CB
:1013A000FF7303EA022319438183704721B1028846
:1013B00042F08002028004E002884FF67F731A40F8
:1013C0000280704721B1828842F00402828004E0EA
:1013D00082884FF6FB731A408280704721B1828861
:1013E00042F00802828004E082884FF6F7731A40C8
:1013F0008280704721B1828842F00102828004E03D
:1014000082884FF6FE731A40828070470A46002198
:10141000018B4FF6F77319401143018370470A4659
:101420000021018B4FF2FF7319404FF6FF7303EA5F
:1014300002231943018370470A460021818B4FF62E
:10144000F77319401143818370470A460021818B4D
:101450004FF2FF7319404FF6FF7303EA022319435B
:10146000818370470A460021018B4FF6FB731940B8
:101470001143018370470A460021018B4FF6FF3369
:1014800019404FF6FF7303EA0223194301837047A3
:101490000A460021818B4FF6FB731940114381836B
:1014A00070470A460021818B4FF6FF3319404FF6F3
:1014B000FF7303EA02231943818370470A46002120
:1014C000018B4FF67F7319401143018370470A4621
:1014D0000021018BC1F30E014FF6FF7303EA0223D3
:1014E0001943018370470A460021818B4FF67F73B1
:1014F00019401143818370470A460021818BC1F353
:101500000E014FF6FF7303EA0223194381837047EC
:101510000A460021018C4FF6FD73194011430184E6
:1015200070470A460021018C4FF6F77319401143AA
:10153000018470470A460021018C4FF6DF73194081
:101540004FF6FF7303EA02131943018470470A46FA
:101550000021018C4FF67F7319404FF6FF7303EAA9
:1015600002131943018470470A460021018C4FF68B
:10157000FF5319404FF6FF7303EA02231943018416
:1015800070470A460021018C4FF2FF7319404FF655
:10159000FF7303EA02231943018470470A460021BE
:1015A000018C4DF6FF7319404FF6FF7303EA0233C7
:1015B00019430184704730B5002301248C40A3B245
:1015C000048C9C430484048C02FA01F5ADB22C43D4
:1015D000048430BD30B5002304248C40A3B2048CB5
:1015E0009C430484048C02FA01F5ADB22C430484BC
:1015F00030BD70B503460020002418461830012580
:101600008D40ACB21D8CA5431D8409B1082909D1B8
:1016100000EB6100056825F070050560056815435D
:1016200005600EE00D1FC5F34E052844056825F43E
:10163000E045056005684FF6FF7606EA0226354369
:10164000056070BD21B1028842F00202028004E010
:1016500002884FF6FD731A400280704721B102885C
:1016600042F00402028004E002884FF6FB731A4045
:101670000280704721B1828842F08002828004E0BB
:1016800082884FF67F731A408280704702884FF637
:10169000F7731A40028002880A43028070478288EA
:1016A0004FF68F731A40828082880A438280704787
:1016B00002894FF6F8731A40028102890A430281B7
:1016C000704702894FF67F731A40028102890A43EC
:1016D0000281704781847047818570478186704799
:1016E0000187704781877047A0F8401070470288D3
:1016F0004FF6FF431A40028002880A430280704777
:101700000146888E70470146088F70470146888FD2
:1017100070470146B1F8400070470146888C704719
:101720000146088D704702460020138A0B400BB11A
:10173000012000E000207047CA430282704730B5A4
:101740000246002000230024158A05EA010395893A
:1017500005EA010413B10CB1012000E0002030BD06
:10176000CA4302827047000010B50446FB48844219
:1017700009D101218803FFF79FF800214FF4804031
:10178000FFF79AF832E0F648844209D10121480473
:10179000FFF79FF800214FF40030FFF79AF825E09B
:1017A000F048844209D101218804FFF792F8002112
:1017B0004FF48020FFF78DF818E0EB48844209D100
:1017C0000121C804FFF785F800214FF40020FFF73E
:1017D00080F80BE0E548844208D101210805FFF7B5
:1017E00078F800214FF48010FFF773F810BD2DE951
:1017F000F04786B005460E460024A24600BFA1462B
:101800000027B08900B100BF2F462C8A4CF6FF702C
:101810000440F08804432C82AC894EF6F310044057
:10182000B08831890843718908430443AC81AC8A8C
:101830004FF6FF400440B0890443AC8201A8FEF794
:10184000B4FFC648874202D1DDF810A001E0DDF800
:101850000CA0A88900F4004040B10AEBCA0000EBDC
:101860000A1031684900B0FBF1F807E00AEBCA0042
:1018700000EB0A1031688900B0FBF1F86420B8FB76
:10188000F0F004012009642101FB1089A88900F40B
:10189000004040B1322000EBC900B0FBF1F000F095
:1018A0000700044308E0322000EB09106421B0FB7C
:1018B000F1F000F00F0004432C8106B0BDE8F08782
:1018C0004FF41651016000218180C18001810C21FB
:1018D000418100218181704710B502460020108AA5
:1018E0004FF2FF0318400B884C8823438C88234316
:1018F000CC8823431843108210BD00210180418011
:101900008180C180704721B1828942F40052828176
:1019100004E082894DF6FF731A4082817047F0B56A
:101920000346002400260025002040F66A17B9422D
:1019300000D100BF1846C1F3421401F01F06012771
:1019400007FA06F5012C01D10C3004E0022C01D17C
:10195000103000E014301AB107682F43076002E02E
:101960000768AF430760F0BD1AB1838A0B438382D7
:1019700002E0838A8B4383827047028A4FF6F073BA
:101980001A400282028A0A430282704782894FF219
:10199000FF731A40828182890A438281704721B194
:1019A000828942F00202828104E082894FF6FD734F
:1019B0001A4082817047028A4FF6DF731A40028212
:1019C000028A0A430282704721B1028A42F48042AD
:1019D000028204E0028A4BF6FF731A4002827047CB
:1019E000C1F308028280704701468888C0F308006E
:1019F0007047818941F0010181817047028BD2B229
:101A00000283028B42EA012202837047028B02F4B6
:101A10007F420283028B0A430283704721B1828A8C
:101A200042F02002828204E0828A4FF6DF731A407D
:101A30008282704721B1828A42F01002828204E0E1
:101A4000828A4FF6EF731A408282704721B1828AF0
:101A500042F00802828204E0828A4FF6F7731A404D
:101A60008282704721B1828942F40042828103E080
:101A70008289C2F30E028281704721B1828A42F4C8
:101A80000062828204E0828A4FF2FF731A408282EF
:101A90007047828A4FF6FB731A408282828A0A4319
:101AA0008282704721B1828A42F00202828204E07F
:101AB000828A4FF6FD731A408282704702460020E8
:101AC000B1F5007F00D100BF13880B400BB101209E
:101AD00000E00020704701F40072B2F5007F00D1F1
:101AE00000BFCA430280704770B50246002400233D
:101AF0000025002040F66A16B14200D100BFC1F3B4
:101B0000421501F01F03012606FA03F3012D02D14D
:101B10009689334006E0022D02D1168A334001E057
:101B2000968A33400C12012606FA04F416883440D3
:101B300013B10CB1012000E0002070BD10B50022EF
:101B4000002340F66A14A14200D100BF0A1201240A
:101B50009440A3B2DC43048010BD00000038014073
:101B60000044004000480040004C0040005000404D
:101B700031490143314A1160704770B5002100239B
:101B80000F22C47804B32D4C246804F4E064C4F537
:101B9000E064210AC1F10403CA40447804FA03F165
:101BA0008478144021430901254C0678A155047816
:101BB00004F01F050124AC4005786D11AD0005F15E
:101BC000E025C5F8004109E0047804F01F05012470
:101BD000AC401C4D0678761145F8264070BD1A4A77
:101BE0000A400243154B1B1F1A60704739B1134A54
:101BF000121D12680243114B1B1D1A6006E00F4AAA
:101C0000121D126882430D4B1B1D1A607047042879
:101C100008D14FF0E021096941F004014FF0E022C2
:101C2000116107E04FF0E021096921F004014FF054
:101C3000E0221161704700000000FA050CED00E0A1
:101C400000E400E080E100E080FFFF1F30B943F2D4
:101C5000DB028100A1F1C0410A6005E043F2D2023B
:101C60008100A1F1C0410A606FF07042411C8900FF
:101C7000A1F1C0410A608100A1F1C041C1F8042175
:101C8000704710280AD118214FF0204211664021D8
:101C900051664FF0FC319166D16610E01821F74A89
:101CA000116040214FF02042C2F884104FF0FC3107
:101CB000F24A083211604FF02042C2F88C1070478F
:101CC0001820EE492031086000200906C1F8A40060
:101CD0004FF0FC30E94928310860091D0860091DF2
:101CE00008607047D0E901121143C26811430269CC
:101CF00011434269114382691143C2691143026A67
:101D00001143426A1143826A1143C26A1143026B52
:101D1000114302689200A2F1C04211608168082953
:101D20000BD101688900A1F1C041096841F040026E
:101D300001688900A1F1C0410A60416B0968426BEA
:101D4000526841EA0211426B926841EA0221426BF9
:101D5000928941EA0241426B128A41EA0251426B86
:101D6000127D41EA0261426B926911430268521C82
:101D70009200A2F1C0421160C16AB1F5804F1BD13F
:101D8000816B0968826B526841EA0211826B92682A
:101D900041EA0221826B128A41EA0251826B127D72
:101DA00041EA0261826B9269114302689200A2F1DA
:101DB000C042C2F8041107E06FF070420168890068
:101DC000A1F1C041C1F80421704730B500210022C3
:101DD0000023446844F0080485682C43C5682C43FC
:101DE00005692C43456944EA4524856944EA45313F
:101DF000C4692468C5696D6844EA0524C5692D89EC
:101E000044EA0544C5692D7B44EA0562046A2468F6
:101E1000056A6D6844EA0524056A2D8944EA05448B
:101E2000056A2D7B44EA05630468102C05D14FF048
:101E300020442166A266E36608E0904C21604FF0E2
:101E40002044C4F888208D4C0C34236030BD0168D8
:101E500041F01001426841EA4221826841EA423180
:101E6000864A20321160C1680968C268526841EA36
:101E70000221C268128941EA0241C268127B41EA2A
:101E800002617E4A2832116001690968026952685C
:101E900041EA02210269128941EA02410269127B88
:101EA00041EA0261754A2C32116041690968426950
:101EB000526841EA02214269128941EA02414269BB
:101EC000127B41EA02614FF02042C2F8B010704725
:101ED000002101600221416000218160C160016137
:101EE00041618161C16101624FF4805141624900E9
:101EF00081620021C16201630F21426B1160426B5C
:101F00005160FF21426B91600F21426BD160426BA7
:101F10001161426B51610021426B91610F21826B13
:101F20001160826B5160FF21826B91600F21826B87
:101F3000D160826B1161826B51610021826B916172
:101F4000704710210160002141608160C160016122
:101F500041618161FC21C2691160C2695160C2693D
:101F60009160C269D160026A1160026A5160026ABE
:101F70009160026AD1607047002101604160816018
:101F8000FC21C2681160C2685160C2689160C26879
:101F9000D160026911600269516002699160026951
:101FA000D160426911604269516042699160426941
:101FB000D160704751B18200A2F1C042126842F074
:101FC00001038200A2F1C042136009E08200A2F185
:101FD000C04212682A4B1A408300A3F1C0431A6022
:101FE000704799B1102808D14FF02042126E42F08C
:101FF00004024FF020431A661DE0204A126842F0A6
:1020000004024FF02043C3F8802014E0102809D1C7
:102010004FF02042126E1A4BDB1E1A404FF0204345
:102020001A6608E0154A1268154BDB1E1A404FF07D
:102030002043C3F88020704748B110492031096817
:1020400041F004014FF02042C2F8A01009E00B4912
:10205000203109680A4AD21E11404FF02042C2F8CE
:10206000A0107047B9B110280CD14FF02042126E69
:1020700042F040024FF020431A661FE0800000A0AB
:10208000FEFF0F00724A126842F040024FF02043F8
:10209000C3F8802012E0102808D14FF02042126EC1
:1020A0006C4B1A404FF020431A6607E0684A1268EA
:1020B000684B1A404FF02043C3F880207047014618
:1020C0000020102903D14FF02042506F02E0604AF7
:1020D00014321068704710B5F2B1102807D14FF0D4
:1020E00020435B6E0B434FF02044636632E0B0F553
:1020F000807F08D1564B1B1D1B680B434FF02044BB
:10210000C4F8843026E0524B24331B680B434FF055
:102110002044C4F8A4301DE0102807D14FF020431C
:102120005B6E8B434FF02044636613E0B0F5807F15
:1021300008D1474B1B1D1B688B434FF02044C4F84C
:10214000843007E0424B24331B688B434FF020441C
:10215000C4F8A43010BD10B5024600200023102A98
:1021600003D14FF02044636E09E0B2F5807F03D1C4
:10217000374C241D236802E0354C2434236803EADD
:1021800001040CB1012000E0002010BD102807D18F
:102190004FF02042526E8A434FF020435A6613E0BC
:1021A000B0F5807F08D12A4A121D12688A434FF089
:1021B0002043C3F8842007E0254A243212688A436A
:1021C0004FF02043C3F8A420704770B502460020AA
:1021D000002300240025102A03D14FF02046736EFF
:1021E00009E0B2F5807F03D1194E361D336802E055
:1021F000174E2436336803EA010403EAD10514B10B
:102200000DB1012000E0002070BD102808D14FF072
:102210002042526E22EAD1024FF020435A6615E066
:10222000B0F5807F09D10A4A121D126822EAD10254
:102230004FF02043C3F8842008E0054A2432126896
:1022400022EAD1024FF02043C3F8A42070470000D7
:10225000800000A0BFFF0F000CB50020019000908F
:102260006C48006840F480306A49086000BF6948E3
:10227000006800F4003000900198401C0190009824
:1022800018B90198B0F5A06FF1D16248006800F468
:10229000003010B10120009001E000200090009873
:1022A000012843D15C48006840F010005A4908609A
:1022B0000846006820F0030008600846006840F007
:1022C0000200086053484068524948600846406828
:1022D00048600846406840F48060486008464068AE
:1022E00020F47C1048600846406840F4E8104860DC
:1022F0000846006840F08070086000BF45480068EC
:1023000000F000700028F9D04248406820F0030037
:10231000404948600846406840F00200486000BFFD
:102320003C48406800F00C000828F9D10CBD10B5FD
:10233000FFF792FF10BD10B53648006840F001006D
:1023400034490860084640683449084031494860CB
:1023500008460068324908402E490860084600686F
:1023600020F4802008600846406820F4FE004860A1
:102370004FF41F008860FFF7DAFF4FF00060294933
:10238000086010BD10B5002100200022214B5B68C1
:1023900003F00C0121B1042906D0082928D107E057
:1023A000214B224C236027E01F4B204C236023E06D
:1023B000184B5B6803F47010164B5B6803F48032B3
:1023C000022303EB904022B9194B4343174C23607F
:1023D0000DE0104B5B6803F4003323B1144B43430F
:1023E000124C236003E0104B4343104C236003E086
:1023F0000D4B0E4C236000BF00BF064B5B68C3F360
:1024000003130C4CE15C094B1B68CB40074C236069
:1024100010BD000000100240002002400000FFF844
:10242000FFFFF6FE08ED00E000127A001400002025
:1024300000093D001800002038B5FEF7B5F84FF44C
:102440008030FEF7D1F8FEF70EF90446012C1ED1BC
:102450000020FEF74EF90020FEF75DF9A002FEF71E
:1024600051F94FF4E0112004FEF726F90120FEF7A0
:102470002FF900BF3920FEF7DAF80028FAD0022041
:10248000FEF729F900BFFEF72FF90828FBD101213B
:102490000420FEF7F7F901210820FEF7F3F90121E6
:1024A0001020FEF7EFF94020ADF8000003208DF872
:1024B000020010208DF803006946FE48FDF726FF54
:1024C0000120FD49086038BD1CB5FFF7B5FF00F0DD
:1024D00007FD00F0D8FD00F09CFB00F011FE00F0BD
:1024E00058FC00F072FC00F085FC00F060FC00F08D
:1024F0008FFC01F0BCF801F0B3FE4FF6FF7001F065
:102500000BFA01F097FCED480288ED480188ED4890
:10251000008801F0DFFC70E2EB48007800287DD0F5
:102520000020E9490870E9480078401CE749087034
:10253000E748007830B101280FD0022814D00328D2
:1025400020D118E0E1480078052805DB002000F0E4
:1025500040FF0020DD49087015E0012000F039FF40
:102560000020DB4908700EE0022000F032FF00205E
:10257000D749087007E0032000F02BFF0020D44962
:10258000087000E000BF00BF0020D249087018E0CA
:10259000D148D049097850F82100D0490968084449
:1025A000CE490860CE48CB49097850F82100CD4982
:1025B00009680844CB490860C6480078401CC549F2
:1025C0000870C44800781428E2DBC448006814216D
:1025D00090FBF1F4204602F065FFC3490860C14852
:1025E0000068142190FBF1F4204602F05BFFBF4924
:1025F0000860BF49BD48006802F0B8FF804602F09D
:1026000083FE04460D46BB49B748006802F0AEFFA2
:10261000019002F079FE8046002200E05EE0B64BB9
:1026200002F0FAFB064622462B4602F031FA8246B9
:1026300002F048F9B14908600846006802F064FEFB
:1026400004460022AE4B02F0E5FC16D8AB48006809
:1026500002F05AFE8046AB4AAB4B02F0DDFB064669
:102660000022AA4B02F060F9044602F028F98246E3
:1026700002F066FBA649086016E0A048006802F078
:1026800043FE82469F4AA34B02F0C6FB06464FF02C
:102690006632A14B02F048F9044602F010F9804678
:1026A00002F04EFB9A49086091499048006802F098
:1026B000C5FE01D1012000E000208749096809B961
:1026C000012100E00021084318B14FF4C87090497F
:1026D00008600020814908608249086076487038A7
:1026E000006800287ED18D49087001208C4908704F
:1026F0008C48007820B901206F490860894908702A
:1027000089480078022807D101F02EFF8749087018
:102710000A208549087070E18348007818B90220C2
:102720008149087069E1804800780128F3D10020D0
:102730007F4908707D4800780E287DD2DFE800F0E0
:102740007C070E38617C7C7C7C7C6989A3B87948E5
:10275000007810B902205E4908703DE176480078A3
:1027600001280FD100F02AFB7448018874480088C2
:1027700001F086FC6E49087002206F49087000F075
:1027800016FB14E06C480078022810D100F016FB0C
:102790005F4802684A4801884A48008801F09AFB6D
:1027A0006349087001206449087000F000FB13E1E0
:1027B00061480078022823D100F000FB54480268E9
:1027C0003F4801883F48008801F084FB5849087061
:1027D0000120594908705948008800904C480088E9
:1027E00083B200E0FDE0564802883548018835484C
:1027F000008800F061FE01203549087000F0D7FA2A
:10280000EAE04C480078012802D1032030490870E2
:10281000E2E04948007802281AD149480088002897
:1028200016DD47480088401E454908804549444810
:10283000008801F02AFA00E0CDE0022047F6FF51BF
:102840000023404ACDE9001078210A2001F097F9D1
:10285000C2E039480078022814D139480088401C69
:102860003749088037493648008801F00EFA0220BF
:1028700047F6FF510023334ACDE9001078210A20A2
:1028800001F07DF9A8E02C48007802287DD120488D
:10289000006800287CDD29480088401E2749088000
:1028A00008460088B0F5FA7F4FDA4FF4FA704BE033
:1028B0006FE0000000100140980122423200002029
:1028C0002E0000202C000020440000204A000020A0
:1028D0004900002068000020000500206000002062
:1028E0005005002064000020580000205C000020FB
:1028F000000020420000A04100409F405400002002
:1029000000A07040CDCCCCCCCCCCEC3F004075408E
:1029100050000020CCCC00406666344046000020C9
:1029200048000020450000203B0000203C00002023
:102930006A000020470000203D00002038000020F1
:10294000360000203E00002008809048008840F2B9
:10295000E73188420AD147F6FF50B42340F2B31260
:10296000642100904FF4917001F01AF8884987486B
:10297000008801F02BF9022047F6FF510023844A1A
:10298000CDE900107821FC2000E001E001F0F7F82B
:1029900022E08048007802281CD17C480088401C36
:1029A0007A49088008460088B0F57A7F02DD4FF446
:1029B0007A70088076497548008801F007F902208E
:1029C00047F6FF510023724ACDE900107821FC2020
:1029D00001F0D5F800E000BF00BF00206E4908708C
:1029E0000BE06E48006840B16D480078012804D1C2
:1029F00000206949087001F061FE8DE57CB5002476
:102A0000002501F0DDFE6748C178807801EB0020E9
:102A1000A0F11C0463484178007801EB0025B4F56F
:102A2000A07F01DD012000E00020B42C01DA0121AB
:102A300000E00021084300B1FF2456480078012837
:102A40002FD15349204601F020F9022047F6FF51CB
:102A500000234F4ACDE9001078210A2001F08FF8B9
:102A60004B495148006801F0B1F8012047F6FF5189
:102A70000023474ACDE90010BC214FF4977001F0C4
:102A80007EF84349284601F000F9012047F6FF513E
:102A900000233F4ACDE900105A214FF4977001F00E
:102AA0006EF842490D8042490C80384800880090F9
:102AB0003D48008883B23F480288084601883B4869
:102AC000008800F0F9FC7CBD1CB50446012C1AD12D
:102AD0003949087040F2CF1145F6CB2337A2CDE932
:102AE0000010F7210A2001F04AF8012040F2CF112E
:102AF0004FF6FF7332A2CDE90010F7214FF4CD70ED
:102B000001F03DF81CE0DCB900202B4908700120E1
:102B100040F2CF114FF6FF7328A2CDE90010F72144
:102B20000A2001F02CF8012040F2CF1145F6CB230A
:102B300023A2CDE90010F7214FF4CD7001F01FF86A
:102B40001CBD10B50446012C04D0022C06D0032C69
:102B500009D107E00120FFF7B7FF05E00020FFF7EC
:102B6000B3FF01E000E000BF00BF10BD70B5044638
:102B70000D46E1B21348FEF733FF00BF8021114834
:102B8000FEF79CFF0028F9D0204670BD38000020D9
:102B90003E0000203D0000203C0000202801224291
:102BA00048000020F8030020500000202C000020E6
:102BB0002E00002036000020470000204F4E00006D
:102BC0004F4646000038014010B50121C802FDF70C
:102BD00059FE01210846FDF762FE01210220FDF7A2
:102BE0005EFE01210420FDF75AFE01210820FDF7B9
:102BF00056FE10BD08B504208DF803000220ADF884
:102C0000000003208DF802006946A848FDF77EFB0E
:102C100008BD00B587B0A648FDF798FE4FF080408C
:102C2000FDF794FEA348FDF791FEA348FDF78EFE45
:102C3000A248FDF78BFEFFF7C7FFFFF7DBFF082079
:102C4000ADF8140048F69F40ADF810000020ADF834
:102C50001600ADF8120004A99548FDF74BFF0121BD
:102C60009348FEF769FD01219148FEF79FFA44F66B
:102C70002060ADF814009248006842F21071B0FB79
:102C8000F1F0401E80B2ADF810000020ADF8160043
:102C9000ADF8120004A94FF08040FDF72BFF04208F
:102CA000ADF804000020ADF806000120ADF80800E2
:102CB0000020ADF80A000120ADF80C0001A9800742
:102CC000FEF7ABF901A94FF08040FEF7F1F9602162
:102CD0004FF08040FEF7A4FA04210807FEF7E8FC55
:102CE0008021C805FEF7EDFC04210807FEF738FD3A
:102CF00001218807FEF75AFA40F2DC50ADF81400C3
:102D000048F69F40ADF810000020ADF81600ADF871
:102D1000120004A96848FDF7EDFE01216648FEF7A0
:102D20000BFD01216448FEF741FA4FF47A70ADF8CB
:102D3000140048F69F40ADF810000020ADF81600D2
:102D4000ADF8120004A95B48FDF7D4FE01215948F3
:102D5000FEF7F2FC01215748FEF728FA49F64040F9
:102D6000ADF8140048F69F40ADF810000020ADF813
:102D70001600ADF8120004A95048FDF7BBFE012172
:102D80004E48FEF7D9FC01214C48FEF70FFA07B078
:102D900000BD10B5012211464648FEF722FA10BDCB
:102DA00010B5002201214348FEF71BFA10BD10B5F3
:102DB000012211464048FEF714FA10BD10B500225A
:102DC00001213D48FEF70DFA10BD10B50122114654
:102DD0003748FEF706FA10BD10B50022012134482D
:102DE000FEF7FFF910BD10B5002204210807FEF719
:102DF000F8F910BD10B5012204210807FEF7F1F91A
:102E000010BD10B5002201212C48FEF7EAF910BDD3
:102E100010B5012211462948FEF7E3F910BD01461D
:102E200001EBC1024FF0E0235A6100229A610122B6
:102E30001A6100BF4FF0E022106900F001021AB1E0
:102E400000F48032002AF5D000224FF0E0231A610E
:102E50009A617047014642F228324A434FF0E0231C
:102E60005A6100229A6101221A6100BF4FF0E022EC
:102E7000106900F001021AB100F48032002AF5D086
:102E800000224FF0E0231A619A61704730B5044682
:102E9000002504E06420FFF7DDFF681C85B204EB29
:102EA0008400B5EB400FF5DB30BD000000080140A9
:102EB000002C01400004004000080040000C0040CD
:102EC0001400002010B501210520FDF7DBFC0121D5
:102ED0008803FDF7D7FC01214804FDF7E0FC10BD95
:102EE00008B500214FF00060FEF779FE4FF4407006
:102EF000FEF73EFE1C208DF8000001208DF8010039
:102F00008DF803006846FEF738FE26208DF8000095
:102F100000208DF8010001208DF803006846FEF7BF
:102F20002CFE1E208DF8000003208DF801000120EA
:102F30008DF803006846FEF720FE1D208DF8000086
:102F400004208DF8010001208DF803006846FEF78B
:102F500014FE19208DF8000005208DF801000120D5
:102F60008DF803006846FEF708FE32208DF8000059
:102F700006208DF8010001208DF803006846FEF759
:102F8000FCFD36208DF8000007208DF8010001209F
:102F90008DF803006846FEF7F0FD08BD08B518205F
:102FA0008DF803004FF40070ADF8000003208DF899
:102FB000020069465C48FDF7A9F904208DF803007A
:102FC0000002ADF8000003208DF802006946564863
:102FD000FDF79CF918208DF803000420ADF80000DF
:102FE00003208DF8020069464F48FDF78FF9042051
:102FF0008DF803000820ADF8000003208DF80200D2
:1030000069464948FDF782F908BD7047704708B521
:103010000120FFF71FFF4FF480514348FDF723FACB
:103020004FF48050ADF8000003208DF80200182006
:103030008DF8030069463C48FDF768F9012240F22B
:1030400025513A48FEF76BFC08BD08B50120FFF793
:1030500001FF012240F227713448FEF760FC4FF473
:1030600080513148FDF701FA4FF48050ADF800006F
:1030700003208DF8020010208DF8030069462A48CD
:10308000FDF744F908BD1FB5FFF71CFFFFF786FFEA
:10309000FFF726FF2648FEF767FB2448FEF764FB90
:1030A0004FF4165000900020ADF80600ADF8040073
:1030B000ADF80800ADF80C000C20ADF80A00694628
:1030C0001B48FEF794FB40211948FEF704FD01213F
:1030D0001748FEF718FC69461448FEF788FB4021A4
:1030E0001248FEF7F8FC01211048FEF70CFC1FBD4A
:1030F00010B5012240F225510D48FEF710FC10BD1D
:1031000010B5012240F225510848FEF708FCFFF7F0
:103110007EFF10BD10B5002240F225510448FEF795
:10312000FEFBFFF772FF10BD0008014000440040A5
:1031300000380140704700BFFEE700BFFEE700BF58
:10314000FEE700BFFEE7704770477047704710B555
:103150000121FE48FEF7F3FA012819D1FC48007856
:10316000401CFB49087008460078062803D101205E
:10317000F849087008E0F6480078122804D10020C9
:10318000F4490870F24908700121F048FEF7E8FAA6
:1031900010BD10B50024F0480078401CEE490870BE
:1031A00004210807FEF7CBFA48B304210807FEF70D
:1031B000D7FA4FF08040FEF7A6FAE84908604FF0D2
:1031C0008040FEF79DFAE6490860E4480068E5495A
:1031D000C864E3480068E449C86400BF0DE0E24900
:1031E000601C51F8200041F82400DE49601C51F8B1
:1031F000200041F82400601CC4B2132CEFDB10BD8A
:1032000010B50121D948FEF79AFA012806D101210B
:10321000D648FEF7A5FA0120D549087010BD10B5B3
:103220000121D448FEF78BFA012805D10121D148AC
:10323000FEF796FAFFF7E2FB10BD10B50121CE486C
:10324000FEF77DFA012813D10121CB48FEF788FA59
:10325000CA480078082806D10020C9490870C74923
:103260000870C8490860C5480078401CC349087008
:1032700010BD10B50121C448FEF761FA01281FD125
:103280000121C148FEF76CFAC0480078401CBF49D4
:10329000087008460078202812D100200870002409
:1032A00004E00020BA490855601CC4B2182CF8DBB1
:1032B0000020B849087000220121B348FDF791FFB2
:1032C00010BD7047704710B5B3488078022804D00D
:1032D000032806D004280CD107E00320FFF731FCB7
:1032E00008E00120FFF72DFC04E00220FFF729FC95
:1032F00000E000BF00BF10BD10B500240821A748A2
:10330000FEF7DCFB012806D10821A448FEF7E3FB09
:10331000A248FEF769FB40F22551A048FEF7E4FB06
:10332000C8B19E48FEF760FB99499A4A12788854C2
:1033300098480078401C9749087008460078012892
:1033400004D1012211469048FDF74BFF40F2255170
:103350009248FEF7F3FB8F480078182830D1002000
:103360008C49087001208E490870894800785528DA
:103370000BD187484078662807D18548807D66282C
:1033800003D18348C07D552802D0002084490870AD
:103390008348007888B1002405E07D48005D7E49BF
:1033A0000855601CC4B2182CF7DBFFF78CFF002017
:1033B000784908707B49087002E000207549087060
:1033C000FFF725FE002240F227717448FEF7A7FAA6
:1033D00010BD70B50546FFF738FE0120FFF73AFD36
:1033E00035B1012D13D0022D23D0032D45D132E06C
:1033F000002409E06C48015D6848FEF7F1FA0220FC
:10340000FFF728FD601CC4B2182CF3DB36E0002463
:103410000CE06648015D6148FEF7E2FA0220FFF722
:1034200019FD012062490870601CC4B2182CF0DB41
:1034300024E000240CE05F48015D5848FEF7D0FA14
:103440000220FFF707FD022059490870601CC4B232
:10345000182CF0DB12E000240CE05748015D4F48C7
:10346000FEF7BEFA0220FFF7F5FC03205049087072
:10347000601CC4B2182CF0DB00E000BF00BF0022CB
:1034800040F227714548FEF74AFAFFF7C0FD70BDCC
:10349000F0B503460C460025214604E05E5C2E4450
:1034A000B5B24E1CF1B29142F8DB642695FBF6F7FB
:1034B00006FB1756F0B2F0BDF0B5059C642593FBF2
:1034C000F5F5394EF570642593FBF5F605FB1635D9
:1034D000354E3571642594FBF5F57571642594FBC3
:1034E000F5F605FB1645304EB571642591FBF5F5F3
:1034F000F571642591FBF5F605FB16152A4E35721C
:10350000642592FBF5F57572642592FBF5F605FBD3
:103510001625254EB572642590FBF5F5F5726425E8
:1035200090FBF5F605FB16051F4E35733546ED7815
:10353000367935441C4E767935441B4EB679354480
:10354000194EF6793544184E367A37E0002C014092
:103550003A0000203B000020ED000020E4000020A5
:10356000E800002050050020000500200004004075
:103570004400002000080040000C004046000020ED
:10358000450000209801224200100040D600002093
:10359000B80500206D000020A00500200044004078
:1035A000D8000020D30000206E00002086000020FC
:1035B000D20000209E000020B600002035440D4EB1
:1035C000767A35440B4EB67A35440A4EF67A35444F
:1035D000084E367B3544074E767B3544054EB67B28
:1035E0003544642695FBF6F706FB1755014E7575B5
:1035F000F0BD00006E0000207047F9490880704758
:10360000F749891E0880704700B502460B4690B204
:10361000FFF7F6FF98B2FFF7F0FF00BD30B50446A4
:103620000D462A20FFF7ECFFC4F30F20FFF7E5FF5C
:10363000E0B2FFF7E2FFC2F30F20FFF7DEFFD0B2E8
:10364000FFF7DBFF2B20FFF7DBFFC5F30F20FFF7B2
:10365000D4FFE8B2FFF7D1FFC3F30F20FFF7CDFF90
:10366000D8B2FFF7CAFF2C20FFF7CAFF30BD00B564
:103670009FB001210802FDF7F8F801216820FDF74D
:1036800001F94EF2B370ADF8780003208DF87A009E
:1036900018208DF87B001EA9D248FCF737FE4FF6A4
:1036A0008070ADF878001EA9CF48FCF72FFE0220ED
:1036B000ADF8780003208DF87A0010208DF87B009B
:1036C0001EA9CA48FCF722FE02200890012009909A
:1036D0000A200A9001200B900C900D9000200E9073
:1036E00002200190012002900A2003900120049002
:1036F00005900690002007900F90109011901020D8
:1037000012900020139015901490169017904FF47B
:1037100080501890002019904FF480401A9000209B
:103720001B9008A81C9001A81D900FA8FEF7DAFABC
:1037300001210020FEF73EFC0020AD490860322048
:10374000FFF788FB0120AB49C1F884013220FFF765
:1037500081FBE220FFF754FF2D20FFF74EFF0220F0
:10376000FFF74BFF0420FFF748FFE020FFF748FF7B
:103770000120FFF742FF0120FFF76CFBE020FFF77D
:103780003FFF0320FFF739FF0520FFF763FB012010
:10379000FFF736FF0520FFF75DFBE620FFF730FF60
:1037A0000020FFF72AFFFF20FFF727FFBE20FFF7CB
:1037B00024FFB020FFF724FF2020FFF71EFF00208A
:1037C000FFF71BFF0120FFF718FFDF20FFF715FFB2
:1037D0000120FFF712FF0F20FFF70FFF0020FFF778
:1037E0000CFF0520FFF736FBB420FFF709FF02208E
:1037F000FFF703FF1320FFF700FF0020FFF7FDFE98
:103800002B20FFF7FAFE0A20FFF7F7FE0020FFF754
:10381000F4FE0820FFF7F1FE0020FFF7EEFEB620D1
:10382000FFF7EEFE0120FFF7E8FE2020FFF7E5FEA0
:103830000020FFF7E2FE0C20FFF7DFFE0A20FFF773
:10384000DCFE0020FFF7D9FE0420FFF7D6FE36206D
:10385000FFF7D6FE0020FFF7D0FEF020FFF7D0FEE6
:103860000320FFF7CAFE0520FFF7F4FA2920FFF72F
:10387000C7FEBE20FFF7C4FE0620FFF7BEFEF02005
:10388000FFF7BBFE0120FFF7B8FEF020FFF7B5FE03
:103890000020FFF7B2FE0020FFF7AFFED020FFF7B9
:1038A000AFFE0D20FFF7A9FEB820FFF7A9FE00200C
:1038B000FFF7A3FE0120FFF7A0FEBA20FFF7A0FE4E
:1038C0000020FFF79AFE1FB000BD00B52C20FFF7C7
:1038D00097FE00BD00B502460B462A20FFF790FE7A
:1038E0001012FFF78AFED0B2FFF787FE0120FFF724
:1038F00084FEDF20FFF781FE2B20FFF781FE1812E8
:10390000FFF77BFED8B2FFF778FE0120FFF775FEC8
:103910000F20FFF772FE00BD70B50646002400259B
:1039200040F2191340F2DF1200210846FFF776FE3D
:1039300000BF09E0002503E03046FFF75EFE6D1C86
:10394000B5F58D7FF8DB641CB4F5F07FF2DB70BD5C
:1039500070B5044600250026E92340F2DF122D2130
:103960000020FFF75BFE00BF08E0002603E0A0B2E6
:10397000FFF743FE761CE92EF9DB6D1CB5F5EF7FF2
:10398000F3DD70BD70B505460E4614463146284637
:10399000FFF7A0FFFFF799FF2046FFF72EFE70BD4F
:1039A0002DE9F04704460D4616461F46DDF820A0D7
:1039B0003B46324629462046FFF730FEA8460BE03C
:1039C000A14605E01FFA8AF0FFF717FE09F1010989
:1039D000B145F7D908F10108B845F1D9BDE8F0873C
:1039E000000008600014014000180140000C014074
:1039F00084812142008021422DE9FF4F88B0074693
:103A00008846DDF854904FF0000BB8B205901FFACD
:103A100088F00490BCB21FFA88F5DA4600200390C3
:103A200002900026019000900A982038304486B217
:103A3000FD4800EBC60080881FFA80FAFA49701C26
:103A400001EBC000808880B20390084630F8360051
:103A5000401C80B202900398A0EB0A0080B2019053
:103A60000020069048E0F14810F80AB00AF1010081
:103A70001FFA80FA0020079036E00BF0800018B1A2
:103A80000B9880B2009002E01FFA89F0009029465E
:103A90002046009AFFF776FF4FEA4B604FEA106B23
:103AA000601C84B2B4F5F07F05DB1FFA89F000904A
:103AB0000CB0BDE8F08F0598211A029881420FD111
:103AC000059C681C85B2B5F58D7F03DB1FFA89F074
:103AD0000090EDE70498281A322800DBE8E706E0BA
:103AE0000798401C80B2079007980828C5DB00BFE4
:103AF0000698401C80B20690019906988842B2DB75
:103B000000BFD5E72DE9F04F06460F46904699468F
:103B1000DDF824B0002507F1150306F10F02394640
:103B20003046FFF77BFDA8F12000C0EBC00000EBA2
:103B3000400005EB40054FF0000A1BE0002412E0B6
:103B4000BB48405DC4F1070201219140084020B10B
:103B50001FFA89F0FFF751FD03E01FFA8BF0FFF722
:103B60004CFD601CC4B2082CEADB6D1C0AF101009C
:103B700000F0FF0ABAF12A0FE0DBBDE8F08F2DE973
:103B8000F84F06460F4614469946DDE90A8A35463F
:103B9000BB4616E0BAF1010F09D1CDF800802278BA
:103BA0004B4659462846FFF7ADFF0C3508E0CDF8E7
:103BB000008022784B4659462846FFF71DFF2635E0
:103BC000641C20780028E5D1BDE8F88F42F210721D
:103BD00090FBF2F212B920220A7005E042F2107254
:103BE00090FBF2F230320A7042F2107290FBF2F265
:103BF0003AB94FF47A7290FBF2F212B920224A706D
:103C00000DE04FF47A7290FBF2F242F2107390FBE7
:103C1000F3F303EB8303A2EB430230324A7042F228
:103C2000107290FBF2F25AB94FF47A7290FBF2F2F2
:103C300032B9642290FBF2F212B920228A700CE0B1
:103C4000642290FBF2F24FF47A7390FBF3F303EBF0
:103C50008303A2EB430230328A700A2290FBF2F215
:103C6000642390FBF3F303EB8303A2EB43023032B4
:103C7000CA700A2290FBF2F202EB8202A0EB42022F
:103C800030320A7100224A71704742F2107290FB82
:103C9000F2F23AB94FF47A7290FBF2F212B92022A2
:103CA0000A700DE04FF47A7290FBF2F242F2107358
:103CB00090FBF3F303EB8303A2EB430230320A7071
:103CC00042F2107290FBF2F25AB94FF47A7290FB02
:103CD000F2F232B9642290FBF2F212B920224A7059
:103CE0000CE0642290FBF2F24FF47A7390FBF3F352
:103CF00003EB8303A2EB430230324A700A2290FBAB
:103D0000F2F2642390FBF3F303EB8303A2EB430291
:103D100030328A702E22CA700A2290FBF2F202EB35
:103D20008202A0EB420230320A7100224A717047CF
:103D300042F2107290FBF2F23AB94FF47A7290FBB1
:103D4000F2F212B920220A700DE04FF47A7290FB61
:103D5000F2F242F2107390FBF3F303EB8303A2EB56
:103D6000430230320A70642290FBF2F24FF47A730D
:103D700090FBF3F303EB8303A2EB430230324A7070
:103D80002E228A700A2290FBF2F2642390FBF3F356
:103D900003EB8303A2EB43023032CA700A2290FB8A
:103DA000F2F202EB8202A0EB420230320A710022F0
:103DB0004A71704742F2107290FBF2F25AB94FF416
:103DC0007A7290FBF2F232B9642290FBF2F212B9ED
:103DD00020220A700CE0642290FBF2F24FF47A7316
:103DE00090FBF3F303EB8303A2EB430230320A7040
:103DF0000A2290FBF2F2642390FBF3F303EB8303BC
:103E0000A2EB430230324A700A2290FBF2F202EB3C
:103E10008202A0EB420230328A702422CA7043220E
:103E20000A7100224A717047F8000020606700089C
:103E3000565600081CB540F2CF102D2340F2DF1279
:103E4000002100900846FFF7ABFD40F2CF1040F292
:103E5000191340F2DF12EB2100900020FFF7A0FDC4
:103E600040F2CF1040F2DF13F22200210090EE204A
:103E7000FFF796FD40F2CF108E2340F2DF128A2129
:103E80000090F220FFF78CFD012040F2CF114BF2A1
:103E90002373D4A2CDE9001008210A20FFF76FFE9A
:103EA000012040F2CF114FF6FF73D0A2CDE90010F0
:103EB000F7210A20FFF763FE012040F2CF114FF6F1
:103EC000FF73CBA2CDE90010F7214FF4CD70FFF7BF
:103ED00056FE1CBD2DE9FF4106460C46154600273F
:103EE00047F6FF50FFF734FD40F2CF1040F21913B0
:103EF000F2222D210090EE20FFF752FD4BF22370AD
:103F0000EB23F3222D210090F220FFF749FD40F230
:103F1000CF108E2340F2DF128A210090F220FFF7AB
:103F20003FFD4BF223708F2340F2DF128E21009071
:103F3000F220FFF735FD40F2CF1040F219134FF495
:103F4000BE72EB210090F220FFF72AFD4BF22370A6
:103F5000EB2340F2DF12EA2100900020FFF720FD62
:103F60004BF223702E2340F2DF122D21009000200F
:103F7000FFF716FD012047F6FF5100239DA2CDE972
:103F800000103C211420FFF7FAFD012047F6FF51F5
:103F900000239CA2CDE900103C214FF48370FFF771
:103FA000EEFD012047F6FF51002397A2CDE9001056
:103FB0009E214FF48370FFF7E2FD012040F2CF1104
:103FC0004FF6FF7392A2CDE90010F7217F20FFF793
:103FD000D6FD02A92046FFF758FE022047F6FF5102
:103FE000002302AACDE9001078210A20FFF7C7FDBF
:103FF000012047F6FF51002387A2CDE90010782168
:10400000C820FFF7BCFD02A92846FFF7DFFD01200D
:1040100047F6FF51002302AACDE90010BC214FF45E
:104020009770FFF7ACFD012047F6FF5100237BA2FC
:10403000CDE90010BC214FF4B970FFF7A0FD02A933
:104040003046FFF722FE012047F6FF51002302AA67
:10405000CDE900105A214FF49770FFF790FD012031
:1040600047F6FF5100236EA2CDE900105A214FF40C
:10407000B970FFF784FD0127384604B0BDE8F08130
:104080007FB505460C46002647F6FF50FFF760FC5B
:10409000012040F2CF114FF6FF7362A2CDE900106C
:1040A000F7217820FFF76BFD012040F2CF114FF68A
:1040B000FF735FA2CDE90010F721F220FFF75FFD4B
:1040C00040F2CF1040F2DF13F22200210090EE20E8
:1040D000FFF766FC4BF22370EB23F3222D210090B7
:1040E000F220FFF75DFC4BF22370EB2340F2DF126E
:1040F000EA2100900020FFF753FC4BF223702E239F
:1041000040F2DF122D2100900020FFF749FC012032
:1041100047F6FF51002349A2CDE900103C211420AD
:10412000FFF72DFD012047F6FF51002347A2CDE9FF
:1041300000103C214FF48870FFF721FD012047F665
:10414000FF514BF2237344A2CDE900108C210F20C4
:10415000FFF715FD012047F6FF5147F6CF333FA289
:10416000CDE900108C21C820FFF709FD012047F69A
:10417000FF514BF2237338A2CDE900108C214FF48C
:104180008270FFF7FCFC012047F6FF5147F6CF3362
:1041900032A2CDE900108C214FF4E170FFF7EFFC63
:1041A00002A92846FFF771FD022047F6FF510023C0
:1041B00002AACDE9001078210A20FFF7E0FC02A94D
:1041C0002046FFF703FD022047F6FF51002302AA15
:1041D000CDE900107821FC20FFF7D1FC0126304604
:1041E00004B070BD41495220542644004F4E000097
:1041F0004F46460054656D70657261747572653A1C
:104200000000000052483A00434F233A00000000EB
:10421000434F4E46494700002443000070706D0034
:104220002500000020204241434B202000000000D8
:1042300020205341564520200000000054656D7039
:104240006572617475726520244300002020434F1D
:10425000232070706D0000003C0000003E00000054
:1042600008B501211020FCF70DFB0B20ADF8000074
:1042700003208DF8020010208DF803006946FE48E7
:10428000FCF744F840F20440ADF8000003208DF83C
:10429000020048208DF803006946F748FCF736F81D
:1042A00008BD002100BF15E000F080021AB1012214
:1042B000F24B1A6002E00022F04B1A604206100E28
:1042C0000022EE4B083B1A600122ED4BC3F884211B
:1042D0004A1CD1B20829E7DB704770B506460025B5
:1042E00000240020E54908390860E549C1F88C013F
:1042F000E2490C3908603046FFF7D3FF0620FEF78D
:104300008EFD0020DE49C1F884010120FEF787FD03
:104310000120DA49083908600020D949C1F8840130
:1043200000BF13E04FF6FF7000EA44040020D349B9
:10433000083908600120D249C1F88401CF48843887
:10434000006808B1601C84B2681CC5B2102DE9DB9E
:1043500024110120C9490C390860204670BD2DE99F
:10436000F04186B080460027002407E04046FFF772
:10437000B4FF01A921F81400601C84B20A2CF5DBFB
:1043800000241BE0601C85B214E001A830F8140082
:1043900001A931F8151088420ADD01A830F814602F
:1043A00030F8150001A921F8140001A820F81560C3
:1043B000681C85B20A2DE8DB601C84B2092CE1DBA5
:1043C0000027022406E001A830F81400384487B220
:1043D000601C84B2082CF6DB062097FBF0F086B256
:1043E000304606B0BDE8F0812DE9F04104460D46A7
:1043F000D020FFF7B4FF06469020FFF7B0FF074636
:1044000026802F800120BDE8F0817FB504460D464F
:1044100002A903A8FFF7E8FF064616B9002004B07A
:1044200070BD694601A8FFF7DFFF06460EB9002000
:10443000F5E7BDF80400BDF80C10884206DCBDF8B5
:104440000C10BDF804001E3081420CDBBDF80C00DE
:10445000BDF80410884236DCBDF80410BDF80C002D
:104460001E3081422FDABDF80000BDF808108842E6
:1044700006DCBDF80810BDF800001E3081420CDBE0
:10448000BDF80800BDF8001088421CDCBDF8001023
:10449000BDF808001E30814215DABDF80C10BDF8D9
:1044A0000420881800EBD071C1F34F012180BDF8C2
:1044B0000810BDF80020881800EBD071C1F34F013F
:1044C00029800120ABE70020A9E710B500246D4941
:1044D000881EFFF79AFF012844D101246948801EF5
:1044E000008840F63C7188420CDD6648801E0088DA
:1044F000A0F63C704FF47A71484341F6A671B0FBC8
:10450000F1F00CE05F48801E008840F63C71081A0C
:104510004FF47A71484341F6A671B0FBF1F05A4965
:1045200008805848801E4088B0F5666F0CDD5548FD
:10453000801E4088A0F566604FF47A71484342F6C9
:10454000FC61B0FBF1F00BE04E48801E4088C0F5E6
:1045500066604FF47A71484342F6FC61B0FBF1F0BB
:1045600049494880204610BD10B5FFF7AEFF4648C8
:10457000008800280EDD444800883C280ADA4248BA
:104580004088E62806DD40484088B0F58C7F01DC95
:10459000012010BD3C48008864280EDD3A480088A0
:1045A000B4280ADA38484088E62806DD36484088CC
:1045B000B0F58C7F01DC0220EBE733480088E62869
:1045C0000FDD31480088B0F5917F0ADA2E48408827
:1045D000E62806DD2C484088B0F58C7F01DC0320FE
:1045E000D7E729480088B0F5C87F0FDD2648008846
:1045F000B0F5F07F0ADA24484088E62806DD224834
:104600004088B0F58C7F01DC0420C2E71E4800889A
:1046100000280DDD1C4800881E2809DA1A48408849
:10462000782805DD18484088A02801DA0A20B0E77C
:1046300015480088B4280DDD13480088DC2809DA05
:1046400011484088782805DD0F484088A02801DA05
:104650000B209EE70C480088F02819DD0A480088E6
:10466000B0F58C7F14DA08484088782810DD0648B9
:104670004088A0280CDA09E0001001408C01224299
:1046800000002242F2030020F40300200C2080E707
:104690000D480088B0F5D77F0EDD0B480088B0F5D7
:1046A000EB7F09DA08484088782805DD064840880D
:1046B000A02801DA0D206CE763206AE70020024998
:1046C0000880488070470000F403002008B50120EE
:1046D000ADF8000003208DF8020004208DF80300DF
:1046E00069465248FBF712FE08BD08B50120ADF837
:1046F000000003208DF8020010208DF803006946A9
:104700004A48FBF703FE08BD10B5FFF7EEFF002097
:10471000474908601220FEF79DFB01204549C1F87A
:1047200080011920FEF77BFBFFF7D0FF404880385F
:10473000006868B900BF3E48803800680028FAD099
:1047400000BF3B48803800680028FAD1012010BD26
:104750000020FCE770B5002500242EE036480078E4
:104760004006000E344908701420FEF758FB00BFC5
:104770002F48803800680028FAD01920FEF74FFB38
:10478000642500BF281E05F10101CDB2FAD12848E9
:104790008038006848B12848007840F00100264978
:1047A00008701E20FEF73BFB05E02348007800F070
:1047B000FE0021490870601CC4B2082CCEDB70BD1D
:1047C00010B5FFF7A1FF48B3FFF7C4FF1A48007800
:1047D0001A490870FFF7BEFF17480078174948705C
:1047E000FFF7B8FF1448007814498870FFF7B2FF4C
:1047F000114800781149C870FFF7ACFF0E480078E7
:104800000F4908700D4800780C49497808440B4955
:10481000897808440949C9780844C4B2084800782E
:10482000A04201D1012010BD0020FCE7000801409A
:104830008001214200002142FC030020F8030020F7
:10484000FD030020704770477047754600F02CF854
:10485000AE4605006946534620F00700854618B06D
:1048600020B5FBF7E1FCBDE820404FF000064FF01B
:1048700000074FF000084FF0000B21F00701AC4695
:10488000ACE8C009ACE8C009ACE8C009ACE8C009B4
:104890008D46704710B50446AFF300802046BDE852
:1048A0001040FBF7ACBC0000004870473006002009
:1048B00001491820ABBEFEE726000200704700F059
:1048C000DFBB000021F00042A2F16052B2F5801F70
:1048D00001F0004328BFD2F17F6C0BD95FEA001CC6
:1048E00043EAC20242EB507018BF704728BF20F065
:1048F00001007047B2F5801FBCBF184670474FEAF1
:10490000410C1CF5001F02D2084600F029BE70B50C
:1049100000F02CFB00000089FFF7F6BF4FF00040CD
:10492000A0F580007047000010B591EA030F48BF62
:1049300083F0004300F10684841A71EB030C05D266
:10494000121943EB0C03001B61EB0C01DFF824E1AF
:104950004FEA1154A4EB135C1EEA430F18BF9EEA02
:10496000445F73D023EA0E03DCF1200E21EA0451E8
:1049700043F4801332D322FA0CFE10EB0E0023FA1C
:104980000CFE41EB0E01CCF1200E03FA0EFE10EBF3
:104990000E0051F10001B1F5801FCCF1200E32D292
:1049A00001EB045112FA0EF2BDE8104058BF7047F7
:1049B000401C38BF5FEA420218BF7047002814BF8E
:1049C00020F0010041F100014FEA410313F5001FFF
:1049D00038BF7047A1F1C04100F016BB012A43EB7C
:1049E0000302ACF1200CDCF11F0E32BF4FF0000EC1
:1049F00023FA0CF310EB030041EB0451B4EB115F0D
:104A0000D0D0A1EB045101F5801149085FEA3000D4
:104A100001EB04510ED350F1000038BF12FA0EFE24
:104A200008D1BDE81040C9E7401C38BF5FEA420228
:104A3000CAD1C3E7BDE810404FEA410313F5001F98
:104A400038BF7047A1F1C04100F0DEBA9EEA445F72
:104A500008D011EA5E0FBDE8104004BF01F000412C
:104A600000207047BDE8104070B500F07FFA00BF2D
:104A700064FBBE3E0000E0FF491058BFC1F1404159
:104A80005B1058BFC3F140438B42EFF30080704787
:104A90002DE9C04130B4DFF8A0C23CEA111418BFC0
:104AA0003CEA131400F0EC8081EA03051CEA1114BF
:104AB00044EAD57418BF1CEA131500F0C780A4EBB4
:104AC00005044FF0004545EAC12145EAC32341EA08
:104AD000505143EA525304F17F74994204F5003473
:104AE0004FEAC0204FEAC22208BF904200F09C80EB
:104AF0004FEA13650FF24016765D4FEA134506FB49
:104B000005F7C7F1807706FB07F74FEAD737A7FB12
:104B100003687642C8F58038A7FB06CE38BFA8F1F7
:104B2000010807FB08E64FF0000EA6FB028CE6FB2F
:104B300003CEDCF1000CCEF1004E38BFAEF1010E19
:104B4000A6FB0C584FF000074FF00005E6FB0E8760
:104B5000A1FB08C6A0FB07CE16EB0E0645F100052B
:104B6000E1FB076515F1E04E7EBFA4F580345FEAF6
:104B700046066D4116F1800745F100054FEA1727FB
:104B80004FEA066647EA0567A6F1DE46B6F1805FA2
:104B90004FEA15251FD9384624F0010C05EBC471E6
:104BA000BCF1FE6F01EB0C1102D8F0BCBDE8008136
:104BB00024425CBF01F5801E9EEAC47F02D4F0BC93
:104BC000BDE80081244238D4F0BCA1F1C041BDE869
:104BD000004100F019BA4FEAD22242EA43524FEAAA
:104BE000D323A7FB02864FEAD02040EA415007FBBF
:104BF00003661EEA0E0F4FEAD12105FB026658BF7D
:104C0000A6EB0056B6EB00564FEA520E4EEAC37EB4
:104C100018EB0E0E56EB530EBDD518EB02085E4195
:104C20007F1C55F10005B6E74FF480154FF00007E3
:104C30004FF000064FF00008ADE7F0BC4FF0000069
:104C400001F1C04101F00041BDE8008111EA0C1FF3
:104C50000CEA131500D00CE013EA0C1F00F02580BD
:104C60004FF00000F0BC81EA030101F00041BDE813
:104C70000081F0BCBDE8004181EA030100F0C4B945
:104C8000F0BCBDE8004170B500F070F9097EFC3E53
:104C900000F007B881EA03014FF0000001F0004185
:104CA000704781EA030100F0AFB9F0BCBDE80041F4
:104CB0004FF0000021497047FFFDFBF9F7F5F4F2D2
:104CC000F0EEEDEBE9E8E6E4E3E1E0DEDDDBDAD8A7
:104CD000D7D5D4D3D1D0CFCDCCCBCAC8C7C6C5C405
:104CE000C2C1C0BFBEBDBCBBBAB9B8B7B6B5B4B31C
:104CF000B2B1B0AFAEADACABAAA9A8A8A7A6A5A407
:104D0000A3A3A2A1A09F9F9E9D9C9C9B9A999998CA
:104D10009797969595949393929191908F8F8E8E6D
:104D20008D8C8C8B8B8A89898888878786858584FA
:104D300084838382828181800000FF070000F87FE6
:104D40004FEA41034FEA5353A3F58063D3F11E03A7
:104D5000C8BFD3F1210C0CDD4FF0004242EAC12262
:104D600042EA505232FA03FC8CEAE17CACEBE1708F
:104D70007047102BC4BF0020704703F5787CBCF14E
:104D8000FF3F04D06FF0004282EA2100704770B507
:104D900000F0ECF84992248000207047F2E7000010
:104DA00051EA030C17D41CF5801F58BFBCF5801FB7
:104DB00000F10680994218BF704708BF90427047C3
:104DC00007D711F5801F58BF13F5801F19D49942DA
:104DD0007047894270471CF5801F08D5BCF5801FBD
:104DE000F7D58B4218BF704708BF824270474FF417
:104DF000001C1CEB410F38BF1CEB430F01D28B4250
:104E0000704770B500F0B2F8922449004FF000519D
:104E10004FF08053FFF730BEDFF848C170B51CEA91
:104E2000111E1EBF1CEA13159EEA0C0F95EA0C0F0B
:104E300000F06F8081EA030423EA4C134EEAD47E2B
:104E400021EA4C1141F4801143F48013AE44A1FBDC
:104E5000024CA0FB0365AEF17F7E361955EB0C05C5
:104E6000A1FB034C4CF10003A0FB021C16EB0C064B
:104E7000654153F10003094218BF46F0010613F4DF
:104E8000007F0BD14FEA03314FEA0530340341EA8A
:104E9000155140EA16506FF003020AE04FEAC321B1
:104EA0004FEAC520F40241EA555140EA56506FF0EE
:104EB000020202EB2E4201EB025585EACE710AD0C6
:104EC0005FEA440C18BF24F0004450F1000041F1A7
:104ED000000120EAD47040F2FE7C624500D270BD31
:104EE000A84214BF4FF080444FF04044002E08BF4A
:104EF0000024BEF1806FA8BFA1F1C041BDE87040A1
:104F000080F282804FF0000001F1C04101F00041C9
:104F100070479EEA0C0F0CEA131518BF95EA0C0FA8
:104F200006D04FF0000081EA030E0EF0004170BD84
:104F300000F01CF88900013E00F007B800F009B845
:104F40004FEA430C5FEA5C5C08D081EA030100F0A1
:104F50005BB84FEA410C5FEA5C5CF6D14FF00000B1
:104F6000014970470000FF070000F87F0EF1020EB4
:104F70002EF0030E5EF8046B364205D4012A43EB93
:104F8000030515F5001F12D8012841EB010C1CF593
:104F9000001F0CD80ED14FEAD17C15F5001F0CEB89
:104FA0004C0C0CF1020C08BF4CEBD37C04E04FF02E
:104FB000080C01E04FEAD37C0CEB4C0526FA05F611
:104FC00006F00706B6F1040C06D20EEB860CBDE81F
:104FD00070404CF0010C6047DFE80CF0090B020256
:104FE0004FF000414FF00000A1F5002170BD1946BF
:104FF0001046012851EB010418BFD4F5001484BFFA
:10500000002001F0004170BD0808A0F500114FEA32
:105010003101704753EA010C17D41CF5801F58BFAB
:10502000BCF5801F00F106808B4218BF704708BF97
:105030008242704707D713F5801F58BF11F5801FB4
:1050400019D48B4270479B4270471CF5801F08D5CE
:10505000BCF5801FF7D5994218BF704708BF904232
:1050600070474FF4001C1CEB430F38BF1CEB410F83
:1050700001D2994270470FB40CBC03BCFFF7C1BE0C
:105080005FEA410C5FEA5C5CACF580635B1C39D481
:10509000D3F1340240F34580B2F1200314DA4FF02B
:1050A000010C0CFA02FCACF101030340B3EB5C020F
:1050B00020EA030008BF10EA0C0F98BF704710EBFE
:1050C0000C0041F1000170470AD0C3F1200201FA3F
:1050D00002FC012821FA03F101FA03F14CF100006E
:1050E0004FF0010C0CFA03FCACF10103B0F1004FDE
:1050F00021EA030108BF11EA0C0F4FF0000088BF3E
:1051000061447047B3F1FF3F28BF50EAC12C01F062
:1051100000414FF0000084BF41F07C5141F4700128
:105120007047B3F5806FB8BF704770B5FFF71EFFCB
:1051300040DBB6BE10B591EA030F48BF83F00043D1
:105140003FF5FAAB841A71EB030C07D212198CF0FD
:10515000004C43EB0C03001B61EB0C01DFF8A4E1F6
:105160004FEA1154A4EB135C1EEA430F18BF9EEAEA
:10517000445F00F0B08023EA6E03524221EA0451FA
:10518000C3EB6E0338BF5B1EDCF1200E25D322FA81
:105190000CFE10EB0E0043FA0CFE41EB0E01CCF1BD
:1051A000200E03FA0EFE10EB0E0051F10001CCF1BF
:1051B000200E29D412FA0EF201EB0451BDE8104082
:1051C00058BF7047401C1CBFB2F1004F7047002809
:1051D0000CBF491C20F00100704712EB020E43EB9C
:1051E000030218BF4FF0010E4EEA4202ACF1200C50
:1051F000DCF11E0E54D943FA0CFE10EB0E0051F1F7
:10520000FF31CCF11E0ED5D50EF1010E12FA0EFEB5
:10521000404141EB010101EB445C5FEA5C5C10D969
:1052200010EBDE7001EB045138BFBEF1004FBDE85A
:10523000104018BF704700280CBF491C20F0010027
:10524000704730D24FEAD42C11F5001124F40064D9
:105250001BD0B1FA81F20B3AA41AA41ED2F120039A
:10526000914030FA03F31943904001EBCC71002CCC
:1052700001EB0451BDE81040A8BF704701F1C041E7
:105280004FF0000001F000417047B0FA80F310FACF
:1052900003F100D110BDE41A173C4805C90AE4E740
:1052A00001EB045110BD491001EB0451BDE8104061
:1052B0004FEA300002E04FF0000170474A0008BF9B
:1052C0000042F8D0B2F5001F28BF704701F000413E
:1052D0004FF0000070479EEA445F07D011EA5E0F6E
:1052E000BDE8104004BF002100207047BDE8104019
:1052F00070B5FFF73BFE00BF40DFF63E83F0004194
:10530000104670470000E0FF43004FEAD30C4FEA1D
:105310003C0C43401FBF40070CF1605113F0FE4F9F
:1053200070471CF0006F03D100200CF00041704763
:105330000CF0004343EA507010B540EACC0000F096
:10534000C9F800BF000000924FEA0001FFF75CBE01
:105350004FF000414FF00000A1F500217047000020
:1053600090EA010F48BF81F0004100F10681421A26
:105370003CBF801A89184FEAD0524FF07F4C1CEA8C
:10538000410FA2EBD15318BF9CEA026F00F03B80A3
:105390004FF0004C4CEA00204CEA012121FA03FCBA
:1053A00010EB0C0C1ED202F1FF325FEA1C2040EB26
:1053B000C25038BF70471CF07F0F4FEA400C18BF37
:1053C000BCF17F4F38BF7047C3F12003994008BF3D
:1053D00020F00100BCF17F4F38BF7047A0F1C04002
:1053E00000F0BEB84FEA3C00000A40EBC25028BFB4
:1053F0001CF0FF0F4FEA400CE6D018BFBCF17F4F06
:1054000038BF7047EAE79CEA026F05D010EA5C0FEC
:1054100008BF00F00040704710B500F05BF800BF17
:1054200064FBBE3E401058BFC0F14040491058BF19
:10543000C1F140418142EFF30080704750EA010C16
:1054400000F113801CF5000F58BFBCF5000F01D40C
:105450008842704707D710F5000F58BF11F5000FAD
:1054600015D488427047894270471CF5000F04D557
:10547000BCF5000FF7D5814270474FF0807C1CEBE4
:10548000400F38BF1CEB410F01D28142704710B56D
:1054900000F020F8922449004FF000504FF0805166
:1054A000FFF7C0BF10F0004148BF4042B0FA80F3A0
:1054B00010FA03F2C3F19D030BD051EAC35101EB83
:1054C0001220530638BF704700F1010008BF20F0DA
:1054D000010070470EF1020E2EF0030E5EF8044B31
:1054E000244204D44FEA4102B2F17F4F11D84FEA6F
:1054F0004003B3F17F4F0CD80ED14FEAD07CB2F10C
:105500007F4F0CEB4C0C0CF1020C08BF4CEBD17C28
:1055100004E04FF0080C01E04FEAD17C0CEB4C03A7
:1055200024FA03F404F00704B4F1040C06D20EEBE1
:10553000840CBDE810404CF0010C6047DFE80CF033
:10554000070802024FF00040A0F5800010BD084699
:10555000420018BFD2F1807288BF00F0004010BD39
:10556000FF2141EAD050C0057047000090EA010FCA
:1055700048BF81F000413FF5FAAE421A04D882F0EC
:105580000042A0EB020011444FEAD0524FF07F4C92
:105590001CEA410FA2EBD15318BF9CEA026F4AD01C
:1055A0004FF0004C4CEA00204CEA012121FA03FCA8
:1055B000B0EB0C0C0FD412F0FE0F36D05FEA4C00AB
:1055C0001DD5001240EBC25038BF70471CF03F0F92
:1055D00018BF70470BE0A2F101025FEA1C2040EB0C
:1055E000C25038BF70471CF07F0F18BF7047C3F11F
:1055F0002003994014BF401E20F00100704780082E
:105600004FEA122308BF7047B0FA80FCA2EB0C02ED
:10561000CCF1280C60FA0CF093EA122F04BF00EBD7
:10562000C25070474FEAC3707047130A5FEADC103C
:1056300008BF7047F6E79CEA026F04D010EA5C0FDF
:1056400008BF0020704710B5FFF744FF40DFF63E6B
:1056500081F00040704700000000000000000000E2
:10566000000000000000000000000000000000003A
:10567000000000000000000000000000000000002A
:1056800000000000000000007FFE7FFE7FFE7FFE26
:105690007FFE7FFE7FFE7FFE7FFE7FFE7FFE7FFE22
:1056A0007FFE7FFE000000000000000000001F8061
:1056B0003F803F0076006C0000000000000000000A
:1056C00000000000000000000000000000000000DA
:1056D00000000000000000000000000000000000CA
:1056E00000000000000000007000F80098001000AA
:1056F000100060007800F8000000000000000000CA
:105700000000030007800480078003000000000001
:105710000000000000000000000000000000000089
:105720000000000000000000000000000000000079
:105730007980DB80DF00DF00DE00DE007C000FC050
:105740001FE01F601F60376037E063C0000000008B
:10575000000000000000000000003E00760076001F
:1057600076007E007FC03B807B80DF00DF00CF00C3
:10577000E700E7E07FC0000000000000000000003C
:105780007000780038003000E000000000000000E9
:105790000000000000000000000000000000000009
:1057A0000000000000000000000000C001C00380F5
:1057B0000300070006000E000E000E000E000E0093
:1057C0000E00060007000300038001C000C00000B7
:1057D0000000000060007000380018001C000C0081
:1057E0000E000E000E000E000E000E000C001C003D
:1057F0001800380070006000000000000000000089
:10580000000000000E000E00EEC0FFE03F800E0022
:105810003F80FFE0EEE00E000E0000000000000000
:1058200000000000000000000000000000000E006A
:105830000E000E000E000E00FFE00E000E000E0027
:105840000E000E000000000000000000000000003C
:105850000000000000000000000000000000000048
:1058600000000000000000000000000000007000C8
:10587000780038003000E000000000000000000068
:10588000000000000000000000000000FFE0000039
:105890000000000000000000000000000000000008
:1058A00000000000000000000000000000000000F8
:1058B00000000000000000000000000000000000E8
:1058C0000000380038000000000000000000000068
:1058D00000C000C001800180030003000700060033
:1058E0000E000C001C001800380030003000600072
:1058F0006000C000000000000000000000001F0069
:105900003B8071C071C071C0E1E0E0E0E0E0E1E047
:1059100071C071C071C03B801F000000000000001A
:10592000000000000000000006003E000E000E0017
:105930000E000E000E000E000E000E000E000E00F7
:105940000E003F800000000000000000000000008A
:1059500000001F8073C061C071C071C001C00380AE
:1059600007000E001C00380070C060C0FFC00000BF
:105970000000000000000000000000003F007380F5
:1059800071C071C0018003800F00038001C001C09D
:1059900071C071C073803F00000000000000000073
:1059A000000000000300070007000F001F001F0099
:1059B000370037006700C700FFC007000700070077
:1059C0001FC00000000000000000000000000000F8
:1059D0003FC030006000600060007F8073C021C065
:1059E00001C000C071C071C073803F0000000000A2
:1059F000000000000000000000001F8039C071C0DE
:105A000070007000FF80F9C0F1C0E0E0E0E070E0FD
:105A100071C039C01F00000000000000000000003D
:105A2000000000007FC06180618003000300060069
:105A300006000E000C001C001C001C001C001C00BA
:105A400000000000000000000000000000003F8097
:105A500071C061C060C071C039801F00338061C0F7
:105A6000E0C0E0C0E1C071C03F00000000000000E5
:105A700000000000000000003F00738071C0E1C022
:105A8000E1C0E1E0E1E073C03FC001C001C073804C
:105A900077803E00000000000000000000000000D1
:105AA000000000000000000000000E000E000000DA
:105AB000000000000000000000000E000E000000CA
:105AC00000000000000000000000000000000000D6
:105AD0000000000000000E000000000000000000B8
