:020000040800F2
:10000000880B002049480008C9160008CB160008D4
:10001000CF160008D3160008D7160008000000000D
:10002000000000000000000000000000DB160008D7
:10003000DD16000800000000DF160008E1160008C9
:1000400063480008634800086348000863480008E4
:1000500063480008634800086348000863480008D4
:1000600063480008634800086348000863480008C4
:1000700063480008634800086348000863480008B4
:1000800063480008634800086348000863480008A4
:100090006348000863480008634800086348000894
:1000A00063480008E3160008634800086348000836
:1000B00033170008831700086348000863480008E6
:1000C0006348000863480008634800086348000864
:1000D00063480008D3170008C519000863480008E2
:1000E0006348000863480008634800086348000844
:1000F0006348000863480008634800086348000834
:100100006348000863480008634800086348000823
:100110006348000863480008634800086348000813
:100120006348000863480008634800086348000803
:1001300000F002F800F05AF80AA090E8000C82449F
:100140008344AAF10107DA4501D100F04FF8AFF27C
:10015000090EBAE80F0013F0010F18BFFB1A43F0A5
:100160000103184700580000205800000A444FF0CF
:10017000000C10F8013B13F0070408BF10F8014B06
:100180001D1108BF10F8015B641E05D010F8016B4B
:10019000641E01F8016BF9D113F0080F1EBF10F8AF
:1001A000014BAD1C0C1B09D16D1E58BF01F801CBD2
:1001B000FAD505E014F8016B01F8016B6D1EF9D555
:1001C0009142D6D37047000000230024002500266A
:1001D000103A28BF78C1FBD8520728BF30C148BFAA
:1001E0000B6070471FB51FBD10B510BD04F04FFB6D
:1001F0001146FFF7F7FF00F05EF804F06DFB03B463
:10020000FFF7F2FF03BC04F071FB0000F0B50346FA
:100210000C460025214604E05E5C2E44B5B24E1C1F
:10022000F1B29142F8DB642695FBF6F706FB175610
:10023000F0B2F0BD30B502460B4600205D1EAD06A3
:100240002C0E002108E00D19555D05F001058D40CB
:100250000543E8B24D1CE9B20429F4DB30BD10B50A
:1002600002F01EFF4FF4803002F03AFF02F077FFF9
:100270000446012C1ED1002002F0B7FF002002F03E
:10028000C6FFA00202F0BAFF4FF4E011200402F012
:100290008FFF012002F098FF00BF392002F043FFDA
:1002A0000028FAD0022002F092FF00BF02F098FF6F
:1002B0000828FBD110BD0EB5FFF7D1FF01F099F969
:1002C00000F054FF01F07DFC01F0AFFC00F09AFE5D
:1002D00000F0DEFF01F0C7F901F0CFF901F04CF8B2
:1002E000D5E00AE0002000F077FFFE4908700846DC
:1002F000007810B10120FC490870FA48007818B95C
:10030000F94800780028EDD0F648007850B901216E
:10031000052000F031FFF549F54802F0DCF8002037
:10032000F1490870F3480078F34909780843F34924
:1003300009780843A0B3F248007888BBE948007800
:1003400070B3E8480078EF49E94AEF4BCDE9002166
:100350000290EE4AE549EE4802F019F8ED490870BE
:1003600008460078EC490870EA480078A8B10121F5
:10037000052000F001FF0021042000F0FDFE012017
:1003800001F04DF80021012000F0F6FE012001F0FF
:1003900046F80021084600F0EFFE0120D849087019
:1003A000D4480078A8BBD448007890BBD3480078E4
:1003B00078BBD348007860B3CA48007848B3D648C1
:1003C000007830BBC94ACF49CF4802F05BF8D14929
:1003D000087008460078D0490870CE480078A8B167
:1003E0000121052000F0C8FE0021042000F0C4FE19
:1003F000012001F014F80021012000F0BDFE0120D1
:1004000001F00DF80021084600F0B6FE0020BC49BE
:10041000087029E0BA48007830B302F0F2F9BF4919
:1004200008700846007802F01DFABA4908700846BC
:100430000078B9490870B7480078A8B101210520B3
:1004400000F09AFE0021042000F096FE012000F04A
:10045000E6FF0021012000F08FFE012000F0DFFF09
:100460000021084600F088FEA548007878B19D4834
:10047000007860B1AA4800789E49097808409E49F2
:10048000097808439D49097808430028C2D128E724
:1004900010B59D49A34801F010FF9D4800F0D4FE1F
:1004A000A049486805F05EF880B2642190FBF1F045
:1004B0009D49C8709B49486805F054F880B2642192
:1004C00090FBF1F201FB120097490871002048717E
:1004D00088719449C86805F045F880B2642190FBA2
:1004E000F1F09149C8718F49C86805F03BF880B2B6
:1004F000642190FBF1F201FB12008B4908727D48E8
:1005000000787D49097808437C4909780843864981
:1005100048728449886805F025F880B2642190FB10
:10052000F1F201FB1200804988727E49086805F0EB
:1005300019F880B2642190FBF1F07B49C8727949C7
:10054000086805F00FF880B2642190FBF1F201FB1E
:100550001200754908730120C8746E480078087548
:10056000152203217048FFF751FE6F49487510BDF1
:1005700000B585B06D48407A572828D16B48007B7C
:100580006B4908706948817B407B00EBC00202EB3D
:10059000001001EB8000674908706448017CC07B53
:1005A00000EBC00202EB001001EB80006249087012
:1005B0005E48407C614908705C48017DC07C00EB6E
:1005C000C00202EB001001EB80005D49087050484A
:1005D00000794A4908704C49524801F06EFE4C4877
:1005E00000F032FE4F4800685649049004F0C4FE03
:1005F00046490860084600685349039004F0BCFE71
:10060000049004F0AFFF5149C8724048006804905C
:1006100004F0A8FF80B2642190FBF1F201FB12000C
:100620004A490873394800684749039005F01AF8A9
:10063000049004F097FF6421B0FBF1F201FB12007B
:1006400042494873374840683E49049004F094FE9C
:100650002E494860084640683B49039004F08CFEF0
:10066000049004F07FFF394988732848406804905B
:1006700004F078FF80B2642190FBF1F201FB1200DC
:100680003249C873214840682F49039004F0EAFFBB
:10069000049004F067FF6421B0FBF1F201FB12004B
:1006A0002A4908741F4880682649049004F064FEB3
:1006B00016498860084680682349039004F05CFE70
:1006C000049004F04FFF214948741048806804905A
:1006D00004F048FF80B2642190FBF1F201FB1200AC
:1006E0001A4935E001000020020000201800002017
:1006F0007C03002005000020040000200B000020E7
:10070000060000205800002028000020FC020020E5
:100710001000002007000020000000200E00002034
:10072000030000203C0300202F0200209C03002037
:100730000A00002008000020090000200C00002012
:100740000D000020000020410000C8429001002060
:100750008874FE488068FE49039004F083FF04908B
:1007600004F000FF6421B0FBF1F201FB1200F94933
:10077000C874F6484068F8490860F848C068F84905
:10078000049004F0F9FDF149C8600846C068F049DA
:10079000039004F0F1FD049004F0E4FEED490875C7
:1007A000EA48C068049004F0DDFE80B2642190FB4A
:1007B000F1F201FB1200E7494875E448C068E449DA
:1007C000039004F04FFF049004F0CCFE6421B0FBD2
:1007D000F1F201FB1200DF498875E0480069E14948
:1007E000019004F0C9FD4FF08141029005F038F806
:1007F0004FF08341039004F0BFFDDB49049004F007
:1008000031FFD249086108460069D149039004F0DC
:10081000B3FD049004F0A6FECE49C875CB4800692C
:10082000049004F09FFE80B2642190FBF1F201FB82
:100830001200C8490876C5480069C549039004F00C
:1008400011FF049004F08EFE6421B0FBF1F201FB75
:100850001200C0494876C1484069C249009004F07E
:100860008BFD4FF08141019004F0FAFF4FF083417E
:10087000029004F081FDBD49039004F0F3FEBB49F2
:10088000049004F00BFDB149486108464069B04945
:10089000039004F071FD049004F064FEAD49887685
:1008A000AA484069049004F05DFE80B2642190FB88
:1008B000F1F201FB1200A749C876A4484069A44997
:1008C000039004F0CFFE049004F04CFE6421B0FBD2
:1008D000F1F201FB12009F490877A0488069A04906
:1008E000049004F049FD9949886108468069984957
:1008F000039004F041FD049004F034FE95494877DC
:1009000092488069049004F02DFE80B2642190FB2F
:10091000F1F201FB12008F4988778C4880698C497D
:10092000039004F09FFE049004F01CFE6421B0FBD1
:10093000F1F201FB12008749C8778848C0694FF07F
:100940008241049004F018FD8049C8610846C069DE
:100950007F49039004F010FD049004F003FE7D49EC
:1009600081F820007948C069049004F0FBFD80B252
:10097000642190FBF1F201FB1200764981F821001D
:100980007248C0697249039004F06CFE049004F050
:10099000E9FD6421B0FBF1F201FB12006D4981F821
:1009A000220073480068694908620846006A68497D
:1009B000039004F0E1FC049004F0D4FD6D49C8728A
:1009C0006248006A049004F0CDFD80B2642190FB7F
:1009D000F1F201FB1200674908735C48006A5C4948
:1009E000039004F03FFE049004F0BCFD6421B0FBD2
:1009F000F1F201FB12005F4948735F4800685349F8
:100A000048620846406A5249039004F0B5FC0490DD
:100A100004F0A8FD574988734C48406A049004F0DC
:100A2000A1FD80B2642190FBF1F201FB120051495B
:100A3000C8734648406A4649039004F013FE049088
:100A400004F090FD6421B0FBF1F201FB1200494972
:100A500008744A4800683D4988620846806A3C49F3
:100A6000039004F089FC049004F07CFD4149487433
:100A70003648806A049004F075FD80B2642190FBD2
:100A8000F1F201FB12003B4988743048806A30491A
:100A9000039004F0E7FD049004F064FD6421B0FBD2
:100AA000F1F201FB12003349C87435480068274948
:100AB000C8620846C06A2649039004F05DFC0490B1
:100AC00004F050FD2B4908752048C06A049004F0DA
:100AD00049FD80B2642190FBF1F201FB120025492F
:100AE00048751A48C06A1A49039004F0BBFD049087
:100AF00004F038FD6421B0FBF1F201FB12001D4946
:100B000088751648006B1249049004F035FC0F49B3
:100B100008630846006B0E49039004F02DFC049016
:100B200004F020FD1349C8750848006B049004F0D8
:100B300019FD80B2642190FBF1F201FB12000D4916
:100B400008760248006B024903901BE0FC0200207B
:100B50000000C842900100205C0100203C030020FE
:100B60000000204100004842000040420000704266
:100B700074010020C50100207801002080010020C0
:100B80007C01002004F06EFD049004F0EBFC642175
:100B9000B0FBF1F201FB1200D9494876D948406B0D
:100BA000D949049004F0E8FBD84948630846406BF3
:100BB000D549039004F0E0FB049004F0D3FCD04945
:100BC0008876D248406B049004F0CCFC80B264215B
:100BD00090FBF1F201FB1200C949C876CB48406B8B
:100BE000C949039004F03EFD049004F0BBFC64216D
:100BF000B0FBF1F201FB1200C1490877C148806BDC
:100C0000C149049004F0B8FBC04988630846806B72
:100C1000BD49039004F0B0FB049004F0A3FCB84974
:100C20004877BA48806B049004F09CFC80B2642141
:100C300090FBF1F201FB1200B1498877B348806B59
:100C4000B149039004F00EFD049004F08BFC642184
:100C5000B0FBF1F201FB1200A949C877A948C06BAB
:100C6000A949049004F088FBA849C8630846C06BF2
:100C7000A549039004F080FB049004F073FCA049A4
:100C800081F82000A148C06B049004F06BFC80B296
:100C9000642190FBF1F201FB1200994981F82100D7
:100CA0009A48C06B9849039004F0DCFC049004F06F
:100CB00059FC6421B0FBF1F201FB1200904981F86C
:100CC000220093480068049004F04CFC80B2642138
:100CD00090FBF1F08F4981F825008D4800688A4922
:100CE000039004F0BFFC049004F03CFC6421B0FBD2
:100CF000F1F201FB1200874981F826008448006860
:100D00008549039004F0AEFC049004F02BFC6421B0
:100D1000B0FBF1F201FB12007E4981F827000121AE
:100D20007E48FFF787FA7B4981F8230001217C4840
:100D3000FFF780FA774981F8240002217748FFF70E
:100D400079FA6F4981F8230002217548FFF772FA9A
:100D50006B4981F82400322200216E48FFF756FAD1
:100D60006C4981F83200322200216548FFF74EFAC3
:100D7000634981F832006B4800786B49C8726B4850
:100D800000780873614800695F49039004F0F4FA41
:100D9000049004F0E7FB644948735C4800690490E0
:100DA00004F0E0FB80B2642190FBF1F201FB120041
:100DB0005D498873554840695349039004F0DCFA53
:100DC000049004F0CFFB5849C87350484069049020
:100DD00004F0C8FB80B2642190FBF1F201FB120029
:100DE000514908744948C06A4749039004F0C4FA5D
:100DF000049004F0B7FB4C49C8744448C06A04909E
:100E000004F0B0FB80B2642190FBF1F201FB120010
:100E1000454908753D48006800903C488069049049
:100E20003A48406B0390394840690290374800695E
:100E3000019002A90EC901F07AFB3448C0693C490F
:100E400008603248006B3B490860304840680490B5
:100E50002E4800680390049901F07AFB3649086037
:100E60002A48C0680490294880680390049901F0DA
:100E70006FFB324908602A480078012812D12848BF
:100E8000407801280ED12B48006804F0DBF90022DD
:100E90002B4BCDE9020104F0A9F803D20120294926
:100EA000087002E0002027490870264800780128D1
:100EB0000ED1224801682048006804F0D1FC224984
:100EC00008600846006801F078FE2049086005E0E7
:100ED0001C48007810B90C481B49086005B000BDDB
:100EE00070B504460D46E1B2194802F0E7FB00BFB9
:100EF0008021174802F050FC0028F9D0204670BD30
:100F0000C50100203C0300200000C842FC02002074
:100F10007C0300209001002000401C4610000020AF
:100F2000180000200B000020FA010020060000201D
:100F30005801002088010020740100207801002061
:100F400000C05040600100207C0100208001002092
:100F50000038014070B5044600254FF400416D484B
:100F600001F0FFFF002628E06806050E04F080006F
:100F700028B14FF40051674801F0F1FF04E04FF44D
:100F80000051644801F0EDFF4FF40041614801F069
:100F9000E6FF4FF480415F4801F0C7FF012800D110
:100FA00000E0002008B145F001054FF40041594828
:100FB00001F0D7FF6006040E761C082ED4DB28460D
:100FC00070BD70B505464FF48051524801F0C9FF1D
:100FD00000240FE015F82400FFF7BCFF05EB8401A7
:100FE00049880812FFF7B6FF05EB84018878FFF700
:100FF000B1FF641C082CEDDB4FF48051454801F033
:10100000AEFF70BD38B50121082002F0B7F94FF4EA
:101010003040ADF8000003208DF8020010208DF85C
:10102000030069463B4801F0EDFE4FF48040ADF807
:10103000000003208DF8020004208DF803006946AB
:10104000344801F0DFFE4FF48051324801F087FF51
:10105000002409E05520304901F8240041F209003C
:1010600001EB84014880641C082CF3DB002403E0BE
:101070002948FFF7A6FF641C082CF9DB002409E0CF
:101080005720254901F824004FF4607001EB8401DA
:101090004880641C082CF3DB1F48FFF792FF38BD23
:1010A0002DE9F84F0446894692465146484604F0D9
:1010B00063F9009004F0C6F807460022174B03F0CE
:1010C00097FE054603F01AFC83465946144804F07F
:1010D000C9FA054604F046FA0F4901EB840148803D
:1010E00001200D4901F824000846FFF76AFFBDE81A
:1010F000F88F70B505460E46002408E056F8242007
:1011000055F824102046FFF7CBFF601CC4B2082C12
:10111000F4DB70BD000C014064040020000024409A
:1011200000C8CC4510B50121C02002F027F910BD40
:1011300008B510208DF803004FF47F40ADF8000093
:1011400003208DF802006946464801F05BFE04204A
:101150008DF803004FF47F40ADF8000003208DF8B8
:1011600002006946404801F04DFE08BD10B5FFF78A
:10117000D9FFFFF7DDFF10BD70B505460E46082DFF
:101180001DD2DFE805F004070A0D101316194FF4FD
:10119000807415E04FF4007412E04FF480640FE0A7
:1011A0004FF400640CE04FF4805409E04FF4005415
:1011B00006E04FF4804403E04FF4004400E000BF39
:1011C00000BF26B92146274801F0CBFE03E02146A7
:1011D000244801F0C4FE70BD70B50546082D1DD22F
:1011E000DFE805F004070A0D101316194FF4807498
:1011F00015E04FF4007412E04FF480640FE04FF4F8
:1012000000640CE04FF4805409E04FF4005406E011
:101210004FF4804403E04FF4004400E000BF00BFFF
:101220002146114801F081FE0646304670BD70B57A
:101230000546002405E0295D2046FFF79DFF601C60
:10124000C4B2082CF7DB70BD70B50546002405E07C
:101250002046FFF7C1FF2855601CC4B2082CF7DBFD
:1012600070BD000000180140001C014010B50121B4
:10127000C80202F083F80121084602F08CF801212F
:10128000022002F088F80121042002F084F810BD49
:101290000EB56A4802F0DAFA4FF0804002F0D6FA52
:1012A000674802F0D3FA674802F0D0FAFFF7DEFF92
:1012B0000520ADF8040048F69F40ADF8000000207E
:1012C000ADF80600ADF8020069465C4802F092FBFA
:1012D00001215A4803F0B0F90121584802F0E6FE16
:1012E0000520ADF8040044F24F60ADF80000002086
:1012F000ADF80600ADF8020069464FF0804002F0FC
:1013000079FB0121880703F097F90121880702F092
:10131000CDFE4FF4FA60ADF8040048F69F40ADF8FA
:1013200000000020ADF80600ADF802006946444810
:1013300002F060FB0121424803F07EF901214048A0
:1013400002F0B4FE4EF66020ADF8040048F69F406F
:10135000ADF800000020ADF80600ADF802006946C7
:10136000384802F047FB0121364803F065F90121B6
:10137000344802F09BFE0EBD10B5012211463048E4
:1013800002F0AFFE10BD10B5002201212C4802F082
:10139000A8FE10BD10B5012211462A4802F0A1FE98
:1013A00010BD10B500220121264802F09AFE10BDA2
:1013B000014601EBC1024FF0E0235A6100229A611D
:1013C00001221A6100BF4FF0E022106900F0010213
:1013D0001AB100F48032002AF5D000224FF0E02349
:1013E0001A619A617047014642F228324A434FF02F
:1013F000E0235A6100229A6101221A6100BF4FF076
:10140000E022106900F001021AB100F48032002AD3
:10141000F5D000224FF0E0231A619A61704730B591
:101420000446002504E06420FFF7DDFF681C85B258
:1014300004EB8400B5EB400FF5DB30BD002C014020
:10144000000400400008004010B50121052001F013
:1014500095FF0121880301F091FF0121212001F076
:101460008DFF0121480401F096FF0121082001F0C1
:101470009AFD10BD08B500214FF0006001F02BFC73
:101480004FF4407001F0F0FB25208DF800000020A3
:101490008DF8010001208DF80300684601F0E9FB9A
:1014A00026208DF8000001208DF801008DF8030042
:1014B000684601F0DEFB19208DF8000004208DF84D
:1014C000010001208DF80300684601F0D2FB1C20CA
:1014D0008DF8000005208DF8010001208DF8030033
:1014E000684601F0C6FB1D208DF8000007208DF82E
:1014F000010001208DF80300684601F0BAFB08BD29
:1015000008B518208DF803004FF40070ADF8000006
:1015100003208DF802006946674801F073FC102033
:101520008DF803000001ADF8000003208DF80200E3
:101530006946614801F066FC04208DF80300000252
:10154000ADF8000003208DF8020069465A4801F00A
:1015500059FC18208DF803002020ADF8000003206E
:101560008DF802006946554801F04CFC10208DF8BA
:1015700003008020ADF8000003208DF802006946CA
:101580004E4801F03FFC04208DF803004020ADF8E8
:10159000000003208DF802006946484801F032FC43
:1015A00008BD10B50120FFF71EFF4FF480714248BF
:1015B00001F0D7FC10BD10B540F6C410FFF7F8FEDF
:1015C0004FF480713C4801F0CAFC10BD10B50120F9
:1015D000FFF709FF8021394801F0C1FC10BD10B5AB
:1015E00040F6C410FFF7E4FE8021344801F0B9FC56
:1015F00010BD1FB5FFF728FFFFF782FFFFF73AFF87
:101600002F4801F01FFF2F4801F01CFF4FF4165028
:1016100000900020ADF806004FF48050ADF80400B3
:101620004FF4C060ADF808000020ADF80C000C20AD
:10163000ADF80A006946224801F047FF40212048E2
:1016400002F0B7F801211E4801F0CBFF69461D48A2
:1016500001F03BFF40211B4802F0ABF80121194883
:1016600001F0BFFF1FBD10B5012240F22551144803
:1016700001F0C3FFFFF795FF10BD10B5012240F246
:101680002551104801F0B9FFFFF7A0FF10BD10B5BC
:10169000002240F225510A4801F0AFFFFFF781FF19
:1016A00010BD10B5002240F22551064801F0A5FFFB
:1016B000FFF78CFF10BD000000080140001401403E
:1016C0000038014000440040704700BFFEE700BF03
:1016D000FEE700BFFEE700BFFEE7704770477047B8
:1016E000704710B50121F74802F0A9FF01281FD16A
:1016F0000121F44802F0B4FFF3480078401CF2499D
:10170000087008460078172812D1002008700024BD
:1017100004E00020ED490855601CC4B2352CF8DB0C
:101720000020EB49087000220121E64802F0D9FCB4
:1017300010BD10B50121880702F081FF01281FD1DB
:101740000121800702F08CFFE2480078401CE1494B
:10175000087008460078502812D100200870002434
:1017600004E00020DC490855601CC4B2182CF8DBEA
:101770000020DA49087000220121880702F0B1FC3C
:1017800010BD10B50121D64802F059FF012807D13C
:101790000121D34802F064FFFEF7EAFEFEF778FE6F
:1017A00010BD70B50546002410E04021CD4802F080
:1017B00000F8295DCB4801F081FF00BF4021C948F6
:1017C00001F0EAFF0028F9D0601CC4B2352CECDB34
:1017D00070BD10B50821C34801F0DEFF012806D115
:1017E0000821C04801F0E5FFBE4801F06BFF40F260
:1017F0002551BC4801F0E6FFC8B1BA4801F062FFCC
:10180000B3490978B14A5054B1480078401CB049F6
:10181000087008460078012804D101221146A94821
:1018200002F05FFC40F22551AE4801F0F5FFA848F8
:101830000078352875D10020A5490870012048702E
:10184000A248007855280DD1A0484078662809D1D3
:101850009E4890F83300662804D19C4890F83400E4
:10186000552802D000209A494870984880789E49AF
:1018700091F90010884226D19448C0789A4991F98C
:10188000011088421FD191480079974991F90210BF
:10189000884218D18D484079934991F903108842C4
:1018A00011D18A488079904991F9041088420AD16F
:1018B0008648C0798C4991F90510884203D10120EE
:1018C0008349887002E00020814948707F48407A4F
:1018D000572803D105207E49C87002E000207C49CA
:1018E00048707A4890F8310018B90020784908719A
:1018F0000AE0764890F83100012802D17449087155
:1019000002E00020724948707148407890B17048F8
:10191000C07805280ED16E48807801280AD10024AD
:1019200006E014E06948005D70490855601CC4B2C7
:10193000352CF7DB6648407848B16548007930B906
:10194000FFF739FE6A48FFF72CFFFFF72AFE10BDAC
:1019500070B50546002414E04021664801F029FFD7
:101960004FF47A70FFF724FD295D624801F0A6FE6E
:1019700000BF40215F4801F00FFF0028F9D0601C34
:10198000C4B2182CE8DB70BD70B50546002416E023
:101990004021584801F00DFF4FF47A70FFF708FD21
:1019A000285D00F13301534801F088FE00BF40215B
:1019B000504801F0F1FE0028F9D0601CC4B2352C6B
:1019C000E6DB70BD10B508214A4801F0E5FE0128AC
:1019D00006D10821474801F0ECFE464801F072FEAE
:1019E00040F22551434801F0EDFEC8B1414801F0F5
:1019F00069FE3A490978384A505438480078401C02
:101A00003649087008460078012804D101221146A1
:101A1000800702F066FB40F22551364801F0FCFEDB
:101A20002E480078182869D100202C490870012020
:101A300048702948007855280BD1274840786628F7
:101A400007D12548807D662803D12348C07D5528CD
:101A500002D00020214948701F488078012802D117
:101A60001E4988701DE01C488078022802D11B495D
:101A7000887016E018488078032805D117498870C7
:101A800001201D4908700CE013488078042805D116
:101A90001249887000201849087002E000200F49A0
:101AA0004870152203210C48FEF7B0FB0A49497D16
:101AB000884202D00020094948700848407830B375
:101AC000002422E0002C0140A50200208404002014
:101AD000A8020020A6020020B9040020AD020020C8
:101AE00000040040003801404A5900089C030020CF
:101AF000FA010020004400400400002039E01D48A5
:101B0000005D1D490855601CC4B2182CF7DB1B484A
:101B1000407870B3FFF763FD18488478012C06D035
:101B2000022C16D0032C18D0042C1ED119E0144816
:101B3000FFF70EFF4FF4FA70FFF755FC1148FFF75F
:101B400023FF4FF4FA70FFF74EFC0F48FFF71CFF1E
:101B50000CE00E48FFF7FCFE08E00D48FFF7F8FE2A
:101B600004E00C48FFF7F4FE00E000BF00BFFFF701
:101B700018FD10BDB904002006040020AD020020AD
:101B80002F02002090010020C50100204702002004
:101B90005F0200207702002008B56420009000BF9B
:101BA0000098411E00910028FAD108BD08B54FF4F5
:101BB000FA70009000BF0098411E00910028FAD1F1
:101BC00008BD08B50121042001F0D8FBBE20ADF806
:101BD000000003208DF8020010208DF803006946F4
:101BE000F84801F00FF94020ADF8000003208DF80F
:101BF000020048208DF803006946F24801F002F91E
:101C00000221F04801F0ABF90421EE4801F0A7F9F8
:101C10000821EC4801F0A3F91021EA4801F09FF9EE
:101C20002021E84801F09DF908BD08B5012108020E
:101C300001F0A4FB0121082001F0A0FB4FF420409B
:101C4000ADF8000003208DF8020010208DF803008D
:101C50006946DD4801F0D6F84FF48040ADF8000049
:101C600003208DF8020048208DF803006946D6480D
:101C700001F0C8F84FF4C070ADF8000003208DF8F3
:101C8000020010208DF803006946D04801F0BAF830
:101C90004FF40051CC4801F064F9FFF787FF802131
:101CA000CA4801F05CF94FF48071C84801F057F957
:101CB00008BD70B5044600252021C24801F051F945
:101CC000002629E06806050E04F0800020B180217E
:101CD000BC4801F044F903E08021BA4801F041F921
:101CE000FFF75AFF2021B74801F039F9FFF754FFF9
:101CF0002021B44801F035F9FFF74EFF4021B148EB
:101D000001F013F9012800D100E0002008B145F0EE
:101D100001056006040E761C082ED3DB284670BD34
:101D200070B50446002500262CE06806050E4FF429
:101D30000051A54801F013F904F0800028B14FF4D8
:101D40000041A14801F00BF904E04FF400419E4826
:101D500001F007F9FFF72AFF4FF400519A4801F00C
:101D600000F9FFF723FF4FF48041974801F0DDF8B9
:101D7000012800D100E0002008B145F0010560060F
:101D8000040E761C082ED0DB284670BD2DE9F04FDE
:101D90008BB007468846032097FBF0F0C0F103059F
:101DA000032097FBF0F100FB117B05EB85008849D0
:101DB00001EB400935B1012D09D0022D0CD0032DC6
:101DC00014D10EE002217F4801F0CBF80FE004218E
:101DD0007C4801F0C6F80AE008217A4801F0C1F811
:101DE00005E01021774801F0BCF800E000BF00BF1B
:101DF000FFF7D2FE002607E0FF20FFF75AFF09F8A1
:101E00000600FFF7C9FE761C0A2EF5D335B1012D69
:101E100009D0022D0CD0032D14D10EE00221694807
:101E200001F09DF80FE00421664801F098F80AE0FF
:101E30000821644801F093F805E01021614801F0A1
:101E40008EF800E000BF00BFFFF7A6FE05EB85009F
:101E50005F4901EB400935B1012D09D0022D0CD0AD
:101E6000032D14D10EE00221564801F07AF80FE05C
:101E70000421544801F075F80AE00821514801F0A6
:101E800070F805E010214F4801F06BF800E000BF4A
:101E900000BFFFF781FE002607E0FF20FFF709FFE4
:101EA00009F80600FFF778FE761C0A2EF5D335B147
:101EB000012D09D0022D0CD0032D14D10EE00221EA
:101EC000404801F04CF80FE004213E4801F047F88B
:101ED0000AE008213B4801F042F805E010213948AA
:101EE00001F03DF800E000BF00BFFFF755FE05EB35
:101EF0008500374901EB4000801C00EB4B00B0F837
:101F000000A00C2F6ED2DFE807F00623406E8BA9ED
:101F1000C7E4FEFDFCFB404603F094F9CDE9060161
:101F2000504603F057FB019003F08CF90022294B37
:101F3000CDE9020102F0C8FDCDE90401DDE9062387
:101F400002F056FFCDE9080102F0D8FC044659E141
:101F5000404603F077F9CDE90601504603F03AFB1D
:101F6000019003F06FF91C4A1C4BCDE9020102F00D
:101F7000ABFDCDE90401DDE9062302F039FFCDE92F
:101F8000080102F0BBFC04463CE1404603F05AF96C
:101F9000CDE90601504603F01DFB019003F052F914
:101FA00000220F4BCDE9020102F08EFDCDE90401C4
:101FB000DDE9062302F01CFFCDE9080102F09EFCDA
:101FC00004461FE10008014000200140000C0140D0
:101FD000D104002000005B40CDCCCCCCCC0C5B40CD
:101FE00000205B400DE1404603F02CF9CDE90601ED
:101FF000504603F0EFFA019003F024F9C54AC64BAE
:10200000CDE9020102F060FDCDE90401DDE906231E
:1020100002F0EEFECDE9080102F070FC0446F1E0AA
:10202000404603F00FF9CDE90601504603F0D2FA1D
:10203000019003F007F94FF06632B84BCDE9020189
:1020400002F042FDCDE90401DDE9062302F0D0FEF5
:10205000CDE9080102F052FC0446D3E0404603F00B
:10206000F1F8CDE90601504603F0B4FA019003F00F
:10207000E9F84FF06632A94BCDE9020102F024FDE8
:10208000CDE90401DDE9062302F0B2FECDE9080145
:1020900002F034FC0446B5E0404603F0D3F8CDE945
:1020A0000601504603F096FA019003F0CBF89C4AE3
:1020B0009C4BCDE9020102F007FDCDE90401DDE909
:1020C000062302F095FECDE9080102F017FC044654
:1020D00098E0404603F0B6F8CDE90601504603F01B
:1020E00079FA019003F0AEF84FF033328E4BCDE920
:1020F000020102F0E9FCCDE90401DDE9062303E079
:1021000062E044E026E007E002F072FECDE908015B
:1021100002F0F4FB044675E0404603F093F8CDE985
:102120000601504603F056FA019003F08BF84FF089
:1021300033327D4BCDE9020102F0C6FCCDE904014A
:10214000DDE9062302F054FECDE9080102F0D6FBDA
:10215000044657E0404603F075F8CDE906015046C5
:1021600003F038FA019003F06DF86D4A6F4BCDE93A
:10217000020102F0A9FCCDE90401DDE9062302F029
:1021800037FECDE9080102F0B9FB04463AE04046CB
:1021900003F058F8CDE90601504603F01BFA019010
:1021A00003F050F80022624BCDE9020102F08CFCF2
:1021B000CDE90401DDE9062302F01AFECDE90801AC
:1021C00002F09CFB04461DE0404603F03BF8CDE9DD
:1021D0000601504603F0FEF9019003F033F8504A2F
:1021E000524BCDE9020102F06FFCCDE90401DDE9BB
:1021F000062302F0FDFDCDE9080102F07FFB044655
:1022000000E000BF00BF20460BB0BDE8F08F2DE915
:10221000F0410646FFF7CAFC464F8021464800F0D1
:10222000A0FEFFF7C3FC002507E04449485DFFF727
:1022300077FD7855FFF7BAFC6D1C142DF5D380217E
:102240003D4800F08CFE0C2E06D00D2E0FD00E2E29
:1022500018D00F2E2CD120E03649D1F8020003F01F
:10226000A1F98046364903F087F8044621E0314958
:10227000D1F8060003F096F98046314903F07CF866
:10228000044616E02B49D1F80A0003F08BF980468A
:102290002B4903F071F804460BE02649D1F80E00F3
:1022A00003F080F98046264903F066F8044600E012
:1022B00000BF00BF2046BDE8F08170B505460E4660
:1022C000002408E056F824102046FFF75FFD45F88B
:1022D0002400601CC4B20C2CF4DB0C2406E0204665
:1022E000FFF795FF45F82400601CC4B2102CF6DB04
:1022F00070BD70B505460E460C2D05DA31462846F0
:10230000FFF744FD044603E02846FFF780FF04463C
:10231000204670BD9A99999999D95A4066E65A40D3
:10232000CDCCCCCCCCEC5A4033F35A40CCAC5A4058
:1023300000A05A40F9040020000C01405659000842
:10234000000020410020704702460020704710B571
:102350000024FE49FE48006803F050FA00D801242A
:10236000FC49FB48006803F049F900D80224FA4907
:10237000FA48006803F042FA00D80324F849F94803
:10238000006803F03BFA00D80424204610BD2DE974
:10239000F05F8046894692469B460AADE0CD002418
:1023A000F148F249086002E0FFF7D1FF044600213E
:1023B000EF48006803F0A2F8F6D014B1E0B2BDE82F
:1023C000F09FEC4AE94801680020FEF769FEE74803
:1023D0000068E949086008E0FFF7B9FF04460CB15E
:1023E000E0B2ECE70A20FEF7FEFFDB49E3480068B5
:1023F00003F004F9F0D906E001210220FEF7BCFE4B
:102400000A20FEF7F0FFDE49D148006803F0F6F835
:10241000F2D900210220FEF7AFFE0120FEF7FFFFF8
:1024200001210020FEF7A8FE0120D6490870FEF722
:10243000F6FF01210420FEF79FFE0120D14908711B
:1024400011E0D149D148006803F0D8F902D2002048
:10245000CE490860FFF77BFF04460CB1E0B2AEE75F
:102460006420FEF7C0FFCA49C848006803F0C6F8F8
:10247000E7D301210846FEF77FFE0120C1494870DD
:1024800000209CE770B505460C4616460021042046
:10249000FEF772FE0020BB4908710520FEF7BFFF62
:1024A00000210120FEF768FE0020B6494870052093
:1024B000FEF7B5FF00210846FEF75EFE0020B14999
:1024C00008700520FEF7ABFF002108462268FEF7E2
:1024D000E7FD002070BD70B505460E4600240AE0F9
:1024E000002045F824004FF07E5200212046FEF7E0
:1024F000D7FD601CC4B20C2CF2DB002407E00020E6
:10250000305500212046FEF737FE601CC4B2082C6F
:10251000F5DB70BD10B5002406E0934A002120468B
:10252000FEF7BEFD601CC4B20C2CF6DB10BD70B50E
:10253000049C874D2860894D2960944D2A608F4DF9
:102540002B60944D2C604FF07E55894E356070BDE8
:102550002DE9F34F8BB08A464FF0000B00200A9014
:102560000B9802F06FFE044600228B4B02F040FCF9
:10257000CDE902010B9802F065FE04460D460B986A
:1025800002F060FE0646854A854B02F031FC80462B
:1025900022462B4602F02CFCCDE90001DDE90223A6
:1025A00002F066FD7F4A804BCDE9040102F0D8F9C4
:1025B00000227E4BCDE9060102F086FACDE9080142
:1025C00002F09CF983466849504602F0D5FE074662
:1025D000594603F047F8044602F034FE0546744AB3
:1025E000744B02F039FDCDE90401584602F02AFE91
:1025F00080468946504602F025FE04466E4A6F4BDF
:1026000002F0F6FB064600226D4B02F05DFA4246F0
:102610004B46CDE9000102F0EBFBCDE90201DDE91B
:10262000042302F051FA0022604BCDE9060102F0CA
:10263000DFFBCDE9080102F061F90A900A980DB0BC
:10264000BDE8F08F2DE9F04F93B05E48006B0F901E
:102650005C4A51681068FFF77BFF1190594AD168B6
:102660009068FFF775FF1290DDE9110103F0F8F8AB
:1026700010900F9802F0E6FD04460D460F9802F008
:10268000E1FD8046504A514B02F0B2FB064622461D
:102690002B4602F0ADFBCDE90A010F9802F0D2FD06
:1026A00080468946109802F0CDFD0646484A494BBF
:1026B00002F09EFB044642464B4602F099FBCDE9F0
:1026C0000601109802F0BEFD04460D46109802F077
:1026D000B9FD80463C4A404B02F08AFB0646224642
:1026E0002B4602F085FBCDE902010F9802F0AAFD0E
:1026F00004463A4A3A4B02F07BFB804689461098E2
:1027000002F0A0FD0646374A374B02F071FB044643
:10271000364A374B02F0A0FC824642464B4602F056
:102720001FF9CDE90001DDE9022302F019F9CDE935
:102730000401DDE9062302F09BFCCDE90801DDE997
:102740000A2302F095FCCDE90C0153E000000C4295
:10275000B00200200000E0400000BE42B4020020B1
:102760000000E642580100200000C842CC020020D0
:10277000BC020020000020417C030020C002002099
:1027800000008841180000200000F042B80200203C
:1027900000004842C402002000604B406B2BF697BB
:1027A000DDD313409A9999999975964000408F40CE
:1027B000CDCCCCCCCC5459408195438B6CE7E33FD6
:1027C00000005940FC020020AED85F764F1E663FE5
:1027D0001361C3D32B65793F4F1E863F0BB5A67996
:1027E000C729E63F8CB96B09F9A0C73F92CB7F4858
:1027F000BF3D104002F082F80E900E9813B0BDE875
:10280000F08F2DE9F047002400250026A146A246BE
:10281000FB4A51681068FFF79BFE0646F84AD168EC
:102820009068FFF795FE8146F6480078012816D19A
:102830004946304603F014F882465546F249284688
:1028400002F0DCFF0AD8284602F0FCFC0746002212
:10285000EE4B02F091FA01D8012400E0002420465A
:10286000BDE8F0872DE9F041044600250021E84845
:10287000006802F043FE02D1FFF769FD054615B17D
:10288000E8B2BDE8F0814FF07E51E148006802F007
:1028900035FE6ED1002DFCD1DE49DF48006802F024
:1028A000ADFF18D801210320FEF766FC0A20FEF7D1
:1028B0007FFD03E0D2480069D7490860D749D64870
:1028C000006802F09BFFF5D300210320FEF754FCC3
:1028D0000A20FEF76DFDD249D248006802F08EFF53
:1028E0000DD2D149CC48006802F088FE07D2012100
:1028F0000220FEF741FC0A20FEF75AFD15E0CB4905
:10290000C848006802F07AFE05D3C749C24800688B
:1029100002F074FF09D8C648007830B900210220BF
:10292000FEF72AFC0A20FEF743FDC249C2480068B0
:1029300002F064FF06D800210320FEF71DFC0A20E8
:10294000FEF736FDB949BC48006802F057FE11D8C1
:10295000BA49B148006802F051FF0BD2B84800787C
:1029600040B901210320FEF707FC0A20FEF720FDF5
:1029700013E0D6E0B349B048006802F03FFF05D34A
:10298000AE49A548006802F039FE06D800210320B0
:10299000FEF7F2FB0A20FEF70BFDAB499E480068EC
:1029A00002F02CFE0BD854B9A148007838B90121A7
:1029B0000220FEF7E1FB0A20FEF7FAFC0FE09A493D
:1029C0009548006802F01AFF09D89948007830B994
:1029D00000210220FEF7D0FB0A20FEF7E9FC954912
:1029E0009548006802F00AFE12D2012C10D19349DA
:1029F0008948006802F002FF0AD20120904908705D
:102A000001210320FEF7B8FB0A20FEF7D1FC1AE0F3
:102A10008B480078012816D188497F48006802F069
:102A2000EDFD06D92CB183498348006802F0E6FE2B
:102A300009D800208249087000210320FEF79CFB82
:102A40000A20FEF7B5FC8148006802F0FBFB064651
:102A500000227F4B02F090F915D273496E4800684E
:102A600002F0CCFD0FD274B96648007801280AD173
:102A700001210220FEF780FB0120FEF799FC0120D6
:102A80006B49087013E068496348006802F0B6FEBD
:102A90000DD867480078012809D100210220FEF7EF
:102AA0006BFB0A20FEF784FC002061490870674830
:102AB000006802F0C7FB06460022654B02F05CF995
:102AC00015D259495448006802F098FE0FD84D4875
:102AD000007801280BD154B901210220FEF74CFBEC
:102AE0000120FEF765FC0220514908702FE0504894
:102AF000007802282BD103E041480069464908606C
:102B000046494548006802F079FDF5D300210220CE
:102B1000FEF732FB0120FEF74BFC00204449087011
:102B200015E001210520FEF727FB00210420FEF718
:102B300023FB0120FEF773FC00210120FEF71CFBA4
:102B40000120FEF76CFC00210846FEF715FB374A12
:102B5000404801680020FEF7A3FA3E4800683E495D
:102B6000086000208DE62DE9F0410546002600278B
:102B70003A4801680068401C384A1060384840F8FC
:102B8000215010460068082802D100201146086034
:102B9000002407E0324850F82410304602F07EFB53
:102BA0000646641C082CF5DB4FF08241304602F0EB
:102BB000E3FB07463846BDE8F0812DE9F0410546C4
:102BC000002600272748056200240DE02549601CE7
:102BD00051F8200041F82400084650F824103046EF
:102BE00002F05CFB0646641C082CEFDB4FF08241D0
:102BF000304602F0C1FB07463846BDE8F0810000D0
:102C0000FC0200206001002000002C4200804840AF
:102C1000BC02002000000442B00200200000F84185
:102C200000008242B40200200000E0410000204188
:102C3000610100200000D8425801002000009041AE
:102C400062010020000070410000C0417C010020B2
:102C500000804540CC0200207C0300208C01002035
:102C6000200400204004002031490143314A116012
:102C7000704770B5002100230F22C47804B32D4C97
:102C8000246804F4E064C4F5E064210AC1F104039B
:102C9000CA40447804FA03F18478144021430901BE
:102CA000254C0678A155047804F01F050124AC409A
:102CB00005786D11AD0005F1E025C5F8004109E08A
:102CC000047804F01F050124AC401C4D06787611F1
:102CD00045F8264070BD1A4A0A400243154B1B1F97
:102CE0001A60704739B1134A121D12680243114B22
:102CF0001B1D1A6006E00F4A121D126882430D4B1D
:102D00001B1D1A607047042808D14FF0E0210969A3
:102D100041F004014FF0E022116107E04FF0E021A3
:102D2000096921F004014FF0E022116170470000B1
:102D30000000FA050CED00E000E400E080E100E0B6
:102D400080FFFF1F10B50446CC48844208D1012102
:102D5000042000F02DFB0021042000F029FB46E0B8
:102D6000C748844208D10121082000F021FB00213E
:102D7000082000F01DFB3AE0C248844208D101213E
:102D8000102000F015FB0021102000F011FB2EE0B8
:102D9000BD48844208D10121202000F009FB002118
:102DA000202000F005FB22E0B848844208D1012130
:102DB000402000F0FDFA0021402000F0F9FA16E072
:102DC000B348844208D10121802000F0F1FA0021AB
:102DD000802000F0EDFA0AE0AE48844207D10121DC
:102DE000801500F0E5FA0021A01500F0E1FA10BD11
:102DF00010B50121084600F0DBFA0021012000F0A7
:102E0000D7FA10BD2DE9F04102460025002600202A
:102E100000230024002791F803C00CF00F0591F85F
:102E200003C00CF0100CBCF1000F03D091F802C0ED
:102E30004CEA050591F800C0BCF1000F31D01468D0
:102E400000202BE04FF0010C0CFA00F3B1F800C0A9
:102E50000CEA03069E4220D183004FF00F0C0CFABF
:102E600003F7BC4305FA03FC4CEA040491F803C0E1
:102E7000BCF1280F06D14FF0010C0CFA00FCC2F88F
:102E800014C00AE091F803C0BCF1480F05D14FF01F
:102E9000010C0CFA00FCC2F810C0401C0828D1D369
:102EA0001460B1F800C0BCF1FF0F34DD546800209D
:102EB0002EE000F1080C4FF0010808FA0CF3B1F80D
:102EC00000C00CEA03069E4221D183004FF00F0C94
:102ED0000CFA03F7BC4305FA03FC4CEA040491F82E
:102EE00003C0BCF1280F05D100F1080C08FA0CF85A
:102EF000C2F8148091F803C0BCF1480F07D100F16B
:102F0000080C4FF0010808FA0CF8C2F81080401CB9
:102F10000828CED35460BDE8F0814FF6FF710180E0
:102F2000022181700421C17070470246002093681D
:102F30000B400BB1012000E000207047014688687B
:102F400080B2704702460020D3680B400BB10120CD
:102F500000E0002070470146C86880B270470161F8
:102F60007047416170470AB1016100E041617047FB
:102F7000C16070474FF480320A438261816182618F
:102F800082698269704702460020434B18684FF6F9
:102F90008073184040EA021008433F4B18607047A6
:102FA0003E49C8617047F0B50A460023002400215D
:102FB000002500F00046B6F1004F02D1364EF1690F
:102FC00001E0354E7168C0F3034583B200F440164A
:102FD000B6F5401F08D121F070612F4E766826F0BB
:102FE00070662D4F7E6012E000F48016B6F5801FEB
:102FF00006D1032606FA05F4A14341F0706106E00C
:10300000460D360103FA06F6B14341F0706122B174
:10301000460D360103FA06F6314300F00046B6F1DC
:10302000004F02D11C4EF16101E01B4E7160F0BDFA
:1030300030B500228B071C0F0F2303FA04F2164B46
:1030400008338C1053F824309343134C08348D10FC
:1030500044F8253023468C1053F824308C07240F75
:1030600000FA04F423430C4C08348D1044F8253046
:1030700030BD0A49DC31086070470000000801409B
:10308000000C0140001001400014014000180140F4
:10309000001C0140002001400000014000002042CF
:1030A000DF48006840F00100DD49086008464068DC
:1030B000DC490840DA49486008460068DA490840B7
:1030C000D74908600846006820F480200860084658
:1030D000406820F4FE0048604FF41F00886070478D
:1030E000CF49096821F48031CD4A11601146096841
:1030F00021F480211160B0F5803F03D0B0F5802F1E
:103100000ED106E0C649096841F48031C44A116015
:1031100007E0C349096841F4A021C14A116000E0F9
:1031200000BF00BF704710B50146002200230020F9
:103130004A11012A02D1BA4C236806E0022A02D1C0
:10314000B74C236A01E0B64C636A01F01F02012408
:1031500094401C400CB1012000E0002010BD38B5A7
:10316000002000900024002500BF3120FFF7DBFF86
:1031700005460098401C00900098B0F5A06F01D063
:10318000002DF2D03120FFF7CEFF08B1012400E07E
:103190000024204638BD01460020A14A106820F0D6
:1031A000F80040EAC10010607047A049086070470D
:1031B000024600209A4B586820F47C1042EA010332
:1031C0001843974B58607047984908667047014606
:1031D0000020934A506820F0030008435060704775
:1031E0008F48406800F00C007047014600208C4A70
:1031F000506820F0F00008435060704701460020FE
:10320000874A506820F4E0600843506070470146E8
:103210000020834A506820F4605040EAC1005060AA
:10322000704729B17E4A527A02437D4B5A7204E0BC
:103230007B4A527A82437A4B5A7270477B49D83123
:103240000860704701460020754A506820F44040ED
:103250000843506070470021714A20321170704A53
:1032600082F82010012802D004280AD104E00121AC
:103270006B4A2032117005E00521694A2032117035
:1032800000E000BF00BF70476949086070476449AB
:10329000096A0143624A116270476549443908600E
:1032A000704730B500210022002400235C4D6D687A
:1032B00005F00C0121B1042905D0082923D105E02E
:1032C0005C4D056022E05B4D05601FE0544D6D686C
:1032D00005F47012524D6D6805F48034022505EB3B
:1032E00092421CB9544D554305600BE04C4D6D683E
:1032F00005F400351DB1504D5543056002E04D4DBC
:103300005543056002E04B4D056000BF00BF444DD2
:103310006D6805F0F0010909484D6B5C0568DD40FA
:1033200045603F4D6D6805F4E061090A434D6B5CF3
:103330004568DD4085603A4D6D6805F46051C90A05
:103340003E4D6B5C4568DD40C560354D6D6805F4EC
:103350004041890B3A4D6B5CC568B5FBF3F50561DF
:1033600030BD29B12E4A526902432D4B5A6104E007
:103370002B4A526982432A4B5A61704729B1284A25
:1033800092690243264B9A6104E0254A926982437E
:10339000234B9A61704729B1214AD2690243204BDD
:1033A000DA6104E01E4AD26982431D4BDA6170473C
:1033B00029B11B4AD2680243194BDA6004E0184A6B
:1033C000D2688243164BDA60704729B1144A1269F9
:1033D0000243134B1A6104E0114A12698243104BF5
:1033E0001A61704712494039086070470F49C86434
:1033F00070470B49C87170470948406A40F08070B7
:1034000007494862704701460020054A92680A4011
:103410000AB1012000E0002070470149887270471E
:10342000001002400000FFF8FFFFF6FE00004242DD
:103430008004424200127A0000093D00D4020020BC
:10344000E402002010B50446FB48844209D1012162
:103450008803FFF7ADFF00214FF48040FFF7A8FF7E
:1034600032E0F648844209D101214804FFF7ADFF5C
:1034700000214FF40030FFF7A8FF25E0F048844218
:1034800009D101218804FFF7A0FF00214FF480201B
:10349000FFF79BFF18E0EB48844209D10121C804E3
:1034A000FFF793FF00214FF40020FFF78EFF0BE0A2
:1034B000E548844208D101210805FFF786FF002175
:1034C0004FF48010FFF781FF10BD2DE9F04786B063
:1034D00005460E460024A24600BFA1460027B0893B
:1034E00000B100BF2F462C8A4CF6FF700440F088D4
:1034F00004432C82AC894EF6F3100440B088318925
:103500000843718908430443AC81AC8A4FF6FF40FD
:103510000440B0890443AC8201A8FFF7C2FEC6484C
:10352000874202D1DDF810A001E0DDF80CA0A889E7
:1035300000F4004040B10AEBCA0000EB0A10316809
:103540004900B0FBF1F807E00AEBCA0000EB0A10F3
:1035500031688900B0FBF1F86420B8FBF0F0040199
:103560002009642101FB1089A88900F4004040B1C2
:10357000322000EBC900B0FBF1F000F0070004437B
:1035800008E0322000EB09106421B0FBF1F000F0FC
:103590000F0004432C8106B0BDE8F0874FF41651AC
:1035A000016000218180C18001810C2141810021C5
:1035B0008181704710B502460020108A4FF2FF0348
:1035C00018400B884C8823438C882343CC882343A2
:1035D0001843108210BD0021018041808180C1808C
:1035E000704721B1828942F40052828104E08289CD
:1035F0004DF6FF731A4082817047F0B503460024F0
:1036000000260025002040F66A17B94200D100BF0D
:103610001846C1F3421401F01F06012707FA06F508
:10362000012C01D10C3004E0022C01D1103000E05B
:1036300014301AB107682F43076002E00768AF43F0
:103640000760F0BD1AB1838A0B43838202E0838A4C
:103650008B4383827047028A4FF6F0731A400282CE
:10366000028A0A430282704782894FF2FF731A402E
:10367000828182890A438281704721B1828942F026
:103680000202828104E082894FF6FD731A40828132
:103690007047028A4FF6DF731A400282028A0A4399
:1036A0000282704721B1028A42F48042028204E021
:1036B000028A4BF6FF731A4002827047C1F3080278
:1036C0008280704701468888C0F30800704781896E
:1036D00041F0010181817047028BD2B20283028BDB
:1036E00042EA012202837047028B02F47F42028386
:1036F000028B0A430283704721B1828A42F0200282
:10370000828204E0828A4FF6DF731A408282704719
:1037100021B1828A42F01002828204E0828A4FF64E
:10372000EF731A408282704721B1828A42F0080208
:10373000828204E0828A4FF6F7731A4082827047D1
:1037400021B1828942F40042828103E08289C2F37E
:103750000E028281704721B1828A42F40062828225
:1037600004E0828A4FF2FF731A4082827047828A95
:103770004FF6FB731A408282828A0A438282704724
:1037800021B1828A42F00202828204E0828A4FF6EC
:10379000FD731A408282704702460020B1F5007F17
:1037A00000D100BF13880B400BB1012000E00020C6
:1037B000704701F40072B2F5007F00D100BFCA4328
:1037C0000280704770B502460024002300250020C7
:1037D00040F66A16B14200D100BFC1F3421501F0B4
:1037E0001F03012606FA03F3012D02D19689334007
:1037F00006E0022D02D1168A334001E0968A33405A
:103800000C12012606FA04F41688344013B10CB1E8
:10381000012000E0002070BD10B50022002340F61A
:103820006A14A14200D100BF0A1201249440A3B23D
:10383000DC43048010BD000000380140004400401B
:1038400000480040004C00400050004010B50446C5
:10385000FE48844208D10121C014FFF7A9FD0021D0
:10386000E014FFF7A5FDC4E0B4F1804F08D10121B9
:103870000846FFF7AAFD00210120FFF7A6FDB8E0EA
:10388000F348844208D101210220FFF79EFD002168
:103890000220FFF79AFDACE0EE48844208D10121F6
:1038A0000420FFF792FD00210420FFF78EFDA0E029
:1038B000E948844208D101210820FFF786FD002154
:1038C0000820FFF782FD94E0E448844208D10121FA
:1038D0001020FFF77AFD00211020FFF776FD88E029
:1038E000DF48844208D101212020FFF76EFD00212E
:1038F0002020FFF76AFD7CE0DA48844208D10121EC
:103900004014FFF755FD00216014FFF751FD70E0F2
:10391000D548844209D10121C804FFF749FD00219F
:103920004FF40020FFF744FD63E0D048844209D102
:1039300001210805FFF73CFD00214FF48010FFF73F
:1039400037FD56E0CA48844209D101214805FFF7F6
:103950002FFD00214FF40010FFF72AFD49E0C54874
:10396000844208D101214020FFF72FFD0021402093
:10397000FFF72BFD3DE0C048844208D101218020A3
:10398000FFF723FD00218020FFF71FFD31E0BB483A
:10399000844208D101218015FFF717FD0021A015F1
:1039A000FFF713FD25E0B648844209D10121080440
:1039B000FFF7FEFC00214FF48030FFF7F9FC18E020
:1039C000B048844209D101214804FFF7F1FC0021ED
:1039D0004FF40030FFF7ECFC0BE0AB48844208D119
:1039E00001218804FFF7E4FC00214FF48020FFF759
:1039F000DFFC10BD00220288944B98420ED0994BF8
:103A000098420BD0B0F1804F08D0914B984205D02E
:103A1000904B984202D0904B984204D14FF68F734E
:103A20001A404B881A438D4B984207D08C4B9842D2
:103A300004D04FF6FF431A40CB881A4302808B888C
:103A400083850B880385814B98420BD0854B984228
:103A500008D08B4B984205D08A4B984202D08A4BB3
:103A6000984201D10B7A038601238382704770B597
:103A7000002400220023058C4FF6FE763540058495
:103A8000028C8388048B4FF68F752C40B51E2C401A
:103A90000D882C43751E2A400D892A434D882A43E0
:103AA0006A4DA8420BD06F4DA84208D0744DA84271
:103AB00005D0744DA84202D0734DA84213D14FF6E1
:103AC000F7752A404D892A434FF6FB752A408D88A9
:103AD0002A434FF6FF652B404FF6FF552B408D894B
:103AE0002B43CD892B4383800483CD888586028434
:103AF00070BD70B5002400220023058C4FF6EF76D0
:103B000035400584028C8388048B48F6FF752C4071
:103B10004FF6FF452C400D884FF6FF7606EA052547
:103B20002C434FF6DF752A400D8906EA05152A4316
:103B30004D8806EA05152A43444DA84202D0494D56
:103B4000A8421DD14FF67F752A404D894FF6FF766A
:103B500006EA05152A434FF6BF752A408D8806EA06
:103B600005152A434FF6FF352B404FF2FF752B40CA
:103B70008D8906EA85052B43CD8906EA85052B4309
:103B800083800483CD880587028470BD70B50024CE
:103B900000220023058C4FF6FF6635400584028C19
:103BA0008388848B4FF68F752C404FF6FC752C4024
:103BB0000D882C434FF6FF552A400D894FF6FF76AE
:103BC00006EA05252A434D8806EA05252A431F4DA6
:103BD000A84202D0234DA8421DD14FF2FF752A40C2
:103BE0004D894FF6FF7606EA05252A434FF6FF3545
:103BF0002A408D8806EA05252A434EF6FF752B409C
:103C00004DF6FF752B408D8906EA05152B43CD89AE
:103C100006EA05152B4383808483CD88858702843B
:103C200070BD70B5002200230024058C4EF6FF768F
:103C300035400584038C8488828B48F6FF752A40C2
:103C40004FF6FF452A400D8820E00000002C01407F
:103C50000004004000080040000C0040001000403C
:103C60000014004000340140004C0140005001406D
:103C70000054014000180040001C0040002000409B
:103C80000040014000440140004801404FF6FF76EB
:103C900006EA05252A434DF6FF752B400D8906EAF5
:103CA00005352B434D8806EA05352B43FA4DA842CE
:103CB00002D0FA4DA84208D14BF6FF752C408D89F1
:103CC0004FF6FF7606EA85152C4384808283CD88E3
:103CD000A0F84050038470BD828B4FF2FF331A402E
:103CE0008283828B4FF6FF7303EA01231A43828398
:103CF0007047F0B50C461546002200210026078CBF
:103D00004EF6FF7C07EA0C070784828B018C4FF686
:103D1000FF7707EA043640F6FF473A404FF6FF7751
:103D200007EA05273A434FF6FF7707EA03373A4396
:103D3000D94FB8420ED0D94FB8420BD0B0F1804F16
:103D400008D0D74FB84205D0D64FB84202D0D64F90
:103D5000B84206D14DF6FF77394046F480573943D3
:103D600005E047F6FF57394044F4805739438283D2
:103D70000184F0BD828B4FF6F3731A408283828BED
:103D80000A4382837047F0B50C4615460022002195
:103D90000026078C4FF6FF6C07EA0C070784828B1E
:103DA000018C4FF6FF7707EA04264FF60C773A406E
:103DB0004FF6FF7707EA03172F433A43B64FB8424F
:103DC0000ED0B64FB8420BD0B0F1804F08D0B44FF0
:103DD000B84205D0B34FB84202D0B34FB84206D173
:103DE0004FF6FF57394046F48077394305E04FF2EC
:103DF000FF57394044F48077394382830184F0BD12
:103E0000028B4FF2FF331A400283028B4FF6FF738F
:103E100003EA01231A4302837047F0B50C461546A6
:103E2000002200210026078C4FF6EF7C07EA0C07E2
:103E30000784028B018C4FF6FF7707EA041640F6E1
:103E4000FF473A404FF6FF7707EA03373A434FF60A
:103E5000FF7707EA05273A438F4FB8420ED08F4FBE
:103E6000B8420BD0B0F1804F08D08D4FB84205D08A
:103E70008C4FB84202D08C4FB84206D14FF6DF7754
:103E8000394046F01007394305E04FF65F77394077
:103E900044F01007394302830184F0BD028B4FF6D2
:103EA000F3731A400283028B0A4302837047F0B512
:103EB0000C46154600220021068C4FF6FE773E4048
:103EC0000684028B018C4FF60C7632407E1C06EA8B
:103ED00003162E433243704EB0420ED06F4EB042A6
:103EE0000BD0B0F1804F08D06D4EB04205D06D4E72
:103EF000B04202D06C4EB04206D14FF6FD76314052
:103F000044F00106314305E04FF6F576314044F0C8
:103F10000106314302830184F0BD70B505460C46AD
:103F20005D4885420ED05D4885420BD0B5F1804F8B
:103F300008D05B48854205D05A48854202D05A488D
:103F4000854200D100E000BF208850B92389A288B3
:103F500061882846FFF7ABFFE1882846FFF79EFF00
:103F600025E0208804280AD12389A2886188284670
:103F7000FFF753FFE1882846FFF742FF17E020884C
:103F800008280AD12389A28861882846FFF7FBFE0A
:103F9000E1882846FFF7EEFE09E02389A2886188C0
:103FA0002846FFF7A6FEE1882846FFF795FE70BD7C
:103FB0002DE9F04105460C4600260127608808B926
:103FC000022600E00026A088012801D1022700E097
:103FD00001272088A0B92389A28861882846FFF795
:103FE00066FFE1882846FFF759FF23893A463146A4
:103FF0002846FFF712FFE1882846FFF701FF13E08C
:104000002389A28861882846FFF707FFE1882846B0
:10401000FFF7F6FE23893A4631462846FFF747FF69
:10402000E1882846FFF73AFFBDE8F0810A884B880F
:104030001A438B881A43CB881A430B891A434B893E
:104040001A438B891A43A0F8442070474FF6FF713A
:10405000818000210180C180418001727047002170
:10406000018041808180C180018141818181C18144
:104070007047002101804180012181800021C180A1
:10408000018170470021018041808180C1800181D0
:104090004181818170470000002C014000340140C3
:1040A0000004004000080040000C004021B10288DC
:1040B00042F00102028004E002884FF6FE731A40CB
:1040C0000280704731B1B0F8442042F40042A0F8B9
:1040D000442005E0B0F84420C2F30E02A0F84420CA
:1040E00070471AB183890B43838102E083898B4334
:1040F000838170478182704741EA0203A0F848300B
:1041000070471AB183890B43838102E083898B4313
:104110008381704701894FF6F87211400181704721
:104120000A46002101894FF68F731940114301811E
:10413000704730B504460D4629462046FFF7F0FF8C
:10414000208940F00700208130BD2DE9F041044670
:104150000D4616461F46602D06D13B4601223146CC
:104160002046FFF75AFE05E03B4601223146204635
:10417000FFF79DFE29462046FFF7D2FF208940F039
:1041800007002081BDE8F08130B50C46002101898F
:10419000C9B24FF6FF7505EA0325154325432943A8
:1041A000018130BD2DE9F04105460E46174698467F
:1041B000002443463A4631462846FFF7E5FF2C895E
:1041C0004FF6F870044044F007044FF68F70044037
:1041D00044F070042C81BDE8F081F0B504460D4632
:1041E00016461F463B46324629462046FFF7CCFF7F
:1041F000208940F480402081F0BD01858282704793
:104200000A46002101884FF68F731940114301803F
:104210007047F0B50C4615461E46002100220023CB
:104220000189028B038C4FF6F877394021434FF612
:10423000FC473A4040F201173A434FF6DD773B40E6
:104240004FF6FF7707EA06172F433B4301810283AE
:104250000384F0BD0A460021018B4FF68F7319408D
:104260001143018370470A460021018B48F6FF7312
:1042700019404FF6FF7303EA022319430183704785
:104280000A460021818B4FF68F73194011438183B9
:1042900070470A460021818B48F6FF7319404FF69C
:1042A000FF7303EA022319438183704721B1028817
:1042B00042F08002028004E002884FF67F731A40C9
:1042C0000280704721B1828842F00402828004E0BB
:1042D00082884FF6FB731A408280704721B1828832
:1042E00042F00802828004E082884FF6F7731A4099
:1042F0008280704721B1828842F00102828004E00E
:1043000082884FF6FE731A40828070470A46002169
:10431000018B4FF6F77319401143018370470A462A
:104320000021018B4FF2FF7319404FF6FF7303EA30
:1043300002231943018370470A460021818B4FF6FF
:10434000F77319401143818370470A460021818B1E
:104350004FF2FF7319404FF6FF7303EA022319432C
:10436000818370470A460021018B4FF6FB73194089
:104370001143018370470A460021018B4FF6FF333A
:1043800019404FF6FF7303EA022319430183704774
:104390000A460021818B4FF6FB731940114381833C
:1043A00070470A460021818B4FF6FF3319404FF6C4
:1043B000FF7303EA02231943818370470A460021F1
:1043C000018B4FF67F7319401143018370470A46F2
:1043D0000021018BC1F30E014FF6FF7303EA0223A4
:1043E0001943018370470A460021818B4FF67F7382
:1043F00019401143818370470A460021818BC1F324
:104400000E014FF6FF7303EA0223194381837047BD
:104410000A460021018C4FF6FD73194011430184B7
:1044200070470A460021018C4FF6F773194011437B
:10443000018470470A460021018C4FF6DF73194052
:104440004FF6FF7303EA02131943018470470A46CB
:104450000021018C4FF67F7319404FF6FF7303EA7A
:1044600002131943018470470A460021018C4FF65C
:10447000FF5319404FF6FF7303EA022319430184E7
:1044800070470A460021018C4FF2FF7319404FF626
:10449000FF7303EA02231943018470470A4600218F
:1044A000018C4DF6FF7319404FF6FF7303EA023398
:1044B00019430184704730B5002301248C40A3B216
:1044C000048C9C430484048C02FA01F5ADB22C43A5
:1044D000048430BD30B5002304248C40A3B2048C86
:1044E0009C430484048C02FA01F5ADB22C4304848D
:1044F00030BD70B503460020002418461830012551
:104500008D40ACB21D8CA5431D8409B1082909D189
:1045100000EB6100056825F070050560056815432E
:1045200005600EE00D1FC5F34E052844056825F40F
:10453000E045056005684FF6FF7606EA022635433A
:10454000056070BD21B1028842F00202028004E0E1
:1045500002884FF6FD731A400280704721B102882D
:1045600042F00402028004E002884FF6FB731A4016
:104570000280704721B1828842F08002828004E08C
:1045800082884FF67F731A408280704702884FF608
:10459000F7731A40028002880A43028070478288BB
:1045A0004FF68F731A40828082880A438280704758
:1045B00002894FF6F8731A40028102890A43028188
:1045C000704702894FF67F731A40028102890A43BD
:1045D000028170478184704781857047818670476A
:1045E0000187704781877047A0F8401070470288A4
:1045F0004FF6FF431A40028002880A430280704748
:104600000146888E70470146088F70470146888FA3
:1046100070470146B1F8400070470146888C7047EA
:104620000146088D704702460020138A0B400BB1EB
:10463000012000E000207047CA430282704730B575
:104640000246002000230024158A05EA010395890B
:1046500005EA010413B10CB1012000E0002030BDD7
:10466000CA430282704700000CB500200190009000
:104670006C48006840F480306A49086000BF6948AF
:10468000006800F4003000900198401C01900098F0
:1046900018B90198B0F5A06FF1D16248006800F434
:1046A000003010B10120009001E00020009000983F
:1046B000012843D15C48006840F010005A49086066
:1046C0000846006820F0030008600846006840F0D3
:1046D00002000860534840685249486008464068F4
:1046E00048600846406840F480604860084640687A
:1046F00020F47C1048600846406840F4E8104860A8
:104700000846006840F08070086000BF45480068B7
:1047100000F000700028F9D04248406820F0030003
:10472000404948600846406840F00200486000BFC9
:104730003C48406800F00C000828F9D10CBD10B5C9
:10474000FFF792FF10BD10B53648006840F0010039
:104750003449086008464068344908403149486097
:1047600008460068324908402E490860084600683B
:1047700020F4802008600846406820F4FE0048606D
:104780004FF41F008860FFF7DAFF4FF000602949FF
:10479000086010BD10B5002100200022214B5B688D
:1047A00003F00C0121B1042906D0082928D107E023
:1047B000214B224C236027E01F4B204C236023E039
:1047C000184B5B6803F47010164B5B6803F480327F
:1047D000022303EB904022B9194B4343174C23604B
:1047E0000DE0104B5B6803F4003323B1144B4343DB
:1047F000124C236003E0104B4343104C236003E052
:104800000D4B0E4C236000BF00BF064B5B68C3F32B
:1048100003130C4CE15C094B1B68CB40074C236035
:1048200010BD000000100240002002400000FFF810
:10483000FFFFF6FE08ED00E000127A00E80200201B
:1048400000093D00EC020020094880470948004764
:10485000FEE7FEE7FEE7FEE7FEE7FEE7FEE7FEE730
:10486000FEE7FEE704480549054A064B704700008D
:10487000474700083101000888050020880B002008
:1048800088070020880700207047704770477546EA
:1048900000F028F8AE4605006946534620F00700B0
:1048A000854618B020B5FFF7DDFFBDE820404FF08A
:1048B00000064FF000074FF000084FF0000B21F00A
:1048C0000701AC46ACE8C009ACE8C009ACE8C009D7
:1048D000ACE8C0098D4670470446AFF3008020461F
:1048E000FBF78DFC00487047240500200149182083
:1048F000ABBEFEE7260002007047000021F0004238
:10490000A2F16052B2F5801F01F0004328BFD2F13E
:104910007F6C0BD95FEA001C43EAC20242EB507085
:1049200018BF704728BF20F001007047B2F5801F04
:10493000BCBF184670474FEA410C1CF5001F02D25D
:10494000084600F056BF70B500F0FCFA0000008980
:10495000FFF7F6BF4FF00040A0F580007047000061
:1049600010B591EA030F48BF83F0004300F188833C
:10497000841A71EB030C05D2121943EB0C03001BD4
:1049800061EB0C01DFF824E14FEA1154A4EB135C56
:104990001EEA430F18BF9EEA445F73D023EA0E035A
:1049A000DCF1200E21EA045143F4801332D322FAC1
:1049B0000CFE10EB0E0023FA0CFE41EB0E01CCF1C5
:1049C000200E03FA0EFE10EB0E0051F10001B1F5BE
:1049D000801FCCF1200E32D201EB045112FA0EF2FC
:1049E000BDE8104058BF7047401C38BF5FEA420224
:1049F00018BF7047002814BF20F0010041F10001EA
:104A00004FEA410313F5001F38BF7047A1F1C041C1
:104A100000F0E6BA012A43EB0302ACF1200CDCF112
:104A20001F0E32BF4FF0000E23FA0CF310EB030001
:104A300041EB0451B4EB115FD0D0A1EB045101F56F
:104A4000801149085FEA300001EB04510ED350F1A8
:104A5000000038BF12FA0EFE08D1BDE81040C9E7C9
:104A6000401C38BF5FEA4202CAD1C3E7BDE810402C
:104A70004FEA410313F5001F38BF7047A1F1C04151
:104A800000F0AEBA9EEA445F08D011EA5E0FBDE8BE
:104A9000104004BF01F0004100207047BDE8104005
:104AA00070B500F04FFA00BF64FBBE3E0000E0FFAF
:104AB000491058BFC1F140415B1058BFC3F140439A
:104AC0008B42EFF3008070472DE9C04130B4DFF82E
:104AD000A0C23CEA111418BF3CEA131400F0EC80A9
:104AE00081EA03051CEA111444EAD57418BF1CEAD4
:104AF000131500F0C780A4EB05044FF0004545EA0C
:104B0000C12145EAC32341EA505143EA525304F11B
:104B10007F74994204F500344FEAC0204FEAC22264
:104B200008BF904200F09C804FEA13650FF24016D8
:104B3000765D4FEA134506FB05F7C7F1807706FB64
:104B400007F74FEAD737A7FB03687642C8F58038E6
:104B5000A7FB06CE38BFA8F1010807FB08E64FF017
:104B6000000EA6FB028CE6FB03CEDCF1000CCEF1BE
:104B7000004E38BFAEF1010EA6FB0C584FF00007F7
:104B80004FF00005E6FB0E87A1FB08C6A0FB07CE91
:104B900016EB0E0645F10005E1FB076515F1E04E49
:104BA0007EBFA4F580345FEA46066D4116F18007AA
:104BB00045F100054FEA17274FEA066647EA056701
:104BC000A6F1DE46B6F1805F4FEA15251FD93846BB
:104BD00024F0010C05EBC471BCF1FE6F01EB0C116C
:104BE00002D8F0BCBDE8008124425CBF01F5801E04
:104BF0009EEAC47F02D4F0BCBDE80081244238D4D0
:104C0000F0BCA1F1C041BDE8004100F0E9B94FEAB4
:104C1000D22242EA43524FEAD323A7FB02864FEA4D
:104C2000D02040EA415007FB03661EEA0E0F4FEA10
:104C3000D12105FB026658BFA6EB0056B6EB005625
:104C40004FEA520E4EEAC37E18EB0E0E56EB530E91
:104C5000BDD518EB02085E417F1C55F10005B6E793
:104C60004FF480154FF000074FF000064FF000089A
:104C7000ADE7F0BC4FF0000001F1C04101F0004190
:104C8000BDE8008111EA0C1F0CEA131500D00CE0FE
:104C900013EA0C1F00F025804FF00000F0BC81EA01
:104CA000030101F00041BDE80081F0BCBDE8004116
:104CB00081EA030100F094B9F0BCBDE8004170B591
:104CC00000F040F9097EFC3E00F007B881EA0301DC
:104CD0004FF0000001F00041704781EA030100F04D
:104CE0007FB9F0BCBDE800414FF00000214970479A
:104CF000FFFDFBF9F7F5F4F2F0EEEDEBE9E8E6E4A1
:104D0000E3E1E0DEDDDBDAD8D7D5D4D3D1D0CFCD27
:104D1000CCCBCAC8C7C6C5C4C2C1C0BFBEBDBCBB60
:104D2000BAB9B8B7B6B5B4B3B2B1B0AFAEADACAB5B
:104D3000AAA9A8A8A7A6A5A4A3A3A2A1A09F9F9E35
:104D40009D9C9C9B9A9999989797969595949393E7
:104D5000929191908F8F8E8E8D8C8C8B8B8A89897E
:104D60008888878786858584848383828281818001
:104D70000000FF070000F87F51EA030C17D41CF570
:104D8000801F58BFBCF5801F00F10680994218BFF4
:104D9000704708BF9042704707D711F5801F58BF72
:104DA00013F5801F19D499427047894270471CF54A
:104DB000801F08D5BCF5801FF7D58B4218BF704700
:104DC00008BF824270474FF4001C1CEB410F38BFF4
:104DD0001CEB430F01D28B42704770B500F0B2F864
:104DE000922449004FF000514FF08053FFF760BE0E
:104DF000DFF848C170B51CEA111E1EBF1CEA13156E
:104E00009EEA0C0F95EA0C0F00F06F8081EA030414
:104E100023EA4C134EEAD47E21EA4C1141F480116E
:104E200043F48013AE44A1FB024CA0FB0365AEF13A
:104E30007F7E361955EB0C05A1FB034C4CF10003AA
:104E4000A0FB021C16EB0C06654153F1000309425E
:104E500018BF46F0010613F4007F0BD14FEA03316F
:104E60004FEA0530340341EA155140EA16506FF01D
:104E700003020AE04FEAC3214FEAC520F40241EAE7
:104E8000555140EA56506FF0020202EB2E4201EB00
:104E9000025585EACE710AD05FEA440C18BF24F0AF
:104EA000004450F1000041F1000120EAD47040F2CA
:104EB000FE7C624500D270BDA84214BF4FF0804412
:104EC0004FF04044002E08BF0024BEF1806FA8BF01
:104ED000A1F1C041BDE8704080F282804FF0000037
:104EE00001F1C04101F0004170479EEA0C0F0CEA4D
:104EF000131518BF95EA0C0F06D04FF0000081EA99
:104F0000030E0EF0004170BD00F01CF88900013E58
:104F100000F007B800F009B84FEA430C5FEA5C5CA8
:104F200008D081EA030100F05BB84FEA410C5FEA68
:104F30005C5CF6D14FF00000014970470000FF07AC
:104F40000000F87F0EF1020E2EF0030E5EF8046BE7
:104F5000364205D4012A43EB030515F5001F12D88C
:104F6000012841EB010C1CF5001F0CD80ED14FEAB3
:104F7000D17C15F5001F0CEB4C0C0CF1020C08BF9A
:104F80004CEBD37C04E04FF0080C01E04FEAD37CFB
:104F90000CEB4C0526FA05F606F00706B6F1040CF4
:104FA00006D20EEB860CBDE870404CF0010C604759
:104FB000DFE80CF0090B02024FF000414FF0000057
:104FC000A1F5002170BD19461046012851EB0104DE
:104FD00018BFD4F5001484BF002001F0004170BD5B
:104FE0000808A0F500114FEA3101704753EA010C9F
:104FF00017D41CF5801F58BFBCF5801F00F1068038
:105000008B4218BF704708BF8242704707D713F51D
:10501000801F58BF11F5801F19D48B4270479B42E7
:1050200070471CF5801F08D5BCF5801FF7D5994245
:1050300018BF704708BF904270474FF4001C1CEB2C
:10504000430F38BF1CEB410F01D2994270470FB498
:105050000CBC03BCFFF7C1BE91EA030F10B581F091
:1050600000413FF585AC83F0004300F009B8000033
:1050700010B591EA030F48BF83F000433FF578ACC9
:10508000841A71EB030C07D212198CF0004C43EB1D
:105090000C03001B61EB0C01DFF8A4E14FEA115493
:1050A000A4EB135C1EEA430F18BF9EEA445F00F0B6
:1050B000B08023EA6E03524221EA0451C3EB6E032F
:1050C00038BF5B1EDCF1200E25D322FA0CFE10EB5C
:1050D0000E0043FA0CFE41EB0E01CCF1200E03FA58
:1050E0000EFE10EB0E0051F10001CCF1200E29D480
:1050F00012FA0EF201EB0451BDE8104058BF7047A0
:10510000401C1CBFB2F1004F704700280CBF491C67
:1051100020F00100704712EB020E43EB030218BFB0
:105120004FF0010E4EEA4202ACF1200CDCF11E0EF3
:1051300054D943FA0CFE10EB0E0051F1FF31CCF1C3
:105140001E0ED5D50EF1010E12FA0EFE404141EBB6
:10515000010101EB445C5FEA5C5C10D910EBDE708E
:1051600001EB045138BFBEF1004FBDE8104018BF3D
:10517000704700280CBF491C20F00100704730D256
:105180004FEAD42C11F5001124F400641BD0B1FABD
:1051900081F20B3AA41AA41ED2F12003914030FAF6
:1051A00003F31943904001EBCC71002C01EB045147
:1051B000BDE81040A8BF704701F1C0414FF00000AA
:1051C00001F000417047B0FA80F310FA03F100D10A
:1051D00010BDE41A173C4805C90AE4E701EB045185
:1051E00010BD491001EB0451BDE810404FEA3000FA
:1051F00002E04FF0000170474A0008BF0042F8D0BB
:10520000B2F5001F28BF704701F000414FF00000C9
:1052100070479EEA445F07D011EA5E0FBDE8104078
:1052200004BF002100207047BDE8104070B5FFF7B3
:1052300089FE00BF40DFF63E83F000411046704714
:105240000000E0FF43004FEAD30C4FEA3C0C434020
:105250001FBF40070CF1605113F0FE4F70471CF068
:10526000006F03D100200CF0004170470CF00043A8
:1052700043EA507010B540EACC0000F074FA00BF69
:10528000000000924FEA0001FFF7AABE4FF0004174
:105290004FF00000A1F500217047000090EA010FD7
:1052A00048BF81F0004100F1E282421A3CBF801AFF
:1052B00089184FEAD0524FF07F4C1CEA410FA2EB05
:1052C000D15318BF9CEA026F00F03B804FF0004CB6
:1052D0004CEA00204CEA012121FA03FC10EB0C0CF3
:1052E0001ED202F1FF325FEA1C2040EBC25038BFF1
:1052F00070471CF07F0F4FEA400C18BFBCF17F4F86
:1053000038BF7047C3F12003994008BF20F0010067
:10531000BCF17F4F38BF7047A0F1C04000F069BAC0
:105320004FEA3C00000A40EBC25028BF1CF0FF0FC0
:105330004FEA400CE6D018BFBCF17F4F38BF704732
:10534000EAE79CEA026F05D010EA5C0F08BF00F0A4
:105350000040704710B500F006FA00BF64FBBE3E87
:10536000401058BFC0F14040491058BFC1F1404102
:105370008142EFF3008070474FF47F0C1CEAD0129B
:105380001EBF1CEAD11392EA0C0F93EA0C0F00F037
:10539000858090EA010F48BF42F4807240F4000C0F
:1053A00041F400002CF07F4120F07F4000B58142A5
:1053B000A2EB03020FF2081CACEB504EC0F1000050
:1053C0009EF800E04FEA4E0E00FB0EFC38BF49008D
:1053D0004FEA2C1C02F5FA020CFB0EF34FEACE1E2C
:1053E0004FEA112C4FEAC1210EEB635E42EB2242E1
:1053F0000EFB0CFC4FEA1C5300FB03114FEA112C6F
:105400004FEA01310EFB0CFC4FEADC4C00FB0C11A7
:10541000C14228BF09184CEB03335DF804EB10EBD5
:10542000410143EBC250B2F57C0F38BF704729D51C
:1054300012F0F00F1CBF00F1C04000F000407047B8
:10544000008182838485868788898B8C8D8E8F915D
:105450009293959697999A9C9D9FA0A2A3A5A7A881
:10546000AAACAEB0B2B3B5B7B9BCBEC0C2C5C7C9AD
:10547000CCCED1D4D7D9DCDFE2E6E9ECF0F3F7FA11
:10548000FE0000004FEA400C0CF1807CBCF17E4F26
:1054900028BF7047B0F1C04000F0ABB990EA010FEF
:1054A0000CEAD11348BF42F48072624538BF6345AD
:1054B00007D213F47F0F16D080EA010000F00040FD
:1054C000704710B500F04FF9097EFC3E00F005B8BA
:1054D00080EA010000F00040704780EA010000F01F
:1054E000004000F086B912F47F0F04BF02487047F5
:1054F00080EA010000F07DB90000C07F50EA010C95
:1055000000F113801CF5000F58BFBCF5000F01D44B
:105510008842704707D710F5000F58BF11F5000FEC
:1055200015D488427047894270471CF5000F04D596
:10553000BCF5000FF7D5814270474FF0807C1CEB23
:10554000400F38BF1CEB410F01D28142704710B5AC
:1055500000F009F9922449004FF000504FF08051BB
:10556000FFF7FEBEC10DD1F19E0206DB4FEA00231C
:1055700043F0004323FA02F07047004207D54FEA98
:105580004001B1F1FE4F02D24FF00000704710B55C
:1055900000F0E9F849922480002070476FEA20006B
:1055A0007047000010F0004148BF4042B0FA80F35D
:1055B00010FA03F2C3F19D030BD051EAC35101EB82
:1055C0001220530638BF704700F1010008BF20F0D9
:1055D00001007047B0FA80F310FA03F2C3F19D03A3
:1055E0000AD0D90501EB1220530638BF704700F1ED
:1055F000010008BF20F001007047000050EA010CD4
:1056000000F113801CF5000F58BFBCF5000F01D44A
:105610008842704707D710F5000F58BF11F5000FEB
:1056200015D488427047894270471CF5000F04D595
:10563000BCF5000FF7D5814270474FF0807C1CEB22
:10564000400F38BF1CEB410F01D28142704710B5AB
:1056500000F089F8922449004FF000504FF080513B
:10566000FFF77EBE4FF47F0C1CEAD0121EBF1CEA6F
:10567000D11392EA0C0F93EA0C0F00F0478090EAE6
:10568000010F48BF42F480724FF0004C4CEA0020FA
:105690004CEA012102EB0302A0FB0113A2F5000278
:1056A000002918BF43F001035B0028BF4FEA330312
:1056B00042EB22425FEA132C4CEBC2502EBFBCEBF4
:1056C000436FB2F57C0F70474FEA036CBCF1004F9B
:1056D00008BF20F00100B2F57C0F38BF70470BD532
:1056E00082F0FF0212F5803FC8BF704700F1C04052
:1056F000D8BF00F00040704700F5000C5FEA4C0C8A
:1057000048BF7047B0F1C04000F073B890EA010F95
:105710000CEAD11348BF42F48072624538BF63453A
:1057200004D280EA010000F00040704710B500F09C
:105730001AF800BF8900013E00F007B800F009B870
:105740005FEA410C5FEA1C6C08D080EA010000F0BF
:1057500050B85FEA400C5FEA1C6CF6D14FF0004095
:10576000A0F5800070470EF1020E2EF0030E5EF8D9
:10577000044B244204D44FEA4102B2F17F4F11D8C6
:105780004FEA4003B3F17F4F0CD80ED14FEAD07CE3
:10579000B2F17F4F0CEB4C0C0CF1020C08BF4CEB40
:1057A000D17C04E04FF0080C01E04FEAD17C0CEB17
:1057B0004C0324FA03F404F00704B4F1040C06D2F9
:1057C0000EEB840CBDE810404CF0010C6047DFE8A4
:1057D0000CF0070802024FF00040A0F5800010BD59
:1057E0000846420018BFD2F1807288BF00F0004026
:1057F00010BDFF2141EAD050C005704751EA000CAE
:1058000000F113801CF5000F58BFBCF5000F01D448
:105810008142704707D711F5000F58BF10F5000FF0
:1058200015D481427047894270471CF5000F04D59A
:10583000BCF5000FF7D5884270474FF0807C1CEB19
:10584000410F38BF1CEB400F01D28842704780EAFD
:10585000010081EA000180EA0100FFF7F8BE0000C4
:1058600090EA010F48BF81F000413FF51EAD421A9A
:1058700004D882F00042A0EB020011444FEAD0525B
:105880004FF07F4C1CEA410FA2EBD15318BF9CEAAA
:10589000026F4AD04FF0004C4CEA00204CEA012144
:1058A00021FA03FCB0EB0C0C0FD412F0FE0F36D033
:1058B0005FEA4C001DD5001240EBC25038BF704764
:1058C0001CF03F0F18BF70470BE0A2F101025FEA26
:1058D0001C2040EBC25038BF70471CF07F0F18BF30
:1058E0007047C3F12003994014BF401E20F001000F
:1058F000704780084FEA122308BF7047B0FA80FC57
:10590000A2EB0C02CCF1280C60FA0CF093EA122FF7
:1059100004BF00EBC25070474FEAC3707047130AD0
:105920005FEADC1008BF7047F6E79CEA026F04D01C
:1059300010EA5C0F08BF0020704710B5FFF713FF97
:1059400040DFF63E81F00040704702000100000396
:10595000020001000004010203000000000000003A
:10596000000000008459000800000020FC02000034
:105970006C010008F4590008FC0200208C080000AB
:10598000C8010008012A0B4C204104410B5C704205
:10599000041A8068095A0421CDCDCCEC400C011AC0
:1059A000A92C01181455660222011203032841266E
:1059B0005B6655350A32043512010C235726010166
:1059C000112A3335193309144DF92F112A10180AE9
:1059D0001503180A130418515A0904013C2D010239
:1059E00003040410090607080902040608ACA24AC9
:0459F000041C291852
:0400000508000131BD
:00000001FF
