:020000040800F2
:10000000780B00200D020008D50D0008150D000822
:10001000D10D0008C3070008CB2300080000000032
:10002000000000000000000000000000C1160008F1
:10003000450A00080000000035100008291A0008D1
:1000400027020008270200082702000827020008EC
:1000500027020008270200082702000827020008DC
:1000600027020008270200082702000827020008CC
:1000700027020008270200082702000827020008BC
:1000800027020008270200082702000827020008AC
:10009000270200082702000827020008270200089C
:1000A000270200088D1A000827020008270200080E
:1000B000AD1A0008270200082702000827020008DE
:1000C000270200082702000827020008270200086C
:1000D00027020008C11F00080120000827020008AD
:1000E000270200082702000827020008270200084C
:1000F000270200082702000827020008270200083C
:10010000270200082702000827020008270200082B
:10011000270200082702000827020008270200081B
:10012000270200082702000827020008270200080B
:1001300000F002F800F05AF80AA090E8000C82449F
:100140008344AAF10107DA4501D100F04FF8AFF27C
:10015000090EBAE80F0013F0010F18BFFB1A43F0A5
:1001600001031847E8490000084A00000A444FF01C
:10017000000C10F8013B13F0070408BF10F8014B06
:100180001D1108BF10F8015B641E05D010F8016B4B
:10019000641E01F8016BF9D113F0080F1EBF10F8AF
:1001A000014BAD1C0C1B09D16D1E58BF01F801CBD2
:1001B000FAD505E014F8016B01F8016B6D1EF9D555
:1001C0009142D6D37047000000230024002500266A
:1001D000103A28BF78C1FBD8520728BF30C148BFAA
:1001E0000B6070471FB51FBD10B510BD00F012F9B0
:1001F0001146FFF7F7FF03F053F800F030F903B4AE
:10020000FFF7F2FF03BC00F0F7F800000948804751
:1002100009480047FEE7FEE7FEE7FEE7FEE7FEE7E8
:10022000FEE7FEE7FEE7FEE704480549054A064B00
:10023000704700002D1A00083101000878050020E1
:10024000780B002078070020780700200EB50546BF
:1002500014460E4613A000F08CF8284600F089F8EA
:1002600016A000F086F8304600F083F815A000F0E4
:1002700080F800218DF80B100A210DF10A008DF88D
:100280000A1008E094FBF1F201FB124294FBF1F436
:10029000303200F8012D002CF4DC00F06AF800F098
:1002A0005DF800002A2A2A20617373657274696FF1
:1002B0006E206661696C65643A2000002C206669D6
:1002C0006C6520002C206C696E652000032A40F2CA
:1002D000308010F0030C00F0158011F8013BBCF1E8
:1002E000020F624498BF11F801CB00F8013B38BF00
:1002F00011F8013BA2F1040298BF00F801CB38BF0E
:1003000000F8013B11F0030300F03D80083AC0F013
:10031000088051F8043B083A51F804CBA0E80810D3
:10032000F5E7121D5CBF51F8043B40F8043BAFF306
:100330000080D20724BF11F8013B11F801CB48BF60
:1003400011F8012B24BF00F8013B00F801CB48BF96
:1003500000F8012B704770477047704710B50020B8
:1003600000F050F8FFF740FFBDE81040012000F01A
:1003700043B810B5044602E0641C00F036F820785B
:100380000028F9D110BD10B5203AC0F00B80B1E8BB
:100390001850203AA0E81850B1E81850A0E81850BA
:1003A000BFF4F5AF5FEA027C24BFB1E81850A0E8C3
:1003B000185044BF18C918C0BDE810405FEA827CDD
:1003C00024BF51F8043B40F8043B08BF7047D207F4
:1003D00028BF31F8023B48BF11F8012B28BF20F895
:1003E000023B48BF00F8012B704708B569468DF8FD
:1003F00000000320ABBE08BD01491820ABBEFEE7DC
:100400002600020010B500F039F8BDE8104000F0F9
:100410002FB87047754600F049F8AE4605006946AA
:10042000534620F00700854618B020B5FFF7FCFEC4
:10043000BDE820404FF000064FF000074FF00008E5
:100440004FF0000B21F00701AC46ACE8C009ACE866
:10045000C009ACE8C009ACE8C0098D46704710B5CA
:100460000446AFF300802046BDE81040FFF7C7BE4A
:10047000002801D0FFF7C0BF7047000010B5002171
:1004800002A000F017F8012010BD000053494741B9
:100490004252543A2041626E6F726D616C207465F5
:1004A000726D696E6174696F6E000000004870477C
:1004B0001805002070B505460C460A2000E06D1CAA
:1004C000FFF793FF35B128780028F8D102E0641CCB
:1004D000FFF78BFF14B120780028F8D1BDE87040F9
:1004E0000A20FFF782BF000008B50121084600F08E
:1004F000AFFD01214FF4017000F0DAFD7E20ADF870
:10050000000000208DF803006946024800F0D4FA8C
:1005100008BD00000008014000B591B0444800F05B
:10052000CDF94448069044480790002008903C20AC
:10053000099000200A9080200B9040000C908000D1
:100540000D9020200E9000020F900020109006A920
:10055000374800F059FA0121354800F0A3F900208E
:10056000019001208DF808008DF809004FF46020FB
:1005700003900020049006208DF8140001A92D4856
:100580004C3800F085F84FF4404000F055FD07234B
:100590000122114627484C3800F0A2F80723022216
:1005A000114624484C3800F09BF8072303221146DB
:1005B00020484C3800F094F80723042211461D48C7
:1005C0004C3800F08DF807230522114619484C38A5
:1005D00000F086F807230622114616484C3800F032
:1005E0007FF8012113484C3800F033F801211148FD
:1005F0004C3800F023F80F484C3800F0CDF800BF1D
:100600000C484C3800F03AF80028F9D109484C3829
:1006100000F0D2F800BF07484C3800F025F8002859
:10062000F9D1012103484C3800F0BBF811B000BDEE
:10063000080002404C2401400C03002021B18268D4
:1006400042F00102826003E0826822F001028260CF
:10065000704721B1826842F48072826003E0826850
:1006600022F4807282607047014600208A6802F09E
:1006700004020AB1012000E000207047014600207A
:100680008A6802F008020AB1012000E000207047E9
:1006900030B502460020002350680F4C20400D79F1
:1006A0000C6844EA05242043506090680B4C2040BD
:1006B000D1E902542C434D7944EA4504204390602B
:1006C000D06A20F470000C7C641EE4B2234340EA3C
:1006D0000350D06230BD0000FFFEF0FFFDF7F1FFD8
:1006E000F0B504460D4600200021092D11DDE0681B
:1006F000A5F10A0606EB4607072606FA07F1884326
:10070000A5F10A0606EB460603FA06F10843E06087
:100710000CE0206905EB4507072606FA07F1884338
:1007200005EB450603FA06F108432061072A0FDAB4
:10073000606B561E06EB86071F2606FA07F18843F4
:10074000561E06EB860605FA06F10843606322E0B2
:100750000D2A0FDA206BD61F06EB86071F2606FA36
:1007600007F18843D61F06EB860605FA06F1084313
:10077000206310E0E06AA2F10D0606EB86071F2653
:1007800006FA07F18843A2F10D0606EB860605FA84
:1007900006F10843E062F0BD816841F00801816024
:1007A000704721B1826842F4A002826003E082684F
:1007B00022F4A00282607047816841F004018160E8
:1007C000704700BFFEE770B5014600234D7D002253
:1007D00003E0D01C085C0344521C122AF9DB64209D
:1007E00093FBF0F600FB1630C4B2AC4201D10120FD
:1007F00070BD0020FCE7000008B50121202000F0BA
:1008000057FC0F20ADF8000010208DF803000120E8
:100810008DF802006946044800F04EF908210248AC
:1008200000F022FA08BD00000014014070B5044633
:10083000002501221146174800F01AFA00F02CF8A2
:1008400000220121134800F013FA00BF1EE004F457
:100850000040B0F5004F05D1012204210D4800F001
:1008600007FA04E0002204210A4800F001FA0122FC
:100870000221084800F0FCF900F00EF800220221E5
:10088000044800F0F5F96400681CC5B2102DDEDBE9
:1008900070BD0000001401400A2000BF411E081E68
:1008A000FCD1704721B1026842F00102026004E00D
:1008B00002684FF6FE731A400260704701684FF6F7
:1008C000FE72114001600021016041608160C160E1
:1008D0004B49884208D14A490839496841F00F011B
:1008E000474A083A51608AE045491431884208D1A4
:1008F00043490839496841F0F001414A083A5160DA
:100900007DE03F492831884208D13D49083949688E
:1009100041F470613A4A083A516070E038493C311C
:10092000884208D136490839496841F47041344A4F
:10093000083A516063E032495031884208D1304969
:100940000839496841F470212D4A083A516056E04F
:100950002B496431884208D129490839496841F452
:100960007001274A083A516049E0254978318842A8
:1009700008D123490839496841F07061204A083A92
:1009800051603CE01F49884206D1011F096841F0CF
:100990000F01021F116032E01A491431884208D158
:1009A0001849091F096841F0F001164A121F116029
:1009B00025E014492831884208D11249091F0968E5
:1009C00041F470610F4A121F116018E00D493C316B
:1009D000884208D10B49091F096841F47041094A4E
:1009E000121F11600BE007495031884207D10549B9
:1009F000091F096841F47021024A121F11607047F3
:100A0000080002400804024010B50022026847F6C0
:100A1000F0739A430C6A8B6823430C6923434C6937
:100A200023438C692343CC6923434C6A23438C6A58
:100A300023431A430260CB6843600B6883604B68B2
:100A4000C36010BD7047000008B50121802000F090
:100A50002FFB4FF47060ADF8000004208DF8030008
:100A600001208DF802006946014800F025F808BD14
:100A70000018014010B500F003F8FFF7E5FF10BDC6
:100A800008B50121102000F013FB4FF470610948F4
:100A900000F0EAF84FF47060ADF8000010208DF817
:100AA000030001208DF802006946024800F004F8B6
:100AB00008BD0000001001402DE9F041024600256C
:100AC0000026002000230024002791F803C00CF02A
:100AD0000F0591F803C00CF0100CBCF1000F03D00F
:100AE00091F802C04CEA050591F800C0BCF1000F76
:100AF00031D0146800202BE04FF0010C0CFA00F309
:100B0000B1F800C00CEA03069E4220D183004FF0EA
:100B10000F0C0CFA03F7BC4305FA03FC4CEA04047F
:100B200091F803C0BCF1280F06D14FF0010C0CFA6C
:100B300000FCC2F814C00AE091F803C0BCF1480FF1
:100B400005D14FF0010C0CFA00FCC2F810C0401C9B
:100B50000828D1D31460B1F800C0BCF1FF0F34DD18
:100B6000546800202EE000F1080C4FF0010808FA4C
:100B70000CF3B1F800C00CEA03069E4221D18300B9
:100B80004FF00F0C0CFA03F7BC4305FA03FC4CEAD8
:100B9000040491F803C0BCF1280F05D100F1080C42
:100BA00008FA0CF8C2F8148091F803C0BCF1480FA1
:100BB00007D100F1080C4FF0010808FA0CF8C2F850
:100BC0001080401C0828CED35460BDE8F08100009E
:100BD000F0B50A46002300240021002500F000465D
:100BE000B6F1004F02D11D4EF16901E01B4E716854
:100BF000C0F3034583B200F44016B6F5401F08D198
:100C000021F07061154E766826F07066134F7E6095
:100C100012E000F48016B6F5801F06D1032606FA0E
:100C200005F4A14341F0706106E0460D360103FA78
:100C300006F6B14341F0706122B1460D360103FA68
:100C400006F6314300F00046B6F1004F02D1034EE4
:100C5000F16101E0014E7160F0BD00000000014053
:100C60000146886880B270474161704701617047F2
:100C70000AB1016100E041617047000010B503480E
:100C8000FFF7EEFF0446200A10BD000000180140E7
:100C90001A48007801282FD1194800791849C978D5
:100CA00001EBC10202EB011100EB81001549088044
:100CB000134880791249497901EBC10202EB011115
:100CC00000EB8100104908800D48007A0C49C97971
:100CD00001EBC10202EB011100EB81000B4908801E
:100CE0000748007B0649C97A01EBC10202EB0111FA
:100CF00000EB8100064908807047000015010020C4
:100D00008403002076010020780100207A01002071
:100D10007E01002000BFFEE710B545F2555000F0FF
:100D200029F8062000F01AF840F21A6000F01CF8CA
:100D300000F00CF800F002F810BD00004CF6CC40BA
:100D40000149086070470000003000404AF6AA20C0
:100D500001490860704700000030004001494860C8
:100D60007047000000300040014988607047000073
:100D7000003000400149086070470000003000402A
:100D800008B50121082000F093F94FF40070ADF888
:100D9000000003208DF8020010208DF80300694642
:100DA0000948FFF789FE0121402000F081F9032066
:100DB000ADF800008DF8020010208DF803006946A0
:100DC0000248FFF779FE08BD000C01400018014001
:100DD00000BFFEE7704708B500214FF0006000F04B
:100DE0005FF84FF4407000F051F826208DF80000B5
:100DF00002208DF8010001208DF80300684600F004
:100E00000DF81C208DF8000003208DF80100012052
:100E10008DF80300684600F001F808BD70B50021A8
:100E200000230F22C47804B3154C246804F4E06452
:100E3000C4F5E064210AC1F10403CA40447804FA0D
:100E400003F184781440214309010E4C0678A15522
:100E5000047804F01F050124AC4005786D11AD0045
:100E600005F1E025C5F8004109E0047804F01F050C
:100E70000124AC40044D0678761145F8264070BD3B
:100E80000CED00E000E400E080E100E002490143F5
:100E9000024A1160704700000000FA050CED00E006
:100EA000024A0A400243024B1A60704780FFFF1F4C
:100EB00008ED00E010B588B0044621480480012107
:100EC000022000F0D5F80121112000F0F1F80121F5
:100ED0001C48FFF77DFE4020ADF81C0018208DF85F
:100EE0001F0003208DF81E0007A91748FFF7E4FD37
:100EF000601E80B2ADF8140041F61F40ADF810003E
:100F00000020ADF81600ADF8120004A90F4800F05B
:100F100079FF6020ADF800000120ADF8020000204C
:100F2000ADF808006946094800F012FF082107489B
:100F300000F05AFF0121054800F0F0FD08B010BD97
:100F40002E000020000C1A00001001400004004098
:100F500010B5044605480088844201DD0348048832
:100F60002146034800F049FF10BD00002E0000207C
:100F70000004004010B588B00446224804800121D6
:100F8000042000F075F80121212000F091F80121E2
:100F90000803FFF71DFE4FF48050ADF81C00182029
:100FA0008DF81F0003208DF81E0007A91648FFF7D3
:100FB00083FD601E80B2ADF8140041F61F40ADF80D
:100FC00010000020ADF81600ADF8120004A90F487B
:100FD00000F018FF6020ADF800000120ADF802001D
:100FE0000020ADF808006946084800F0B1FE08216D
:100FF000064800F0F9FE0121044800F08FFD08B01A
:1010000010BD00002E000020001401400008004028
:1010100010B5044605480088844201DD0348048871
:101020002146034800F0E9FE10BD00002E0000201C
:10103000000800407047000001460020034A506845
:1010400020F4404008435060704700000010024008
:1010500029B1064A52690243044B5A6104E0034A2B
:1010600052698243014B5A617047000000100240F0
:1010700029B1064AD2690243044BDA6104E0034A0B
:10108000D2698243014BDA617047000000100240D0
:1010900029B1064A12690243044B1A6104E0034A6B
:1010A00012698243014B1A61704700000010024030
:1010B00029B1064A92690243044B9A6104E0034A4B
:1010C00092698243014B9A61704700000010024010
:1010D00029B1064AD2680243044BDA6004E0034AAD
:1010E000D2688243014BDA60704700000010024072
:1010F00010B500F029F84FF4803000F0E7F800F068
:1011000043F90446012C1ED1002000F0D3F8002042
:1011100000F00EF9A00200F0FFF84FF4E0112004F7
:1011200000F018F9012000F00FF900BF392000F09D
:101130009BF80028FAD0022000F01AF900BF00F056
:10114000B1F80828FBD110BD0F48006840F001003D
:101150000D490860084640680C4908400A49486043
:10116000084600680A4908400749086008460068C0
:1011700020F4802008600846406820F4FE004860A3
:101180004FF41F0088607047001002400000FFF815
:10119000FFFFF6FE30B500210022002400232D4D74
:1011A0006D6805F00C0121B1042905D0082923D16F
:1011B00005E0294D056022E0274D05601FE0254D23
:1011C0006D6805F47012234D6D6805F480340225B6
:1011D00005EB92421CB9214D554305600BE01D4DB6
:1011E0006D6805F400351DB11C4D5543056002E0E6
:1011F000194D5543056002E0174D056000BF00BF63
:10120000144D6D6805F0F0010909154D6B5C05681A
:10121000DD4045600F4D6D6805F4E061090A104D31
:101220006B5C4568DD4085600A4D6D6805F4605172
:10123000C90A0B4D6B5C4568DD40C560054D6D68A6
:1012400005F44041890B074D6B5CC568B5FBF3F5B0
:10125000056130BD0010024000127A0000093D0017
:10126000140000202400002010B5014600220023B5
:1012700000204A11012A02D1094C236806E0022A03
:1012800002D1074C236A01E0054C636A01F01F029A
:10129000012494401C400CB1012000E0002010BD4E
:1012A000001002400248406800F00C007047000047
:1012B0000010024001460020034A506820F0F00070
:1012C000084350607047000000100240114909684F
:1012D00021F480310F4A11601146096821F4802100
:1012E0001160B0F5803F03D0B0F5802F0ED106E03D
:1012F0000849096841F48031064A116007E0054950
:10130000096841F4A021034A116000E000BF00BF5A
:10131000704700000010024001460020034A506858
:1013200020F4E06008435060704700000010024065
:1013300001460020034A506820F4605040EAC10092
:101340005060704700100240014908667047000075
:101350000000424202460020044B586820F47C10F2
:1013600042EA01031843014B5860704700100240E5
:1013700001460020034A506820F0030008435060F3
:10138000704700000010024038B500200090002493
:10139000002500BF3120FFF767FF05460098401C7D
:1013A00000900098B0F5A06F01D0002DF2D0312050
:1013B000FFF75AFF08B1012400E00024204638BDA1
:1013C0002DE9F0478AB081468A46002032490860FC
:1013D00000240EE004EB4400304901EB8001A9F148
:1013E000010031F810002C49096808442A490860B6
:1013F000641C0A2CEEDBBAF1010F2DD126480068DF
:1014000002F02BFF07460022254B02F075FF054630
:101410000022244B02F09CFD0022234BCDE9000169
:1014200002F096FD4FF05532204BCDE9020102F05B
:1014300063FF00221E4BCDE9040102F05DFF1D4A4F
:101440001D4BCDE9060102F083FDCDE9080102F054
:1014500099FC0AB0BDE8F0870F48006802F0FDFE75
:10146000054600220E4B02F047FF00220D4BCDE94E
:10147000040102F06DFD00220B4BCDE9060102F0E4
:1014800067FD4FF05532094BCDE9080102F034FFFA
:10149000074602F077FCDCE7280000200C03002060
:1014A00000000440000024400000B04055551140A9
:1014B00000408F40D7A3703D0A9F684019481A49E1
:1014C00008601A4848601A4888601A48C8601A4874
:1014D00008611A4848611A4888611A48C8611A4860
:1014E00008621A4848621A4888621A48C8621A484C
:1014F00008631A4848631A4888631A48C8631A4838
:1015000008641A4848641A4888641A48C8641A4823
:1015100008651A4848651A4888651A48C8651A480F
:101520000866704788010020B40400208A0100206A
:101530008C0100208E0100209001002092010020EB
:101540009401002096010020980100209A010020BB
:101550009C0100209E010020A0010020A20100208B
:10156000A4010020A6010020A8010020AA0100205B
:10157000AC010020AE010020B0010020B20100202B
:10158000B4010020B6010020B801002021B102887A
:1015900042F04002028004E002884FF6BF731A4016
:1015A0000280704710B500F01FF810BD10B5002282
:1015B000028802F441520B884C8823438C882343D1
:1015C000CC8823430C8923434C8923438C892343B0
:1015D000CC8923431A430280838B4FF2FF7423404C
:1015E00083830B8A038210BD00B587B00121880375
:1015F000FFF73EFD01210846FFF75AFD01211020AB
:10160000FFF756FD46F22000ADF8040003208DF8E8
:10161000060018208DF8070001A92648FFF74CFAAC
:101620001020ADF8040003208DF8060010208DF87E
:10163000070001A92048FFF73FFA10211E48FFF7D5
:1016400015FB4FF48050ADF8040003208DF8060020
:1016500010208DF8070001A91648FFF72DFA102178
:101660001448FFF703FB0020ADF808004FF4827028
:10167000ADF80A000020ADF80C000220ADF80E0015
:101680000120ADF810004002ADF812001020ADF8B6
:1016900014000020ADF816000720ADF8180002A9CC
:1016A0000648FFF783FF01210448FFF76FFF07B0EB
:1016B00000BD0000000C0140001001400038004057
:1016C000704700002DE9F74F88B08B469246002105
:1016D000089803F067F801D200200890BAF1000FD3
:1016E00003D0BAF1010F18D10BE0089803F022F8EB
:1016F0000446524A524B02F0FDFE01D25148089076
:101700000CE0089803F016F804464F4A4F4B02F0DD
:10171000F1FE01D24E48089000E000BF00BFBAF1D0
:10172000000F03D0BAF1010F55D119E0089803F06A
:1017300001F800224FF08043CDE9060102F008FCD9
:1017400006460022434B02F003FC04460022424BB3
:1017500002F0D2FD804602F053FD404908803EE091
:10176000089802F0E7FF04463D4A3E4B02F088FD30
:1017700003D80020394908802CE0089802F0DAFFED
:101780000446374A374B02F0EBFE0646364A374BE3
:1017900002F0DEFB00222A4B8433CDE9000102F087
:1017A000ABFD00224FF08043CDE9020102F0D0FBF7
:1017B0000022284BCDE9040102F0CAFB0022264B8F
:1017C000CDE9060102F098FD804602F019FD23499B
:1017D000088004E000BF00202049088000BF00BF4F
:1017E000BBF1010F09D0BBF1020F0DD0BBF1030F0C
:1017F00011D0BBF1040F1CD114E01849098801F580
:101800000040FFF713F815E01449098801F510406E
:10181000FFF70CF80EE01149098801F52040FFF7A9
:1018200005F807E00D49098801F53040FEF7FEFF95
:1018300000E000BF00BF0BB0BDE8F08F736891ED12
:101840007CFF2340E7FB1F4139B4C876BEFF33401D
:10185000F4FD9F41000014400000B0402C00002027
:10186000016A6AD95ADF0F40D4601A868F18304057
:1018700070B504460D4615B1012D48D123E0012C69
:1018800006D0022C0AD0032C0ED0042C18D111E063
:101890004FF480711F48FFF7E7F912E04FF4007131
:1018A0001C48FFF7E1F90CE04FF480611948FFF79D
:1018B000DBF906E04FF400611648FFF7D5F900E0C8
:1018C00000BF00BF24E0012C06D0022C0AD0032C5C
:1018D0000ED0042C18D111E04FF480710D48FFF7A1
:1018E000C5F912E04FF400710A48FFF7BFF90CE0A8
:1018F0004FF480610748FFF7B9F906E04FF4006143
:101900000448FFF7B3F900E000BF00BF00E000BFEC
:1019100000BF70BD0010014010B500F001F810BD0F
:101920000CB50020019000903348006840F48030EE
:101930003149086000BF3048006800F40030009072
:101940000198401C0190009818B90198B0F5A06F5B
:10195000F1D12948006800F4003010B10120009056
:1019600001E0002000900098012843D1234800683E
:1019700040F01000214908600846006820F003008C
:1019800008600846006840F0020008601A48406895
:10199000194948600846406848600846406840F475
:1019A000806048600846406820F47C104860084623
:1019B000406840F4E81048600846006840F08070D5
:1019C000086000BF0C48006800F000700028F9D0E3
:1019D0000948406820F0030007494860084640680D
:1019E00040F00200486000BF0348406800F00C006F
:1019F0000828F9D10CBD0000001002400020024070
:101A0000042808D14FF0E021096941F004014FF0AA
:101A1000E022116107E04FF0E021096921F00401A3
:101A20004FF0E022116170477047000010B5134875
:101A3000006840F0010011490860084640681049FC
:101A400008400E494860084600680E4908400B49A6
:101A500008600846006820F4802008600846406856
:101A600020F4FE0048604FF41F008860FFF754FF29
:101A70004FF000600449086010BD000000100240F3
:101A80000000FFF8FFFFF6FE08ED00E010B50121B1
:101A9000054800F043F928B10121034800F03BF864
:101AA00001F0E6FC10BD0000002C014010B5012142
:101AB000880700F033F9A8B10D48007868B90D48DF
:101AC0000068401E0B4908600846006850B900F0E5
:101AD000EBF903200749086004E00320054908608A
:101AE00000F0E2F90121880700F015F810BD0000B0
:101AF00015010020E801002021B1028842F0800297
:101B0000028004E002884FF67F731A40028070471B
:101B1000CA4302827047CA430282704721B10288D9
:101B200042F00102028004E002884FF6FE731A4080
:101B30000280704710B504466848844208D10121EC
:101B4000C014FFF7C5FA0021E014FFF7C1FAC4E0A2
:101B5000B4F1804F08D101210846FFF799FA00211E
:101B60000120FFF795FAB8E05D48844208D10121D1
:101B70000220FFF78DFA00210220FFF789FAACE07E
:101B80005848844208D101210420FFF781FA00213E
:101B90000420FFF77DFAA0E05348844208D10121D8
:101BA0000820FFF775FA00210820FFF771FA94E08A
:101BB0004E48844208D101211020FFF769FA002124
:101BC0001020FFF765FA88E04948844208D10121D6
:101BD0002020FFF75DFA00212020FFF759FA7CE072
:101BE0004448844208D101214014FFF771FA0021D2
:101BF0006014FFF76DFA70E03F48844209D101217B
:101C0000C804FFF765FA00214FF40020FFF760FADF
:101C100063E03A48844209D101210805FFF758FAE8
:101C200000214FF48010FFF753FA56E03448844205
:101C300009D101214805FFF74BFA00214FF40010AC
:101C4000FFF746FA49E02F48844208D1012140209D
:101C5000FFF71EFA00214020FFF71AFA3DE02A485C
:101C6000844208D101218020FFF712FA0021802050
:101C7000FFF70EFA31E02548844208D10121801592
:101C8000FFF706FA0021A015FFF702FA25E0204829
:101C9000844209D101210804FFF71AFA00214FF408
:101CA0008030FFF715FA18E01A48844209D1012163
:101CB0004804FFF70DFA00214FF40030FFF708FA4F
:101CC0000BE01548844208D101218804FFF700FA8F
:101CD00000214FF48020FFF7FBF910BD002C0140DC
:101CE0000004004000080040000C004000100040CC
:101CF0000014004000340140004C014000500140FD
:101D00000054014000180040001C0040002000402A
:101D100000400140004401400048014030B5024607
:101D2000002000230024158A05EA0103958905EAAD
:101D3000010413B10CB1012000E0002030BD1AB144
:101D400083890B43838102E083898B4383817047BE
:101D500070B5002400220023058C4FF6FE76354036
:101D60000584028C8388048B4FF68F752C40B51E3A
:101D70002C400D882C43751E2A400D892A434D881E
:101D80002A43144DA8420BD0134DA84208D0134D3E
:101D9000A84205D0124DA84202D0124DA84213D13C
:101DA0004FF6F7752A404D892A434FF6FB752A40B6
:101DB0008D882A434FF6FF652B404FF6FF552B4089
:101DC0008D892B43CD892B4383800483CD888586E1
:101DD000028470BD002C01400034014000400140ED
:101DE00000440140004801400A460021018B4FF6A3
:101DF000F7731940114301837047818670478184CE
:101E000070470000002202881D4B98420ED01D4BE7
:101E100098420BD0B0F1804F08D01B4B984205D0B0
:101E20001A4B984202D01A4B984204D14FF68F7346
:101E30001A404B881A43174B984207D0164B9842CA
:101E400004D04FF6FF431A40CB881A4302808B8898
:101E500083850B8803850A4B98420BD0094B984227
:101E600008D00E4B984205D00D4B984202D00D4B36
:101E7000984201D10B7A03860123838270470000C8
:101E8000002C0140003401400004004000080040E4
:101E9000000C0040001000400014004000400140D1
:101EA000004401400048014000B50B480078052877
:101EB0000BD2DFE800F003040708090006E0FEF794
:101EC000E7FE03E002E001E000E000BF00BF002009
:101ED0000149087000BD00001501002030B504461E
:101EE00000252046FEF76FFC054655B120785528A1
:101EF00002D06078662802D1A078034908700120DA
:101F000030BD0020FCE70000150100202DE9F04164
:101F10000746884614460025552228466D1C225443
:101F2000662228466D1C22540F48027828466D1CF4
:101F30002254002605E018F8062028466D1C22547D
:101F4000761CBE42F7DB4146384600F0DBFA2946F4
:101F50006D1C6054662228466D1C2254552228466A
:101F60006D1C2254BDE8F081150100200EB5012141
:101F70000846FFF77DF84FF08040FFF7DBFD4FF498
:101F8000FA60ADF8040048F69F40ADF8000000206C
:101F9000ADF80600ADF8020069464FF08040FFF74B
:101FA00031FF01218807FFF7B3FD01221146900799
:101FB000FFF7C5FE01218807FFF7B0FD0EBD000049
:101FC00010B540F225510D4800F03BF9012806D12B
:101FD00001F056FA40F22551084800F0BCF840F2F2
:101FE0002661064800F02DF9012806D101F050FACB
:101FF00040F22661014800F0AEF810BD0038014003
:1020000070B5002500260821434800F00DF938B1CD
:10201000414800F057FA044608213F4800F09BF879
:1020200040F225513C4800F00CF900285BD040F20A
:102030002551394800F08FF8374800F043FA04463C
:10204000364801680068401C344A106034484454E3
:1020500010460068182808D13148807D662804D1D0
:102060002F48C07D552800D10125002D3BD02B489D
:1020700000682C4908600020284908602848FEF7BD
:10208000A2FB06461EB32648FFF728FF2648007825
:10209000012805D1254A26491220FFF737FF22E003
:1020A00021480078022807D10020224908602249EF
:1020B000182000F0FBF916E01B480078032807D130
:1020C00000201C4908601D49182000F0EFF90AE0C3
:1020D00015480078042806D10020164908601849E0
:1020E000182000F0E3F940F227710B4800F0A9F83E
:1020F00080B140F22771084800F02DF80A2000F066
:1021000035FA01200B490860002240F2277102488D
:1021100000F0C1F870BD000000440040E401002060
:10212000840300208401002015010020D00300203A
:102130009C0300209C8122422E01002046010020A9
:102140005E01002001F40072B2F5007F00D100BFF3
:10215000CA430280704710B50022002340F66A147B
:10216000A14200D100BF0A1201249440A3B2DC4373
:10217000048010BD21B1828942F40052828104E0C2
:1021800082894DF6FF731A408281704710B504466C
:102190002048844209D101218803FEF799FF0021DC
:1021A0004FF48040FEF794FF32E01B48844209D18F
:1021B00001214804FEF76CFF00214FF40030FEF7C8
:1021C00067FF25E01548844209D101218804FEF704
:1021D0005FFF00214FF48020FEF75AFF18E01048FF
:1021E000844209D10121C804FEF752FF00214FF4B7
:1021F0000020FEF74DFF0BE00A48844208D1012180
:102200000805FEF745FF00214FF48010FEF740FF60
:1022100010BD00000038014000440040004800406C
:10222000004C00400050004002460020B1F5007F05
:1022300000D100BF13880B400BB1012000E000204B
:10224000704770B50246002400230025002040F6A8
:102250006A16B14200D100BFC1F3421501F01F035D
:10226000012606FA03F3012D02D19689334006E0D8
:10227000022D02D1168A334001E0968A33400C12B7
:10228000012606FA04F41688344013B10CB101207B
:1022900000E0002070BDF0B50346002400260025B4
:1022A000002040F66A17B94200D100BF1846C1F3BA
:1022B000421401F01F06012707FA06F5012C01D18F
:1022C0000C3004E0022C01D1103000E014301AB1BF
:1022D00007682F43076002E00768AF430760F0BD5F
:1022E0002DE9F04786B005460E460024A24600BF01
:1022F000A1460027B08900B100BF2F462C8A4CF6BA
:10230000FF700440F08804432C82AC894EF6F31031
:102310000440B08831890843718908430443AC8183
:10232000AC8A4FF6FF400440B0890443AC8201A858
:10233000FEF730FF1F48874202D1DDF810A001E010
:10234000DDF80CA0A88900F4004040B10AEBCA00F7
:1023500000EB0A1031684900B0FBF1F807E00AEB26
:10236000CA0000EB0A1031688900B0FBF1F8642064
:10237000B8FBF0F004012009642101FB1089A88951
:1023800000F4004040B1322000EBC900B0FBF1F096
:1023900000F00700044308E0322000EB091064213C
:1023A000B0FBF1F000F00F0004432C8106B0BDE853
:1023B000F08700000038014001468888C0F308001B
:1023C0007047C1F308028280704700BFFEE700003B
:1023D00000B585B001212120FEF76AFE01214804E5
:1023E000FEF746FE01210820FEF7F2FB18208DF8CB
:1023F00013002020ADF8100003208DF8120004A96E
:102400002748FEF759FB04208DF813004020ADF853
:10241000100003208DF8120004A92148FEF74CFBA0
:1024200010208DF813008020ADF8100003208DF8E7
:10243000120004A91A48FEF73FFB01201949086061
:102440001948FFF7A3FE4FF4165000900020ADF896
:102450000400ADF80600ADF80800ADF80C000C2043
:10246000ADF80A0069461048FFF73AFF40210E48D0
:10247000FFF768FE012240F225510B48FFF70BFFE2
:1024800001210948FFF776FE012228210648FFF7BF
:1024900002FF012260210448FFF7FDFE05B000BDE8
:1024A000001401409C8122420044004070B5054662
:1024B0000E46002403E0305D00F00CF8641CAC42D2
:1024C000F9DB70BD70B504462046FFF775FFC5B255
:1024D000284670BD10B50446002008490860022057
:1024E00000F044F8012240F227710548FFF7D3FEBF
:1024F00021460348FFF765FF10BD00009C81224282
:102500000044004070B502460B460024002102E062
:102510005D5C2C44491C9142FADB642594FBF5F682
:1025200005FB1645E8B270BD10B56FF00400FFF76B
:1025300067FA0A4800680A49B0FBF1F009490870D7
:102540000846007800EB4001C1EBC0104FF6FF7168
:1025500001EAC0000449088010BD0000000000200E
:1025600000127A0030000020320000200146114A9B
:1025700012884A434FF0E0235A6100229A611A46BA
:10258000126942F001021A6100BF4FF0E0221069A7
:1025900000F001021AB100F48032002AF5D04FF0A9
:1025A000E022126922F001024FF0E0231A610022BA
:1025B0009A617047320000202DE9F04180460C46B8
:1025C00015461E4600270A200A490870334607228E
:1025D0002946204601F0A0F9012801D0032706E092
:1025E00044F6206001F00CFA012800D00327384699
:1025F000BDE8F0814B0000202DE9F04104460D4676
:102600001646002712480088FF2800DC04E09D22BF
:1026100010A118A0FDF71AFE0D480088032813DB4F
:102620000B4801881D48006800F011FF60B91B4885
:1026300000680078207006480088801E30801748A7
:102640000068401C286000E005273846BDE8F0819E
:10265000400000202E2E5C467265654D6F646275E9
:10266000735C506F72745C6D6261736369692E6331
:10267000000000007573526376427566666572509D
:102680006F73203C204D425F5345525F5044555F6D
:1026900053495A455F4D4158000000003C0000205E
:1026A0002DE9F04104460D4616464FF00008164845
:1026B000007818BB681E154908600120144908807D
:1026C00012480068047008460088304408800846B4
:1026D00001880E48006800F0BAFE07460C490888D9
:1026E000411C0B4A11800B4909680F5401200A490B
:1026F00008700121002000F0EFFE01E04FF0050816
:102700004046BDE8F0810000390000204400002070
:10271000480000203C0000203800002010B50021B7
:10272000012000F0D9FE00200249087001F0DEF817
:1027300010BD00003900002010B50021084600F04F
:10274000CBFE00F0F7FE10BD10B50024064800785F
:10275000012806D10548006880470020024908701A
:1027600000E00624204610BD520000205800002042
:102770002DE9F05F06460D464FF0000B288805282E
:1027800048D170784FEA0029B07840EA090909F188
:1027900001001FFA80F9F078040230790443012C1B
:1027A00035DBB4F5FA6F32DA374600202880012095
:1027B00007F8010B2888401C288004F0070040B16E
:1027C0002046E11704EB5171C910491C01F0FF08C4
:1027D00005E02046E11704EB5171C1F3C70807F883
:1027E000018B2888401C2880002322464946384611
:1027F00000F074FC8246BAF1000F04D0504600F09D
:10280000D9FD834608E028884044288004E04FF042
:10281000030B01E04FF0030B5846BDE8F09F2DE994
:10282000F05F06460D464FF0000B2888052847D17B
:1028300070784FEA0029B07840EA090909F10100EF
:102840001FFA80F9F078040230790443012C34DB5C
:10285000B4F5FA6F31DA374600202880022007F8F5
:10286000010B2888401C288004F0070040B1204656
:10287000E11704EB5171C910491C01F0FF0805E094
:102880002046E11704EB5171C1F3C70807F8018B2B
:102890002888401C288022464946384600F06AFCB9
:1028A0008246BAF1000F04D0504600F083FD834603
:1028B00008E028884044288004E04FF0030B01E042
:1028C0004FF0030B5846BDE8F09F2DE9F047054651
:1028D0000C464FF0000A2088052837D168784FEA67
:1028E0000028A87840EA080808F101001FFA80F8DB
:1028F000E87806022E79012E25DB7D2E23DC2F467B
:1029000000202080032007F8010B2088401C208035
:102910007006000E07F8010B2088401C2080002361
:1029200032464146384600F055FC8146B9F1000F69
:1029300004D0484600F03EFD824609E0208800EBC6
:102940004600208004E04FF0030A01E04FF0030A44
:102950005046BDE8F0872DE9F04705460C464FF09C
:10296000000A2088052837D168784FEA0028A8781F
:1029700040EA080808F101001FFA80F8E87806022A
:1029800028790643012E24DB7D2E22DA2F460020F3
:102990002080042007F8010B2088401C208070064E
:1029A000000E07F8010B2088401C2080324641466B
:1029B000384600F053FC8146B9F1000F04D0484678
:1029C00000F0F8FC824609E0208800EB46002080F9
:1029D00004E04FF0030A01E04FF0030A5046BDE85F
:1029E000F0872DE9FC5F04460D4600200090288802
:1029F0000A285DDB60784FEA002AA07840EA0A0ADC
:102A00000AF101001FFA80FAE078060220790643F5
:102A100060794FEA002BA07940EA0B0B0BF1010023
:102A20001FFA80FBE0790702207A0743607A019061
:102A3000012E3BDB7D2E39DC012F37DB792F35DC96
:102A400079000198814231D101233A46594604F177
:102A50000A0000F0BFFB8146B9F1000F1ED1A0466D
:102A600000202880172008F8010B2888401C2880A7
:102A70007006000E08F8010B2888401C28800023EF
:102A800032465146404600F0A5FB8146B9F1000FA1
:102A900004D12888022101FB06002880B9F1000F2B
:102AA00006D0484600F086FC009001E0032000902C
:102AB0000098BDE8FC9F000070B505460C4606482E
:102AC00002880649681CFDF701FC03480088401C89
:102AD0002080002070BD00004C000020EC01002090
:102AE0002DE9F84304460F464FF0000838880528C2
:102AF00029D160780502A0780543681C85B2207949
:102B0000F0B9E078FF2801D0E078C8B900208DF84E
:102B10000100E078FF2803D101208DF8000002E0D9
:102B200000208DF8000001231A462946684600F06F
:102B3000D5FA06464EB1304600F03CFC804604E033
:102B40004FF0030801E04FF003084046BDE8F8836A
:102B50002DE9F04104460F464FF00008388805285B
:102B600012D160780502A0780543681C85B2012364
:102B70001A462946E01C00F02DFB064636B13046C9
:102B800000F018FC804601E04FF003084046BDE825
:102B9000F0812DE9F05F05460E464FF0000B3088BE
:102BA000052839DD68780702A8780743781C87B2C2
:102BB000E87804022879044395F805A004F007009A
:102BC00040B12046E11704EB5171C910491C01F0D6
:102BD000FF0805E02046E11704EB5171C1F3C70877
:102BE000012C16DBB4F5F66F13DCD04511D10123AF
:102BF00022463946A81D00F071FA8146B9F1000F4E
:102C000004D0484600F0D6FB834607E0052030801C
:102C100004E04FF0030B01E04FF0030B5846BDE812
:102C2000F09F2DE9F04704460E464FF0000A308829
:102C3000062828DB60780702A0780743781C87B253
:102C4000E07805022079054394F80590012D17DB03
:102C5000782D15DC6806000E484511D101232A465F
:102C60003946A01D00F0B6FA8046B8F1000F04D036
:102C7000404600F09FFB824607E00520308004E0DC
:102C80004FF0030A01E04FF0030A5046BDE8F08719
:102C90002DE9F04705460C4616461F46DDF8209004
:102CA0004FF000081CB1012C01DBF72C02DD4FF0C6
:102CB000020859E02E48047015B1012D42D120E0E0
:102CC0002C482D4908602D482D4908602D482E4973
:102CD00008602E482E49086000202E4908602E48C2
:102CE0002E4908602E482F4908602F482F49086058
:102CF0004B463A4631461E48007800F007F98046B8
:102D000023E02B481C4908602A481D4908602A48CE
:102D10001D49086029481E49086000201D490860B7
:102D200027481E49086027481E49086026481F4951
:102D300008604B463A4631460D480078FFF73CFCA8
:102D4000804602E04FF0020800BF00BFB8F1000F5C
:102D50000AD100F0C3FD10B94FF0030804E01B488E
:102D6000057001201A4908704046BDE8F087000050
:102D700050000020B130000858000020CD3000087D
:102D80005C00002009300008540000205D2F00087E
:102D900060000020640000209D3A000868000020C8
:102DA000FD3B00086C000020753B0008700000200F
:102DB0001D27000839270008A1260008F92500086A
:102DC0008D350008753700080937000851000020CC
:102DD0005200002038B500254148007808B106208F
:102DE00038BD684600F068FD012877D19DF80000E5
:102DF00030B1012805D0022818D003286DD16BE02E
:102E00006BE0384A38493948394B1B6898470546C2
:102E10005DB93648007837490978884202D033488E
:102E2000007810B9022000F061FD56E02E480068DD
:102E3000007831490870012030490870002417E0FB
:102E40002F4810F8340000B914E02D4810F8340071
:102E50002949097888420AD1294800EBC400214950
:102E600042682148006890472449087002E0641CC9
:102E7000102CE5DB00BF1D48007858B31F480078D0
:102E8000C8B10020174908801B48007840F0800135
:102E9000144802880088401C124B188012480068B1
:102EA000815416480278184601880088401C188012
:102EB0000D480068425413480078012800D100BF33
:102EC00008480288084801680A4800780E4B1B68C9
:102ED0009847054601E001E000BF00BF00207FE702
:102EE0005200002002010020FC0000200001002010
:102EF000600000205000002001010020040100209B
:102F00007C00002051000020540000202DE9F047F3
:102F100081460E4614461F464FF000083B460822E5
:102F20002146304600F0F8FC012802D04FF003089B
:102F30000FE0B4F5964F01D9232503E06000064960
:102F4000B1FBF0F5A8B200F05BFD012801D04FF015
:102F500003084046BDE8F087A07F17002DE9F04147
:102F600004460D4616464FF0000800271248008818
:102F7000FF2800DC04E09D2210A118A0FDF766F9EF
:102F80000D480088042812DB0B4801881D4800F01A
:102F900087FA60B91B480078207007480088C01E77
:102FA00030801848401C28604FF0010800E00527D9
:102FB0003846BDE8F0810000120100202E2E5C464C
:102FC0007265654D6F646275735C4D6F6462757395
:102FD0005C6D627274752E6300000000757352633D
:102FE00076427566666572506F73203C204D425F75
:102FF0005345525F5044555F53495A455F4D4158C0
:10300000000000000C0200202DE9F04105460E46AC
:1030100017464FF0000821480078012838D1701E6B
:103020001F49086001201F4908801D48006805707D
:103030000846008838440880084601881848006817
:1030400000F02EFA044617490888411C154B1980D8
:1030500015490C54221219460888411C198012493E
:103060000A540120114908700D490968087800F0D8
:10307000BDFC0B480068401C0949086009480088ED
:10308000401E084908800121002000F025FA01E0D7
:103090004FF005084046BDE8F0810000090100201E
:1030A0000C010020100100200C020020080100206B
:1030B00010B50020044908700021012000F00CFA2E
:1030C00000F04EFA10BD00000901002010B50021EB
:1030D000084600F001FA00F02DFA10BD2DE9F04786
:1030E00005460E46904699464FF0000A0FFA88F4BE
:1030F00030B2002836DB06EB0800102832DC304600
:1031000007B2B9F1000F03D0B9F1010F29D115E0D1
:1031100011E0082C01DD082000E02046C2B2B9B25F
:10312000134800F0CBFD05F8010BA4F1080004B230
:1031300007F1080007B2002CEBDC12E00EE015F8F6
:10314000013B082C01DD082000E02046C2B2B9B2E4
:10315000074800F0C9FDA4F1080004B2002CEEDC21
:1031600000BF01E04FF0010A5046BDE8F0870000C3
:10317000E00100202DE9F04705460C4616464FF0C9
:10318000000937B220B200281CDBA019102819DC76
:1031900020461FFA80F812E0082F01DD082000E029
:1031A0003846C2B241460A4800F088FD05F8010BD6
:1031B000A7F1080007B208F108001FFA80F8002FF5
:1031C000EADC01E04FF001094846BDE8F087000065
:1031D000E2010020F0B504460D4600202EB2012E7B
:1031E00038DBAE181A2E35DC6E1E31B213B1012B4E
:1031F0002FD114E010E0184E56F8216036883612B0
:1032000004F8016B144E56F82160367804F8016B0F
:103210004E1C31B2561EB2B2002AECDC19E015E0A9
:1032200014F8017B3E020C4F57F821703E8014F8D1
:10323000016B094F57F821703F883E43064F57F8FE
:1032400021703E804E1C31B2561EB2B2002AE7DC1D
:1032500000BF00E00120F0BDB404002030B50346FB
:1032600000200DB2002D17DB8D18102D14DC0D463B
:103270002CB20EE0094D35F814502D1203F8015B05
:10328000064D15F8145003F8015B651C2CB2551E51
:10329000AAB2002AEEDC00E0012030BDBC01002013
:1032A00008B5FDF725FFFDF796FDFFF73DF9FDF7A2
:1032B0001BF9FDF731F9FDF7DDFBFDF761FDFEF7C9
:1032C00071F9FDF799FAFFF783F8FEF74FFEFDF766
:1032D00023FD6420FDF7EEFD4620FDF739FE642056
:1032E000FDF748FE1E20FDF793FE00204FF4165315
:1032F000012211460090FFF7CBFCFFF725FAFEF7FD
:10330000DDF847E0FDF722FDFFF764FD00202249CC
:1033100008602248027801212148FEF7D3F91F48AE
:10332000027802214FF08240FEF7CCF91B48027868
:1033300003211C48FEF7C6F91848027804211A48F0
:10334000FEF7C0F9002408E0E0B214490978FEF75E
:1033500037F8164941F82400641C062CF4DD0021DE
:103360000120FEF785FA00210320FEF781FA0121F2
:103370000220FEF77DFA01210420FEF779FAFDF71D
:103380007DFC0B4908704FF4FA70FFF7EFF801204D
:1033900001490860B6E70000A4812142BA0100207B
:1033A000000010410000E0400000C04098040020F0
:1033B000BB010020014621B1012904D0072906D113
:1033C00003E0002005E0022003E0062001E00420E5
:1033D00000BF00BF7047000010B50446092C03DC95
:1033E00004F13000C0B210BD0A2C05DB0F2C03DC49
:1033F00004F13700C0B2F6E740F2D11201A109A0F2
:10340000FCF724FF2E2E5C467265654D6F64627575
:10341000735C506F72745C6D6261736369692E6373
:1034200000000000300000000146302905DB39298A
:1034300003DCA1F13000C0B27047412905DB462909
:1034400003DCA1F13700C0B2F6E7FF20F4E710B5C6
:103450000246002003E012F8014B2318D8B20B1EDD
:10346000A1F10104A1B2F6D14342D8B210BD0000CF
:1034700010B502480068804710BD000070000020B1
:1034800010B502480068804710BD000068000020A9
:1034900010B502480068804710BD00006C00002095
:1034A00070B502460C46FF25FF2309E012F8010B18
:1034B00080EA03010648405C80EA05030548455C54
:1034C000201EA4F10106B4B2F0D143EA052070BD7C
:1034D000A2480008A249000870B505460C465DB137
:1034E000012240F225511148FEF7D5FE4FF400614C
:1034F0000F48FDF7BBFB0AE0002240F225510B48C4
:10350000FEF7C9FE4FF400610948FDF7ADFB34B189
:10351000012240F226610548FEF7BDFE05E00022CB
:1035200040F226610148FEF7B6FE70BD003801404A
:103530000008014010B501210848FEF7ECFA00220E
:1035400001210648FEF7FBFB00210448FEF757FC6B
:1035500000210248FEF7E2FA10BD0000002C0140F5
:1035600010B501210848FEF7D6FA01221146064897
:10357000FEF7E5FB00210448FEF741FC012102486B
:10358000FEF7CCFA10BD0000002C014038B5002534
:103590004848007800B904E0E42247A14EA0FCF7B7
:1035A00055FE684600F0AEF95248007800286FD00A
:1035B000012802D002287AD146E0FFF7D1FF9DF81A
:1035C00000003A2805D100204B4908704B4908807B
:1035D00039E09DF800000D2803D10220454908700C
:1035E00031E09DF80000FFF71FFF044642480078D5
:1035F00010B1012826D114E040480088FF280ADCD9
:103600002007000E3E4909683C4A12888854012070
:103610003949087016E0002036490870FFF78AFF24
:1036200010E037490968354A128888180178214323
:10363000017032480088401C3049088000202E4923
:10364000087000BF00BF32E09DF800002D490978E6
:10365000884209D1FFF76EFF00202649087001203B
:1036600000F044F9054611E09DF800003A280AD11F
:103670000020214908702149088001201D49087057
:10368000FFF76EFF02E000201A4908700FE0FFE725
:103690009DF800003A2809D1FFF762FF0020174982
:1036A00008801549087001201249087000BF00BF4A
:1036B000284638BD380000202E2E5C467265654DC8
:1036C0006F646275735C506F72745C6D626173637A
:1036D00069692E630000000065536E645374617461
:1036E00065203D3D2053544154455F54585F494443
:1036F0004C4500003900002042000020400000201E
:103700003C0000204B00002010B510480078012834
:1037100002D0022805D100E000BF00200B4908704C
:103720000FE00A480078012803D0084800780228F2
:1037300000D105E04FF4D47205A10D48FCF786FDD9
:1037400000BF00BFFFF7F6FE002010BD39000020CB
:103750002E2E5C467265654D6F646275735C506FAA
:1037600072745C6D6261736369692E6300000000AE
:10377000A44A000870B500253A48007800B905E071
:103780004FF4A87238A140A0FCF760FD45480078CE
:10379000052864D2DFE800F05E030E474F003A24AC
:1037A000204600F023F902203E49087000203E49DF
:1037B000087054E03D48008800282DDD3A48007824
:1037C00010B1012827D10DE039490968097808119D
:1037D000FFF702FE0446204600F008F901203249B6
:1037E000087018E032490968097801F00F00FFF706
:1037F000F3FD0446204600F0F9F82D480068401C0F
:103800002B49086000202849087028480088401E7D
:103810002649088000BF05E00D2000F0E7F80320EE
:10382000204908701BE02348007800F0DFF80420EE
:103830001C49087013E000201A490870032000F0AA
:1038400055F8054600210120FFF746FE00201549E6
:10385000087004E000210120FFF73EFE00BF00BF1A
:10386000284670BD390000202E2E5C467265654DDD
:103870006F646275735C506F72745C6D62617363C8
:1038800069692E63000000006552637653746174A9
:1038900065203D3D2053544154455F52585F494493
:1038A0004C45000038000020420000204800002065
:1038B000440000204B00002001460020054A1278F9
:1038C00032B1054A12780A700022024B1A700120A8
:1038D000704700003500002034000020002002491D
:1038E00008700120704700003500002001460120CB
:1038F000024A107002480170012070473500002014
:103900003400002010B504460248FEF755FD207033
:10391000012010BD00380140F0B587B005460C46C7
:1039200016461F4601210520FDF7C2FB0121880331
:10393000FDF7BEFB10208DF81B00C001ADF818008C
:1039400003208DF81A0006A92648FDF7B5F81820BF
:103950008DF81B004FF40070ADF8180003208DF8AF
:103960001A0006A91F48FDF7A7F804208DF81B00D0
:103970000002ADF8180003208DF81A0006A91948B6
:10398000FDF79AF81848FEF701FC02940020ADF804
:103990000E00ADF80C00ADF81000ADF814000C20CE
:1039A000ADF8120002A91048FEF79AFC01210E485A
:1039B000FEF7E0FB00214FF00060FDF771FA4FF4D5
:1039C0004070FDF763FA25208DF8040000208DF883
:1039D000050001208DF8070001A8FDF71FFA01205E
:1039E00007B0F0BD000801400038014010B50446A2
:1039F00021460248FEF7E5FC012010BD00380140D9
:103A00007FB5044600250121C802FDF751FB21487E
:103A1000006844F62061B0FBF1F0401E85B21E48FC
:103A2000FEF788F8ADF80840ADF804500020ADF876
:103A30000A00ADF806008DF80C0001A91648FEF743
:103A4000E1F901211448FEF757F801211248FEF769
:103A50005FF8002201211048FEF771F900210E489D
:103A6000FEF75CF800214FF00060FDF719FA4FF403
:103A70004070FDF70BFA19208DF8000002208DF838
:103A8000010001208DF803006846FDF7C7F9012009
:103A900004B070BD00000020002C014038B50024A7
:103AA0002148007800B904E0F02220A127A0FCF70B
:103AB000CDFB6846FFF726FF2B48007830B1012880
:103AC0000AD0022819D003282BD102E0FFF748FDC5
:103AD00027E0FFF745FD24E00020244908809DF8F9
:103AE00000200888411C214B198021490A540220DA
:103AF0001D490870FFF734FD13E01C480088FF28BB
:103B000009DC9DF8002019490888411C174B1980D1
:103B100017490A5402E0032013490870FFF720FDFB
:103B200000BF00BF204638BD080100202E2E5C4695
:103B30007265654D6F646275735C4D6F6462757319
:103B40005C6D627274752E630000000065536E64D4
:103B50005374617465203D3D2053544154455F5476
:103B6000585F49444C450000090100201201002023
:103B70000C02002010B500241648007820B102285D
:103B800007D003280BD109E00020FFF7AFFE044661
:103B900018E00120FFF7AAFE044613E012E00D48EA
:103BA000007838B10B480078022803D00948007823
:103BB000032800D105E04FF4B27207A10E48FCF7CC
:103BC00045FB00BF00BFFFF7B5FC012001490870AD
:103BD000204610BD090100202E2E5C467265654D01
:103BE0006F646275735C4D6F646275735C6D627255
:103BF00074752E6300000000E84A000810B5002428
:103C00001B480078012800D105E040F22B1219A1D1
:103C100020A0FCF71BFB2648007810B1012824D116
:103C200004E000210120FFF757FC1EE02148008836
:103C300078B1214909680878FFF7D8FE1E48006866
:103C4000401C1D4908601B480088401E1949088017
:103C50000AE00320FFF74AFE044600210120FFF797
:103C60003BFC00201249087000BF00BF204610BD79
:103C7000090100202E2E5C467265654D6F646275E9
:103C8000735C4D6F646275735C6D627274752E63E4
:103C900000000000655263765374617465203D3DF9
:103CA0002053544154455F52585F49444C450000ED
:103CB00008010020100100200C010020F0B503468F
:103CC0000C461546E208A4EBC20087B20120A840CA
:103CD000401E86B2995C501C185C41EA00213941B3
:103CE0003140C8B2F0BD00002DE9FF5F05460E4629
:103CF0009046DDF80CB0B8F1080F00DC04E0382283
:103D000013A11CA0FCF7A2FAF408A6EBC4001FFA4A
:103D100080FA0BFA0AF01FFA80FB012000FA08F083
:103D2000401E1FFA80F9A6EBC40009FA00F01FFA42
:103D300080F92F5D601C285C47EA002727EA09000C
:103D400040EA0B072F553912601C2954BDE8FF9F2C
:103D50002E2E5C467265654D6F646275735C4675A8
:103D60006E6374696F6E735C6D627574696C732ECB
:103D70006300000075634E42697473203C3D203837
:103D80000000000021F00042A2F16052B2F5801F55
:103D900001F0004328BFD2F17F6C0BD95FEA001C11
:103DA00043EAC20242EB507018BF704728BF20F0B0
:103DB00001007047B2F5801FBCBF184670474FEA3C
:103DC000410C1CF5001F02D2084600F065BD70B51D
:103DD00000F03CFB00000089FFF7F6BF4FF0004009
:103DE000A0F580007047000010B591EA030F48BFAE
:103DF00083F0004300F1BC83841A71EB030C05D2FD
:103E0000121943EB0C03001B61EB0C01DFF824E1FA
:103E10004FEA1154A4EB135C1EEA430F18BF9EEA4D
:103E2000445F73D023EA0E03DCF1200E21EA045133
:103E300043F4801332D322FA0CFE10EB0E0023FA67
:103E40000CFE41EB0E01CCF1200E03FA0EFE10EB3E
:103E50000E0051F10001B1F5801FCCF1200E32D2DD
:103E600001EB045112FA0EF2BDE8104058BF704742
:103E7000401C38BF5FEA420218BF7047002814BFD9
:103E800020F0010041F100014FEA410313F5001F4A
:103E900038BF7047A1F1C04100F026BB012A43EBB7
:103EA0000302ACF1200CDCF11F0E32BF4FF0000E0C
:103EB00023FA0CF310EB030041EB0451B4EB115F58
:103EC000D0D0A1EB045101F5801149085FEA300020
:103ED00001EB04510ED350F1000038BF12FA0EFE70
:103EE00008D1BDE81040C9E7401C38BF5FEA420274
:103EF000CAD1C3E7BDE810404FEA410313F5001FE4
:103F000038BF7047A1F1C04100F0EEBA9EEA445FAD
:103F100008D011EA5E0FBDE8104004BF01F0004177
:103F200000207047BDE8104070B500F08FFA00BF68
:103F300064FBBE3E0000E0FF491058BFC1F14041A4
:103F40005B1058BFC3F140438B42EFF300807047D2
:103F50002DE9C04130B4DFF8A0C23CEA111418BF0B
:103F60003CEA131400F0EC8081EA03051CEA11140A
:103F700044EAD57418BF1CEA131500F0C780A4EBFF
:103F800005044FF0004545EAC12145EAC32341EA53
:103F9000505143EA525304F17F74994204F50034BE
:103FA0004FEAC0204FEAC22208BF904200F09C8036
:103FB0004FEA13650FF24016765D4FEA134506FB94
:103FC00005F7C7F1807706FB07F74FEAD737A7FB5E
:103FD00003687642C8F58038A7FB06CE38BFA8F143
:103FE000010807FB08E64FF0000EA6FB028CE6FB7B
:103FF00003CEDCF1000CCEF1004E38BFAEF1010E65
:10400000A6FB0C584FF000074FF00005E6FB0E87AB
:10401000A1FB08C6A0FB07CE16EB0E0645F1000576
:10402000E1FB076515F1E04E7EBFA4F580345FEA41
:1040300046066D4116F1800745F100054FEA172746
:104040004FEA066647EA0567A6F1DE46B6F1805FED
:104050004FEA15251FD9384624F0010C05EBC47131
:10406000BCF1FE6F01EB0C1102D8F0BCBDE8008181
:1040700024425CBF01F5801E9EEAC47F02D4F0BCDE
:10408000BDE80081244238D4F0BCA1F1C041BDE8B4
:10409000004100F029BA4FEAD22242EA43524FEAE5
:1040A000D323A7FB02864FEAD02040EA415007FB0A
:1040B00003661EEA0E0F4FEAD12105FB026658BFC8
:1040C000A6EB0056B6EB00564FEA520E4EEAC37E00
:1040D00018EB0E0E56EB530EBDD518EB02085E41E1
:1040E0007F1C55F10005B6E74FF480154FF000072F
:1040F0004FF000064FF00008ADE7F0BC4FF00000B5
:1041000001F1C04101F00041BDE8008111EA0C1F3E
:104110000CEA131500D00CE013EA0C1F00F0258008
:104120004FF00000F0BC81EA030101F00041BDE85E
:104130000081F0BCBDE8004181EA030100F0D4B980
:10414000F0BCBDE8004170B500F080F9097EFC3E8E
:1041500000F007B881EA03014FF0000001F00041D0
:10416000704781EA030100F0BFB9F0BCBDE800412F
:104170004FF0000021497047FFFDFBF9F7F5F4F21D
:10418000F0EEEDEBE9E8E6E4E3E1E0DEDDDBDAD8F2
:10419000D7D5D4D3D1D0CFCDCCCBCAC8C7C6C5C450
:1041A000C2C1C0BFBEBDBCBBBAB9B8B7B6B5B4B367
:1041B000B2B1B0AFAEADACABAAA9A8A8A7A6A5A452
:1041C000A3A3A2A1A09F9F9E9D9C9C9B9A99999816
:1041D0009797969595949393929191908F8F8E8EB9
:1041E0008D8C8C8B8B8A8989888887878685858446
:1041F00084838382828181800000FF070000F87F32
:104200004FEA1153A3F58063D3F11E03A8BFD3F186
:10421000200C08DB4FF0004242EAC12252EA505221
:1042200032FA03F0704709420BD4102BC4BF0020B0
:10423000704703F5787CBCF1FF3F05D04FF0FF30AD
:1042400070474FF00000704770B500F0FFF800BFF6
:104250004992248000207047F0E7B0FA80F310FA0A
:1042600003F10AD0C3F11D0303F580634FEA415007
:104270004FEA035202EBD12170474FF00000704724
:1042800051EA030C17D41CF5801F58BFBCF5801FE2
:1042900000F10680994218BF704708BF90427047EE
:1042A00007D711F5801F58BF13F5801F19D4994205
:1042B0007047894270471CF5801F08D5BCF5801FE8
:1042C000F7D58B4218BF704708BF824270474FF442
:1042D000001C1CEB410F38BF1CEB430F01D28B427B
:1042E000704770B500F0B2F8922449004FF00051C9
:1042F0004FF08053FFF720BEDFF848C170B51CEACD
:10430000111E1EBF1CEA13159EEA0C0F95EA0C0F36
:1043100000F06F8081EA030423EA4C134EEAD47E56
:1043200021EA4C1141F4801143F48013AE44A1FB07
:10433000024CA0FB0365AEF17F7E361955EB0C05F0
:10434000A1FB034C4CF10003A0FB021C16EB0C0676
:10435000654153F10003094218BF46F0010613F40A
:10436000007F0BD14FEA03314FEA0530340341EAB5
:10437000155140EA16506FF003020AE04FEAC321DC
:104380004FEAC520F40241EA555140EA56506FF019
:10439000020202EB2E4201EB025585EACE710AD0F1
:1043A0005FEA440C18BF24F0004450F1000041F1D2
:1043B000000120EAD47040F2FE7C624500D270BD5C
:1043C000A84214BF4FF080444FF04044002E08BF75
:1043D0000024BEF1806FA8BFA1F1C041BDE87040CC
:1043E00080F282804FF0000001F1C04101F00041F5
:1043F00070479EEA0C0F0CEA131518BF95EA0C0FD4
:1044000006D04FF0000081EA030E0EF0004170BDAF
:1044100000F01CF88900013E00F007B800F009B870
:104420004FEA430C5FEA5C5C08D081EA030100F0CC
:104430005BB84FEA410C5FEA5C5CF6D14FF00000DC
:10444000014970470000FF070000F87F0EF1020EDF
:104450002EF0030E5EF8046B364205D4012A43EBBE
:10446000030515F5001F12D8012841EB010C1CF5BE
:10447000001F0CD80ED14FEAD17C15F5001F0CEBB4
:104480004C0C0CF1020C08BF4CEBD37C04E04FF059
:10449000080C01E04FEAD37C0CEB4C0526FA05F63C
:1044A00006F00706B6F1040C06D20EEB860CBDE84A
:1044B00070404CF0010C6047DFE80CF0090B020281
:1044C0004FF000414FF00000A1F5002170BD1946EA
:1044D0001046012851EB010418BFD4F5001484BF25
:1044E000002001F0004170BD0808A0F500114FEA5E
:1044F0003101704753EA010C17D41CF5801F58BFD7
:10450000BCF5801F00F106808B4218BF704708BFC2
:104510008242704707D713F5801F58BF11F5801FDF
:1045200019D48B4270479B4270471CF5801F08D5F9
:10453000BCF5801FF7D5994218BF704708BF90425D
:1045400070474FF4001C1CEB430F38BF1CEB410FAE
:1045500001D2994270470FB40CBC03BCFFF7C1BE37
:1045600010B591EA030F48BF83F000433FF544AC18
:10457000841A71EB030C07D212198CF0004C43EB38
:104580000C03001B61EB0C01DFF8A4E14FEA1154AE
:10459000A4EB135C1EEA430F18BF9EEA445F00F0D1
:1045A000B08023EA6E03524221EA0451C3EB6E034A
:1045B00038BF5B1EDCF1200E25D322FA0CFE10EB77
:1045C0000E0043FA0CFE41EB0E01CCF1200E03FA73
:1045D0000EFE10EB0E0051F10001CCF1200E29D49B
:1045E00012FA0EF201EB0451BDE8104058BF7047BB
:1045F000401C1CBFB2F1004F704700280CBF491C83
:1046000020F00100704712EB020E43EB030218BFCB
:104610004FF0010E4EEA4202ACF1200CDCF11E0E0E
:1046200054D943FA0CFE10EB0E0051F1FF31CCF1DE
:104630001E0ED5D50EF1010E12FA0EFE404141EBD1
:10464000010101EB445C5FEA5C5C10D910EBDE70A9
:1046500001EB045138BFBEF1004FBDE8104018BF58
:10466000704700280CBF491C20F00100704730D271
:104670004FEAD42C11F5001124F400641BD0B1FAD8
:1046800081F20B3AA41AA41ED2F12003914030FA11
:1046900003F31943904001EBCC71002C01EB045162
:1046A000BDE81040A8BF704701F1C0414FF00000C5
:1046B00001F000417047B0FA80F310FA03F100D125
:1046C00010BDE41A173C4805C90AE4E701EB0451A0
:1046D00010BD491001EB0451BDE810404FEA300015
:1046E00002E04FF0000170474A0008BF0042F8D0D6
:1046F000B2F5001F28BF704701F000414FF00000E5
:1047000070479EEA445F07D011EA5E0FBDE8104093
:1047100004BF002100207047BDE8104070B5FFF7CE
:1047200095FE00BF40DFF63E83F000411046704723
:104730000000E0FF43004FEAD30C4FEA3C0C43403B
:104740001FBF40070CF1605113F0FE4F70471CF083
:10475000006F03D100200CF0004170470CF00043C3
:1047600043EA507010B540EACC0000F04FF800BFAB
:10477000000000924FEA0001FFF7B6BE4FF0004183
:104780004FF00000A1F500217047401058BFC0F164
:104790004040491058BFC1F140418142EFF30080D1
:1047A0007047000050EA010C00F113801CF5000F67
:1047B00058BFBCF5000F01D48842704707D710F5E9
:1047C000000F58BF11F5000F15D488427047894279
:1047D00070471CF5000F04D5BCF5000FF7D58142DA
:1047E00070474FF0807C1CEB400F38BF1CEB410F33
:1047F00001D28142704710B500F008F892244900B8
:104800004FF000504FF08051FFF7BFBF0EF1020E86
:104810002EF0030E5EF8044B244204D44FEA41020A
:10482000B2F17F4F11D84FEA4003B3F17F4F0CD85C
:104830000ED14FEAD07CB2F17F4F0CEB4C0C0CF157
:10484000020C08BF4CEBD17C04E04FF0080C01E0F7
:104850004FEAD17C0CEB4C0324FA03F404F0070478
:10486000B4F1040C06D20EEB840CBDE810404CF001
:10487000010C6047DFE80CF0070802024FF000402F
:10488000A0F5800010BD0846420018BFD2F180722A
:1048900088BF00F0004010BDFF2141EAD050C005A4
:1048A000704700C1814001C0804101C0804100C10A
:1048B000814001C0804100C1814000C1814001C0F0
:1048C000804101C0804100C1814000C1814001C0E0
:1048D000804100C1814001C0804101C0804100C1D0
:1048E000814001C0804100C1814000C1814001C0C0
:1048F000804100C1814001C0804101C0804100C1B0
:10490000814000C1814001C0804101C0804100C19F
:10491000814001C0804100C1814000C1814001C08F
:10492000804101C0804100C1814000C1814001C07F
:10493000804100C1814001C0804101C0804100C16F
:10494000814000C1814001C0804101C0804100C15F
:10495000814001C0804100C1814000C1814001C04F
:10496000804100C1814001C0804101C0804100C13F
:10497000814001C0804100C1814000C1814001C02F
:10498000804101C0804100C1814000C1814001C01F
:10499000804100C1814001C0804101C0804100C10F
:1049A000814000C0C101C30302C2C60607C705C5D6
:1049B000C404CC0C0DCD0FCFCE0E0ACACB0BC90947
:1049C00008C8D81819D91BDBDA1A1EDEDF1FDD1D57
:1049D0001CDC14D4D515D71716D6D21213D311D187
:1049E000D010F03031F133F3F23236F6F737F535D7
:1049F00034F43CFCFD3DFF3F3EFEFA3A3BFB39F907
:104A0000F83828E8E929EB2B2AEAEE2E2FEF2DEDD6
:104A1000EC2CE42425E527E7E62622E2E323E12146
:104A200020E0A06061A163A3A26266A6A767A56556
:104A300064A46CACAD6DAF6F6EAEAA6A6BAB69A9C6
:104A4000A86878B8B979BB7B7ABABE7E7FBF7DBDD6
:104A5000BC7CB47475B577B7B67672B2B373B17106
:104A600070B05090915193535292965657975595D6
:104A700094549C5C5D9D5F9F9E5E5A9A9B5B995986
:104A80005898884849894B8B8A4A4E8E8F4F8D4D56
:104A90004C8C4484854587474686824243834181C6
:104AA000804000002820655263765374617465204D
:104AB0003D3D2053544154455F52585F5243562068
:104AC00029207C7C202820655263765374617465AC
:104AD000203D3D2053544154455F52585F57414952
:104AE000545F454F46202900282065526376537451
:104AF000617465203D3D2053544154455F52585FD9
:104B0000494E49542029207C7C2028206552637618
:104B10005374617465203D3D2053544154455F52A8
:104B2000585F5243562029207C7C20282065526300
:104B3000765374617465203D3D2053544154455F64
:104B400052585F4552524F52202900006C4B0008CA
:104B500000000020EC0100006C010008004C00087F
:104B6000EC0100208C090000C80100081184A24A51
:104B700004680901020304060708090C69100514FA
:104B800002040608130C0202122002290232111339
:104B9000B92A2A088113572933080313CB2833086D
:104BA0001013232C33080613512B3308171AE32054
:104BB00032011371273308051AE138320F1A932096
:104BC00029721A1F38014A2B55666C0110DF665591
:104BD0005566020101212A10180A1503180A130448
:104BE000186132F52A58BD0139120112021203125E
:104BF00004120512060A130720113B020162320358
:0400000508000131BD
:00000001FF
