:020000040800F2
:10000000500C00200D02000815020008170200081D
:10001000190200081B0200081D0200080000000071
:100020000000000000000000000000001F020008A7
:100030002102000800000000230200082502000839
:1000400027020008270200082702000827020008EC
:1000500027020008270200082702000827020008DC
:1000600027020008270200082702000827020008CC
:1000700027020008270200082702000827020008BC
:1000800027020008270200082702000827020008AC
:10009000270200082702000827020008270200089C
:1000A00027020008D51500082702000827020008CB
:1000B000F515000827020008391600082702000875
:1000C000270200082702000827020008270200086C
:1000D000270200080D1B00084D1B0008270200081E
:1000E000270200082702000827020008270200084C
:1000F000270200082702000827020008270200083C
:10010000270200082702000827020008270200082B
:10011000270200082702000827020008270200081B
:10012000270200082702000827020008270200080B
:1001300000F002F800F05AF80AA090E8000C82449F
:100140008344AAF10107DA4501D100F04FF8AFF27C
:10015000090EBAE80F0013F0010F18BFFB1A43F0A5
:1001600001031847144F0000344F00000A444FF0B9
:10017000000C10F8013B13F0070408BF10F8014B06
:100180001D1108BF10F8015B641E05D010F8016B4B
:10019000641E01F8016BF9D113F0080F1EBF10F8AF
:1001A000014BAD1C0C1B09D16D1E58BF01F801CBD2
:1001B000FAD505E014F8016B01F8016B6D1EF9D555
:1001C0009142D6D37047000000230024002500266A
:1001D000103A28BF78C1FBD8520728BF30C148BFAA
:1001E0000B6070471FB51FBD10B510BD00F012F9B0
:1001F0001146FFF7F7FF02F0F7FE00F030F903B405
:10020000FFF7F2FF03BC00F0F7F800000948804751
:1002100009480047FEE7FEE7FEE7FEE7FEE7FEE7E8
:10022000FEE7FEE7FEE7FEE704480549054A064B00
:1002300070470000751500083101000850060020C5
:10024000500C002050080020500800200EB5054634
:1002500014460E4613A000F08CF8284600F089F8EA
:1002600016A000F086F8304600F083F815A000F0E4
:1002700080F800218DF80B100A210DF10A008DF88D
:100280000A1008E094FBF1F201FB124294FBF1F436
:10029000303200F8012D002CF4DC00F06AF800F098
:1002A0005DF800002A2A2A20617373657274696FF1
:1002B0006E206661696C65643A2000002C206669D6
:1002C0006C6520002C206C696E652000032A40F2CA
:1002D000308010F0030C00F0158011F8013BBCF1E8
:1002E000020F624498BF11F801CB00F8013B38BF00
:1002F00011F8013BA2F1040298BF00F801CB38BF0E
:1003000000F8013B11F0030300F03D80083AC0F013
:10031000088051F8043B083A51F804CBA0E80810D3
:10032000F5E7121D5CBF51F8043B40F8043BAFF306
:100330000080D20724BF11F8013B11F801CB48BF60
:1003400011F8012B24BF00F8013B00F801CB48BF96
:1003500000F8012B704770477047704710B50020B8
:1003600000F050F8FFF740FFBDE81040012000F01A
:1003700043B810B5044602E0641C00F036F820785B
:100380000028F9D110BD10B5203AC0F00B80B1E8BB
:100390001850203AA0E81850B1E81850A0E81850BA
:1003A000BFF4F5AF5FEA027C24BFB1E81850A0E8C3
:1003B000185044BF18C918C0BDE810405FEA827CDD
:1003C00024BF51F8043B40F8043B08BF7047D207F4
:1003D00028BF31F8023B48BF11F8012B28BF20F895
:1003E000023B48BF00F8012B704708B569468DF8FD
:1003F00000000320ABBE08BD01491820ABBEFEE7DC
:100400002600020010B500F039F8BDE8104000F0F9
:100410002FB87047754600F049F8AE4605006946AA
:10042000534620F00700854618B020B5FFF7FCFEC4
:10043000BDE820404FF000064FF000074FF00008E5
:100440004FF0000B21F00701AC46ACE8C009ACE866
:10045000C009ACE8C009ACE8C0098D46704710B5CA
:100460000446AFF300802046BDE81040FFF7C7BE4A
:10047000002801D0FFF7C0BF7047000010B5002171
:1004800002A000F017F8012010BD000053494741B9
:100490004252543A2041626E6F726D616C207465F5
:1004A000726D696E6174696F6E000000004870477C
:1004B000EC05002070B505460C460A2000E06D1CD6
:1004C000FFF793FF35B128780028F8D102E0641CCB
:1004D000FFF78BFF14B120780028F8D1BDE87040F9
:1004E0000A20FFF782BF000008B50121042000F0B8
:1004F0002FFDBE20ADF8000003208DF80200102073
:100500008DF803006946144800F05BFA4020ADF80E
:10051000000003208DF8020004208DF803006946D6
:100520000D4800F04EFA20210B4800F026FB102168
:10053000094800F024FB0821074800F020FB0421B3
:10054000054800F01CFB0221034800F018FB4FF4A3
:10055000FA6001F0C1FE08BD0008014070B5054613
:10056000002408E0E0B2294600F008F84FF4FA60F1
:1005700001F0B2FE641C0C2CF4DB70BD2DE9FF5FB2
:1005800005460E46032095FBF0F030B101280AD055
:1005900002280FD003281BD113E00221534800F09A
:1005A000ECFA534C15E00421504800F0E6FA504CA8
:1005B00009340EE008214D4800F0DFFA4C4C1234AB
:1005C00007E01021494800F0D8FA494C1B3400E0FC
:1005D00000BF00BF4FF4FA6001F07EFE4FF000094B
:1005E0000AE0FF2001F0C8FD04F809004FF4FA709A
:1005F00001F072FE09F10109B9F1090FF1DB1021D7
:100600003A4800F0BCFA0821384800F0B8FA042152
:10061000364800F0B4FA0221344800F0B0FA2078ED
:1006200001285DD1E07802285AD1A079032857D15A
:1006300095FBF0F100FB1150C0B9A07803F0D4FE97
:10064000074600222B4B03F033FDCDE90201607811
:1006500003F0CAFECDE90001DDE9022303F074FCDA
:10066000824603F03FFC46F8250039E0032095FB65
:10067000F0F100FB1150012819D1607903F0B4FEAC
:10068000824600221B4B03F013FD07468846207963
:1006900003F0AAFE3A464346CDE9000103F054FCBC
:1006A000CDE9020103F01EFC46F8250018E0207A8F
:1006B00003F09AFE824600220E4B03F0F9FC074637
:1006C0008846E07903F090FE3A464346CDE90001C2
:1006D00003F03AFCCDE9020103F004FC46F82500E2
:1006E0004FF4FA6001F0F8FDBDE8FF9F00080140FB
:1006F000F0010020000059402DE9FC4781468A4660
:100700001849504604F0ACFA02D2DFF858A006E0CF
:100710000021504604F0A4F901D24FF0000A002451
:1007200004E00120104901F82400641C082CF8DBC7
:10073000504604F0C7F8074600220C4B03F0A4FE15
:10074000054600220A4B03F0FFFBCDE9000103F050
:1007500007FE054901EB89014880034801F098FD37
:10076000BDE8FC8700002041140200208099B940B8
:100770000000E03F10B50A480088B0F5167F04DAA3
:100780000021072000F0C4F808E005480088B0F513
:10079000487F03DD0B21072000F0BAF810BD0000F0
:1007A0008001002070B5014600234D7D002203E04A
:1007B000D01C085C0344521C122AF9DB642093FB12
:1007C000F0F600FB1630C4B2AC4201D1012070BD7E
:1007D0000020FCE738B50121082000F0B9FB4FF4F8
:1007E0003040ADF8000003208DF8020010208DF895
:1007F00003006946264800F0E4F84FF48040ADF865
:10080000000003208DF8020004208DF803006946E3
:100810001F4800F0D6F84FF480511D4800F0AFF9A2
:10082000002409E055201B4901F8240041F2090089
:1008300001EB84014880641C082CF3DB002403E0F6
:10084000144801F025FD641C082CF9DB002409E0A4
:100850005720104901F824004FF4607001EB840127
:100860004880641C082CF3DB0A4801F011FD0024C9
:1008700008E00120074901F82400002001EB840171
:100880004880641C082CF4DB024801F001FD38BDEF
:10089000000C01401402002070B50546002405E05C
:1008A000204600F007F82855601CC4B2082CF7DB7E
:1008B00070BD000070B50546082D1DD2DFE805F0BB
:1008C00004070A0D101316194FF4807415E04FF445
:1008D000007412E04FF480640FE04FF400640CE009
:1008E0004FF4805409E04FF4005406E04FF4804484
:1008F00003E04FF4004400E000BF00BF214603487E
:1009000000F032F90646304670BD0000001C014080
:1009100070B505460E46082D1DD2DFE805F0040728
:100920000A0D101316194FF4807415E04FF400747B
:1009300012E04FF480640FE04FF400640CE04FF4D9
:10094000805409E04FF4005406E04FF4804403E083
:100950004FF4004400E000BF00BF26B92146044820
:1009600000F00BF903E02146014800F008F970BDE2
:100970000018014001B54FF47A70009901EBC101F4
:10098000C9004FF0E02251610521116112E000BF62
:100990004FF0E021096901F480310029F8D04FF0CF
:1009A000E021096921F480314FF0E0221161401EFD
:1009B00000B900E0EBE700BF04214FF0E022116135
:1009C00008BD2DE9F0410246002500260020002345
:1009D0000024002791F803C00CF00F0591F803C024
:1009E0000CF0100CBCF1000F03D091F802C04CEADF
:1009F000050591F800C0BCF1000F31D0146800204B
:100A00002BE04FF0010C0CFA00F3B1F800C00CEA37
:100A100003069E4220D183004FF00F0C0CFA03F71F
:100A2000BC4305FA03FC4CEA040491F803C0BCF192
:100A3000280F06D14FF0010C0CFA00FCC2F814C0CC
:100A40000AE091F803C0BCF1480F05D14FF0010C4A
:100A50000CFA00FCC2F810C0401C0828D1D3146066
:100A6000B1F800C0BCF1FF0F34DD546800202EE067
:100A700000F1080C4FF0010808FA0CF3B1F800C0BF
:100A80000CEA03069E4221D183004FF00F0C0CFAB2
:100A900003F7BC4305FA03FC4CEA040491F803C0D5
:100AA000BCF1280F05D100F1080C08FA0CF8C2F8C7
:100AB000148091F803C0BCF1480F07D100F1080C75
:100AC0004FF0010808FA0CF8C2F81080401C082802
:100AD000CED35460BDE8F081F0B50A46002300246F
:100AE0000021002500F00046B6F1004F02D11D4E56
:100AF000F16901E01B4E7168C0F3034583B200F455
:100B00004016B6F5401F08D121F07061154E766889
:100B100026F07066134F7E6012E000F48016B6F582
:100B2000801F06D1032606FA05F4A14341F0706147
:100B300006E0460D360103FA06F6B14341F0706156
:100B400022B1460D360103FA06F6314300F00046A5
:100B5000B6F1004F02D1034EF16101E0014E716028
:100B6000F0BD0000000001400246002093680B40E9
:100B70000BB1012000E00020704741617047016126
:100B8000704700001A48007801282FD119480079D1
:100B90001849C97801EBC10202EB011100EB810099
:100BA00015490880134880791249497901EBC1023F
:100BB00002EB011100EB8100104908800D48007A1A
:100BC0000C49C97901EBC10202EB011100EB810074
:100BD0000B4908800748007B0649C97A01EBC1022E
:100BE00002EB011100EB810006490880704700000C
:100BF00013010020680300208001002082010020F2
:100C0000840100208801002010B50121C02000F0DF
:100C10009FF910BD08B510208DF803004FF47F40F8
:100C2000ADF8000003208DF8020069460848FFF780
:100C3000C8FE04208DF803004FF47F40ADF800009B
:100C400003208DF8020069460248FFF7BAFE08BD8E
:100C500000180140001C014010B5FFF7D5FFFFF759
:100C6000D9FF10BD10B545F2555000F029F8062007
:100C700000F01AF840F21A6000F01CF800F00CF8CE
:100C800000F002F810BD00004CF6CC4001490860AD
:100C900070470000003000404AF6AA200149086071
:100CA0007047000000300040014948607047000074
:100CB000003000400149886070470000003000406B
:100CC00001490860704700000030004010B5094835
:100CD000FFF7E2FD084800F0C3FA0848FFF73EFCC2
:100CE00007490B20FFF74AFC05490320FFF746FCA4
:100CF00010BD0000DE010020AC0500207C050020B6
:100D0000BC0500200020704710B500240EE0E0B2C2
:100D10000021FFF7F1FC0120FFF72CFEE0B20021DB
:100D2000FFF7F6FD0120FFF725FE641C082CEEDB23
:100D300010BD10B50024FFF7E5FF04460CB12046B6
:100D400010BD4FF081410220FFF7D6FC0120FFF7D4
:100D500011FE0020F4E710B50024FFF7D3FF04468E
:100D60000CB1204610BD00210220FFF7C5FC002178
:100D70000720FFF7C1FC00210420FFF7BDFC002184
:100D80000320FFF7B9FC0020ECE708B500214FF085
:100D9000006000F083F84FF4407000F075F82620F2
:100DA0008DF8000002208DF8010001208DF803006D
:100DB000684600F031F81C208DF8000003208DF803
:100DC000010001208DF80300684600F025F81D2081
:100DD0008DF8000004208DF8010001208DF803003B
:100DE000684600F019F81E208DF8000005208DF8E7
:100DF000010001208DF80300684600F00DF8322054
:100E00008DF8000006208DF8010001208DF8030008
:100E1000684600F001F808BD70B5002100230F22DC
:100E2000C47804B3154C246804F4E064C4F5E064A9
:100E3000210AC1F10403CA40447804FA03F184781A
:100E40001440214309010E4C0678A155047804F0A2
:100E50001F050124AC4005786D11AD0005F1E025BA
:100E6000C5F8004109E0047804F01F050124AC40F6
:100E7000044D0678761145F8264070BD0CED00E073
:100E800000E400E080E100E002490143024A116011
:100E9000704700000000FA050CED00E0024A0A402D
:100EA0000243024B1A60704780FFFF1F08ED00E00D
:100EB00010B50024FFF726FF04460CB1204610BDF4
:100EC000104801680220FFF717FC0F4801880F48FF
:100ED0000088401D81420ADB4FF082410420FFF769
:100EE0000BFC4FF082410320FFF706FC07E00021D6
:100EF0000420FFF701FC00210320FFF7FDFB002089
:100F0000DDE7000090010020840100208601002020
:100F100029B1064AD2690243044BDA6104E0034A6C
:100F2000D2698243014BDA61704700000010024031
:100F300029B1064A12690243044B1A6104E0034ACC
:100F400012698243014B1A61704700000010024091
:100F500029B1064A92690243044B9A6104E0034AAC
:100F600092698243014B9A61704700000010024071
:100F700029B1064AD2680243044BDA6004E0034A0E
:100F8000D2688243014BDA607047000000100240D3
:100F900010B500F029F84FF4803000F0E7F800F0C9
:100FA00043F90446012C1ED1002000F0D3F80020A4
:100FB00000F00EF9A00200F0FFF84FF4E011200459
:100FC00000F018F9012000F00FF900BF392000F0FF
:100FD0009BF80028FAD0022000F01AF900BF00F0B8
:100FE000B1F80828FBD110BD0F48006840F001009F
:100FF0000D490860084640680C4908400A494860A5
:10100000084600680A490840074908600846006821
:1010100020F4802008600846406820F4FE00486004
:101020004FF41F0088607047001002400000FFF876
:10103000FFFFF6FE30B500210022002400232D4DD5
:101040006D6805F00C0121B1042905D0082923D1D0
:1010500005E0294D056022E0274D05601FE0254D84
:101060006D6805F47012234D6D6805F48034022517
:1010700005EB92421CB9214D554305600BE01D4D17
:101080006D6805F400351DB11C4D5543056002E047
:10109000194D5543056002E0174D056000BF00BFC4
:1010A000144D6D6805F0F0010909154D6B5C05687C
:1010B000DD4045600F4D6D6805F4E061090A104D93
:1010C0006B5C4568DD4085600A4D6D6805F46051D4
:1010D000C90A0B4D6B5C4568DD40C560054D6D6808
:1010E00005F44041890B074D6B5CC568B5FBF3F512
:1010F000056130BD0010024000127A0000093D0079
:10110000140000202400002010B501460022002316
:1011100000204A11012A02D1094C236806E0022A64
:1011200002D1074C236A01E0054C636A01F01F02FB
:10113000012494401C400CB1012000E0002010BDAF
:10114000001002400248406800F00C0070470000A8
:101150000010024001460020034A506820F0F000D1
:1011600008435060704700000010024011490968B0
:1011700021F480310F4A11601146096821F4802161
:101180001160B0F5803F03D0B0F5802F0ED106E09E
:101190000849096841F48031064A116007E00549B1
:1011A000096841F4A021034A116000E000BF00BFBC
:1011B000704700000010024001460020034A5068BA
:1011C00020F4E060084350607047000000100240C7
:1011D00001460020034A506820F4605040EAC100F4
:1011E00050607047001002400149086670470000D7
:1011F0000000424202460020044B586820F47C1054
:1012000042EA01031843014B586070470010024046
:1012100001460020034A506820F003000843506054
:10122000704700000010024038B5002000900024F4
:10123000002500BF3120FFF767FF05460098401CDE
:1012400000900098B0F5A06F01D0002DF2D03120B1
:10125000FFF75AFF08B1012400E00024204638BD02
:101260002DE9F047814601F040F8DFF860A08021C9
:101270001748FFF782FC01F038F8002408E0154910
:10128000085D02F085F90AF8040001F02EF8641CEC
:10129000142CF4D380210E48FFF771FC002411E0D8
:1012A0000A49891C01EB8401086803F086F80746A7
:1012B0000022094B02F0FCFE054602F013FE49F83D
:1012C0002400641C042CEBDBBDE8F0873402002012
:1012D000000C0140C24D000800408F4008B50121BC
:1012E0000802FFF735FE01210820FFF731FE4FF419
:1012F0002040ADF8000003208DF8020010208DF88A
:10130000030069461748FFF75CFB4FF48040ADF8D7
:10131000000003208DF8020048208DF80300694684
:101320001048FFF74EFB4FF4C070ADF800000320EB
:101330008DF8020010208DF8030069460A48FFF777
:1013400040FB4FF400510748FFF717FC00F0CDFFBA
:1013500080210548FFF713FC4FF480710248FFF726
:101360000EFC08BD00200140000C014010B52C48C7
:1013700000782B494978084300EB80004000294958
:1013800008802949C86A294903F09EFB044603F0F6
:1013900033FB274908802449C868244903F094FB9B
:1013A000044603F029FB23490880234988681F4924
:1013B00003F08AFB044603F01FFB20490880204805
:1013C0002049086020484860204888602048C8605C
:1013D0001A4808611F4848611F4888611148C86160
:1013E0001E48086212484862124888621C48C86257
:1013F0001C4888641C48C8641C4808651C4848652B
:101400001C4888651C48C8651C4808661C48486616
:101410001C48C1F880001C48C1F8840010BD0000C1
:10142000DE0100200E010020BC050020000020414C
:101430000C0100200A010020AC050020080100205A
:10144000840100207C040020860100208801002007
:101450008A0100208001002082010020100100206C
:1014600078010020760100207A010020A4010020EC
:10147000A6010020A8010020AC010020AE01002040
:10148000B0010020B2010020B401002010B500F02E
:1014900001F810BD0CB500200190009033480068A1
:1014A00040F480303149086000BF3048006800F4E3
:1014B000003000900198401C0190009818B90198E4
:1014C000B0F5A06FF1D12948006800F4003010B1E8
:1014D0000120009001E0002000900098012843D1F5
:1014E0002348006840F01000214908600846006861
:1014F00020F0030008600846006840F00200086021
:101500001A484068194948600846406848600846DB
:10151000406840F4806048600846406820F47C10D1
:1015200048600846406840F4E81048600846006893
:1015300040F08070086000BF0C48006800F0007048
:101540000028F9D00948406820F0030007494860A6
:101550000846406840F00200486000BF0348406809
:1015600000F00C000828F9D10CBD0000001002406A
:101570000020024010B51348006840F001001149F6
:10158000086008464068104908400E49486008460F
:1015900000680E4908400B4908600846006820F4BE
:1015A000802008600846406820F4FE0048604FF440
:1015B0001F008860FFF76AFF4FF000600449086071
:1015C00010BD0000001002400000FFF8FFFFF6FE13
:1015D00008ED00E010B50121054800F059F928B1E7
:1015E0000121034800F051F801F0BAFF10BD0000DE
:1015F000002C014010B50121880700F049F990B195
:101600000B48007850B90B480068401E0949086033
:101610000846006838B90320086004E00320054943
:10162000086000F0A3F90121880700F02EF810BD32
:1016300013010020E801002010B50121084800F046
:1016400027F960B10121064800F01FF8054800881D
:1016500003F0F2F9044600F02BFD0349086010BDC9
:1016600000080040860100209001002021B102887E
:1016700042F08002028004E002884FF67F731A4035
:1016800002807047CA4302827047CA430282704791
:1016900021B1028842F00102028004E002884FF684
:1016A000FE731A400280704710B5044668488442B1
:1016B00008D10121C014FFF75BFC0021E014FFF703
:1016C00057FCC4E0B4F1804F08D101210846FFF770
:1016D0002FFC00210120FFF72BFCB8E05D4884427D
:1016E00008D101210220FFF723FC00210220FFF78F
:1016F0001FFCACE05848844208D101210420FFF7C8
:1017000017FC00210420FFF713FCA0E0534884429B
:1017100008D101210820FFF70BFC00210820FFF76A
:1017200007FC94E04E48844208D101211020FFF7C5
:10173000FFFB00211020FFF7FBFB88E049488442B3
:1017400008D101212020FFF7F3FB00212020FFF723
:10175000EFFB7CE04448844208D101214014FFF7AC
:1017600007FC00216014FFF703FC70E03F4884424F
:1017700009D10121C804FFF7FBFB00214FF4002031
:10178000FFF7F6FB63E03A48844209D101210805DE
:10179000FFF7EEFB00214FF48010FFF7E9FB56E066
:1017A0003448844209D101214805FFF7E1FB0021BB
:1017B0004FF40010FFF7DCFB49E02F48844208D1CA
:1017C00001214020FFF7B4FB00214020FFF7B0FBD0
:1017D0003DE02A48844208D101218020FFF7A8FB80
:1017E00000218020FFF7A4FB31E02548844208D186
:1017F00001218015FFF79CFB0021A015FFF798FB46
:1018000025E02048844209D101210804FFF7B0FBFC
:1018100000214FF48030FFF7ABFB18E01A488442F8
:1018200009D101214804FFF7A3FB00214FF4003048
:10183000FFF79EFB0BE01548844208D10121880484
:10184000FFF796FB00214FF48020FFF791FB10BDBE
:10185000002C01400004004000080040000C004043
:10186000001000400014004000340140004C0140D2
:10187000005001400054014000180040001C00408E
:101880000020004000400140004401400048014069
:1018900030B50246002000230024158A05EA010322
:1018A000958905EA010413B10CB1012000E0002084
:1018B00030BD1AB183890B43838102E083898B4356
:1018C0008381704781847047002202881D4B9842B3
:1018D0000ED01D4B98420BD0B0F1804F08D01B4B5F
:1018E000984205D01A4B984202D01A4B984204D124
:1018F0004FF68F731A404B881A43174B984207D004
:10190000164B984204D04FF6FF431A40CB881A4337
:1019100002808B8883850B8803850A4B98420BD005
:10192000094B984208D00E4B984205D00D4B984277
:1019300002D00D4B984201D10B7A0386012383829A
:1019400070470000002C01400034014000040040BA
:1019500000080040000C004000100040001400404F
:1019600000400140004401400048014000B50B48E0
:10197000007805280BD2DFE800F00304070809000F
:1019800006E0FFF7FFF803E002E001E000E000BF3F
:1019900000BF00200149087000BD000013010020B5
:1019A00030B5044600252046FEF7FCFE054655B13D
:1019B0002078552802D06078662802D1A0780349A3
:1019C0000870012030BD0020FCE70000130100205A
:1019D0002DE9F04107468846144600255522284641
:1019E0006D1C2254662228466D1C22541A48027827
:1019F00028466D1C225419490888C11700EB116153
:101A0000C1F3072329466D1C635414490888C11784
:101A100000EB11610912A0EB0121CBB229466D1C2C
:101A20006354002605E018F8062028466D1C225451
:101A3000761CBE42F7DB4146384600F0DDFB294606
:101A40006D1C6054662228466D1C2254552228467F
:101A50006D1C2254BDE8F081130100208601002096
:101A60000EB501210846FFF753FA4FF08040FFF70B
:101A70001BFE4FF4FA60ADF8040048F69F40ADF845
:101A800000000020ADF80600ADF8020069464FF0F6
:101A90008040FFF719FF01218807FFF7F3FD0122BE
:101AA00011469007FFF705FF01218807FFF7F0FDBA
:101AB0000EBD00000EB501210420FFF729FA1248DF
:101AC000FFF7F2FD47F23050ADF8040048F69F40B2
:101AD000ADF800000020ADF80600ADF802008DF86A
:101AE000080069460848FFF7EFFE01210648FFF7A6
:101AF000C9FD012211460448FFF7DBFE012102481F
:101B0000FFF7C6FD0EBD00000008004010B540F212
:101B100025510D4800F055F9012806D101F028FDA6
:101B200040F22551084800F0D6F840F226610648F8
:101B300000F047F9012806D101F022FD40F22661AC
:101B4000014800F0C8F810BD0038014070B500250C
:101B500000260821504800F027F938B14E4800F01F
:101B600081FA044608214C4800F0B5F804214A489F
:101B700000F01AF918B10421474800F0A3F8022137
:101B8000454800F011F918B10221434800F09AF8D5
:101B90000121414800F008F918B101213E4800F048
:101BA00091F840F225513C4800F00BF900285AD03A
:101BB00040F22551384800F08EF8374800F052FACC
:101BC0000446364801680068401C344A10603448B6
:101BD000445410460068182808D13148807D662892
:101BE00004D12F48C07D552800D10125002D3AD0C1
:101BF00000252A4800682B49086000202749086012
:101C00002748FEF7CFFD064626B32548FFF7C8FE56
:101C10002548007801280CD1244A25491020FFF7D7
:101C2000D7FE0020234908602049182000F0A0F9C1
:101C300019E01D480078022804D11F49182000F03F
:101C400097F910E018480078032804D11B491820A0
:101C500000F08EF907E014480078042803D11849F1
:101C6000182000F085F940F227710B4800F0A9F820
:101C700080B140F22771084800F02DF80A20FEF7E5
:101C800079FE01200B490860002240F227710248CA
:101C900000F0C1F870BD000000440040EC010020DD
:101CA000680300207C01002013010020B403002001
:101CB000800300209C8122422C010020440100204E
:101CC0005C01002001F40072B2F5007F00D100BF7A
:101CD000CA430280704710B50022002340F66A1400
:101CE000A14200D100BF0A1201249440A3B2DC43F8
:101CF000048010BD21B1828942F40052828104E047
:101D000082894DF6FF731A408281704710B50446F0
:101D10002048844209D101218803FFF729F90021D5
:101D20004FF48040FFF724F932E01B48844209D188
:101D300001214804FFF7FCF800214FF40030FFF7C1
:101D4000F7F825E01548844209D101218804FFF7FE
:101D5000EFF800214FF48020FFF7EAF818E0104870
:101D6000844209D10121C804FFF7E2F800214FF4B1
:101D70000020FFF7DDF80BE00A48844208D101217A
:101D80000805FFF7D5F800214FF48010FFF7D0F8D1
:101D900010BD0000003801400044004000480040F1
:101DA000004C00400050004002460020B1F5007F8A
:101DB00000D100BF13880B400BB1012000E00020D0
:101DC000704770B50246002400230025002040F62D
:101DD0006A16B14200D100BFC1F3421501F01F03E2
:101DE000012606FA03F3012D02D19689334006E05D
:101DF000022D02D1168A334001E0968A33400C123C
:101E0000012606FA04F41688344013B10CB10120FF
:101E100000E0002070BDF0B5034600240026002538
:101E2000002040F66A17B94200D100BF1846C1F33E
:101E3000421401F01F06012707FA06F5012C01D113
:101E40000C3004E0022C01D1103000E014301AB143
:101E500007682F43076002E00768AF430760F0BDE3
:101E60002DE9F04786B005460E460024A24600BF85
:101E7000A1460027B08900B100BF2F462C8A4CF63E
:101E8000FF700440F08804432C82AC894EF6F310B6
:101E90000440B08831890843718908430443AC8108
:101EA000AC8A4FF6FF400440B0890443AC8201A8DD
:101EB000FFF7C0F81F48874202D1DDF810A001E00B
:101EC000DDF80CA0A88900F4004040B10AEBCA007C
:101ED00000EB0A1031684900B0FBF1F807E00AEBAB
:101EE000CA0000EB0A1031688900B0FBF1F86420E9
:101EF000B8FBF0F004012009642101FB1089A889D6
:101F000000F4004040B1322000EBC900B0FBF1F01A
:101F100000F00700044308E0322000EB09106421C0
:101F2000B0FBF1F000F00F0004432C8106B0BDE8D7
:101F3000F08700000038014001468888C0F308009F
:101F40007047C1F3080282807047000010B500247A
:101F5000FEF7D8FE04460CB1204610BD03480168C8
:101F60000220FEF7C9FB0020F7E7000090010020E7
:101F700070B505460E46002403E0305D00F080F8A1
:101F8000641CAC42F9DB70BD00B585B00121212095
:101F9000FEF7DEFF01214804FEF7BAFF0121082009
:101FA000FEF79AFD18208DF813002020ADF81000E0
:101FB00003208DF8120004A92748FEF702FD042033
:101FC0008DF813004020ADF8100003208DF81200AA
:101FD00004A92148FEF7F5FC10208DF8130080209D
:101FE000ADF8100003208DF8120004A91A48FEF77E
:101FF000E8FC0120194908601948FFF787FE4FF4F3
:10200000165000900020ADF80600ADF80400ADF8C1
:102010000800ADF80C000C20ADF80A006946104825
:10202000FFF71EFF40210E48FFF74CFE012240F251
:1020300025510B48FFF7EFFE012228210848FFF742
:10204000EAFE012260210648FFF7E5FE012104486F
:10205000FFF750FE05B000BD001401409C812242F4
:102060000044004070B504462046FFF765FFC5B246
:10207000284670BD10B5FEF788FEFFF785FF10BD3E
:1020800010B504460020084908600C20FEF772FCD9
:10209000012240F227710548FFF7BDFE21460348A3
:1020A000FFF74FFF10BD00009C812242004400401A
:1020B0002DE9F0470446294D2948C06A294908609E
:1020C0000846006802F0FEFB06460022264B02F09E
:1020D000D9FA02D22846234908602448008802F031
:1020E000ABFC0646214602F0ECFD2149086021497F
:1020F00048681F49096802F0E7FC81461D4881686D
:10210000484602F0E1FC07461A4908681849096880
:1021100002F0DAFC8046394602F000FC064611481F
:102120000168304602F0CDFD0546284602F0CAFBA4
:1021300006460022134602F06BF901D2002509E0A1
:10214000284602F0BFFB06460022074B02F09AFA2F
:1021500000D8024D2846BDE8F0870000000020416D
:10216000BC050020940100200000244084010020D0
:102170008C0100209801002070B504460025202124
:102180001C48FEF7FAFC00262FE06806050E04F056
:10219000800020B180211748FEF7F1FC03E0802188
:1021A0001448FEF7EAFC4FF4FA7000F095F820218D
:1021B0001048FEF7E4FC4FF4FA7000F08DF820218F
:1021C0000C48FEF7DAFC4FF4FA7000F085F8402175
:1021D0000848FEF7C9FC012800D100E0002008B142
:1021E00045F001056006040E761C082ECDDB28465E
:1021F00070BD00000008014070B502460B46002487
:10220000002102E05D5C2C44491C9142FADB64250C
:1022100094FBF5F605FB1645E8B270BD70B50446B3
:1022200000254FF400411948FEF7A7FC002628E0DE
:102230006806050E04F0800028B14FF400511348E1
:10224000FEF79DFC04E04FF400511048FEF795FCAA
:102250004FF400410D48FEF792FC4FF480410B48CB
:10226000FEF782FC012800D100E0002008B145F013
:1022700001054FF400410548FEF77FFC6006040E9F
:10228000761C082ED4DB284670BD0000000C0140EF
:1022900070B505464FF480510E48FEF76EFC0024E1
:1022A0000FE015F82400FFF7B9FF05EB840149881A
:1022B0000812FFF7B3FF05EB84018878FFF7AEFF44
:1022C000641C082CEDDB4FF480510248FEF757FCEC
:1022D00070BD0000000C0140002800DA002000BFA3
:1022E000011EA0F10100FBD1704708B54FF4FA7050
:1022F000009000BF0098411E00910028FAD108BD4F
:102300002DE9F04180460C4615461E4600270A205E
:102310000A490870334607222946204601F0ACFBE3
:10232000012801D0032706E044F6206001F018FCE4
:10233000012800D003273846BDE8F0813F00002087
:102340002DE9F04104460D46164600271248008844
:10235000FF2800DC04E09D2210A118A0FDF776FF05
:102360000D480088032813DB0B4801881D480068CE
:1023700001F0E5F860B91B48006800782070064855
:102380000088801E308017480068401C286000E0EC
:1023900005273846BDE8F081340000202E2E5C462B
:1023A0007265654D6F646275735C506F72745C6DBD
:1023B0006261736369692E63000000007573526384
:1023C00076427566666572506F73203C204D425FA1
:1023D0005345525F5044555F53495A455F4D4158EC
:1023E00000000000300000202DE9F04104460D46B9
:1023F00016464FF000081648007818BB681E1549AD
:1024000008600120144908801248006804700846DA
:10241000008830440880084601880E48006801F0B2
:102420008EF807460C490888411C0B4A11800B495D
:1024300009680F5401200A4908700121002001F0A9
:10244000FBF801E04FF005084046BDE8F0810000D0
:102450002D000020380000203C000020300000202B
:102460002C00002010B50021012001F0E5F800202B
:102470000249087001F0EAFA10BD00002D000020AA
:1024800010B50021084601F0D7F801F003F910BD9E
:1024900010B5002406480078012806D105480068D8
:1024A000804700200249087000E00624204610BD45
:1024B000460000204C0000202DE9F05F06460D4646
:1024C0004FF0000B2888052848D170784FEA002982
:1024D000B07840EA090909F101001FFA80F9F078A3
:1024E000040230790443012C35DBB4F5FA6F32DA9B
:1024F000374600202880012007F8010B2888401C5F
:10250000288004F0070040B12046E11704EB517128
:10251000C910491C01F0FF0805E02046E11704EB53
:102520005171C1F3C70807F8018B2888401C288027
:10253000002322464946384600F074FC8246BAF130
:10254000000F04D0504600F0ADFF834608E0288815
:102550004044288004E04FF0030B01E04FF0030BF0
:102560005846BDE8F09F2DE9F05F06460D464FF056
:10257000000B2888052847D170784FEA0029B078E9
:1025800040EA090909F101001FFA80F9F078040214
:1025900030790443012C34DBB4F5FA6F31DA374675
:1025A00000202880022007F8010B2888401C288082
:1025B00004F0070040B12046E11704EB5171C91047
:1025C000491C01F0FF0805E02046E11704EB5171BA
:1025D000C1F3C70807F8018B2888401C28802246D1
:1025E0004946384600F06AFC8246BAF1000F04D032
:1025F000504600F057FF834608E028884044288072
:1026000004E04FF0030B01E04FF0030B5846BDE828
:10261000F09F2DE9F04705460C464FF0000A208850
:10262000052837D168784FEA0028A87840EA0808DA
:1026300008F101001FFA80F8E87806022E79012ED1
:1026400025DB7D2E23DC2F4600202080032007F889
:10265000010B2088401C20807006000E07F8010B3B
:102660002088401C2080002332464146384600F036
:1026700055FC8146B9F1000F04D0484600F012FF26
:10268000824609E0208800EB4600208004E04FF0FD
:10269000030A01E04FF0030A5046BDE8F0872DE938
:1026A000F04705460C464FF0000A2088052837D130
:1026B00068784FEA0028A87840EA080808F1010085
:1026C0001FFA80F8E878060228790643012E24DBF9
:1026D0007D2E22DA2F4600202080042007F8010BEF
:1026E0002088401C20807006000E07F8010B20880F
:1026F000401C208032464146384600F053FC81465B
:10270000B9F1000F04D0484600F0CCFE824609E043
:10271000208800EB4600208004E04FF0030A01E02F
:102720004FF0030A5046BDE8F0872DE9FC5F0446F0
:102730000D460020009028880A285DDB60784FEA6B
:10274000002AA07840EA0A0A0AF101001FFA80FA7A
:10275000E07806022079064360794FEA002BA079E1
:1027600040EA0B0B0BF101001FFA80FBE079070236
:10277000207A0743607A0190012E3BDB7D2E39DC05
:10278000012F37DB792F35DC79000198814231D177
:1027900001233A46594604F10A0000F0BFFB814686
:1027A000B9F1000F1ED1A04600202880172008F89C
:1027B000010B2888401C28807006000E08F8010BC9
:1027C0002888401C2880002332465146404600F0AD
:1027D000A5FB8146B9F1000F04D12888022101FB35
:1027E00006002880B9F1000F06D0484600F05AFED6
:1027F000009001E0032000900098BDE8FC9F0000DD
:1028000070B505460C46064802880649681CFDF767
:102810005DFD03480088401C2080002070BD000042
:1028200040000020480200202DE9F84304460F46EE
:102830004FF000083888052829D160780502A07873
:102840000543681C85B22079F0B9E078FF2801D0F3
:10285000E078C8B900208DF80100E078FF2803D1A6
:1028600001208DF8000002E000208DF80000012317
:102870001A462946684600F0D5FA06464EB130465B
:1028800000F010FE804604E04FF0030801E04FF036
:1028900003084046BDE8F8832DE9F04104460F46A1
:1028A0004FF000083888052812D160780502A0781A
:1028B0000543681C85B201231A462946E01C00F036
:1028C0002DFB064636B1304600F0ECFD804601E0B7
:1028D0004FF003084046BDE8F0812DE9F05F054662
:1028E0000E464FF0000B3088052839DD6878070266
:1028F000A8780743781C87B2E87804022879044353
:1029000095F805A004F0070040B12046E11704EB5C
:102910005171C910491C01F0FF0805E02046E1177C
:1029200004EB5171C1F3C708012C16DBB4F5F66F47
:1029300013DCD04511D1012322463946A81D00F0F1
:1029400071FA8146B9F1000F04D0484600F0AAFDA3
:10295000834607E00520308004E04FF0030B01E0E0
:102960004FF0030B5846BDE8F09F2DE9F0470446B1
:102970000E464FF0000A3088062828DB60780702F0
:10298000A0780743781C87B2E078050220790543D8
:1029900094F80590012D17DB782D15DC6806000EE4
:1029A000484511D101232A463946A01D00F0B6FA48
:1029B0008046B8F1000F04D0404600F073FD824617
:1029C00007E00520308004E04FF0030A01E04FF0FB
:1029D000030A5046BDE8F0872DE9F04705460C464E
:1029E00016461F46DDF820904FF000081CB1012C60
:1029F00001DBF72C02DD4FF0020859E02E4804708D
:102A000015B1012D42D120E02C482D4908602D48F8
:102A10002D4908602D482E4908602E482E4908602F
:102A200000202E4908602E482E4908602E482F4964
:102A300008602F482F4908604B463A4631461E48E9
:102A4000007800F007F9804623E02B481C49086015
:102A50002A481D4908602A481D49086029481E491E
:102A6000086000201D49086027481E490860274863
:102A70001E49086026481F4908604B463A463146C1
:102A80000D480078FFF73CFC804602E04FF002085A
:102A900000BF00BFB8F1000F0AD100F0CFFF10B99E
:102AA0004FF0030804E01B48057001201A49087024
:102AB0004046BDE8F087000044000020F92D0008E2
:102AC0004C000020152E000850000020512D000859
:102AD00048000020A52C00085400002058000020C9
:102AE000FD3B00085C0000205D3D00086000002008
:102AF000D53C0008640000206524000881240008FB
:102B0000E923000841230008ED360008D538000805
:102B100069380008450000204600002038B500252F
:102B20004148007808B1062038BD684600F074FFBF
:102B3000012877D19DF8000030B1012805D0022886
:102B400018D003286DD16BE06BE0384A384939481A
:102B5000394B1B68984705465DB9364800783749B8
:102B60000978884202D03348007810B9022000F07A
:102B70006DFF56E02E48006800783149087001204A
:102B800030490870002417E02F4810F8340000B9CD
:102B900014E02D4810F834002949097888420AD1F8
:102BA000294800EBC4002149426821480068904749
:102BB0002449087002E0641C102CE5DB00BF1D48AE
:102BC000007858B31F480078C8B100201749088022
:102BD0001B48007840F08001144802880088401C9F
:102BE000124B188012480068815416480278184623
:102BF00001880088401C18800D4800684254134822
:102C00000078012800D100BF084802880848016800
:102C10000A4800780E4B1B689847054601E001E022
:102C200000BF00BF00207FE746000020F600002024
:102C3000F0000020F4000020540000204400002098
:102C4000F5000020F8000020700000204500002062
:102C5000480000202DE9F04781460E4614461F46E5
:102C60004FF000083B4608222146304600F004FFA2
:102C7000012802D04FF003080FE0B4F5964F01D9B8
:102C8000232503E060000649B1FBF0F5A8B200F08F
:102C900067FF012801D04FF003084046BDE8F087E8
:102CA000A07F17002DE9F04104460D4616464FF06F
:102CB0000008002712480088FF2800DC04E09D225D
:102CC00010A118A0FDF7C2FA0D480088042812DBF5
:102CD0000B4801881D4800F093FC60B91B48007840
:102CE000207007480088C01E30801848401C2860AB
:102CF0004FF0010800E005273846BDE8F0810000EC
:102D0000060100202E2E5C467265654D6F6462756B
:102D1000735C4D6F646275735C6D627274752E6363
:102D200000000000757352637642756666657250E6
:102D30006F73203C204D425F5345525F5044555FB6
:102D400053495A455F4D4158000000006802002079
:102D50002DE9F04105460E4617464FF00008214880
:102D60000078012838D1701E1F49086001201F49D2
:102D700008801D48006805700846008838440880AF
:102D8000084601881848006800F03AFC04461749D4
:102D90000888411C154B198015490C5422121946FC
:102DA0000888411C198012490A54012011490870F1
:102DB0000D490968087800F0C9FE0B480068401CFE
:102DC0000949086009480088401E08490880012117
:102DD000002000F031FC01E04FF005084046BDE85E
:102DE000F0810000FD00002000010020040100200F
:102DF00068020020FC00002010B500200449087083
:102E00000021012000F018FC00F05AFC10BD000069
:102E1000FD00002010B50021084600F00DFC00F078
:102E200039FC10BD2DE9F04705460E4690469946FF
:102E30004FF0000A0FFA88F430B2002836DB06EBB8
:102E40000800102832DC304607B2B9F1000F03D079
:102E5000B9F1010F29D115E011E0082C01DD08209E
:102E600000E02046C2B2B9B2134800F0D7FF05F81F
:102E7000010BA4F1080004B207F1080007B2002C0E
:102E8000EBDC12E00EE015F8013B082C01DD082018
:102E900000E02046C2B2B9B2074800F0D5FFA4F165
:102EA000080004B2002CEEDC00BF01E04FF0010A84
:102EB0005046BDE8F0870000DA0100202DE9F04718
:102EC00005460C4616464FF0000937B220B20028DE
:102ED0001CDBA019102819DC20461FFA80F812E02C
:102EE000082F01DD082000E03846C2B241460A48FA
:102EF00000F094FF05F8010BA7F1080007B208F1F4
:102F000008001FFA80F8002FEADC01E04FF0010909
:102F10004846BDE8F0870000DC010020F0B504461B
:102F20000D4600202EB2012E38DBAE18412E35DCC6
:102F30006E1E31B213B1012B2FD114E010E0184EE8
:102F400056F821603688361204F8016B144E56F894
:102F50002160367804F8016B4E1C31B2561EB2B2B5
:102F6000002AECDC19E015E014F8017B3E020C4F5E
:102F700057F821703E8014F8016B094F57F8217003
:102F80003F883E43064F57F821703E804E1C31B2B9
:102F9000561EB2B2002AE7DC00BF00E00120F0BDFF
:102FA0007C04002030B5034600200DB2002D17DB55
:102FB0008D18102D14DC0D462CB20EE0094D35F89D
:102FC00014502D1203F8015B064D15F8145003F848
:102FD000015B651C2CB2551EAAB2002AEEDC00E093
:102FE000012030BDB601002008B5FDF7D1FFFDF787
:102FF00033FEFDF779FAFDF7EDFBFEF76FF9FFF70A
:1030000039F8FEF72DFDFEF755FDFDF75FFEFDF7E4
:1030100029FEFEF7ABF900204FF49643012265210B
:103020000090FFF7D9FCFFF733FAA7E0FDF734FE75
:10303000FFF774FD5248008878B35248007860BBAF
:103040004F480088642802DD64204D4908804C48C0
:103050000088012802DA0020494908804848008891
:1030600001F0C2F905460022474B01F021F807465E
:1030700000F038FF044621460220FDF73DFB4FF0EB
:1030800082410420FDF738FB4FF082410320FDF719
:1030900033FB01203B4908704AE0FFE738480088CD
:1030A00098B93848007801280FD100210220FDF797
:1030B00023FB00210420FDF71FFB00210320FDF767
:1030C0001BFB00202F49087032E02D48008878B3A0
:1030D0002C48007801282BD129480088642802DD7B
:1030E00064202749088026480088012802DA002049
:1030F000234908802248008801F076F9054600221D
:10310000214B00F0D5FF074600F0ECFE04462146B7
:103110000220FDF7F1FA4FF082410420FDF7ECFAAE
:103120004FF082410320FDF7E7FA012015490870AE
:103130001648008840B101210720FDF7E9FB012076
:1031400013490880134908701048008860B9114875
:103150000078012808D100210720FDF7D9FB0020C5
:103160000B4908800B4908700848008820B90948B5
:10317000007808B9FDF7FEFA00F00EF856E70000F7
:10318000A4010020AA01002000002440A601002084
:10319000A8010020AB0100202DE9F041B2480078E1
:1031A000002863D1B148008830B9B148008818B907
:1031B000B0480088002859D0AF48008868B3AE48AE
:1031C0000088642802DD6420AB490880AA48008892
:1031D000012802DA0020A8490880A748008801F0E9
:1031E00003F905460022A54B00F062FF074600F0F8
:1031F00079FE044621460220FDF77EFA4FF0824117
:103200000420FDF779FA4FF082410320FDF774FAAC
:1032100001209B490870BDE8F0819748008898B963
:103220009748007801280FD100210220FDF764FAA9
:1032300000210420FDF760FA00210320FDF75CFA6D
:1032400000208F49087009E08B48008830B98C480D
:10325000007818B9FDF76DFD8A4908708948007833
:1032600008B1FDF751FD01207F4908707E480078C4
:1032700070B38148008858B37F480088642802DD15
:1032800064207D4908807C480088012802DA0020FB
:10329000794908807848008801F0A6F805460022A0
:1032A000764B00F005FF074600F01CFE0446214661
:1032B0000220FDF721FA4FF082410420FDF71CFAAD
:1032C0004FF082410320FDF717FA01206C49087086
:1032D00065480078002868D064480088002864D1D8
:1032E00063480088002860D16248008800285CD1CB
:1032F0006348007801282FD15F48008860B35E489A
:103300000088642802DD64205B4908805A480088F0
:10331000012802DA0020584908805748008801F047
:1033200063F805460022554B00F0C2FE074600F048
:10333000D9FD044621460220FDF7DEF94FF0824117
:103340000420FDF7D9F94FF082410320FDF7D4F9AD
:1033500001204B4908705EE74748008898B9484803
:10336000007801280FD100210220FDF7C5F90021C6
:103370000420FDF7C1F900210320FDF7BDF900206D
:103380003F49087009E03C48008830B93C48007863
:1033900018B9FDF7E0FC3B4908703A48007808B1DD
:1033A000FDF7B2FC0020304908702F48007860B368
:1033B0003548008848B33248007830BB334800882D
:1033C00068B93348008850B93248008838B9324962
:1033D0000220FDF791F901203049087002E0002039
:1033E0002E4908702E480088FA2802D1E6202C4980
:1033F00008802A48007840B9FDF75AFD2149087035
:103400000846007808B1FDF77FFC1748007840B304
:103410001D48008828BB1A48007810BBFA202049B4
:1034200008801A48008868B91948008850B91948B6
:10343000008838B918490220FDF75EF901201749C4
:10344000087002E00020154908701448007840B95F
:10345000FEF77CFD0B4908700846007808B1FDF7BF
:1034600053FC00BFD7E60000740100207801002063
:10347000760100207A010020A401002000002440F1
:10348000AA010020750100200E0100208401002007
:10349000880100208001002000002041E60100207A
:1034A00086010020014621B1012904D0072906D157
:1034B00003E0002005E0022003E0062001E00420F4
:1034C00000BF00BF7047000010B50446092C03DCA4
:1034D00004F13000C0B210BD0A2C05DB0F2C03DC58
:1034E00004F13700C0B2F6E740F2D11201A109A001
:1034F000FCF7ACFE2E2E5C467265654D6F646275FE
:10350000735C506F72745C6D6261736369692E6382
:1035100000000000300000000146302905DB392999
:1035200003DCA1F13000C0B27047412905DB462918
:1035300003DCA1F13700C0B2F6E7FF20F4E710B5D5
:103540000246002003E012F8014B2318D8B20B1EEC
:10355000A1F10104A1B2F6D14342D8B210BD0000DE
:1035600010B502480068804710BD000064000020CC
:1035700010B502480068804710BD00005C000020C4
:1035800010B502480068804710BD000060000020B0
:1035900070B50446002500262CE06806050E4FF4A1
:1035A00000511648FDF7EBFA04F0800028B14FF403
:1035B00000411248FDF7E3FA04E04FF400410F48E0
:1035C000FDF7DBFAFEF791FE4FF400510B48FDF7D3
:1035D000D4FAFEF78AFE4FF480410848FDF7C4FA9A
:1035E000012800D100E0002008B145F00105600687
:1035F000040E761C082ED0DB284670BD002001404A
:1036000070B502460C46FF25FF2309E012F8010BB6
:1036100080EA03010648405C80EA05030548455CF2
:10362000201EA4F10106B4B2F0D143EA052070BD1A
:10363000CE4D0008CE4E000870B505460C465DB173
:10364000012240F225511148FEF7E5FB4FF480714D
:103650000F48FDF794FA0AE0002240F225510B488A
:10366000FEF7D9FB4FF480710948FDF786FA34B1B3
:10367000012240F226610548FEF7CDFB05E000225D
:1036800040F226610148FEF7C6FB70BD00380140DC
:103690000008014010B501210848FDF7F6FF00229F
:1036A00001210648FEF705F900210448FEF70AF952
:1036B00000210248FDF7ECFF10BD0000002C014086
:1036C00010B501210848FDF7E0FF01221146064828
:1036D000FEF7EFF800210448FEF7F4F80121024854
:1036E000FDF7D6FF10BD0000002C014038B50025C5
:1036F0004848007800B904E0E42247A14EA0FCF756
:10370000A5FD684600F0AEF95248007800286FD059
:10371000012802D002287AD146E0FFF7D1FF9DF8B8
:1037200000003A2805D100204B4908704B49088019
:1037300039E09DF800000D2803D1022045490870AA
:1037400031E09DF80000FFF7E7FE044642480078AC
:1037500010B1012826D114E040480088FF280ADC77
:103760002007000E3E4909683C4A1288885401200F
:103770003949087016E0002036490870FFF78AFFC3
:1037800010E037490968354A1288881801782143C2
:10379000017032480088401C3049088000202E49C2
:1037A000087000BF00BF32E09DF800002D49097885
:1037B000884209D1FFF76EFF0020264908700120DA
:1037C00000F044F9054611E09DF800003A280AD1BE
:1037D0000020214908702149088001201D490870F6
:1037E000FFF76EFF02E000201A4908700FE0FFE7C4
:1037F0009DF800003A2809D1FFF762FF0020174921
:1038000008801549087001201249087000BF00BFE8
:10381000284638BD2C0000202E2E5C467265654D72
:103820006F646275735C506F72745C6D6261736318
:1038300069692E630000000065536E6453746174FF
:1038400065203D3D2053544154455F54585F4944E1
:103850004C4500002D0000203600002034000020E0
:10386000300000203F00002010B5104800780128EB
:1038700002D0022805D100E000BF00200B490870EB
:103880000FE00A480078012803D008480078022891
:1038900000D105E04FF4D47205A10D48FCF7D6FC29
:1038A00000BF00BFFFF7F6FE002010BD2D00002076
:1038B0002E2E5C467265654D6F646275735C506F49
:1038C00072745C6D6261736369692E63000000004D
:1038D000D04F000870B500253A48007800B905E0DF
:1038E0004FF4A87238A140A0FCF7B0FC454800781E
:1038F000052864D2DFE800F05E030E474F003A244B
:10390000204600F023F902203E49087000203E497D
:10391000087054E03D48008800282DDD3A480078C2
:1039200010B1012827D10DE039490968097808113B
:10393000FFF7CAFD0446204600F008F9012032498D
:10394000087018E032490968097801F00F00FFF7A4
:10395000BBFD0446204600F0F9F82D480068401CE5
:103960002B49086000202849087028480088401E1C
:103970002649088000BF05E00D2000F0E7F803208D
:10398000204908701BE02348007800F0DFF804208D
:103990001C49087013E000201A490870032000F049
:1039A00055F8054600210120FFF746FE0020154985
:1039B000087004E000210120FFF73EFE00BF00BFB9
:1039C000284670BD2D0000202E2E5C467265654D88
:1039D0006F646275735C506F72745C6D6261736367
:1039E00069692E6300000000655263765374617448
:1039F00065203D3D2053544154455F52585F494432
:103A00004C4500002C000020360000203C00002027
:103A1000380000203F00002001460020054A1278AF
:103A200032B1054A12780A700022024B1A70012046
:103A300070470000290000202800002000200249D3
:103A40000870012070470000290000200146012075
:103A5000024A1070024801700120704729000020BE
:103A60002800002010B504460248FEF765FA2070D1
:103A7000012010BD00380140F0B587B005460C4666
:103A800016461F4601210520FDF762FA0121880331
:103A9000FDF75EFA10208DF81B000001ADF818004C
:103AA00003208DF81A0006A92648FCF78AFF182083
:103AB0008DF81B004FF40070ADF8180003208DF84E
:103AC0001A0006A91F48FCF77CFF04208DF81B0094
:103AD0000002ADF8180003208DF81A0006A9194855
:103AE000FCF76FFF1848FEF711F902940020ADF8BB
:103AF0000E00ADF80C00ADF81000ADF814000C206D
:103B0000ADF8120002A91048FEF7AAF901210E48EB
:103B1000FEF7F0F800214FF00060FDF7BFF94FF419
:103B20004070FDF7B1F925208DF8040000208DF8D4
:103B3000050001208DF8070001A8FDF76DF90120AF
:103B400007B0F0BD000801400038014010B5044640
:103B500021460248FEF7F5F9012010BD003801406A
:103B60007FB5044600250121C802FDF7F1F921487F
:103B7000006844F62061B0FBF1F0401E85B21E489B
:103B8000FDF792FDADF80840ADF804500020ADF807
:103B90000A00ADF806008DF80C0001A91648FDF7E3
:103BA00093FE01211448FDF761FD01211248FDF744
:103BB00069FD002201211048FDF77BFE00210E481F
:103BC000FDF766FD00214FF00060FDF767F94FF447
:103BD0004070FDF759F919208DF8000001208DF88B
:103BE00001008DF803006846FDF716F9012004B0C6
:103BF00070BD000000000020002C014038B50024FA
:103C00002148007800B904E0F02220A127A0FCF7A9
:103C10001DFB6846FFF726FF2B48007830B10128CE
:103C20000AD0022819D003282BD102E0FFF748FD63
:103C300027E0FFF745FD24E00020244908809DF897
:103C400000200888411C214B198021490A54022078
:103C50001D490870FFF734FD13E01C480088FF2859
:103C600009DC9DF8002019490888411C174B198070
:103C700017490A5402E0032013490870FFF720FD9A
:103C800000BF00BF204638BDFC0000202E2E5C4641
:103C90007265654D6F646275735C4D6F64627573B8
:103CA0005C6D627274752E630000000065536E6473
:103CB0005374617465203D3D2053544154455F5415
:103CC000585F49444C450000FD00002006010020DB
:103CD0006802002010B500241648007820B10228A0
:103CE00007D003280BD109E00020FFF7AFFE044600
:103CF00018E00120FFF7AAFE044613E012E00D4889
:103D0000007838B10B480078022803D009480078C1
:103D1000032800D105E04FF4B27207A10E48FCF76A
:103D200095FA00BF00BFFFF7B5FC012001490870FC
:103D3000204610BDFD0000202E2E5C467265654DAC
:103D40006F646275735C4D6F646275735C6D6272F3
:103D500074752E63000000001450000810B5002494
:103D60001B480078012800D105E040F22B1219A170
:103D700020A0FCF76BFA2648007810B1012824D166
:103D800004E000210120FFF757FC1EE021480088D5
:103D900078B1214909680878FFF7D8FE1E48006805
:103DA000401C1D4908601B480088401E19490880B6
:103DB0000AE00320FFF74AFE044600210120FFF736
:103DC0003BFC00201249087000BF00BF204610BD18
:103DD000FD0000202E2E5C467265654D6F64627595
:103DE000735C4D6F646275735C6D627274752E6383
:103DF00000000000655263765374617465203D3D98
:103E00002053544154455F52585F49444C4500008B
:103E1000FC0000200401002000010020F0B5034652
:103E20000C461546E208A4EBC20087B20120A84068
:103E3000401E86B2995C501C185C41EA0021394151
:103E40003140C8B2F0BD00002DE9FF5F05460E46C7
:103E50009046DDF80CB0B8F1080F00DC04E0382221
:103E600013A11CA0FCF7F2F9F408A6EBC4001FFA9A
:103E700080FA0BFA0AF01FFA80FB012000FA08F022
:103E8000401E1FFA80F9A6EBC40009FA00F01FFAE1
:103E900080F92F5D601C285C47EA002727EA0900AB
:103EA00040EA0B072F553912601C2954BDE8FF9FCB
:103EB0002E2E5C467265654D6F646275735C467547
:103EC0006E6374696F6E735C6D627574696C732E6A
:103ED0006300000075634E42697473203C3D2038D6
:103EE0000000000021F00042A2F16052B2F5801FF4
:103EF00001F0004328BFD2F17F6C0BD95FEA001CB0
:103F000043EAC20242EB507018BF704728BF20F04E
:103F100001007047B2F5801FBCBF184670474FEADA
:103F2000410C1CF5001F02D2084600F094BE70B58B
:103F300000F054FB00000089FFF7F6BF4FF000408F
:103F4000A0F580007047000010B591EA030F48BF4C
:103F500083F0004300F1D483841A71EB030C05D283
:103F6000121943EB0C03001B61EB0C01DFF824E199
:103F70004FEA1154A4EB135C1EEA430F18BF9EEAEC
:103F8000445F73D023EA0E03DCF1200E21EA0451D2
:103F900043F4801332D322FA0CFE10EB0E0023FA06
:103FA0000CFE41EB0E01CCF1200E03FA0EFE10EBDD
:103FB0000E0051F10001B1F5801FCCF1200E32D27C
:103FC00001EB045112FA0EF2BDE8104058BF7047E1
:103FD000401C38BF5FEA420218BF7047002814BF78
:103FE00020F0010041F100014FEA410313F5001FE9
:103FF00038BF7047A1F1C04100F03EBB012A43EB3E
:104000000302ACF1200CDCF11F0E32BF4FF0000EAA
:1040100023FA0CF310EB030041EB0451B4EB115FF6
:10402000D0D0A1EB045101F5801149085FEA3000BE
:1040300001EB04510ED350F1000038BF12FA0EFE0E
:1040400008D1BDE81040C9E7401C38BF5FEA420212
:10405000CAD1C3E7BDE810404FEA410313F5001F82
:1040600038BF7047A1F1C04100F006BB9EEA445F33
:1040700008D011EA5E0FBDE8104004BF01F0004116
:1040800000207047BDE8104070B500F0A7FA00BFEF
:1040900064FBBE3E0000E0FF491058BFC1F1404143
:1040A0005B1058BFC3F140438B42EFF30080704771
:1040B0002DE9C04130B4DFF8A0C23CEA111418BFAA
:1040C0003CEA131400F0EC8081EA03051CEA1114A9
:1040D00044EAD57418BF1CEA131500F0C780A4EB9E
:1040E00005044FF0004545EAC12145EAC32341EAF2
:1040F000505143EA525304F17F74994204F500345D
:104100004FEAC0204FEAC22208BF904200F09C80D4
:104110004FEA13650FF24016765D4FEA134506FB32
:1041200005F7C7F1807706FB07F74FEAD737A7FBFC
:1041300003687642C8F58038A7FB06CE38BFA8F1E1
:10414000010807FB08E64FF0000EA6FB028CE6FB19
:1041500003CEDCF1000CCEF1004E38BFAEF1010E03
:10416000A6FB0C584FF000074FF00005E6FB0E874A
:10417000A1FB08C6A0FB07CE16EB0E0645F1000515
:10418000E1FB076515F1E04E7EBFA4F580345FEAE0
:1041900046066D4116F1800745F100054FEA1727E5
:1041A0004FEA066647EA0567A6F1DE46B6F1805F8C
:1041B0004FEA15251FD9384624F0010C05EBC471D0
:1041C000BCF1FE6F01EB0C1102D8F0BCBDE8008120
:1041D00024425CBF01F5801E9EEAC47F02D4F0BC7D
:1041E000BDE80081244238D4F0BCA1F1C041BDE853
:1041F000004100F041BA4FEAD22242EA43524FEA6C
:10420000D323A7FB02864FEAD02040EA415007FBA8
:1042100003661EEA0E0F4FEAD12105FB026658BF66
:10422000A6EB0056B6EB00564FEA520E4EEAC37E9E
:1042300018EB0E0E56EB530EBDD518EB02085E417F
:104240007F1C55F10005B6E74FF480154FF00007CD
:104250004FF000064FF00008ADE7F0BC4FF0000053
:1042600001F1C04101F00041BDE8008111EA0C1FDD
:104270000CEA131500D00CE013EA0C1F00F02580A7
:104280004FF00000F0BC81EA030101F00041BDE8FD
:104290000081F0BCBDE8004181EA030100F0ECB907
:1042A000F0BCBDE8004170B500F098F9097EFC3E15
:1042B00000F007B881EA03014FF0000001F000416F
:1042C000704781EA030100F0D7B9F0BCBDE80041B6
:1042D0004FF0000021497047FFFDFBF9F7F5F4F2BC
:1042E000F0EEEDEBE9E8E6E4E3E1E0DEDDDBDAD891
:1042F000D7D5D4D3D1D0CFCDCCCBCAC8C7C6C5C4EF
:10430000C2C1C0BFBEBDBCBBBAB9B8B7B6B5B4B305
:10431000B2B1B0AFAEADACABAAA9A8A8A7A6A5A4F0
:10432000A3A3A2A1A09F9F9E9D9C9C9B9A999998B4
:104330009797969595949393929191908F8F8E8E57
:104340008D8C8C8B8B8A89898888878786858584E4
:1043500084838382828181800000FF070000F87FD0
:104360004FEA1153A3F58063D3F11E03A8BFD3F125
:10437000200C08DB4FF0004242EAC12252EA5052C0
:1043800032FA03F0704709420BD4102BC4BF00204F
:10439000704703F5787CBCF1FF3F05D04FF0FF304C
:1043A00070474FF00000704770B500F017F900BF7C
:1043B0004992248000207047F0E710F0004248BF87
:1043C0004042B0FA80F310FA03F10AD0C3F11D03A2
:1043D00003F580634FEA415002EB035202EBD12117
:1043E00070474FF000007047B0FA80F310FA03F105
:1043F0000AD0C3F11D0303F580634FEA41504FEA31
:10440000035202EBD12170474FF0000070470000CB
:1044100051EA030C17D41CF5801F58BFBCF5801F50
:1044200000F10680994218BF704708BF904270475C
:1044300007D711F5801F58BF13F5801F19D4994273
:104440007047894270471CF5801F08D5BCF5801F56
:10445000F7D58B4218BF704708BF824270474FF4B0
:10446000001C1CEB410F38BF1CEB430F01D28B42E9
:10447000704770B500F0B2F8922449004FF0005137
:104480004FF08053FFF708BEDFF848C170B51CEA53
:10449000111E1EBF1CEA13159EEA0C0F95EA0C0FA5
:1044A00000F06F8081EA030423EA4C134EEAD47EC5
:1044B00021EA4C1141F4801143F48013AE44A1FB76
:1044C000024CA0FB0365AEF17F7E361955EB0C055F
:1044D000A1FB034C4CF10003A0FB021C16EB0C06E5
:1044E000654153F10003094218BF46F0010613F479
:1044F000007F0BD14FEA03314FEA0530340341EA24
:10450000155140EA16506FF003020AE04FEAC3214A
:104510004FEAC520F40241EA555140EA56506FF087
:10452000020202EB2E4201EB025585EACE710AD05F
:104530005FEA440C18BF24F0004450F1000041F140
:10454000000120EAD47040F2FE7C624500D270BDCA
:10455000A84214BF4FF080444FF04044002E08BFE3
:104560000024BEF1806FA8BFA1F1C041BDE870403A
:1045700080F282804FF0000001F1C04101F0004163
:1045800070479EEA0C0F0CEA131518BF95EA0C0F42
:1045900006D04FF0000081EA030E0EF0004170BD1E
:1045A00000F01CF88900013E00F007B800F009B8DF
:1045B0004FEA430C5FEA5C5C08D081EA030100F03B
:1045C0005BB84FEA410C5FEA5C5CF6D14FF000004B
:1045D000014970470000FF070000F87F0EF1020E4E
:1045E0002EF0030E5EF8046B364205D4012A43EB2D
:1045F000030515F5001F12D8012841EB010C1CF52D
:10460000001F0CD80ED14FEAD17C15F5001F0CEB22
:104610004C0C0CF1020C08BF4CEBD37C04E04FF0C7
:10462000080C01E04FEAD37C0CEB4C0526FA05F6AA
:1046300006F00706B6F1040C06D20EEB860CBDE8B8
:1046400070404CF0010C6047DFE80CF0090B0202EF
:104650004FF000414FF00000A1F5002170BD194658
:104660001046012851EB010418BFD4F5001484BF93
:10467000002001F0004170BD0808A0F500114FEACC
:104680003101704753EA010C17D41CF5801F58BF45
:10469000BCF5801F00F106808B4218BF704708BF31
:1046A0008242704707D713F5801F58BF11F5801F4E
:1046B00019D48B4270479B4270471CF5801F08D568
:1046C000BCF5801FF7D5994218BF704708BF9042CC
:1046D00070474FF4001C1CEB430F38BF1CEB410F1D
:1046E00001D2994270470FB40CBC03BCFFF7C1BEA6
:1046F00010B591EA030F48BF83F000433FF52CAC9F
:10470000841A71EB030C07D212198CF0004C43EBA6
:104710000C03001B61EB0C01DFF8A4E14FEA11541C
:10472000A4EB135C1EEA430F18BF9EEA445F00F03F
:10473000B08023EA6E03524221EA0451C3EB6E03B8
:1047400038BF5B1EDCF1200E25D322FA0CFE10EBE5
:104750000E0043FA0CFE41EB0E01CCF1200E03FAE1
:104760000EFE10EB0E0051F10001CCF1200E29D409
:1047700012FA0EF201EB0451BDE8104058BF704729
:10478000401C1CBFB2F1004F704700280CBF491CF1
:1047900020F00100704712EB020E43EB030218BF3A
:1047A0004FF0010E4EEA4202ACF1200CDCF11E0E7D
:1047B00054D943FA0CFE10EB0E0051F1FF31CCF14D
:1047C0001E0ED5D50EF1010E12FA0EFE404141EB40
:1047D000010101EB445C5FEA5C5C10D910EBDE7018
:1047E00001EB045138BFBEF1004FBDE8104018BFC7
:1047F000704700280CBF491C20F00100704730D2E0
:104800004FEAD42C11F5001124F400641BD0B1FA46
:1048100081F20B3AA41AA41ED2F12003914030FA7F
:1048200003F31943904001EBCC71002C01EB0451D0
:10483000BDE81040A8BF704701F1C0414FF0000033
:1048400001F000417047B0FA80F310FA03F100D193
:1048500010BDE41A173C4805C90AE4E701EB04510E
:1048600010BD491001EB0451BDE810404FEA300083
:1048700002E04FF0000170474A0008BF0042F8D044
:10488000B2F5001F28BF704701F000414FF0000053
:1048900070479EEA445F07D011EA5E0FBDE8104002
:1048A00004BF002100207047BDE8104070B5FFF73D
:1048B00095FE00BF40DFF63E83F000411046704792
:1048C0000000E0FF43004FEAD30C4FEA3C0C4340AA
:1048D0001FBF40070CF1605113F0FE4F70471CF0F2
:1048E000006F03D100200CF0004170470CF0004332
:1048F00043EA507010B540EACC0000F066F900BF02
:10490000000000924FEA0001FFF7B6BE4FF00041F1
:104910004FF00000A1F500217047000090EA010F60
:1049200048BF81F0004100F1DE81421A3CBF801A8D
:1049300089184FEAD0524FF07F4C1CEA410FA2EB8E
:10494000D15318BF9CEA026F00F03B804FF0004C3F
:104950004CEA00204CEA012121FA03FC10EB0C0C7C
:104960001ED202F1FF325FEA1C2040EBC25038BF7A
:1049700070471CF07F0F4FEA400C18BFBCF17F4F0F
:1049800038BF7047C3F12003994008BF20F00100F1
:10499000BCF17F4F38BF7047A0F1C04000F05BB959
:1049A0004FEA3C00000A40EBC25028BF1CF0FF0F4A
:1049B0004FEA400CE6D018BFBCF17F4F38BF7047BC
:1049C000EAE79CEA026F05D010EA5C0F08BF00F02E
:1049D0000040704710B500F0F8F800BF64FBBE3E21
:1049E000401058BFC0F14040491058BFC1F140418C
:1049F0008142EFF300807047C10DD1F19E0206DBCA
:104A00004FEA002343F0004323FA02F070470042CC
:104A100007D54FEA4001B1F1FE4F02D24FF000003E
:104A2000704710B500F0D1F84992248000207047FB
:104A30006FEA200070470000B0FA80F310FA03F22A
:104A4000C3F19D030AD0D90501EB1220530638BFEC
:104A5000704700F1010008BF20F00100704700001E
:104A600050EA010C00F113801CF5000F58BFBCF593
:104A7000000F01D48842704707D710F5000F58BFC8
:104A800011F5000F15D488427047894270471CF514
:104A9000000F04D5BCF5000FF7D5814270474FF0E9
:104AA000807C1CEB400F38BF1CEB410F01D28142D0
:104AB000704710B500F089F8922449004FF000507B
:104AC0004FF08051FFF78CBF4FF47F0C1CEAD012DF
:104AD0001EBF1CEAD11392EA0C0F93EA0C0F00F0F0
:104AE000478090EA010F48BF42F480724FF0004CBB
:104AF0004CEA00204CEA012102EB0302A0FB011367
:104B0000A2F50002002918BF43F001035B0028BF93
:104B10004FEA330342EB22425FEA132C4CEBC250C4
:104B20002EBFBCEB436FB2F57C0F70474FEA036CAE
:104B3000BCF1004F08BF20F00100B2F57C0F38BF78
:104B400070470BD582F0FF0212F5803FC8BF704757
:104B500000F1C040D8BF00F00040704700F5000CE5
:104B60005FEA4C0C48BF7047B0F1C04000F073B82A
:104B700090EA010F0CEAD11348BF42F480726245FB
:104B800038BF634504D280EA010000F0004070475E
:104B900010B500F01AF800BF8900013E00F007B818
:104BA00000F009B85FEA410C5FEA1C6C08D080EAAB
:104BB000010000F050B85FEA400C5FEA1C6CF6D1CF
:104BC0004FF00040A0F5800070470EF1020E2EF06D
:104BD000030E5EF8044B244204D44FEA4102B2F1C2
:104BE0007F4F11D84FEA4003B3F17F4F0CD80ED15D
:104BF0004FEAD07CB2F17F4F0CEB4C0C0CF1020C65
:104C000008BF4CEBD17C04E04FF0080C01E04FEA08
:104C1000D17C0CEB4C0324FA03F404F00704B4F148
:104C2000040C06D20EEB840CBDE810404CF0010CD5
:104C30006047DFE80CF0070802024FF00040A0F5E3
:104C4000800010BD0846420018BFD2F1807288BFB4
:104C500000F0004010BDFF2141EAD050C005704770
:104C600051EA000C00F113801CF5000F58BFBCF591
:104C7000000F01D48142704707D711F5000F58BFCC
:104C800010F5000F15D481427047894270471CF51A
:104C9000000F04D5BCF5000FF7D5884270474FF0E0
:104CA000807C1CEB410F38BF1CEB400F01D28842C7
:104CB000704780EA010081EA000180EA0100FFF705
:104CC000F8BE80F0004090EA010F7FF52EAE81F033
:104CD000004100F008B8000090EA010F48BF81F0E1
:104CE00000413FF522AE421A04D882F00042A0EB08
:104CF000020011444FEAD0524FF07F4C1CEA410FA2
:104D0000A2EBD15318BF9CEA026F4AD04FF0004C7F
:104D10004CEA00204CEA012121FA03FCB0EB0C0C18
:104D20000FD412F0FE0F36D05FEA4C001DD50012F2
:104D300040EBC25038BF70471CF03F0F18BF7047A0
:104D40000BE0A2F101025FEA1C2040EBC25038BF29
:104D500070471CF07F0F18BF7047C3F120039940C4
:104D600014BF401E20F00100704780084FEA122354
:104D700008BF7047B0FA80FCA2EB0C02CCF1280C03
:104D800060FA0CF093EA122F04BF00EBC250704798
:104D90004FEAC3707047130A5FEADC1008BF704720
:104DA000F6E79CEA026F04D010EA5C0F08BF00200F
:104DB000704710B5FFF709FF40DFF63E81F0004075
:104DC000704701020300000000000000000000C165
:104DD000814001C0804101C0804100C1814001C0CB
:104DE000804100C1814000C1814001C0804101C0BB
:104DF000804100C1814000C1814001C0804100C1AB
:104E0000814001C0804101C0804100C1814001C09A
:104E1000804100C1814000C1814001C0804100C18A
:104E2000814001C0804101C0804100C1814000C17A
:104E3000814001C0804101C0804100C1814001C06A
:104E4000804100C1814000C1814001C0804101C05A
:104E5000804100C1814000C1814001C0804100C14A
:104E6000814001C0804101C0804100C1814000C13A
:104E7000814001C0804101C0804100C1814001C02A
:104E8000804100C1814000C1814001C0804100C11A
:104E9000814001C0804101C0804100C1814001C00A
:104EA000804100C1814000C1814001C0804101C0FA
:104EB000804100C1814000C1814001C0804100C1EA
:104EC000814001C0804101C0804100C1814000C0DB
:104ED000C101C30302C2C60607C705C5C404CC0C82
:104EE0000DCD0FCFCE0E0ACACB0BC90908C8D818F2
:104EF00019D91BDBDA1A1EDEDF1FDD1D1CDC14D402
:104F0000D515D71716D6D21213D311D1D010F03031
:104F100031F133F3F23236F6F737F53534F43CFC41
:104F2000FD3DFF3F3EFEFA3A3BFB39F9F83828E8F1
:104F3000E929EB2B2AEAEE2E2FEF2DEDEC2CE424C1
:104F400025E527E7E62622E2E323E12120E0A06031
:104F500061A163A3A26266A6A767A56564A46CAC01
:104F6000AD6DAF6F6EAEAA6A6BAB69A9A86878B871
:104F7000B979BB7B7ABABE7E7FBF7DBDBC7CB47481
:104F800075B577B7B67672B2B373B17170B0509031
:104F900091519353529296565797559594549C5CC1
:104FA0005D9D5F9F9E5E5A9A9B5B99595898884871
:104FB00049894B8B8A4A4E8E8F4F8D4D4C8C448441
:104FC0008545874746868242438341818040000071
:104FD0002820655263765374617465203D3D2053EB
:104FE000544154455F52585F5243562029207C7CDF
:104FF000202820655263765374617465203D3D20FE
:1050000053544154455F52585F574149545F454F8F
:105010004620290028206552637653746174652008
:105020003D3D2053544154455F52585F494E4954C9
:105030002029207C7C20282065526376537461747B
:1050400065203D3D2053544154455F52585F5243C3
:10505000562029207C7C2028206552637653746179
:105060007465203D3D2053544154455F52585F457F
:1050700052524F5220290000985000080000002092
:10508000F00100006C0100083C510008F001002014
:10509000600A0000C80100081184A24A04680901DE
:1050A000020304060708090C6910850204060813A8
:1050B00068020212200229022A115C12282A0875AD
:1050C000139F263308031A13083210136B29330871
:1050D000061A99203217132B2733080113B92433EA
:1050E00008051A2918320F1ADB0829721367257967
:1050F00098014C2B5566760110DF66555566020106
:1051000001212A10180A1503180A13041801123273
:10511000FA2A58D3912009CDCC4C3D0AD7A33CCBD9
:10512000704128499C120112021203120412051246
:0C5130000602130719269B0201527203AD
:0400000508000131BD
:00000001FF
