:020000040800F2
:10000000D84100200D020008DD130008790B00081C
:10001000350C0008A3050008532C00080000000060
:10002000000000000000000000000000E91D0008C2
:100030005D080008000000006D160008A9200008F7
:1000400027020008270200082702000827020008EC
:1000500027020008270200082702000827020008DC
:1000600027020008270200082702000827020008CC
:1000700027020008270200082702000827020008BC
:1000800027020008270200082702000827020008AC
:10009000270200082702000827020008270200089C
:1000A000270200080D210008270200082702000887
:1000B000452100082702000827020008270200083F
:1000C000270200082702000827020008270200086C
:1000D00027020008B127000821280008270200088D
:1000E000270200082702000827020008270200084C
:1000F000270200082702000827020008270200083C
:10010000270200082702000827020008270200082B
:10011000270200082702000827020008270200081B
:10012000270200082702000827020008270200080B
:1001300000F002F800F05AF80AA090E8000C82449F
:100140008344AAF10107DA4501D100F04FF8AFF27C
:10015000090EBAE80F0013F0010F18BFFB1A43F0A5
:1001600001031847643F0000843F00000A444FF039
:10017000000C10F8013B13F0070408BF10F8014B06
:100180001D1108BF10F8015B641E05D010F8016B4B
:10019000641E01F8016BF9D113F0080F1EBF10F8AF
:1001A000014BAD1C0C1B09D16D1E58BF01F801CBD2
:1001B000FAD505E014F8016B01F8016B6D1EF9D555
:1001C0009142D6D37047000000230024002500266A
:1001D000103A28BF78C1FBD8520728BF30C148BFAA
:1001E0000B6070471FB51FBD10B510BD00F031F892
:1001F0001146FFF7F7FF02F0EBFE00F04FF803B4F3
:10020000FFF7F2FF03BC00F057F8000009488047F1
:1002100009480047FEE7FEE7FEE7FEE7FEE7FEE7E8
:10022000FEE7FEE7FEE7FEE704480549054A064B00
:1002300070470000AD20000831010008D83B0020C5
:10024000D8410020D83D0020D83D0020704770479D
:100250007047754600F02CF8AE46050069465346D7
:1002600020F00700854618B020B5FFF7DDFFBDE898
:1002700020404FF000064FF000074FF000084FF00D
:10028000000B21F00701AC46ACE8C009ACE8C0099E
:10029000ACE8C009ACE8C0098D46704710B504460B
:1002A000AFF300802046BDE81040FFF7A8BF000074
:1002B00000487047783B002001491820ABBEFEE79C
:1002C000260002007047000008B50121084601F031
:1002D000DBF901214FF4017001F006FA7E20ADF840
:1002E000000000208DF803006946024800F0F0FA93
:1002F00008BD00000008014000B591B0444800F07E
:10030000E9F94448069044480790002008903C20B2
:10031000099000200A9080200B9040000C908000F3
:100320000D9020200E9000020F900020109006A942
:10033000374800F075FA0121354800F0BFF9002078
:10034000019001208DF808008DF809004FF460201D
:1003500003900020049006208DF8140001A92D4878
:100360004C3800F085F84FF4404001F081F9072344
:100370000122114627484C3800F0A2F80723022238
:10038000114624484C3800F09BF8072303221146FD
:1003900020484C3800F094F80723042211461D48E9
:1003A0004C3800F08DF807230522114619484C38C7
:1003B00000F086F807230622114616484C3800F054
:1003C0007FF8012113484C3800F033F8012111481F
:1003D0004C3800F023F80F484C3800F0CDF800BF3F
:1003E0000C484C3800F03AF80028F9D109484C384C
:1003F00000F0D2F800BF07484C3800F025F800287C
:10040000F9D1012103484C3800F0BBF811B000BD10
:10041000080002404C2401405C02002021B18268A7
:1004200042F00102826003E0826822F001028260F1
:10043000704721B1826842F48072826003E0826872
:1004400022F4807282607047014600208A6802F0C0
:1004500004020AB1012000E000207047014600209C
:100460008A6802F008020AB1012000E0002070470B
:1004700030B502460020002350680F4C20400D7913
:100480000C6844EA05242043506090680B4C2040DF
:10049000D1E902542C434D7944EA4504204390604D
:1004A000D06A20F470000C7C641EE4B2234340EA5E
:1004B0000350D06230BD0000FFFEF0FFFDF7F1FFFA
:1004C000F0B504460D4600200021092D11DDE0683D
:1004D000A5F10A0606EB4607072606FA07F1884348
:1004E000A5F10A0606EB460603FA06F10843E060AA
:1004F0000CE0206905EB4507072606FA07F188435B
:1005000005EB450603FA06F108432061072A0FDAD6
:10051000606B561E06EB86071F2606FA07F1884316
:10052000561E06EB860605FA06F10843606322E0D4
:100530000D2A0FDA206BD61F06EB86071F2606FA58
:1005400007F18843D61F06EB860605FA06F1084335
:10055000206310E0E06AA2F10D0606EB86071F2675
:1005600006FA07F18843A2F10D0606EB860605FAA6
:1005700006F10843E062F0BD816841F00801816046
:10058000704721B1826842F4A002826003E0826871
:1005900022F4A00282607047816841F0040181600A
:1005A000704700BFFEE7000070B502460C46FF250D
:1005B000FF2309E012F8010B80EA05010648405CC0
:1005C00080EA03050548435C201EA4F10106B4B28D
:1005D000F0D143EA052070BD4C010020C63F000861
:1005E00070B5014600234D7D002203E0D01C085C5D
:1005F0000344521C122AF9DB642093FBF0F600FB43
:100600001630C4B2AC4201D1012070BD0020FCE71D
:1006100008B50121202001F067F80F20ADF8000097
:1006200010208DF8030001208DF80200694604486F
:1006300000F04EF90821024800F01EFA08BD000043
:100640000014014070B504460025012211461748E8
:1006500000F016FA00F02CF800220121134800F0F7
:100660000FFA00BF1EE004F40040B0F5004F05D1C2
:10067000012204210D4800F003FA04E000220421C5
:100680000A4800F0FDF901220221084800F0F8F9BB
:1006900000F00EF800220221044800F0F1F9640095
:1006A000681CC5B2102DDEDB70BD000000140140D7
:1006B0000A2000BF411E081EFCD1704721B102680C
:1006C00042F00102026004E002684FF6FE731A4035
:1006D0000260704701684FF6FE7211400160002110
:1006E000016041608160C1604B49884208D14A493C
:1006F0000839496841F00F01474A083A51608AE0D9
:1007000045491431884208D143490839496841F0C4
:10071000F001414A083A51607DE03F492831884262
:1007200008D13D490839496841F470613A4A083AAC
:10073000516070E038493C31884208D13649083967
:10074000496841F47041344A083A516063E03249E3
:100750005031884208D130490839496841F4702144
:100760002D4A083A516056E02B496431884208D13D
:1007700029490839496841F47001274A083A51600B
:1007800049E025497831884208D123490839496828
:1007900041F07061204A083A51603CE01F498842AC
:1007A00006D1011F096841F00F01021F116032E0FC
:1007B0001A491431884208D11849091F096841F0C3
:1007C000F001164A121F116025E0144928318842B1
:1007D00008D11249091F096841F470610F4A121FBC
:1007E000116018E00D493C31884208D10B49091FBE
:1007F000096841F47041094A121F11600BE0074972
:100800005031884207D10549091F096841F4702118
:10081000024A121F1160704708000240080402409B
:1008200010B50022026847F6F0739A430C6A8B6891
:1008300023430C6923434C6923438C692343CC69CC
:1008400023434C6A23438C6A23431A430260CB68D8
:1008500043600B6883604B68C36010BD7047000045
:1008600008B50121802000F03FFF4FF47060ADF823
:10087000000004208DF8030001208DF80200694675
:10088000014800F025F808BD0018014010B500F03F
:1008900003F8FFF7E5FF10BD08B50121102000F0B7
:1008A00023FF4FF47061094800F0E6F84FF47060E0
:1008B000ADF8000010208DF8030001208DF8020033
:1008C0006946024800F004F808BD0000001001402D
:1008D0002DE9F041024600250026002000230024D7
:1008E000002791F803C00CF00F0591F803C00CF03D
:1008F000100CBCF1000F03D091F802C04CEA0505C2
:1009000091F800C0BCF1000F31D0146800202BE03A
:100910004FF0010C0CFA00F3B1F800C00CEA03062A
:100920009E4220D183004FF00F0C0CFA03F7BC431A
:1009300005FA03FC4CEA040491F803C0BCF1280F4B
:1009400006D14FF0010C0CFA00FCC2F814C00AE00A
:1009500091F803C0BCF1480F05D14FF0010C0CFA1F
:1009600000FCC2F810C0401C0828D1D31460B1F8B4
:1009700000C0BCF1FF0F34DD546800202EE000F110
:10098000080C4FF0010808FA0CF3B1F800C00CEAAB
:1009900003069E4221D183004FF00F0C0CFA03F79F
:1009A000BC4305FA03FC4CEA040491F803C0BCF113
:1009B000280F05D100F1080C08FA0CF8C2F81480D1
:1009C00091F803C0BCF1480F07D100F1080C4FF0BB
:1009D000010808FA0CF8C2F81080401C0828CED391
:1009E0005460BDE8F0810000F0B50A460023002401
:1009F0000021002500F00046B6F1004F02D11D4E47
:100A0000F16901E01B4E7168C0F3034583B200F445
:100A10004016B6F5401F08D121F07061154E76687A
:100A200026F07066134F7E6012E000F48016B6F573
:100A3000801F06D1032606FA05F4A14341F0706138
:100A400006E0460D360103FA06F6B14341F0706147
:100A500022B1460D360103FA06F6314300F0004696
:100A6000B6F1004F02D1034EF16101E0014E716019
:100A7000F0BD000000000140416170470161704716
:100A80000AB1016100E04161704700002DE9F041C9
:100A90003148007801285DD1304909792F4AD27850
:100AA00002EBC20303EB021201EB820003F0FEF83B
:100AB0002B49086029498979284A527902EBC203F7
:100AC00003EB021201EB820003F0F0F82549086005
:100AD0002249097A214AD27902EBC20303EB0212BE
:100AE00001EB820002F087FD064600221E4B02F059
:100AF000FDFB044602F014FB1C4908601749897A83
:100B0000164A527A02EBC20303EB021201EB820097
:100B100002F071FD06460022134B02F0E7FB04468B
:100B200002F0FEFA124908600C49097B0B4AD27A9E
:100B300002EBC20303EB021201EB820002F05BFD49
:100B400006460022084B02F0D1FB044602F0E8FA08
:100B500008490860BDE8F081DC000020D8170020BB
:100B6000B4000020B800002000002440BC00002099
:100B7000C0000020C400002000BFFEE710B545F211
:100B8000555000F029F8062000F01AF840F21A60DB
:100B900000F01CF800F00CF800F002F810BD0000A6
:100BA0004CF6CC400149086070470000003000401E
:100BB0004AF6AA2001490860704700000030004052
:100BC00001494860704700000030004001498860DA
:100BD0007047000000300040014908607047000085
:100BE0000030004008B50121082000F07DFD4FF4E1
:100BF0000070ADF8000003208DF8020010208DF881
:100C0000030069460948FFF763FE0121402000F018
:100C10006BFD0320ADF800008DF8020010208DF868
:100C2000030069460248FFF753FE08BD000C01406F
:100C30000018014000BFFEE770B55C4840795B4991
:100C4000097940EA01205A4908805A4800880988F1
:100C5000084464287EDA554800785749087053489C
:100C60004078487052490888C11700EB5171CD1087
:100C70004F490888C11700EB5171C910A0EBC101A1
:100C800009B1681C85B24C498D70002461E0E11700
:100C900004EB5171C910A4EBC10141B900222046F7
:100CA000E11704EB5171C910C91C434B5A54E117A9
:100CB00004EB5171C910C91C3F4A515C4A102046CF
:100CC000E11704EB5171C910C91C3B4B5A54E11791
:100CD00004EB5171C910C91C1A46515C354A12887F
:100CE0002244364B53F822201268802303EAC212B2
:100CF0001143E21704EB5272D210D21C2E4B9954BE
:100D00002B480088401EA04221D129490888C117DC
:100D100000EB5171C910A0EBC101C1B1E21704EBA6
:100D20005272D210D21C9A5C214B1988CB1701EB5E
:100D30005373DB10A1EBC303C3F108031A41204630
:100D4000E31704EB5373DB10DB1C1B4EF254601CE7
:100D500084B200E01AE016480088844297DBE81C61
:100D600081B21548FFF720FC154908800846008825
:100D7000010A114AE81C115411480178281D115428
:100D8000681DC1B2104600F037FE0EE0074800783B
:100D9000094908700548407840F0800048700220FA
:100DA00088700321044800F027FE70BDB8180020A9
:100DB0004801002046010020B8200020482A0020D9
:100DC0004A01002070B55C4840795B49097940EAE6
:100DD00001205A4908805A48008809880844642834
:100DE0007EDA554800785749087053484078487073
:100DF00052490888C11700EB5171CD104F4908883E
:100E0000C11700EB5171C910A0EBC10109B1681CF9
:100E100085B24C498D70002461E0E11704EB5171FB
:100E2000C910A4EBC10141B900222046E11704EB2F
:100E30005171C910C91C434B5A54E11704EB51714D
:100E4000C910C91C3F4A515C4A102046E11704EB07
:100E50005171C910C91C3B4B5A54E11704EB517135
:100E6000C910C91C1A46515C354A12882244364BB7
:100E700053F822201268802303EAC2121143E217BA
:100E800004EB5272D210D21C2E4B99542B4800887E
:100E9000401EA04221D129490888C11700EB517199
:100EA000C910A0EBC101C1B1E21704EB5272D2101C
:100EB000D21C9A5C214B1988CB1701EB5373DB10C2
:100EC000A1EBC303C3F108031A412046E31704EB67
:100ED0005373DB10DB1C1B4EF254601C84B200E029
:100EE0001AE016480088844297DBE81C81B2154856
:100EF000FFF75AFB1549088008460088010A114A85
:100F0000E81C115411480178281D1154681DC1B204
:100F1000104600F071FD0EE007480078094908709E
:100F20000548407840F08000487002208870032116
:100F3000044800F061FD70BDB81800204801002091
:100F400046010020B8200020B82800204A010020D7
:100F500010B5394840793849097940EA01203749C4
:100F600008803748008809880844B0F57A7F53DA4A
:100F700031480078334908702F48407848702F482E
:100F800000784006000E8870002419E02C48008884
:100F900020442D4951F820000088000A032101EB6C
:100FA0004401284A5054264800882044264951F8D4
:100FB00020000078042101EB44015054601CC4B2AD
:100FC0001E4800888442E1DB1C480088032202EBB3
:100FD000400081B21B48FFF7E7FA1C490880084629
:100FE0000088010A15480088032202EB4000154AD8
:100FF00011541648017811480088042202EB400081
:10100000104A11540D480078052202EB4000C1B28D
:101010000C4800F0F1FC0EE0074800780949087020
:101020000548407840F08000487002208870032115
:10103000044800F0E1FC10BDB81800204801002071
:1010400046010020B8200020D82B00204A010020B3
:1010500010B52848008864283CDA27480079FF2822
:1010600003D025484079FF2807D101202349214A90
:10107000128851F82210086006E000201F491D4A1E
:10108000128851F8221008601B4800781C4908702B
:101090001948407848701848807888701648C07899
:1010A000C8701548007908711348407948710621C5
:1010B0001348FFF779FA1349088008460088000AA8
:1010C0000F4988710F480078C87108210C4800F05A
:1010D00093FC0EE0084800780949087006484078FB
:1010E00040F080004870022088700321044800F01E
:1010F00083FC10BD46010020B8180020482A0020BB
:10110000B82000204A01002010B51F4800790002D5
:101110001E491F4A128851F8221008801B481C499A
:10112000098850F821000088174949790843174970
:10113000174A128851F82210088013480078154980
:1011400008701148407848700F48807888700E48C1
:10115000C078C8700C48007908710B484079487114
:1011600006210C48FFF720FA0B4908800846008842
:10117000000A0849887108480078C87108210548A4
:1011800000F03AFC10BD0000B8180020D82B002059
:1011900046010020B82000204A01002010B53B483D
:1011A00040793A49097940EA0120394908803948AB
:1011B000008809880844642858DA00242CE0E117E4
:1011C00004EB5171C910C91D304A515C01F0010195
:1011D00041B101202F49098821442F4A52F821109A
:1011E000086007E000202B49098821442A4A52F868
:1011F00021100860E11704EB5171C910C91D234A81
:10120000515C4A102046E11704EB5171C910C91D09
:101210001E4B5A54601C84B21D4800888442CEDBA9
:101220001A4800781D4908701848407848701748D7
:10123000807888701548C078C870144800790871A3
:1012400012484079487106211448FFF7ADF9144956
:10125000088008460088000A104988711048007804
:10126000C87108210D4800F0C7FB0EE00748007860
:101270000A4908700548407840F080004870022014
:1012800088700321054800F0B7FB10BDB818002096
:101290004801002046010020482A0020B8200020F4
:1012A0004A01002010B5374840793649097940EAAB
:1012B0000120354908803548008809880844B0F580
:1012C0007A7F4EDA002422E0072000EB44002D490B
:1012D000085C00022D49098821442D4A52F821104A
:1012E00008802A4800882044114651F820000088D0
:1012F000082101EB4401234A515C08432349098832
:101300002144234A52F821100880601CC4B21E48B0
:1013100000888442D8DB1B4800781E4908701948B1
:10132000407848701748807888701648C078C87030
:10133000144800790871134840794871062115480E
:10134000FFF732F91449088008460088000A11495D
:10135000887111480078C87108210E4800F04CFBD4
:101360000EE0084800780B4908700648407840F0C5
:1013700080004870022088700321064800F03CFB82
:1013800010BD0000B81800204801002046010020D0
:10139000D82B0020B82000204A0100200848094925
:1013A0000860001F4860001F88600748C860074841
:1013B00007490860001D48600648074908607047F3
:1013C00010012342B828002000012142A4812342B9
:1013D000482A002044010020D82B0020704708B57F
:1013E00000214FF0006000F077F84FF4407000F0FB
:1013F00069F825208DF8000000208DF801000120FB
:101400008DF80300684600F025F819208DF80000DB
:1014100001208DF801008DF80300684600F01AF8ED
:1014200026208DF8000002208DF8010001208DF8A3
:101430000300684600F00EF81C208DF80000032021
:101440008DF8010001208DF80300684600F002F8D5
:1014500008BD000070B5002100230F22C47804B33A
:10146000154C246804F4E064C4F5E064210AC1F179
:101470000403CA40447804FA03F1847814402143F9
:1014800009010E4C0678A155047804F01F050124CB
:10149000AC4005786D11AD0005F1E025C5F80041BF
:1014A00009E0047804F01F050124AC40044D0678DF
:1014B000761145F8264070BD0CED00E000E400E038
:1014C00080E100E002490143024A116070470000D8
:1014D0000000FA050CED00E0024A0A400243024B0C
:1014E0001A60704780FFFF1F08ED00E010B588B05C
:1014F0000446214804800121022000F0D5F8012192
:10150000112000F0F1F801211C48FFF76DFA40208E
:10151000ADF81C0018208DF81F0003208DF81E0068
:1015200007A91748FFF7D4F9601E80B2ADF8140080
:1015300041F61F40ADF810000020ADF81600ADF8E0
:10154000120004A90F4800F09FFF6020ADF80000D2
:101550000120ADF802000020ADF8080069460948F6
:1015600000F038FF0821074800F080FF01210548FE
:1015700000F016FE08B010BD2E000020000C1A006E
:10158000001001400004004010B5044605480088E2
:10159000844201DD034804882146034800F06FFFC0
:1015A00010BD00002E0000200004004010B588B0DF
:1015B0000446224804800121042000F075F801212E
:1015C000212000F091F801210803FFF70DFA4FF4F4
:1015D0008050ADF81C0018208DF81F0003208DF8F6
:1015E0001E0007A91648FFF773F9601E80B2ADF818
:1015F000140041F61F40ADF810000020ADF81600B1
:10160000ADF8120004A90F4800F03EFF6020ADF8CD
:1016100000000120ADF802000020ADF80800694686
:10162000084800F0D7FE0821064800F01FFF0121FE
:10163000044800F0B5FD08B010BD00002E000020E9
:10164000001401400008004010B504460548008819
:10165000844201DD034804882146034800F00FFF5F
:1016600010BD00002E000020000800407047000060
:1016700001460020034A506820F44040084350606F
:10168000704700000010024029B1064A5269024327
:10169000044B5A6104E0034A52698243014B5A6188
:1016A000704700000010024029B1064AD269024387
:1016B000044BDA6104E0034AD2698243014BDA61E8
:1016C000704700000010024029B1064A1269024327
:1016D000044B1A6104E0034A12698243014B1A6108
:1016E000704700000010024029B1064A9269024387
:1016F000044B9A6104E0034A92698243014B9A6168
:10170000704700000010024029B1064AD268024327
:10171000044BDA6004E0034AD2688243014BDA608A
:10172000704700000010024010B500F029F84FF497
:10173000803000F0E7F800F043F90446012C1ED198
:10174000002000F0D3F8002000F00EF9A00200F015
:10175000FFF84FF4E011200400F018F9012000F028
:101760000FF900BF392000F09BF80028FAD00220C2
:1017700000F01AF900BF00F0B1F80828FBD110BD45
:101780000F48006840F001000D49086008464068B5
:101790000C4908400A494860084600680A49084060
:1017A000074908600846006820F480200860084661
:1017B000406820F4FE0048604FF41F0088607047C6
:1017C000001002400000FFF8FFFFF6FE30B50021D8
:1017D0000022002400232D4D6D6805F00C0121B17D
:1017E000042905D0082923D105E0294D056022E010
:1017F000274D05601FE0254D6D6805F47012234DDF
:101800006D6805F48034022505EB92421CB9214D28
:10181000554305600BE01D4D6D6805F400351DB1A5
:101820001C4D5543056002E0194D5543056002E02B
:10183000174D056000BF00BF144D6D6805F0F00145
:101840000909154D6B5C0568DD4045600F4D6D68FD
:1018500005F4E061090A104D6B5C4568DD40856068
:101860000A4D6D6805F46051C90A0B4D6B5C456803
:10187000DD40C560054D6D6805F44041890B074D9D
:101880006B5CC568B5FBF3F5056130BD0010024027
:1018900000127A0000093D001400002024000020FE
:1018A00010B501460022002300204A11012A02D16E
:1018B000094C236806E0022A02D1074C236A01E0A2
:1018C000054C636A01F01F02012494401C400CB1D6
:1018D000012000E0002010BD0010024002484068D6
:1018E00000F00C007047000000100240014600208C
:1018F000034A506820F0F000084350607047000031
:10190000001002401149096821F480310F4A11602A
:101910001146096821F480211160B0F5803F03D0A1
:10192000B0F5802F0ED106E00849096841F48031F6
:10193000064A116007E00549096841F4A021034AFD
:10194000116000E000BF00BF7047000000100240BF
:1019500001460020034A506820F4E06008435060CC
:10196000704700000010024001460020034A506802
:1019700020F4605040EAC1005060704700100240FF
:1019800001490866704700000000424202460020FC
:10199000044B586820F47C1042EA01031843014BC1
:1019A000586070470010024001460020034A50680A
:1019B00020F0030008435060704700000010024010
:1019C00038B5002000900024002500BF3120FFF72B
:1019D00067FF05460098401C00900098B0F5A06F86
:1019E00001D0002DF2D03120FFF75AFF08B10124B9
:1019F00000E00024204638BD70B505460E460020A4
:101A00000D49086000240CE000BF80210B4801F064
:101A10004FF80028F9D0295D084801F016F9601C3C
:101A2000C4B2B442F0DB00BF4021044801F040F8EA
:101A30000028F9D070BD0000AC01214200380140FF
:101A400010B55648007801287ED155480078012805
:101A500069D153484078012817D05148407802286E
:101A600013D04F48407803280FD04D4840780528C0
:101A70000BD04B484078062807D0494840780F28BB
:101A800003D047484078102870D14548C078444971
:101A9000897840EA01204349088008460088B0F56B
:101AA0007A7F52DA40480088801E81B23C48FEF7B7
:101AB0007BFD3E4908803C480088401E3849095C4F
:101AC00039480088801E364A105C41EA00243748B5
:101AD0000088A04228D110464078052814D006DCA2
:101AE00001280BD002280CD003281CD112E00628B4
:101AF00013D00F280BD0102815D111E0FFF79CF858
:101B000011E0FFF75FF90EE0FFF7A2FA0BE0FFF735
:101B100045FB08E0FFF71CFA05E0FFF7F5FA02E0E5
:101B2000FFF7C0FB00BF30E01D4800782049087077
:101B30001B48407840F080004870042088700321E2
:101B40001B48FFF759FF20E027E0154800781849A7
:101B500008701348407840F0800048700220887078
:101B600003211348FFF748FF0FE0FFE70C48007818
:101B70000F4908700A48407840F080004870012002
:101B8000887003210A48FFF737FF002003490870D7
:101B90000549088001200749086010BD4001002068
:101BA000B8180020460100203E0100204A01002014
:101BB000B8200020AC0121422DE9F0478AB08146CF
:101BC0008A4600203249086000240EE004EB4400FD
:101BD000304901EB8001A9F1010031F810002C49D6
:101BE000096808442A490860641C0A2CEEDBBAF133
:101BF000010F2DD12648006801F014FD0746002290
:101C0000254B01F05FFD05460022244B01F06EFBE1
:101C10000022234BCDE9000101F068FB4FF0553263
:101C2000204BCDE9020101F04DFD00221E4BCDE914
:101C3000040101F047FD1D4A1D4BCDE9060101F0ED
:101C400055FBCDE9080101F06BFA0AB0BDE8F08759
:101C50000F48006801F0E6FC054600220E4B01F03B
:101C600031FD00220D4BCDE9040101F03FFB0022C4
:101C70000B4BCDE9060101F039FB4FF05532094B12
:101C8000CDE9080101F01EFD074601F049FADCE745
:101C9000280000205C0200200000044000002440D6
:101CA0000000B0405555114000408F40D7A3703D13
:101CB0000A9F684021B1028842F04002028004E09D
:101CC00002884FF6BF731A400280704710B500F0CB
:101CD0001FF810BD10B50022028802F441520B8893
:101CE0004C8823438C882343CC8823430C8923438B
:101CF0004C8923438C892343CC8923431A43028094
:101D0000838B4FF2FF74234083830B8A038210BDC1
:101D100000B587B001218803FFF7C6FC0121084602
:101D2000FFF7E2FC01211020FFF7DEFC46F2200065
:101D3000ADF8040003208DF8060018208DF8070088
:101D400001A92648FEF7C4FD1020ADF804000320C9
:101D50008DF8060010208DF8070001A92048FEF735
:101D6000B7FD10211E48FEF789FE4FF48050ADF8F4
:101D7000040003208DF8060010208DF8070001A94B
:101D80001648FEF7A5FD10211448FEF777FE002047
:101D9000ADF808004FF48270ADF80A000020ADF8ED
:101DA0000C000220ADF80E000120ADF8100040023A
:101DB000ADF812001020ADF814000020ADF81600A8
:101DC0000720ADF8180002A90648FFF783FF01219C
:101DD0000448FFF76FFF07B000BD0000000C014092
:101DE0000010014000380040704700002DE9F74F17
:101DF00088B08B4692460021089801F06FFF01D20F
:101E000000200890BAF1000F03D0BAF1010F18D1E9
:101E10000BE0089801F074FE0446524A524B01F060
:101E20004FFD01D2514808900CE0089801F068FE7F
:101E300004464F4A4F4B01F043FD01D24E480890F3
:101E400000E000BF00BFBAF1000F03D0BAF1010FEC
:101E500055D119E0089801F053FE00224FF080435D
:101E6000CDE9060101F042FA06460022434B01F09B
:101E70003DFA04460022424B01F024FC804601F06A
:101E80008DFB404908803EE0089801F039FE044689
:101E90003D4A3E4B01F0DAFB03D800203949088067
:101EA0002CE0089801F02CFE0446374A374B01F02D
:101EB0003DFD0646364A374B01F018FA00222A4B00
:101EC0008433CDE9000101F0FDFB00224FF0804397
:101ED000CDE9020101F00AFA0022284BCDE9040104
:101EE00001F004FA0022264BCDE9060101F0EAFBDD
:101EF000804601F053FB2349088004E000BF002026
:101F00002049088000BF00BFBBF1010F09D0BBF121
:101F1000020F0DD0BBF1030F11D0BBF1040F1CD188
:101F200014E01849098801F50040FEF78BFB15E025
:101F30001449098801F51040FEF784FB0EE01149B1
:101F4000098801F52040FEF77DFB07E00D4909886F
:101F500001F53040FEF776FB00E000BF00BF0BB09C
:101F6000BDE8F08F736891ED7CFF2340E7FB1F41D4
:101F700039B4C876BEFF3340F4FD9F4100001440E1
:101F80000000B0402C000020016A6AD95ADF0F40DF
:101F9000D4601A868F18304010B500F001F810BDDB
:101FA0000CB50020019000903348006840F4803068
:101FB0003149086000BF3048006800F400300090EC
:101FC0000198401C0190009818B90198B0F5A06FD5
:101FD000F1D12948006800F4003010B101200090D0
:101FE00001E0002000900098012843D123480068B8
:101FF00040F01000214908600846006820F0030006
:1020000008600846006840F0020008601A4840680E
:10201000194948600846406848600846406840F4EE
:10202000806048600846406820F47C10486008469C
:10203000406840F4E81048600846006840F080704E
:10204000086000BF0C48006800F000700028F9D05C
:102050000948406820F00300074948600846406886
:1020600040F00200486000BF0348406800F00C00E8
:102070000828F9D10CBD00000010024000200240E9
:10208000042808D14FF0E021096941F004014FF024
:10209000E022116107E04FF0E021096921F004011D
:1020A0004FF0E022116170477047000010B51348EF
:1020B000006840F001001149086008464068104976
:1020C00008400E494860084600680E4908400B4920
:1020D00008600846006820F48020086008464068D0
:1020E00020F4FE0048604FF41F008860FFF754FFA3
:1020F0004FF000600449086010BD0000001002406D
:102100000000FFF8FFFFF6FE08ED00E010B501212A
:10211000094800F045F968B10121074800F03DF891
:102120000021054800F03CF8002004490860012027
:102130000349087010BD0000002C0140AC01214291
:102140004001002010B50121880700F029F9B0B145
:102150000D48007870B90D480068401E0B490860B2
:102160000846006858B90A4800F05EFA032007499B
:10217000086004E003200549086000F0D7F9012158
:10218000880700F00AF810BDDC000020580200208B
:1021900004080020CA4302827047CA430282704783
:1021A00021B1028842F00102028004E002884FF669
:1021B000FE731A400280704710B504466848844296
:1021C00008D10121C014FFF79FFA0021E014FFF7A6
:1021D0009BFAC4E0B4F1804F08D101210846FFF713
:1021E00073FA00210120FFF76FFAB8E05D488442DE
:1021F00008D101210220FFF767FA00210220FFF732
:1022000063FAACE05848844208D101210420FFF76A
:102210005BFA00210420FFF757FAA0E053488442FC
:1022200008D101210820FFF74FFA00210820FFF70D
:102230004BFA94E04E48844208D101211020FFF768
:1022400043FA00211020FFF73FFA88E04948844212
:1022500008D101212020FFF737FA00212020FFF7C5
:1022600033FA7CE04448844208D101214014FFF74E
:102270004BFA00216014FFF747FA70E03F488442B0
:1022800009D10121C804FFF73FFA00214FF40020D3
:10229000FFF73AFA63E03A48844209D10121080580
:1022A000FFF732FA00214FF48010FFF72DFA56E0C5
:1022B0003448844209D101214805FFF725FA00215D
:1022C0004FF40010FFF720FA49E02F48844208D16C
:1022D00001214020FFF7F8F900214020FFF7F4F931
:1022E0003DE02A48844208D101218020FFF7ECF923
:1022F00000218020FFF7E8F931E02548844208D129
:1023000001218015FFF7E0F90021A015FFF7DCF9A6
:1023100025E02048844209D101210804FFF7F4F99F
:1023200000214FF48030FFF7EFF918E01A4884429B
:1023300009D101214804FFF7E7F900214FF40030EB
:10234000FFF7E2F90BE01548844208D10121880427
:10235000FFF7DAF900214FF48020FFF7D5F910BD1F
:10236000002C01400004004000080040000C004028
:10237000001000400014004000340140004C0140B7
:10238000005001400054014000180040001C004073
:10239000002000400040014000440140004801404E
:1023A00030B50246002000230024158A05EA010307
:1023B000958905EA010413B10CB1012000E0002069
:1023C00030BD1AB183890B43838102E083898B433B
:1023D0008381704770B5002400220023058C4FF6DE
:1023E000FE7635400584028C8388048B4FF68F750A
:1023F0002C40B51E2C400D882C43751E2A400D899B
:102400002A434D882A43144DA8420BD0134DA842AD
:1024100008D0134DA84205D0124DA84202D0124D4B
:10242000A84213D14FF6F7752A404D892A434FF63B
:10243000FB752A408D882A434FF6FF652B404FF6E7
:10244000FF552B408D892B43CD892B4383800483FB
:10245000CD888586028470BD002C01400034014087
:102460000040014000440140004801400A4600216C
:10247000018B4FF6F7731940114301837047818632
:102480007047818470470000002202881D4B9842EB
:102490000ED01D4B98420BD0B0F1804F08D01B4B93
:1024A000984205D01A4B984202D01A4B984204D158
:1024B0004FF68F731A404B881A43174B984207D038
:1024C000164B984204D04FF6FF431A40CB881A436C
:1024D00002808B8883850B8803850A4B98420BD03A
:1024E000094B984208D00E4B984205D00D4B9842AC
:1024F00002D00D4B984201D10B7A038601238382CF
:1025000070470000002C01400034014000040040EE
:1025100000080040000C0040001000400014004083
:1025200000400140004401400048014010B50C4803
:10253000007805280ED2DFE800F003040A0B0C0037
:1025400009E0084800F070F8FEF7A0FA03E002E0A6
:1025500001E000E000BF00BF00200149087010BD8D
:10256000DC0000200408002030B504460025204689
:10257000FEF736F8054655B12078552802D0607828
:10258000662802D1A07803490870012030BD0020E0
:10259000FCE70000DC0000202DE9F04107468846FA
:1025A00014460025552229466D1C62546622284691
:1025B0006D1C22541A48027828466D1C2254194971
:1025C0000878C11700EB116109122A466D1CA1544D
:1025D00014490878C11700EB11610912A0EB012121
:1025E000CBB229466D1C6354002605E018F806207E
:1025F00028466D1C2254761CBE42F7DB4146384605
:1026000000F012FC29466D1C6054662228466D1CA1
:102610002254552228466D1C2254BDE8F08100004A
:10262000DC0000204401002070B50546002600248F
:102630002DE0304901EBC4032F4951F82400D3E9C0
:10264000001200F04BFC2D4941F8240051F8240001
:1026500000F094FC3146761C6854284951F8240057
:1026600000F0A3FC3146761C6854244951F824003C
:1026700000F040FC01463046761C29541F4951F8B1
:10268000240000F05BFC3146761C6854641C052C69
:10269000CFDB002421E01A4951F8240000F06EFC41
:1026A0003146761C6854164951F8240000F07DFC30
:1026B0003146761C6854124951F8240000F01AFC87
:1026C00001463046761C29540D4951F8240000F08B
:1026D00035FC3146761C6854641C032CDBDB09484E
:1026E00002783046761C2A54064842783046761CDA
:1026F0002A5470BD340000207807002048070020CD
:10270000A8070020A30000200EB501210846FEF70F
:10271000CBFF4FF08040FFF74FFD4FF4FA60ADF86C
:10272000040048F69F40ADF800000020ADF8060018
:10273000ADF8020069464FF08040FFF7A5FE012189
:102740008807FFF727FD012211469007FFF739FEA2
:1027500001218807FFF724FD0EBD00000EB5012101
:10276000C802FEF7C1FF1148FFF726FD2820ADF88B
:10277000040041F61F40ADF800000020ADF806004F
:10278000ADF802008DF8080069460848FFF77CFEA6
:1027900001210648FFF7FEFC012211460348FFF71E
:1027A00010FE01210148FFF7FBFC0EBD002C01408B
:1027B00070B540F22551164800F087F938B307216B
:1027C000134800F075F908B1012400E00024104816
:1027D00000F036FAC5B20F48008840F2FF71884217
:1027E00015DAA4B90C480B490988455409480088F2
:1027F000401C0849088001210848FFF7CEFC002151
:102800000648FFF73EFE01210448FFF7C9FC70BDF2
:10281000003801403E010020B8180020002C014083
:1028200070B50025002608215A4800F041F938B15A
:10283000584800F0D9FA04460821564800F0CFF86D
:102840000421544800F034F918B10421514800F033
:10285000BDF802214F4800F02BF918B102214D4874
:1028600000F0B4F801214B4800F022F918B1012121
:10287000484800F0ABF840F22551464800F025F9F1
:1028800000286CD040F22551424800F0A8F8414899
:1028900000F0AAFA0446404801680068401C3E4A1D
:1028A00010603E48445410460068182808D13B4840
:1028B000807D662804D13948C07D552800D1012586
:1028C000002D49D03448006835490860002032495D
:1028D00008603248FDF784FE0646002E3FD02F48A0
:1028E000FFF742FE2F48007801280CD12E4A2F49CD
:1028F0001020FFF751FE00202D4908602A491820BA
:1029000000F066FA2BE027480078022807D1002063
:10291000274908602749182000F05AFA1FE021488B
:10292000007803280AD1012023490870002020499B
:1029300008602249182000F04BFA10E0194800788E
:1029400004280CD100201C490870194908601C4952
:10295000182000F03DFA02E000201A49087040F209
:1029600027710C4800F0B1F898B140F2277109487E
:1029700000F035F80020144908700A2000F088FAA9
:1029800001200B490860002240F22771014800F045
:10299000C6F870BD0044004054020020D817002043
:1029A000D8000020DC000020F017002004080020E0
:1029B0009C812242F6000020DD0000200E01002054
:1029C00026010020980000209700002001F40072EA
:1029D000B2F5007F00D100BFCA430280704710B536
:1029E0000022002340F66A14A14200D100BF0A125F
:1029F00001249440A3B2DC43048010BD21B182893C
:102A000042F40052828104E082894DF6FF731A403D
:102A10008281704710B504462048844209D10121C3
:102A20008803FEF771FE00214FF48040FEF76CFE34
:102A300032E01B48844209D101214804FEF744FEDC
:102A400000214FF40030FEF73FFE25E01548844298
:102A500009D101218804FEF737FE00214FF48020C0
:102A6000FEF732FE18E01048844209D10121C80463
:102A7000FEF72AFE00214FF40020FEF725FE0BE0B2
:102A80000A48844208D101210805FEF71DFE0021F5
:102A90004FF48010FEF718FE10BD00000038014012
:102AA0000044004000480040004C004000500040FE
:102AB00002460020B1F5007F00D100BF13880B4013
:102AC0000BB1012000E00020704770B502460024E1
:102AD00000230025002040F66A16B14200D100BF55
:102AE000C1F3421501F01F03012606FA03F3012D7D
:102AF00002D19689334006E0022D02D1168A334076
:102B000001E0968A33400C12012606FA04F4168876
:102B1000344013B10CB1012000E0002070BDF0B5CD
:102B20000346002400260025002040F66A17B9421B
:102B300000D100BF1846C1F3421401F01F0601275F
:102B400007FA06F5012C01D10C3004E0022C01D16A
:102B5000103000E014301AB107682F43076002E01C
:102B60000768AF430760F0BD2DE9F04786B0054622
:102B70000E460024A24600BFA1460027B08900B13E
:102B800000BF2F462C8A4CF6FF700440F0880443A7
:102B90002C82AC894EF6F3100440B088318908438A
:102BA000718908430443AC81AC8A4FF6FF4004406E
:102BB000B0890443AC8201A8FEF708FE1F48874293
:102BC00002D1DDF810A001E0DDF80CA0A88900F426
:102BD000004040B10AEBCA0000EB0A10316849001E
:102BE000B0FBF1F807E00AEBCA0000EB0A1031680D
:102BF0008900B0FBF1F86420B8FBF0F00401200973
:102C0000642101FB1089A88900F4004040B1322002
:102C100000EBC900B0FBF1F000F00700044308E04E
:102C2000322000EB09106421B0FBF1F000F00F003E
:102C300004432C8106B0BDE8F08700000038014055
:102C400001468888C0F308007047C1F308028280FB
:102C5000704700BFFEE7000000B585B001210D20E0
:102C6000FEF742FD01218803FEF73EFD01212120F0
:102C7000FEF73AFD01214804FEF716FD0121082068
:102C8000FDF7B2FE4FF40070ADF8100003208DF890
:102C9000120018208DF8130004A94748FDF718FE0C
:102CA0004FF48060ADF8100004208DF8130004A9E3
:102CB0004148FDF70DFE4FF40060ADF81000102004
:102CC0008DF8130003208DF8120004A93A48FDF78F
:102CD000FFFD18208DF813002020ADF81000032010
:102CE0008DF8120004A93548FDF7F2FD04208DF897
:102CF00013004020ADF8100003208DF8120004A945
:102D00002E48FDF7E5FD10208DF813008020ADF86A
:102D1000100003208DF8120004A92848FDF7D8FD03
:102D20000120274908602749C1F89C012648FFF780
:102D300071FE2648FFF76EFE4FF4165000900020FB
:102D4000ADF80400ADF80600ADF80800ADF80C00D1
:102D50000C20ADF80A0069461B48FFF705FF6946DD
:102D60001A48FFF701FF40211748FFF72FFE012205
:102D700040F225511448FFF7D2FE01211248FFF717
:102D80003DFE40211148FFF721FE012240F225516E
:102D90000E48FFF7C4FE01210C48FFF72FFE012269
:102DA00028210A48FFF7BBFE012260210748FFF7F0
:102DB000B6FE05B000BD000000080140001401404F
:102DC000AC01214200802242003801400044004012
:102DD00070B505460E46002403E0305D00F00CF8A7
:102DE000641CAC42F9DB70BD70B504462046FFF7A9
:102DF00027FFC5B2284670BD10B50446002008491B
:102E00000860022000F044F8012240F227710548D2
:102E1000FFF785FE21460348FFF717FF10BD0000AE
:102E20009C8122420044004070B502460B460024BB
:102E3000002102E05D5C2C44491C9142FADB6425D0
:102E400094FBF5F605FB1645E8B270BD10B56FF0C2
:102E50000400FFF715F90A4800680A49B0FBF1F0D1
:102E6000094908700846007800EB4001C1EBC0102A
:102E70004FF6FF7101EAC0000449088010BD000050
:102E80000000002000127A003000002032000020F4
:102E90000146114A12884A434FF0E0235A6100224A
:102EA0009A611A46126942F001021A6100BF4FF09E
:102EB000E022106900F001021AB100F48032002A09
:102EC000F5D04FF0E022126922F001024FF0E0232A
:102ED0001A6100229A6170473200002037B504461B
:102EE0002046019900F02EFF0546029900F034FEBD
:102EF0003EBD000070B5044600250021204600F0CC
:102F0000EDFE04D20B49204600F01CFF04460A499E
:102F1000204600F017FF064600F08CFE42F21071CA
:102F200090FBF1F201FB1200642190FBF1F0C5B2BD
:102F3000284670BD000080BF00401C4670B50446A6
:102F400000250021204600F0C9FE04D20949204690
:102F500000F0F8FE04460849204600F0F3FE06465D
:102F600000F068FE642190FBF1F201FB1200C5B293
:102F7000284670BD000080BF00401C4670B5064664
:102F80000025304600F056FE0446002C07DA644265
:102F9000642094FBF0F0C5B245F0800503E06420A6
:102FA00094FBF0F0C5B2284670BD70B5054600260A
:102FB000284600F03FFE0446002C00DA64426420FC
:102FC00094FBF0F100FB1140C6B2304670BD00002A
:102FD000FEF7AAFBFEF703FAFFF738FFFDF774F9D7
:102FE000FDF78AF9FDF752FCFDF7FCFDFEF76EFEDA
:102FF000FDF70EFBFFF730FEFDF7C0FDFFF7AEFB60
:10300000FFF782FB6420FEF771FA6420FEF7CEFA28
:103010006CE0FDF7CDFDFEF7C1F9FEF711FD0020D4
:10302000334908603348006800F06AFD0646002214
:10303000314B00F05BF9044600F072F82F4908604C
:103040002F48027804212D480068FEF7CFFE2C4857
:1030500001780620FEF7B0FD2A494860486800F074
:103060004FFD06460022244B00F02CFB04460022B4
:10307000254B00F05BFC804600F052F823490860C5
:1030800023492248006800F05DFE044600F0EEFD92
:10309000204908802048006800F032FD04464FF0C7
:1030A00066321E4B00F0D2FA02D800201A4908609E
:1030B00017491948006800F045FE054600F0D6FDA6
:1030C00084B22046FEF760FA11491348006800F008
:1030D00039FE054600F0CAFD84B22046FEF7B4FA78
:1030E0006420FFF7D5FE01200149086091E7000048
:1030F000A4812142B800002000002440500200209A
:103100004C0200202C050020000049409C000020BB
:103110000000204144010020C000002066661440E9
:1031200021F00042A2F16052B2F5801F01F000438D
:1031300028BFD2F17F6C0BD95FEA001C43EAC202C0
:1031400042EB507018BF704728BF20F00100704755
:10315000B2F5801FBCBF184670474FEA410C1CF502
:10316000001F02D2084600F0B4BE70B500F054FB58
:1031700000000089FFF7F6BF4FF00040A0F5800087
:103180007047000010B591EA030F48BF83F0004379
:1031900000F1D483841A71EB030C05D2121943EBAE
:1031A0000C03001B61EB0C01DFF824E14FEA115422
:1031B000A4EB135C1EEA430F18BF9EEA445F73D072
:1031C00023EA0E03DCF1200E21EA045143F48013BC
:1031D00032D322FA0CFE10EB0E0023FA0CFE41EB68
:1031E0000E01CCF1200E03FA0EFE10EB0E0051F191
:1031F0000001B1F5801FCCF1200E32D201EB045159
:1032000012FA0EF2BDE8104058BF7047401C38BF9C
:103210005FEA420218BF7047002814BF20F0010087
:1032200041F100014FEA410313F5001F38BF704719
:10323000A1F1C04100F03EBB012A43EB0302ACF117
:10324000200CDCF11F0E32BF4FF0000E23FA0CF3FE
:1032500010EB030041EB0451B4EB115FD0D0A1EBB4
:10326000045101F5801149085FEA300001EB045177
:103270000ED350F1000038BF12FA0EFE08D1BDE89F
:103280001040C9E7401C38BF5FEA4202CAD1C3E719
:10329000BDE810404FEA410313F5001F38BF7047E7
:1032A000A1F1C04100F006BB9EEA445F08D011EADC
:1032B0005E0FBDE8104004BF01F0004100207047E0
:1032C000BDE8104070B500F0A7FA00BF64FBBE3E39
:1032D0000000E0FF491058BFC1F140415B1058BFEA
:1032E000C3F140438B42EFF3008070472DE9C041AA
:1032F00030B4DFF8A0C23CEA111418BF3CEA131442
:1033000000F0EC8081EA03051CEA111444EAD5744C
:1033100018BF1CEA131500F0C780A4EB05044FF09A
:10332000004545EAC12145EAC32341EA505143EA39
:10333000525304F17F74994204F500344FEAC020DF
:103340004FEAC22208BF904200F09C804FEA13650A
:103350000FF24016765D4FEA134506FB05F7C7F1FD
:10336000807706FB07F74FEAD737A7FB036876425B
:10337000C8F58038A7FB06CE38BFA8F1010807FBC7
:1033800008E64FF0000EA6FB028CE6FB03CEDCF154
:10339000000CCEF1004E38BFAEF1010EA6FB0C586A
:1033A0004FF000074FF00005E6FB0E87A1FB08C6B3
:1033B000A0FB07CE16EB0E0645F10005E1FB076505
:1033C00015F1E04E7EBFA4F580345FEA46066D41FC
:1033D00016F1800745F100054FEA17274FEA066608
:1033E00047EA0567A6F1DE46B6F1805F4FEA15258C
:1033F0001FD9384624F0010C05EBC471BCF1FE6FF7
:1034000001EB0C1102D8F0BCBDE8008124425CBF86
:1034100001F5801E9EEAC47F02D4F0BCBDE80081A5
:10342000244238D4F0BCA1F1C041BDE8004100F015
:1034300041BA4FEAD22242EA43524FEAD323A7FBD2
:1034400002864FEAD02040EA415007FB03661EEA9D
:103450000E0F4FEAD12105FB026658BFA6EB0056BE
:10346000B6EB00564FEA520E4EEAC37E18EB0E0E34
:1034700056EB530EBDD518EB02085E417F1C55F18B
:103480000005B6E74FF480154FF000074FF0000637
:103490004FF00008ADE7F0BC4FF0000001F1C04173
:1034A00001F00041BDE8008111EA0C1F0CEA131580
:1034B00000D00CE013EA0C1F00F025804FF0000054
:1034C000F0BC81EA030101F00041BDE80081F0BCDD
:1034D000BDE8004181EA030100F0ECB9F0BCBDE8B1
:1034E000004170B500F098F9097EFC3E00F007B885
:1034F00081EA03014FF0000001F00041704781EACA
:10350000030100F0D7B9F0BCBDE800414FF0000066
:1035100021497047FFFDFBF9F7F5F4F2F0EEEDEB12
:10352000E9E8E6E4E3E1E0DEDDDBDAD8D7D5D4D3C1
:10353000D1D0CFCDCCCBCAC8C7C6C5C4C2C1C0BF0D
:10354000BEBDBCBBBAB9B8B7B6B5B4B3B2B1B0AF13
:10355000AEADACABAAA9A8A8A7A6A5A4A3A3A2A1F7
:10356000A09F9F9E9D9C9C9B9A99999897979695B2
:1035700095949393929191908F8F8E8E8D8C8C8B4E
:103580008B8A8989888887878685858484838382D6
:10359000828181800000FF070000F87F4FEA11530D
:1035A000A3F58063D3F11E03A8BFD3F1200C08DB81
:1035B0004FF0004242EAC12252EA505232FA03F07E
:1035C000704709420BD4102BC4BF0020704703F58D
:1035D000787CBCF1FF3F05D04FF0FF3070474FF0D3
:1035E0000000704770B500F017F900BF49922480C1
:1035F00000207047F0E710F0004248BF4042B0FAA8
:1036000080F310FA03F10AD0C3F11D0303F58063C0
:103610004FEA415002EB035202EBD12170474FF0C9
:1036200000007047B0FA80F310FA03F10AD0C3F13A
:103630001D0303F580634FEA41504FEA035202EB4A
:10364000D12170474FF000007047000051EA030C91
:1036500017D41CF5801F58BFBCF5801F00F10680F1
:10366000994218BF704708BF9042704707D711F5BD
:10367000801F58BF13F5801F19D4994270478942A3
:1036800070471CF5801F08D5BCF5801FF7D58B420D
:1036900018BF704708BF824270474FF4001C1CEBF4
:1036A000410F38BF1CEB430F01D28B42704770B5FE
:1036B00000F0B2F8922449004FF000514FF08053CF
:1036C000FFF708BEDFF848C170B51CEA111E1EBF27
:1036D0001CEA13159EEA0C0F95EA0C0F00F06F80A0
:1036E00081EA030423EA4C134EEAD47E21EA4C110A
:1036F00041F4801143F48013AE44A1FB024CA0FBC3
:103700000365AEF17F7E361955EB0C05A1FB034C2A
:103710004CF10003A0FB021C16EB0C06654153F1B3
:103720000003094218BF46F0010613F4007F0BD1D5
:103730004FEA03314FEA0530340341EA155140EABC
:1037400016506FF003020AE04FEAC3214FEAC5208A
:10375000F40241EA555140EA56506FF0020202EB82
:103760002E4201EB025585EACE710AD05FEA440C85
:1037700018BF24F0004450F1000041F1000120EA9C
:10378000D47040F2FE7C624500D270BDA84214BFE6
:103790004FF080444FF04044002E08BF0024BEF19B
:1037A000806FA8BFA1F1C041BDE8704080F2828067
:1037B0004FF0000001F1C04101F0004170479EEA66
:1037C0000C0F0CEA131518BF95EA0C0F06D04FF03A
:1037D000000081EA030E0EF0004170BD00F01CF8FD
:1037E0008900013E00F007B800F009B84FEA430C29
:1037F0005FEA5C5C08D081EA030100F05BB84FEA45
:10380000410C5FEA5C5CF6D14FF000000149704763
:103810000000FF070000F87F0EF1020E2EF0030EED
:103820005EF8046B364205D4012A43EB030515F517
:10383000001F12D8012841EB010C1CF5001F0CD809
:103840000ED14FEAD17C15F5001F0CEB4C0C0CF19E
:10385000020C08BF4CEBD37C04E04FF0080C01E0F5
:103860004FEAD37C0CEB4C0526FA05F606F007066A
:10387000B6F1040C06D20EEB860CBDE870404CF09D
:10388000010C6047DFE80CF0090B02024FF0004129
:103890004FF00000A1F5002170BD19461046012827
:1038A00051EB010418BFD4F5001484BF002001F0CF
:1038B000004170BD0808A0F500114FEA31017047C2
:1038C00053EA010C17D41CF5801F58BFBCF5801FAC
:1038D00000F106808B4218BF704708BF82427047D4
:1038E00007D713F5801F58BF11F5801F19D48B42DD
:1038F00070479B4270471CF5801F08D5BCF5801FA0
:10390000F7D5994218BF704708BF904270474FF4EF
:10391000001C1CEB430F38BF1CEB410F01D2994236
:1039200070470FB40CBC03BCFFF7C1BE10B591EAE1
:10393000030F48BF83F000433FF52CAC841A71EBB2
:10394000030C07D212198CF0004C43EB0C03001B44
:1039500061EB0C01DFF8A4E14FEA1154A4EB135C16
:103960001EEA430F18BF9EEA445F00F0B08023EACE
:103970006E03524221EA0451C3EB6E0338BF5B1E53
:10398000DCF1200E25D322FA0CFE10EB0E0043FAD8
:103990000CFE41EB0E01CCF1200E03FA0EFE10EBF3
:1039A0000E0051F10001CCF1200E29D412FA0EF2D2
:1039B00001EB0451BDE8104058BF7047401C1CBFCC
:1039C000B2F1004F704700280CBF491C20F00100E5
:1039D000704712EB020E43EB030218BF4FF0010ECB
:1039E0004EEA4202ACF1200CDCF11E0E54D943FA2F
:1039F0000CFE10EB0E0051F1FF31CCF11E0ED5D5AF
:103A00000EF1010E12FA0EFE404141EB010101EBF5
:103A1000445C5FEA5C5C10D910EBDE7001EB045192
:103A200038BFBEF1004FBDE8104018BF70470028F6
:103A30000CBF491C20F00100704730D24FEAD42C53
:103A400011F5001124F400641BD0B1FA81F20B3A95
:103A5000A41AA41ED2F12003914030FA03F31943B3
:103A6000904001EBCC71002C01EB0451BDE81040FB
:103A7000A8BF704701F1C0414FF0000001F00041C4
:103A80007047B0FA80F310FA03F100D110BDE41AC8
:103A9000173C4805C90AE4E701EB045110BD491081
:103AA00001EB0451BDE810404FEA300002E04FF056
:103AB000000170474A0008BF0042F8D0B2F5001F6D
:103AC00028BF704701F000414FF0000070479EEAA8
:103AD000445F07D011EA5E0FBDE8104004BF00212B
:103AE00000207047BDE8104070B5FFF795FE00BF9D
:103AF00040DFF63E83F00041104670470000E0FFD3
:103B000043004FEAD30C4FEA3C0C43401FBF400731
:103B10000CF1605113F0FE4F70471CF0006F03D1A1
:103B200000200CF0004170470CF0004343EA507055
:103B300010B540EACC0000F086F900BF000000920A
:103B40004FEA0001FFF7B6BE4FF000414FF0000012
:103B5000A1F500217047000090EA010F48BF81F0F5
:103B6000004100F1C281421A3CBF801A89184FEA15
:103B7000D0524FF07F4C1CEA410FA2EBD15318BF3B
:103B80009CEA026F00F03B804FF0004C4CEA0020B2
:103B90004CEA012121FA03FC10EB0C0C1ED202F1BD
:103BA000FF325FEA1C2040EBC25038BF70471CF068
:103BB0007F0F4FEA400C18BFBCF17F4F38BF7047F2
:103BC000C3F12003994008BF20F00100BCF17F4FF2
:103BD00038BF7047A0F1C04000F07BB94FEA3C000D
:103BE000000A40EBC25028BF1CF0FF0F4FEA400C08
:103BF000E6D018BFBCF17F4F38BF7047EAE79CEAB8
:103C0000026F05D010EA5C0F08BF00F0004070475B
:103C100010B500F018F900BF64FBBE3E401058BF5D
:103C2000C0F14040491058BFC1F140418142EFF31B
:103C30000080704741000B0ED3F19E0208D950F46A
:103C400000034FEA032323FA02F048BF40427047C3
:103C500010B500F0F8F800BF4992248000207047AA
:103C60006FF0004282EA200070470000C10DD1F1E0
:103C70009E0206DB4FEA002343F0004323FA02F0E2
:103C80007047004207D54FEA4001B1F1FE4F02D222
:103C90004FF00000704710B500F0D5F8499224802D
:103CA000002070476FEA20007047000010F00041CC
:103CB00048BF4042B0FA80F310FA03F2C3F19D030B
:103CC0000BD051EAC35101EB1220530638BF7047A5
:103CD00000F1010008BF20F00100704750EA010C1C
:103CE00000F113801CF5000F58BFBCF5000F01D484
:103CF0008842704707D710F5000F58BF11F5000F25
:103D000015D488427047894270471CF5000F04D5CE
:103D1000BCF5000FF7D5814270474FF0807C1CEB5B
:103D2000400F38BF1CEB410F01D28142704710B5E4
:103D300000F089F8922449004FF000504FF0805174
:103D4000FFF76CBF4FF47F0C1CEAD0121EBF1CEAB9
:103D5000D11392EA0C0F93EA0C0F00F0478090EA1F
:103D6000010F48BF42F480724FF0004C4CEA002033
:103D70004CEA012102EB0302A0FB0113A2F50002B1
:103D8000002918BF43F001035B0028BF4FEA33034B
:103D900042EB22425FEA132C4CEBC2502EBFBCEB2D
:103DA000436FB2F57C0F70474FEA036CBCF1004FD4
:103DB00008BF20F00100B2F57C0F38BF70470BD56B
:103DC00082F0FF0212F5803FC8BF704700F1C0408B
:103DD000D8BF00F00040704700F5000C5FEA4C0CC3
:103DE00048BF7047B0F1C04000F073B890EA010FCF
:103DF0000CEAD11348BF42F48072624538BF634574
:103E000004D280EA010000F00040704710B500F0D5
:103E10001AF800BF8900013E00F007B800F009B8A9
:103E20005FEA410C5FEA1C6C08D080EA010000F0F8
:103E300050B85FEA400C5FEA1C6CF6D14FF00040CE
:103E4000A0F5800070470EF1020E2EF0030E5EF812
:103E5000044B244204D44FEA4102B2F17F4F11D8FF
:103E60004FEA4003B3F17F4F0CD80ED14FEAD07C1C
:103E7000B2F17F4F0CEB4C0C0CF1020C08BF4CEB79
:103E8000D17C04E04FF0080C01E04FEAD17C0CEB50
:103E90004C0324FA03F404F00704B4F1040C06D232
:103EA0000EEB840CBDE810404CF0010C6047DFE8DD
:103EB0000CF0070802024FF00040A0F5800010BD92
:103EC0000846420018BFD2F1807288BF00F000405F
:103ED00010BDFF2141EAD050C005704790EA010FA4
:103EE00048BF81F000413FF53EAE421A04D882F04F
:103EF0000042A0EB020011444FEAD0524FF07F4C39
:103F00001CEA410FA2EBD15318BF9CEA026F4AD0C2
:103F10004FF0004C4CEA00204CEA012121FA03FC4E
:103F2000B0EB0C0C0FD412F0FE0F36D05FEA4C0051
:103F30001DD5001240EBC25038BF70471CF03F0F38
:103F400018BF70470BE0A2F101025FEA1C2040EBB2
:103F5000C25038BF70471CF07F0F18BF7047C3F1C5
:103F60002003994014BF401E20F0010070478008D4
:103F70004FEA122308BF7047B0FA80FCA2EB0C0294
:103F8000CCF1280C60FA0CF093EA122F04BF00EB7E
:103F9000C25070474FEAC3707047130A5FEADC10E3
:103FA00008BF7047F6E79CEA026F04D010EA5C0F86
:103FB00008BF0020704710B5FFF745FF40DFF63E11
:103FC00081F00040704700C0C101C30302C2C606B1
:103FD00007C705C5C404CC0C0DCD0FCFCE0E0ACA41
:103FE000CB0BC90908C8D81819D91BDBDA1A1EDE91
:103FF000DF1FDD1D1CDC14D4D515D71716D6D21241
:1040000013D311D1D010F03031F133F3F23236F650
:10401000F737F53534F43CFCFD3DFF3F3EFEFA3A00
:104020003BFB39F9F83828E8E929EB2B2AEAEE2E90
:104030002FEF2DEDEC2CE42425E527E7E62622E200
:10404000E323E12120E0A06061A163A3A26266A650
:10405000A767A56564A46CACAD6DAF6F6EAEAA6AC0
:104060006BAB69A9A86878B8B979BB7B7ABABE7E10
:104070007FBF7DBDBC7CB47475B577B7B67672B2C0
:10408000B373B17170B05090915193535292965650
:104090005797559594549C5C5D9D5F9F9E5E5A9A80
:1040A0009B5B99595898884849894B8B8A4A4E8E10
:1040B0008F4F8D4D4C8C4484854587474686824280
:1040C0004383418180400000E84000080000002058
:1040D0005C0200006C0100084C4100085C020020FA
:1040E0007C3F0000C80100081184A24A046809014D
:1040F000020304060708090C6910E5020406080B10
:104100005C803F08013A1201B2110413556601DFC9
:1041100066555566020101212A10180A1503180A6E
:10412000130418F12808C1814001C0804104690CC2
:104130002908E918A91C091A300916380936600936
:0C4140002E70092F60A201320300000065
:0400000508000131BD
:00000001FF
