:020000040800F2
:10000000781900203D2C000825040008270400086A
:100010002B0400082F04000833040008000000002F
:10002000000000000000000000000000370400088D
:100030003904000800000000CF6C00081D2A0008E9
:10004000572C0008572C0008572C0008572C000884
:10005000572C0008572C0008572C0008572C000874
:10006000572C0008572C0008572C0008572C000864
:10007000572C0008572C0008572C0008572C000854
:10008000572C0008572C0008572C0008572C000844
:10009000572C0008572C0008572C0008572C000834
:1000A000572C0008572C0008572C0008572C000824
:1000B0006D040008572C0008572C0008572C000826
:1000C000572C0008572C0008572C0008572C000804
:1000D000572C00083B040008572C0008572C000838
:1000E000572C0008572C0008572C0008572C0008E4
:1000F000572C0008572C0008572C0008572C0008D4
:10010000572C0008572C0008572C0008572C0008C3
:10011000572C0008572C0008572C0008572C0008B3
:10012000572C0008572C0008572C0008572C0008A3
:1001300000F002F800F05AF80AA090E8000C82449F
:100140008344AAF10107DA4501D100F04FF8AFF27C
:10015000090EBAE80F0013F0010F18BFFB1A43F0A5
:10016000010318477C8B00009C8B00000A444FF071
:10017000000C10F8013B13F0070408BF10F8014B06
:100180001D1108BF10F8015B641E05D010F8016B4B
:10019000641E01F8016BF9D113F0080F1EBF10F8AF
:1001A000014BAD1C0C1B09D16D1E58BF01F801CBD2
:1001B000FAD505E014F8016B01F8016B6D1EF9D555
:1001C0009142D6D37047000000230024002500266A
:1001D000103A28BF78C1FBD8520728BF30C148BFAA
:1001E0000B6070471FB51FBD10B510BD07F02BFE8B
:1001F0001146FFF7F7FF00F040F807F049FE03B49F
:10020000FFF7F2FF03BC02F0ABFC000007E007F0D1
:10021000CCFB642300221146104606F08BFCF6E767
:100220000CE06C480068C0436B49C1F898014FF47A
:10023000FA7300221146104606F07CFCF1E770B517
:100240000446002500BF04F085FF06F019FD0546B1
:100250000523624A0021AFF2370006F0F1F80423CB
:100260005F4A0021AFF25B0006F0EAF8072006F0D3
:1002700067FB284606F008FD70BD1CB502F0D6FBF2
:1002800002F046FC00F0ECF900F0F0FC55A0102163
:100290000B46C822CDE900100A211E2002F081FB86
:1002A0000E2257A15A4807F037FD00204FF496431D
:1002B00002460A21009007F0AFFA07F051FB04F064
:1002C0000CFE0723534A0021AFF28D0006F0B8F868
:1002D00004F028FF00201CBD30B503460020012992
:1002E00017DB8D18152D14DC4B4D2D884C1B0DE0A4
:1002F000474D35F814502D1203F8015B444D15F8A5
:10030000145003F8015B641C551EAAB2002AEFDCEE
:1003100000E0012030BDF0B504460D460020012D5F
:1003200031DBAE180B2E2EDC3C4E3688A91B13B1E8
:10033000012B27D111E00DE0394E36F8116036124D
:1003400004F8016B364E16F8116004F8016B491C75
:10035000561EB2B2002AEFDC14E010E014F8017B64
:100360003E022F4F27F8116014F8016B37F8117017
:100370003E432B4F27F81160491C561EB2B2002A8B
:10038000ECDC00BF00E00120F0BD70B505461C4666
:100390000020012918DB8E180B2E15DC1F4E368825
:1003A0008B1B14B1012C0ED106E002E05B1C561E23
:1003B000B2B2002AFADC06E002E05B1C561EB2B2C2
:1003C000002AFADC00BF00E0012070BD03460120D6
:1003D0007047000098812342008023427C03002064
:1003E0006407002075636F732069692026206D6F94
:1003F0006462757320746573742E0D0A000000002A
:100400004920616D20496E70757452656700000067
:10041000440100207C020020000000200200002097
:100420006C010020704700BFFEE700BFFEE700BF81
:10043000FEE700BFFEE77047704710B540F2255158
:100440000E4803F0CFFC012806D107F0D3FB40F2A1
:1004500025510A4803F0F0FC40F22771074803F0E9
:10046000C1FC012801D107F0C0FB10BD10B507F099
:100470000AFC0121880704F003FC10BD003801408C
:100480000CB50020019000906C48006840F480306A
:100490006A49086000BF6948006800F400300090B5
:1004A0000198401C0190009818B90198B0F5A06F10
:1004B000F1D16248006800F4003010B101200090D2
:1004C00001E0002000900098012843D15C480068BA
:1004D00040F010005A4908600846006820F0030008
:1004E00008600846006840F0020008605348406811
:1004F000524948600846406848600846406840F4F1
:10050000806048600846406820F47C1048600846D7
:10051000406840F4E81048600846006840F0807089
:10052000086000BF4548006800F000700028F9D05E
:100530004248406820F0030040494860084640684F
:1005400040F00200486000BF3C48406800F00C00EA
:100550000828F9D10CBD10B5FFF792FF10BD10B5FA
:100560003648006840F00100344908600846406899
:10057000344908403149486008460068324908401B
:100580002E4908600846006820F48020086008466C
:10059000406820F4FE0048604FF41F008860FFF7B9
:1005A000DAFF4FF000602949086010BD10B5002146
:1005B00000200022214B5B6803F00C0121B10429CB
:1005C00006D0082928D107E0214B224C236027E0E0
:1005D0001F4B204C236023E0184B5B6803F4701022
:1005E000164B5B6803F48032022303EB904022B980
:1005F000194B4343174C23600DE0104B5B6803F429
:10060000003323B1144B4343124C236003E0104BDF
:100610004343104C236003E00D4B0E4C236000BF9E
:1006200000BF064B5B68C3F303130C4CE15C094B42
:100630001B68CB40074C236010BD00000010024037
:10064000002002400000FFF8FFFFF6FE08ED00E08A
:1006500000127A000400002000093D00080000207C
:1006600008B50121802003F099F94FF47070ADF8BE
:10067000000010208DF8030003208DF80200694669
:10068000044802F0CFFE4FF47071024802F077FF89
:1006900008BD0000001C01404FF0DC41088070479D
:1006A0004FF0DC41488070474FF0DC404088704795
:1006B0004FF0DC4210805180704710B50446204650
:1006C000FFF7EAFF052002F0D7F9FFF7EDFF10BDB5
:1006D000F748C0794FF0DC41088070474FF0DC41AB
:1006E0004880704730B5014601F01F04C1F345133F
:1006F000CA0AE50205EB43151544A8B230BD00BF98
:10070000011EA0F10102D0B2FAD1704710B5034624
:100710000C46E748808849F24131884205D0E448D8
:10072000808846F60401884214D1E149087AFFF72F
:10073000B3FF1812FFF7B4FFD8B2FFF7B1FFDC49DF
:10074000487AFFF7A9FF2012FFF7AAFFE0B2FFF7F0
:10075000A7FF12E0D6488079012804D1D448008848
:10076000401EC01A83B2D249087A1946FFF7A0FF8B
:10077000CF49487A2146FFF79BFF10BD2DE9F04194
:1007800005460E4600240027A046C9480088A84216
:1007900003DDC7484088B04202DC0020BDE8F0819C
:1007A00031462846FFF7B2FFC148808849F24131FF
:1007B000884205D0BE48808846F60401884203D1AD
:1007C0002E20FFF769FF02E02220FFF765FFB848FF
:1007D000808849F22031884202D10220FFF78FFF42
:1007E0004FF0DC40408800B100240220FFF787FF73
:1007F0004FF0DC404488AE48808849F2413188425D
:100800000CD10220FFF77BFF4FF0DC40B0F80280F4
:10081000E7B24FF6FF7000EA072708E0A448808897
:1008200046F60401884202D14FF0DC404488A048DB
:10083000808849F22531884216D09D48808844F24C
:100840003551884210D09A488088091F88420BD0C1
:100850009748808848F68911884205D09448808856
:100860004BF20551884201D1204697E79048808895
:1008700049F24131884207D1E012C002B91240EA80
:10088000411040EAE82089E72046FFF72BFF85E783
:1008900000B58748808849F24131884205D08448B4
:1008A000808846F60401884203D12920FFF7F4FE30
:1008B00004E040F273110720FFF7FAFE00BD00B517
:1008C0007B48808849F24131884205D07848808849
:1008D00046F60401884203D12820FFF7DDFE03E03D
:1008E00000210720FFF7E4FE00BD70B50446002399
:1008F00000266F48807901281ED16D48808846F611
:100900000401884218D0082C15D2DFE804F0040650
:10091000080A0C0E101206240DE007240BE0042434
:1009200009E0052407E0012405E0002403E0032496
:1009300001E0022400BF00BF5D48808849F24131D8
:10094000884205D05A48808846F6040188427CD106
:10095000082C1CD2DFE804F00406090C0F1215184D
:1009600000BF14E043F0800311E043F040030EE0C9
:1009700043F0C0030BE043F0200308E043F06003C2
:1009800005E043F0A00302E043F0E00300BF00BF36
:10099000362643F008034648808846F6040188421C
:1009A00001D143F0020319463046FFF781FE03F000
:1009B000200068B13E4800883D494988884214DAE1
:1009C0003B48058840883A490880084645800CE045
:1009D0003748008836494988884206DD344805880A
:1009E000408833490880084645803149087AFFF736
:1009F00053FE0020FFF754FE0020FFF751FE2C4964
:100A00000988491EC1F30F20FFF74AFE28490978DB
:100A1000491EC8B2FFF744FE2549487AFFF73CFE5D
:100A20000020FFF73DFE0020FFF73AFE20494988ED
:100A3000491EC1F30F20FFF733FE1D498978491E77
:100A4000C8B2FFF72DFE32E0FFE7082C1CD2DFE82A
:100A500004F004070A0D0F12151843F0300313E0D9
:100A600043F0100310E043F020030DE000BF0BE063
:100A700043F0380308E043F0280305E043F018038F
:100A800002E043F0080300BF00BF0948808848F631
:100A90008911884204D1112646F24000034302E046
:100AA000032643F4805319463046FFF701FE70BD1C
:100AB0006807002030B504460D4629462046FFF75A
:100AC00025FEFFF705FEFE4800884FF0DC41488018
:100AD00030BD30B503460C461546FA48808849F2C9
:100AE0004131884205D0F748808846F604018842A3
:100AF00014D1F449087AFFF7CFFD1812FFF7D0FDA3
:100B0000D8B2FFF7CDFDEF49487AFFF7C5FD2012B7
:100B1000FFF7C6FDE0B2FFF7C3FD12E0E9488079B8
:100B2000012804D1E7480088401EC01A83B2E54975
:100B3000087A1946FFF7BCFDE249487A2146FFF7DB
:100B4000B7FDE048C0794FF0DC4108800846458099
:100B500030BD10B50446002C3DD1DA498871F02033
:100B600008804FF4A07048800846808849F24131DF
:100B7000884205D0D348808846F60401884214D1C3
:100B80002C20D049C8712A2008722B2048720846B0
:100B9000808846F6040188424ED14FF4A070C949BE
:100BA00008804FF4F070488046E0C648808848F6D8
:100BB0008911884207D12220C249C8714E2008728B
:100BC0004F20487238E02220BE49C87120200872A8
:100BD0002120487230E0BB48808846F604018842F4
:100BE0002AD00120B74988714FF4A0700880F02006
:100BF00048800846808849F24131884207D12C203C
:100C0000B049C8712A2008722B20487214E0AD4800
:100C1000808848F68911884207D12220A949C871E5
:100C20004F2008724E20487206E02220A549C87164
:100C300021200872202048720020FFF756FE10BDC8
:100C400070B5044600269F4805884088454300212A
:100C50000846FFF75BFDFFF73BFD00BF03E04FF0E9
:100C6000DC404480761CAE42F9D370BD00B59FB025
:100C70000121080202F085FE012140F2E91002F094
:100C80008DFE4CF23370ADF8780003208DF87A00B9
:100C900018208DF87B001EA98B4802F0C3FB4FF68D
:100CA0008070ADF878001EA9884802F0BBFB0120D7
:100CB000ADF878001EA9864802F0B4FB4FF48050CE
:100CC000ADF878001EA9834802F0ACFB0120089023
:100CD000002009900F200A9000200B900C900D909E
:100CE0000E90019002900320039000200490059044
:100CF0000690079006200F90002010901190102071
:100D000012900020139015901490169017904FF4A5
:100D100080501890002019904FF480401A900020C5
:100D20001B9008A81C9001A81D900FA802F060F865
:100D30000121062002F0C4F9322001F0C0FE012199
:100D40000020FFF7B5FC322001F0B9FE0020FFF7CC
:100D5000B4FC5C49888008468088FF280ADB084686
:100D600080884FF6FF71884204D056488088B0F5DD
:100D7000134F4BD1D320FFF78FFCFFF795FCFFF704
:100D800093FCFFF791FC4F498880084680884FF616
:100D9000FF7101EA00204B498880FFF785FC494933
:100DA00089880843474988800846808849F241314C
:100DB00088421BD0BF20FFF76FFCFFF775FCFFF7E1
:100DC00073FCFFF771FCFFF76FFC3E498880084613
:100DD00080884FF6FF7101EA00203A498880FFF7CA
:100DE00063FC3849898808433649888035488088BB
:100DF00049F24131884209D03248808846F60401E0
:100E0000884203D049F241302E4988802D4880889D
:100E100049F24131884252D1CF20FFF73DFC0020FA
:100E2000FFF73EFCC120FFF73BFC3020FFF738FC0A
:100E3000ED20FFF731FC6420FFF732FC0320FFF7C1
:100E40002FFC1220FFF72CFC8120FFF729FCE82063
:100E5000FFF722FC8520FFF723FC1020FFF720FC82
:100E60007A20FFF71DFCCB20FFF716FC3920FFF797
:100E700017FC2C20FFF714FC0020FFF711FC342096
:100E8000FFF70EFC0220FFF70BFCF720FFF704FC36
:100E90002020FFF705FCEA20FFF7FEFB0020FFF70C
:100EA000FFFB0020FFF7FCFBC020FFF7F5FB1B203A
:100EB000FFF7F6FBC120FFF7EFFB01200CE0CFE0CE
:100EC00018000020680700200014014000180140AD
:100ED000001C014000200140FFF7E2FBC520FFF7A6
:100EE000DBFB3020FFF7DCFB3020FFF7D9FBC7200E
:100EF000FFF7D2FBB720FFF7D3FB3620FFF7CCFB81
:100F00004820FFF7CDFB3A20FFF7C6FB5520FFF73F
:100F1000C7FBB120FFF7C0FB0020FFF7C1FB1A2081
:100F2000FFF7BEFBB620FFF7B7FB0A20FFF7B8FBC1
:100F3000A220FFF7B5FBF220FFF7AEFB0020FFF782
:100F4000AFFB2620FFF7A8FB0120FFF7A9FBE0205D
:100F5000FFF7A2FB0F20FFF7A3FB2A20FFF7A0FB60
:100F60002820FFF79DFB0820FFF79AFB0E20FFF7D4
:100F700097FB0820FFF794FB5420FFF791FBA92073
:100F8000FFF78EFB4320FFF78BFB0A20FFF788FB60
:100F90000F20FFF785FB0020FFF782FB0020FFF703
:100FA0007FFB0020FFF77CFB0020FFF779FBE120AF
:100FB000FFF772FB0020FFF773FB1520FFF770FBB4
:100FC0001720FFF76DFB0720FFF76AFB1120FFF7E3
:100FD00067FB0620FFF764FB2B20FFF761FB562021
:100FE000FFF75EFB3C20FFF75BFB0520FFF758FB9C
:100FF0001020FFF755FB0F20FFF752FB3F20FFF7B4
:101000004FFB3F20FFF74CFB0F20FFF749FB2B2046
:10101000FFF742FB0020FFF743FB0020FFF740FBF8
:101020000120FFF73DFB3F20FFF73AFB2A20FFF7A7
:1010300033FB0020FFF734FB0020FFF731FB0020DB
:10104000FFF72EFBEF20FFF72BFB1120FFF724FB10
:10105000782001F034FD2920FFF71EFB01F016BABD
:10106000FE48808846F6040188427CD11120FFF7B3
:1010700013FB142001F023FDD020FFF70DFB072008
:10108000FFF70EFB4220FFF70BFB1D20FFF708FBCD
:10109000D120FFF701FB0020FFF702FB1A20FFF72A
:1010A000FFFA0920FFF7FCFAD220FFF7F5FA01203A
:1010B000FFF7F6FA2220FFF7F3FAC020FFF7ECFA69
:1010C0001020FFF7EDFA3B20FFF7EAFA0020FFF7C8
:1010D000E7FA0220FFF7E4FA1120FFF7E1FAC52052
:1010E000FFF7DAFA0320FFF7DBFAC820FFF7D4FA9C
:1010F0000020FFF7D5FA2520FFF7D2FA2120FFF7CD
:10110000CFFA0520FFF7CCFA0020FFF7C9FA0A2032
:10111000FFF7C6FA6520FFF7C3FA2520FFF7C0FAEC
:101120007720FFF7BDFA5020FFF7BAFA0F20FFF73C
:10113000B7FA0020FFF7B4FAF820FFF7ADFA012064
:10114000FFF7AEFAFE20FFF7A7FA0020FFF7A8FA94
:101150000220FFF7A5FA2020FFF79EFA3620FFF7BE
:101160009BFA082000E02CE0FFF79AFA3A20FFF7FC
:1011700093FA5520FFF794FA2B20FFF78DFA002001
:10118000FFF78EFA0020FFF78BFA0120FFF788FAAD
:101190003F20FFF785FA2A20FFF77EFA0020FFF7AD
:1011A0007FFA0020FFF77CFA0120FFF779FADF20B1
:1011B000FFF776FA782001F082FC2920FFF76CFA1D
:1011C0004CE7A648808849F2253188427ED147F60F
:1011D000F001E520FFF76CFA4FF480710120FFF772
:1011E00067FA4FF4E0610220FFF762FA41F2300142
:1011F0000320FFF75DFA00210420FFF759FA40F2BF
:1012000002210820FFF754FA00210920FFF750FAC5
:1012100000210A20FFF74CFA00210C20FFF748FAC2
:1012200000210D20FFF744FA00210F20FFF740FABC
:1012300000211020FFF73CFA07211120FFF738FAB0
:1012400000211220FFF734FA00211320FFF730FAB3
:1012500000210720FFF72CFA41F290611020FFF7E0
:1012600027FA40F227211120FFF722FA9D211220B0
:10127000FFF71EFA4FF4C8511320FFF719FA252182
:101280002920FFF715FA0D212B20FFF711FA07216E
:101290003020FFF70DFA40F203313120FFF708FA52
:1012A00003213220FFF704FA40F206213520FFF730
:1012B000FFF908213620FFF7FBF940F206413720FD
:1012C000FFF7F6F94FF44171382000E057E0FFF7DF
:1012D000EFF907213920FFF7EBF940F202613C20DA
:1012E000FFF7E6F908213D20FFF7E2F90021502041
:1012F000FFF7DEF9EF215120FFF7DAF90021522044
:10130000FFF7D6F940F23F115320FFF7D1F94FF420
:1013100027416020FFF7CCF901216120FFF7C8F9D0
:1013200000216A20FFF7C4F900218020FFF7C0F9EF
:1013300000218120FFF7BCF900218220FFF7B8F9D6
:1013400000218320FFF7B4F900218420FFF7B0F9D2
:1013500000218520FFF7ACF910219020FFF7A8F9B4
:101360004FF4C0619220FFF7A3F940F23311072038
:10137000FFF79EF922210020FFF79AF96EE6374821
:10138000808849F2283188426AD141F28F01EC20ED
:10139000FFF78EF941F23421EF20FFF789F94FF47E
:1013A00080710120FFF784F94FF4E0610220FFF71C
:1013B0007FF941F230010320FFF77AF90021042080
:1013C000FFF776F940F202210820FFF771F90021BA
:1013D0000920FFF76DF900210A20FFF769F90121C3
:1013E0000C20FFF765F900210D20FFF761F90021BE
:1013F0000F20FFF75DF900211020FFF759F90721B1
:101400001120FFF755F900211220FFF751F90021B3
:101410001320FFF74DF901210720FFF749F932208A
:1014200001F04DFB41F290411020FFF741F940F2ED
:1014300027211120FFF73CF9322001F040FB8A21DF
:101440001220FFF735F9322001F039FB4FF4D0516B
:101450001320FFF72DF90621292002E0680700205C
:101460008AE0FFF725F90D212B20FFF721F9322023
:1014700001F025FB00212020FFF71AF9002121208F
:10148000FFF716F9322001F01AFB00213020FFF798
:101490000FF940F204613120FFF70AF940F20531FB
:1014A0003220FFF705F900213520FFF701F940F65A
:1014B00009413620FFF7FCF84FF401713720FFF7A0
:1014C000F7F840F201313820FFF7F2F840F20771E7
:1014D0003920FFF7EDF800213C20FFF7E9F840F64E
:1014E0000A213D20FFF7E4F8322001F0E8FA00215C
:1014F0005020FFF7DDF8EF215120FFF7D9F8002148
:101500005220FFF7D5F840F23F115320FFF7D0F8F3
:101510004FF427416020FFF7CBF801216120FFF74E
:10152000C7F800216A20FFF7C3F800218020FFF7E9
:10153000BFF800218120FFF7BBF800218220FFF7D0
:10154000B7F800218320FFF7B3F800218420FFF7CC
:10155000AFF800218520FFF7ABF810219020FFF7AE
:10156000A7F84FF4C0619220FFF7A2F840F23311C0
:101570000720FFF79DF871E5FE48808849F2203189
:1015800088427DD100210846FFF792F84FF4807120
:101590000120FFF78DF84FF4E0610220FFF788F893
:1015A00041F230010320FFF783F800210420FFF708
:1015B0007FF840F202210820FFF77AF80021092085
:1015C000FFF776F800210A20FFF772F801210C20BE
:1015D000FFF76EF800210D20FFF76AF800210F20B9
:1015E000FFF766F8322001F06AFA40F20111072095
:1015F000FFF75EF8322001F062FA4FF486511020B6
:10160000FFF756F807211120FFF752F84FF48871C1
:101610001220FFF74DF84FF430611320FFF748F820
:1016200000212920FFF744F844F210012B20FFF796
:101630003FF800215020FFF73BF8EF215120FFF742
:1016400037F800215220FFF733F840F23F115320C2
:10165000FFF72EF84FF41C516020FFF729F8012105
:101660006120FFF725F800216A20FFF721F800210B
:101670008020FFF71DF800218120FFF719F800E016
:101680002EE000218220FFF713F800218320FFF7CE
:101690000FF800218420FFF70BF800218520FFF7C9
:1016A00007F810219020FFF703F800219220FEF7A1
:1016B000FFFF01219320FEF7FBFF4FF48871952077
:1016C000FEF7F6FF00219720FEF7F2FF0021982099
:1016D000FEF7EEFF40F273110720FEF7E9FFBDE4CD
:1016E000A448808849F2313188427DD141F2140109
:1016F000E720FEF7DDFF4FF480710120FEF7D8FFF1
:101700004FF400710220FEF7D3FF41F238010320AD
:10171000FEF7CEFF40F202210820FEF7C9FF0021AC
:101720000920FEF7C5FF00210A20FEF7C1FF0021B6
:101730000C20FEF7BDFF00210D20FEF7B9FF0021B0
:101740000F20FEF7B5FF00211020FEF7B1FF0721A3
:101750001120FEF7ADFF00211220FEF7A9FF0021A6
:101760001320FEF7A5FFC82001F0A9F941F290610E
:101770001020FEF79DFF40F227211120FEF798FF71
:10178000322001F09CF90C211220FEF791FF32204B
:1017900001F095F94FF400611320FEF789FF112144
:1017A0002920FEF785FF0B212B20FEF781FF322039
:1017B00001F085F900212020FEF77AFF40F23F1169
:1017C0002120FEF775FF00213020FEF771FF4FF456
:1017D00083713120FEF76CFF00213220FEF768FF95
:1017E0004FF40171352000E064E0FEF761FF41F243
:1017F0000A613620FEF75CFF40F207713720FEF7E2
:1018000057FF4FF483713820FEF752FF40F2077103
:101810003920FEF74DFF40F202413C20FEF748FF21
:1018200040F60F413D20FEF743FF00215020FEF718
:101830003FFFEF215120FEF73BFF00215220FEF732
:1018400037FF40F23F115320FEF732FF4FF41C5197
:101850006020FEF72DFF01216120FEF729FF002106
:101860006A20FEF725FF00218020FEF721FF0021DE
:101870008120FEF71DFF00218220FEF719FF0021C5
:101880008320FEF715FF00218420FEF711FF0021C1
:101890008520FEF70DFF10219020FEF709FF4FF481
:1018A000C0619220FEF704FF40F233110720FEF7DB
:1018B000FFFE85E42F48808845F2084188427DD1AB
:1018C0004FF480710120FEF7F3FE4FF4E061022037
:1018D000FEF7EEFE41F230010320FEF7E9FE0021A3
:1018E0000420FEF7E5FE40F207210820FEF7E0FEA7
:1018F00000210920FEF7DCFE00210A20FEF7D8FEB9
:1019000000210C20FEF7D4FE00210D20FEF7D0FEB2
:1019100000210F20FEF7CCFE142001F0D0F841F298
:10192000B0611020FEF7C4FE01211120FEF7C0FEB9
:1019300001211720FEF7BCFE4FF49C711220FEF728
:10194000B7FE4FF400611320FEF7B2FE09212920F3
:10195000FEF7AEFE09212A20FEF7AAFE0021A420F0
:10196000FEF7A6FE00215020FEF7A2FEEF21512037
:1019700002E0000068070020FEF79AFE00215220D6
:10198000FEF796FE40F23F115320FEF791FE4FF412
:101990001C516020FEF78CFE01216120FEF788FEBD
:1019A00000216A20FEF784FE00218020FEF780FEE1
:1019B00000218120FEF77CFE002100E028E082204B
:1019C000FEF776FE00218320FEF772FE00218420C0
:1019D000FEF76EFE00218520FEF76AFE132190209F
:1019E000FEF766FE00219220FEF762FE032193209F
:1019F000FEF75EFE4FF488719520FEF759FE40F227
:101A000073110720FEF754FE322001F058F8B5E4B8
:101A1000FE48808841F2055188427DD1002107208F
:101A2000FEF746FE322001F04AF84FF48E71122084
:101A3000FEF73EFE0121A420FEF73AFE0F2108200A
:101A4000FEF736FE08210A20FEF732FE08210D209F
:101A5000FEF72EFE40F207713020FEF729FE072127
:101A60003120FEF725FE40F203613220FEF720FE12
:101A70004FF4E0613320FEF71BFE40F202213420D8
:101A8000FEF716FE02213520FEF712FE41F60F7119
:101A90003620FEF70DFE40F207713720FEF708FEF4
:101AA00000213820FEF704FE00213920FEF700FE59
:101AB00040F207713A20FEF7FBFD00213B20FEF7C4
:101AC000F7FD07213C20FEF7F3FD00213D20FEF746
:101AD000EFFD322000F0F3FF01210720FEF7E8FDC3
:101AE00001211720FEF7E4FD322000F0E8FF4FF45B
:101AF000BD511020FEF7DCFD40F217211120FEF74A
:101B0000D7FD4FF48F711220FEF7D2FD4FF47061B4
:101B10001320FEF7CDFD00E095E000212A20FEF71E
:101B2000C7FD0A212920FEF7C3FD4FF49F71122043
:101B3000FEF7BEFD00215020FEF7BAFDEF21512037
:101B4000FEF7B6FD00215220FEF7B2FD40F23F1134
:101B50005320FEF7ADFD4FF41C516020FEF7A8FDA9
:101B600001216120FEF7A4FD00216A20FEF7A0FDFF
:101B700000218020FEF79CFD00218120FEF798FDCA
:101B800000218220FEF794FD00218320FEF790FDC6
:101B900000218420FEF78CFD00218520FEF788FDC2
:101BA00013219020FEF784FD4FF440719220FEF740
:101BB0007FFD05219320FEF77BFD00219520FEF798
:101BC00077FD00219720FEF773FD00219820FEF796
:101BD0006FFD4FF480710120FEF76AFD4FF4E06164
:101BE0000220FEF765FD41F238010320FEF760FD9B
:101BF00000210420FEF75CFD00210C20FEF758FDBB
:101C000000210F20FEF754FD00212020FEF750FD9B
:101C100000212120FEF74CFD21210720FEF748FD81
:101C2000142000F04CFF61210720FEF741FD142035
:101C300000F045FF40F273110720FEF739FD142034
:101C400000F03DFF97E4714880884BF205518842CF
:101C50007ED100210846FEF72BFD00210846FEF745
:101C600027FD00210846FEF723FD00210846FEF768
:101C70001FFD0121A420FEF71BFD142000F01FFF13
:101C80004FF41C516020FEF713FD40F202210820A2
:101C9000FEF70EFD4FF405713020FEF709FD43F20B
:101CA00015713120FEF704FD40F204613220FEF789
:101CB000FFFC40F616613320FEF7FAFC42F21121D8
:101CC0003420FEF7F5FC4FF4A8513520FEF7F0FC68
:101CD00048F207513620FEF7EBFC41F2074137206E
:101CE000FEF7E6FC41F203413820FEF7E1FC20213B
:101CF0003920FEF7DDFC1A219020FEF7D9FC0021E7
:101D00001020FEF7D5FC07211120FEF7D1FC0021A1
:101D10001220FEF7CDFC00211320FEF7C9FC142091
:101D200000F0CDFE4FF4E6611020FEF7C1FC40F25A
:101D300037111120FEF7BCFC142000F0C0FE4FF458
:101D4000DC711220FEF7B4FC142000F0B8FE00E0B5
:101D500087E04FF470611320FEF7AAFC80212A204F
:101D6000FEF7A6FC48212920FEF7A2FC142000F073
:101D7000A6FE4FF480710120FEF79AFC4FF4E0615B
:101D80000220FEF795FC41F238010320FEF790FC9B
:101D900040F202210820FEF78BFC00210A20FEF70A
:101DA00087FC00210C20FEF783FC00210D20FEF7AC
:101DB0007FFC30210E20FEF77BFC00215020FEF737
:101DC00077FCEF215120FEF773FC00215220FEF733
:101DD0006FFC40F23F115320FEF76AFC4FF41C5198
:101DE0006020FEF765FC01216120FEF761FC002107
:101DF0006A20FEF75DFC11219020FEF759FC4FF49C
:101E0000C0619220FEF754FC02E000006807002049
:101E100040F202419320FEF74BFC02219420FEF792
:101E200047FC142000F04BFE01210720FEF740FC88
:101E3000142000F044FE61210720FEF739FC40F237
:101E400073110720FEF734FC00212020FEF730FC40
:101E500000212120FEF72CFC22210020FEF728FC87
:101E600014E3FE4880884CF2055188427ED100215F
:101E70000846FEF71DFC00210846FEF719FC142059
:101E800000F01DFE00210846FEF712FC0021084666
:101E9000FEF70EFC00210846FEF70AFC002108466A
:101EA000FEF706FC0121A420FEF702FC142000F03E
:101EB00006FE4FF41C516020FEF7FAFB40F60601C7
:101EC0000820FEF7F5FB40F203713020FEF7F0FB2F
:101ED00001213120FEF7ECFB04213220FEF7E8FB64
:101EE0004FF481713320FEF7E3FB4FF4407134204F
:101EF000FEF7DEFB40F203113520FEF7D9FB1F2170
:101F00003620FEF7D5FB40F203713720FEF7D0FBF9
:101F100001213820FEF7CCFB04213920FEF7C8FB55
:101F200015219020FEF7C4FB4FF482611020FEF7CC
:101F3000BFFB40F247211120FEF7BAFB4FF4DE71E0
:101F40001220FEF7B5FB4FF460611320FEF7B0FBE3
:101F5000782000F0B4FD4FF480710120FEF7A8FB5B
:101F60004FF400710220FEF7A3FB00E050E041F2C5
:101F700030010320FEF79CFB08210A20FEF798FBA6
:101F800000210C20FEF794FB20210E20FEF790FB91
:101F900000210F20FEF78CFB00212020FEF788FB9C
:101FA00000212120FEF784FB3D212A20FEF780FB43
:101FB000142000F084FD2D212920FEF779FB00215B
:101FC0005020FEF775FB4DF2EF015120FEF770FB3C
:101FD00000215220FEF76CFB40F23F115320FEF728
:101FE00067FB00216120FEF763FB00216A20FEF7FA
:101FF0005FFB4FF440719220FEF75AFB05219320BE
:10200000FEF756FB4FF480710720FEF751FB3DE2CF
:102010009248808848F6891188427DD101210020AC
:10202000FEF746FB4AF6A4010320FEF741FB002120
:102030000C20FEF73DFB40F60C010D20FEF738FBAF
:102040004FF42C510E20FEF733FBB0211E20FEF77B
:102050002FFB42F63F310120FEF72AFB4FF4C0610F
:102060000220FEF725FB00211020FEF721FB46F29F
:1020700078011120FEF71CFB00210520FEF718FB5C
:1020800000210620FEF714FB4EF61C711620FEF709
:102090000FFB03211720FEF70BFB40F23321072033
:1020A000FEF706FB00210B20FEF702FB00210F20AC
:1020B000FEF7FEFA00214120FEF7FAFA0021422045
:1020C000FEF7F6FA00214820FEF7F2FA40F23F113F
:1020D0004920FEF7EDFA00214A20FEF7E9FA002137
:1020E0004B20FEF7E5FA4FF46F414420FEF7E0FA8B
:1020F00000214520FEF7DCFA40F23F114620FEF7B2
:10210000D7FA40F207713020FEF7D2FA4FF401718E
:102110003120FEF7CDFA00E03DE04FF401713220AE
:10212000FEF7C6FA40F202513320FEF7C1FA40F240
:1021300007513420FEF7BCFA4FF401713520FEF749
:10214000B7FA4FF401713620FEF7B2FA40F20251AD
:102150003720FEF7ADFA40F202313A20FEF7A8FA36
:1021600040F202313B20FEF7A3FA00212320FEF7C4
:102170009FFA00212420FEF79BFA4FF4004125200E
:10218000FEF796FA00214F20FEF792FA00214E202A
:10219000FEF78EFA7AE13148808844F23151884264
:1021A0007DD101210020FEF783FA0A2000F087FC90
:1021B00041F228611020FEF77BFA0E211220FEF773
:1021C00077FA40F639211320FEF772FA0A2000F060
:1021D00076FC40211120FEF76BFA50211520FEF706
:1021E00067FA0A2000F06BFC1E211220FEF760FA4D
:1021F0000A2000F064FC4FF4B1511020FEF758FAA9
:1022000042F639211320FEF753FA0A2000F057FC5A
:102210004FF480710120FEF74BFA4FF44071022019
:10222000FEF746FA41F238010320FEF741FA40F288
:1022300002210820FEF73CFA08210A20FEF738FAAE
:1022400000213020FEF734FA40F202413120FEF73F
:102250002FFA4FF48371322002E00000680700205B
:10226000FEF726FA40F203513320FEF721FA4FF42D
:1022700082713420FEF71CFA40F201313520FEF75E
:1022800017FA40F207713620FEF712FA40F20531D4
:102290003720FEF70DFA4FF40271382000E040E0DD
:1022A000FEF706FA40F60B713920FEF701FA02211B
:1022B0004120FEF7FDF94FF41C516020FEF7F8F9BC
:1022C00001216120FEF7F4F94FF404719020FEF72C
:1022D000EFF94FF485719220FEF7EAF9042193207B
:1022E000FEF7E6F94FF48071A020FEF7E1F9012135
:1022F0000720FEF7DDF921210720FEF7D9F9232178
:102300000720FEF7D5F933210720FEF7D1F940F277
:1023100033110720FEF7CCF90021A020FEF7C8F901
:10232000B4E0FB48808844F235518842F8D130212E
:102330001520FEF7BDF910219A20FEF7B9F92021EA
:102340001120FEF7B5F943F228411020FEF7B0F94D
:1023500002211220FEF7ACF941F238011320FEF7FA
:10236000A7F9282000F0ABFB12210846FEF7A0F9E0
:10237000282000F0A4FB43F220411020FEF798F93A
:1023800043F238011320FEF793F9462000F097FB43
:1023900000213020FEF78CF940F202413120FEF797
:1023A00087F940F207313220FEF782F94FF441718C
:1023B0003320FEF77DF904213420FEF779F940F24D
:1023C00001413520FEF774F940F207713620FEF71F
:1023D0006FF940F205313720FEF76AF94FF4C26118
:1023E0003820FEF765F94FF4C2613920FEF760F935
:1023F0004FF480710120FEF75BF94FF44071022029
:10240000FEF756F941F230010320FEF751F940F68C
:1024100008010820FEF74CF908210A20FEF748F9C8
:102420004FF41C516020FEF743F901216120FEF7B3
:102430003FF94FF49F719020FEF73AF94FF4807105
:102440009220FEF735F94FF480719320FEF730F9B2
:102450004FF44051A020FEF72BF91021A320FEF7E6
:1024600027F901210720FEF723F921210720FEF794
:102470001FF923210720FEF71BF933210720FEF760
:1024800017F940F233110720FEF712F90020FEF78A
:1024900060FB01209F4908604FF6FF70FEF7D0FBFC
:1024A0001FB000BD2DE9F04F05460E461746984671
:1024B000DDF824A04FF0000B781B401C1FFA80FBB6
:1024C000344613E021462846FEF720F9FEF700F9CE
:1024D0004FF0000906E05046FEF7E2F809F101006E
:1024E0001FFA80F9D945F6DB601C84B24445E9DD6A
:1024F000BDE8F08F2DE9F84F07460D469046994606
:10250000DDF828B0A8EB0700401C80B20090A9EBD2
:102510000500401C1FFA80FA002416E0281981B239
:102520003846FEF7F3F8FEF7D3F8002608E004FB80
:102530000A603BF810004FF0DC414880701C86B206
:1025400000988642F3DB601C84B25445E6DBBDE8AC
:10255000F88F2DE9FF4F84B081468A460020039012
:1025600002900698A0EB09050798A0EB0A06CDF8A3
:102570000490CDF800A0002D01DD012705E00DB984
:10258000002702E04FF0FF376D42002E02DD4FF0D2
:10259000010806E016B94FF0000802E04FF0FF38DE
:1025A0007642B54201DD2C4600E034464FF0000B88
:1025B00021E0009A91B2019A90B2FEF77BFA03985B
:1025C000284403900298304402900398A04205DD0D
:1025D0000398001B03900198384401900298A04290
:1025E00005DD0298001B02900098404400900BF11A
:1025F00001001FFA80FB601C8345DADD08B0BDE8EE
:10260000F08FF0B504460D4616461F462B4632465F
:1026100029462046FFF79DFF3B4622462946204695
:10262000FFF797FF3B46324639462046FFF791FFBA
:102630003B46324629463046FFF78BFFF0BD2DE979
:10264000F04306460F469046002445460320A0EB83
:1026500048093CE07A1B91B2321990B2FEF72AFA8F
:102660003A1B91B2721990B2FEF724FA3A1991B25C
:10267000721990B2FEF71EFA7A1991B2321990B21D
:10268000FEF718FA7A1991B2321B90B2FEF712FADD
:102690003A1991B2721B90B2FEF70CFA7A1B91B202
:1026A000321B90B2FEF706FA3A1B91B2721B90B23F
:1026B000FEF700FA641CB9F1000F03DAA000801DD8
:1026C000814404E0601B80000A3081446D1EAC42EE
:1026D000C0DDBDE8F0832DE9F84F05460F46904672
:1026E0001E4600970C48B0F80090A8F1200000F0BA
:1026F000FF080A98002856D1002451E00C2E0FD173
:1027000008EB4800054901EB800010F804A00CE03C
:10271000680700208401214218000020167F00086D
:10272000B94800EB081010F804A04FF0000B31E09E
:102730000AF0800018B1B548A0F8009003E0B44852
:102740000088B249088039462846FEF7B3F94FEAB7
:102750004A604FEA106A781C87B2AE480088A842E7
:1027600004DCAA48A0F80090BDE8F88F0098381A59
:10277000B0420BD1009F681C85B2A6480088A842D1
:1027800003DCA248A0F80090EEE706E00BF10100A0
:1027900000F0FF0BBBF1080FCADB00BF601CC4B226
:1027A000B442ABDB44E0002440E00C2E07D108EB40
:1027B0004800994901EB800010F804A004E0924819
:1027C00000EB081010F804A04FF0000B28E00AF00E
:1027D000800018B139462846FEF76CF94FEA4A6086
:1027E0004FEA106A781C87B28A484088A84203DC06
:1027F0008648A0F80090B7E70098381AB0420BD18D
:10280000009F681C85B283480088A84203DC7F488B
:10281000A0F80090A8E706E00BF1010000F0FF0B24
:10282000BBF1080FD3DB00BF601CC4B2B442BCDBF9
:102830007648A0F8009000BF96E710B50246012048
:1028400000E050430B1EA1F10104E1B2F9D110BD2B
:102850002DE9FF4F81B0074691461E460E9D4FF071
:10286000000A002439E0301B401EC1B20A20FFF7E5
:10287000E4FFB9FBF0F00A21B0FBF1F201FB120812
:10288000BAF1000F16D1701EA04213DDB8F1000F8F
:102890000ED10020AB4605EBDB71491001FB047142
:1028A000009088B22B4620220299FFF714FF12E015
:1028B0004FF0010A0020AB4605EBDB71491001FB2C
:1028C0000471009088B208F13001CAB22B46029917
:1028D000FFF701FF00BF601CC4B2B442C3DB05B008
:1028E000BDE8F08F2DE9FF4F82B0064692461F46A5
:1028F000DDE90F480020019000254DE0781B401EC7
:10290000C1B20A20FFF799FFBAFBF0F00A21B0FB31
:10291000F1F201FB1209019850BB781EA84227DD95
:10292000B9F1000F22D108F0800078B108F0010061
:10293000A34604EBDB71491001FB0561009088B2EE
:10294000234630220399FFF7C6FE0EE008F001008F
:10295000A34604EBDB71491001FB0561009088B2CE
:10296000234620220399FFF7B6FE13E001200190D1
:1029700008F00100A34604EBDB71491001FB05617F
:10298000009088B209F13001CAB223460399FFF7DB
:10299000A2FE00BF681CC5B2BD42AFDB06B0BDE8F9
:1029A000F08F2DE9F84704460D4690469946DDE93B
:1029B000096704F0FF0A08EB04001FFA80F809EB2E
:1029C00005001FFA80F916E0444502DB5446A819B9
:1029D00085B24D4500DB14E0002000903A78334684
:1029E00029462046FFF777FE304606EBD07104EB10
:1029F00061018CB27F1C38787E2802DC3878202870
:102A0000E2DA00BFBDE8F8878A83000818000020DA
:102A10001A00002068070020167F000810B502F099
:102A200072FA02F0B6FB02F089FA10BD10B56FF031
:102A3000040000F072F9314800683149B0FBF1F050
:102A4000304908702D4800682D49B0FBF1F441F27F
:102A50008830444305202C4908804FF0E02000696D
:102A600040F002004FF0E02108610846446100692F
:102A700040F00100086110BD70B5034600224FF020
:102A8000E02675691F4E367803FB06F400BF4FF051
:102A9000E026B16910E04FF0E026B06988420BD023
:102AA000884202D20E1A324402E02E1A0E443244F8
:102AB0000146A24200D300E0EDE700BF70BD70B553
:102AC000044612480078012811D10F48008884423A
:102AD00006DB0D48008894FBF0F5284603F0F8FF6C
:102AE0000948008894FBF0F100FB114084B24FF4D8
:102AF0007A7104FB01F0FFF7BFFF70BD04000020F6
:102B000000127A001C0000201E0000205A00002045
:102B100008B500214FF0006000F0E7F84FF4E060E6
:102B200000F0ACF825208DF8000000208DF80100A1
:102B300001208DF802008DF80300684600F0A3F82C
:102B40001C208DF8000000208DF8010002208DF877
:102B5000020001208DF80300684600F094F808BDDB
:102B6000014600BF704700BF324A128802F040029F
:102B7000002AF9D0C2B22F4B1B1D1A80704700BF2C
:102B8000704710B5044600BF40212A4801F014F9EF
:102B90000028F9D02146274801F0A0F810BD70B5F3
:102BA00005460E46002404E0285DFFF7EAFF601C9E
:102BB000C4B2B442F8DB70BD10B586B00446012142
:102BC00044F2050000F0EAFE4FF40070ADF8140086
:102BD00003208DF8160018208DF8170005A9164857
:102BE00000F020FC4FF48060ADF8140004208DF854
:102BF000170005A9104800F015FC01940020ADF85D
:102C00000800ADF80A00ADF80C00ADF810000C207B
:102C1000ADF80E0001A9074800F067FF012240F25D
:102C20002551044800F0F9FF0121024800F0E9FFB6
:102C300006B010BD00380140000801400948804737
:102C400009480047FEE7FEE7FEE7FEE7FEE7FEE78E
:102C5000FEE7FEE7FEE7FEE704480549054A064BA6
:102C6000704700005F05000831010008781300205C
:102C7000781900207815002078150020314901438B
:102C8000314A1160704770B5002100230F22C478CB
:102C900004B32D4C246804F4E064C4F5E064210A14
:102CA000C1F10403CA40447804FA03F18478144063
:102CB00021430901254C0678A155047804F01F052D
:102CC0000124AC4005786D11AD0005F1E025C5F893
:102CD000004109E0047804F01F050124AC401C4DBC
:102CE0000678761145F8264070BD1A4A0A4002431C
:102CF000154B1B1F1A60704739B1134A121D126819
:102D00000243114B1B1D1A6006E00F4A121D126888
:102D100082430D4B1B1D1A607047042808D14FF0E9
:102D2000E021096941F004014FF0E022116107E060
:102D30004FF0E021096921F004014FF0E022116118
:102D4000704700000000FA050CED00E000E400E030
:102D500080E100E080FFFF1F30B943F2DB02810019
:102D6000A1F1C0410A6005E043F2D2028100A1F165
:102D7000C0410A606FF07042411C8900A1F1C0415E
:102D80000A608100A1F1C041C1F8042170471028F8
:102D90000AD118214FF020421166402151664FF0B0
:102DA000FC319166D16610E01821F74A116040218C
:102DB0004FF02042C2F884104FF0FC31F24A083242
:102DC00011604FF02042C2F88C1070471820EE4975
:102DD0002031086000200906C1F8A4004FF0FC3043
:102DE000E94928310860091D0860091D086070471D
:102DF000D0E901121143C2681143026911434269CB
:102E0000114382691143C2691143026A1143426A44
:102E10001143826A1143C26A1143026B1143026873
:102E20009200A2F1C0421160816808290BD10168AB
:102E30008900A1F1C041096841F0400201688900A0
:102E4000A1F1C0410A60416B0968426B526841EAD6
:102E50000211426B926841EA0221426B928941EA77
:102E60000241426B128A41EA0251426B127D41EAF1
:102E70000261426B926911430268521C9200A2F1F6
:102E8000C0421160C16AB1F5804F1BD1816B0968E6
:102E9000826B526841EA0211826B926841EA022118
:102EA000826B128A41EA0251826B127D41EA026111
:102EB000826B9269114302689200A2F1C042C2F88B
:102EC000041107E06FF0704201688900A1F1C04170
:102ED000C1F80421704730B5002100220023446866
:102EE00044F0080485682C43C5682C4305692C43CD
:102EF000456944EA4524856944EA4531C469246842
:102F0000C5696D6844EA0524C5692D8944EA05440C
:102F1000C5692D7B44EA0562046A2468056A6D6808
:102F200044EA0524056A2D8944EA0544056A2D7B97
:102F300044EA05630468102C05D14FF02044216653
:102F4000A266E36608E0904C21604FF02044C4F88C
:102F500088208D4C0C34236030BD016841F0100195
:102F6000426841EA4221826841EA4231864A20327F
:102F70001160C1680968C268526841EA0221C268EA
:102F8000128941EA0241C268127B41EA02617E4A2B
:102F900028321160016909680269526841EA022118
:102FA0000269128941EA02410269127B41EA026127
:102FB000754A2C321160416909684269526841EAD8
:102FC00002214269128941EA02414269127B41EAC7
:102FD00002614FF02042C2F8B0107047002101603A
:102FE0000221416000218160C16001614161816114
:102FF000C16101624FF48051416249008162002148
:10300000C16201630F21426B1160426B5160FF216D
:10301000426B91600F21426BD160426B1161426B38
:1030200051610021426B91610F21826B1160826BB3
:103030005160FF21826B91600F21826BD160826BA6
:103040001161826B51610021826B91617047102187
:103050000160002141608160C16001614161816165
:10306000FC21C2691160C2695160C2699160C26984
:10307000D160026A1160026A5160026A9160026A5C
:10308000D16070470021016041608160FC21C2680D
:103090001160C2685160C2689160C268D160026903
:1030A000116002695160026991600269D1604269F0
:1030B000116042695160426991604269D160704714
:1030C00051B18200A2F1C042126842F001038200B5
:1030D000A2F1C042136009E08200A2F1C04212686E
:1030E0002A4B1A408300A3F1C0431A60704799B17C
:1030F000102808D14FF02042126E42F004024FF027
:1031000020431A661DE0204A126842F004024FF084
:103110002043C3F8802014E0102809D14FF020424A
:10312000126E1A4BDB1E1A404FF020431A6608E05D
:10313000154A1268154BDB1E1A404FF02043C3F8A6
:103140008020704748B110492031096841F00401DE
:103150004FF02042C2F8A01009E00B492031096865
:103160000A4AD21E11404FF02042C2F8A010704708
:10317000B9B110280CD14FF02042126E42F040023B
:103180004FF020431A661FE0800000A0FEFF0F00F2
:10319000724A126842F040024FF02043C3F8802088
:1031A00012E0102808D14FF02042126E6C4B1A40EA
:1031B0004FF020431A6607E0684A1268684B1A40CD
:1031C0004FF02043C3F880207047014600201029AB
:1031D00003D14FF02042506F02E0604A1432106871
:1031E000704710B5F2B1102807D14FF020435B6E45
:1031F0000B434FF02044636632E0B0F5807F08D186
:10320000564B1B1D1B680B434FF02044C4F8843001
:1032100026E0524B24331B680B434FF02044C4F884
:10322000A4301DE0102807D14FF020435B6E8B4384
:103230004FF02044636613E0B0F5807F08D1474B20
:103240001B1D1B688B434FF02044C4F8843007E0FB
:10325000424B24331B688B434FF02044C4F8A43006
:1032600010BD10B5024600200023102A03D14FF0F4
:103270002044636E09E0B2F5807F03D1374C241DF2
:10328000236802E0354C2434236803EA01040CB1BE
:10329000012000E0002010BD102807D14FF020428F
:1032A000526E8A434FF020435A6613E0B0F5807F98
:1032B00008D12A4A121D12688A434FF02043C3F8EE
:1032C000842007E0254A243212688A434FF02043C5
:1032D000C3F8A420704770B50246002000230024E4
:1032E0000025102A03D14FF02046736E09E0B2F595
:1032F000807F03D1194E361D336802E0174E243605
:10330000336803EA010403EAD10514B10DB10120C9
:1033100000E0002070BD102808D14FF02042526E0E
:1033200022EAD1024FF020435A6615E0B0F5807FC3
:1033300009D10A4A121D126822EAD1024FF0204335
:10334000C3F8842008E0054A2432126822EAD10238
:103350004FF02043C3F8A42070470000800000A075
:10336000BFFF0F0010B50446CC48844208D10121AC
:10337000042000F02DFB0021042000F029FB46E092
:10338000C748844208D10121082000F021FB002118
:10339000082000F01DFB3AE0C248844208D1012118
:1033A000102000F015FB0021102000F011FB2EE092
:1033B000BD48844208D10121202000F009FB0021F2
:1033C000202000F005FB22E0B848844208D101210A
:1033D000402000F0FDFA0021402000F0F9FA16E04C
:1033E000B348844208D10121802000F0F1FA002185
:1033F000802000F0EDFA0AE0AE48844207D10121B6
:10340000801500F0E5FA0021A01500F0E1FA10BDEA
:1034100010B50121084600F0DBFA0021012000F080
:10342000D7FA10BD2DE9F041024600250026002004
:1034300000230024002791F803C00CF00F0591F839
:1034400003C00CF0100CBCF1000F03D091F802C0C7
:103450004CEA050591F800C0BCF1000F31D01468AA
:1034600000202BE04FF0010C0CFA00F3B1F800C083
:103470000CEA03069E4220D183004FF00F0C0CFA99
:1034800003F7BC4305FA03FC4CEA040491F803C0BB
:10349000BCF1280F06D14FF0010C0CFA00FCC2F869
:1034A00014C00AE091F803C0BCF1480F05D14FF0F9
:1034B000010C0CFA00FCC2F810C0401C0828D1D343
:1034C0001460B1F800C0BCF1FF0F34DD5468002077
:1034D0002EE000F1080C4FF0010808FA0CF3B1F8E7
:1034E00000C00CEA03069E4221D183004FF00F0C6E
:1034F0000CFA03F7BC4305FA03FC4CEA040491F808
:1035000003C0BCF1280F05D100F1080C08FA0CF833
:10351000C2F8148091F803C0BCF1480F07D100F144
:10352000080C4FF0010808FA0CF8C2F81080401C93
:103530000828CED35460BDE8F0814FF6FF710180BA
:10354000022181700421C1707047024600209368F7
:103550000B400BB1012000E0002070470146886855
:1035600080B2704702460020D3680B400BB10120A7
:1035700000E0002070470146C86880B270470161D2
:103580007047416170470AB1016100E041617047D5
:10359000C16070474FF480320A4382618161826169
:1035A00082698269704702460020434B18684FF6D3
:1035B0008073184040EA021008433F4B1860704780
:1035C0003E49C8617047F0B50A4600230024002137
:1035D000002500F00046B6F1004F02D1364EF169E9
:1035E00001E0354E7168C0F3034583B200F4401624
:1035F000B6F5401F08D121F070612F4E766826F095
:1036000070662D4F7E6012E000F48016B6F5801FC4
:1036100006D1032606FA05F4A14341F0706106E0E5
:10362000460D360103FA06F6B14341F0706122B14E
:10363000460D360103FA06F6314300F00046B6F1B6
:10364000004F02D11C4EF16101E01B4E7160F0BDD4
:1036500030B500228B071C0F0F2303FA04F2164B20
:1036600008338C1053F824309343134C08348D10D6
:1036700044F8253023468C1053F824308C07240F4F
:1036800000FA04F423430C4C08348D1044F8253020
:1036900030BD0A49DC310860704700000008014075
:1036A000000C0140001001400014014000180140CE
:1036B000001C0140002001400000014000002042A9
:1036C000DF48006840F00100DD49086008464068B6
:1036D000DC490840DA49486008460068DA49084091
:1036E000D74908600846006820F480200860084632
:1036F000406820F4FE0048604FF41F008860704767
:10370000CF49096821F48031CD4A1160114609681A
:1037100021F480211160B0F5803F03D0B0F5802FF7
:103720000ED106E0C649096841F48031C44A1160EF
:1037300007E0C349096841F4A021C14A116000E0D3
:1037400000BF00BF704710B50146002200230020D3
:103750004A11012A02D1BA4C236806E0022A02D19A
:10376000B74C236A01E0B64C636A01F01F020124E2
:1037700094401C400CB1012000E0002010BD38B581
:10378000002000900024002500BF3120FFF7DBFF60
:1037900005460098401C00900098B0F5A06F01D03D
:1037A000002DF2D03120FFF7CEFF08B1012400E058
:1037B0000024204638BD01460020A14A106820F0B0
:1037C000F80040EAC10010607047A04908607047E7
:1037D000024600209A4B586820F47C1042EA01030C
:1037E0001843974B586070479849086670470146E0
:1037F0000020934A506820F003000843506070474F
:103800008F48406800F00C007047014600208C4A49
:10381000506820F0F00008435060704701460020D7
:10382000874A506820F4E0600843506070470146C2
:103830000020834A506820F4605040EAC100506084
:10384000704729B17E4A527A02437D4B5A7204E096
:103850007B4A527A82437A4B5A7270477B49D831FD
:103860000860704701460020754A506820F44040C7
:103870000843506070470021714A20321170704A2D
:1038800082F82010012802D004280AD104E0012186
:103890006B4A2032117005E00521694A203211700F
:1038A00000E000BF00BF7047694908607047644985
:1038B000096A0143624A11627047654944390860E8
:1038C000704730B500210022002400235C4D6D6854
:1038D00005F00C0121B1042905D0082923D105E008
:1038E0005C4D056022E05B4D05601FE0544D6D6846
:1038F00005F47012524D6D6805F48034022505EB15
:1039000092421CB9544D554305600BE04C4D6D6817
:1039100005F400351DB1504D5543056002E04D4D95
:103920005543056002E04B4D056000BF00BF444DAC
:103930006D6805F0F0010909484D6B5C0568DD40D4
:1039400045603F4D6D6805F4E061090A434D6B5CCD
:103950004568DD4085603A4D6D6805F46051C90ADF
:103960003E4D6B5C4568DD40C560354D6D6805F4C6
:103970004041890B3A4D6B5CC568B5FBF3F50561B9
:1039800030BD29B12E4A526902432D4B5A6104E0E1
:103990002B4A526982432A4B5A61704729B1284AFF
:1039A00092690243264B9A6104E0254A9269824358
:1039B000234B9A61704729B1214AD2690243204BB7
:1039C000DA6104E01E4AD26982431D4BDA61704716
:1039D00029B11B4AD2680243194BDA6004E0184A45
:1039E000D2688243164BDA60704729B1144A1269D3
:1039F0000243134B1A6104E0114A12698243104BCF
:103A00001A61704712494039086070470F49C8640D
:103A100070470B49C87170470948406A40F0807090
:103A200007494862704701460020054A92680A40EB
:103A30000AB1012000E000207047014988727047F8
:103A4000001002400000FFF8FFFFF6FE00004242B7
:103A50008004424200127A0000093D00200000204C
:103A60003000002010B50446FB48844209D10121F2
:103A70008803FFF7ADFF00214FF48040FFF7A8FF58
:103A800032E0F648844209D101214804FFF7ADFF36
:103A900000214FF40030FFF7A8FF25E0F0488442F2
:103AA00009D101218804FFF7A0FF00214FF48020F5
:103AB000FFF79BFF18E0EB48844209D10121C804BD
:103AC000FFF793FF00214FF40020FFF78EFF0BE07C
:103AD000E548844208D101210805FFF786FF00214F
:103AE0004FF48010FFF781FF10BD2DE9F04786B03D
:103AF00005460E460024A24600BFA1460027B08915
:103B000000B100BF2F462C8A4CF6FF700440F088AD
:103B100004432C82AC894EF6F3100440B0883189FE
:103B20000843718908430443AC81AC8A4FF6FF40D7
:103B30000440B0890443AC8201A8FFF7C2FEC64826
:103B4000874202D1DDF810A001E0DDF80CA0A889C1
:103B500000F4004040B10AEBCA0000EB0A103168E3
:103B60004900B0FBF1F807E00AEBCA0000EB0A10CD
:103B700031688900B0FBF1F86420B8FBF0F0040173
:103B80002009642101FB1089A88900F4004040B19C
:103B9000322000EBC900B0FBF1F000F00700044355
:103BA00008E0322000EB09106421B0FBF1F000F0D6
:103BB0000F0004432C8106B0BDE8F0874FF4165186
:103BC000016000218180C18001810C21418100219F
:103BD0008181704710B502460020108A4FF2FF0322
:103BE00018400B884C8823438C882343CC8823437C
:103BF0001843108210BD0021018041808180C18066
:103C0000704721B1828942F40052828104E08289A6
:103C10004DF6FF731A4082817047F0B503460024C9
:103C200000260025002040F66A17B94200D100BFE7
:103C30001846C1F3421401F01F06012707FA06F5E2
:103C4000012C01D10C3004E0022C01D1103000E035
:103C500014301AB107682F43076002E00768AF43CA
:103C60000760F0BD1AB1838A0B43838202E0838A26
:103C70008B4383827047028A4FF6F0731A400282A8
:103C8000028A0A430282704782894FF2FF731A4008
:103C9000828182890A438281704721B1828942F000
:103CA0000202828104E082894FF6FD731A4082810C
:103CB0007047028A4FF6DF731A400282028A0A4373
:103CC0000282704721B1028A42F48042028204E0FB
:103CD000028A4BF6FF731A4002827047C1F3080252
:103CE0008280704701468888C0F308007047818948
:103CF00041F0010181817047028BD2B20283028BB5
:103D000042EA012202837047028B02F47F4202835F
:103D1000028B0A430283704721B1828A42F020025B
:103D2000828204E0828A4FF6DF731A4082827047F3
:103D300021B1828A42F01002828204E0828A4FF628
:103D4000EF731A408282704721B1828A42F00802E2
:103D5000828204E0828A4FF6F7731A4082827047AB
:103D600021B1828942F40042828103E08289C2F358
:103D70000E028281704721B1828A42F400628282FF
:103D800004E0828A4FF2FF731A4082827047828A6F
:103D90004FF6FB731A408282828A0A4382827047FE
:103DA00021B1828A42F00202828204E0828A4FF6C6
:103DB000FD731A408282704702460020B1F5007FF1
:103DC00000D100BF13880B400BB1012000E00020A0
:103DD000704701F40072B2F5007F00D100BFCA4302
:103DE0000280704770B502460024002300250020A1
:103DF00040F66A16B14200D100BFC1F3421501F08E
:103E00001F03012606FA03F3012D02D196893340E0
:103E100006E0022D02D1168A334001E0968A334033
:103E20000C12012606FA04F41688344013B10CB1C2
:103E3000012000E0002070BD10B50022002340F6F4
:103E40006A14A14200D100BF0A1201249440A3B217
:103E5000DC43048010BD00000038014000440040F5
:103E600000480040004C00400050004010B504469F
:103E7000FE48844208D10121C014FFF7A9FD0021AA
:103E8000E014FFF7A5FDC4E0B4F1804F08D1012193
:103E90000846FFF7AAFD00210120FFF7A6FDB8E0C4
:103EA000F348844208D101210220FFF79EFD002142
:103EB0000220FFF79AFDACE0EE48844208D10121D0
:103EC0000420FFF792FD00210420FFF78EFDA0E003
:103ED000E948844208D101210820FFF786FD00212E
:103EE0000820FFF782FD94E0E448844208D10121D4
:103EF0001020FFF77AFD00211020FFF776FD88E003
:103F0000DF48844208D101212020FFF76EFD002107
:103F10002020FFF76AFD7CE0DA48844208D10121C5
:103F20004014FFF755FD00216014FFF751FD70E0CC
:103F3000D548844209D10121C804FFF749FD002179
:103F40004FF40020FFF744FD63E0D048844209D1DC
:103F500001210805FFF73CFD00214FF48010FFF719
:103F600037FD56E0CA48844209D101214805FFF7D0
:103F70002FFD00214FF40010FFF72AFD49E0C5484E
:103F8000844208D101214020FFF72FFD002140206D
:103F9000FFF72BFD3DE0C048844208D1012180207D
:103FA000FFF723FD00218020FFF71FFD31E0BB4814
:103FB000844208D101218015FFF717FD0021A015CB
:103FC000FFF713FD25E0B648844209D1012108041A
:103FD000FFF7FEFC00214FF48030FFF7F9FC18E0FA
:103FE000B048844209D101214804FFF7F1FC0021C7
:103FF0004FF40030FFF7ECFC0BE0AB48844208D1F3
:1040000001218804FFF7E4FC00214FF48020FFF732
:10401000DFFC10BD00220288944B98420ED0994BD1
:1040200098420BD0B0F1804F08D0914B984205D008
:10403000904B984202D0904B984204D14FF68F7328
:104040001A404B881A438D4B984207D08C4B9842AC
:1040500004D04FF6FF431A40CB881A4302808B8866
:1040600083850B880385814B98420BD0854B984202
:1040700008D08B4B984205D08A4B984202D08A4B8D
:10408000984201D10B7A038601238382704770B571
:10409000002400220023058C4FF6FE76354005846F
:1040A000028C8388048B4FF68F752C40B51E2C40F4
:1040B0000D882C43751E2A400D892A434D882A43BA
:1040C0006A4DA8420BD06F4DA84208D0744DA8424B
:1040D00005D0744DA84202D0734DA84213D14FF6BB
:1040E000F7752A404D892A434FF6FB752A408D8883
:1040F0002A434FF6FF652B404FF6FF552B408D8925
:104100002B43CD892B4383800483CD88858602840D
:1041100070BD70B5002400220023058C4FF6EF76A9
:1041200035400584028C8388048B48F6FF752C404B
:104130004FF6FF452C400D884FF6FF7606EA052521
:104140002C434FF6DF752A400D8906EA05152A43F0
:104150004D8806EA05152A43444DA84202D0494D30
:10416000A8421DD14FF67F752A404D894FF6FF7644
:1041700006EA05152A434FF6BF752A408D8806EAE0
:1041800005152A434FF6FF352B404FF2FF752B40A4
:104190008D8906EA85052B43CD8906EA85052B43E3
:1041A00083800483CD880587028470BD70B50024A8
:1041B00000220023058C4FF6FF6635400584028CF3
:1041C0008388848B4FF68F752C404FF6FC752C40FE
:1041D0000D882C434FF6FF552A400D894FF6FF7688
:1041E00006EA05252A434D8806EA05252A431F4D80
:1041F000A84202D0234DA8421DD14FF2FF752A409C
:104200004D894FF6FF7606EA05252A434FF6FF351E
:104210002A408D8806EA05252A434EF6FF752B4075
:104220004DF6FF752B408D8906EA05152B43CD8988
:1042300006EA05152B4383808483CD888587028415
:1042400070BD70B5002200230024058C4EF6FF7669
:1042500035400584038C8488828B48F6FF752A409C
:104260004FF6FF452A400D8820E00000002C014059
:104270000004004000080040000C00400010004016
:104280000014004000340140004C01400050014047
:104290000054014000180040001C00400020004075
:1042A0000040014000440140004801404FF6FF76C5
:1042B00006EA05252A434DF6FF752B400D8906EACF
:1042C00005352B434D8806EA05352B43FA4DA842A8
:1042D00002D0FA4DA84208D14BF6FF752C408D89CB
:1042E0004FF6FF7606EA85152C4384808283CD88BD
:1042F000A0F84050038470BD828B4FF2FF331A4008
:104300008283828B4FF6FF7303EA01231A43828371
:104310007047F0B50C461546002200210026078C98
:104320004EF6FF7C07EA0C070784828B018C4FF660
:10433000FF7707EA043640F6FF473A404FF6FF772B
:1043400007EA05273A434FF6FF7707EA03373A4370
:10435000D94FB8420ED0D94FB8420BD0B0F1804FF0
:1043600008D0D74FB84205D0D64FB84202D0D64F6A
:10437000B84206D14DF6FF77394046F480573943AD
:1043800005E047F6FF57394044F4805739438283AC
:104390000184F0BD828B4FF6F3731A408283828BC7
:1043A0000A4382837047F0B50C461546002200216F
:1043B0000026078C4FF6FF6C07EA0C070784828BF8
:1043C000018C4FF6FF7707EA04264FF60C773A4048
:1043D0004FF6FF7707EA03172F433A43B64FB84229
:1043E0000ED0B64FB8420BD0B0F1804F08D0B44FCA
:1043F000B84205D0B34FB84202D0B34FB84206D14D
:104400004FF6FF57394046F48077394305E04FF2C5
:10441000FF57394044F48077394382830184F0BDEB
:10442000028B4FF2FF331A400283028B4FF6FF7369
:1044300003EA01231A4302837047F0B50C46154680
:10444000002200210026078C4FF6EF7C07EA0C07BC
:104450000784028B018C4FF6FF7707EA041640F6BB
:10446000FF473A404FF6FF7707EA03373A434FF6E4
:10447000FF7707EA05273A438F4FB8420ED08F4F98
:10448000B8420BD0B0F1804F08D08D4FB84205D064
:104490008C4FB84202D08C4FB84206D14FF6DF772E
:1044A000394046F01007394305E04FF65F77394051
:1044B00044F01007394302830184F0BD028B4FF6AC
:1044C000F3731A400283028B0A4302837047F0B5EC
:1044D0000C46154600220021068C4FF6FE773E4022
:1044E0000684028B018C4FF60C7632407E1C06EA65
:1044F00003162E433243704EB0420ED06F4EB04280
:104500000BD0B0F1804F08D06D4EB04205D06D4E4B
:10451000B04202D06C4EB04206D14FF6FD7631402B
:1045200044F00106314305E04FF6F576314044F0A2
:104530000106314302830184F0BD70B505460C4687
:104540005D4885420ED05D4885420BD0B5F1804F65
:1045500008D05B48854205D05A48854202D05A4867
:10456000854200D100E000BF208850B92389A2888D
:1045700061882846FFF7ABFFE1882846FFF79EFFDA
:1045800025E0208804280AD12389A288618828464A
:10459000FFF753FFE1882846FFF742FF17E0208826
:1045A00008280AD12389A28861882846FFF7FBFEE4
:1045B000E1882846FFF7EEFE09E02389A28861889A
:1045C0002846FFF7A6FEE1882846FFF795FE70BD56
:1045D0002DE9F04105460C4600260127608808B900
:1045E000022600E00026A088012801D1022700E071
:1045F00001272088A0B92389A28861882846FFF76F
:1046000066FFE1882846FFF759FF23893A4631467D
:104610002846FFF712FFE1882846FFF701FF13E065
:104620002389A28861882846FFF707FFE18828468A
:10463000FFF7F6FE23893A4631462846FFF747FF43
:10464000E1882846FFF73AFFBDE8F0810A884B88E9
:104650001A438B881A43CB881A430B891A434B8918
:104660001A438B891A43A0F8442070474FF6FF7114
:10467000818000210180C18041800172704700214A
:10468000018041808180C180018141818181C1811E
:104690007047002101804180012181800021C1807B
:1046A000018170470021018041808180C1800181AA
:1046B0004181818170470000002C0140003401409D
:1046C0000004004000080040000C004021B10288B6
:1046D00042F00102028004E002884FF6FE731A40A5
:1046E0000280704731B1B0F8442042F40042A0F893
:1046F000442005E0B0F84420C2F30E02A0F84420A4
:1047000070471AB183890B43838102E083898B430D
:10471000838170478182704741EA0203A0F84830E4
:1047200070471AB183890B43838102E083898B43ED
:104730008381704701894FF6F872114001817047FB
:104740000A46002101894FF68F73194011430181F8
:10475000704730B504460D4629462046FFF7F0FF66
:10476000208940F00700208130BD2DE9F04104464A
:104770000D4616461F46602D06D13B4601223146A6
:104780002046FFF75AFE05E03B460122314620460F
:10479000FFF79DFE29462046FFF7D2FF208940F013
:1047A00007002081BDE8F08130B50C460021018969
:1047B000C9B24FF6FF7505EA032515432543294382
:1047C000018130BD2DE9F04105460E461746984659
:1047D000002443463A4631462846FFF7E5FF2C8938
:1047E0004FF6F870044044F007044FF68F70044011
:1047F00044F070042C81BDE8F081F0B504460D460C
:1048000016461F463B46324629462046FFF7CCFF58
:10481000208940F480402081F0BD0185828270476C
:104820000A46002101884FF68F7319401143018019
:104830007047F0B50C4615461E46002100220023A5
:104840000189028B038C4FF6F877394021434FF6EC
:10485000FC473A4040F201173A434FF6DD773B40C0
:104860004FF6FF7707EA06172F433B430181028388
:104870000384F0BD0A460021018B4FF68F73194067
:104880001143018370470A460021018B48F6FF73EC
:1048900019404FF6FF7303EA02231943018370475F
:1048A0000A460021818B4FF68F7319401143818393
:1048B00070470A460021818B48F6FF7319404FF676
:1048C000FF7303EA022319438183704721B10288F1
:1048D00042F08002028004E002884FF67F731A40A3
:1048E0000280704721B1828842F00402828004E095
:1048F00082884FF6FB731A408280704721B182880C
:1049000042F00802828004E082884FF6F7731A4072
:104910008280704721B1828842F00102828004E0E7
:1049200082884FF6FE731A40828070470A46002143
:10493000018B4FF6F77319401143018370470A4604
:104940000021018B4FF2FF7319404FF6FF7303EA0A
:1049500002231943018370470A460021818B4FF6D9
:10496000F77319401143818370470A460021818BF8
:104970004FF2FF7319404FF6FF7303EA0223194306
:10498000818370470A460021018B4FF6FB73194063
:104990001143018370470A460021018B4FF6FF3314
:1049A00019404FF6FF7303EA02231943018370474E
:1049B0000A460021818B4FF6FB7319401143818316
:1049C00070470A460021818B4FF6FF3319404FF69E
:1049D000FF7303EA02231943818370470A460021CB
:1049E000018B4FF67F7319401143018370470A46CC
:1049F0000021018BC1F30E014FF6FF7303EA02237E
:104A00001943018370470A460021818B4FF67F735B
:104A100019401143818370470A460021818BC1F3FD
:104A20000E014FF6FF7303EA022319438183704797
:104A30000A460021018C4FF6FD7319401143018491
:104A400070470A460021018C4FF6F7731940114355
:104A5000018470470A460021018C4FF6DF7319402C
:104A60004FF6FF7303EA02131943018470470A46A5
:104A70000021018C4FF67F7319404FF6FF7303EA54
:104A800002131943018470470A460021018C4FF636
:104A9000FF5319404FF6FF7303EA022319430184C1
:104AA00070470A460021018C4FF2FF7319404FF600
:104AB000FF7303EA02231943018470470A46002169
:104AC000018C4DF6FF7319404FF6FF7303EA023372
:104AD00019430184704730B5002301248C40A3B2F0
:104AE000048C9C430484048C02FA01F5ADB22C437F
:104AF000048430BD30B5002304248C40A3B2048C60
:104B00009C430484048C02FA01F5ADB22C43048466
:104B100030BD70B50346002000241846183001252A
:104B20008D40ACB21D8CA5431D8409B1082909D163
:104B300000EB6100056825F0700505600568154308
:104B400005600EE00D1FC5F34E052844056825F4E9
:104B5000E045056005684FF6FF7606EA0226354314
:104B6000056070BD21B1028842F00202028004E0BB
:104B700002884FF6FD731A400280704721B1028807
:104B800042F00402028004E002884FF6FB731A40F0
:104B90000280704721B1828842F08002828004E066
:104BA00082884FF67F731A408280704702884FF6E2
:104BB000F7731A40028002880A4302807047828895
:104BC0004FF68F731A40828082880A438280704732
:104BD00002894FF6F8731A40028102890A43028162
:104BE000704702894FF67F731A40028102890A4397
:104BF0000281704781847047818570478186704744
:104C00000187704781877047A0F84010704702887D
:104C10004FF6FF431A40028002880A430280704721
:104C20000146888E70470146088F70470146888F7D
:104C300070470146B1F8400070470146888C7047C4
:104C40000146088D704702460020138A0B400BB1C5
:104C5000012000E000207047CA430282704730B54F
:104C60000246002000230024158A05EA01039589E5
:104C700005EA010413B10CB1012000E0002030BDB1
:104C8000CA430282704700007CB5002514E06946E3
:104C9000284601F013FE064666B9F74850F825404D
:104CA00044B1012C06D0D4E9020100EB810060641C
:104CB0000198A064681CC5B23F2DE8D97CBD0024D2
:104CC00000BF02E0282001F003FFEC480078002834
:104CD000F8D0EB4800686421B0FBF1F0E8490860C7
:104CE0000846006828B90020E6490870FF2001F056
:104CF00027FE00BF01F0C4FF0446E3480068E34913
:104D000008600020E0490860204601F0BDFFDF4850
:104D10000068DB490968B0FBF1F0C0F16400D949D3
:104D2000087002F00CF8FFF7AFFF142001F0D0FE7E
:104D3000E0E700B587B0032000218022D44BCDE905
:104D40000132CDE903104FF6FE703E23D14A0090A8
:104D5000AFF2950001F0CBFB06AACFA13E2001F0F7
:104D60002FFD07B000BD002400BF00BF01F088FF89
:104D70000446C5480068401CC3490860204601F04D
:104D800083FF01F0DBFFF1E700B587B003200021CE
:104D90008022C54BCDE90132CDE903104FF6FF70FB
:104DA0003F23C24A0090AFF2410001F0A0FB06AAE7
:104DB000BFA13F2001F004FD07B000BD04E00022C8
:104DC00000F8012B4A1E91B20029F8D1704770B546
:104DD000C821BB48FFF7F2FF00230FE0581C85B243
:104DE00003EB8300B64901EB800405EB850001EB82
:104DF0008006002020706660581C83B2092BEDD31A
:104E000003EB8300AE4901EB80040020207060605A
:104E10000846AC49086070BD70B54FF47C71AA4873
:104E2000FFF7CCFF4FF480719348FFF7C7FF0024D2
:104E300013E0601CC5B2C4EBC40000EB4000A24903
:104E400001EB8003C5EBC50000EB400001EB8006E1
:104E50005E619EA0D864601CC4B20B2CE9D3C4EB85
:104E6000C40000EB4000984901EB8003002058612A
:104E700096A0D86400209649086093489549086038
:104E800070BD0021944A1170002004E00021934A73
:104E90001154411CC8B20828F8D30021904A11705F
:104EA000904A1170904A1160904A1160704700203A
:104EB0008F4908608F4908708F4908708F490870C2
:104EC0008F4908708F4908606F4908606F49086012
:104ED0006B49086069490870704710B501F02AFFF6
:104EE000FFF7E5FFFFF7CDFFFFF796FFFFF76FFF37
:104EF00000F0EAFE01F0E1F9FFF746FFFFF719FFC6
:104F000001F019FF10BD7E480078012808D17948CA
:104F10000078FF2804D277480078401C7549087053
:104F2000704779496C4A1278885C6C49095C764A0A
:104F3000515C01EBC0016B4A1170704710B5002441
:104F40006F480078012830D101F09AFE0446694884
:104F5000007820B167480078401E664908706548AF
:104F60000078F8B964480078E0B9FFF7DAFF424802
:104F70005C49097850F821005B490860594800787D
:104F80005749097888420DD057480068806B401C0B
:104F90005549096888635B480068401C59490860A6
:104FA00001F08DFE204601F06FFE10BD10B500240B
:104FB00053480078012811D101F062FE04464D48A3
:104FC000007840B94C480078FF2804D24A4800785D
:104FD000401C49490870204601F056FE10BD10B52E
:104FE000002401F04DFE044642480078F8B94248DA
:104FF0000078E0B9FFF795FF1F483A49097850F863
:1050000021003949086037480078354909788842D5
:105010000DD035480068806B401C334909688863AF
:1050200038480068401C3749086001F041FE2046BE
:1050300001F02AFE10BD10B5002431480078012887
:105040006FD101F01DFE04462B48007880B12A483C
:105050000078401E284908700846007848B925485D
:10506000007838B9204601F00FFEFFF7B8FF58E08E
:1050700054E04FE04AE000008C0C00204C0000207F
:1050800044000020400000205C0000204800002078
:105090008C080020880A002075432F4F532D494962
:1050A00020537461740000008C0A0020880C0020DA
:1050B00075432F4F532D49492049646C650000000A
:1050C00074070020380000208C0D00203F000000F5
:1050D0006C000020640000205100002052000020DD
:1050E0004F000020500000206800002060000020D9
:1050F000780000204D0000204E0000205B000020C2
:105100005A000020340000207A890008204601F06F
:10511000BBFD06E0204601F0B7FD02E0204601F0AD
:10512000B3FD10BD10B5EB48007890B9FFF7F9FE5C
:10513000E9480078E9490870E948E749097850F8F2
:105140002100E849086008460068E749086001F066
:105150009EFD10BD10B50024022001F0B9FC01F045
:105160008FFD04460020E1490860204601F08CFDD7
:10517000142001F0ADFC01F083FD0446DB4800681B
:10518000DB4908600120DB490870204601F07CFD06
:1051900010BD70B5002601F022FE01F071FD06463B
:1051A000D5480068401CD4490860304601F06CFDC9
:1051B000C8480078012853D1D048007820B1012890
:1051C00004D0022809D103E001250BE0002509E005
:1051D00001250120C949087004E001250020C749C4
:1051E000087000BF00BF05B970BDC548046833E052
:1051F00001F046FD0646E06A50B3E06A401EE062F8
:10520000E06A28BB94F8300000F0370040B114F891
:10521000300F00F0C800207001206070303C02E0C8
:10522000002084F8310094F8300000F0080078B9CC
:105230003434A078B34909780843B249087020781B
:10524000B149085C6178084314F83419AE4A5054E7
:105250006469304601F018FD94F832003F28C7D148
:1052600000BFC1E740F223107047704710B590F8B7
:10527000342001F10B039B5C90F83540A34301F10E
:105280000B04A35423469B5C23B98B7A90F83640D9
:10529000A3438B7210BD2DE9F04F05460F46904693
:1052A0009946A87A99490E5C05F10B00805D11F8CA
:1052B00000B00BEBC60000F0FF0A894850F82A4006
:1052C00000202034E0602760207C20EA0800207461
:1052D00084F81190207C203C00F0080068B994F814
:1052E0003600884909780843864908708648805DF9
:1052F00094F8351008438449885529462046FFF71D
:10530000B5FF5046BDE8F08F10B5774A1268D061FE
:10531000754A126892F8343000F10B02D25C724B7D
:105320001B6893F835301A436F4B1B6893F8344071
:1053300000F10B031A55827A6B4B1B6893F83630D9
:105340001A438272684A126892F834106E4A525CAC
:10535000654B1B6893F835309A436B4B5A541A4689
:10536000525C42B9604A126892F83630654A127847
:105370009A43644B1A7010BD014600228A720020C5
:1053800005E0002301F10B021354421CD0B208289F
:10539000F7D3704705E011F8013B00F8013B531EBD
:1053A0009AB2002AF7D170470146002002E0491C5A
:1053B000421CD0B20A78002AF9D170472DE9F84F83
:1053C00005460F4690469946DDE90AAB002000905D
:1053D00001F056FC00904E480468002C75D018343B
:1053E00054F8040C4A490860009801F04DFC44F858
:1053F000187CA576002020766076606144F814BCA5
:1054000044F80CAC44F8108C0C9824F8080C24F8E0
:10541000069C0020E077E810207705F00700E07692
:10542000217F01208840A077E17E012088406077BD
:1054300000206060E060A0602062A0626062E062C4
:105440002063AFF278306063183C002606E000214C
:1054500004F1500040F82610701CC6B2002EF6D0A1
:10546000204601F0BBFC204601F066FC01F008FC80
:1054700000901B4840F825402148006860610020EA
:10548000A0611F48006810B11D48006884611C4875
:1054900004603434A0781B4909780843194908701E
:1054A00020781949085C6178084314F83419164AC1
:1054B000505418480078401C16490870009801F0B4
:1054C000E3FB0020BDE8F88FFFE7009801F0DCFB6C
:1054D0004220F7E75A000020500000204F00002033
:1054E0008C0C002068000020600000205C00002080
:1054F000440000204C0000207800002070000020B4
:105500006C00002051000020520000207A89000821
:10551000640000205B0000202DE9F05F04460F4688
:1055200091461E464FF0000B2078052804D001203C
:1055300030700020BDE8F09F09F0800ABAF1000F3A
:1055400004D029F080094FF0010801E04FF0000875
:105550000020307001F094FB8346B9F1000F2CD08D
:10556000B9F1010F3BD0B9F1020F03D0B9F1030F2C
:1055700046D111E0208900EA0705BD4206D1B8F105
:10558000010F05D12089A843208101E070203070EF
:10559000584601F079FB3AE0208900EA070535B169
:1055A000B8F1010F05D12089A843208101E07020C6
:1055B0003070584601F068FB29E0208927EA000591
:1055C000BD4206D1B8F1010F05D1208928432081C1
:1055D00001E070203070584601F056FB17E020893A
:1055E00027EA000535B1B8F1010F05D1208928431C
:1055F000208101E070203070584601F045FB06E044
:10560000584601F041FB00256F20307000BF00BFFD
:1056100028468FE72DE9F04106460D460027FA4857
:10562000007820B1102028700020BDE8F08101F042
:1056300027FB0746F548046884B100684068F349D1
:10564000086005202070268100206060F0A0E060E6
:10565000384601F019FB0020287004E0384601F0BC
:1056600013FB722028702046DFE730B501464A68F8
:1056700008682AB9CC68606028B10025456002E05E
:10568000106000B142608B6800255D6230BDF0B5EE
:1056900006460F46B4680020283460602780207AD0
:1056A00000F0DF00207200206072207A283C88B968
:1056B0003434A078D74909780843D649087020784F
:1056C000D549085C6178084314F83419D24A50541B
:1056D000012500E000253046FFF7C7FF2846F0BD52
:1056E0002DE9F0470446894615464FF0000AC648A2
:1056F000007820B10F2028702046BDE8F087207880
:10570000052803D0012028702046F6E701F0B8FAFA
:105710008246606808B1012700E00027B9F1000F58
:1057200003D0B9F1010F3CD119E08FB9B8A0E06006
:1057300000202070B5480068606000202081B348D8
:105740000460504601F0A0FA00202870002605E011
:10575000504601F099FA49202870264628E0D4F8EE
:10576000048005E000214046FFF791FFD8F8008053
:10577000B8F1000FF6D1A6A0E06000202070A34889
:105780000068606000202081A0480460504601F05D
:105790007BFA012F01D1FFF722FC002028700026A0
:1057A00006E0504601F070FA07202870264600BF38
:1057B00000BF3046A1E72DE9F04105460E461446EC
:1057C00000279148007820B1112020700020BDE80A
:1057D000F08101F055FA07462878052806D03846AA
:1057E00001F052FA012020700020F0E7E8683060F4
:1057F0003068FFF7D9FD8046384601F045FA0020B1
:1058000020704046E3E72DE9F04105460E46144678
:1058100000277D48007818B112202070BDE8F08183
:1058200001F02EFA07462878052805D0384601F001
:105830002BFA01202070F1E7EE60384601F024FADF
:105840000020207000BFE9E7F0B51446059E734FB5
:105850003F6897F8307047F02007DFF8C0C1DCF8E8
:1058600000C08CF830700027DFF8B0C1DCF800C051
:105870008CF83170694F3F68FE62684F3F6879620B
:105880000C828B74654F3F688F6047680F600027FC
:105890004F60C860456805B1696041605F4F3F680F
:1058A00097F834205C4FBF5CDFF870C1DCF800C0B3
:1058B0009CF835C027EA0C07DFF85CC10CF80270D1
:1058C0006746BF5C5FB9554F3F6897F836C0514F88
:1058D0003F7827EA0C07DFF83CC18CF80070F0BD78
:1058E0002DE9F04F89B005460F4691469A46129E23
:1058F000002002904448007828B102203070002037
:1059000009B0BDE8F08F4648007818B10D2030701E
:105910000020F5E72878052803D00120307000200A
:10592000EEE709F0800BBBF1000F04D009F07F090E
:105930004FF0010801E04FF0000801F0A1F90290DA
:10594000B9F1000F4AD0B9F1010F78D0B9F1020FC7
:1059500003D0B9F1030F71D120E0288900EA0704D0
:10596000BC420FD1B8F1010F02D12889A043288190
:105970002A4800680485029801F086F900203070FA
:105980002046BDE74B463A4604A92846CDF800A07C
:10599000FFF75AFF029801F077F978E0288900EACA
:1059A00007047CB1B8F1010F02D12889A0432881F6
:1059B0001A4800680485029801F066F900203070EA
:1059C00020469DE74B463A4604A92846CDF800A05C
:1059D000FFF73AFF029801F057F958E0288927EAC3
:1059E0000004BC421ED1B8F1010F02D12889204326
:1059F00028810A4800680485029801F045F90020D2
:105A0000307020467CE71AE04D0000203C0000206A
:105A10003F000000510000205200002060000020E4
:105A20004E0000204B463A4604A92846CDF800A077
:105A3000FFF70AFF029801F027F928E01FE0288904
:105A400027EA00047CB1B8F1010F02D12889204374
:105A50002881B14800680485029801F015F90020FA
:105A6000307020464CE74B463A4604A92846CDF80C
:105A700000A0FFF7E9FE029801F006F907E002989E
:105A800001F002F900246F203070204638E700BF93
:105A9000FFF7A5FA01F0F4F802909F48006890F82B
:105AA000310020B39C48006890F83100039000203A
:105AB0009949096881F8310004A8FFF7D6FD002054
:105AC0009549096881F83000029801F0DDF800245A
:105AD0000398012805D0022802D10E20307003E07F
