:020000040800F2
:1000000040280020191200089501000897010008F7
:100010009B0100089F010008A301000800000000E8
:10002000000000000000000000000000A701000820
:10003000A901000800000000AB010008AD010008A4
:10004000331200083312000833120008331200087C
:10005000331200083312000833120008331200086C
:10006000331200083312000833120008331200085C
:10007000331200083312000833120008331200084C
:10008000331200083312000833120008331200083C
:10009000331200083312000833120008331200082C
:1000A000331200083312000833120008331200081C
:1000B000331200083312000833120008331200080C
:1000C00033120008331200083312000833120008FC
:1000D0003312000833120008B5010008331200087B
:1000E00033120008331200083312000833120008DC
:1000F00033120008331200083312000833120008CC
:1001000033120008331200083312000833120008BB
:1001100033120008331200083312000833120008AB
:10012000331200083312000833120008331200089B
:10013000DFF80CD001F05AFF0048004745010008E5
:100140004028002000F06AF900F0E0F900F044FADD
:1001500000F040FB00F080F90AA002F033F900F053
:1001600011FD0DE04FF4FA6000F0ACF94FF47A7035
:1001700000F0A8F900F000FE4FF4FA7000F0A2F9C8
:10018000F0E700000D0A20B2E2CAD4BFAACABC0D33
:100190000A000000704700BFFEE700BFFEE700BF97
:1001A000FEE700BFFEE770477047704710B500F0EC
:1001B0009BF910BD10B540F225511E4801F0ECFD31
:1001C000D8B11C4801F068FDC4B21B48B0F8000863
:1001D000C0F30E0040F2FF7188420EDA1649B1F802
:1001E0000018C1F30E00411C134AB2F8002861F355
:1001F0000E021149A1F800280C5440F224410D4888
:1002000001F0CAFD012814D108210A4801F0BBFD04
:10021000084801F041FD0848B0F8000820F400400B
:1002200000F500400449A1F80008024801F034FD3F
:10023000C4B210BD004400403C0000200CB50020BA
:10024000019000906C48006840F480306A49086072
:1002500000BF6948006800F4003000900198401C1D
:100260000190009818B90198B0F5A06FF1D16248DB
:10027000006800F4003010B10120009001E000207F
:1002800000900098012843D15C48006840F01000BD
:100290005A4908600846006820F0030008600846D4
:1002A000006840F0020008605348406852494860C6
:1002B0000846406848600846406840F480604860EE
:1002C0000846406820F47C1048600846406840F4C6
:1002D000E81048600846006840F08070086000BF81
:1002E0004548006800F000700028F9D04248406896
:1002F00020F00300404948600846406840F0020092
:10030000486000BF3C48406800F00C000828F9D164
:100310000CBD10B5FFF792FF10BD10B53648006850
:1003200040F00100344908600846406834490840FC
:100330003149486008460068324908402E49086043
:100340000846006820F4802008600846406820F4D1
:10035000FE0048604FF41F008860FFF7DAFF4FF09F
:1003600000602949086010BD10B50021002000225E
:10037000214B5B6803F00C0121B1042906D0082948
:1003800028D107E0214B224C236027E01F4B204C53
:10039000236023E0184B5B6803F47010164B5B6816
:1003A00003F48032022303EB904022B9194B4343FC
:1003B000174C23600DE0104B5B6803F4003323B14E
:1003C000144B4343124C236003E0104B4343104C47
:1003D000236003E00D4B0E4C236000BF00BF064BB3
:1003E0005B68C3F303130C4CE15C094B1B68CB4007
:1003F000074C236010BD00000010024000200240A6
:100400000000FFF8FFFFF6FE08ED00E000127A00A2
:100410000000002000093D000400002008B5012173
:10042000042001F095FA0320ADF8000010208DF8AB
:10043000030003208DF802006946064800F0CCFF57
:100440000121044801F077F80221024801F071F817
:1004500008BD00000008014030B5284800684FF48E
:100460007A72B0FBF2F1B1F1807F01D301201DE07F
:1004700021F07F40401E4FF0E022506150170F22C4
:10048000002807DA13071D0E1D4B00F00F04241F70
:100490001D5503E013071C0E1A4B1C5400BF00200F
:1004A0004FF0E022906107201061002008B100BFEA
:1004B000FEE74FF0E020006920F001004FF0E0215E
:1004C000086130BD01B51049009808604FF0E02088
:1004D000006940F001004FF0E021086100BF0A48C8
:1004E00000680028FBD108BD0748006820B1064815
:1004F0000068401E044908607047000000000020AA
:1005000018ED00E000E400E01400002000B585B024
:10051000012144F2040001F01BFA4FF40070ADF821
:10052000100018208DF8130003208DF8120004A984
:10053000274800F051FF4FF48060ADF81000042010
:100540008DF8130004A9224800F046FF4FF4E13073
:1005500000900020ADF80400ADF80600ADF80800EA
:10056000ADF80C000C20ADF80A006946194801F0FE
:1005700096FA012240F22551164801F028FB01228B
:1005800040F22441134801F022FB0121114801F0FF
:1005900012FB05B000BD70B504460D46E1B20D4832
:1005A00001F076FB00BF80210A4801F0DFFB002844
:1005B000F9D0204670BD10B5044600BF2021054883
:1005C00001F0D4FB0028F9D0024801F065FB10BD12
:1005D000000801400038014000B585B00121042029
:1005E00001F0B6F90121480401F0BFF90420ADF88B
:1005F000100018208DF8130003208DF8120004A9B4
:10060000724800F0E9FE0820ADF8100004208DF8D3
:10061000130004A96D4800F0DFFE4FF4165000905F
:100620000020ADF80400ADF80600ADF80800ADF804
:100630000C000C20ADF80A006946654801F02FFA5D
:10064000012240F22551624801F0C1FA012240F234
:1006500024415F4801F0BBFA01215D4801F0ABFA8B
:1006600005B000BDF0B503460D46164600272946E5
:100670000A2E03D0002008702846F0BD33B9302080
:1006800001F8010B002008702846F6E7002B03DA7A
:100690002D2001F8010B5B4242F210720DE093FB3A
:1006A000F2F404B937B104F1300001F8010B04FB96
:1006B000123301270A2092FBF0F2002AEFDC00201F
:1006C00008702846D9E70FB470B586B006460CA866
:1006D000019073E00B9800785C281CD10B98401CAB
:1006E0000B9000786E2809D072280FD10D2130466A
:1006F00001F0CEFA0B98401C0B900BE00A2130461B
:1007000001F0C6FA0B98401C0B9003E00B98401CBC
:100710000B9000BF4BE00B980078252840D10B9838
:10072000401C0B900078642818D0732833D10198AE
:1007300010C801900BE02178304601F0A9FA00BF03
:100740008021304601F012FB0028F9D0641C20788B
:100750000028F0D10B98401C0B9020E0019820C895
:1007600001900A2202A92846FFF77CFF02AC0BE0A9
:100770002178304601F08CFA00BF8021304601F02C
:10078000F5FA0028F9D0641C20780028F0D10B98E5
:10079000401C0B9003E00B98401C0B9000BF06E040
:1007A0000B9810F8011B0B90304601F071FA00BF56
:1007B0008021304601F0DAFA0028F9D00B98007851
:1007C000002887D106B070BC5DF814FB000801401A
:1007D0000044004008B54FF4A06000F02FFD262033
:1007E0008DF8000000208DF801008DF80200012036
:1007F0008DF80300684600F026FD08BD10B50446DC
:10080000012C04D10121FC4800F093FE03E00121FA
:10081000F94800F090FE10BD10B50221F64800F036
:100820008AFE4FF4FA70FFF74DFE0221F24800F005
:1008300080FE10BD2DE9F04106460C4615461F46C8
:10084000EE48B0F800086FF30E00EC49A1F800087C
:100850003246EBA1EC48FFF736FF1CB915B9012071
:10086000BDE8F0813846FFF72DFE0020E349B1F8DE
:100870000018C1F30E01E14A50541146E3A001F003
:10088000A1FDB4B1ADB12146DC4801F0DBFA08B1FD
:10089000012000E0002040B92946D84801F0D2FAF2
:1008A00008B1012000E0002008B10120D8E70020B5
:1008B000D6E744B12146D14801F0C4FA08B101207D
:1008C000CEE70020CCE72946CC4801F0BBFA08B1BE
:1008D0000120C5E70020C3E710B50221C64800F09B
:1008E00028FE40F2DC50FFF7EDFD01E0FFF794FF3A
:1008F000C8230022C6A1C7A0FFF79CFF0028F5D09F
:1009000010BD10B5044624B1012C0AD0022C18D118
:100910000FE040F6C413C0A2BDA1C2A0FFF78AFF3A
:1009200010BD40F6C413BCA2B9A1C1A0FFF782FF5D
:10093000F6E740F6C413B8A2B5A1C0A0FFF77AFF4E
:10094000EEE70020ECE730B59FB004460D462B469D
:100950002246BDA101A801F045FD41F65833002211
:10096000ABA101A8FFF766FF1FB030BD70B5A0B006
:1009700004460D4616462B462246B8A102A800960C
:1009800001F030FD4FF47A730022A1A102A8FFF715
:1009900051FF20B070BD10B586B004460CB10120E7
:1009A00000E000200246B3A101A801F01BFD4FF4B6
:1009B000FA73002296A101A8FFF73CFF06B010BD14
:1009C000F0B5B9B006460F4614461D46642120A86E
:1009D00001F02DFA16B1012E10D107E03B46A9A275
:1009E000A9A120A8009401F0FDFC08E03B46AAA2C2
:1009F000A5A120A8009401F0F5FC00E000BF00BF15
:100A0000052D06DA20AB2A46A4A102A801F0EAFCD3
:100A100004E020AAA6A102A801F0E4FC4FF4FA73B6
:100A2000A7A27BA102A8FFF705FF39B0F0BD70B502
:100A3000BCB004460D461646FCB12B460122A4A1CB
:100A40001EA801F0CFFC3246A6A1684601F0CAFC00
:100A50004FF4FA7300226EA11EA8FFF7EBFE50B10F
:100A60004FF4FA7300226AA16846FFF7E3FE10B163
:100A700001203CB070BD0020FBE72B46002294A172
:100A80001EA801F0AFFC4FF4FA73002260A11EA86B
:100A9000FFF7D0FEEDE710B54FF4FA7300225CA12A
:100AA00094A0FFF7C7FE48B14FF4FA7395A296A140
:100AB00096A0FFF7BFFE08B1012010BD0020FCE7A3
:100AC0002DE9F04186B007460C4615461E464FF00C
:100AD00000082FB122464DA14B48FFF7F4FD1CE062
:100AE000052E06DAAB1C32468BA101A801F07AFC78
:100AF00004E0AA1C8DA101A801F074FC4FF47A73E4
:100B000000228EA101A8FFF795FE4FF47A73002210
:100B10008BA12046FFF78EFE8046404606B0BDE81A
:100B2000F08170B5044600253448B0F800086FF332
:100B30000E003249A1F800080846B0F8000820F479
:100B40000040A1F8000800BF2C48B0F80008C00B16
:100B50000028F9D000202949B1F80018C1F30E018E
:100B6000264A505434B167A1104601F06BF938B1F0
:100B7000224D05E074A1214801F064F900B11F4D38
:100B8000284670BD70B59CB0642103A801F04FF9F0
:100B900000260120FFF732FEFFF79EFE0020FFF740
:100BA000B0FE41F28833002219A169A0FFF742FE8E
:100BB00000BF6A4801F006FC03A914A001F076F911
:100BC00067A001F0FFFB03AD002606E03046711C74
:100BD000CEB201A941F82040002566A1284601F0C7
:100BE00043F9041EF2D1DDE90101FFF7ACFE002854
:100BF000DFD01CB070BD0000000801403C000020A8
:100C000025730D0A00000000004400402573000019
:100C10004F4B0000415400006E6F206368616E67A7
:100C20006500000041542B43574D4F44453D310072
:100C300041542B43574D4F44453D320041542B43C3
:100C4000574D4F44453D330041542B43574A415083
:100C50003D222573222C22257322000041542B4370
:100C6000575341503D222573222C222573222C31CB
:100C70002C25730041542B4349504D55583D256454
:100C80000000000054435000222573222C222573BB
:100C9000222C2573000000005544500041542B4382
:100CA000495053544152543D25642C257300000093
:100CB00041542B43495053544152543D2573000035
:100CC000414C5245415920434F4E4E45435400003C
:100CD00041542B4349505345525645523D25642CAF
:100CE0002573000041542B43495053544F3D257305
:100CF0000000000041542B4349504D4F44453D31C5
:100D0000000000003E0000000D0A000041542B438B
:100D1000495053454E44000041542B4349505345DC
:100D20004E443D25642C25640000000041542B43B3
:100D3000495053454E443D25640000003E200000CC
:100D400053454E44204F4B002B49504400000000B7
:100D500041542B43574C41500000000030260008FE
:100D60000D0AC9D4B5C8C6ACBFCC20A1ADA1AD0D8C
:100D70000A0000002C00000070B54FF4FA73002246
:100D8000AFF27411B6A0FFF755FD4FF47A70FFF77C
:100D900099FB00BFB548B0F800086FF30E00B349E7
:100DA000A1F80008002404E00020B0490855601CA8
:100DB00084B2B4F5006FF7DBADA2AFF2BC11B64858
:100DC000FFF781FC4FF47A70FFF77CFB0020A74906
:100DD000B1F80018C1F30E01A44A50541146AFF205
:100DE000D41001F0EFFAAFF2D811A04801F02AF8C0
:100DF00008B1012600E00026AFF23C119B4801F04B
:100E000021F808B1012000E0002046EA0005A3A176
:100E1000964801F017F808B1012000E0002000B169
:100E20000025002DB6D04FF4FA730022AFF2202136
:100E3000AFF24010FFF7FEFC4FF4FA73AFF23C1232
:100E4000AFF23C11AFF23C10FFF7F4FC0523002297
:100E500094A10120FFF734FE052300229EA101206A
:100E6000FFF72EFE05230022A2A10120FFF728FE96
:100E700005230022A4A10120FFF722FE0523002262
:100E80009BA10120FFF71CFE7848B0F800086FF323
:100E90000E007649A1F800084FF49660FFF712FBA8
:100EA00000207249B1F80018C1F30E016F4A505486
:100EB0001146AFF2A82001F085FA70BD70B59AB066
:100EC0000546642101A800F0B2FF012D02D0022DD9
:100ED0000CD105E091A29CA101A801F083FA06E0E3
:100EE000A5A299A101A801F07DFA00E000BF00BF12
:100EF0004FF4FA730022AFF2E82159A0FFF79AFCF1
:100F00004FF4FA70FFF7DEFA00BF5848B0F8000857
:100F10006FF30E005549A1F80008002404E00020FA
:100F200052490855601C84B2B4F5806FF7DB9DA26E
:100F3000AFF234315848FFF7C6FB4FF47A70FFF731
:100F4000C1FA00204949B1F80018C1F30E01474A1F
:100F500050541146AFF24C3001F034FAAFF2503138
:100F6000424800F06FFF08B1012000E0002048B9BE
:100F7000AFF2B4213D4800F065FF08B1012000E068
:100F8000002008B1012000E00020064643A13748B8
:100F900000F058FF08B1012000E0002000B1002659
:100FA000002EB2D04FF4FA730022AFF29C31AFF2B0
:100FB000BC20FFF73FFC4FF4FA73AFF2B8224CA10C
:100FC000AFF2B820FFF736FC0523002201A901206B
:100FD000FFF776FD052300227CA10120FFF770FDBD
:100FE0000523002243A10120FFF76AFD052300220B
:100FF0007DA10120FFF764FD0523002242A101200D
:10100000FFF75EFD0523002239A10120FFF758FDFF
:101010001648B0F800086FF30E001449A1F8000854
:1010200040F6B830FFF74EFA00201049B1F800182A
:10103000C1F30E010D4A50541146AFF2304001F099
:10104000C1F92BA001F0BEF9AFF23C41074800F016
:10105000F9FE10B16AA001F0B5F91AB070BD000038
:1010600041542B4349504D55583D30003C00002021
:1010700041542B43495053544152543D2254435000
:10108000222C223139322E3136382E3139312E325E
:10109000222C383038300000004400404552524F76
:1010A00052000000474554202F4C696272617279EA
:1010B000536561745365727665722F736561744907
:1010C0006E666F3F726F6F6D3D3120485454502FE4
:1010D000312E310D0A000000486F73743A20313907
:1010E000322E3136382E3139312E323A38303830CE
:1010F0000D0A0000557365722D4167656E743A20C4
:101100006162630D0A000000436F6E6E656374696F
:101110006F6E3A20636C6F73650D0A007573723DD4
:101120006A756E652670617373776F72643D3139CD
:10113000393230323131267265715F747970653DB4
:101140005357495045000000474554202F4C6962D1
:1011500072617279536561745365727665722F7529
:101160007372496E666F3F257320485454502F3177
:101170002E310D0A000000007573723D736F6C61B3
:10118000722670617373776F72643D313939323012
:10119000323131267265715F747970653D535749FC
:1011A0005045000041542B43495053544152543D43
:1011B00022544350222C223139322E3136382E31EE
:1011C00039312E33222C383038300000486F737498
:1011D0003A203139322E3136382E3139312E333AE8
:1011E000383038300D0A0000436F6E74656E742D10
:1011F0004C656E6774683A2033380D0A00000000B1
:101200006C6F6720696E20737563636573736675B1
:101210006C6C790D0A0000000648804706480047BC
:10122000FEE7FEE7FEE7FEE7FEE7FEE7FEE7FEE796
:10123000FEE7FEE71B0300083101000831490143C6
:10124000314A1160704770B5002100230F22C47825
:1012500004B32D4C246804F4E064C4F5E064210A6E
:10126000C1F10403CA40447804FA03F184781440BD
:1012700021430901254C0678A155047804F01F0587
:101280000124AC4005786D11AD0005F1E025C5F8ED
:10129000004109E0047804F01F050124AC401C4D16
:1012A0000678761145F8264070BD1A4A0A40024376
:1012B000154B1B1F1A60704739B1134A121D126873
:1012C0000243114B1B1D1A6006E00F4A121D1268E3
:1012D00082430D4B1B1D1A607047042808D14FF044
:1012E000E021096941F004014FF0E022116107E0BB
:1012F0004FF0E021096921F004014FF0E022116173
:10130000704700000000FA050CED00E000E400E08A
:1013100080E100E080FFFF1F10B50446CC48844206
:1013200008D10121042000F02DFB0021042000F051
:1013300029FB46E0C748844208D10121082000F07B
:1013400021FB0021082000F01DFB3AE0C248844246
:1013500008D10121102000F015FB0021102000F021
:1013600011FB2EE0BD48844208D10121202000F06D
:1013700009FB0021202000F005FB22E0B848844250
:1013800008D10121402000F0FDFA0021402000F0AA
:10139000F9FA16E0B348844208D10121802000F018
:1013A000F1FA0021802000F0EDFA0AE0AE48844214
:1013B00007D10121801500F0E5FA0021A01500F009
:1013C000E1FA10BD10B50121084600F0DBFA00215A
:1013D000012000F0D7FA10BD2DE9F04102460025AA
:1013E0000026002000230024002791F803C00CF001
:1013F0000F0591F803C00CF0100CBCF1000F03D0E6
:1014000091F802C04CEA050591F800C0BCF1000F4C
:1014100031D0146800202BE04FF0010C0CFA00F3DF
:10142000B1F800C00CEA03069E4220D183004FF0C1
:101430000F0C0CFA03F7BC4305FA03FC4CEA040456
:1014400091F803C0BCF1280F06D14FF0010C0CFA43
:1014500000FCC2F814C00AE091F803C0BCF1480FC8
:1014600005D14FF0010C0CFA00FCC2F810C0401C72
:101470000828D1D31460B1F800C0BCF1FF0F34DDEF
:10148000546800202EE000F1080C4FF0010808FA23
:101490000CF3B1F800C00CEA03069E4221D1830090
:1014A0004FF00F0C0CFA03F7BC4305FA03FC4CEAAF
:1014B000040491F803C0BCF1280F05D100F1080C19
:1014C00008FA0CF8C2F8148091F803C0BCF1480F78
:1014D00007D100F1080C4FF0010808FA0CF8C2F827
:1014E0001080401C0828CED35460BDE8F0814FF630
:1014F000FF710180022181700421C1707047024692
:10150000002093680B400BB1012000E000207047E1
:101510000146886880B2704702460020D3680B40BD
:101520000BB1012000E0002070470146C86880B27E
:10153000704701617047416170470AB1016100E085
:1015400041617047C16070474FF480320A43826145
:101550008161826182698269704702460020434B43
:1015600018684FF68073184040EA021008433F4B5A
:10157000186070473E49C8617047F0B50A460023BD
:1015800000240021002500F00046B6F1004F02D1F2
:10159000364EF16901E0354E7168C0F3034583B200
:1015A00000F44016B6F5401F08D121F070612F4EAF
:1015B000766826F070662D4F7E6012E000F480168B
:1015C000B6F5801F06D1032606FA05F4A14341F0C3
:1015D000706106E0460D360103FA06F6B14341F0AC
:1015E000706122B1460D360103FA06F6314300F070
:1015F0000046B6F1004F02D11C4EF16101E01B4ED6
:101600007160F0BD30B500228B071C0F0F2303FA69
:1016100004F2164B08338C1053F824309343134CC8
:1016200008348D1044F8253023468C1053F82430AC
:101630008C07240F00FA04F423430C4C08348D105B
:1016400044F8253030BD0A49DC310860704700009D
:1016500000080140000C014000100140001401404E
:1016600000180140001C0140002001400000014022
:1016700000002042DF48006840F00100DD490860BA
:1016800008464068DC490840DA4948600846006876
:10169000DA490840D74908600846006820F48020ED
:1016A00008600846406820F4FE0048604FF41F00C0
:1016B00088607047CF49096821F48031CD4A1160B4
:1016C0001146096821F480211160B0F5803F03D0F4
:1016D000B0F5802F0ED106E0C649096841F480318B
:1016E000C44A116007E0C349096841F4A021C14A16
:1016F000116000E000BF00BF704710B50146002236
:10170000002300204A11012A02D1BA4C236806E0C6
:10171000022A02D1B74C236A01E0B64C636A01F099
:101720001F02012494401C400CB1012000E0002065
:1017300010BD38B5002000900024002500BF3120E6
:10174000FFF7DBFF05460098401C00900098B0F5BD
:10175000A06F01D0002DF2D03120FFF7CEFF08B1ED
:10176000012400E00024204638BD01460020A14AA3
:10177000106820F0F80040EAC10010607047A049EE
:1017800008607047024600209A4B586820F47C108D
:1017900042EA01031843974B58607047984908661E
:1017A000704701460020934A506820F00300084328
:1017B000506070478F48406800F00C007047014649
:1017C00000208C4A506820F0F000084350607047B9
:1017D00001460020874A506820F4E06008435060CA
:1017E000704701460020834A506820F4605040EA68
:1017F000C1005060704729B17E4A527A02437D4B46
:101800005A7204E07B4A527A82437A4B5A7270478A
:101810007B49D8310860704701460020754A5068FE
:1018200020F440400843506070470021714A203244
:101830001170704A82F82010012802D004280AD1C1
:1018400004E001216B4A2032117005E00521694A4C
:101850002032117000E000BF00BF70476949086086
:1018600070476449096A0143624A116270476549D9
:1018700044390860704730B500210022002400235D
:101880005C4D6D6805F00C0121B1042905D00829D3
:1018900023D105E05C4D056022E05B4D05601FE053
:1018A000544D6D6805F47012524D6D6805F4803426
:1018B000022505EB92421CB9544D554305600BE0DF
:1018C0004C4D6D6805F400351DB1504D5543056014
:1018D00002E04D4D5543056002E04B4D056000BFF1
:1018E00000BF444D6D6805F0F0010909484D6B5C7F
:1018F0000568DD4045603F4D6D6805F4E061090A0B
:10190000434D6B5C4568DD4085603A4D6D6805F47C
:101910006051C90A3E4D6B5C4568DD40C560354D80
:101920006D6805F44041890B3A4D6B5CC568B5FBA9
:10193000F3F5056130BD29B12E4A526902432D4BA2
:101940005A6104E02B4A526982432A4B5A6170471C
:1019500029B1284A92690243264B9A6104E0254A3C
:1019600092698243234B9A61704729B1214AD26917
:101970000243204BDA6104E01E4AD26982431D4BC8
:10198000DA61704729B11B4AD2680243194BDA6009
:1019900004E0184AD2688243164BDA60704729B1D6
:1019A000144A12690243134B1A6104E0114A126986
:1019B0008243104B1A6170471249403908607047E2
:1019C0000F49C86470470B49C87170470948406A9D
:1019D00040F0807007494862704701460020054A80
:1019E00092680A400AB1012000E0002070470149D6
:1019F00088727047001002400000FFF8FFFFF6FEFB
:101A0000000042428004424200127A0000093D0078
:101A1000180000202800002010B50446FB4884422E
:101A200009D101218803FFF7ADFF00214FF4804069
:101A3000FFF7A8FF32E0F648844209D101214804AB
:101A4000FFF7ADFF00214FF40030FFF7A8FF25E0BE
:101A5000F048844209D101218804FFF7A0FF00214A
:101A60004FF48020FFF79BFF18E0EB48844209D138
:101A70000121C804FFF793FF00214FF40020FFF776
:101A80008EFF0BE0E548844208D101210805FFF7ED
:101A900086FF00214FF48010FFF781FF10BD2DE974
:101AA000F04786B005460E460024A24600BFA14678
:101AB0000027B08900B100BF2F462C8A4CF6FF707A
:101AC0000440F08804432C82AC894EF6F3100440A5
:101AD000B08831890843718908430443AC81AC8ADA
:101AE0004FF6FF400440B0890443AC8201A8FFF7E1
:101AF000C2FEC648874202D1DDF810A001E0DDF841
:101B00000CA0A88900F4004040B10AEBCA0000EB29
:101B10000A1031684900B0FBF1F807E00AEBCA008F
:101B200000EB0A1031688900B0FBF1F86420B8FBC3
:101B3000F0F004012009642101FB1089A88900F458
:101B4000004040B1322000EBC900B0FBF1F000F0E2
:101B50000700044308E0322000EB09106421B0FBC9
:101B6000F1F000F00F0004432C8106B0BDE8F087CF
:101B70004FF41651016000218180C18001810C2148
:101B8000418100218181704710B502460020108AF2
:101B90004FF2FF0318400B884C8823438C88234363
:101BA000CC8823431843108210BD0021018041805E
:101BB0008180C180704721B1828942F400528281C4
:101BC00004E082894DF6FF731A4082817047F0B5B8
:101BD0000346002400260025002040F66A17B9427B
:101BE00000D100BF1846C1F3421401F01F060127BF
:101BF00007FA06F5012C01D10C3004E0022C01D1CA
:101C0000103000E014301AB107682F43076002E07B
:101C10000768AF430760F0BD1AB1838A0B43838224
:101C200002E0838A8B4383827047028A4FF6F07307
:101C30001A400282028A0A430282704782894FF266
:101C4000FF731A40828182890A438281704721B1E1
:101C5000828942F00202828104E082894FF6FD739C
:101C60001A4082817047028A4FF6DF731A4002825F
:101C7000028A0A430282704721B1028A42F48042FA
:101C8000028204E0028A4BF6FF731A400282704718
:101C9000C1F308028280704701468888C0F30800BB
:101CA0007047818941F0010181817047028BD2B276
:101CB0000283028B42EA012202837047028B02F404
:101CC0007F420283028B0A430283704721B1828ADA
:101CD00042F02002828204E0828A4FF6DF731A40CB
:101CE0008282704721B1828A42F01002828204E02F
:101CF000828A4FF6EF731A408282704721B1828A3E
:101D000042F00802828204E0828A4FF6F7731A409A
:101D10008282704721B1828942F40042828103E0CD
:101D20008289C2F30E028281704721B1828A42F415
:101D30000062828204E0828A4FF2FF731A4082823C
:101D40007047828A4FF6FB731A408282828A0A4366
:101D50008282704721B1828A42F00202828204E0CC
:101D6000828A4FF6FD731A40828270470246002035
:101D7000B1F5007F00D100BF13880B400BB10120EB
:101D800000E00020704701F40072B2F5007F00D13E
:101D900000BFCA430280704770B50246002400238A
:101DA0000025002040F66A16B14200D100BFC1F301
:101DB000421501F01F03012606FA03F3012D02D19B
:101DC0009689334006E0022D02D1168A334001E0A5
:101DD000968A33400C12012606FA04F41688344021
:101DE00013B10CB1012000E0002070BD10B500223D
:101DF000002340F66A14A14200D100BF0A12012458
:101E00009440A3B2DC43048010BD000000380140C0
:101E10000044004000480040004C0040005000409A
:101E2000D2B201E000F8012B491EFBD2704700221C
:101E3000F6E710B513460A4604461946FFF7F0FFC9
:101E4000204610BD30B505462A460B4612F8010B58
:101E500013F8014B08B1A042F8D01CB1002802D001
:101E60006D1CF1E7284630BD70B50F4D00B92868EC
:101E7000002412E00A4602E09E4203D0521C13786E
:101E8000002BF9D1DAB2224305D02BB124B10021C5
:101E900000F8011B04E00446401C0678002EE9D13E
:101EA0002860204670BD00002C0000200FB400B553
:101EB00089B00BA800906A4603480A9900F08CF894
:101EC00009B05DF814FB0000300000202DE9FF5F31
:101ED000D2E901A74FF00008916999461446DDF850
:101EE00038B0464601988847054659EA0B0005D0A8
:101EF00009E0A169761C019888470546216A2846B1
:101F000088470028F5D1681C03D05FEACA7005D065
:101F100015E04FF0FF3004B0BDE8F09F2068011DD0
:101F20002160D0F800800AE05FEACA7001D108F8A9
:101F3000015BA169761C7F1E019888470546002F2A
:101F40001ADD681C18D0B9F1000F0DD0E81705EBA9
:101F5000D060421120F01F0059F822102A1A0120E7
:101F600090400142E0D107E0BBF1000FDCD1216AD3
:101F7000284688470028D7D0E16901988847BBF1F7
:101F8000000F07D1002E05DD5FEACA7002D10021E3
:101F900088F80010A068B84203DDBBF1000F03D041
:101FA00017B16FF00100B6E73046B4E730B50B4625
:101FB000014600202022012409E021FA02F59D4279
:101FC00005D303FA02F5491B04FA02F52844151E4D
:101FD000A2F10102F1DC30BD024B9361024BD361EF
:101FE00000F032B8B70500082D200008064C074D58
:101FF00006E0E06840F0010394E8070098471034D9
:10200000AC42F6D3FEF798F894260008B4260008F0
:10201000094910B508784C1C18B1401E0870205CA6
:1020200010BD00210720ABBE207010BD024908780A
:10203000421C0A70704700003800002002681144FA
:102040001378016018467047D16004495161044912
:10205000116200211161114600F00AB83D2000080C
:1020600065200008C0B24FF4F05100F097B90000AD
:102070002DE9F34F8BB04FF0000801F10C000C4636
:102080004FF0010B46460DF1080A019062690121EB
:1020900001989047051E2DD0252D2CD0216A884708
:1020A000C0B16269012101989047216A88470028E0
:1020B000F7D1411E62690198904700E0761CA16942
:1020C0000B988847216A88470028F7D1E1690B9867
:1020D0008847DBE7A1690B9888470746A84201D1EA
:1020E000761CD3E7E1690B9888477F1C02D1B8F1D1
:1020F000000F6FD046E1002762693D4639460198DE
:1021000090472A2804D1626901210198904701254E
:10211000DFF884926269012101989047A0F13001B3
:102120000A290AD24F45E5DC07EB870100EB41079E
:10213000303FDFD445F01005ECE7E90601D46FF03D
:1021400000476C280AD04C2814D0682815D06A287B
:102150000DD074281CD07A281AD01DE062690121A4
:10216000019890476C2802D045F0040514E045F032
:1021700002050DE045F020050AE0626901210198A1
:102180009047682802D045F0080505E045F4006551
:102190006269012101989047C4E9015765283DD043
:1021A00019DC58287AD00CDC452837D004DC2528E7
:1021B00026D0412831D131E046282FD047282CD1D4
:1021C0002CE05B2877D0612828D063287CD0642855
:1021D00023D15AE0D0E06F2848D008DC66281DD013
:1021E00067281BD0692821D06E2816D127E07028D7
:1021F00045D0732868D0752847D078280DD14DE098
:10220000A1690B988847054625283FF469AFE16925
:102210000B9888476D1C3FF46AAFB3E023466A46CB
:102220006FF001000B99AFF300809EE045F0400095
:102230006060A80723464FF0000236D43EE0E8076E
:102240007FF447AF2068011D21600068290501D592
:1022500006701BE7290701D5068017E7A90703D5F4
:10226000F117C0E9006111E706600FE745F0400093
:102270006060A80723464FF0080216D41EE040F61F
:102280000E0125EA0100606016E045F04000606044
:10229000A80723464FF00A0207D40FE045F040009C
:1022A0006060A80708D5234610226FF001000B9943
:1022B000AFF3008059E007E0234610226FF00100E1
:1022C0000B99AFF3008050E04FF000094F464B46AA
:1022D000632802D05B2806D040E0E80601D4012044
:1022E000A06001273AE062690121019890475E28C9
:1022F00005D14FF00109626949460198904721696B
:1023000039B900210A46534643F82120491C0829BF
:10231000FADBB0B3216969B9C11700EBD16253117F
:102320000AEB830122F01F02821A01200B68904001
:1023300003430B6062690121019890475D28E8D151
:10234000B9F1000F09D00020514651F82020D243A6
:1023500041F82020401C0828F7DB02AB22460097FA
:102360006FF001000B99FFF7B1FD00280CDA401C5B
:1023700008D1BBF1000F05D04FF0FF300DB0BDE824
:10238000F08FFFE74046F9E7E90701D108F10108BE
:1023900006444FF0000B79E6CCCCCC0C7F2801D959
:1023A000002208E0064A02EB5002C007127800D172
:1023B000120902F00F02012090400840704700000F
:1023C000EE2500080FB4054B10B503A9044A029886
:1023D00000F02CF810BC5DF814FB00009705000815
:1023E000340000200FB4084B10B504A902AA0398CA
:1023F00000F01CF8044602A9002000F0F3F8204683
:1024000010BC5DF814FB0000E525000802E008C8D8
:10241000121F08C1002AFAD170477047002001E05E
:1024200001C1121F002AFBD1704700002DE9FF4FA8
:102430008BB09A460F460546002606E025280BD0AD
:1024400052460D9990476D1C761C28780028F5D1CE
:102450000FB03046BDE8F08F0024A046012260494D
:1024600000E0044315F8013F203B02FA03F0084264
:10247000F7D128782E2817D115F8010F44F004045D
:102480002A280ED06FF02F022878A0F130010929F8
:102490000AD808EB880102EB410100EB01086D1C32
:1024A000F2E757F8048B6D1C287869283ED006DCCB
:1024B0000028CDD063280BD0642804D136E07328DF
:1024C00010D075284BD052460D999047761C85E068
:1024D00017F8040B8DF8000000208DF80100E94684
:1024E000012003E057F8049B4FF0FF3061074FF0E5
:1024F000000401D40AE0641C44450DDA8442FADB8E
:1025000019F804100029F6D106E0641C8442FCDBB3
:1025100019F804100029F8D1264404E019F8010B39
:1025200052460D999047641EF8D257E001CF4FF004
:102530000A0B002802DA40422D2102E0210504D5D1
:102540002B218DF82410012103E0E10705D0202183
:10255000F7E70DF1200908910CE00021F9E701CF20
:102560004FF00A0BF9E75946FFF720FD01F1300261
:1025700009F8012D0028F6D1ADEB090000F1200B80
:10258000600701D44FF00108D84502DDA8EB0B002D
:1025900000E000208046002406E009A85246005DC5
:1025A0000D999047641C761C08988442F5DB04E082
:1025B000302052460D999047761CB8F10001A8F1E1
:1025C0000108F5DC05E019F8010B52460D9990471A
:1025D000761CBBF10001ABF1010BF4DC6D1C34E7A0
:1025E000092801000A68531C0B6010707047DDDD7C
:1025F000DDDDDCBBBBDDDDDDDDDDDDDDDDDD9888EA
:1026000088888888888877777777778888888555D5
:10261000555666666666666666666668888883334B
:10262000333222222222222222222228888D0000D6
:102630000D0AC7EBCAE4C8EBC4DCC1ACBDD3B5BD61
:10264000496E7465726E6574B5C457694669C3FB9B
:10265000B3C6BACDC3DCD4BFA3ACCAE4C8EBB8F1EF
:10266000CABDCEAAA3BAC3FBB3C6D7D6B7FB2BD37A
:10267000A2CEC4B6BABAC52BC3DCD4BFD7D6B7FB7B
:102680002BBFD5B8F1A3ACB5E3BBF7B7A2CBCD0D4B
:102690000A000000B4260008000000203C000000F2
:1026A0000C240008F02600083C000020042800004C
:1026B0001C24000800A24A040000000000000000E2
:1026C00001020304060708090000000000000000E2
:1026D00001020304010203040607080902040608B4
:1026E00000000000000000000000000000000000EA
:0400000508000131BD
:00000001FF
