:020000040800F2
:10000000B04100200D020008150200081702000888
:10001000190200081B0200081D0200080000000071
:100020000000000000000000000000001F020008A7
:100030002102000800000000230200082502000839
:1000400027020008270200082702000827020008EC
:1000500027020008270200082702000827020008DC
:1000600027020008270200082702000827020008CC
:1000700027020008270200082702000827020008BC
:1000800027020008270200082702000827020008AC
:10009000270200082702000827020008270200089C
:1000A00027020008DD1E00082702000827020008BA
:1000B000151F0008651F0008C51F0008270200085B
:1000C000270200082702000827020008270200086C
:1000D00027020008E1250008512600082702000831
:1000E000270200082702000827020008270200084C
:1000F000270200082702000827020008270200083C
:10010000270200082702000827020008270200082B
:10011000270200082702000827020008270200081B
:10012000270200082702000827020008270200080B
:1001300000F002F800F05AF80AA090E8000C82449F
:100140008344AAF10107DA4501D100F04FF8AFF27C
:10015000090EBAE80F0013F0010F18BFFB1A43F0A5
:10016000010318470C4D00002C4D00000A444FF0CD
:10017000000C10F8013B13F0070408BF10F8014B06
:100180001D1108BF10F8015B641E05D010F8016B4B
:10019000641E01F8016BF9D113F0080F1EBF10F8AF
:1001A000014BAD1C0C1B09D16D1E58BF01F801CBD2
:1001B000FAD505E014F8016B01F8016B6D1EF9D555
:1001C0009142D6D37047000000230024002500266A
:1001D000103A28BF78C1FBD8520728BF30C148BFAA
:1001E0000B6070471FB51FBD10B510BD00F031F892
:1001F0001146FFF7F7FF02F061FF00F04FF803B47C
:10020000FFF7F2FF03BC00F057F8000009488047F1
:1002100009480047FEE7FEE7FEE7FEE7FEE7FEE7E8
:10022000FEE7FEE7FEE7FEE704480549054A064B00
:10023000704700007D1E000831010008B03B00201F
:10024000B0410020B03D0020B03D00207047704715
:100250007047754600F02CF8AE46050069465346D7
:1002600020F00700854618B020B5FFF7DDFFBDE898
:1002700020404FF000064FF000074FF000084FF00D
:10028000000B21F00701AC46ACE8C009ACE8C0099E
:10029000ACE8C009ACE8C0098D46704710B504460B
:1002A000AFF300802046BDE81040FFF7A8BF000074
:1002B00000487047503B002001491820ABBEFEE7C4
:1002C000260002007047000008B50121042001F05B
:1002D00073FABE20ADF8000003208DF80200102054
:1002E0008DF803006946144800F0F1FA4020ADF89B
:1002F000000003208DF8020004208DF803006946F9
:100300000D4800F0E4FA20210B4800F0BCFB10215E
:10031000094800F0BAFB0821074800F0B6FB0421A9
:10032000054800F0B2FB0221034800F0AEFB4FF499
:10033000FA6002F02BFE08BD0008014070B50546CA
:10034000002408E0E0B2294600F038F84FF4FA60E3
:1003500002F01CFE641C0C2CF4DB70BD2DE9F05F78
:1003600083464FF0000A1AE00120114901F82A00E3
:100370005BF82A0004F098F9804600220D4B03F048
:1003800075FF064600220C4B03F0D0FC044603F038
:10039000D9FE074901EB8A0148800AF1010ABAF146
:1003A000080FE1DB024802F0CDFDBDE8F09F000040
:1003B0006C0300208099B9400000E03F2DE9FF5F09
:1003C00005460E46032095FBF0F030B101280AD017
:1003D00002280FD003281BD113E00221534800F05C
:1003E00052FB534C15E00421504800F04CFB504C9C
:1003F00009340EE008214D4800F045FB4C4C123406
:1004000007E01021494800F03EFB494C1B3400E056
:1004100000BF00BF4FF4FA6002F0B8FD4FF00009D2
:100420000AE0FF2002F002FD04F809004FF4FA7020
:1004300002F0ACFD09F10109B9F1090FF1DB10215E
:100440003A4800F022FB0821384800F01EFB042146
:10045000364800F01AFB0221344800F016FB2078E1
:1004600001285DD1E07802285AD1A079032857D11C
:1004700095FBF0F100FB1150C0B9A07803F0A6FE87
:10048000074600222B4B03F005FDCDE90201607801
:1004900003F09CFECDE90001DDE9022303F046FCF8
:1004A000824603F011FC46F8250039E0032095FB55
:1004B000F0F100FB1150012819D1607903F086FE9C
:1004C000824600221B4B03F0E5FC07468846207954
:1004D00003F07CFE3A464346CDE9000103F026FCDA
:1004E000CDE9020103F0F0FB46F8250018E0207A80
:1004F00003F06CFE824600220E4B03F0CBFC074655
:100500008846E07903F062FE3A464346CDE90001B1
:1005100003F00CFCCDE9020103F0D6FB46F8250000
:100520004FF4FA6002F032FDBDE8FF9F0008014081
:1005300048030020000059402DE9FC4781468A46C7
:100540001849504604F05CFB02D2DFF858A006E0E0
:100550000021504604F054FA01D24FF0000A002462
:1005600004E00120104901F82400641C082CF8DB89
:10057000504604F099F8074600220C4B03F076FE33
:10058000054600220A4B03F0D1FBCDE9000103F040
:10059000D9FD054901EB89014880034802F0D2FCEE
:1005A000BDE8FC87000020416C0300208099B94021
:1005B0000000E03F10B50A480088B0F5167F04DA65
:1005C0000021072000F0ECF808E005480088B0F5AD
:1005D000487F03DD0121072000F0E2F810BD000094
:1005E000AC01002070B502460C46FF25FF2309E050
:1005F00012F8010B80EA05010648405C80EA030519
:100600000548435C201EA4F10106B4B2F0D143EAD0
:10061000052070BD460200206E4D000870B50146F1
:1006200000234D7D002203E0D01C085C0344521CD3
:10063000122AF9DB642093FBF0F600FB1630C4B2FB
:10064000AC4201D1012070BD0020FCE738B501218A
:10065000082001F0B1F84FF43040ADF8000003205D
:100660008DF8020010208DF803006946264800F03E
:100670002EF94FF48040ADF8000003208DF8020001
:1006800004208DF8030069461F4800F020F94FF45C
:1006900080511D4800F0F9F9002409E055201B495C
:1006A00001F8240041F2090001EB84014880641C38
:1006B000082CF3DB002403E0144802F043FC641C24
:1006C000082CF9DB002409E05720104901F8240028
:1006D0004FF4607001EB84014880641C082CF3DB4C
:1006E0000A4802F02FFC002408E00120074901F825
:1006F0002400002001EB84014880641C082CF4DBFA
:10070000024802F01FFC38BD000C01406C030020C1
:1007100070B50546002405E0204600F013F8285582
:10072000601CC4B2082CF7DB70BD70B50546002410
:1007300005E0295D204600F033F8601CC4B2082CA7
:10074000F7DB70BD70B50546082D1DD2DFE805F05A
:1007500004070A0D101316194FF4807415E04FF4B6
:10076000007412E04FF480640FE04FF400640CE07A
:100770004FF4805409E04FF4005406E04FF48044F5
:1007800003E04FF4004400E000BF00BF21460348EF
:1007900000F070F90646304670BD0000001C0140B4
:1007A00070B505460E46082D1DD2DFE805F004079A
:1007B0000A0D101316194FF4807415E04FF40074ED
:1007C00012E04FF480640FE04FF400640CE04FF44B
:1007D000805409E04FF4005406E04FF4804403E0F5
:1007E0004FF4004400E000BF00BF26B92146044892
:1007F00000F049F903E02146014800F046F970BDD8
:100800000018014010B51648007866280AD003DCAD
:1008100038B155281ED109E0772817D0882819D17A
:1008200010E017E00F4803F0A3F813E00E4802F0C1
:10083000CFFD0E4B5A780E4BD9680E4B986800F0DE
:1008400069F907E00C4802F051FF03E00B4802F0A1
:10085000F5FC00BF00BF00200149087010BD00007A
:1008600001010020210600207C0500201800002046
:100870002018002050180020E906002089060020DA
:1008800001B54FF47A70009901EBC101C9004FF036
:10089000E02251610521116112E000BF4FF0E0211B
:1008A000096901F480310029F8D04FF0E02109698D
:1008B00021F480314FF0E0221161401E00B900E0C8
:1008C000EBE700BF04214FF0E022116108BD2DE9E4
:1008D000F0410246002500260020002300240027C6
:1008E00091F803C00CF00F0591F803C00CF0100C48
:1008F000BCF1000F03D091F802C04CEA050591F855
:1009000000C0BCF1000F31D0146800202BE04FF084
:10091000010C0CFA00F3B1F800C00CEA03069E4289
:1009200020D183004FF00F0C0CFA03F7BC4305FAFB
:1009300003FC4CEA040491F803C0BCF1280F06D173
:100940004FF0010C0CFA00FCC2F814C00AE091F858
:1009500003C0BCF1480F05D14FF0010C0CFA00FCAC
:10096000C2F810C0401C0828D1D31460B1F800C0F0
:10097000BCF1FF0F34DD546800202EE000F1080CBC
:100980004FF0010808FA0CF3B1F800C00CEA0306B6
:100990009E4221D183004FF00F0C0CFA03F7BC43A9
:1009A00005FA03FC4CEA040491F803C0BCF1280FDB
:1009B00005D100F1080C08FA0CF8C2F8148091F87F
:1009C00003C0BCF1480F07D100F1080C4FF001083B
:1009D00008FA0CF8C2F81080401C0828CED35460E6
:1009E000BDE8F081F0B50A4600230024002100256F
:1009F00000F00046B6F1004F02D11D4EF16901E052
:100A00001B4E7168C0F3034583B200F44016B6F57F
:100A1000401F08D121F07061154E766826F070668F
:100A2000134F7E6012E000F48016B6F5801F06D1E9
:100A3000032606FA05F4A14341F0706106E0460D75
:100A4000360103FA06F6B14341F0706122B1460D5A
:100A5000360103FA06F6314300F00046B6F1004FC6
:100A600002D1034EF16101E0014E7160F0BD000062
:100A7000000001400246002093680B400BB10120AA
:100A800000E000207047416170470161704700003D
:100A90001A48007801282FD1194800791849C978D7
:100AA00001EBC10202EB011100EB81001549088046
:100AB000134880791249497901EBC10202EB011117
:100AC00000EB8100104908800D48007A0C49C97973
:100AD00001EBC10202EB011100EB81000B49088020
:100AE0000748007B0649C97A01EBC10202EB0111FC
:100AF00000EB810006490880704700000D010020CE
:100B0000B2170020AC010020AE010020B00100208F
:100B1000B401002010B5054B1860054B1960054B5A
:100B20001A700123044C237010BD000098010020AE
:100B3000A8010020720100207901002010B50121D8
:100B4000C02000F039FE10BD08B510208DF803005C
:100B50004FF47F40ADF8000003208DF80200694695
:100B60000848FFF7B4FE04208DF803004FF47F40DF
:100B7000ADF8000003208DF8020069460248FFF737
:100B8000A6FE08BD00180140001C014010B5FFF78B
:100B9000D5FFFFF7D9FF10BD10B545F2555000F055
:100BA00029F8062000F01AF840F21A6000F01CF84C
:100BB00000F00CF800F002F810BD00004CF6CC403C
:100BC0000149086070470000003000404AF6AA2042
:100BD000014908607047000000300040014948604A
:100BE00070470000003000400149886070470000F5
:100BF00000300040014908607047000000300040AC
:100C000010B50548FFF784FD044801F03DF804489D
:100C1000FFF794FB10BD00001800002050180020C2
:100C200020180020FEB505460E46681C054606281D
:100C300023D2DFE800F022030910161C254C012105
:100C4000C80200F0B9FD19E04FF0804401210846C8
:100C500000F092FD12E0204C0121022000F08CFDFA
:100C60000CE01E4C0121042000F086FD06E01C4C27
:100C70000121082000F080FD00E000BF00BF2046F9
:100C800001F0CCF93146174803F0EEFE074603F0B9
:100C900067FE80B2ADF8040048F69F40ADF8000052
:100CA0000020ADF80600ADF802008DF80800694696
:100CB000204601F0C3FA0121204601F09DF90122EE
:100CC0001146204601F0AFFA0021204601F09AF9C2
:100CD000FEBD0000002C0140000400400008004060
:100CE000000C00400000FA4470B55C4840795B4954
:100CF000097940EA01205A4908805A480088098841
:100D0000084464287EDA55480078574908705348EB
:100D10004078487052490888C11700EB5171CD10D6
:100D20004F490888C11700EB5171C910A0EBC101F0
:100D300009B1681C85B24C498D70002461E0E1174F
:100D400004EB5171C910A4EBC10141B90022204646
:100D5000E11704EB5171C910C91C434B5A54E117F8
:100D600004EB5171C910C91C3F4A515C4A1020461E
:100D7000E11704EB5171C910C91C3B4B5A54E117E0
:100D800004EB5171C910C91C1A46515C354A1288CE
:100D90002244364B53F822201268802303EAC21201
:100DA0001143E21704EB5272D210D21C2E4B99540D
:100DB0002B480088401EA04221D129490888C1172C
:100DC00000EB5171C910A0EBC101C1B1E21704EBF6
:100DD0005272D210D21C9A5C214B1988CB1701EBAE
:100DE0005373DB10A1EBC303C3F108031A41204680
:100DF000E31704EB5373DB10DB1C1B4EF254601C37
:100E000084B200E01AE016480088844297DBE81CB0
:100E100081B21548FFF7E6FB1549088008460088AF
:100E2000010A114AE81C115411480178281D115477
:100E3000681DC1B2104600F047FE0EE0074800787A
:100E4000094908700548407840F080004870022049
:100E500088700321044800F037FE70BD9018002010
:100E6000420200204002002090200020202A002082
:100E70004402002070B55C4840795B49097940EA3A
:100E800001205A4908805A48008809880844642883
:100E90007EDA5548007857490870534840784870C2
:100EA00052490888C11700EB5171CD104F4908888D
:100EB000C11700EB5171C910A0EBC10109B1681C49
:100EC00085B24C498D70002461E0E11704EB51714B
:100ED000C910A4EBC10141B900222046E11704EB7F
:100EE0005171C910C91C434B5A54E11704EB51719D
:100EF000C910C91C3F4A515C4A102046E11704EB57
:100F00005171C910C91C3B4B5A54E11704EB517184
:100F1000C910C91C1A46515C354A12882244364B06
:100F200053F822201268802303EAC2121143E21709
:100F300004EB5272D210D21C2E4B99542B480088CD
:100F4000401EA04221D129490888C11700EB5171E8
:100F5000C910A0EBC101C1B1E21704EB5272D2106B
:100F6000D21C9A5C214B1988CB1701EB5373DB1011
:100F7000A1EBC303C3F108031A412046E31704EBB6
:100F80005373DB10DB1C1B4EF254601C84B200E078
:100F90001AE016480088844297DBE81C81B21548A5
:100FA000FFF720FB1549088008460088010A114A0E
:100FB000E81C115411480178281D1154681DC1B254
:100FC000104600F081FD0EE00748007809490870DE
:100FD0000548407840F08000487002208870032166
:100FE000044800F071FD70BD9018002042020020FE
:100FF0004002002090200020902800204402002081
:1010000010B5394840793849097940EA0120374913
:1010100008803748008809880844B0F57A7F53DA99
:1010200031480078334908702F48407848702F487D
:1010300000784006000E8870002419E02C480088D3
:1010400020442D4951F820000088000A032101EBBB
:101050004401284A5054264800882044264951F823
:1010600020000078042101EB44015054601CC4B2FC
:101070001E4800888442E1DB1C480088032202EB02
:10108000400081B21B48FFF7ADFA1C4908800846B2
:101090000088010A15480088032202EB4000154A27
:1010A00011541648017811480088042202EB4000D0
:1010B000104A11540D480078052202EB4000C1B2DD
:1010C0000C4800F001FD0EE007480078094908705F
:1010D0000548407840F08000487002208870032165
:1010E000044800F0F1FC10BD9018002042020020DE
:1010F0004002002090200020B02B0020440200205D
:1011000010B52848008864283CDA27480079FF2871
:1011100003D025484079FF2807D101202349214ADF
:10112000128851F82210086006E000201F491D4A6D
:10113000128851F8221008601B4800781C4908707A
:101140001948407848701848807888701648C078E8
:10115000C870154800790871134840794871062114
:101160001348FFF73FFA1349088008460088000A31
:101170000F4988710F480078C87108210C4800F0A9
:10118000A3FC0EE00848007809490870064840783A
:1011900040F080004870022088700321044800F06D
:1011A00093FC10BD4002002090180020202A00204F
:1011B000902000204402002010B51F480079000252
:1011C0001E491F4A128851F8221008801B481C49EA
:1011D000098850F8210000881749497908431749C0
:1011E000174A128851F822100880134800781549D0
:1011F00008701148407848700F48807888700E4811
:10120000C078C8700C48007908710B484079487163
:1012100006210C48FFF7E6F90B49088008460088CC
:10122000000A0849887108480078C87108210548F3
:1012300000F04AFC10BD000090180020B02B0020E8
:1012400040020020902000204402002010B53B48BE
:1012500040793A49097940EA0120394908803948FA
:10126000008809880844642858DA00242CE0E11733
:1012700004EB5171C910C91D304A515C01F00101E4
:1012800041B101202F49098821442F4A52F82110E9
:10129000086007E000202B49098821442A4A52F8B7
:1012A00021100860E11704EB5171C910C91D234AD0
:1012B000515C4A102046E11704EB5171C910C91D59
:1012C0001E4B5A54601C84B21D4800888442CEDBF9
:1012D0001A4800781D490870184840784870174827
:1012E000807888701548C078C870144800790871F3
:1012F00012484079487106211448FFF773F91449E0
:10130000088008460088000A104988711048007853
:10131000C87108210D4800F0D7FB0EE0074800789F
:101320000A4908700548407840F080004870022063
:1013300088700321054800F0C7FB10BD90180020FD
:101340004202002040020020202A0020902000209D
:101350004402002010B5374840793649097940EAFF
:101360000120354908803548008809880844B0F5CF
:101370007A7F4EDA002422E0072000EB44002D495A
:10138000085C00022D49098821442D4A52F8211099
:1013900008802A4800882044114651F8200000881F
:1013A000082101EB4401234A515C08432349098881
:1013B0002144234A52F821100880601CC4B21E4800
:1013C00000888442D8DB1B4800781E490870194801
:1013D000407848701748807888701648C078C87080
:1013E000144800790871134840794871062115485E
:1013F000FFF7F8F81449088008460088000A1149E8
:10140000887111480078C87108210E4800F05CFB13
:101410000EE0084800780B4908700648407840F014
:1014200080004870022088700321064800F04CFBC1
:1014300010BD000090180020420200204002002051
:10144000B02B0020902000204402002015481649AF
:101450000860001F4860001F88601448C860144876
:1014600014490860001D4860134814490860144876
:101470004860144888601448C860144808611448DB
:101480004861144888611448C861144808621448C7
:101490004862144888621448C862144808631448B3
:1014A0004863704710012342902800200001214228
:1014B000A4812342202A0020B0010020B02B00206C
:1014C000B2010020B40100203C00002040000020B8
:1014D000AC010020AE0100204C0000205000002094
:1014E00048000020440000208A01002088010020DC
:1014F0007C0100200020704710B500240EE0E0B20F
:101500000021FFF719F80120FFF7BAF9E0B2002136
:10151000FFF746F90120FFF7B3F9641C082CEEDB56
:1015200010BD10B50024FFF7E5FF04460CB12046BE
:1015300010BD4FF081410220FEF7FEFF0120FFF7B2
:101540009FF90020F4E710B50024FFF7D3FF04460D
:101550000CB1204610BD00210220FEF7EDFF002156
:101560000720FEF7E9FF00210846FEF7E5FF00210E
:101570000320FEF7E1FF0020ECE708B500214FF063
:10158000006000F09BF84FF4407000F08DF82520CB
:101590008DF8000000208DF8010001208DF8030077
:1015A000684600F049F826208DF8000001208DF8EB
:1015B00001008DF80300684600F03EF819208DF810
:1015C000000002208DF8010001208DF8030068461C
:1015D00000F032F81C208DF8000003208DF8010087
:1015E00001208DF80300684600F026F81D208DF8D4
:1015F000000004208DF8010001208DF803006846EA
:1016000000F01AF81E208DF8000005208DF801006A
:1016100001208DF80300684600F00EF832208DF8A6
:10162000000006208DF8010001208DF803006846B7
:1016300000F002F808BD000070B5002100230F2261
:10164000C47804B3154C246804F4E064C4F5E06481
:10165000210AC1F10403CA40447804FA03F18478F2
:101660001440214309010E4C0678A155047804F07A
:101670001F050124AC4005786D11AD0005F1E02592
:10168000C5F8004109E0047804F01F050124AC40CE
:10169000044D0678761145F8264070BD0CED00E04B
:1016A00000E400E080E100E002490143024A1160E9
:1016B000704700000000FA050CED00E0024A0A4005
:1016C0000243024B1A60704780FFFF1F08ED00E0E5
:1016D00010B50024FFF70EFF04460CB1204610BDE4
:1016E000104801680220FEF727FF0F4801880F48C5
:1016F0000088401D81420ADB4FF082410020FEF746
:101700001BFF4FF082410320FEF716FF07E0002188
:101710000846FEF711FF00210320FEF70DFF002011
:10172000DDE70000E0010020B0010020B201002050
:10173000F0B50C46059D014601EB81060D4F3F6853
:1017400007EBC606F46001EB81060A4F3F6807EB22
:10175000C606326101EB8106064F3F6807EBC606FD
:10176000736101EB8106034F3F6807EBC6063562E4
:10177000F0BD00001400002029B1064AD2690243DE
:10178000044BDA6104E0034AD2698243014BDA6117
:10179000704700000010024029B1064A1269024356
:1017A000044B1A6104E0034A12698243014B1A6137
:1017B000704700000010024029B1064A92690243B6
:1017C000044B9A6104E0034A92698243014B9A6197
:1017D000704700000010024029B1064AD268024357
:1017E000044BDA6004E0034AD2688243014BDA60BA
:1017F000704700000010024010B500F029F84FF4C7
:10180000803000F0E7F800F043F90446012C1ED1C7
:10181000002000F0D3F8002000F00EF9A00200F044
:10182000FFF84FF4E011200400F018F9012000F057
:101830000FF900BF392000F09BF80028FAD00220F1
:1018400000F01AF900BF00F0B1F80828FBD110BD74
:101850000F48006840F001000D49086008464068E4
:101860000C4908400A494860084600680A4908408F
:10187000074908600846006820F480200860084690
:10188000406820F4FE0048604FF41F0088607047F5
:10189000001002400000FFF8FFFFF6FE30B5002107
:1018A0000022002400232D4D6D6805F00C0121B1AC
:1018B000042905D0082923D105E0294D056022E03F
:1018C000274D05601FE0254D6D6805F47012234D0E
:1018D0006D6805F48034022505EB92421CB9214D58
:1018E000554305600BE01D4D6D6805F400351DB1D5
:1018F0001C4D5543056002E0194D5543056002E05B
:10190000174D056000BF00BF144D6D6805F0F00174
:101910000909154D6B5C0568DD4045600F4D6D682C
:1019200005F4E061090A104D6B5C4568DD40856097
:101930000A4D6D6805F46051C90A0B4D6B5C456832
:10194000DD40C560054D6D6805F44041890B074DCC
:101950006B5CC568B5FBF3F5056130BD0010024056
:1019600000127A0000093D00000000201000002055
:1019700010B501460022002300204A11012A02D19D
:10198000094C236806E0022A02D1074C236A01E0D1
:10199000054C636A01F01F02012494401C400CB105
:1019A000012000E0002010BD001002400248406805
:1019B00000F00C00704700000010024001460020BB
:1019C000034A506820F0F000084350607047000060
:1019D000001002401149096821F480310F4A11605A
:1019E0001146096821F480211160B0F5803F03D0D1
:1019F000B0F5802F0ED106E00849096841F4803126
:101A0000064A116007E00549096841F4A021034A2C
:101A1000116000E000BF00BF7047000000100240EE
:101A200001460020034A506820F4E06008435060FB
:101A3000704700000010024001460020034A506831
:101A400020F4605040EAC10050607047001002402E
:101A5000014908667047000000004242024600202B
:101A6000044B586820F47C1042EA01031843014BF0
:101A7000586070470010024001460020034A506839
:101A800020F003000843506070470000001002403F
:101A900038B5002000900024002500BF3120FFF75A
:101AA00067FF05460098401C00900098B0F5A06FB5
:101AB00001D0002DF2D03120FFF75AFF08B10124E8
:101AC00000E00024204638BD70B505460E460020D3
:101AD0000D49086000240CE000BF80210B4800F095
:101AE000EDFE0028F9D0295D084800F0B4FF601C25
:101AF000C4B2B442F0DB00BF4021044800F0DEFE77
:101B00000028F9D070BD0000A0012142003801403A
:101B100010B55648007801287ED1554800786728CE
:101B200069D153484078012817D05148407802289D
:101B300013D04F48407803280FD04D4840780528EF
:101B40000BD04B484078062807D0494840780F28EA
:101B500003D047484078102870D14548C0784449A0
:101B6000897840EA01204349088008460088B0F59A
:101B70007A7F52DA40480088801E81B23C48FEF7E6
:101B800031FD3E4908803C480088401E3849095CC8
:101B900039480088801E364A105C41EA00243748E4
:101BA0000088A04228D110464078052814D006DCD1
:101BB00001280BD002280CD003281CD112E00628E3
:101BC00013D00F280BD0102815D111E0FFF78CF897
:101BD00011E0FFF74FF90EE0FFF792FA0BE0FFF785
:101BE00035FB08E0FFF70CFA05E0FFF7E5FA02E045
:101BF000FFF7B0FB00BF30E01D48007820490870B7
:101C00001B48407840F08000487004208870032111
:101C10001B48FFF759FF20E027E0154800781849D6
:101C200008701348407840F08000487002208870A7
:101C300003211348FFF748FF0FE0FFE70C48007847
:101C40000F4908700A48407840F080004870012031
:101C5000887003210A48FFF737FF00200349087006
:101C60000549088001200749086010BD20020020B6
:101C700090180020400200201E0200204402002094
:101C800090200020A00121422DE9F047814601F07B
:101C900086F9DFF860A080211748FEF7F4FE01F016
:101CA0007EF9002408E01549085D01F0E7FC0AF818
:101CB000040001F074F9641C142CF4D380210E4844
:101CC000FEF7E3FE002411E00A49891C01EB8401C0
:101CD000086802F064FA07460022094B02F0DAF8BD
:101CE000054601F0F1FF49F82400641C042CEBDBED
:101CF000BDE8F0878C030020000C0140624D000815
:101D000000408F4008B501210802FFF755FD012171
:101D10000820FFF751FD4FF42040ADF800000320EC
:101D20008DF8020010208DF8030069461748FEF771
:101D3000CEFD4FF48040ADF8000003208DF8020086
:101D400048208DF8030069461048FEF7C0FD4FF4A7
:101D5000C070ADF8000003208DF8020010208DF84F
:101D6000030069460A48FEF7B2FD4FF400510748E8
:101D7000FEF789FE01F013F980210548FEF785FE84
:101D80004FF480710248FEF780FE08BD002001403C
:101D9000000C014010B500F001F810BD0CB500209A
:101DA000019000903348006840F480303149086069
:101DB00000BF3048006800F4003000900198401CDB
:101DC0000190009818B90198B0F5A06FF1D1294899
:101DD000006800F4003010B10120009001E0002004
:101DE00000900098012843D12348006840F010007B
:101DF000214908600846006820F003000860084692
:101E0000006840F0020008601A48406819494860BC
:101E10000846406848600846406840F48060486072
:101E20000846406820F47C1048600846406840F44A
:101E3000E81048600846006840F08070086000BF05
:101E40000C48006800F000700028F9D0094840688C
:101E500020F00300074948600846406840F002004F
:101E6000486000BF0348406800F00C000828F9D122
:101E70000CBD0000001002400020024010B51348C5
:101E8000006840F0010011490860084640681049A8
:101E900008400E494860084600680E4908400B4952
:101EA00008600846006820F4802008600846406802
:101EB00020F4FE0048604FF41F008860FFF76AFFBF
:101EC0004FF000600449086010BD0000001002409F
:101ED0000000FFF8FFFFF6FE08ED00E010B501215D
:101EE000094800F08FF968B10121074800F087F830
:101EF0000021054800F086F8002004490860012010
:101F00000349087010BD0000002C0140A0012142CF
:101F10002002002010B50121880700F073F9B0B14C
:101F20000D48007870B90D480068401E0B490860E4
:101F30000846006858B90A4800F058FA03200749D3
:101F4000086004E003200549086000F0C9F9012198
:101F5000880700F054F810BD0D0100202402002075
:101F6000CA17002010B50121114800F04BF9C8B183
:101F70001048007888B910480068401E0E49086073
:101F80000846006870B90D4801F022FA0C4801F0CB
:101F900055F903200849086004E003200649086059
:101FA000FEF730FC0121024800F029F810BD0000C6
:101FB00000040040010100202C0200207C050020CC
:101FC0008906002010B50121084800F01BF960B116
:101FD0000121064800F013F80548008802F0FCFCD7
:101FE000044600F0BFFE0349086010BD0008004031
:101FF000B2010020E0010020CA4302827047CA43B8
:102000000282704721B1028842F00102028004E09E
:1020100002884FF6FE731A400280704710B50446DE
:102020006848844208D10121C014FFF7D5FB002184
:10203000E014FFF7D1FBC4E0B4F1804F08D10121D7
:102040000846FFF7A9FB00210120FFF7A5FBB8E038
:102050005D48844208D101210220FFF79DFB002149
:102060000220FFF799FBACE05848844208D10121D7
:102070000420FFF791FB00210420FFF78DFBA0E077
:102080005348844208D101210820FFF785FB002135
:102090000820FFF781FB94E04E48844208D10121DB
:1020A0001020FFF779FB00211020FFF775FB88E077
:1020B0004948844208D101212020FFF76DFB00210F
:1020C0002020FFF769FB7CE04448844208D10121CD
:1020D0004014FFF781FB00216014FFF77DFB70E0E7
:1020E0003F48844209D10121C804FFF775FB002154
:1020F0004FF40020FFF770FB63E03A48844209D1B7
:1021000001210805FFF768FB00214FF48010FFF75D
:1021100063FB56E03448844209D101214805FFF7AA
:102120005BFB00214FF40010FFF756FB49E02F48FE
:10213000844208D101214020FFF72EFB00214020DE
:10214000FFF72AFB3DE02A48844208D10121802084
:10215000FFF722FB00218020FFF71EFB31E025481E
:10216000844208D101218015FFF716FB0021A0153C
:10217000FFF712FB25E02048844209D10121080421
:10218000FFF72AFB00214FF48030FFF725FB18E012
:102190001A48844209D101214804FFF71DFB0021A0
:1021A0004FF40030FFF718FB0BE01548844208D1CC
:1021B00001218804FFF710FB00214FF48020FFF776
:1021C0000BFB10BD002C0140000400400008004043
:1021D000000C00400010004000140040003401409A
:1021E000004C0140005001400054014000180040E4
:1021F000001C00400020004000400140004401401D
:102200000048014030B50246002000230024158A12
:1022100005EA0103958905EA010413B10CB1012017
:1022200000E0002030BD1AB183890B43838102E0B6
:1022300083898B43838170478184704700220288A1
:102240001D4B98420ED01D4B98420BD0B0F1804FE1
:1022500008D01B4B984205D01A4B984202D01A4B1B
:10226000984204D14FF68F731A404B881A43174B8C
:10227000984207D0164B984204D04FF6FF431A40BD
:10228000CB881A4302808B8883850B8803850A4B91
:1022900098420BD0094B984208D00E4B984205D07B
:1022A0000D4B984202D00D4B984201D10B7A038618
:1022B0000123838270470000002C0140003401405C
:1022C0000004004000080040000C004000100040E6
:1022D000001400400040014000440140004801401B
:1022E00010B50F480078052814D2DFE800F0030489
:1022F0000A0B0F000FE00B4800F078F8FEF7C8FB60
:1023000009E008E001200849087004E000200649BF
:10231000087000E000BF00BF00200149087010BD38
:102320000D010020CA1700207101002030B50446BD
:1023300000252046FEF772F9054655B1207855284C
:1023400002D06078662802D1A07803490870012085
:1023500030BD0020FCE700000D0100202DE9F04118
:102360000746884614460025552228466D1C2254EF
:10237000662228466D1C22541A48027828466D1C95
:10238000225419490888C11700EB1161C1F30723D2
:1023900029466D1C635414490888C11700EB11616C
:1023A0000912A0EB0121CBB229466D1C6354002613
:1023B00005E018F8062028466D1C2254761CBE4203
:1023C000F7DB4146384600F071FD29466D1C60542C
:1023D000662228466D1C2254552228466D1C225424
:1023E000BDE8F0810D010020B201002070B5054666
:1023F00000263648FDF7A2FF00242DE0344901EB0A
:10240000C403324951F82400D3E9001200F0D2FD90
:10241000304941F8240051F8240000F025FE3146EF
:10242000761C68542B4951F8240000F034FE3146E4
:10243000761C6854274951F8240000F0D1FD01466C
:102440003046761C2954234951F8240000F0ECFD55
:102450003146761C6854641C052CCFDB1E48FFF700
:1024600013FC002421E01C4951F8240000F0FCFD7D
:102470003146761C6854184951F8240000F00BFED0
:102480003146761C6854144951F8240000F0A8FD28
:1024900001463046761C29540F4951F8240000F0BB
:1024A000C3FD3146761C6854641C032CDBDB0B48EF
:1024B000FEF72EF9094802783046761C2A54074860
:1024C00042783046761C2A5470BD0000E00400209B
:1024D0009C000020B00400201005002018000020FF
:1024E0000EB501210846FFF747F94FF08040FFF78E
:1024F00095FD4FF4FA60ADF8040048F69F40ADF842
:1025000000000020ADF80600ADF8020069464FF06B
:102510008040FFF793FE01218807FFF76DFD012240
:1025200011469007FFF77FFE01218807FFF76AFD3C
:102530000EBD00000EB501210420FFF71DF9124861
:10254000FFF76CFD47F23050ADF8040048F69F40AD
:10255000ADF800000020ADF80600ADF802008DF8DF
:10256000080069460848FFF769FE01210648FFF7A1
:1025700043FD012211460448FFF755FE01210248A0
:10258000FFF740FD0EBD0000000800400EB5012120
:10259000C802FFF711F91148FFF740FD2820ADF8F8
:1025A000040041F61F40ADF800000020ADF8060021
:1025B000ADF802008DF8080069460848FFF73EFEB6
:1025C00001210648FFF718FD012211460348FFF7D5
:1025D0002AFE01210148FFF715FD0EBD002C014028
:1025E00070B540F22551164800F075F938B307214F
:1025F000134800F063F908B1012400E000241048FA
:1026000000F024FAC5B20F48008840F2FF718842FA
:1026100015DAA4B90C480B490988455409480088C3
:10262000401C0849088001210848FFF7E8FC002108
:102630000648FFF701FE01210448FFF7E3FC70BDE7
:10264000003801401E02002090180020002C01409C
:1026500070B5002500260821534800F02FF938B145
:10266000514800F0E5FA044608214F4800F0BDF853
:1026700004214D4800F022F918B104214A4800F025
:10268000ABF80221484800F019F918B10221464878
:1026900000F0A2F80121444800F010F918B101211E
:1026A000414800F099F840F225513F4800F013F9F5
:1026B000002860D040F225513B4800F096F83A4897
:1026C00000F0B6FA0446394801680068401C374AF1
:1026D00010603748445410460068182808D1344820
:1026E000807D662804D13248C07D552800D101255F
:1026F000002D40D000252D4800682E49086000209C
:102700002A4908602A48FDF789FF06463EB3284853
:10271000FFF70CFE2848007801280CD1274A2849E9
:102720001020FFF71BFE00202649086023491820CF
:1027300000F0A8F91FE020480078022804D12249BF
:10274000182000F09FF916E01B480078032807D1F5
:1027500001201E4908701E49182000F093F90AE074
:1027600015480078042806D1002018490870194936
:10277000182000F087F940F227710B4800F0ABF801
:1027800080B140F22771084800F02FF80A20FEF7C8
:1027900077F801200B490860002240F227710248B7
:1027A00000F0C3F870BD0000004400402802002083
:1027B000B2170020080100200D010020EA160020B9
:1027C000CA1700209C8122422601002071010020AE
:1027D0003E0100205601002001F40072B2F5007F96
:1027E00000D100BFCA430280704710B50022002309
:1027F00040F66A14A14200D100BF0A12012494409D
:10280000A3B2DC43048010BD21B1828942F400529E
:10281000828104E082894DF6FF731A4082817047FD
:1028200010B504462048844209D101218803FEF7EF
:10283000D3FF00214FF48040FEF7CEFF32E01B486B
:10284000844209D101214804FEF7A6FF00214FF47C
:102850000030FEF7A1FF25E01548844209D101218F
:102860008804FEF799FF00214FF48020FEF794FFC3
:1028700018E01048844209D10121C804FEF78CFFFA
:1028800000214FF40020FEF787FF0BE00A48844246
:1028900008D101210805FEF77FFF00214FF48010C9
:1028A000FEF77AFF10BD00000038014000440040F0
:1028B00000480040004C004000500040024600200C
:1028C000B1F5007F00D100BF13880B400BB1012090
:1028D00000E00020704770B5024600240023002568
:1028E000002040F66A16B14200D100BFC1F3421584
:1028F00001F01F03012606FA03F3012D02D1968988
:10290000334006E0022D02D1168A334001E0968A58
:1029100033400C12012606FA04F41688344013B131
:102920000CB1012000E0002070BDF0B5034600248A
:1029300000260025002040F66A17B94200D100BFEA
:102940001846C1F3421401F01F06012707FA06F5E5
:10295000012C01D10C3004E0022C01D1103000E038
:1029600014301AB107682F43076002E00768AF43CD
:102970000760F0BD2DE9F04786B005460E460024FD
:10298000A24600BFA1460027B08900B100BF2F4674
:102990002C8A4CF6FF700440F08804432C82AC89EA
:1029A0004EF6F3100440B08831890843718908431A
:1029B0000443AC81AC8A4FF6FF400440B089044325
:1029C000AC8201A8FEF76AFF1F48874202D1DDF8FA
:1029D00010A001E0DDF80CA0A88900F4004040B18F
:1029E0000AEBCA0000EB0A1031684900B0FBF1F8AD
:1029F00007E00AEBCA0000EB0A1031688900B0FB5F
:102A0000F1F86420B8FBF0F004012009642101FB17
:102A10001089A88900F4004040B1322000EBC900C1
:102A2000B0FBF1F000F00700044308E0322000EBB7
:102A300009106421B0FBF1F000F00F0004432C8179
:102A400006B0BDE8F08700000038014001468888E4
:102A5000C0F308007047C1F308028280704700008D
:102A600010B50024FEF746FD04460CB1204610BD0B
:102A7000034801680220FDF75FFD0020F7E7000032
:102A8000E001002070B505460E46002403E0305DED
:102A900000F0DCF8641CAC42F9DB70BD00B585B019
:102AA00001210520FEF788FE01218803FEF784FE40
:102AB00001212120FEF780FE01214804FEF75CFE83
:102AC00001210820FDF78EFF10208DF81300000172
:102AD000ADF8100003208DF8120004A94E48FDF750
:102AE000F6FE18208DF813004FF40070ADF81000BA
:102AF00003208DF8120004A94748FDF7E8FE0420E2
:102B00008DF813000002ADF8100003208DF81200BC
:102B100004A94148FDF7DBFE18208DF813002020A2
:102B2000ADF8100003208DF8120004A93B48FDF712
:102B3000CEFE04208DF813004020ADF810000320D5
:102B40008DF8120004A93548FDF7C1FE10208DF85C
:102B500013008020ADF8100003208DF8120004A9A6
:102B60002E48FDF7B4FE01202D4908602D49C1F81B
:102B70009C012D48FFF754FE2C48FFF751FE4FF4FF
:102B8000964000900020ADF80600ADF80400ADF8C6
:102B90000800ADF80C000C20ADF80A006946224888
:102BA000FFF7E8FE4FF41650009069461F48FFF704
:102BB000E1FE40211C48FFF70FFE012240F22551A3
:102BC0001948FFF7B2FE012228211748FFF7ADFE92
:102BD000012260211448FFF7A8FE01211248FFF7E7
:102BE00013FE40211148FFF7F7FD012240F2255165
:102BF0000E48FFF79AFE012228210C48FFF795FEA8
:102C0000012260210948FFF790FE01210748FFF7E4
:102C1000FBFD05B000BD00000008014000140140AC
:102C2000A0012142008022420038014000440040BF
:102C300070B504462046FFF709FFC5B2284670BDAF
:102C400010B5FEF79AFCFFF729FF10BD10B504463A
:102C50000020084908600C20FDF712FE012240F216
:102C600027710548FFF761FE21460348FFF7F3FE91
:102C700010BD00009C8122420044004010B526484F
:102C8000008800EB80004000244908602448008848
:102C900000EB80004000234908602348008800EBD7
:102CA00080004000214908604FF4167020490860F8
:102CB00020498868204901F0D7FE044601F06CFEE7
:102CC0001E4908601E4800881E4908601E4800888A
:102CD0001E4908601E4800781E4908601E490868A1
:102CE000154901F0C1FE044601F056FE1B4908607B
:102CF0001949C868104901F0B7FE044601F04CFEBE
:102D00001749086014490020FDF758FB12490320B9
:102D1000FDF754FB10BD0000B00100203000002082
:102D2000B201002034000020B4010020380000204F
:102D30003C000020501800200000204140000020EE
:102D4000AC01002028000020AE0100202C00002053
:102D5000180000204C0000206018002048000020CF
:102D6000440000202DE9F0470446294D2948006819
:102D7000294908600846006801F096FC06460022D2
:102D8000264B01F071FB02D22846234908602448F3
:102D9000008801F021FE0646214601F062FF21492C
:102DA0000860214948681F49096801F05DFE8146B5
:102DB0001D488168484601F057FE07461A490868D1
:102DC0001849096801F050FE8046394601F098FC28
:102DD000064611480168304601F043FF0546284683
:102DE00001F062FC06460022134601F003FA01D20C
:102DF000002509E0284601F057FC06460022074B53
:102E000001F032FB00D8024D2846BDE8F0870000F3
:102E10000000204160180020E40100200000244050
:102E2000B0010020D0010020EC01002070B5044664
:102E3000002520211C48FDF726FE00262FE068060D
:102E4000050E04F0800020B180211748FDF71DFE1B
:102E500003E080211448FDF716FE4FF4FA7000F0ED
:102E600095F820211048FDF710FE4FF4FA7000F09D
:102E70008DF820210C48FDF706FE4FF4FA7000F0A3
:102E800085F840210848FDF7F5FD012800D100E054
:102E9000002008B145F001056006040E761C082EDE
:102EA000CDDB284670BD00000008014070B5024629
:102EB0000B460024002102E05D5C2C44491C914239
:102EC000FADB642594FBF5F605FB1645E8B270BD08
:102ED00070B5044600254FF400411948FDF7D3FDB5
:102EE000002628E06806050E04F0800028B14FF4A3
:102EF00000511348FDF7C9FD04E04FF4005110489C
:102F0000FDF7C1FD4FF400410D48FDF7BEFD4FF444
:102F100080410B48FDF7AEFD012800D100E0002004
:102F200008B145F001054FF400410548FDF7ABFD40
:102F30006006040E761C082ED4DB284670BD000007
:102F4000000C014070B505464FF480510E48FDF766
:102F50009AFD00240FE015F82400FFF7B9FF05EBF8
:102F6000840149880812FFF7B3FF05EB84018878D4
:102F7000FFF7AEFF641C082CEDDB4FF480510248D4
:102F8000FDF783FD70BD0000000C0140002800DA51
:102F9000002000BF011EA0F10100FBD1704708B561
:102FA0004FF4FA70009000BF0098411E0091002875
:102FB000FAD108BD37B504462046019901F054FD09
:102FC0000546029901F09CFB3EBD37B504462046FC
:102FD000029901F051FE0546019901F0FFFB3EBD4B
:102FE00070B5044600250021204601F009FD04D2F9
:102FF0000B49204601F038FD04460A49204601F0FD
:1030000033FD064601F0ACFC42F2107190FBF1F288
:1030100001FB1200642190FBF1F0C5B2284670BD9F
:10302000000080BF00401C4670B50446002500210A
:10303000204601F0E5FC04D20949204601F014FDC8
:1030400004460849204601F00FFD064601F088FCC1
:10305000642190FBF1F201FB1200C5B2284670BD5D
:10306000000080BF00401C4670B506460025304673
:1030700001F076FC0446002C07DA6442642094FBDD
:10308000F0F0C5B245F0800503E0642094FBF0F059
:10309000C5B2284670BD70B505460026284601F029
:1030A0005FFC0446002C00DA6442642094FBF0F1DB
:1030B00000FB1140C6B2304670BD0000FEF79CFB1D
:1030C000FDF764FDFDF700F9FDF7C0FAFEF71AFE03
:1030D000FFF7B6FDFFF75AFAFFF702FAFFF72AFAF1
:1030E0004FF080410220FDF79DFDFDF789FDFDF7C2
:1030F00053FD8BE0FDF76AFDFFF7C0FDFEF7A6F973
:10310000FEF706FDFDF756FA4148007888B94148B8
:10311000008810B94048008858B1FEF702FA3F49CC
:1031200008700846007808B1FEF7E6F90120384932
:1031300008703748007888B13648008870B936483A
:10314000008858B9FEF7FFF934490870084600783E
:1031500008B1FEF7D1F900202D4908702C480078FD
:1031600050B32F48006838B32E480088B0F5877FE9
:1031700002D1F5202B4908802B48008868B92B48DC
:10318000008850B92A48008838B92A490220FDF73A
:10319000D3F901202849087002E000202649087070
:1031A0002548007840B9FEF793FA1C490870084694
:1031B000007808B1FEF7A0F91548007830B3184838
:1031C000006818BB4FF487701649088016480088BD
:1031D00068B91648008850B91548008838B91549AB
:1031E0000220FDF7A9F901201349087002E0002030
:1031F000114908701048007840B9FFF731FC0749C1
:1032000008700846007808B1FEF776F972E700000A
:10321000730100208A01002088010020780100202D
:103220004C000020B2010020B0010020B4010020B9
:10323000AC010020000020411C0200202DE9F041DB
:10324000044600260025BBE005EB85015F4A02EB42
:10325000C101C868FFF708FF3146761C605405EBD2
:1032600085015A4A02EBC101C868FFF714FF3146D5
:10327000761C605405EB8501544A02EBC101C86815
:10328000FFF7AEFE3146761C605405EB85014F4AD0
:1032900002EBC101C868FFF7C7FE3146761C6054D7
:1032A00005EB8501494A02EBC1010869FFF7DCFE25
:1032B0003146761C605405EB8501444A02EBC1019E
:1032C0000869FFF7E8FE3146761C605405EB85017E
:1032D0003E4A02EBC1010869FFF782FE3146761CC7
:1032E000605405EB8501394A02EBC1010869FFF71B
:1032F0009BFE3146761C605405EB8501334A02EB98
:10330000C1014869FFF7B0FE3146761C605405EBF9
:1033100085012E4A02EBC1014869FFF7BCFE314628
:10332000761C605405EB8501284A02EBC10148690F
:10333000FFF756FE01463046761C215405EB850109
:10334000224A02EBC1014869FFF76EFE3146761C46
:10335000605405EB85011D4A02EBC101086AFFF7C5
:1033600083FE3146761C605405EB8501174A02EB5B
:10337000C101086AFFF78FFE3146761C605405EBE9
:103380008501124A02EBC101086AFFF729FE3146A6
:10339000761C605405EB85010C4A02EBC101086AFA
:1033A000FFF742FE01463046761C2154002704E018
:1033B00000223046761C22547F1C082FF8DB6D1C3F
:1033C000042DFFF641AFBDE8F0810000A00300200E
:1033D0002DE9F0410546002600279748FCF7AEFF8F
:1033E00000242CE0954901EBC403934951F82400D3
:1033F000D3E90012FFF7DEFD914941F8240051F8AE
:103400002400FFF731FE3146761C68548C4951F890
:103410002400FFF740FE3146761C6854884951F875
:103420002400FFF7DDFD3146761C6854844951F8CD
:103430002400FFF7F9FD3146761C6854641C0C2CFF
:10344000D0DB8048FEF720FC002420E07D4951F8C5
:103450002400FFF709FE3146761C6854794951F87B
:103460002400FFF718FE3146761C6854754951F860
:103470002400FFF7B5FD3146761C6854714951F8B8
:103480002400FFF7D1FD3146761C6854641C042CDF
:10349000DCDB002407E06C48005D012802D1A0407D
:1034A0003843C7B2641C082CF5DB3046761C2F5419
:1034B00000276648FCF752FF00242DE0644901EB29
:1034C000C403624951F82400D3E90012FFF77DFDDF
:1034D000604941F8240051F82400FFF7C5FD31464A
:1034E000761C68545B4951F82400FFF7D4FD31463F
:1034F000761C6854574951F82400FFF771FD314696
:10350000761C6854534951F82400FFF78DFD01469D
:103510003046761C2954641C082CCFDB4E48FDF73E
:10352000F7F8002407E04C48005D18B10120A040E6
:103530003843C7B2641C082CF5DB3046761C2F5488
:1035400000274648FDF7F1F8002407E04348005DF6
:1035500018B10120A0403843C7B2641C082CF5DB29
:103560003046761C2F540027002409E03C4904F122
:103570000800085C012802D1A0403843C7B2641C8F
:10358000082CF3DB3046761C2F540027002407E07C
:103590003348005D012802D1A0403843C7B2641C03
:1035A000082CF5DB3046761C2F5400272D48008868
:1035B00001F012FA2C4908602C48008801F00CFA3E
:1035C000294948602A48008801F006FA264988609F
:1035D0002848008801F000FA2349C860264800887E
:1035E00001F0FAF920490861002421E01E4951F850
:1035F0002400FFF739FD01463046761C29541A494C
:1036000051F82400FFF747FD3146761C68541649EF
:1036100051F82400FFF7E4FC3146761C6854124947
:1036200051F82400FFF700FD3146761C6854641CF5
:10363000102CDBDBBDE8F081E00400209C000020C2
:10364000B004002010050020540000204005002098
:103650005C00002020050020180000202000002031
:103660006C050020AC01002070040020AE01002099
:10367000B0010020B2010020B401002070B5044662
:10368000002500262CE06806050E4FF40051164870
:10369000FDF7FBF904F0800028B14FF40041124817
:1036A000FDF7F3F904E04FF400410F48FDF7EBF9A3
:1036B000FFF775FC4FF400510B48FDF7E4F9FFF7F5
:1036C0006EFC4FF480410848FDF7D4F9012800D181
:1036D00000E0002008B145F001056006040E761CEC
:1036E000082ED0DB284670BD002001402DE9F04FA8
:1036F00097B0054600263046761C285C00F00F0087
:103700000C90002727E1002419E03046761C285C45
:1037100015A908553046761C285C13A90855304673
:10372000761C285C11A908553046761C285C0FA928
:10373000085515A8005DC0090DA90855641C062C84
:10374000E3DB9DF83C0000F041FD0022854BCDE914
:10375000040100F09FFBCDE908019DF8440000F052
:1037600035FD0022804BCDE9000100F093FBCDE94F
:1037700004019DF84C109DF8542002F07F0202EBEA
:10378000C20303EB021201EB820000F008FDCDE959
:103790000201DDE9042300F0C9FACDE90601DDE903
:1037A000082300F0C3FACDE90A0100F08DFA804643
:1037B0009DF83D0000F00AFD00226A4BCDE90401AE
:1037C00000F068FBCDE908019DF8450000F0FEFC23
:1037D0000022654BCDE9000100F05CFBCDE904015E
:1037E0009DF84D109DF8552002F07F0202EBC203B8
:1037F00003EB021201EB820000F0D1FCCDE90201E3
:10380000DDE9042300F092FACDE90601DDE90823A1
:1038100000F08CFACDE90A0100F056FA81469DF8D5
:103820003E0000F0D3FC00224E4BCDE9040100F035
:1038300031FBCDE908019DF8460000F0C7FC0022ED
:10384000494BCDE9000100F025FBCDE904019DF8CD
:103850004E209DF8561001F07F0101EBC10303EBF0
:10386000011102EB810000F09AFCCDE90201DDE9D3
:10387000042300F05BFACDE90601DDE9082300F03E
:1038800055FACDE90A0100F01FFA82469DF83F0083
:1038900000F09CFC0022334BCDE9040100F0FAFA61
:1038A000CDE908019DF8470000F090FC00222E4B66
:1038B000CDE9000100F0EEFACDE904019DF84F10CA
:1038C0009DF8572002F07F0202EBC20303EB0212C5
:1038D00001EB820000F063FCCDE90201DDE9042385
:1038E00000F024FACDE90601DDE9082300F01EFA14
:1038F000CDE90A0100F0E8F983469DF8340020B1D3
:103900001A49404601F0B0F880469DF8350020B1D4
:103910001649484601F0A8F881469DF8360020B1C6
:103920001249504601F0A0F882469DF8370020B1B8
:103930000E49584601F098F883460C98384100F03B
:10394000010038B153464A4641463846CDF800B0EA
:10395000FDF7EEFE7F1C042FFFF6D5AE17B0BDE8D5
:10396000F08F00000088C34000005940000080BF75
:103970002DE9F04F91B0054600263046761C15F82B
:10398000009000240CE049FA04F000F0010018B1A6
:103990000120C449085502E00020C2490855641CB2
:1039A000082CF0DB3046761C15F80090002466E009
:1039B0003046761C2F5C3046761C15F800A0304649
:1039C000761C285C0E903046761C285C0D9049FAD7
:1039D00004F000F00100002850D04FEAD71B0D98EA
:1039E00000F0F4FB0022B04BCDE9040100F052FAE4
:1039F000CDE908010E9800F0E9FB0022AB4BCDE9C0
:103A0000000100F047FACDE9040107F07F0101EB66
:103A1000C10202EB01110AEB810000F0C0FBCDE90D
:103A20000201DDE9042300F081F9CDE90601DDE9B9
:103A3000082300F07BF9CDE90A0100F045F9804642
:103A4000BBF1000F04D09A49404601F00DF88046C2
:103A5000984840F82480984800EBC40041684046EC
:103A600001F00AF90B90944850F834100B9800F0CC
:103A7000B5FE0C90E0B20C99FCF75EFD641C082CBE
:103A800096DB3046761C15F800903046761C285C94
:103A90000F90002419E049FA04F000F0010098B1F9
:103AA0000F98204100F0010038B1E0B20121FCF78D
:103AB00077FE01208149085506E0E0B20021FCF7BD
:103AC0006FFE00207D490855641C082CE3DB30465E
:103AD000761C15F80090002410E049FA04F000F07C
:103AE000010028B10121764A04F10800115404E0D4
:103AF0000021734A04F108001154641C082CECDB0B
:103B00003046761C15F8009000240CE049FA04F0C9
:103B100000F0010018B101206949085502E00020B9
:103B200067490855641C082CF0DB3046761C285C7D
:103B30000F903046761C15F80090002452E0304675
:103B4000761C2F5C3046761C15F800A03046761C9B
:103B5000285C0E903046761C285C0D9049FA04F0E3
:103B600000F00100E8B34FEAD71B0D9800F02EFBE0
:103B700000224D4BCDE9040100F08CF9CDE908019C
:103B80000E9800F023FB0022484BCDE9000100F025
:103B900081F9CDE9040107F07F0101EBC10202EBDD
:103BA00001110AEB810000F0FAFACDE90201DDE92A
:103BB000042300F0BBF8CDE90601DDE9082300F09D
:103BC000B5F8CDE90A0100F07FF88046BBF1000F9F
:103BD00004D03749404600F047FF8046394840F856
:103BE0002480641C082CAADB002456E03046761C96
:103BF0002F5C3046761C15F800A03046761C285CF9
:103C00000E903046761C285C0D900F98204100F0F5
:103C10000100E0B34FEAD71B0D9800F0D7FA00225D
:103C2000214BCDE9040100F035F9CDE908010E98EA
:103C300000F0CCFA00221D4BCDE9000100F02AF97A
:103C4000CDE9040107F07F0101EBC10202EB011194
:103C50000AEB810000F0A3FACDE90201DDE90423BB
:103C600000F064F8CDE90601DDE9082300F05EF814
:103C7000CDE90A0100F028F88046BBF1000F04D01E
:103C80000B49404600F0F0FE80460E4900E003E09C
:103C900004F1080041F82080641C082CA6DB11B058
:103CA000BDE8F08F540000200088C3400000594058
:103CB000000080BF200500205C00002020000020C4
:103CC0006C0500207004002021F00042A2F1605237
:103CD000B2F5801F01F0004328BFD2F17F6C0BD9F1
:103CE0005FEA001C43EAC20242EB507018BF704703
:103CF00028BF20F001007047B2F5801FBCBF1846F6
:103D000070474FEA410C1CF5001F02D2084600F034
:103D100072BF70B500F054FB00000089FFF7F6BFDA
:103D20004FF00040A0F580007047000010B591EA08
:103D3000030F48BF83F0004300F1D483841A71EB72
:103D4000030C05D2121943EB0C03001B61EB0C01B1
:103D5000DFF824E14FEA1154A4EB135C1EEA430F91
:103D600018BF9EEA445F73D023EA0E03DCF1200EF5
:103D700021EA045143F4801332D322FA0CFE10EBF3
:103D80000E0023FA0CFE41EB0E01CCF1200E03FADB
:103D90000EFE10EB0E0051F10001B1F5801FCCF1C9
:103DA000200E32D201EB045112FA0EF2BDE810409F
:103DB00058BF7047401C38BF5FEA420218BF7047C7
:103DC000002814BF20F0010041F100014FEA410337
:103DD00013F5001F38BF7047A1F1C04100F03EBB92
:103DE000012A43EB0302ACF1200CDCF11F0E32BFC1
:103DF0004FF0000E23FA0CF310EB030041EB0451DB
:103E0000B4EB115FD0D0A1EB045101F5801149084A
:103E10005FEA300001EB04510ED350F1000038BFCF
:103E200012FA0EFE08D1BDE81040C9E7401C38BFA9
:103E30005FEA4202CAD1C3E7BDE810404FEA41033E
:103E400013F5001F38BF7047A1F1C04100F006BB59
:103E50009EEA445F08D011EA5E0FBDE8104004BF3F
:103E600001F0004100207047BDE8104070B500F03F
:103E7000A7FA00BF64FBBE3E0000E0FF491058BF38
:103E8000C1F140415B1058BFC3F140438B42EFF397
:103E9000008070472DE9C04130B4DFF8A0C23CEA91
:103EA000111418BF3CEA131400F0EC8081EA0305FA
:103EB0001CEA111444EAD57418BF1CEA131500F06B
:103EC000C780A4EB05044FF0004545EAC12145EA4F
:103ED000C32341EA505143EA525304F17F7499429B
:103EE00004F500344FEAC0204FEAC22208BF9042D6
:103EF00000F09C804FEA13650FF24016765D4FEAA2
:103F0000134506FB05F7C7F1807706FB07F74FEA75
:103F1000D737A7FB03687642C8F58038A7FB06CEE3
:103F200038BFA8F1010807FB08E64FF0000EA6FB1A
:103F3000028CE6FB03CEDCF1000CCEF1004E38BF64
:103F4000AEF1010EA6FB0C584FF000074FF0000534
:103F5000E6FB0E87A1FB08C6A0FB07CE16EB0E06FC
:103F600045F10005E1FB076515F1E04E7EBFA4F5C4
:103F700080345FEA46066D4116F1800745F1000581
:103F80004FEA17274FEA066647EA0567A6F1DE46BD
:103F9000B6F1805F4FEA15251FD9384624F0010C91
:103FA00005EBC471BCF1FE6F01EB0C1102D8F0BC43
:103FB000BDE8008124425CBF01F5801E9EEAC47FFB
:103FC00002D4F0BCBDE80081244238D4F0BCA1F199
:103FD000C041BDE8004100F041BA4FEAD22242EAB6
:103FE00043524FEAD323A7FB02864FEAD02040EA90
:103FF000415007FB03661EEA0E0F4FEAD12105FB75
:10400000026658BFA6EB0056B6EB00564FEA520EBA
:104010004EEAC37E18EB0E0E56EB530EBDD518EBD1
:1040200002085E417F1C55F10005B6E74FF480158C
:104030004FF000074FF000064FF00008ADE7F0BC6E
:104040004FF0000001F1C04101F00041BDE80081E6
:1040500011EA0C1F0CEA131500D00CE013EA0C1F38
:1040600000F025804FF00000F0BC81EA030101F070
:104070000041BDE80081F0BCBDE8004181EA0301D8
:1040800000F0ECB9F0BCBDE8004170B500F098F963
:10409000097EFC3E00F007B881EA03014FF0000002
:1040A00001F00041704781EA030100F0D7B9F0BC8C
:1040B000BDE800414FF0000021497047FFFDFBF9CA
:1040C000F7F5F4F2F0EEEDEBE9E8E6E4E3E1E0DE4B
:1040D000DDDBDAD8D7D5D4D3D1D0CFCDCCCBCAC8BD
:1040E000C7C6C5C4C2C1C0BFBEBDBCBBBAB9B8B7E4
:1040F000B6B5B4B3B2B1B0AFAEADACABAAA9A8A8D7
:10410000A7A6A5A4A3A3A2A1A09F9F9E9D9C9C9BA4
:104110009A9999989797969595949393929191904F
:104120008F8F8E8E8D8C8C8B8B8A898988888787E0
:104130008685858484838382828181800000FF0755
:104140000000F87F4FEA1153A3F58063D3F11E03FB
:10415000A8BFD3F1200C08DB4FF0004242EAC12295
:1041600052EA505232FA03F0704709420BD4102B36
:10417000C4BF0020704703F5787CBCF1FF3F05D039
:104180004FF0FF3070474FF00000704770B500F0FF
:1041900017F900BF4992248000207047F0E710F023
:1041A000004248BF4042B0FA80F310FA03F10AD04F
:1041B000C3F11D0303F580634FEA415002EB035244
:1041C00002EBD12170474FF000007047B0FA80F346
:1041D00010FA03F10AD0C3F11D0303F580634FEA1F
:1041E00041504FEA035202EBD12170474FF00000DB
:1041F0007047000051EA030C17D41CF5801F58BF0C
:10420000BCF5801F00F10680994218BF704708BFB7
:104210009042704707D711F5801F58BF13F5801FD4
:1042200019D499427047894270471CF5801F08D500
:10423000BCF5801FF7D58B4218BF704708BF82427C
:1042400070474FF4001C1CEB410F38BF1CEB430FB1
:1042500001D28B42704770B500F0B2F89224490049
:104260004FF000514FF08053FFF708BEDFF848C110
:1042700070B51CEA111E1EBF1CEA13159EEA0C0F36
:1042800095EA0C0F00F06F8081EA030423EA4C13D7
:104290004EEAD47E21EA4C1141F4801143F480139C
:1042A000AE44A1FB024CA0FB0365AEF17F7E361944
:1042B00055EB0C05A1FB034C4CF10003A0FB021CC9
:1042C00016EB0C06654153F10003094218BF46F096
:1042D000010613F4007F0BD14FEA03314FEA05309A
:1042E000340341EA155140EA16506FF003020AE028
:1042F0004FEAC3214FEAC520F40241EA555140EA92
:1043000056506FF0020202EB2E4201EB025585EA95
:10431000CE710AD05FEA440C18BF24F0004450F17B
:10432000000041F1000120EAD47040F2FE7C6245B9
:1043300000D270BDA84214BF4FF080444FF04044FB
:10434000002E08BF0024BEF1806FA8BFA1F1C041BC
:10435000BDE8704080F282804FF0000001F1C04162
:1043600001F0004170479EEA0C0F0CEA131518BFCC
:1043700095EA0C0F06D04FF0000081EA030E0EF014
:10438000004170BD00F01CF88900013E00F007B844
:1043900000F009B84FEA430C5FEA5C5C08D081EAA0
:1043A000030100F05BB84FEA410C5FEA5C5CF6D1B8
:1043B0004FF00000014970470000FF070000F87F40
:1043C0000EF1020E2EF0030E5EF8046B364205D499
:1043D000012A43EB030515F5001F12D8012841EB14
:1043E000010C1CF5001F0CD80ED14FEAD17C15F53D
:1043F000001F0CEB4C0C0CF1020C08BF4CEBD37CF7
:1044000004E04FF0080C01E04FEAD37C0CEB4C05C4
:1044100026FA05F606F00706B6F1040C06D20EEBF6
:10442000860CBDE870404CF0010C6047DFE80CF0F2
:10443000090B02024FF000414FF00000A1F50021EE
:1044400070BD19461046012851EB010418BFD4F580
:10445000001484BF002001F0004170BD0808A0F5E1
:1044600000114FEA3101704753EA010C17D41CF5D3
:10447000801F58BFBCF5801F00F106808B4218BF1B
:10448000704708BF8242704707D713F5801F58BF97
:1044900011F5801F19D48B4270479B4270471CF561
:1044A000801F08D5BCF5801FF7D5994218BF70470B
:1044B00008BF904270474FF4001C1CEB430F38BFFD
:1044C0001CEB410F01D2994270470FB40CBC03BCE6
:1044D000FFF7C1BE10B591EA030F48BF83F0004358
:1044E0003FF52CAC841A71EB030C07D212198CF037
:1044F000004C43EB0C03001B61EB0C01DFF8A4E163
:104500004FEA1154A4EB135C1EEA430F18BF9EEA56
:10451000445F00F0B08023EA6E03524221EA045166
:10452000C3EB6E0338BF5B1EDCF1200E25D322FAED
:104530000CFE10EB0E0043FA0CFE41EB0E01CCF129
:10454000200E03FA0EFE10EB0E0051F10001CCF12B
:10455000200E29D412FA0EF201EB0451BDE81040EE
:1045600058BF7047401C1CBFB2F1004F7047002875
:104570000CBF491C20F00100704712EB020E43EB08
:10458000030218BF4FF0010E4EEA4202ACF1200CBC
:10459000DCF11E0E54D943FA0CFE10EB0E0051F163
:1045A000FF31CCF11E0ED5D50EF1010E12FA0EFE22
:1045B000404141EB010101EB445C5FEA5C5C10D9D6
:1045C00010EBDE7001EB045138BFBEF1004FBDE8C7
:1045D000104018BF704700280CBF491C20F0010094
:1045E000704730D24FEAD42C11F5001124F4006446
:1045F0001BD0B1FA81F20B3AA41AA41ED2F1200307
:10460000914030FA03F31943904001EBCC71002C38
:1046100001EB0451BDE81040A8BF704701F1C04153
:104620004FF0000001F000417047B0FA80F310FA3B
:1046300003F100D110BDE41A173C4805C90AE4E7AC
:1046400001EB045110BD491001EB0451BDE81040CD
:104650004FEA300002E04FF0000170474A0008BF07
:104660000042F8D0B2F5001F28BF704701F00041AA
:104670004FF0000070479EEA445F07D011EA5E0FDA
:10468000BDE8104004BF002100207047BDE8104085
:1046900070B5FFF795FE00BF40DFF63E83F00041A6
:1046A000104670470000E0FF43004FEAD30C4FEA8A
:1046B0003C0C43401FBF40070CF1605113F0FE4F0C
:1046C00070471CF0006F03D100200CF000417047D0
:1046D0000CF0004343EA507010B540EACC0000F003
:1046E00044FA00BF000000924FEA0001FFF7B6BE97
:1046F0004FF000414FF00000A1F50021704700008D
:1047000090EA010F48BF81F0004100F1BC82421ADB
:104710003CBF801A89184FEAD0524FF07F4C1CEAF8
:10472000410FA2EBD15318BF9CEA026F00F03B800F
:104730004FF0004C4CEA00204CEA012121FA03FC26
:1047400010EB0C0C1ED202F1FF325FEA1C2040EB92
:10475000C25038BF70471CF07F0F4FEA400C18BFA3
:10476000BCF17F4F38BF7047C3F12003994008BFA9
:1047700020F00100BCF17F4F38BF7047A0F1C0406E
:1047800000F039BA4FEA3C00000A40EBC25028BFA3
:104790001CF0FF0F4FEA400CE6D018BFBCF17F4F72
:1047A00038BF7047EAE79CEA026F05D010EA5C0F59
:1047B00008BF00F00040704710B500F0D6F900BF08
:1047C00064FBBE3E401058BFC0F14040491058BF86
:1047D000C1F140418142EFF3008070474FF47F0CFC
:1047E0001CEAD0121EBF1CEAD11392EA0C0F93EA06
:1047F0000C0F00F0858090EA010F48BF42F48072F0
:1048000040F4000C41F400002CF07F4120F07F4088
:1048100000B58142A2EB03020FF2081CACEB504E34
:10482000C0F100009EF800E04FEA4E0E00FB0EFCC7
:1048300038BF49004FEA2C1C02F5FA020CFB0EF3BC
:104840004FEACE1E4FEA112C4FEAC1210EEB635EF8
:1048500042EB22420EFB0CFC4FEA1C5300FB0311FF
:104860004FEA112C4FEA01310EFB0CFC4FEADC4CF5
:1048700000FB0C11C14228BF09184CEB03335DF853
:1048800004EB10EB410143EBC250B2F57C0F38BF93
:10489000704729D512F0F00F1CBF00F1C04000F0A6
:1048A00000407047008182838485868788898B8C4D
:1048B0008D8E8F919293959697999A9C9D9FA0A289
:1048C000A3A5A7A8AAACAEB0B2B3B5B7B9BCBEC0D9
:1048D000C2C5C7C9CCCED1D4D7D9DCDFE2E6E9EC7A
:1048E000F0F3F7FAFE0000004FEA400C0CF1807C78
:1048F000BCF17E4F28BF7047B0F1C04000F07BB9DB
:1049000090EA010F0CEAD11348BF42F4807262456D
:1049100038BF634507D213F47F0F16D080EA010039
:1049200000F00040704710B500F01FF9097EFC3E12
:1049300000F005B880EA010000F00040704780EA0E
:10494000010000F0004000F056B912F47F0F04BFE0
:104950000248704780EA010000F04DB90000C07FB6
:1049600041000B0ED3F19E0208D950F400034FEA28
:10497000032323FA02F048BF4042704710B500F00D
:10498000F4F800BF49922480002070476FF0004285
:1049900082EA200070470000C10DD1F19E0206DBC3
:1049A0004FEA002343F0004323FA02F0704700422D
:1049B00007D54FEA4001B1F1FE4F02D24FF000009F
:1049C000704710B500F0D1F849922480002070475C
:1049D0006FEA200070470000B0FA80F310FA03F28B
:1049E000C3F19D030AD0D90501EB1220530638BF4D
:1049F000704700F1010008BF20F00100704700007F
:104A000050EA010C00F113801CF5000F58BFBCF5F3
:104A1000000F01D48842704707D710F5000F58BF28
:104A200011F5000F15D488427047894270471CF574
:104A3000000F04D5BCF5000FF7D5814270474FF049
:104A4000807C1CEB400F38BF1CEB410F01D2814230
:104A5000704710B500F089F8922449004FF00050DB
:104A60004FF08051FFF7AEBE4FF47F0C1CEAD0121E
:104A70001EBF1CEAD11392EA0C0F93EA0C0F00F050
:104A8000478090EA010F48BF42F480724FF0004C1B
:104A90004CEA00204CEA012102EB0302A0FB0113C7
:104AA000A2F50002002918BF43F001035B0028BFF4
:104AB0004FEA330342EB22425FEA132C4CEBC25025
:104AC0002EBFBCEB436FB2F57C0F70474FEA036C0F
:104AD000BCF1004F08BF20F00100B2F57C0F38BFD9
:104AE00070470BD582F0FF0212F5803FC8BF7047B8
:104AF00000F1C040D8BF00F00040704700F5000C46
:104B00005FEA4C0C48BF7047B0F1C04000F073B88A
:104B100090EA010F0CEAD11348BF42F4807262455B
:104B200038BF634504D280EA010000F000407047BE
:104B300010B500F01AF800BF8900013E00F007B878
:104B400000F009B85FEA410C5FEA1C6C08D080EA0B
:104B5000010000F050B85FEA400C5FEA1C6CF6D12F
:104B60004FF00040A0F5800070470EF1020E2EF0CD
:104B7000030E5EF8044B244204D44FEA4102B2F122
:104B80007F4F11D84FEA4003B3F17F4F0CD80ED1BD
:104B90004FEAD07CB2F17F4F0CEB4C0C0CF1020CC5
:104BA00008BF4CEBD17C04E04FF0080C01E04FEA69
:104BB000D17C0CEB4C0324FA03F404F00704B4F1A9
:104BC000040C06D20EEB840CBDE810404CF0010C36
:104BD0006047DFE80CF0070802024FF00040A0F544
:104BE000800010BD0846420018BFD2F1807288BF15
:104BF00000F0004010BDFF2141EAD050C0057047D1
:104C000051EA000C00F113801CF5000F58BFBCF5F1
:104C1000000F01D48142704707D711F5000F58BF2C
:104C200010F5000F15D481427047894270471CF57A
:104C3000000F04D5BCF5000FF7D5884270474FF040
:104C4000807C1CEB410F38BF1CEB400F01D2884227
:104C5000704780EA010081EA000180EA0100FFF765
:104C6000F8BE80F0004090EA010F7FF550AD81F072
:104C7000004100F008B8000090EA010F48BF81F041
:104C800000413FF544AD421A04D882F00042A0EB47
:104C9000020011444FEAD0524FF07F4C1CEA410F02
:104CA000A2EBD15318BF9CEA026F4AD04FF0004CE0
:104CB0004CEA00204CEA012121FA03FCB0EB0C0C79
:104CC0000FD412F0FE0F36D05FEA4C001DD5001253
:104CD00040EBC25038BF70471CF03F0F18BF704701
:104CE0000BE0A2F101025FEA1C2040EBC25038BF8A
:104CF00070471CF07F0F18BF7047C3F12003994025
:104D000014BF401E20F00100704780084FEA1223B4
:104D100008BF7047B0FA80FCA2EB0C02CCF1280C63
:104D200060FA0CF093EA122F04BF00EBC2507047F8
:104D30004FEAC3707047130A5FEADC1008BF704780
:104D4000F6E79CEA026F04D010EA5C0F08BF00206F
:104D5000704710B5FFF709FF40DFF63E81F00040D5
:104D6000704701020300000000000000000000C0C6
:104D7000C101C30302C2C60607C705C5C404CC0CE3
:104D80000DCD0FCFCE0E0ACACB0BC90908C8D81853
:104D900019D91BDBDA1A1EDEDF1FDD1D1CDC14D463
:104DA000D515D71716D6D21213D311D1D010F03093
:104DB00031F133F3F23236F6F737F53534F43CFCA3
:104DC000FD3DFF3F3EFEFA3A3BFB39F9F83828E853
:104DD000E929EB2B2AEAEE2E2FEF2DEDEC2CE42423
:104DE00025E527E7E62622E2E323E12120E0A06093
:104DF00061A163A3A26266A6A767A56564A46CAC63
:104E0000AD6DAF6F6EAEAA6A6BAB69A9A86878B8D2
:104E1000B979BB7B7ABABE7E7FBF7DBDBC7CB474E2
:104E200075B577B7B67672B2B373B17170B0509092
:104E300091519353529296565797559594549C5C22
:104E40005D9D5F9F9E5E5A9A9B5B995958988848D2
:104E500049894B8B8A4A4E8E8F4F8D4D4C8C4484A2
:104E600085458747468682424383418180400000D2
:104E7000904E000800000020480300006C0100086C
:104E80002C4F000848030020683E0000C8010008BD
:104E9000412D0102030404100B0607080902040651
:104EA00008A0030246200B9C803F0819FC11B21198
:104EB0000413556601DF66555566020101212A106B
:104EC000180A1503180A13041891190F291301144D
:104ED000031E88410239FA2009CDCC4C3D0AD7A3E4
:104EE0003C9A706433803F1A400319041A80041AF4
:104EF000A0041AC0041AE004619A030823B1041A3A
:104F0000EA0923FF08930C202808C1814001C080D2
:104F10004104690C2908E918A91C091A3009163836
:0C4F2000093660092E70092F6011000096
:0400000508000131BD
:00000001FF
