:020000040800F2
:100000006834002045010008816600088366000806
:10001000876600088B6600088F66000800000000F5
:1000200000000000000000000000000093660008CF
:10003000956600080000000097660008372B00084E
:100040005F0100085F0100085F0100085F01000810
:100050005F0100085F010008C5320008C7320008D0
:10006000C9320008CB320008CD320008FF36000844
:100070005F0100085F0100085F0100085F010008E0
:100080005F0100085F0100085F0100085F010008D0
:100090005F0100085F0100085F010008CF3200081F
:1000A0005F0100085F0100085F0100085F010008B0
:1000B00099660008FF660008056800085F010008EF
:1000C0005F0100085F0100085F0100085F01000890
:1000D0005F01000837670008393100085F01000838
:1000E0000F3300085F0100085F0100085F0100088E
:1000F0005F0100085F0100085F0100085F01000860
:100100005F0100085F0100085F0100085F0100084F
:10011000373100085F0100085F0100085F01000837
:100120005F0100085F0100085F0100085F0100082F
:10013000DFF80CD007F0A4F8004800473366000849
:10014000683400200648804706480047FEE7FEE77F
:10015000FEE7FEE7FEE7FEE7FEE7FEE7FEE7FEE777
:1001600047020008310100080CB500200190009002
:100170006C48006840F480306A49086000BF6948F4
:10018000006800F4003000900198401C0190009835
:1001900018B90198B0F5A06FF1D16248006800F479
:1001A000003010B10120009001E000200090009884
:1001B000012843D15C48006840F010005A490860AB
:1001C0000846006820F0030008600846006840F018
:1001D0000200086053484068524948600846406839
:1001E00048600846406840F48060486008464068BF
:1001F00020F47C1048600846406840F4E8104860ED
:100200000846006840F08070086000BF45480068FC
:1002100000F000700028F9D04248406820F0030048
:10022000404948600846406840F00200486000BF0E
:100230003C48406800F00C000828F9D10CBD10B50E
:10024000FFF792FF10BD10B53648006840F001007E
:1002500034490860084640683449084031494860DC
:1002600008460068324908402E4908600846006880
:1002700020F4802008600846406820F4FE004860B2
:100280004FF41F008860FFF7DAFF4FF00060294944
:10029000086010BD10B5002100200022214B5B68D2
:1002A00003F00C0121B1042906D0082928D107E068
:1002B000214B224C236027E01F4B204C236023E07E
:1002C000184B5B6803F47010164B5B6803F48032C4
:1002D000022303EB904022B9194B4343174C236090
:1002E0000DE0104B5B6803F4003323B1144B434320
:1002F000124C236003E0104B4343104C236003E097
:100300000D4B0E4C236000BF00BF064B5B68C3F370
:1003100003130C4CE15C094B1B68CB40074C23607A
:1003200010BD000000100240002002400000FFF855
:10033000FFFFF6FE08ED00E000127A00000000204A
:1003400000093D000400002031490143314A116099
:10035000704770B5002100230F22C47804B32D4CE0
:10036000246804F4E064C4F5E064210AC1F10403E4
:10037000CA40447804FA03F1847814402143090107
:10038000254C0678A155047804F01F050124AC40E3
:1003900005786D11AD0005F1E025C5F8004109E0D3
:1003A000047804F01F050124AC401C4D067876113A
:1003B00045F8264070BD1A4A0A400243154B1B1FE0
:1003C0001A60704739B1134A121D12680243114B6B
:1003D0001B1D1A6006E00F4A121D126882430D4B66
:1003E0001B1D1A607047042808D14FF0E0210969ED
:1003F00041F004014FF0E022116107E04FF0E021ED
:10040000096921F004014FF0E022116170470000FA
:100410000000FA050CED00E000E400E080E100E0FF
:1004200080FFFF1F10B50446FA48844208D101211D
:10043000401501F0EBF90021601501F0E7F917E034
:10044000F548844208D10121001501F0DFF90021AF
:10045000201501F0DBF90BE0F048844208D10121BE
:10046000C80301F0D3F900214FF4004001F0CEF9A8
:1004700010BD30B50246002000235068E84C2040F3
:100480000D790C6844EA0524204350609068E54CDF
:100490002040D1E902542C434D7944EA45042043DD
:1004A0009060D06A20F470000C7C641EE4B2234398
:1004B00040EA0350D06230BD0021016001714171FA
:1004C0008160C16001210174704721B1826842F0EE
:1004D0000102826003E0826822F0010282607047BC
:1004E00021B1826842F48072826003E0826822F463
:1004F00080728260704710B50023CBB21AB1446895
:100500001C43446002E044689C43446010BD816821
:1005100041F0080181607047014600208A6802F0BE
:1005200008020AB1012000E000207047816841F014
:10053000040181607047014600208A6802F00402CD
:100540000AB1012000E00020704721B1826842F426
:10055000A002826003E0826822F4A00282607047F9
:10056000014600208A6802F480020AB1012000E0FE
:100570000020704710B50A4600210023416821F48D
:100580006041531E41EA4331416010BD21B14268D0
:1005900042F40062426003E0426822F4006242607A
:1005A0007047F0B504460D4600200021092D11DDED
:1005B000E068A5F10A0606EB4607072606FA07F1EA
:1005C0008843A5F10A0606EB460603FA06F108433E
:1005D000E0600CE0206905EB4507072606FA07F105
:1005E000884305EB450603FA06F108432061072A14
:1005F0000FDA606B561E06EB86071F2606FA07F118
:100600008843561E06EB860605FA06F1084360632A
:1006100022E00D2A0FDA206BD61F06EB86071F2675
:1006200006FA07F18843D61F06EB860605FA06F19F
:100630000843206310E0E06AA2F10D0606EB86078E
:100640001F2606FA07F18843A2F10D0606EB86067F
:1006500005FA06F10843E062F0BD21B1826842F478
:100660008012826003E0826822F480128260704708
:100670000146C86C80B2704766484C3000687047CD
:1006800021B1426842F48062426003E0426822F491
:1006900080624260704721B1426842F480524260F9
:1006A00003E0426822F48052426070470A4600210B
:1006B000816821F4E04111438160704721B1826873
:1006C00042F40042826003E0826822F400428260C9
:1006D000704721B1826842F40212826003E08268AE
:1006E00022F4021282607047014600208A6802F4F8
:1006F00000120AB1012000E000207047F0B5044666
:100700001546002000220026092911DDE068A1F12C
:100710000A0707EB470C072707FA0CF29043A1F1F1
:100720000A0707EB470703FA07F21043E0600CE003
:10073000206901EB410C072707FA0CF2904301EB0B
:10074000410703FA07F210432061A06BC0F3015682
:10075000EF1C06F1010CA7EB0C0707EB870C1F271A
:1007600007FA0CF29043EF1C06F1010CA7EB0C0703
:1007700007EB870701FA07F21043A063F0BD10B53D
:100780000A4600210023816B21F44011531E41EAE7
:100790000351816310BD08B5002300930090009BB6
:1007A0000B440093009B1A6008BD08B50246002068
:1007B0000090009201F12800009B184400900098DE
:1007C000006880B208BD0A4600214168164B1940F6
:1007D0001143416070474162826270470A460021BE
:1007E000416821F01F0111434160704740B1094940
:1007F0000831096841F40001064A0832116007E037
:1008000004490831096821F40001024A08321160E4
:10081000704700000024014000280140003C0140D6
:10082000FFFEF0FFFDF7F1FFFFFD3FFF0246002056
:1008300013680B400BB1012000E000207047CA4351
:100840000260704770B502460020002300240B129E
:100850005568CEB205EA060415681D4015B10CB105
:10086000012000E0002070BD00220A12D343036083
:100870007047000001684FF6FE72114001600021D0
:10088000016041608160C1608D49884208D18C4916
:100890000839496841F00F01894A083A51608AE0F5
:1008A00087491431884208D185490839496841F09F
:1008B000F001834A083A51607DE08149283188423D
:1008C00008D17F490839496841F470617C4A083A87
:1008D000516070E07A493C31884208D17849083942
:1008E000496841F47041764A083A516063E07449BE
:1008F0005031884208D172490839496841F4702161
:100900006F4A083A516056E06D496431884208D117
:100910006B490839496841F47001694A083A5160E5
:1009200049E067497831884208D165490839496802
:1009300041F07061624A083A51603CE06149884286
:1009400006D1011F096841F00F01021F116032E05A
:100950005C491431884208D15A49091F096841F09D
:10096000F001584A121F116025E05649283188428B
:1009700008D15449091F096841F47061514A121F96
:10098000116018E04F493C31884208D14D49091F98
:10099000096841F470414B4A121F11600BE049494C
:1009A0005031884207D14749091F096841F4702135
:1009B000444A121F1160704710B50022026847F6C2
:1009C000F0739A430C6A8B6823430C6923434C6988
:1009D00023438C692343CC6923434C6A23438C6AA9
:1009E00023431A430260CB6843600B6883604B6803
:1009F000C36010BD0021016041608160C160016180
:100A000041618161C161016241628162704721B1CE
:100A1000026842F00102026004E002684FF6FE73D1
:100A20001A40026070471AB103680B43036002E08A
:100A300003688B4303607047416070470146486814
:100A400080B2704701460020002201F080531BB1A4
:100A50001C4B083B1A6802E0194B083B1A6802EA73
:100A600001030BB1012000E00020704700F080512D
:100A700019B11449091F086002E01149083948609A
:100A8000704701460020002201F080531BB10D4B3E
:100A9000083B1A6802E00A4B083B1A6802EA0103A5
:100AA0000BB1012000E00020704700F0805119B127
:100AB0000449091F086002E001490839486070478D
:100AC0000800024008040240002044490860091D53
:100AD0000860091D0860091D086041483F4914313C
:100AE0000860704700213D498279002A3AD00A46C1
:100AF000126803689A430B461A600A1D126803685D
:100B00009A430B1D1A60027911440A6803681A435C
:100B10000A60324A0832126803689A432F4B08333E
:100B20001A601A1D126803689A432C4B0C331A6022
:100B30004279102A0ED11A1F126803681A43274BF4
:100B400008331A601A1D126803681A43234B0C33CA
:100B50001A600DE02149427911440A6803681A437A
:100B60000A6005E0027911440A6803689A430A6042
:100B700070470021016001710C21417100218171D8
:100B800070471649103109680143144A1032116048
:100B9000704701460020114A143212680A400AB117
:100BA000012000E0002070470C49143108607047B4
:100BB000014600200022094B1B6803EA0102074B93
:100BC00014331B680B4013B10AB1012000E0002070
:100BD000704702491431086070470000000401406A
:100BE000FFFF0F0001460020FE4A106800F03800A9
:100BF000084310607047FB49096821F00801F94A71
:100C0000116011460968014311607047F549096890
:100C100021F01001F34A1160114609680143116087
:100C20007047F148EF494860F04848607047EE4827
:100C3000EC494860ED4848607047EA48006940F078
:100C40008000E84908617047E648006940F080008C
:100C5000E449086170470420E249C96801F00101D4
:100C600009B101200EE0DF49C96801F0040109B1B2
:100C7000022007E0DB49C96801F0100109B1032037
:100C800000E00420704700B502460423FFF7E3FFAD
:100C9000034603E0FFF7DFFF0346521E012B01D19D
:100CA000002AF7D102B90523184600BD30B5044625
:100CB00004254FF43020FFF7E6FF0546042D17D139
:100CC000C848006940F00200C6490861084644610E
:100CD000006940F0400008614FF43020FFF7D3FF77
:100CE0000546C048006941F6FD710840BD490861EC
:100CF000284630BD10B504244FF43020FFF7C3FF61
:100D00000446042C16D1B748006940F00400B549E8
:100D100008610846006940F0400008614FF4302047
:100D2000FFF7B1FF0446AF48006941F6FB71084088
:100D3000AC490861204610BD00B502460423FFF708
:100D40008AFF034603E0FFF786FF0346521E012B8E
:100D500001D1002AF7D102B90523184600BD10B50C
:100D600004244FF43020FFF7E7FF0446042C16D18B
:100D70009C48006940F004009A49086108460069EF
:100D800040F0400008614FF43020FFF7D5FF0446E3
:100D90009448006941F6FB71084092490861204679
:100DA00010BD00208F49C96901F0020109B101207D
:100DB00000E00020704730B5A5250424FFF7F1FFBF
:100DC00000B100254FF43020FFF75DFF0446042CEE
:100DD0003AD185488349886084488860084600691C
:100DE00040F0200008610846006940F040000861BA
:100DF0004FF43020FFF747FF0446042C1BD17948FD
:100E0000006941F6DF7108407649086108460069CB
:100E100040F01000086176480580E002FFF733FFDC
:100E20000446052C10D06F48006941F6EF71084068
:100E30006C49086108E0052C06D06A48006941F653
:100E4000EF71084067490861204630BD78B5064615
:100E50000C46042500200090E802FFF714FF054629
:100E6000042D24D15F48006940F001005D4908610C
:100E70003480E802FFF707FF0546042D10D1B01CAF
:100E80000090200C00990880E802FFF7FCFE054660
:100E90005448006941F6FE7108405249086106E075
:100EA0005048006941F6FE7108404E4908612846E5
:100EB00078BD70B504460D460426F002FFF7E3FE48
:100EC0000646042E11D14748006940F0010045490B
:100ED00008612580F002FFF7D6FE0646414800690A
:100EE00041F6FE7108403F490861304670BD70B55B
:100EF00005460E460424E002FFF7C5FE0446042C16
:100F000017D13948374988603848886008460069F1
:100F100040F0100008612E80E002FFF7B4FE0446A6
:100F2000052C06D02F48006941F6EF7108402D4985
:100F30000861204670BD2DE9F04304464FF6FF7668
:100F40003746B046B1460425E443E6B2C4F307276A
:100F5000C4F307484FEA1469E802FFF794FE054618
:100F6000042D49D120481F498860204888600846E0
:100F7000006940F010000861FF2E06D01C480830C0
:100F80000680E802FFF77FFE0546042D08D1FF2FFB
:100F900006D017480A300780E802FFF774FE0546BE
:100FA000042D0AD1B8F1FF0F07D011480C30A0F87A
:100FB0000080E802FFF767FE0546042D0AD1B9F16B
:100FC000FF0F07D00A480E30A0F80090E802FFF7A4
:100FD0005AFE0546052D0FD00248006941F6EF7113
:100FE000084007E00020024023016745AB89EFCDB0
:100FF00000F8FF1F664908612846BDE8F08330B558
:10100000054604244FF43020FFF73DFE0446042C2F
:1010100041D160485E4988605F4888600846006941
:1010200040F0200008610846006940F04000086177
:101030004FF43020FFF727FE0446042C22D15448F9
:10104000006941F6DF7108405149086108460069AE
:1010500040F0100008611DB100205049088002E0F6
:10106000A5204E4908804FF43020FFF70CFE0446BF
:10107000052C10D04648006941F6EF7108404449FC
:10108000086108E0052C06D04148006941F6DF718F
:1010900008403F490861204630BDF0B505460E4680
:1010A000174604243B483A4988603B488860E00280
:1010B000FFF7E9FD0446042C19D13548006940F0DA
:1010C00010003349086147F0F800304328433349A2
:1010D000891C0880E002FFF7D6FD0446052C06D0E7
:1010E0002B48006941F6EF71084029490861204604
:1010F000F0BD2748C069800870472548006A7047DE
:1011000000202349096801F0200109B1012000E015
:101110000020704729B11E4A126902431C4B1A6114
:1011200004E01B4A12698243194B1A617047014659
:101130000020012908D1164AD26902F001020AB141
:10114000012008E0002006E0114AD2680A400AB1F6
:10115000012000E0002070470D49C860704704205E
:101160000B49C96801F0010109B101200EE00849ED
:10117000C96801F0040109B1022007E00449C96807
:1011800001F0100109B1032000E0042070470000C5
:101190000020024023016745AB89EFCD00F8FF1F17
:1011A00010B50446CC48844208D10121042000F047
:1011B0002DFB0021042000F029FB46E0C7488442B3
:1011C00008D10121082000F021FB0021082000F0B7
:1011D0001DFB3AE0C248844208D10121102000F0F2
:1011E00015FB0021102000F011FB2EE0BD488442C9
:1011F00008D10121202000F009FB0021202000F06F
:1012000005FB22E0B848844208D10121402000F0CB
:10121000FDFA0021402000F0F9FA16E0B3488442BC
:1012200008D10121802000F0F1FA0021802000F097
:10123000EDFA0AE0AE48844207D10121801500F0A2
:10124000E5FA0021A01500F0E1FA10BD10B501216A
:10125000084600F0DBFA0021012000F0D7FA10BDAB
:101260002DE9F0410246002500260020002300243D
:10127000002791F803C00CF00F0591F803C00CF0A3
:10128000100CBCF1000F03D091F802C04CEA050528
:1012900091F800C0BCF1000F31D0146800202BE0A1
:1012A0004FF0010C0CFA00F3B1F800C00CEA030691
:1012B0009E4220D183004FF00F0C0CFA03F7BC4381
:1012C00005FA03FC4CEA040491F803C0BCF1280FB2
:1012D00006D14FF0010C0CFA00FCC2F814C00AE071
:1012E00091F803C0BCF1480F05D14FF0010C0CFA86
:1012F00000FCC2F810C0401C0828D1D31460B1F81B
:1013000000C0BCF1FF0F34DD546800202EE000F176
:10131000080C4FF0010808FA0CF3B1F800C00CEA11
:1013200003069E4221D183004FF00F0C0CFA03F705
:10133000BC4305FA03FC4CEA040491F803C0BCF179
:10134000280F05D100F1080C08FA0CF8C2F8148037
:1013500091F803C0BCF1480F07D100F1080C4FF021
:10136000010808FA0CF8C2F81080401C0828CED3F7
:101370005460BDE8F0814FF6FF7101800221817059
:101380000421C17070470246002093680B400BB1E6
:10139000012000E0002070470146886880B2704755
:1013A00002460020D3680B400BB1012000E0002072
:1013B00070470146C86880B270470161704741615B
:1013C00070470AB1016100E041617047C160704738
:1013D0004FF480320A43826181618261826982694D
:1013E000704702460020434B18684FF68073184040
:1013F00040EA021008433F4B186070473E49C861FD
:101400007047F0B50A46002300240021002500F0B3
:101410000046B6F1004F02D1364EF16901E0354E7B
:101420007168C0F3034583B200F44016B6F5401F5F
:1014300008D121F070612F4E766826F070662D4F2E
:101440007E6012E000F48016B6F5801F06D10326F8
:1014500006FA05F4A14341F0706106E0460D36013D
:1014600003FA06F6B14341F0706122B1460D360130
:1014700003FA06F6314300F00046B6F1004F02D100
:101480001C4EF16101E01B4E7160F0BD30B50022D1
:101490008B071C0F0F2303FA04F2164B08338C1032
:1014A00053F824309343134C08348D1044F82530FE
:1014B00023468C1053F824308C07240F00FA04F4D0
:1014C00023430C4C08348D1044F8253030BD0A49B4
:1014D000DC3108607047000000080140000C01404A
:1014E000001001400014014000180140001C0140A0
:1014F000002001400000014000002042DF48006859
:1015000040F00100DD49086008464068DC490840B9
:10151000DA49486008460068DA490840D749086057
:101520000846006820F4802008600846406820F4DF
:10153000FE0048604FF41F0088607047CF4909687B
:1015400021F48031CD4A11601146096821F48021CF
:101550001160B0F5803F03D0B0F5802F0ED106E0CA
:10156000C649096841F48031C44A116007E0C349A3
:10157000096841F4A021C14A116000E000BF00BF2A
:10158000704710B501460022002300204A11012AAD
:1015900002D1BA4C236806E0022A02D1B74C236A72
:1015A00001E0B64C636A01F01F02012494401C4024
:1015B0000CB1012000E0002010BD38B500200090E3
:1015C0000024002500BF3120FFF7DBFF054600980F
:1015D000401C00900098B0F5A06F01D0002DF2D013
:1015E0003120FFF7CEFF08B1012400E0002420469F
:1015F00038BD01460020A14A106820F0F80040EAFA
:10160000C10010607047A049086070470246002082
:101610009A4B586820F47C1042EA01031843974B18
:101620005860704798490866704701460020934A01
:10163000506820F003000843506070478F484068AE
:1016400000F00C007047014600208C4A506820F0E2
:10165000F00008435060704701460020874A5068F8
:1016600020F4E06008435060704701460020834A40
:10167000506820F4605040EAC1005060704729B1C2
:101680007E4A527A02437D4B5A7204E07B4A527A78
:1016900082437A4B5A7270477B49D8310860704751
:1016A00001460020754A506820F4404008435060CD
:1016B00070470021714A20321170704A82F8201060
:1016C000012802D004280AD104E001216B4A20320B
:1016D000117005E00521694A2032117000E000BF59
:1016E00000BF70476949086070476449096A01434F
:1016F000624A11627047654944390860704730B5E5
:1017000000210022002400235C4D6D6805F00C01CF
:1017100021B1042905D0082923D105E05C4D0560DD
:1017200022E05B4D05601FE0544D6D6805F47012BA
:10173000524D6D6805F48034022505EB92421CB9C8
:10174000544D554305600BE04C4D6D6805F4003574
:101750001DB1504D5543056002E04D4D55430560A8
:1017600002E04B4D056000BF00BF444D6D6805F0C1
:10177000F0010909484D6B5C0568DD4045603F4D4F
:101780006D6805F4E061090A434D6B5C4568DD4016
:1017900085603A4D6D6805F46051C90A3E4D6B5C39
:1017A0004568DD40C560354D6D6805F44041890BE5
:1017B0003A4D6B5CC568B5FBF3F5056130BD29B1E9
:1017C0002E4A526902432D4B5A6104E02B4A52695A
:1017D00082432A4B5A61704729B1284A92690243D1
:1017E000264B9A6104E0254A92698243234B9A6111
:1017F000704729B1214AD2690243204BDA6104E0E3
:101800001E4AD26982431D4BDA61704729B11B4AD7
:10181000D2680243194BDA6004E0184AD268824366
:10182000164BDA60704729B1144A12690243134B10
:101830001A6104E0114A12698243104B1A61704721
:1018400012494039086070470F49C86470470B4916
:10185000C87170470948406A40F080700749486283
:10186000704701460020054A92680A400AB10120EB
:1018700000E0002070470149887270470010024064
:101880000000FFF8FFFFF6FE0000424280044242E3
:1018900000127A0000093D001400002024000020FE
:1018A00010B50446FE48844208D10121C014FFF758
:1018B000ADFF0021E014FFF7A9FFC4E0B4F1804FB1
:1018C00008D101210846FFF7AEFF00210120FFF7F4
:1018D000AAFFB8E0F348844208D101210220FFF7B3
:1018E000A2FF00210220FFF79EFFACE0EE488442F9
:1018F00008D101210420FFF796FF00210420FFF703
:1019000092FFA0E0E948844208D101210820FFF7B6
:101910008AFF00210820FFF786FF94E0E448844214
:1019200008D101211020FFF77EFF00211020FFF7D2
:101930007AFF88E0DF48844208D101212020FFF7A8
:1019400072FF00212020FFF76EFF7CE0DA4884421E
:1019500008D101214014FFF759FF00216014FFF75F
:1019600055FF70E0D548844209D10121C804FFF732
:101970004DFF00214FF40020FFF748FF63E0D048FF
:10198000844209D101210805FFF740FF00214FF4EF
:101990008010FFF73BFF56E0CA48844209D101217D
:1019A0004805FFF733FF00214FF40010FFF72EFF2B
:1019B00049E0C548844208D101214020FFF733FFA8
:1019C00000214020FFF72FFF3DE0C048844208D1AE
:1019D00001218020FFF727FF00218020FFF723FF50
:1019E00031E0BB48844208D101218015FFF71BFF7D
:1019F0000021A015FFF717FF25E0B648844209D162
:101A000001210804FFF702FF00214FF48030FFF7A7
:101A1000FDFE18E0B048844209D101214804FFF7D7
:101A2000F5FE00214FF40030FFF7F0FE0BE0AB486D
:101A3000844208D101218804FFF7E8FE00214FF419
:101A40008020FFF7E3FE10BD00220288944B9842ED
:101A50000ED0994B98420BD0B0F1804F08D0914BEB
:101A6000984205D0904B984202D0904B984204D1B6
:101A70004FF68F731A404B881A438D4B984207D00C
:101A80008C4B984204D04FF6FF431A40CB881A4340
:101A900002808B8883850B880385814B98420BD00D
:101AA000854B984208D08B4B984205D08A4B984280
:101AB00002D08A4B984201D10B7A0386012383829C
:101AC000704770B5002400220023058C4FF6FE7687
:101AD00035400584028C8388048B4FF68F752C402B
:101AE000B51E2C400D882C43751E2A400D892A43B3
:101AF0004D882A436A4DA8420BD06F4DA84208D0AA
:101B0000744DA84205D0744DA84202D0734DA8422E
:101B100013D14FF6F7752A404D892A434FF6FB75CE
:101B20002A408D882A434FF6FF652B404FF6FF551C
:101B30002B408D892B43CD892B4383800483CD8813
:101B40008586028470BD70B5002400220023058CB8
:101B50004FF6EF7635400584028C8388048B48F677
:101B6000FF752C404FF6FF452C400D884FF6FF7651
:101B700006EA05252C434FF6DF752A400D8906EA53
:101B800005152A434D8806EA05152A43444DA84207
:101B900002D0494DA8421DD14FF67F752A404D898C
:101BA0004FF6FF7606EA05152A434FF6BF752A4021
:101BB0008D8806EA05152A434FF6FF352B404FF274
:101BC000FF752B408D8906EA85052B43CD8906EAF2
:101BD00085052B4383800483CD880587028470BDEF
:101BE00070B5002400220023058C4FF6FF663540B7
:101BF0000584028C8388848B4FF68F752C404FF6BA
:101C0000FC752C400D882C434FF6FF552A400D895A
:101C10004FF6FF7606EA05252A434D8806EA052594
:101C20002A431F4DA84202D0234DA8421DD14FF296
:101C3000FF752A404D894FF6FF7606EA05252A43AF
:101C40004FF6FF352A408D8806EA05252A434EF6D1
:101C5000FF752B404DF6FF752B408D8906EA051563
:101C60002B43CD8906EA05152B4383808483CD88D9
:101C70008587028470BD70B5002200230024058C86
:101C80004EF6FF7635400584038C8488828B48F6B7
:101C9000FF752A404FF6FF452A400D8820E00000DE
:101CA000002C01400004004000080040000C0040EF
:101CB000001000400014004000340140004C01407E
:101CC000005001400054014000180040001C00403A
:101CD0000020004000400140004401400048014015
:101CE0004FF6FF7606EA05252A434DF6FF752B4091
:101CF0000D8906EA05352B434D8806EA05352B4349
:101D0000FA4DA84202D0FA4DA84208D14BF6FF7511
:101D10002C408D894FF6FF7606EA85152C4384808A
:101D20008283CD88A0F84050038470BD828B4FF22F
:101D3000FF331A408283828B4FF6FF7303EA01233D
:101D40001A4382837047F0B50C46154600220021E5
:101D50000026078C4EF6FF7C07EA0C070784828B6F
:101D6000018C4FF6FF7707EA043640F6FF473A400A
:101D70004FF6FF7707EA05273A434FF6FF7707EA62
:101D800003373A43D94FB8420ED0D94FB8420BD09F
:101D9000B0F1804F08D0D74FB84205D0D64FB842E7
:101DA00002D0D64FB84206D14DF6FF77394046F4FF
:101DB0008057394305E047F6FF57394044F48057D0
:101DC000394382830184F0BD828B4FF6F3731A404E
:101DD0008283828B0A4382837047F0B50C46154696
:101DE000002200210026078C4FF6FF6C07EA0C0743
:101DF0000784828B018C4FF6FF7707EA04264FF6A3
:101E00000C773A404FF6FF7707EA03172F433A4320
:101E1000B64FB8420ED0B64FB8420BD0B0F1804F9B
:101E200008D0B44FB84205D0B34FB84202D0B34F38
:101E3000B84206D14FF6FF57394046F48077394310
:101E400005E04FF2FF57394044F4807739438283ED
:101E50000184F0BD028B4FF2FF331A400283028BE4
:101E60004FF6FF7303EA01231A4302837047F0B56C
:101E70000C461546002200210026078C4FF6EF7C09
:101E800007EA0C070784028B018C4FF6FF7707EAFD
:101E9000041640F6FF473A404FF6FF7707EA03374C
:101EA0003A434FF6FF7707EA05273A438F4FB84288
:101EB0000ED08F4FB8420BD0B0F1804F08D08D4F6D
:101EC000B84205D08C4FB84202D08C4FB84206D1F0
:101ED0004FF6DF77394046F01007394305E04FF6FB
:101EE0005F77394044F01007394302830184F0BD25
:101EF000028B4FF6F3731A400283028B0A4302836C
:101F00007047F0B50C46154600220021068C4FF6AE
:101F1000FE773E400684028B018C4FF60C763240F1
:101F20007E1C06EA03162E433243704EB0420ED09A
:101F30006F4EB0420BD0B0F1804F08D06D4EB04222
:101F400005D06D4EB04202D06C4EB04206D14FF675
:101F5000FD76314044F00106314305E04FF6F57659
:101F6000314044F00106314302830184F0BD70B575
:101F700005460C465D4885420ED05D4885420BD033
:101F8000B5F1804F08D05B48854205D05A4885425C
:101F900002D05A48854200D100E000BF208850B9E5
:101FA0002389A28861882846FFF7ABFFE18828468D
:101FB000FFF79EFF25E0208804280AD12389A28804
:101FC00061882846FFF753FFE1882846FFF742FF64
:101FD00017E0208808280AD12389A288618828462A
:101FE000FFF7FBFEE1882846FFF7EEFE09E02389B4
:101FF000A28861882846FFF7A6FEE1882846FFF7F9
:1020000095FE70BD2DE9F04105460C4600260127DE
:10201000608808B9022600E00026A088012801D1C6
:10202000022700E001272088A0B92389A2886188BF
:102030002846FFF766FFE1882846FFF759FF238906
:102040003A4631462846FFF712FFE1882846FFF757
:1020500001FF13E02389A28861882846FFF707FF64
:10206000E1882846FFF7F6FE23893A46314628469E
:10207000FFF747FFE1882846FFF73AFFBDE8F08108
:102080000A884B881A438B881A43CB881A430B89DA
:102090001A434B891A438B891A43A0F8442070478E
:1020A0004FF6FF71818000210180C1804180017263
:1020B00070470021018041808180C1800181418180
:1020C0008181C1817047002101804180012181808F
:1020D0000021C18001817047002101804180818001
:1020E000C18001814181818170470000002C014045
:1020F000003401400004004000080040000C004093
:1021000021B1028842F00102028004E002884FF609
:10211000FE731A400280704731B1B0F8442042F497
:102120000042A0F8442005E0B0F84420C2F30E02BB
:10213000A0F8442070471AB183890B43838102E0E1
:1021400083898B43838170478182704741EA020310
:10215000A0F8483070471AB183890B43838102E0AD
:1021600083898B438381704701894FF6F872114050
:10217000018170470A46002101894FF68F7319408B
:1021800011430181704730B504460D46294620466B
:10219000FFF7F0FF208940F00700208130BD2DE9D6
:1021A000F04104460D4616461F46602D06D13B46BB
:1021B000012231462046FFF75AFE05E03B46012248
:1021C00031462046FFF79DFE29462046FFF7D2FF05
:1021D000208940F007002081BDE8F08130B50C4631
:1021E00000210189C9B24FF6FF7505EA03251543A1
:1021F00025432943018130BD2DE9F04105460E46B6
:1022000017469846002443463A4631462846FFF78B
:10221000E5FF2C894FF6F870044044F007044FF6B0
:102220008F70044044F070042C81BDE8F081F0B55B
:1022300004460D4616461F463B4632462946204672
:10224000FFF7CCFF208940F480402081F0BD01855C
:10225000828270470A46002101884FF68F73194029
:10226000114301807047F0B50C4615461E4600210B
:10227000002200230189028B038C4FF6F877394046
:1022800021434FF6FC473A4040F201173A434FF6DC
:10229000DD773B404FF6FF7707EA06172F433B43B6
:1022A000018102830384F0BD0A460021018B4FF6B1
:1022B0008F7319401143018370470A460021018B37
:1022C00048F6FF7319404FF6FF7303EA02231943E0
:1022D000018370470A460021818B4FF68F731940A6
:1022E0001143818370470A460021818B48F6FF73B2
:1022F00019404FF6FF7303EA0223194381837047A5
:1023000021B1028842F08002028004E002884FF688
:102310007F731A400280704721B1828842F0040224
:10232000828004E082884FF6FB731A4082807047F7
:1023300021B1828842F00802828004E082884FF650
:10234000F7731A408280704721B1828842F00102FF
:10235000828004E082884FF6FE731A4082807047C4
:102360000A460021018B4FF6F77319401143018390
:1023700070470A460021018B4FF2FF7319404FF658
:10238000FF7303EA02231943018370470A460021C1
:10239000818B4FF6F77319401143818370470A46CA
:1023A0000021818B4FF2FF7319404FF6FF7303EA50
:1023B00002231943818370470A460021018B4FF69F
:1023C000FB7319401143018370470A460021018BBA
:1023D0004FF6FF3319404FF6FF7303EA0223194308
:1023E000018370470A460021818B4FF6FB73194029
:1023F0001143818370470A460021818B4FF6FF33DA
:1024000019404FF6FF7303EA022319438183704793
:102410000A460021018B4FF67F7319401143018357
:1024200070470A460021018BC1F30E014FF6FF737E
:1024300003EA02231943018370470A460021818B76
:102440004FF67F7319401143818370470A4600217C
:10245000818BC1F30E014FF6FF7303EA0223194388
:10246000818370470A460021018C4FF6FD731940A5
:102470001143018470470A460021018C4FF6F7731F
:1024800019401143018470470A460021018C4FF620
:10249000DF7319404FF6FF7303EA021319430184F7
:1024A00070470A460021018C4FF67F7319404FF6A2
:1024B000FF7303EA02131943018470470A4600219F
:1024C000018C4FF6FF5319404FF6FF7303EA0223C6
:1024D0001943018470470A460021018C4FF2FF73B3
:1024E00019404FF6FF7303EA022319430184704732
:1024F0000A460021018C4DF6FF7319404FF6FF7319
:1025000003EA023319430184704730B500230124E4
:102510008C40A3B2048C9C430484048C02FA01F521
:10252000ADB22C43048430BD30B5002304248C406C
:10253000A3B2048C9C430484048C02FA01F5ADB26E
:102540002C43048430BD70B5034600200024184697
:10255000183001258D40ACB21D8CA5431D8409B1F6
:10256000082909D100EB6100056825F070050560B8
:102570000568154305600EE00D1FC5F34E052844A0
:10258000056825F4E045056005684FF6FF7606EA24
:1025900002263543056070BD21B1028842F0020277
:1025A000028004E002884FF6FD731A4002807047F3
:1025B00021B1028842F00402028004E002884FF652
:1025C000FB731A400280704721B1828842F080027A
:1025D000828004E082884FF67F731A4082807047C1
:1025E00002884FF6F7731A40028002880A4302807D
:1025F000704782884FF68F731A40828082880A4320
:102600008280704702894FF6F8731A40028102896E
:102610000A430281704702894FF67F731A40028194
:1026200002890A430281704781847047818570471F
:10263000818670470187704781877047A0F84010F6
:10264000704702884FF6FF431A40028002880A430F
:10265000028070470146888E70470146088F704798
:102660000146888F70470146B1F840007047014627
:10267000888C70470146088D704702460020138AF7
:102680000B400BB1012000E000207047CA430282DA
:10269000704730B50246002000230024158A05EA61
:1026A0000103958905EA010413B10CB1012000E092
:1026B000002030BDCA4302827047000010B50446B6
:1026C000FB48844209D101218803FFF79FF80021CC
:1026D0004FF48040FFF79AF832E0F648844209D17F
:1026E00001214804FFF79FF800214FF40030FFF765
:1026F0009AF825E0F048844209D101218804FFF7C7
:1027000092F800214FF48020FFF78DF818E0EB4895
:10271000844209D10121C804FFF785F800214FF454
:102720000020FFF780F80BE0E548844208D1012142
:102730000805FFF778F800214FF48010FFF773F8D1
:1027400010BD2DE9F04786B005460E460024A2468E
:1027500000BFA1460027B08900B100BF2F462C8AD8
:102760004CF6FF700440F08804432C82AC894EF68E
:10277000F3100440B0883189084371890843044349
:10278000AC81AC8A4FF6FF400440B0890443AC8270
:1027900001A8FEF7B4FFC648874202D1DDF810A0B9
:1027A00001E0DDF80CA0A88900F4004040B10AEB7C
:1027B000CA0000EB0A1031684900B0FBF1F807E0ED
:1027C0000AEBCA0000EB0A1031688900B0FBF1F88F
:1027D0006420B8FBF0F004012009642101FB10899A
:1027E000A88900F4004040B1322000EBC900B0FBE2
:1027F000F1F000F00700044308E0322000EB09107C
:102800006421B0FBF1F000F00F0004432C8106B00E
:10281000BDE8F0874FF41651016000218180C1802E
:1028200001810C21418100218181704710B5024650
:102830000020108A4FF2FF0318400B884C88234376
:102840008C882343CC8823431843108210BD002179
:10285000018041808180C180704721B1828942F42A
:102860000052828104E082894DF6FF731A40828112
:102870007047F0B50346002400260025002040F6EE
:102880006A17B94200D100BF1846C1F3421401F0E3
:102890001F06012707FA06F5012C01D10C3004E0D0
:1028A000022C01D1103000E014301AB107682F4318
:1028B000076002E00768AF430760F0BD1AB1838A82
:1028C0000B43838202E0838A8B4383827047028AB0
:1028D0004FF6F0731A400282028A0A43028270475E
:1028E00082894FF2FF731A40828182890A43828172
:1028F000704721B1828942F00202828104E082891C
:102900004FF6FD731A4082817047028A4FF6DF73DB
:102910001A400282028A0A430282704721B1028A67
:1029200042F48042028204E0028A4BF6FF731A40AE
:1029300002827047C1F3080282807047014688888E
:10294000C0F308007047818941F00101818170471F
:10295000028BD2B20283028B42EA012202837047C9
:10296000028B02F47F420283028B0A430283704788
:1029700021B1828A42F02002828204E0828A4FF6EC
:10298000DF731A408282704721B1828A42F01002BE
:10299000828204E0828A4FF6EF731A408282704787
:1029A00021B1828A42F00802828204E0828A4FF6D4
:1029B000F7731A408282704721B1828942F4004243
:1029C000828103E08289C2F30E028281704721B1C5
:1029D000828A42F40062828204E0828A4FF2FF73AC
:1029E0001A4082827047828A4FF6FB731A408282B5
:1029F000828A0A438282704721B1828A42F00202AF
:102A0000828204E0828A4FF6FD731A408282704708
:102A100002460020B1F5007F00D100BF13880B40B3
:102A20000BB1012000E00020704701F40072B2F504
:102A3000007F00D100BFCA430280704770B50246D4
:102A4000002400230025002040F66A16B14200D180
:102A500000BFC1F3421501F01F03012606FA03F37C
:102A6000012D02D19689334006E0022D02D1168A4B
:102A7000334001E0968A33400C12012606FA04F432
:102A80001688344013B10CB1012000E0002070BD65
:102A900010B50022002340F66A14A14200D100BF05
:102AA0000A1201249440A3B2DC43048010BD00004C
:102AB000003801400044004000480040004C004005
:102AC0000050004010B5002807DA0A07140EF44A37
:102AD00000F00F031B1FD45403E00A07130EF14A42
:102AE000135410BD10B5F04800686421B0FBF1F438
:102AF000B4F1807F01D3012011E024F07F40401E1B
:102B00004FF0E02148610F214FF0FF30FFF7DAFF6F
:102B100000204FF0E021886107200861002008B103
:102B200000BFFEE708214FF0FF30FFF7CBFF00208A
:102B3000DE49086010BDDD480068401CDB490860C4
:102B40007047DA48006870470146D84802688A42F0
:102B500007D9501AB0F1004F01D201207047002070
:102B6000FCE7881AB0F1004F01D90120F6E70020F8
:102B7000F4E702468A4207D9501AB0F1004F01D259
:102B8000012070470020FCE7881AB0F1004F01D9FE
:102B90000120F6E70020F4E702468A4207D9501ADE
:102BA000B0F1004F01D2501A7047881AFCE7881A1A
:102BB000B0F1004F01D9501AF6E7881AF4E711B5C1
:102BC0004FF0E020836942F210710098B0FBF1F001
:102BD000B6490968441842F210710098B0FBF1F24E
:102BE00001FB120000904820B3FBF0F000998842EE
:102BF0000CD2AD4800686421B0FBF1F0009901EB04
:102C0000C101A0EBC1000344641C04E0009800EB88
:102C1000C000A3EBC00300BFA44801682046FFF733
:102C2000A8FF0028F8D1A1480068A04204D14FF0C5
:102C3000E02080699842EFD818BD11B54FF0E02030
:102C400083690A210098B0FBF1F09849096844189B
:102C50000A210098B0FBF1F201FB120000909448A9
:102C6000B3FBF0F0009988420DD28F4800686421D0
:102C7000B0FBF1F140F2654200985043A1EB8010A7
:102C80000344641C05E040F2654100984843A3EB0F
:102C9000801300BF854801682046FFF76AFF0028BF
:102CA000F8D182480068A04204D14FF0E02080694A
:102CB0009842EFD818BD11B54FF0E0208469009814
:102CC00000EBC00101EB00107849096801EB8003BB
:102CD00000BF764801681846FFF74BFF0028F8D17F
:102CE00072480068984204D14FF0E0208069A04209
:102CF000EFD818BD03B500996C480068FFF739FF9D
:102D000050B9009869490968884207D14FF0E0201E
:102D100080690199884201D801200CBD0020FCE7A0
:102D20000FB542F210720399B1FBF2F1019A11440E
:102D3000019142F210720399B1FBF2F302FB1311FD
:102D4000039102994822B1FBF2F1039A914210D209
:102D5000554909686422B1FBF2F1039A02EBC20201
:102D6000A1EBC201029A114402910199491C0191FF
:102D700006E00299039A02EBC202A1EBC2010291A2
:102D800001990160029941600FBD0FB50A220399B4
:102D9000B1FBF2F1019A114401910A220399B1FBAE
:102DA000F2F302FB131103910299414AB1FBF2F1D4
:102DB000039A914211D23C4909686422B1FBF2F2B4
:102DC00040F2654303995943A2EB8111029A1144E1
:102DD00002910199491C019107E0029A40F2654372
:102DE00003995943A2EB8111029101990160029963
:102DF00041600FBD0FB50199039A02EBC20303EBCB
:102E0000021201EB82010191019901600299416076
:102E10000FBD0CB52549096800914FF0E021896983
:102E2000019100990160019941600CBD2DE9F041CB
:102E30001D48006804F026F806464FF0E021886936
:102E400004F020F80746314603F04DFE04461748CB
:102E5000006804F017F80646164903F044FE0546DC
:102E6000214603F0B6FDBDE8F0810FB50299009848
:102E7000FFF792FE42F2107100FB01F3002B07DD19
:102E800003980199401A482190FBF1F0034400E0B7
:102E900000BF184604B000BD0020704700207047F6
:102EA00018ED00E000E400E0000000202800002011
:102EB000401901000000C84270B505460C4605F0F7
:102EC000010068B104F0010028B100220821214866
:102ED000FEF777FA04E0012208211E48FEF771FA96
:102EE00005F0020068B104F0020028B100220121BF
:102EF0001948FEF766FA04E0012211461648FEF76B
:102F000060FA70BD08B501210820FEF765FC0820B5
:102F1000ADF8000010208DF8030003208DF80200AA
:102F200069460C48FEF79CF901210420FEF754FC89
:102F30000120ADF8000010208DF8030003208DF86B
:102F4000020069460448FEF78BF903210846FFF7A3
:102F5000B3FF08BD000C01400008014000214160A2
:102F60000160704710B502465068401CC0F308036A
:102F70001068984201D1002010BD546802F1080089
:102F8000015553600120F7E710B5024610685468F8
:102F9000A04201D1002010BD1068401CC0F30803FE
:102FA000146802F10800005D087013600120F2E768
:102FB00001464A680B68D21AC2F30800704730B560
:102FC0000446002504B1002404EB84116C4A02EB92
:102FD000C100FFF7EDFF0546284630BD00214160E6
:102FE0000160704710B502465068401CC0F30803EA
:102FF0001068984201D1002010BD546802F1080009
:10300000015553600120F7E710B502461068546877
:10301000A04201D1002010BD1068401CC0F308037D
:10302000146802F10800005D087013600120F2E7E7
:1030300001464A680B68D21AC2F30800704700B50F
:10304000002200BF0EE002EB82114D4B03EBC100EA
:10305000FFF784FF02EB82114A4B03EBC100FFF73D
:10306000BDFF521C002AEED000BD704710B586B0DF
:10307000044601214804FEF7BCFB02940020ADF891
:103080000C00ADF80E00ADF810000C20ADF81200E9
:103090000020ADF8140002A93B48FFF752FB0121C4
:1030A0000420FEF799FB0820ADF8000004208DF8FD
:1030B000030069463548FEF7D3F801210420FEF7E6
:1030C0008BFB0420ADF8000003208DF802001820CF
:1030D0008DF8030069462D48FEF7C2F8012240F240
:1030E00025512948FFF7C5FB26208DF8040009204B
:1030F0008DF8050000208DF8060001208DF80700EE
:1031000001A8FDF726F901211F48FFF7A6FB06B02D
:1031100010BD70470CE002781B4B1B1D1A8000BFCE
:10312000194A128802F08002002AF9D0401C491E78
:103130000029F0D17047704738B513480488001D46
:10314000058804F0200018B1E9B20D48FFF70AFF26
:1031500004F0800090B169460A48FFF755FF40B976
:1031600009480C30008820F0800007490C310880A5
:1031700004E09DF800000449091D088038BD0000E6
:103180003C040020440600200044004000080140A8
:10319000F8B504460D4616466048201A1C2190FBDF
:1031A000F1F0242190FBF1F08000071D0121384649
:1031B000FEF712FB0120A84080B2ADF800001020FD
:1031C0008DF803008DF8026069462046FEF748F846
:1031D000F8BDF8B504460D4616465048201A1C2185
:1031E00090FBF1F0242190FBF1F08000071D0121FC
:1031F0003846FEF7F1FA0120A84080B2ADF8000091
:1032000048208DF803008DF8026069462046FEF7DD
:1032100027F8F8BD2DE9FE4305460C4691461E46AB
:103220000A9F2020FDF7D5FC3C48281A1C2190FB62
:10323000F1F0242190FBF1F000F0FF082146404618
:10324000FEF724F92020019000208DF808000C20C2
:103250008DF8090001208DF80A0001A8FDF742FC55
:10326000052C18D2DFE804F003070B0F130006202B
:103270008DF8000019E007208DF8000015E0082007
:103280008DF8000011E009208DF800000DE00A2003
:103290008DF8000009E00A2C03DA17208DF80000F1
:1032A00002E028208DF8000000BF00BF8DF801600B
:1032B0008DF8027001208DF803006846FDF749F88B
:1032C000BDE8FE837047704770477047704710B580
:1032D0002020FDF76DFC012818D12020FDF779FC96
:1032E0000A20FFF7AAFC20210D48FEF74CF868B928
:1032F00020210C48FEF747F820B920210948FEF7A5
:103300005EF803E020210748FEF757F810BD70472C
:1033100030BF704772B6704762B670470008014010
:1033200000100140000C014008B501211020FEF7FB
:1033300053FA4FF4C050ADF8000010208DF8030090
:1033400003208DF802006946A348FDF789FF01209C
:10335000A2490860A249C1F8B00108BD10B59E4855
:10336000406820F470209C4948600846406840F45A
:10337000002048600846406820F4704048600846D5
:10338000406840F4004048600420FFF718FC934870
:10339000803800689249D1F8301100EB4100C0F14B
:1033A0000300C0B210BD10B58B48406820F47020F7
:1033B000894948600846406840F440304860012030
:1033C0008649091D0860FFF7FAFB01208449C1F80E
:1033D000AC010520FFF7F3FB00208049091D0860C0
:1033E0000620FFF7ECFB00207D49C1F8AC0102206C
:1033F000FFF7E5FB10BD10B57748406820F470205A
:10340000754948600846406840F4403048600020F4
:10341000724908607249C1F8B0010420FFF7CFFB80
:1034200001206E4908600620FFF7C9FB01206C49A6
:10343000C1F8B0010620FFF7C2FB10BD10B5002493
:103440006548406820F47020634948600846406839
:1034500040F40020486001206049091D08600220F6
:10346000FFF7ADFB01205E49C1F8AC010220FFF778
:10347000A6FB07E0601CC4B2FA2C03DDFFF7BBFF1C
:10348000012010BD55487C3800680028F2D153490E
:10349000086000BFF5E710B50020504908604E48AD
:1034A000406820F470204C4948600846406840F469
:1034B0004030486000204A49C1F8B0010220FFF7BF
:1034C0007EFB0120454908600520FFF778FB0020BE
:1034D0004349C1F8AC0110BD10B500203F49086058
:1034E0003D48406820F470203B49486008464068E9
:1034F00040F44030486001203949C1F8B001022051
:10350000FFF75DFB0120354908600520FFF757FBF9
:1035100000203349C1F8AC0110BD70B504462E48F7
:10352000406820F470202C4948600846406840F408
:103530004030486000202949086000251EE0E0096D
:1035400020B101202549091D086003E0002023491E
:10355000091D08606006040E0220FFF730FB012001
:103560001E4908600220FFF72AFB00201C49C1F811
:10357000AC010220FFF723FB681CC5B2082DDEDB7F
:1035800070BD70B500241448406820F470201249C2
:1035900048600846406840F400204860002516E076
:1035A00000200E4908600220FFF709FB01200C49AA
:1035B000C1F8AC016006040E08487C38006808B108
:1035C000601CC4B20120FFF7FAFA681CC5B2082DCE
:1035D000E6DB204670BD000000100140AC01224235
:1035E0000000224200B593B001214802FEF7F4F832
:1035F00001210420FEF7F0F80220ADF84800002079
:103600008DF84B0012A95348FDF72AFE5248FCF7EB
:1036100009FF00200D908DF838004FF460200F90C6
:1036200001208DF839000020109001208DF8440011
:103630000DA94948FCF71DFF072301221146464802
:10364000FCF7AFFF01214448FCF73FFF4248FCF77D
:103650005EFF00BF4048FCF75FFF0028FAD13E48FC
:10366000FCF764FF00BF3C48FCF765FF0028FAD177
:1036700001213948FCF769FF01213748FCF730FF89
:1036800001210846FEF79BF83448FDF7F3F832486D
:103690004C30029032480390002004903220059074
:1036A000002006908020079040000890800009903C
:1036B00020200A904FF440500B9000200C9002A95B
:1036C0002648FDF779F901212448FDF7A0F90120EA
:1036D000FDF7EBF9012202212048FDF7A4F90B20A8
:1036E0008DF8040000208DF805008DF806000120FB
:1036F0008DF8070001A8FCF72CFE13B000BD1CB527
:103700000220FDF7BEF901280BD16846FFF781FBC7
:103710006C46009813490860019848600220FDF744
:10372000C4F90420FDF7ADF9012802D10420FDF70A
:10373000BCF90820FDF7A5F9012802D10820FDF702
:10374000B4F91CBD07490968016006494968416030
:1037500070470000000801400024014008000240BA
:103760004C0800202C00002000B589B00121022067
:10377000FEF73FF801211120FEF72EF801212A481B
:10378000FDF73FFE4020ADF8200018208DF8230003
:1037900003208DF8220008A92448FDF761FD244884
:1037A000FEF77EF844F61F60ADF818004820ADF82B
:1037B00014000020ADF81A00ADF8160005A91C4849
:1037C000FEF742F901A8FEF774FC6020ADF8040092
:1037D0000020ADF80A000120ADF806000020ADF889
:1037E0000C0001A91248FEF76CF908211048FEF7F9
:1037F000B7FD01210E48FEF783FD012202210C488E
:10380000FEF799FC01210A48FEF77AFC01210848DD
:10381000FEF782FC09B000BD10B5044621460448FD
:10382000FEF706FF10BD0000000C1A00001001405A
:10383000000400402DE9F84704460D46164621468F
:103840004FF0000C002700208EE0002205E016F863
:1038500001AB9046521C0DF808A0032A04DA96F832
:103860000080B8F1000FF2D1032A0ADABCF1000F90
:1038700007D14FF03A0A9046521C0DF808A00CF1FF
:10388000010C05E013F801AB9046521C0DF808A09E
:10389000032A04DA93F80080B8F1000FF2D106E0B1
:1038A0004FF0000A9046521C0DF808A07F1C032A16
:1038B000F6DBA1EB0409A5F10108C14509DA9DF881
:1038C0000080DFF8C89109EB980898F8008001F8AB
:1038D000018BA1EB0409A5F10108C1450FDA9DF8A0
:1038E00000804FEA88784FEA98689DF8019048EA8E
:1038F0001918DFF8989119F8088001F8018BA1EBED
:103900000409A5F10108C14516DA022F04D14FF0D0
:103910003D0801F8018B0FE09DF801804FEA08781F
:103920004FEA98689DF8029048EA9918DFF85C9190
:1039300019F8088001F8018BA1EB0409A5F1010831
:10394000C14510DA012F04DB4FF03D0801F8018B6F
:1039500009E09DF8028008F03F08DFF8309119F87F
:10396000088001F8018B001D96F80080B8F1000F67
:103970007FF46BAF93F80080B8F1000FF8D1A1EBA2
:103980000408A84503DA4FF0000881F80080BDE87C
:10399000F8870146302905DB392903DCA1F1300025
:1039A000C0B27047412905DB462903DCA1F137008D
:1039B000C0B2F6E70020F4E738B5044600200090D6
:1039C000002510E0204602F0F7FFC0B2C5F1030168
:1039D0000DF801002E21204602F094FF044604B9A0
:1039E00003E06D1C641C042DECD300BF009838BDAF
:1039F00010B503460C461946224600E0491C0878DB
:103A0000222802D008780028F8D1491C30E0087834
:103A10005C2804D011F8010B02F8010B28E0491CC6
:103A200008786E2812D004DC622807D0662819D1E5
:103A300008E072280ED0742814D10FE0082002F894
:103A4000010B13E00C2002F8010B0FE00A2002F832
:103A5000010B0BE00D2002F8010B07E0092002F832
:103A6000010B03E0087802F8010B00BF00BF491CFE
:103A70000878222802D008780028C8D100201070C9
:103A80000878222800D1491C002010BDC87C0008FD
:103A9000002141600160704710B504460020FE49D6
:103AA0000860FE490860FE490860FE490860FE495A
:103AB0000860FE490860FE490860FE4908604FF44E
:103AC0000071FD4802F0F5FEFC48FFF7E1FF2046DB
:103AD000FFF7CCFA012010BD2DE9F04105460C4658
:103AE00001272E4608E03178F548FFF77BFA08B940
:103AF000002703E0761C641E002CF4D100BFF148BF
:103B0000008840F08000EF4908803846BDE8F08129
:103B100010B504462146EC48FFF736FA08B10120FB
:103B200010BD0020FCE770B504460E462079401C0D
:103B300000F003052068A84204D12078401C00F062
:103B400003002060616801EB410202EBC11204F145
:103B5000080101EB82004FF40372314602F090FE3F
:103B60006560012070BD70B504460D46D4E90001C2
:103B7000884201D1002070BD2078401C00F003066F
:103B8000206800EB400202EBC01204F1080000EBD9
:103B900082014FF40372284602F072FE2660012073
:103BA000E9E701460A79121D0B78D21A02F00300E8
:103BB000704730B5ADF5037D0446BE4800680A285D
:103BC0000BD2DFE800F0050B15ED631F35BAA0B48A
:103BD000492C02D10120B7490860E1E0502C03D103
:103BE0000220B449086002E00020B2490860D7E032
:103BF000442C03D10520AF49086002E00020AD4904
:103C00000860CDE02C2C0FD10620AA4908600025C1
:103C100003E00021AD4841556D1C082DF9D300206B
:103C2000AB49C1F81C0202E00020A2490860B7E0DD
:103C30002C2C14D0302C0EDB392C0CDCA448D0F802
:103C40001C12A2484454A248D0F81C02401CA049AF
:103C5000C1F81C0219E000209649086015E09B4855
:103C600002F0AAFE9A49C1F82002002504E00021D2
:103C70009648103841556D1C082DF8D30020944902
:103C8000C1F80C0204208B49086089E02C2C15D067
:103C9000302C0FDB392C0DDC8D48D0F80C1200F5E0
:103CA000017044548A48D0F80C02401C8849C1F87D
:103CB0000C0227E000207F49086023E08348103889
:103CC00002F07AFE8249C1F810020020C1F8000219
:103CD0000846D0F81002B0F5007F03D300207549E4
:103CE00008600FE0002504E00021784810304155BD
:103CF0006D1C202DF8D30020754981F8440208205E
:103D00006C4908604CE02C2C0DD0714890F844129E
:103D100000F5097044546E4890F84402401C6C4908
:103D200081F8440202E009206249086038E03A2C38
:103D300002D107205F49086032E06548D0F80002F0
:103D400063490C540846D0F80002401CC1F8000238
:103D50000846D0F80002D1F8101288421FD3002084
:103D60005B49D1F810125A4A505452490860104623
:103D70000146D0F8102203A802F082FD534810300B
:103D8000FFF71AFE02905248D0F8100201905048F6
:103D9000D0F82002009069464848FFF7C4FE00BFF3
:103DA00000BF0DF5037D30BD424800687047F8B58F
:103DB00004460D46164601273748006810B1012811
:103DC00029D129E04FF400713B4802F072FDFEF763
:103DD000B8FE32490860206818B1A1682068FFF772
:103DE0007BFE606820B1606802F096FD2D49086096
:103DF0001DB13146284602F05CFD00202B490860C9
:103E00002749086028490860294908603149086045
:103E1000012021490860BAE0204AE1681268881848
:103E2000FEF792FE60B10227606828B122486168FF
:103E300002F056FD00B10027002017490860A5E0F8
:103E40006846FFF765FE0028F9D09DF80000FFF7EF
:103E5000B0FE6DB115480068B04204D29DF8000074
:103E600012490968685411480068401C0F490860ED
:103E70000B480068B0F5007F05D29DF800000E49A0
:103E8000074A1268885406480068401C04490860C4
:103E9000606800287AD01FE0400000205C0000200D
:103EA00044000020480000204C000020500000206A
:103EB0005400002060000020F80A0020F80C0020C8
:103EC000440600200C4400403C040020C40A0020AA
:103ED000B008002058000020384960680968405C3C
:103EE0009DF80010884205D134480068401C3349D1
:103EF000086005E03148006810B100202F490860D3
:103F00002E4800682E490968884204D30027002003
:103F10002C4908603BE02C482C490968405C9DF81E
:103F20000010884205D129480068401C27490860D4
:103F300005E02648006810B10020244908602348A5
:103F40000068052804D3032700201E4908601EE0EE
:103F50001F4820490968405C9DF80010884205D13F
:103F60001C480068401C1B49086005E019480068AF
:103F700010B100201749086016480068042805D3CE
:103F8000032700200F49086001E0FFE700BF00BFE2
:103F90003846F8BD70B504460E46002500BF07E060
:103FA00021460D48FEF7F0FF00B903E0641C6D1CCC
:103FB000B542F5D300BF284670BD00004C0000207C
:103FC0004800002040000020340000205400002061
:103FD0003A000020580000203C04002000208A49BC
:103FE000087070472DE9F04106460C466FF0020854
:103FF000002700E1F55D844800780E2871D2DFE8E3
:1040000000F007151F2D404E585F788690A2C4D34C
:104010007E48058000884FF6FF7101EA00207B4949
:104020000880012078490870641EE2E07748008823
:10403000284376490880022073490870641ED8E03E
:104040007248458040884FF6FF7101EA00206F49B1
:10405000488003206C490870641ECAE06B484088A1
:1040600028436A4948800846408828B100206649AC
:1040700008706FF0010802E0042063490870641EB4
:10408000B7E06248858080884FF6FF7101EA002022
:104090005E49888005205C490870641EA9E05B4881
:1040A0008088284359498880062057490870641E33
:1040B0009FE05648C580072053490870641E98E069
:1040C00052480572007A032807D05048007A102819
:1040D00003D04E48007A062804D108204A490870C7
:1040E00005E082E00020484908706FF00308641E74
:1040F0007FE0641E4548458140894FF6FF7101EA23
:1041000000204249488109203F49087071E0641E3F
:104110003E48408928433D4948810A203A49087071
:1041200067E0641E0B20384908703848007A06287A
:1041300002D13648057605E03448C560C068000203
:104140003249C86055E0641E3048C06828432F4992
:10415000C8600846007A032802D006280FD104E080
:1041600000202949087080460DE028484576012046
:104170002649C860002024490870804603E00C20CE
:104180002149087000BF00BF33E0641E1F4805616D
:104190001DB900201C4908702BE000201B49486114
:1041A0000D201949087024E018480069FF2806D935
:1041B0000020154908706FF00408002419E0134826
:1041C0000069A0420AD1F11922461048183002F0C5
:1041D00057FB00200C490870804604E000200A4983
:1041E00008706FF00408002403E0002006490870FE
:1041F00000BF00BF7F1C002C7FF4FCAE00200249F2
:1042000008704046BDE8F0816400002030150020B1
:1042100010B51C491122002005E01B4C54F8203039
:104220000B60091D401C9042F7D310BD2DE9F041F1
:104230000126002400274FF00408FCF7F2FC34208C
:10424000FCF78AFF1048FCF731FD8046B8F1040FF7
:1042500011D10C4D112700BF0AE00B4A02EB84007C
:104260002968FCF7F3FD042800D000262D1D641CEE
:10427000BC42F2D300E00026FCF7DFFC3046BDE88C
:10428000F08100004816002000C0000810B5FFF7BC
:104290004BF8FFF788F8D820FFF73FF9FFF7CEF883
:1042A0000B20FFF73AF9FFF7C9F80020FFF735F9BF
:1042B000FFF7C4F8FFF79FF810BD10B5FFF773F8CC
:1042C000D820FFF72AF9FFF7B9F80020FFF725F902
:1042D000FFF7B4F8D020FFF720F9FFF7AFF8402040
:1042E000FFF71BF9FFF7AAF81820FFF716F9FFF7F9
:1042F000A5F80620FFF711F9FFF7A0F8FFF77BF804
:1043000010BD2DE9F0410546002600240027FFF7E7
:104310004AF8D820FFF701F9FFF790F80020FFF7DF
:10432000FCF8FFF78BF8D020FFF7F7F8FFF786F8D7
:104330002846FFF7F2F8FFF781F82C20FFF7EDF899
:10434000FFF77CF8FFF757F8FFF72DF8D820FFF7B5
:10435000E4F8FFF773F80720FFF7DFF8FFF76EF8D0
:10436000FFF721F8D920FFF7D8F8FFF767F8FFF734
:1043700008F90446FFF78FF8FFF703F90746FFF740
:10438000ABF8FFF738F807EB042086B23046BDE8FB
:10439000F0812DE9F04100245120FFF7B2FF0546DE
:1043A000A5F5806002F065FD0746134902F09BFB0E
:1043B0000646124902F05FFB04462046BDE8F08144
:1043C0002DE9F04700246120FFF79BFF8146A9F506
:1043D0001C50E63802F04DFD824602F082FD074691
:1043E000074A084B02F0D6FC054602F0BDFD044624
:1043F0002046BDE8F0870000000016440000484257
:1044000052B81E85EBB1424010B50020FE49C1F8FC
:104410000C02C1F80402C1F80802C1F81002C1F888
:1044200014024FF4E130FFF737FB10BD1FB5F7A0C2
:104430000090F9A00190009802F06EFA02906420BA
:104440000390002211466846FFF7B1FC044614B9F8
:10445000002004B010BD012C01D90220F9E7012091
:10446000F7E77FB5054615B9ECA0009001E0EDA097
:104470000090E9A0019064200390009802F04CFAAB
:104480000290002211466846FFF791FC044614B9D9
:10449000002004B070BD012C01D90420F9E70120EF
:1044A000F7E77FB505460C46E0A00090DAA0019042
:1044B00064200390009802F02FFA02908022D249E3
:1044C0006846FFF774FC0646012E02D9052004B0A9
:1044D00070BD96B97DB1CC4802F01EFAA04201D25F
:1044E000204602E0C84802F017FA04462246C649B0
:1044F000284602F0C5F90020E9E70120E7E77FB58B
:104500000546012D02D0022D06D102E0CAA000907E
:1045100005E0CEA0009002E0D1A0009000BF00BF57
:10452000BDA0019064200390009802F0F5F902907C
:10453000002211466846FFF73AFC044614B90020F1
:1045400004B070BD012C01D90320F9E70120F7E781
:104550007FB5054615B9C7A0009001E0C9A000903D
:10456000ADA0019064200390009802F0D5F902906C
:10457000002211466846FFF71AFC044614B90020D1
:1045800004B070BD012C01D90620F9E70120F7E73E
:104590002DE9FF41044600250026BEA000909EA004
:1045A000019064200390009802F0B6F902904FF455
:1045B000807295496846FFF7FAFB0746C7B99CB178
:1045C000B7A1914802F08CF905466DB1B6A1284615
:1045D00002F0D0F9B4A1002002F0CCF90646761C16
:1045E0003046FFF7E9F92060002004B0BDE8F08113
:1045F000012F01D90820F8E70120F6E77FB505462D
:1046000015B9AAA0009001E0ACA0009082A0019092
:1046100064200390009802F07FF902900022114676
:104620006846FFF7C4FB044614B9002004B070BD0F
:10463000012C01D90820F9E70120F7E77FB50546ED
:104640000E4615B9A1A0009006E03246A4A16E481E
:1046500002F0B4FE6C4800906FA0019064200390BB
:10466000009802F059F90290002211466846FFF7BF
:104670009EFB044614B9002004B070BD012C01D982
:104680000920F9E70120F7E7F0B585B004460D46AB
:1046900016462B46224697A15B48009602F08EFEF6
:1046A000594801905CA0029064200490019802F0A7
:1046B00033F903900022114601A8FFF778FB074663
:1046C00017B9002005B0F0BD012F01D90A20F9E784
:1046D0000120F7E77FB504460D462B4622468DA103
:1046E000494802F06BFE484800904BA0019040F210
:1046F000DC500390009802F00FF90290002211465E
:104700006846FFF754FB064616B9002004B070BD9A
:10471000012E01D91020F9E70120F7E7F0B58FB09D
:1047200004460D461646F078B17872783378CDE9B4
:104730000632CDE90810EA78A87869782B78CDE9B7
:104740000231CDE90402E078A178CDE90010637868
:10475000227877A12C4802F031FE2B480B902EA036
:104760000C9064200E900B9802F0D6F80D90002269
:1047700011460BA8FFF71BFB074617B900200FB027
:10478000F0BD012F01D90B20F9E70120F7E77FB534
:10479000054615B975A0009001E078A000901EA014
:1047A000019064200390009802F0B6F80290002275
:1047B00011466846FFF7FBFA044614B9002004B01E
:1047C00070BD012C01D90C20F9E70120F7E77FB576
:1047D000044622466DA10C4802F0F0FD0A48009004
:1047E0000DA001904FF4FA700390009802F094F835
:1047F0000290002211466846FFF7D9FA05460DB926
:104800000020CBE0CCE000008C16002041542B525D
:1048100053540D0A000000004F4B00004154453036
:104820000D0A0000415445310D0A000041542B4748
:104830004D520D0A0000000041542B43574D4F4488
:10484000455F4355523D310D0A00000041542B4352
:10485000574D4F44455F4355523D320D0A0000000D
:1048600041542B43574D4F44455F4355523D330D03
:104870000A00000041542B4349504D55583D300D1E
:104880000A00000041542B4349504D55583D310D0D
:104890000A00000041542B43494653520D0A0000C0
:1048A00053544149500000002C00000041542B4358
:1048B00049504D4F44453D300D0A000041542B43B3
:1048C00049504D4F44453D310D0A000041542B43A2
:1048D00049505345525645523D300D0A00000000E4
:1048E00041542B4349505345525645523D312C2596
:1048F000640D0A0041542B43575341505F435552B6
:104900003D222573222C222573222C362C25640D62
:104910000A00000041542B43574A41505F4355520F
:104920003D222573222C222573220D0A000000004F
:1049300041542B43495041505F4355523D22256419
:104940002E25642E25642E2564222C2225642E25F6
:10495000642E25642E2564222C2225642E25642EA7
:1049600025642E2564220D0A0000000041542B43CB
:10497000495044494E464F3D300D0A0041542B43A7
:10498000495044494E464F3D310D0A0041542B4396
:10499000495053544F3D25640D0A000004B070BDCA
:1049A000012D02D90F2004B070BD0120FBE710B526
:1049B000F948D0F8040220B1012814D002282ED1E1
:1049C0001EE0FFF733FD044644B9FEF7BAF8F2499A
:1049D000C1F800020120C1F8040203E0012C01D952
:1049E000204610BD1BE0EC49D1F8001201F596708D
:1049F000FEF7AAF818B10220E749C1F804020EE058
:104A00000020FFF72EFD044624B90020E249C1F83A
:104A10000402E6E7012C01D92046E2E700BF00BF0F
:104A20000120DEE70146002070472DE9FF410746DF
:104A30000C460026D9A00090AFF22420019032202D
:104A40000390009801F068FF02904FF40072D24981
:104A50006846FFF7ACF90546012D03D90D2004B0D7
:104A6000BDE8F0816DB9D1A1CB4801F039FF064610
:104A70001EB1F0793038206001E0FF202060002076
:104A8000EDE70120EBE77FB504460D462B462246B5
:104A9000C8A1C14802F092FCBF480090AFF2882044
:104AA0000190C8200390009801F036FF0290002288
:104AB00011466846FFF77BF9064616B9002004B098
:104AC00070BD012E01D90B20F9E70120F7E770B581
:104AD0000546B148D0F810020A2820D2DFE800F0DD
:104AE0000520364D6073A4C08ED42868FFF707FDFB
:104AF000044664B92868012804D00120A649C1F8F9
:104B000010020CE00320A449C1F8100207E0012CB8
:104B100005D90020A049C1F81002204670BDC7E0A9
:104B200005F10C02111F281DFFF7F8FD044624B9FA
:104B300002209949C1F8100207E0012C05D9002094
:104B40009549C1F810022046E8E7B1E005F13001CF
:104B500005F120002A6EFFF797FD044624B90320D3
:104B60008D49C1F8100207E0012C05D900208A49BF
:104B7000C1F810022046D1E79AE00020FFF73EFD81
:104B8000044624B904208449C1F8100207E0012C2E
:104B900005D900208049C1F810022046BEE787E011
:104BA0000120FFF7D5FC044624B905207A49C1F855
:104BB000100207E0012C05D900207749C1F8100246
:104BC0002046ABE774E00120FFF7E1FD044664B93D
:104BD0002868012804D006206F49C1F810020CE0B3
:104BE00008206D49C1F8100207E0012C05D900200A
:104BF0006949C1F81002204690E759E005F15001DB
:104C000005F14000FFF766FD044624B9062062491D
:104C1000C1F8100207E0012C05D900205E49C1F857
:104C2000100220467AE743E00120E969FFF706FD1C
:104C3000044664B92868012804D000205649C1F808
:104C400010026BE709205449C1F8100207E0012C5B
:104C500005D900205049C1F8100220465EE727E040
:104C6000686EFFF7B4FD04462CB901204A49C1F82B
:104C70001002002052E7012C05D900204649C1F856
:104C8000100220464AE713E005F11000FFF780FC10
:104C9000044624B900204049C1F810023EE7012C27
:104CA00005D900203C49C1F81002204636E700BF74
:104CB00000BF012032E770B505463748D0F814022E
:104CC00030B101282BD0022814D0032850D13AE06B
:104CD00005F1500105F14000FFF7FCFC044624B942
:104CE00002202D49C1F8140203E0012C01D920460D
:104CF00070BD3DE04FF4FB710120FFF79FFC0446BF
:104D000024B901202449C1F8140207E0012C05D977
:104D100000202149C1F814022046E9E728E005F106
:104D20001000FFF735FC044624B900201A49C1F8E9
:104D30001402DDE7012C05D900201749C1F814023F
:104D40002046D5E714E0002105F16800FFF76DFE6D
:104D5000044624B900201049C1F81402C8E7012C08
:104D600005D900200C49C1F814022046C0E700BF55
:104D700000BF0120BCE72DE9FF4106460F4615465E
:104D80000548D0F80C0230B101282CD002284BD0B5
:104D9000032870D152E01BE08C16002041542B43B5
:104DA00049505354415455530D0A00005354415433
:104DB0005553000041542B43495053544152543DE4
:104DC00022544350222C222573222C25640D0A00E4
:104DD0002B46324633A1384802F0F0FA012036491A
:104DE000C1F80C0247E03448009034A00190322012
:104DF0000390009801F090FD029000221146684651
:104E0000FEF7D5FF044624B902202B49C1F80C0255
:104E100009E0012C07D900202749C1F80C020E2017
:104E200004B0BDE8F08126E02A463946224801F068
:104E300027FD03202049C1F80C021CE01E48009009
:104E4000AFF22C60019032200390029500221146AF
:104E50006846FEF7ACFF044624B900201649C1F8A5
:104E60000C02DDE7012C05D900201349C1F80C0222
:104E70000E20D5E700BF00BF0120D1E738B50124DF
:104E800008E06846FEF744FE00B904E09DF8000023
:104E9000FEF78FFEF5E700BF204638BD10B5FEF7E0
:104EA00083FF10BD41542B43495053454E443D258B
:104EB000642C25640D0A00008C1600203E000000C2
:104EC0002DE9F05F06460D46174698464FF000095B
:104ED00056B9FEA1284601F003FD044614B901208D
:104EE000BDE8F09F241D00E02C46FAA1204601F009
:104EF00041FD8246F7A1002001F03CFDF5A1002014
:104F000001F038FD8346F4A1504601F0E9FC90B170
:104F1000F3A1504601F02EFDF1A1002001F02AFD81
:104F2000824639465046FEF763FD8146B9F1000FCF
:104F300003D04846D4E70120D2E7EAA1584601F061
:104F4000CFFC70B1E6A1584601F014FDE4A10020A9
:104F500001F010FD834641465846FEF749FD814663
:104F600001E00120BCE74846BAE770B594B00446BA
:104F70000E46DFA104F5187001F0E3FCE069032898
:104F800036D3DFA104F5187001F09EFCDEA104F514
:104F9000187001F099FC3069000E8DF80C00306932
:104FA000000C8DF80D00308A000A8DF80E00307C60
:104FB0008DF80F009DF80F009DF80E10CDE9001040
:104FC0009DF80D309DF80C20D1A104A802F0F6F94F
:104FD00004A904F5187001F077FCD0A104F518704D
:104FE00001F072FCCEA104F5187001F06DFC21E017
:104FF000E06901280FD1CEA104F5187001F064FC1E
:10500000CEA104F5187001F05FFCCFA104F5187073
:1050100001F05AFC0EE0C6A104F5187001F054FC32
:10502000C6A104F5187001F04FFCCBA104F518706F
:1050300001F04AFCCCA104F5187001F045FCCD4804
:1050400001F06AFC0546202D05D3CBA2CCA104A813
:1050500002F0B4F904E0C74AC9A104A802F0AEF90D
:1050600004A904F5187001F02FFCC6A104F518700E
:1050700001F02AFC04F5187001F04EFC054664208E
:10508000B5FBF0F03030C04981F864000A20B5FB70
:10509000F0F00A21B0FBF1F201FB12003030BA4906
:1050A00081F865000A20B5FBF0F100FB11503030AB
:1050B000B54981F8660004F1600001F042FC04F596
:1050C000187104F1600001F0FFFB04F1600001F0D1
:1050D00023FCE06514B070BD2DE9FC5F04460D466D
:1050E000174607F10C0B786800904FF00009CA468C
:1050F00095F804A04FEA0A6A68794AEA004AA87952
:105100004AEA002A2AF0FF00B96821F0FF0188422C
:1051100002D04FF0010901E04FF0000904229BA1E9
:10512000584601F017FCD0B9B9F1000F16D10BF1B8
:10513000040898A1404601F0D3FB01900198A0EB30
:10514000080000900021009808F8001092A1404645
:1051500001F0E9FB0028E9D10120206286E0052268
:105160008FA1584601F0F6FB88BBB9F1000F7DD145
:1051700005F1500305F1400259460020FFF7A0FE5B
:10518000064646BB002060617A4905F1400001F007
:10519000CAFB30B97749203105F1500001F0C3FB5B
:1051A00078B105F14001734801F0CBFB05F15001E6
:1051B0007048203001F0C5FBFFF738F80120E061AE
:1051C00054E0E069032803D20120E0614EE005E0ED
:1051D000012020624AE00120606147E06069012807
:1051E00034D1B9F1000F41D10020606105F15003C5
:1051F00005F1400259460120FFF762FE06460EBB4C
:105200005C4905F1400001F08EFB30B9594920316D
:1052100005F1500001F087FB78B105F140015548D8
:1052200001F08FFB05F150015248203001F089FB5D
:10523000FEF7FCFF0120E06118E0E069032802D2DC
:105240000120E06112E0012020620FE0B9F1000FBF
:105250000CD00021E16504F15C031A1D5846009949
:1052600000F02EFAE06D08B101206062BDE8FC9FFD
:1052700010B54D4800680D2826D2DFE800F007255C
:10528000E125FE11EEED2525ECEBEA00FFF78FFBA3
:1052900004461CB905204449086000E000BFD8E17D
:1052A0000320424908600846002101624162816290
:1052B000C1623FA10A6802628A888284897980F883
:1052C00026100021016377E0C2E100000D0A0D0AFB
:1052D000000000002C00000053534944000000006F
:1052E0003A00000050617373776F72640000000031
:1052F0007B224973436F6E6E6563746564223A0066
:105300002274727565222C00224950223A22000034
:1053100025642E25642E25642E256400222C000091
:1053200022537461747573223A22312C00000000FC
:105330002266616C7365222C000000002249502215
:105340003A22222C000000002253746174757322EB
:105350003A22302C000000002253746174757322CD
:105360003A222D312C0000002253534944223A2284
:10537000000000004C1600204E554C4C0000000070
:1053800025730000227D0000650000204745542061
:1053900000000000200000002F67657449700000C5
:1053A000504F535420000000A4180020101E00206D
:1053B00053445F303030320041638163C163016424
:1053C00041648164C164AD49403001F0BAFAAC482F
:1053D0000021016541658165C165A84920315030D2
:1053E00001F0AFFA0020A6490866C0200871A82184
:1053F000A3484171082181710121C171C020A049D8
:105400000872A8219E484172082181720121C1724F
:10541000FF209B490873FF21994841738173002144
:10542000C1734FF4FA609649C8613C204866022077
:1054300094490860002048600120C861886108E143
:105440008F48FFF744FB04464CB904208D4908609F
:1054500012E0DCE0AFE0CBE08FE070E00DE0012C8B
:105460000AD988484068401C864948600846406818
:10547000052801D900200860EBE0FFF7FFFCFFF7EB
:105480000DFD00285AD180498048FEF76CFB40B1E1
:105490007D4800687B4948637B4A79497948FFF732
:1054A0001BFE7848C06903280ED17649896A42F20A
:1054B00010728818FDF748FB50B1FDF742FB7149A7
:1054C00088620C200860C4E0FDF73BFB6D498862F0
:1054D0006C48C069012813D16A488069012806D048
:1054E00069480068674988650720086004E00B2068
:1054F00064490860002088610020624948601DE01E
:105500006048006A01280DD100205E4908625E48AB
:10551000006888655A495B48FFF727FD062059490E
:1055200008600BE05748406A012807D10020554920
:1055300048625548006888650620086089E051493E
:10554000CA6D886D6031FFF716FC04462CB9042043
:105550004C4908600020C8600EE0012C0CD90420E2
:10556000484908600846C068401CC8600846C068D2
:10557000032801D9002008606BE041494148FFF74A
:10558000F4FC4049CA6D886D6031FFF7F4FB0446B6
:105590002CB90B203B4908600020C8600AE0012CB0
:1055A00008D902203749C861042008600846C0684D
:1055B000401CC8604DE03248FFF77DFB04465CB9F3
:1055C00003203049C8610020086148600420086059
:1055D0002B48806E08630AE0012C08D90220294973
:1055E000C8610420086008464068401C486030E0FC
:1055F0000120FEF784FF04461CB9042021490860FD
:1056000004E0012C02D904201E49086021E01D4954
:105610002C311B486830FFF708FA044694B9194842
:10562000C06A042803D01748C06A052803D10120A6
:105630001449C86188611248806E124908630420C9
:10564000086004E0012C02D904200E49086000E043
:1056500000BF00BF10BD10B500200A4908604860B7
:10566000C861C860086148618861FDF76AFA054948
:105670008862FF204863086310BD00004C160020BC
:10568000101E0020A4180020041C0020F80C00208C
:105690000020FC490880012048800121F94801814F
:1056A0000182F949816102218183012181854FF4C1
:1056B0007A710185490041850221A0F84E1070479A
:1056C0002DE9FF4F83B015469A4600200290002432
:1056D000834600270090DDE90301FEF783FC02907A
:1056E000029800900298002879D1E848007A0328AF
:1056F00076D1E648C06810B9A01F00908DE1002661
:1057000071E0E248408906EB4601E14A02EB810183
:105710004968884205D14FF0010BDC48C0684FEA68
:105720004008BBF1010F5DD1D848C068002858DDA2
:10573000DFF8509306EB4600D54901EB8000806806
:1057400002281BD106EB460051F8200039F8007002
:10575000380A01904FF47F4000EA0720019908437E
:10576000019005F109002044BDF804100180A41C3B
:10577000C648C068401EC549C86033E006EB460015
:10578000C34901EB8000806804282BD106EB46005A
:1057900051F8200059F80070380E01904FF47F4006
:1057A00000EA17200199084301904FF47F0000EAB6
:1057B00007200199084301904FF07F4000EA0760FD
:1057C00001990843019005F1090020440199016005
:1057D000241DAE48C068801EAC49C86002E01DE1CF
:1057E00040E002E0761C392E8BD300BFBBF1000FE6
:1057F00003D16FF0060000900FE1A448C0680028B4
:1058000003DD6FF00500009007E154B30120029022
:1058100000249E480088000A2855641C9B48007894
:105820002855641C99484088000A2855641C9748EC
:1058300080782855641C00202855641C08F103005A
:105840002855641C914880792855641C8F48007A3B
:105850002855641C05F80480641C08F10900CAF886
:105860000000DAE08948007A062807D18748C06836
:10587000012803D06FF005000090CEE08348C06897
:1058800018B96FF005000090C7E0002670E07F486F
:10589000408906EB46017E4A02EB81014968884255
:1058A00004D14FF0010B7948D0F80C80BBF1010F07
:1058B0005DD17648C068002858DDDFF8C89106EB56
:1058C0004600734901EB8000806802281BD16F48B5
:1058D0001830075D380201906C481830611C475C35
:1058E00001983843019006EB4600694951F82000C1
:1058F0004844BDF804100180A41C6448C068401EE0
:105900006249C86033E006EB4600614901EB800064
:10591000806804282BD15D481830075D3806019057
:105920005A481830611C475C019840EA07400190D2
:1059300056481830A11C475C019840EA07200190A6
:1059400052481830E11C475C01983843019006EB3F
:1059500046004F4951F82000484401990160241D38
:105960004A48C068801E4949C86000E002E0761CD1
:10597000392E8CD300BFBBF1000F03D16FF00600AE
:1059800000904AE04148C068002803DD6FF0050040
:10599000009042E0002C3FD000243C480088000AE0
:1059A0002855641C394800782855641C37484088BD
:1059B000000A2855641C354880782855641C00204E
:1059C0002855641C06202855641C304880792855C9
:1059D000641C2E48007A2855641C2C484089000A13
:1059E0002855641C2948807A2855641C2748007A69
:1059F000062808D12548007E2855641C2348407E8F
:105A00002855641C06E0C8F307202855641C05F8D7
:105A10000480641CCAF8004000BF00BF0098C8B3EF
:105A200000241A480088000A2855641C174800788A
:105A30002855641C15484088000A2855641C1348E2
:105A400080782855641C00202855641C03202855A4
:105A5000641C0E4880792855641C0C48007A8030FC
:105A60002855641C009810F1070F18D010F1060F8C
:105A700011D010F1050F0FD010F1040F12D1012039
:105A8000285512E07C1E0020000034423015002012
:105A9000300100200DE000BF0320285505E0022062
:105AA000285502E00420285500BF00BF641CCAF836
:105AB000004007B0BDE8F08F30B587B0FDF792FD2C
:105AC00005A8FDF7A6F905AD059803900698049082
:105AD000142301A8DDE90312FDF757F901AC019881
