:020000040800F2
:10000000300B0020B147000875160008771600086D
:100010007B1600087F160008831600080000000009
:10002000000000000000000000000000871600082B
:1000300089160008000000008B1600088D160008C5
:10004000CB470008CB470008CB470008CB47000848
:10005000CB470008CB470008CB470008CB47000838
:10006000CB470008CB470008CB470008CB47000828
:10007000CB470008CB470008CB470008CB47000818
:10008000CB470008CB470008CB470008CB47000808
:10009000CB470008CB470008CB470008CB470008F8
:1000A000CB4700088F160008CB470008CB47000855
:1000B000DF1600082F170008CB470008CB470008C1
:1000C000CB470008CB470008CB470008CB470008C8
:1000D000CB4700087F17000871190008CB470008BC
:1000E000CB470008CB470008CB470008CB470008A8
:1000F000CB470008CB470008CB470008CB47000898
:10010000CB470008CB470008CB470008CB47000887
:10011000CB470008CB470008CB470008CB47000877
:10012000CB470008CB470008CB470008CB47000867
:1001300000F002F800F05AF80AA090E8000C82449F
:100140008344AAF10107DA4501D100F04FF8AFF27C
:10015000090EBAE80F0013F0010F18BFFB1A43F0A5
:100160000103184768570000885700000A444FF001
:10017000000C10F8013B13F0070408BF10F8014B06
:100180001D1108BF10F8015B641E05D010F8016B4B
:10019000641E01F8016BF9D113F0080F1EBF10F8AF
:1001A000014BAD1C0C1B09D16D1E58BF01F801CBD2
:1001B000FAD505E014F8016B01F8016B6D1EF9D555
:1001C0009142D6D37047000000230024002500266A
:1001D000103A28BF78C1FBD8520728BF30C148BFAA
:1001E0000B6070471FB51FBD10B510BD04F003FBB9
:1001F0001146FFF7F7FF00F05EF804F021FB03B4AF
:10020000FFF7F2FF03BC04F025FB0000F0B5034646
:100210000C460025214604E05E5C2E44B5B24E1C1F
:10022000F1B29142F8DB642695FBF6F706FB175610
:10023000F0B2F0BD30B502460B4600205D1EAD06A3
:100240002C0E002108E00D19555D05F001058D40CB
:100250000543E8B24D1CE9B20429F4DB30BD10B50A
:1002600002F0D2FE4FF4803002F0EEFE02F02BFFDF
:100270000446012C1ED1002002F06BFF002002F08A
:100280007AFFA00202F06EFF4FF4E011200402F0AA
:1002900043FF012002F04CFF00BF392002F0F7FEBF
:1002A0000028FAD0022002F046FF00BF02F04CFF07
:1002B0000828FBD110BD0EB5FFF7D1FF01F06FF993
:1002C00000F02AFF01F053FC01F085FC00F070FE05
:1002D00000F0B4FF01F09DF901F0A5F901F022F85A
:1002E000B2E00AE0002000F04DFFFE490870084629
:1002F000007810B10120FC490870FA48007818B95C
:10030000F94800780028EDD0F648007850B901216E
:10031000052000F007FFF549F54802F0C5F8002078
:10032000F1490870F3480078F34909780843F34924
:1003300009780843A0B3F248007888BBE948007800
:1003400070B3E8480078EF49E94AEF4BCDE9002166
:100350000290EE4AE549EE4801F0EFFFED490870E2
:1003600008460078EC490870EA480078A8B10121F5
:10037000052000F0D7FE0021042000F0D3FE01206C
:1003800001F023F80021012000F0CCFE012001F053
:100390001CF80021084600F0C5FE0120D84908706D
:1003A000D4480078A8BBD448007890BBD3480078E4
:1003B00078BBD348007860B3CA48007848B3D648C1
:1003C000007830BBC94ACF49CF4802F044F8D14940
:1003D000087008460078D0490870CE480078A8B167
:1003E0000121052000F09EFE0021042000F09AFE6D
:1003F000012000F0EAFF0021012000F093FE01201F
:1004000000F0E3FF0021084600F08CFE0020BC490C
:10041000087006E0BA48007818B102F0DEF9BF496A
:100420000870B748007878B1AE48007860B1BC4831
:100430000078B04909780840AF4909780843AF49C6
:10044000097808430028E5D14BE710B5AE49B54817
:1004500001F009FFAE4800F0CDFEB249486805F052
:1004600035F880B2642190FBF1F0AF49C870AD4916
:10047000486805F02BF880B2642190FBF1F201FB93
:100480001200A9490871002048718871A549C868FF
:1004900005F01CF880B2642190FBF1F0A249C8710C
:1004A000A049C86805F012F880B2642190FBF1F20F
:1004B00001FB12009C4908728E4800788E49097829
:1004C00008438E49097808439749487295498868D6
:1004D00004F0FCFF80B2642190FBF1F201FB1200FA
:1004E000914988728F49086804F0F0FF80B2642156
:1004F00090FBF1F08C49C8728A49086804F0E6FF65
:1005000080B2642190FBF1F201FB1200864908736E
:100510000120C8747F48007808751522032182489D
:10052000FFF774FE8049487510BD00B585B07F485F
:10053000407A57282AD17D48007B7D4908707B4846
:10054000807B7A49497B01EBC10202EB011100EB90
:100550008100784908707548017CC07B00EBC002BF
:1005600002EB001001EB8000734908706F48407C7B
:10057000724908706D48007D6C49C97C01EBC1026D
:1005800002EB011100EB81006D49087060480079B1
:100590005A4908705C49634801F065FE5C4800F008
:1005A00029FE604800686749049004F099FE5749A5
:1005B0000860084600686449039004F091FE0490C6
:1005C00004F084FF6149C87250480068049004F048
:1005D0007DFF80B2642190FBF1F201FB12005B49C8
:1005E00008734A4800685849039004F0EFFF0490EC
:1005F00004F06CFF6421B0FBF1F201FB12005349DF
:100600004873484840684F49049004F069FE3F49E8
:100610004860084640684C49039004F061FE04902D
:1006200004F054FF4949887338484068049004F046
:100630004DFF80B2642190FBF1F201FB12004349AF
:10064000C873324840684049039004F0BFFF0490EB
:1006500004F03CFF6421B0FBF1F201FB12003B49C6
:100660000874304880683749049004F039FE2749FF
:100670008860084680683449039004F031FE049095
:1006800004F024FF3149487420488068049004F045
:100690001DFF80B2642190FBF1F201FB12002B4997
:1006A00088741A4880682849039004F08FFF0490EA
:1006B00004F00CFF6421B0FBF1F201FB12002349AE
:1006C000C87412484068224908601648C0681D492D
:1006D000049004F005FE0D49C8600846C0681A4938
:1006E000039037E0010000200200002018000020E5
:1006F0006C03002005000020040000200B000020F7
:10070000060000205800002028000020EC020020F5
:100710001000002007000020000000200E00002034
:10072000030000202C0300201F0200208C03002067
:100730000A00002008000020090000200C00002012
:100740000D000020000020410000C8428001002070
:100750005C01002004F0C4FD049004F0B7FEFE49E3
:100760000875FE48C068049004F0B0FE80B26421B1
:1007700090FBF1F201FB1200F7494875F748C06899
:10078000F749039004F022FF049004F09FFE6421D7
:10079000B0FBF1F201FB1200EF498875F1480069E6
:1007A000F149019004F09CFD4FF08141029005F069
:1007B0000BF84FF08341039004F092FDEB49049055
:1007C00004F004FFE549086108460069E449039024
:1007D00004F086FD049004F079FEDF49C875DF4817
:1007E0000069049004F072FE80B2642190FBF1F283
:1007F00001FB1200D8490876D8480069D84903900F
:1008000004F0E4FE049004F061FE6421B0FBF1F218
:1008100001FB1200D0494876D2484069D249009085
:1008200004F05EFD4FF08141019004F0CDFF4FF0E8
:100830008341029004F054FDCD49039004F0C6FEBC
:10084000CB49049004F0DEFCC44948610846406985
:10085000C349039004F044FD049004F037FEBE4900
:100860008876BE484069049004F030FE80B264216E
:1008700090FBF1F201FB1200B749C876B748406916
:10088000B749039004F0A2FE049004F01FFE642117
:10089000B0FBF1F201FB1200AF490877B148806963
:1008A000B449049004F01CFDAC4988610846806995
:1008B000AB49039004F014FD049004F007FEA64930
:1008C0004877A6488069049004F000FE80B2642155
:1008D00090FBF1F201FB12009F4988779F488069E5
:1008E0009F49039004F072FE049004F0EFFD642130
:1008F000B0FBF1F201FB12009749C8779948C06933
:100900004FF08241049004F0EBFC9449C861084622
:10091000C0699349039004F0E3FC049004F0D6FD11
:100920008D4981F820008D48C069049004F0CEFD07
:1009300080B2642190FBF1F201FB1200864981F83C
:1009400021008648C0698649039004F03FFE049068
:1009500004F0BCFD6421B0FBF1F201FB12007E4902
:1009600081F822007D48C069834908608348007887
:10097000012812D18148407801280ED180480068B2
:1009800004F014FC00227F4BCDE9020104F0E2FAEE
:1009900003D801207C49087002E000207A490870E1
:1009A00079480078012804D101F035FE77490860C4
:1009B00005E07548007810B97548744908606748C3
:1009C00040680490654800680390049901F0A9FD0F
:1009D000704908606148C06804906048806803906E
:1009E000049901F09EFD6C49086008460168694859
:1009F000006804F0E9FE69490860664800685749E4
:100A000008620846006A5649039004F069FC0490A5
:100A100004F05CFD6249C8725048006A049004F01A
:100A200055FD80B2642190FBF1F201FB12005C499C
:100A300008734A48006A4A49039004F0C7FD0490CD
:100A400004F044FD6421B0FBF1F201FB12005449B3
:100A5000487351480068414948620846406A404925
:100A6000039004F03DFC049004F030FD4C49887381
:100A70003A48406A049004F029FD80B2642190FB5A
:100A8000F1F201FB12004649C8733448406A344908
:100A9000039004F09BFD049004F018FD6421B0FB6A
:100AA000F1F201FB12003E4908743C4800682B49F2
:100AB00088620846806A2A49039004F011FC049079
:100AC00004F004FD364948742448806A049004F018
:100AD000FDFC80B2642190FBF1F201FB1200304971
:100AE00088741E48806A1E49039004F06FFD0490CC
:100AF00004F0ECFC6421B0FBF1F201FB1200284988
:100B0000C874224800681549C8620846C06A14497A
:100B1000039004F0E5FB049004F0D8FC204908752C
:100B20000E48C06A049004F0D1FC80B2642190FBAE
:100B3000F1F201FB12001A4948750848C06A0849D9
:100B4000039004F043FD049004F0C0FC6421B0FB6A
:100B5000F1F201FB120025E080010020EC020020F0
:100B60000000C8422C030020000048420000404220
:100B700000007042000020415801002018000020B1
:100B80005C0100200040584060010020540100201A
:100B90000000A84174010020780100207C010020A1
:100BA000B5010020C9498875C948006BC94904903E
:100BB00004F096FBC84908630846006BC5490390DA
:100BC00004F08EFB049004F081FCC049C875C24853
:100BD000006B049004F07AFC80B2642190FBF1F287
:100BE00001FB1200B9490876BB48006BB949039074
:100BF00004F0ECFC049004F069FC6421B0FBF1F219
:100C000001FB1200B1494876B148406BB1490490EC
:100C100004F066FBB04948630846406BAD49039059
:100C200004F05EFB049004F051FCA8498876AA48C1
:100C3000406B049004F04AFC80B2642190FBF1F216
:100C400001FB1200A149C876A348406BA14903905B
:100C500004F0BCFC049004F039FC6421B0FBF1F218
:100C600001FB1200994908779948806B99490490D3
:100C700004F036FB984988630846806B95490390D9
:100C800004F02EFB049004F021FC90494877924830
:100C9000806B049004F01AFC80B2642190FBF1F2A6
:100CA00001FB1200894988778B48806B8949039042
:100CB00004F08CFC049004F009FC6421B0FBF1F218
:100CC00001FB12008149C8778148C06B81490490BB
:100CD00004F006FB8049C8630846C06B7D49039059
:100CE00004F0FEFA049004F0F1FB784981F820004A
:100CF0007948C06B049004F0E9FB80B2642190FB5A
:100D0000F1F201FB1200714981F821007248C06BB9
:100D10007049039004F05AFC049004F0D7FB64215E
:100D2000B0FBF1F201FB1200684981F822006B4828
:100D30000068049004F0CAFB80B2642190FBF1F0DB
:100D4000674981F82500654800686249039004F00E
:100D50003DFC049004F0BAFB6421B0FBF1F201FB0E
:100D600012005F4981F826005C4800685D490390E5
:100D700004F02CFC049004F0A9FB6421B0FBF1F218
:100D800001FB1200564981F8270001215648FFF760
:100D900051FA534981F8230001215448FFF74AFAD8
:100DA0004F4981F8240002214F48FFF743FA474991
:100DB00081F8230002214D48FFF73CFA434981F8AE
:100DC0002400322200214648FFF720FA444981F8E6
:100DD0003200322200213D48FFF718FA3B4981F8E2
:100DE0003200434800784349C8724348007808738A
:100DF000394800693749039004F072FA049004F00E
:100E000065FB3C49487334480069049004F05EFB7C
:100E100080B2642190FBF1F201FB12003549887326
:100E20002D4840692B49039004F05AFA049004F0CD
:100E30004DFB3049C87328484069049004F046FBD4
:100E400080B2642190FBF1F201FB12002949087481
:100E50002148C06A1F49039004F042FA049004F04C
:100E600035FB2449C8741C48C06A049004F02EFB6A
:100E700080B2642190FBF1F201FB12001D4908755C
:100E80001548006800901448806904901248406B2F
:100E900003901148406902900F480069019002A92F
:100EA0000EC901F02DFB05B000BD70B504460D461E
:100EB000E1B2124802F0B6FB00BF80210F4802F0F9
:100EC0001FFC0028F9D0204670BD0000B5010020AD
:100ED0002C0300200000C842EC0200206C0300201C
:100EE0008001002000401C46100000201800002057
:100EF0000B000020EA01002006000020003801401D
:100F000070B5044600254FF400416D4801F0DDFF47
:100F1000002628E06806050E04F0800028B14FF492
:100F20000051674801F0CFFF04E04FF400516448DE
:100F300001F0CBFF4FF40041614801F0C4FF4FF4D2
:100F400080415F4801F0A5FF012800D100E00020AA
:100F500008B145F001054FF40041594801F0B5FFD3
:100F60006006040E761C082ED4DB284670BD70B5D2
:100F700005464FF48051524801F0A7FF00240FE0CE
:100F800015F82400FFF7BCFF05EB8401498808121F
:100F9000FFF7B6FF05EB84018878FFF7B1FF641C0B
:100FA000082CEDDB4FF48051454801F08CFF70BDFB
:100FB00038B50121082002F095F94FF43040ADF822
:100FC000000003208DF8020010208DF80300694610
:100FD0003B4801F0CBFE4FF48040ADF80000032009
:100FE0008DF8020004208DF803006946344801F0B2
:100FF000BDFE4FF48051324801F065FF002409E046
:101000005520304901F8240041F2090001EB840128
:101010004880641C082CF3DB002403E02948FFF718
:10102000A6FF641C082CF9DB002409E057202549A1
:1010300001F824004FF4607001EB84014880641CC7
:10104000082CF3DB1F48FFF792FF38BD2DE9F84F5E
:101050000446894692465146484604F041F90090BC
:1010600004F0A4F807460022174B03F075FE05466E
:1010700003F0F8FB83465946144804F0A7FA0546E6
:1010800004F024FA0F4901EB8401488001200D4946
:1010900001F824000846FFF76AFFBDE8F88F70B535
:1010A00005460E46002408E056F8242055F8241082
:1010B0002046FFF7CBFF601CC4B2082CF4DB70BDE8
:1010C000000C01400E0400200000244000C8CC4564
:1010D00010B50121C02002F005F910BD08B510209F
:1010E0008DF803004FF47F40ADF8000003208DF829
:1010F00002006946464801F039FE04208DF80300DD
:101100004FF47F40ADF8000003208DF802006946DF
:10111000404801F02BFE08BD10B5FFF7D9FFFFF7DF
:10112000DDFF10BD70B505460E46082D1DD2DFE867
:1011300005F004070A0D101316194FF4807415E01A
:101140004FF4007412E04FF480640FE04FF4006439
:101150000CE04FF4805409E04FF4005406E04FF4E3
:10116000804403E04FF4004400E000BF00BF26B914
:101170002146274801F0A9FE03E02146244801F05A
:10118000A2FE70BD70B50546082D1DD2DFE805F042
:1011900004070A0D101316194FF4807415E04FF46C
:1011A000007412E04FF480640FE04FF400640CE030
:1011B0004FF4805409E04FF4005406E04FF48044AB
:1011C00003E04FF4004400E000BF00BF2146114897
:1011D00001F05FFE0646304670BD70B5054600243E
:1011E00005E0295D2046FFF79DFF601CC4B2082C76
:1011F000F7DB70BD70B50546002405E02046FFF71B
:10120000C1FF2855601CC4B2082CF7DB70BD00007C
:1012100000180140001C014010B50121C80202F075
:1012200061F80121084602F06AF80121022002F06B
:1012300066F80121042002F062F810BD0EB56A487C
:1012400002F0B8FA4FF0804002F0B4FA674802F0BA
:10125000B1FA674802F0AEFAFFF7DEFF0520ADF8FD
:10126000040048F69F40ADF800000020ADF80600ED
:10127000ADF8020069465C4802F070FB01215A4853
:1012800003F08EF90121584802F0C4FE0520ADF8A4
:10129000040044F24F60ADF800000020ADF80600F5
:1012A000ADF8020069464FF0804002F057FB012183
:1012B000880703F075F90121880702F0ABFE4FF4AF
:1012C000FA60ADF8040048F69F40ADF80000002039
:1012D000ADF80600ADF802006946444802F03EFB56
:1012E0000121424803F05CF90121404802F092FEDE
:1012F0004EF66020ADF8040048F69F40ADF80000BF
:101300000020ADF80600ADF802006946384802F04A
:1013100025FB0121364803F043F90121344802F04E
:1013200079FE0EBD10B501221146304802F08DFE47
:1013300010BD10B5002201212C4802F086FE10BD20
:1013400010B5012211462A4802F07FFE10BD10B5EB
:1013500000220121264802F078FE10BD014601EB73
:10136000C1024FF0E0235A6100229A6101221A6102
:1013700000BF4FF0E022106900F001021AB100F442
:101380008032002AF5D000224FF0E0231A619A61E2
:101390007047014642F228324A434FF0E0235A6137
:1013A00000229A6101221A6100BF4FF0E022106909
:1013B00000F001021AB100F48032002AF5D00022B8
:1013C0004FF0E0231A619A61704730B5044600255A
:1013D00004E06420FFF7DDFF681C85B204EB8400A5
:1013E000B5EB400FF5DB30BD002C014000040040A0
:1013F0000008004010B50121052001F073FF012114
:10140000880301F06FFF0121212001F06BFF012112
:10141000480401F074FF0121082001F078FD10BD9F
:1014200008B500214FF0006001F009FC4FF4407056
:1014300001F0CEFB25208DF8000000208DF8010082
:1014400001208DF80300684601F0C7FB26208DF8C7
:10145000000001208DF801008DF80300684601F0BE
:10146000BCFB19208DF8000004208DF8010001203C
:101470008DF80300684601F0B0FB1C208DF80000D9
:1014800005208DF8010001208DF80300684601F069
:10149000A4FB1D208DF8000007208DF8010001201D
:1014A0008DF80300684601F098FB08BD08B51820C8
:1014B0008DF803004FF40070ADF8000003208DF8A4
:1014C00002006946674801F051FC10208DF80300C6
:1014D0000001ADF8000003208DF802006946614864
:1014E00001F044FC04208DF803000002ADF8000078
:1014F00003208DF8020069465A4801F037FC182095
:101500008DF803002020ADF8000003208DF80200C4
:101510006946554801F02AFC10208DF80300802010
:10152000ADF8000003208DF8020069464E4801F036
:101530001DFC04208DF803004020ADF800000320BE
:101540008DF802006946484801F010FC08BD10B54E
:101550000120FFF71EFF4FF48071424801F0B5FCF7
:1015600010BD10B540F6C410FFF7F8FE4FF48071BF
:101570003C4801F0A8FC10BD10B50120FFF709FFA1
:101580008021394801F09FFC10BD10B540F6C41011
:10159000FFF7E4FE8021344801F097FC10BD1FB531
:1015A000FFF728FFFFF782FFFFF73AFF2F4801F010
:1015B000FDFE2F4801F0FAFE4FF416500090002077
:1015C000ADF806004FF48050ADF804004FF4C06051
:1015D000ADF808000020ADF80C000C20ADF80A00B2
:1015E0006946224801F025FF4021204802F095F885
:1015F00001211E4801F0A9FF69461D4801F019FFAD
:1016000040211B4802F089F80121194801F09DFF93
:101610001FBD10B5012240F22551144801F0A1FF71
:10162000FFF795FF10BD10B5012240F2255110487B
:1016300001F097FFFFF7A0FF10BD10B5002240F2A8
:1016400025510A4801F08DFFFFF781FF10BD10B54D
:10165000002240F22551064801F083FFFFF78CFF7E
:1016600010BD000000080140001401400038014096
:1016700000440040704700BFFEE700BFFEE700BF28
:10168000FEE700BFFEE7704770477047704710B530
:101690000121F74802F087FF01281FD10121F448FA
:1016A00002F092FFF3480078401CF24908700846A7
:1016B0000078172812D100200870002404E00020D0
:1016C000ED490855601CC4B2352CF8DB0020EB490D
:1016D000087000220121E64802F0B7FC10BD10B5E9
:1016E0000121880702F05FFF01281FD10121800737
:1016F00002F06AFFE2480078401CE14908700846A1
:101700000078502812D100200870002404E0002046
:10171000DC490855601CC4B2182CF8DB0020DA49FB
:10172000087000220121880702F08FFC10BD10B55F
:101730000121D64802F037FF012807D10121D34803
:1017400002F042FFFEF7F1FEFEF77FFE10BD70B51E
:101750000546002410E04021CD4801F0DEFF295D60
:10176000CB4801F05FFF00BF4021C94801F0C8FF2E
:101770000028F9D0601CC4B2352CECDB70BD10B56C
:101780000821C34801F0BCFF012806D10821C04848
:1017900001F0C3FFBE4801F049FF40F22551BC48AB
:1017A00001F0C4FFC8B1BA4801F040FFB34909785D
:1017B000B14A5054B1480078401CB04908700846FE
:1017C0000078012804D101221146A94802F03DFC0D
:1017D00040F22551AE4801F0D3FFA84800783528E3
:1017E00075D10020A549087001204870A2480078F2
:1017F00055280DD1A0484078662809D19E4890F818
:101800003300662804D19C4890F83400552802D053
:1018100000209A494870984880789E4991F90010B4
:10182000884226D19448C0789A4991F9011088429B
:101830001FD191480079974991F90210884218D137
:101840008D484079934991F90310884211D18A4813
:101850008079904991F9041088420AD18648C0796C
:101860008C4991F90510884203D101208349887081
:1018700002E00020814948707F48407A572803D110
:1018800005207E49C87002E000207C4948707A48F3
:1018900090F8310018B90020784908710AE07648BC
:1018A00090F83100012802D17449087102E000204B
:1018B000724948707148407890B17048C0780528E6
:1018C0000ED16E48807801280AD1002406E014E089
:1018D0006948005D70490855601CC4B2352CF7DBBF
:1018E0006648407848B16548007930B9FFF739FE5D
:1018F0006A48FFF72CFFFFF72AFE10BD70B50546BA
:10190000002414E04021664801F007FF4FF47A708C
:10191000FFF724FD295D624801F084FE00BF4021ED
:101920005F4801F0EDFE0028F9D0601CC4B2182C0D
:10193000E8DB70BD70B50546002416E0402158482C
:1019400001F0EBFE4FF47A70FFF708FD285D00F11F
:101950003301534801F066FE00BF4021504801F0BA
:10196000CFFE0028F9D0601CC4B2352CE6DB70BD78
:1019700010B508214A4801F0C3FE012806D108210C
:10198000474801F0CAFE464801F050FE40F225519A
:10199000434801F0CBFEC8B1414801F047FE3A4947
:1019A0000978384A505438480078401C3649087045
:1019B00008460078012804D101221146800702F070
:1019C00044FB40F22551364801F0DAFE2E480078FB
:1019D000182869D100202C49087001204870294836
:1019E000007855280BD127484078662807D125482C
:1019F000807D662803D12348C07D552802D0002071
:101A0000214948701F488078012802D11E498870FA
:101A10001DE01C488078022802D11B49887016E01E
:101A200018488078032805D11749887001201D497E
:101A300008700CE013488078042805D1124988709A
:101A400000201849087002E000200F494870152254
:101A500003210C48FEF7DAFB0A49497D884202D08F
:101A60000020094948700848407830B3002422E03B
:101A7000002C0140950200202E0400209802002036
:101A800096020020630400209D0200200004004014
:101A900000380140B25800088C030020EA01002001
:101AA000004400400400002039E01D48005D1D494D
:101AB0000855601CC4B2182CF7DB1B48407870B383
:101AC000FFF763FD18488478012C06D0022C16D04D
:101AD000032C18D0042C1ED119E01448FFF70EFF78
:101AE0004FF4FA70FFF755FC1148FFF723FF4FF44E
:101AF000FA70FFF74EFC0F48FFF71CFF0CE00E4892
:101B0000FFF7FCFE08E00D48FFF7F8FE04E00C4884
:101B1000FFF7F4FE00E000BF00BFFFF718FD10BDA7
:101B200063040020F60300209D0200201F02002015
:101B300080010020B5010020370200204F02002064
:101B40006702002008B56420009000BF0098411E85
:101B500000910028FAD108BD08B54FF4FA70009042
:101B600000BF0098411E00910028FAD108BD08B5B9
:101B70000121042001F0B6FBBE20ADF800000320D7
:101B80008DF8020010208DF803006946F84801F036
:101B9000EDF84020ADF8000003208DF80200482049
:101BA0008DF803006946F24801F0E0F80221F048A0
:101BB00001F089F90421EE4801F085F90821EC488B
:101BC00001F081F91021EA4801F07DF92021E8486F
:101BD00001F07BF908BD08B50121080201F082FB84
:101BE0000121082001F07EFB4FF42040ADF80000F9
:101BF00003208DF8020010208DF803006946DD48AF
:101C000001F0B4F84FF48040ADF8000003208DF8E7
:101C1000020048208DF803006946D64801F0A6F876
:101C20004FF4C070ADF8000003208DF802001020C2
:101C30008DF803006946D04801F098F84FF4005140
:101C4000CC4801F042F9FFF787FF8021CA4801F034
:101C50003AF94FF48071C84801F035F908BD70B504
:101C6000044600252021C24801F02FF9002629E072
:101C70006806050E04F0800020B18021BC4801F008
:101C800022F903E08021BA4801F01FF9FFF75AFF5B
:101C90002021B74801F017F9FFF754FF2021B4487D
:101CA00001F013F9FFF74EFF4021B14801F0F1F8C0
:101CB000012800D100E0002008B145F001056006D0
:101CC000040E761C082ED3DB284670BD70B5044682
:101CD000002500262CE06806050E4FF40051A548AB
:101CE00001F0F1F804F0800028B14FF40041A14860
:101CF00001F0E9F804E04FF400419E4801F0E5F8F6
:101D0000FFF72AFF4FF400519A4801F0DEF8FFF781
:101D100023FF4FF48041974801F0BBF8012800D120
:101D200000E0002008B145F001056006040E761CB5
:101D3000082ED0DB284670BD2DE9F04F8BB007464A
:101D40008846032097FBF0F0C0F10305032097FBC2
:101D5000F0F100FB117B05EB8500884901EB4009A0
:101D600035B1012D09D0022D0CD0032D14D10EE078
:101D700002217F4801F0A9F80FE004217C4801F01E
:101D8000A4F80AE008217A4801F09FF805E0102144
:101D9000774801F09AF800E000BF00BFFFF7D2FEDD
:101DA000002607E0FF20FFF75AFF09F80600FFF7BB
:101DB000C9FE761C0A2EF5D335B1012D09D0022DAE
:101DC0000CD0032D14D10EE00221694801F07BF8FC
:101DD0000FE00421664801F076F80AE00821644823
:101DE00001F071F805E01021614801F06CF800E0A5
:101DF00000BF00BFFFF7A6FE05EB85005F4901EBC2
:101E0000400935B1012D09D0022D0CD0032D14D17C
:101E10000EE00221564801F058F80FE00421544822
:101E200001F053F80AE00821514801F04EF805E0AE
:101E300010214F4801F049F800E000BF00BFFFF754
:101E400081FE002607E0FF20FFF709FF09F80600E2
:101E5000FFF778FE761C0A2EF5D335B1012D09D097
:101E6000022D0CD0032D14D10EE00221404801F0C8
:101E70002AF80FE004213E4801F025F80AE0082185
:101E80003B4801F020F805E01021394801F01BF82B
:101E900000E000BF00BFFFF755FE05EB85003749A6
:101EA00001EB4000801C00EB4B00B0F800A00C2FB1
:101EB0006ED2DFE807F00623406E8BA9C7E4FEFD73
:101EC000FCFB404603F072F9CDE90601504603F0F1
:101ED00035FB019003F06AF90022294BCDE902019C
:101EE00002F0A6FDCDE90401DDE9062302F034FF8E
:101EF000CDE9080102F0B6FC044659E1404603F082
:101F000055F9CDE90601504603F018FB019003F0A6
:101F10004DF91C4A1C4BCDE9020102F089FDCDE9C7
:101F20000401DDE9062302F017FFCDE9080102F004
:101F300099FC04463CE1404603F038F9CDE906013E
:101F4000504603F0FBFA019003F030F900220F4BEA
:101F5000CDE9020102F06CFDCDE90401DDE90623C3
:101F600002F0FAFECDE9080102F07CFC04461FE114
:101F70000008014000200140000C01407B040020CB
:101F800000005B40CDCCCCCCCC0C5B4000205B4057
:101F90000DE1404603F00AF9CDE90601504603F091
:101FA000CDFA019003F002F9C54AC64BCDE9020112
:101FB00002F03EFDCDE90401DDE9062302F0CCFE8E
:101FC000CDE9080102F04EFC0446F1E0404603F082
:101FD000EDF8CDE90601504603F0B0FA019003F0A8
:101FE000E5F84FF06632B84BCDE9020102F020FD72
:101FF000CDE90401DDE9062302F0AEFECDE90801DA
:1020000002F030FC0446D3E0404603F0CFF8CDE9BF
:102010000601504603F092FA019003F0C7F84FF022
:102020006632A94BCDE9020102F002FDCDE90401BF
:10203000DDE9062302F090FECDE9080102F012FC72
:102040000446B5E0404603F0B1F8CDE9060150463C
:1020500003F074FA019003F0A9F89C4A9C4BCDE977
:10206000020102F0E5FCCDE90401DDE9062302F0FE
:1020700073FECDE9080102F0F5FB044698E0404606
:1020800003F094F8CDE90601504603F057FA0190A9
:1020900003F08CF84FF033328E4BCDE9020102F0A1
:1020A000C7FCCDE90401DDE9062303E062E044E07A
:1020B00026E007E002F050FECDE9080102F0D2FB75
:1020C000044675E0404603F071F8CDE9060150463C
:1020D00003F034FA019003F069F84FF033327D4B8E
:1020E000CDE9020102F0A4FCCDE90401DDE90623FB
:1020F00002F032FECDE9080102F0B4FB044657E0DD
:10210000404603F053F8CDE90601504603F016FAB5
:10211000019003F04BF86D4A6F4BCDE9020102F0DC
:1021200087FCCDE90401DDE9062302F015FECDE9C7
:10213000080102F097FB04463AE0404603F036F807
:10214000CDE90601504603F0F9F9019003F02EF8AD
:102150000022624BCDE9020102F06AFCCDE90401E4
:10216000DDE9062302F0F8FDCDE9080102F07AFB73
:1021700004461DE0404603F019F8CDE9060150463B
:1021800003F0DCF9019003F011F8504A524BCDE90D
:10219000020102F04DFCCDE90401DDE9062302F065
:1021A000DBFDCDE9080102F05DFB044600E000BF65
:1021B00000BF20460BB0BDE8F08F2DE9F041064688
:1021C000FFF7CAFC464F8021464800F07EFEFFF72D
:1021D000C3FC002507E04449485DFFF777FD7855CB
:1021E000FFF7BAFC6D1C142DF5D380213D4800F09B
:1021F0006AFE0C2E06D00D2E0FD00E2E18D00F2EEC
:102200002CD120E03649D1F8020003F07FF9804656
:10221000364903F065F8044621E03149D1F806005B
:1022200003F074F98046314903F05AF8044616E089
:102230002B49D1F80A0003F069F980462B4903F0D5
:102240004FF804460BE02649D1F80E0003F05EF982
:102250008046264903F044F8044600E000BF00BF72
:102260002046BDE8F08170B505460E46002408E022
:1022700056F824102046FFF75FFD45F82400601C47
:10228000C4B20C2CF4DB0C2406E02046FFF795FFCB
:1022900045F82400601CC4B2102CF6DB70BD70B58C
:1022A00005460E460C2D05DA31462846FFF744FD5B
:1022B000044603E02846FFF780FF0446204670BD31
:1022C0009A99999999D95A4066E65A40CDCCCCCC86
:1022D000CCEC5A4033F35A40CCAC5A4000A05A40A0
:1022E000A3040020000C0140BE580008000020415B
:1022F0000020704702460020704710B50024FE49B8
:10230000FE48006803F02EFA00D80124FC49FB487F
:10231000006803F027F900D80224FA49FA48006857
:1023200003F020FA00D80324F849F948006803F0C4
:1023300019FA00D80424204610BD2DE9F05F82462A
:102340008B46DDE90B890A9F0024F248F2490860B8
:1023500002E0FFF7D2FF04460021F048006803F0D6
:1023600081F8F6D014B1E0B2BDE8F09FEC4AEA483B
:1023700001680020FEF76AFEE7480068E949086046
:1023800008E0FFF7BAFF04460CB1E0B2ECE70A2020
:10239000FEF7FFFFDB49E448006803F0E3F8F0D9FB
:1023A00006E001210220FEF7BDFE0A20FEF7F1FF44
:1023B000DE49D248006803F0D5F8F2D900210220A6
:1023C000FEF7B0FE0120FFF700F801210020FEF724
:1023D000A9FE0120D6490870FEF7F7FF012104206D
:1023E000FEF7A0FE0120D249087111E0D149D24880
:1023F000006803F0B7F902D20020CF490860FFF768
:102400007CFF04460CB1E0B2AEE76420FEF7C1FFEA
:10241000CA49C948006803F0A5F8E7D30121084676
:10242000FEF780FE0120C249487008E0FFF765FF13
:1024300004460CB1E0B297E76420FEF7AAFFC0485B
:10244000006802F0B3FE05460022BE4B02F048FCD5
:10245000ECD3002088E770B505460C4616460021EF
:102460000420FEF75FFE0020B14908710520FEF749
:10247000ACFF00210120FEF755FE0020AC4948705A
:102480000520FEF7A2FF00210846FEF74BFE0020C4
:10249000A74908700520FEF798FF0021084622682A
:1024A000FEF7D4FD002070BD70B505460E46002431
:1024B0000AE0002045F824004FF07E52002120461B
:1024C000FEF7C4FD601CC4B20C2CF2DB002407E054
:1024D0000020305500212046FEF724FE601CC4B2C7
:1024E000082CF5DB70BD10B5002406E0894A0021F8
:1024F0002046FEF7ABFD601CC4B20C2CF6DB10BD11
:1025000070B5049C7D4D28607F4D29608A4D2A60FE
:10251000854D2B608A4D2C604FF07E557F4E356087
:1025200070BD2DE9F34F8BB08A464FF0000B0020B1
:102530000A900B9802F03AFE04460022824B02F009
:102540000BFCCDE902010B9802F030FE04460D466B
:102550000B9802F02BFE06467C4A7D4B02F0FCFBFA
:10256000804622462B4602F0F7FBCDE90001DDE96B
:10257000022302F031FD774A774BCDE9040102F0E6
:10258000A3F90022754BCDE9060102F051FACDE91D
:10259000080102F067F983465E49504602F0A0FE4A
:1025A0000746594603F012F8044602F0FFFD0546BF
:1025B0006B4A6C4B02F004FDCDE90401584602F071
:1025C000F5FD80468946504602F0F0FD0446664A15
:1025D000664B02F0C1FB06460022654B02F028FA6A
:1025E00042464B46CDE9000102F0B6FBCDE90201BF
:1025F000DDE9042302F01CFA0022584BCDE9060164
:1026000002F0AAFBCDE9080102F02CF90A900A9821
:102610000DB0BDE8F08F2DE9F04F93B05548006B39
:102620000F90544A51681068FFF77BFF1190514A90
:10263000D1689068FFF775FF1290DDE9110103F092
:10264000C3F810900F9802F0B1FD04460D460F98A4
:1026500002F0ACFD8046484A484B02F07DFB06463E
:1026600022462B4602F078FBCDE90A010F9802F0D2
:102670009DFD80468946109802F098FD0646404A26
:10268000404B02F069FB044642464B4602F064FBB5
:10269000CDE90601109802F089FD04460D46109818
:1026A00002F084FD8046344A374B02F055FB064663
:1026B00022462B4602F050FBCDE902010F9802F0B2
:1026C00075FD0446314A324B02F046FB804689468E
:1026D000109802F06BFD06462E4A2F4B02F03CFB91
:1026E00004462E4A2E4B02F06BFC824642464B4675
:1026F00002F0EAF856E0000000000C42A0020020C0
:102700000000E0400000BE42A40200200000E642BB
:10271000580100200000C842BC020020AC0200208A
:10272000000020416C030020B0020020000088411E
:10273000180000200000F042A802002000004842DB
:10274000B40200200000444000604B406B2BF69721
:10275000DDD313409A9999999975964000408F401E
:10276000CDCCCCCCCC5459408195438B6CE7E33F26
:1027700000005940EC020020AED85F764F1E663F45
:102780001361C3D32B65793F4F1E863F0BB5A679E6
:10279000C729E63F8CB96B09F9A0C73F92CB7F48A8
:1027A000BF3D1040CDE90001DDE9022302F08CF8C5
:1027B000CDE90401DDE9062302F00EFCCDE90801B4
:1027C000DDE90A2302F008FCCDE90C0102F04AF829
:1027D0000E900E9813B0BDE8F08F2DE9F041002463
:1027E0000025E2480078012817D1FFF714FF0546BD
:1027F000284602F0DBFC06460022DD4B02F0AAFB75
:102800000AD8284602F0D2FC06460022D94B02F034
:1028100067FA01D8012400E000242046BDE8F081D9
:102820002DE9F041044600250021D348006802F05C
:1028300019FE02D1FFF761FD054615B1E8B2BDE80A
:10284000F0814FF07E51CC48006802F00BFE7DD144
:10285000002DFCD1C949CA48006802F083FF18D88E
:1028600001210320FEF75EFC0A20FEF777FD03E05E
:10287000C4480069C2490860C349C148006802F001
:1028800071FFF5D300210320FEF74CFC0A20FEF770
:1028900065FDBE49BE48006802F064FF0DD2BD4927
:1028A000B748006802F05EFE07D201210220FEF761
:1028B00039FC0A20FEF752FD15E0B749B44800681C
:1028C00002F050FE05D3B349AD48006802F04AFF5C
:1028D00009D8B248007830B900210220FEF722FC66
:1028E0000A20FEF73BFDAE49A548006802F03AFE1B
:1028F00007D801210220FEF715FC0A20FEF72EFD65
:102900000FE0A4499E48006802F02CFF09D8A348B4
:10291000007830B900210220FEF704FC0A20FEF7FF
:102920001DFDA049A048006802F01CFF06D8002148
:102930000320FEF7F7FB0A20FEF710FD9B499048A5
:10294000006802F00FFF11D2012C00E0E7E00DD18A
:1029500094499548006802F005FE07D20121032042
:10296000FEF7E0FB0A20FEF7F9FC06E00021032059
:10297000FEF7D8FB0A20FEF7F1FC8D48006802F054
:1029800015FC064600228B4B02F0E4FA28D281495E
:102990007B48006802F0E6FD22D20CBB7348007849
:1029A00001281DD10021FEF7BDFB0020824948709F
:1029B0000120FEF7D3FC00210846FEF7B3FB002000
:1029C0007D4908700120FEF7C9FC01210220FEF7B5
:1029D000A9FB0120FEF7C2FC01207049087038E015
:1029E0006C496748006802F0BDFE32D85F48007845
:1029F00078BB6A48007801282BD100210220FEF71D
:102A000091FB0A20FEF7AAFC01210020FEF78AFBB9
:102A10000120694908700A20FEF7A0FC06E0594829
:102A2000406B664908600120FEF7B3FC64496348C7
:102A3000006802F097FDF2D301210846FEF772FB11
:102A400001205D4948700A20FEF788FC00205349A8
:102A500008705748006802F0A9FB06460022554B53
:102A600002F078FA27D24B494548006802F07AFE16
:102A700021D83E48007801281DD10021FEF752FBE5
:102A800000204D4948700A20FEF768FC00210846E6
:102A9000FEF748FB0020484908700120FEF75EFC65
:102AA00001210220FEF73EFB0120FEF757FC022029
:102AB0003A4908704EE02D48007880BB37480078CE
:102AC000022847D103E02F4800692D4908602E49AC
:102AD0002B48006802F046FDF5D300210220FEF7E6
:102AE00021FB0120FEF73AFC2548006802F05EFB5E
:102AF00006464FF03332334B02F02CFA2AD82949DC
:102B00002948006802F02EFD24D201210020FEF7A2
:102B100009FB012028490870FEF720FC07E019E0B6
:102B20001848406B254908600120FEF732FC244913
:102B30002248006802F016FDF2D301210846FEF794
:102B4000F1FA01201C4948700A20FEF707FC00201A
:102B500012490870104A1C4801680020FEF776FAF6
:102B60001948006819490860002068E660010020E3
:102B70000000414000004240AC020020000004423E
:102B8000A0020020EC0200200000F8410000824278
:102B9000A40200200000E04100002041610100206B
:102BA0000000A0410000D8425801002000009041E0
:102BB000540100200040424018000020A8020020DC
:102BC0000000484233B33E40BC0200206C030020AA
:102BD00031490143314A1160704770B5002100232B
:102BE0000F22C47804B32D4C246804F4E064C4F5C7
:102BF000E064210AC1F10403CA40447804FA03F1F5
:102C00008478144021430901254C0678A1550478A5
:102C100004F01F050124AC4005786D11AD0005F1ED
:102C2000E025C5F8004109E0047804F01F050124FF
:102C3000AC401C4D0678761145F8264070BD1A4A06
:102C40000A400243154B1B1F1A60704739B1134AE3
:102C5000121D12680243114B1B1D1A6006E00F4A39
:102C6000121D126882430D4B1B1D1A607047042809
:102C700008D14FF0E021096941F004014FF0E02252
:102C8000116107E04FF0E021096921F004014FF0E4
:102C9000E0221161704700000000FA050CED00E031
:102CA00000E400E080E100E080FFFF1F10B5044673
:102CB000CC48844208D10121042000F02DFB0021E2
:102CC000042000F029FB46E0C748844208D10121D6
:102CD000082000F021FB0021082000F01DFB3AE055
:102CE000C248844208D10121102000F015FB0021C8
:102CF000102000F011FB2EE0BD48844208D10121D4
:102D0000202000F009FB0021202000F005FB22E03C
:102D1000B848844208D10121402000F0FDFA00218A
:102D2000402000F0F9FA16E0B348844208D10121AE
:102D3000802000F0F1FA0021802000F0EDFA0AE096
:102D4000AE48844207D10121801500F0E5FA002148
:102D5000A01500F0E1FA10BD10B50121084600F001
:102D6000DBFA0021012000F0D7FA10BD2DE9F04177
:102D7000024600250026002000230024002791F8A9
:102D800003C00CF00F0591F803C00CF0100CBCF15F
:102D9000000F03D091F802C04CEA050591F800C07D
:102DA000BCF1000F31D0146800202BE04FF0010C73
:102DB0000CFA00F3B1F800C00CEA03069E4220D1E1
:102DC00083004FF00F0C0CFA03F7BC4305FA03FC29
:102DD0004CEA040491F803C0BCF1280F06D14FF06F
:102DE000010C0CFA00FCC2F814C00AE091F803C010
:102DF000BCF1480F05D14FF0010C0CFA00FCC2F8F1
:102E000010C0401C0828D1D31460B1F800C0BCF138
:102E1000FF0F34DD546800202EE000F1080C4FF065
:102E2000010808FA0CF3B1F800C00CEA03069E4250
:102E300021D183004FF00F0C0CFA03F7BC4305FAC5
:102E400003FC4CEA040491F803C0BCF1280F05D13F
:102E500000F1080C08FA0CF8C2F8148091F803C0CD
:102E6000BCF1480F07D100F1080C4FF0010808FA37
:102E70000CF8C2F81080401C0828CED35460BDE87E
:102E8000F0814FF6FF710180022181700421C17031
:102E900070470246002093680B400BB1012000E010
:102EA000002070470146886880B2704702460020C3
:102EB000D3680B400BB1012000E0002070470146B1
:102EC000C86880B2704701617047416170470AB1BC
:102ED000016100E041617047C16070474FF480328A
:102EE0000A43826181618261826982697047024618
:102EF0000020434B18684FF68073184040EA0210D8
:102F000008433F4B186070473E49C8617047F0B5B1
:102F10000A46002300240021002500F00046B6F1F7
:102F2000004F02D1364EF16901E0354E7168C0F3B1
:102F3000034583B200F44016B6F5401F08D121F0D6
:102F400070612F4E766826F070662D4F7E6012E01D
:102F500000F48016B6F5801F06D1032606FA05F4A4
:102F6000A14341F0706106E0460D360103FA06F612
:102F7000B14341F0706122B1460D360103FA06F605
:102F8000314300F00046B6F1004F02D11C4EF16112
:102F900001E01B4E7160F0BD30B500228B071C0FA5
:102FA0000F2303FA04F2164B08338C1053F8243025
:102FB0009343134C08348D1044F8253023468C106D
:102FC00053F824308C07240F00FA04F423430C4CEC
:102FD00008348D1044F8253030BD0A49DC310860D2
:102FE0007047000000080140000C01400010014043
:102FF0000014014000180140001C01400020014065
:103000000000014000002042DF48006840F001005D
:10301000DD49086008464068DC490840DA494860F4
:1030200008460068DA490840D74908600846006841
:1030300020F4802008600846406820F4FE004860C4
:103040004FF41F0088607047CF49096821F4803130
:10305000CD4A11601146096821F480211160B0F554
:10306000803F03D0B0F5802F0ED106E0C649096835
:1030700041F48031C44A116007E0C349096841F452
:10308000A021C14A116000E000BF00BF704710B529
:1030900001460022002300204A11012A02D1BA4C25
:1030A000236806E0022A02D1B74C236A01E0B64C3D
:1030B000636A01F01F02012494401C400CB10120FE
:1030C00000E0002010BD38B500200090002400254D
:1030D00000BF3120FFF7DBFF05460098401C009041
:1030E0000098B0F5A06F01D0002DF2D03120FFF78D
:1030F000CEFF08B1012400E00024204638BD01467F
:103100000020A14A106820F0F80040EAC1001060D9
:103110007047A04908607047024600209A4B5868E3
:1031200020F47C1042EA01031843974B5860704723
:1031300098490866704701460020934A506820F07D
:1031400003000843506070478F48406800F00C004F
:103150007047014600208C4A506820F0F000084378
:103160005060704701460020874A506820F4E060B4
:1031700008435060704701460020834A506820F49D
:10318000605040EAC1005060704729B17E4A527ACF
:1031900002437D4B5A7204E07B4A527A82437A4B57
:1031A0005A7270477B49D831086070470146002049
:1031B000754A506820F44040084350607047002131
:1031C000714A20321170704A82F82010012802D012
:1031D00004280AD104E001216B4A2032117005E075
:1031E0000521694A2032117000E000BF00BF70471E
:1031F0006949086070476449096A0143624A11627B
:103200007047654944390860704730B50021002295
:10321000002400235C4D6D6805F00C0121B10429E8
:1032200005D0082923D105E05C4D056022E05B4D07
:1032300005601FE0544D6D6805F47012524D6D68C5
:1032400005F48034022505EB92421CB9544D5543D8
:1032500005600BE04C4D6D6805F400351DB1504D17
:103260005543056002E04D4D5543056002E04B4D6E
:10327000056000BF00BF444D6D6805F0F00109090D
:10328000484D6B5C0568DD4045603F4D6D6805F459
:10329000E061090A434D6B5C4568DD4085603A4D4D
:1032A0006D6805F46051C90A3E4D6B5C4568DD40B0
:1032B000C560354D6D6805F44041890B3A4D6B5C36
:1032C000C568B5FBF3F5056130BD29B12E4A5269D9
:1032D00002432D4B5A6104E02B4A526982432A4B28
:1032E0005A61704729B1284A92690243264B9A6174
:1032F00004E0254A92698243234B9A61704729B1C1
:10330000214AD2690243204BDA6104E01E4AD269A5
:1033100082431D4BDA61704729B11B4AD2680243D0
:10332000194BDA6004E0184AD2688243164BDA601F
:10333000704729B1144A12690243134B1A6104E021
:10334000114A12698243104B1A6170471249403981
:10335000086070470F49C86470470B49C8717047CF
:103360000948406A40F0807007494862704701464A
:103370000020054A92680A400AB1012000E00020BE
:103380007047014988727047001002400000FFF842
:10339000FFFFF6FE000042428004424200127A0023
:1033A00000093D00C4020020D402002010B50446EC
:1033B000FB48844209D101218803FFF7ADFF0021BA
:1033C0004FF48040FFF7A8FF32E0F648844209D16D
:1033D00001214804FFF7ADFF00214FF40030FFF753
:1033E000A8FF25E0F048844209D101218804FFF7B5
:1033F000A0FF00214FF48020FFF79BFF18E0EB486F
:10340000844209D10121C804FFF793FF00214FF442
:103410000020FFF78EFF0BE0E548844208D1012130
:103420000805FFF786FF00214FF48010FFF781FFAA
:1034300010BD2DE9F04786B005460E460024A24691
:1034400000BFA1460027B08900B100BF2F462C8ADB
:103450004CF6FF700440F08804432C82AC894EF691
:10346000F3100440B088318908437189084304434C
:10347000AC81AC8A4FF6FF400440B0890443AC8273
:1034800001A8FFF7C2FEC648874202D1DDF810A0AE
:1034900001E0DDF80CA0A88900F4004040B10AEB7F
:1034A000CA0000EB0A1031684900B0FBF1F807E0F0
:1034B0000AEBCA0000EB0A1031688900B0FBF1F892
:1034C0006420B8FBF0F004012009642101FB10899D
:1034D000A88900F4004040B1322000EBC900B0FBE5
:1034E000F1F000F00700044308E0322000EB09107F
:1034F0006421B0FBF1F000F00F0004432C8106B012
:10350000BDE8F0874FF41651016000218180C18031
:1035100001810C21418100218181704710B5024653
:103520000020108A4FF2FF0318400B884C88234379
:103530008C882343CC8823431843108210BD00217C
:10354000018041808180C180704721B1828942F42D
:103550000052828104E082894DF6FF731A40828115
:103560007047F0B50346002400260025002040F6F1
:103570006A17B94200D100BF1846C1F3421401F0E6
:103580001F06012707FA06F5012C01D10C3004E0D3
:10359000022C01D1103000E014301AB107682F431B
:1035A000076002E00768AF430760F0BD1AB1838A85
:1035B0000B43838202E0838A8B4383827047028AB3
:1035C0004FF6F0731A400282028A0A430282704761
:1035D00082894FF2FF731A40828182890A43828175
:1035E000704721B1828942F00202828104E082891F
:1035F0004FF6FD731A4082817047028A4FF6DF73DF
:103600001A400282028A0A430282704721B1028A6A
:1036100042F48042028204E0028A4BF6FF731A40B1
:1036200002827047C1F30802828070470146888891
:10363000C0F308007047818941F001018181704722
:10364000028BD2B20283028B42EA012202837047CC
:10365000028B02F47F420283028B0A43028370478B
:1036600021B1828A42F02002828204E0828A4FF6EF
:10367000DF731A408282704721B1828A42F01002C1
:10368000828204E0828A4FF6EF731A40828270478A
:1036900021B1828A42F00802828204E0828A4FF6D7
:1036A000F7731A408282704721B1828942F4004246
:1036B000828103E08289C2F30E028281704721B1C8
:1036C000828A42F40062828204E0828A4FF2FF73AF
:1036D0001A4082827047828A4FF6FB731A408282B8
:1036E000828A0A438282704721B1828A42F00202B2
:1036F000828204E0828A4FF6FD731A40828270470C
:1037000002460020B1F5007F00D100BF13880B40B6
:103710000BB1012000E00020704701F40072B2F507
:10372000007F00D100BFCA430280704770B50246D7
:10373000002400230025002040F66A16B14200D183
:1037400000BFC1F3421501F01F03012606FA03F37F
:10375000012D02D19689334006E0022D02D1168A4E
:10376000334001E0968A33400C12012606FA04F435
:103770001688344013B10CB1012000E0002070BD68
:1037800010B50022002340F66A14A14200D100BF08
:103790000A1201249440A3B2DC43048010BD00004F
:1037A000003801400044004000480040004C004008
:1037B0000050004010B50446FE48844208D1012163
:1037C000C014FFF7A9FD0021E014FFF7A5FDC4E038
:1037D000B4F1804F08D101210846FFF7AAFD00216E
:1037E0000120FFF7A6FDB8E0F348844208D101218B
:1037F0000220FFF79EFD00210220FFF79AFDACE0BA
:10380000EE48844208D101210420FFF792FD0021F7
:103810000420FFF78EFDA0E0E948844208D1012191
:103820000820FFF786FD00210820FFF782FD94E0C5
:10383000E448844208D101211020FFF77AFD0021DD
:103840001020FFF776FD88E0DF48844208D101218F
:103850002020FFF76EFD00212020FFF76AFD7CE0AD
:10386000DA48844208D101214014FFF755FD0021B8
:103870006014FFF751FD70E0D548844209D1012161
:10388000C804FFF749FD00214FF40020FFF744FD75
:1038900063E0D048844209D101210805FFF73CFDCF
:1038A00000214FF48010FFF737FD56E0CA488442EC
:1038B00009D101214805FFF72FFD00214FF4001029
:1038C000FFF72AFD49E0C548844208D10121402084
:1038D000FFF72FFD00214020FFF72BFD3DE0C04802
:1038E000844208D101218020FFF723FD00218020A0
:1038F000FFF71FFD31E0BB48844208D1012180154C
:10390000FFF717FD0021A015FFF713FD25E0B648CE
:10391000844209D101210804FFF7FEFC00214FF485
:103920008030FFF7F9FC18E0B048844209D101214A
:103930004804FFF7F1FC00214FF40030FFF7ECFCE6
:103940000BE0AB48844208D101218804FFF7E4FC76
:1039500000214FF48020FFF7DFFC10BD0022028819
:10396000944B98420ED0994B98420BD0B0F1804FB7
:1039700008D0914B984205D0904B984202D0904B82
:10398000984204D14FF68F731A404B881A438D4BDF
:10399000984207D08C4B984204D04FF6FF431A4010
:1039A000CB881A4302808B8883850B880385814BE3
:1039B00098420BD0854B984208D08B4B984205D04B
:1039C0008A4B984202D08A4B984201D10B7A0386E7
:1039D00001238382704770B5002400220023058CE8
:1039E0004FF6FE7635400584028C8388048B4FF6B3
:1039F0008F752C40B51E2C400D882C43751E2A4017
:103A00000D892A434D882A436A4DA8420BD06F4D39
:103A1000A84208D0744DA84205D0744DA84202D0E7
:103A2000734DA84213D14FF6F7752A404D892A43AA
:103A30004FF6FB752A408D882A434FF6FF652B40D1
:103A40004FF6FF552B408D892B43CD892B43838027
:103A50000483CD888586028470BD70B50024002261
:103A60000023058C4FF6EF7635400584028C838861
:103A7000048B48F6FF752C404FF6FF452C400D880F
:103A80004FF6FF7606EA05252C434FF6DF752A40F0
:103A90000D8906EA05152A434D8806EA05152A43CD
:103AA000444DA84202D0494DA8421DD14FF67F7522
:103AB0002A404D894FF6FF7606EA05152A434FF650
:103AC000BF752A408D8806EA05152A434FF6FF3553
:103AD0002B404FF2FF752B408D8906EA85052B435D
:103AE000CD8906EA85052B4383800483CD8805872D
:103AF000028470BD70B5002400220023058C4FF6AF
:103B0000FF6635400584028C8388848B4FF68F7561
:103B10002C404FF6FC752C400D882C434FF6FF557A
:103B20002A400D894FF6FF7606EA05252A434D887F
:103B300006EA05252A431F4DA84202D0234DA8427C
:103B40001DD14FF2FF752A404D894FF6FF7606EAE8
:103B500005252A434FF6FF352A408D8806EA0525BC
:103B60002A434EF6FF752B404DF6FF752B408D898D
:103B700006EA05152B43CD8906EA05152B438380FC
:103B80008483CD888587028470BD70B500220023B0
:103B90000024058C4EF6FF7635400584038C84881E
:103BA000828B48F6FF752A404FF6FF452A400D8864
:103BB00020E00000002C014000040040000800400C
:103BC000000C004000100040001400400034014090
:103BD000004C0140005001400054014000180040DA
:103BE000001C004000200040004001400044014013
:103BF000004801404FF6FF7606EA05252A434DF6B8
:103C0000FF752B400D8906EA05352B434D8806EAE2
:103C100005352B43FA4DA84202D0FA4DA84208D1EF
:103C20004BF6FF752C408D894FF6FF7606EA851519
:103C30002C4384808283CD88A0F84050038470BDDB
:103C4000828B4FF2FF331A408283828B4FF6FF73D1
:103C500003EA01231A4382837047F0B50C461546E8
:103C6000002200210026078C4EF6FF7C07EA0C0795
:103C70000784828B018C4FF6FF7707EA043640F603
:103C8000FF473A404FF6FF7707EA05273A434FF6DA
:103C9000FF7707EA03373A43D94FB8420ED0D94FDE
:103CA000B8420BD0B0F1804F08D0D74FB84205D002
:103CB000D64FB84202D0D64FB84206D14DF6FF7764
:103CC000394046F48057394305E047F6FF573940FD
:103CD00044F48057394382830184F0BD828B4FF6D0
:103CE000F3731A408283828B0A4382837047F0B554
:103CF0000C461546002200210026078C4FF6FF6C6B
:103D000007EA0C070784828B018C4FF6FF7707EADE
:103D100004264FF60C773A404FF6FF7707EA031771
:103D20002F433A43B64FB8420ED0B64FB8420BD0ED
:103D3000B0F1804F08D0B44FB84205D0B34FB8426D
:103D400002D0B34FB84206D14FF6FF57394046F480
:103D50008077394305E04FF2FF57394044F48077CC
:103D6000394382830184F0BD028B4FF2FF331A4046
:103D70000283028B4FF6FF7303EA01231A43028387
:103D80007047F0B50C461546002200210026078C2E
:103D90004FF6EF7C07EA0C070784028B018C4FF685
:103DA000FF7707EA041640F6FF473A404FF6FF77E1
:103DB00007EA03373A434FF6FF7707EA05273A4306
:103DC0008F4FB8420ED08F4FB8420BD0B0F1804F1A
:103DD00008D08D4FB84205D08C4FB84202D08C4FDE
:103DE000B84206D14FF6DF77394046F01007394325
:103DF00005E04FF65F77394044F0100739430283FE
:103E00000184F0BD028B4FF6F3731A400283028BDC
:103E10000A4302837047F0B50C4615460022002184
:103E2000068C4FF6FE773E400684028B018C4FF6DF
:103E30000C7632407E1C06EA03162E433243704E47
:103E4000B0420ED06F4EB0420BD0B0F1804F08D0D0
:103E50006D4EB04205D06D4EB04202D06C4EB042B5
:103E600006D14FF6FD76314044F00106314305E0BE
:103E70004FF6F576314044F0010631430283018468
:103E8000F0BD70B505460C465D4885420ED05D48D4
:103E900085420BD0B5F1804F08D05B48854205D0F4
:103EA0005A48854202D05A48854200D100E000BFFE
:103EB000208850B92389A28861882846FFF7ABFF84
:103EC000E1882846FFF79EFF25E0208804280AD1D4
:103ED0002389A28861882846FFF753FFE188284696
:103EE000FFF742FF17E0208808280AD12389A2881B
:103EF00061882846FFF7FBFEE1882846FFF7EEFEC3
:103F000009E02389A28861882846FFF7A6FEE18898
:103F10002846FFF795FE70BD2DE9F04105460C4699
:103F200000260127608808B9022600E00026A08844
:103F3000012801D1022700E001272088A0B92389A8
:103F4000A28861882846FFF766FFE1882846FFF7C8
:103F500059FF23893A4631462846FFF712FFE18888
:103F60002846FFF701FF13E02389A28861882846CD
:103F7000FFF707FFE1882846FFF7F6FE23893A4658
:103F800031462846FFF747FFE1882846FFF73AFF0A
:103F9000BDE8F0810A884B881A438B881A43CB8886
:103FA0001A430B891A434B891A438B891A43A0F889
:103FB000442070474FF6FF71818000210180C1804D
:103FC0004180017270470021018041808180C18061
:103FD000018141818181C18170470021018041803F
:103FE000012181800021C180018170470021018071
:103FF00041808180C18001814181818170470000C1
:10400000002C014000340140000400400008004042
:10401000000C004021B1028842F00102028004E05D
:1040200002884FF6FE731A400280704731B1B0F833
:10403000442042F40042A0F8442005E0B0F84420B7
:10404000C2F30E02A0F8442070471AB183890B43D3
:10405000838102E083898B4383817047818270472B
:1040600041EA0203A0F8483070471AB183890B4334
:10407000838102E083898B438381704701894FF6F6
:10408000F8721140018170470A46002101894FF6FC
:104090008F73194011430181704730B504460D46B6
:1040A00029462046FFF7F0FF208940F007002081D5
:1040B00030BD2DE9F04104460D4616461F46602DE1
:1040C00006D13B46012231462046FFF75AFE05E065
:1040D0003B46012231462046FFF79DFE29462046F9
:1040E000FFF7D2FF208940F007002081BDE8F08172
:1040F00030B50C4600210189C9B24FF6FF7505EABB
:104100000325154325432943018130BD2DE9F041A5
:1041100005460E4617469846002443463A46314621
:104120002846FFF7E5FF2C894FF6F870044044F06D
:1041300007044FF68F70044044F070042C81BDE8F2
:10414000F081F0B504460D4616461F463B46324602
:1041500029462046FFF7CCFF208940F4804020818B
:10416000F0BD0185828270470A46002101884FF622
:104170008F731940114301807047F0B50C46154606
:104180001E460021002200230189028B038C4FF67A
:10419000F877394021434FF6FC473A4040F2011787
:1041A0003A434FF6DD773B404FF6FF7707EA0617B5
:1041B0002F433B43018102830384F0BD0A46002163
:1041C000018B4FF68F7319401143018370470A46E4
:1041D0000021018B48F6FF7319404FF6FF7303EA85
:1041E00002231943018370470A460021818B4FF651
:1041F0008F7319401143818370470A460021818BD8
:1042000048F6FF7319404FF6FF7303EA0223194380
:104210008183704721B1028842F08002028004E06D
:1042200002884FF67F731A400280704721B182885E
:1042300042F00402828004E082884FF6FB731A4049
:104240008280704721B1828842F00802828004E0B7
:1042500082884FF6F7731A408280704721B18288B6
:1042600042F00102828004E082884FF6FE731A4019
:10427000828070470A460021018B4FF6F773194080
:104280001143018370470A460021018B4FF2FF73EF
:1042900019404FF6FF7303EA022319430183704765
:1042A0000A460021818B4FF6F77319401143818331
:1042B00070470A460021818B4FF2FF7319404FF679
:1042C000FF7303EA02231943818370470A460021E2
:1042D000018B4FF6FB7319401143018370470A4667
:1042E0000021018B4FF6FF3319404FF6FF7303EAAD
:1042F00002231943018370470A460021818B4FF640
:10430000FB7319401143818370470A460021818B5A
:104310004FF6FF3319404FF6FF7303EA02231943A8
:10432000818370470A460021018B4FF67F73194045
:104330001143018370470A460021018BC1F30E012E
:104340004FF6FF7303EA02231943018370470A46BD
:104350000021818B4FF67F73194011438183704791
:104360000A460021818BC1F30E014FF6FF7303EA69
:1043700002231943818370470A460021018C4FF6BE
:10438000FD7319401143018470470A460021018CD6
:104390004FF6F77319401143018470470A46002114
:1043A000018C4FF6DF7319404FF6FF7303EA0213D7
:1043B0001943018470470A460021018C4FF67F7330
:1043C00019404FF6FF7303EA021319430184704743
:1043D0000A460021018C4FF6FF5319404FF6FF7338
:1043E00003EA02231943018470470A460021018C25
:1043F0004FF2FF7319404FF6FF7303EA022319438C
:10440000018470470A460021018C4DF6FF73194064
:104410004FF6FF7303EA023319430184704730B546
:10442000002301248C40A3B2048C9C430484048C9C
:1044300002FA01F5ADB22C43048430BD30B500233F
:1044400004248C40A3B2048C9C430484048C02FAA0
:1044500001F5ADB22C43048430BD70B50346002095
:1044600000241846183001258D40ACB21D8CA543A0
:104470001D8409B1082909D100EB6100056825F008
:10448000700505600568154305600EE00D1FC5F356
:104490004E052844056825F4E045056005684FF69B
:1044A000FF7606EA02263543056070BD21B1028819
:1044B00042F00202028004E002884FF6FD731A40C7
:1044C0000280704721B1028842F00402028004E0B9
:1044D00002884FF6FB731A400280704721B1828830
:1044E00042F08002828004E082884FF67F731A4097
:1044F0008280704702884FF6F7731A400280028864
:104500000A430280704782884FF68F731A40828078
:1045100082880A438280704702894FF6F8731A40F6
:10452000028102890A430281704702894FF67F7334
:104530001A40028102890A430281704781847047D0
:1045400081857047818670470187704781877047F2
:10455000A0F84010704702884FF6FF431A400280CF
:1045600002880A43028070470146888E70470146E0
:10457000088F70470146888F70470146B1F84000A8
:1045800070470146888C70470146088D7047024687
:104590000020138A0B400BB1012000E0002070477F
:1045A000CA430282704730B502460020002300242F
:1045B000158A05EA0103958905EA010413B10CB1D6
:1045C000012000E0002030BDCA4302827047000095
:1045D0000CB50020019000906C48006840F48030D9
:1045E0006A49086000BF6948006800F40030009024
:1045F0000198401C0190009818B90198B0F5A06F7F
:10460000F1D16248006800F4003010B10120009040
:1046100001E0002000900098012843D15C48006828
:1046200040F010005A4908600846006820F0030076
:1046300008600846006840F002000860534840687F
:10464000524948600846406848600846406840F45F
:10465000806048600846406820F47C104860084646
:10466000406840F4E81048600846006840F08070F8
:10467000086000BF4548006800F000700028F9D0CD
:104680004248406820F003004049486008464068BE
:1046900040F00200486000BF3C48406800F00C0059
:1046A0000828F9D10CBD10B5FFF792FF10BD10B569
:1046B0003648006840F00100344908600846406808
:1046C000344908403149486008460068324908408A
:1046D0002E4908600846006820F4802008600846DB
:1046E000406820F4FE0048604FF41F008860FFF728
:1046F000DAFF4FF000602949086010BD10B50021B5
:1047000000200022214B5B6803F00C0121B1042939
:1047100006D0082928D107E0214B224C236027E04E
:104720001F4B204C236023E0184B5B6803F4701090
:10473000164B5B6803F48032022303EB904022B9EE
:10474000194B4343174C23600DE0104B5B6803F497
:10475000003323B1144B4343124C236003E0104B4E
:104760004343104C236003E00D4B0E4C236000BF0D
:1047700000BF064B5B68C3F303130C4CE15C094BB1
:104780001B68CB40074C236010BD000000100240A6
:10479000002002400000FFF8FFFFF6FE08ED00E0F9
:1047A00000127A00D802002000093D00DC0200203F
:1047B0000948804709480047FEE7FEE7FEE7FEE7B5
:1047C000FEE7FEE7FEE7FEE7FEE7FEE704480549F1
:1047D000054A064B70470000AF460008310100084B
:1047E00030050020300B002030070020300700206B
:1047F000704770477047754600F028F8AE460500D0
:104800006946534620F00700854618B020B5FFF7EB
:10481000DDFFBDE820404FF000064FF000074FF0ED
:1048200000084FF0000B21F00701AC46ACE8C009CE
:10483000ACE8C009ACE8C009ACE8C0098D467047D7
:104840000446AFF300802046FBF7D9FC00487047D0
:10485000CC04002001491820ABBEFEE72600020070
:104860007047000021F00042A2F16052B2F5801FB3
:1048700001F0004328BFD2F17F6C0BD95FEA001C26
:1048800043EAC20242EB507018BF704728BF20F0C5
:1048900001007047B2F5801FBCBF184670474FEA51
:1048A000410C1CF5001F02D2084600F056BF70B53F
:1048B00000F0FCFA00000089FFF7F6BF4FF000405F
:1048C000A0F580007047000010B591EA030F48BFC3
:1048D00083F0004300F18883841A71EB030C05D246
:1048E000121943EB0C03001B61EB0C01DFF824E110
:1048F0004FEA1154A4EB135C1EEA430F18BF9EEA63
:10490000445F73D023EA0E03DCF1200E21EA045148
:1049100043F4801332D322FA0CFE10EB0E0023FA7C
:104920000CFE41EB0E01CCF1200E03FA0EFE10EB53
:104930000E0051F10001B1F5801FCCF1200E32D2F2
:1049400001EB045112FA0EF2BDE8104058BF704757
:10495000401C38BF5FEA420218BF7047002814BFEE
:1049600020F0010041F100014FEA410313F5001F5F
:1049700038BF7047A1F1C04100F0E6BA012A43EB0D
:104980000302ACF1200CDCF11F0E32BF4FF0000E21
:1049900023FA0CF310EB030041EB0451B4EB115F6D
:1049A000D0D0A1EB045101F5801149085FEA300035
:1049B00001EB04510ED350F1000038BF12FA0EFE85
:1049C00008D1BDE81040C9E7401C38BF5FEA420289
:1049D000CAD1C3E7BDE810404FEA410313F5001FF9
:1049E00038BF7047A1F1C04100F0AEBA9EEA445F03
:1049F00008D011EA5E0FBDE8104004BF01F000418D
:104A000000207047BDE8104070B500F04FFA00BFBD
:104A100064FBBE3E0000E0FF491058BFC1F14041B9
:104A20005B1058BFC3F140438B42EFF300807047E7
:104A30002DE9C04130B4DFF8A0C23CEA111418BF20
:104A40003CEA131400F0EC8081EA03051CEA11141F
:104A500044EAD57418BF1CEA131500F0C780A4EB14
:104A600005044FF0004545EAC12145EAC32341EA68
:104A7000505143EA525304F17F74994204F50034D3
:104A80004FEAC0204FEAC22208BF904200F09C804B
:104A90004FEA13650FF24016765D4FEA134506FBA9
:104AA00005F7C7F1807706FB07F74FEAD737A7FB73
:104AB00003687642C8F58038A7FB06CE38BFA8F158
:104AC000010807FB08E64FF0000EA6FB028CE6FB90
:104AD00003CEDCF1000CCEF1004E38BFAEF1010E7A
:104AE000A6FB0C584FF000074FF00005E6FB0E87C1
:104AF000A1FB08C6A0FB07CE16EB0E0645F100058C
:104B0000E1FB076515F1E04E7EBFA4F580345FEA56
:104B100046066D4116F1800745F100054FEA17275B
:104B20004FEA066647EA0567A6F1DE46B6F1805F02
:104B30004FEA15251FD9384624F0010C05EBC47146
:104B4000BCF1FE6F01EB0C1102D8F0BCBDE8008196
:104B500024425CBF01F5801E9EEAC47F02D4F0BCF3
:104B6000BDE80081244238D4F0BCA1F1C041BDE8C9
:104B7000004100F0E9B94FEAD22242EA43524FEA3B
:104B8000D323A7FB02864FEAD02040EA415007FB1F
:104B900003661EEA0E0F4FEAD12105FB026658BFDD
:104BA000A6EB0056B6EB00564FEA520E4EEAC37E15
:104BB00018EB0E0E56EB530EBDD518EB02085E41F6
:104BC0007F1C55F10005B6E74FF480154FF0000744
:104BD0004FF000064FF00008ADE7F0BC4FF00000CA
:104BE00001F1C04101F00041BDE8008111EA0C1F54
:104BF0000CEA131500D00CE013EA0C1F00F025801E
:104C00004FF00000F0BC81EA030101F00041BDE873
:104C10000081F0BCBDE8004181EA030100F094B9D5
:104C2000F0BCBDE8004170B500F040F9097EFC3EE3
:104C300000F007B881EA03014FF0000001F00041E5
:104C4000704781EA030100F07FB9F0BCBDE8004184
:104C50004FF0000021497047FFFDFBF9F7F5F4F232
:104C6000F0EEEDEBE9E8E6E4E3E1E0DEDDDBDAD807
:104C7000D7D5D4D3D1D0CFCDCCCBCAC8C7C6C5C465
:104C8000C2C1C0BFBEBDBCBBBAB9B8B7B6B5B4B37C
:104C9000B2B1B0AFAEADACABAAA9A8A8A7A6A5A467
:104CA000A3A3A2A1A09F9F9E9D9C9C9B9A9999982B
:104CB0009797969595949393929191908F8F8E8ECE
:104CC0008D8C8C8B8B8A898988888787868585845B
:104CD00084838382828181800000FF070000F87F47
:104CE00051EA030C17D41CF5801F58BFBCF5801F78
:104CF00000F10680994218BF704708BF9042704784
:104D000007D711F5801F58BF13F5801F19D499429A
:104D10007047894270471CF5801F08D5BCF5801F7D
:104D2000F7D58B4218BF704708BF824270474FF4D7
:104D3000001C1CEB410F38BF1CEB430F01D28B4210
:104D4000704770B500F0B2F8922449004FF000515E
:104D50004FF08053FFF760BEDFF848C170B51CEA22
:104D6000111E1EBF1CEA13159EEA0C0F95EA0C0FCC
:104D700000F06F8081EA030423EA4C134EEAD47EEC
:104D800021EA4C1141F4801143F48013AE44A1FB9D
:104D9000024CA0FB0365AEF17F7E361955EB0C0586
:104DA000A1FB034C4CF10003A0FB021C16EB0C060C
:104DB000654153F10003094218BF46F0010613F4A0
:104DC000007F0BD14FEA03314FEA0530340341EA4B
:104DD000155140EA16506FF003020AE04FEAC32172
:104DE0004FEAC520F40241EA555140EA56506FF0AF
:104DF000020202EB2E4201EB025585EACE710AD087
:104E00005FEA440C18BF24F0004450F1000041F167
:104E1000000120EAD47040F2FE7C624500D270BDF1
:104E2000A84214BF4FF080444FF04044002E08BF0A
:104E30000024BEF1806FA8BFA1F1C041BDE8704061
:104E400080F282804FF0000001F1C04101F000418A
:104E500070479EEA0C0F0CEA131518BF95EA0C0F69
:104E600006D04FF0000081EA030E0EF0004170BD45
:104E700000F01CF88900013E00F007B800F009B806
:104E80004FEA430C5FEA5C5C08D081EA030100F062
:104E90005BB84FEA410C5FEA5C5CF6D14FF0000072
:104EA000014970470000FF070000F87F0EF1020E75
:104EB0002EF0030E5EF8046B364205D4012A43EB54
:104EC000030515F5001F12D8012841EB010C1CF554
:104ED000001F0CD80ED14FEAD17C15F5001F0CEB4A
:104EE0004C0C0CF1020C08BF4CEBD37C04E04FF0EF
:104EF000080C01E04FEAD37C0CEB4C0526FA05F6D2
:104F000006F00706B6F1040C06D20EEB860CBDE8DF
:104F100070404CF0010C6047DFE80CF0090B020216
:104F20004FF000414FF00000A1F5002170BD19467F
:104F30001046012851EB010418BFD4F5001484BFBA
:104F4000002001F0004170BD0808A0F500114FEAF3
:104F50003101704753EA010C17D41CF5801F58BF6C
:104F6000BCF5801F00F106808B4218BF704708BF58
:104F70008242704707D713F5801F58BF11F5801F75
:104F800019D48B4270479B4270471CF5801F08D58F
:104F9000BCF5801FF7D5994218BF704708BF9042F3
:104FA00070474FF4001C1CEB430F38BF1CEB410F44
:104FB00001D2994270470FB40CBC03BCFFF7C1BECD
:104FC00091EA030F10B581F000413FF585AC83F005
:104FD000004300F009B8000010B591EA030F48BF84
:104FE00083F000433FF578AC841A71EB030C07D2D1
:104FF00012198CF0004C43EB0C03001B61EB0C010D
:10500000DFF8A4E14FEA1154A4EB135C1EEA430F4E
:1050100018BF9EEA445F00F0B08023EA6E0352425C
:1050200021EA0451C3EB6E0338BF5B1EDCF1200E96
:1050300025D322FA0CFE10EB0E0043FA0CFE41EBD6
:105040000E01CCF1200E03FA0EFE10EB0E0051F112
:105050000001CCF1200E29D412FA0EF201EB04511A
:10506000BDE8104058BF7047401C1CBFB2F1004F54
:10507000704700280CBF491C20F00100704712EB5C
:10508000020E43EB030218BF4FF0010E4EEA42023C
:10509000ACF1200CDCF11E0E54D943FA0CFE10EBDF
:1050A0000E0051F1FF31CCF11E0ED5D50EF1010EDF
:1050B00012FA0EFE404141EB010101EB445C5FEA54
:1050C0005C5C10D910EBDE7001EB045138BFBEF10F
:1050D000004FBDE8104018BF704700280CBF491CA6
:1050E00020F00100704730D24FEAD42C11F50011A6
:1050F00024F400641BD0B1FA81F20B3AA41AA41E66
:10510000D2F12003914030FA03F31943904001EBB0
:10511000CC71002C01EB0451BDE81040A8BF7047D2
:1051200001F1C0414FF0000001F000417047B0FABA
:1051300080F310FA03F100D110BDE41A173C4805C2
:10514000C90AE4E701EB045110BD491001EB045119
:10515000BDE810404FEA300002E04FF00001704718
:105160004A0008BF0042F8D0B2F5001F28BF7047C0
:1051700001F000414FF0000070479EEA445F07D005
:1051800011EA5E0FBDE8104004BF00210020704707
:10519000BDE8104070B5FFF789FE00BF40DFF63E66
:1051A00083F00041104670470000E0FF43004FEAE3
:1051B000D30C4FEA3C0C43401FBF40070CF1605139
:1051C00013F0FE4F70471CF0006F03D100200CF06D
:1051D000004170470CF0004343EA507010B540EABC
:1051E000CC0000F074FA00BF000000924FEA00010A
:1051F000FFF7AABE4FF000414FF00000A1F50021DB
:105200007047000090EA010F48BF81F0004100F1B3
:10521000E282421A3CBF801A89184FEAD0524FF0FE
:105220007F4C1CEA410FA2EBD15318BF9CEA026FDE
:1052300000F03B804FF0004C4CEA00204CEA01218A
:1052400021FA03FC10EB0C0C1ED202F1FF325FEAD4
:105250001C2040EBC25038BF70471CF07F0F4FEA54
:10526000400C18BFBCF17F4F38BF7047C3F120031B
:10527000994008BF20F00100BCF17F4F38BF704754
:10528000A0F1C04000F069BA4FEA3C00000A40EBD0
:10529000C25028BF1CF0FF0F4FEA400CE6D018BFE9
:1052A000BCF17F4F38BF7047EAE79CEA026F05D038
:1052B00010EA5C0F08BF00F00040704710B500F026
:1052C00006FA00BF64FBBE3E401058BFC0F140402C
:1052D000491058BFC1F140418142EFF3008070474F
:1052E0004FF47F0C1CEAD0121EBF1CEAD11392EAC5
:1052F0000C0F93EA0C0F00F0858090EA010F48BF75
:1053000042F4807240F4000C41F400002CF07F4124
:1053100020F07F4000B58142A2EB03020FF2081C8F
:10532000ACEB504EC0F100009EF800E04FEA4E0E8C
:1053300000FB0EFC38BF49004FEA2C1C02F5FA02B4
:105340000CFB0EF34FEACE1E4FEA112C4FEAC1219F
:105350000EEB635E42EB22420EFB0CFC4FEA1C5349
:1053600000FB03114FEA112C4FEA01310EFB0CFC3C
:105370004FEADC4C00FB0C11C14228BF09184CEB72
:1053800003335DF804EB10EB410143EBC250B2F57F
:105390007C0F38BF704729D512F0F00F1CBF00F109
:1053A000C04000F00040704700818283848586877A
:1053B00088898B8C8D8E8F919293959697999A9CD4
:1053C0009D9FA0A2A3A5A7A8AAACAEB0B2B3B5B743
:1053D000B9BCBEC0C2C5C7C9CCCED1D4D7D9DCDF19
:1053E000E2E6E9ECF0F3F7FAFE0000004FEA400CC9
:1053F0000CF1807CBCF17E4F28BF7047B0F1C040FB
:1054000000F0ABB990EA010F0CEAD11348BF42F4A7
:105410008072624538BF634507D213F47F0F16D000
:1054200080EA010000F00040704710B500F04FF92D
:10543000097EFC3E00F005B880EA010000F0004063
:10544000704780EA010000F0004000F086B912F4D5
:105450007F0F04BF0248704780EA010000F07DB969
:105460000000C07F50EA010C00F113801CF5000F12
:1054700058BFBCF5000F01D48842704707D710F51C
:10548000000F58BF11F5000F15D4884270478942AC
:1054900070471CF5000F04D5BCF5000FF7D581420D
:1054A00070474FF0807C1CEB400F38BF1CEB410F66
:1054B00001D28142704710B500F009F992244900E9
:1054C0004FF000504FF08051FFF7FEBEC10DD1F1FB
:1054D0009E0206DB4FEA002343F0004323FA02F06A
:1054E0007047004207D54FEA4001B1F1FE4F02D2AA
:1054F0004FF00000704710B500F0E9F849922480A1
:10550000002070476FEA20007047000010F0004153
:1055100048BF4042B0FA80F310FA03F2C3F19D0392
:105520000BD051EAC35101EB1220530638BF70472C
:1055300000F1010008BF20F001007047B0FA80F3CD
:1055400010FA03F2C3F19D030AD0D90501EB122032
:10555000530638BF704700F1010008BF20F001007A
:105560007047000050EA010C00F113801CF5000F99
:1055700058BFBCF5000F01D48842704707D710F51B
:10558000000F58BF11F5000F15D4884270478942AB
:1055900070471CF5000F04D5BCF5000FF7D581420C
:1055A00070474FF0807C1CEB400F38BF1CEB410F65
:1055B00001D28142704710B500F089F89224490069
:1055C0004FF000504FF08051FFF77EBE4FF47F0C3C
:1055D0001CEAD0121EBF1CEAD11392EA0C0F93EA08
:1055E0000C0F00F0478090EA010F48BF42F4807230
:1055F0004FF0004C4CEA00204CEA012102EB030280
:10560000A0FB0113A2F50002002918BF43F001031B
:105610005B0028BF4FEA330342EB22425FEA132CC0
:105620004CEBC2502EBFBCEB436FB2F57C0F704702
:105630004FEA036CBCF1004F08BF20F00100B2F547
:105640007C0F38BF70470BD582F0FF0212F5803F08
:10565000C8BF704700F1C040D8BF00F0004070479D
:1056600000F5000C5FEA4C0C48BF7047B0F1C04039
:1056700000F073B890EA010F0CEAD11348BF42F46E
:105680008072624538BF634504D280EA010000F0B1
:105690000040704710B500F01AF800BF8900013EC5
:1056A00000F007B800F009B85FEA410C5FEA1C6C33
:1056B00008D080EA010000F050B85FEA400C5FEAD1
:1056C0001C6CF6D14FF00040A0F5800070470EF141
:1056D000020E2EF0030E5EF8044B244204D44FEA6F
:1056E0004102B2F17F4F11D84FEA4003B3F17F4F2F
:1056F0000CD80ED14FEAD07CB2F17F4F0CEB4C0CA2
:105700000CF1020C08BF4CEBD17C04E04FF0080C0C
:1057100001E04FEAD17C0CEB4C0324FA03F404F0D3
:105720000704B4F1040C06D20EEB840CBDE8104063
:105730004CF0010C6047DFE80CF0070802024FF064
:105740000040A0F5800010BD0846420018BFD2F10D
:10575000807288BF00F0004010BDFF2141EAD050A8
:10576000C005704751EA000C00F113801CF5000FD2
:1057700058BFBCF5000F01D48142704707D711F51F
:10578000000F58BF10F5000F15D4814270478942B1
:1057900070471CF5000F04D5BCF5000FF7D5884203
:1057A00070474FF0807C1CEB410F38BF1CEB400F63
:1057B00001D28842704780EA010081EA000180EA54
:1057C0000100FFF7F8BE000090EA010F48BF81F02A
:1057D00000413FF51EAD421A04D882F00042A0EB12
:1057E000020011444FEAD0524FF07F4C1CEA410FA7
:1057F000A2EBD15318BF9CEA026F4AD04FF0004C85
:105800004CEA00204CEA012121FA03FCB0EB0C0C1D
:105810000FD412F0FE0F36D05FEA4C001DD50012F7
:1058200040EBC25038BF70471CF03F0F18BF7047A5
:105830000BE0A2F101025FEA1C2040EBC25038BF2E
:1058400070471CF07F0F18BF7047C3F120039940C9
:1058500014BF401E20F00100704780084FEA122359
:1058600008BF7047B0FA80FCA2EB0C02CCF1280C08
:1058700060FA0CF093EA122F04BF00EBC25070479D
:105880004FEAC3707047130A5FEADC1008BF704725
:10589000F6E79CEA026F04D010EA5C0F08BF002014
:1058A000704710B5FFF713FF40DFF63E81F0004070
:1058B0007047020001000003020001000004010221
:1058C000030000000000000000000000EC58000889
:1058D00000000020EC0200006C0100085C59000888
:1058E000EC02002044080000C8010008012A0B4C0B
:1058F000204104410B5C7042041A8068095A04215B
:10590000CDCDCCEC400C011AA92C81145566022295
:10591000011203032841265B6655350A320435120D
:10592000010C2357260101112A3335193309144D6F
:10593000F92F112A10180A1503180A130418515ABE
:105940000904013C2D01020304041009060708099B
:0C59500002040608ACA24A041C2918003E
:0400000508000131BD
:00000001FF
