:020000040800F2
:10000000000A0020CD0100084D0D0008F50C000885
:10001000490D000863050008E72000080000000003
:10002000000000000000000000000000691500084A
:10003000A90A000800000000AD0F0008D118000850
:10004000E7010008E7010008E7010008E7010008F0
:10005000E7010008E7010008E7010008E7010008E0
:10006000E7010008E7010008E7010008E7010008D0
:10007000E7010008E7010008E7010008E7010008C0
:10008000E7010008E7010008E7010008E7010008B0
:10009000E7010008E7010008E7010008E7010008A0
:1000A000E7010008E7010008E7010008E701000890
:1000B00035190008E7010008E7010008E70100081A
:1000C000E7010008E7010008E7010008E701000870
:1000D000E70100086D1D0008E7010008E7010008BE
:1000E000E7010008E7010008E7010008E701000850
:1000F000E7010008E7010008E7010008E701000840
:10010000E7010008E7010008E7010008E70100082F
:10011000E7010008E7010008E7010008E70100081F
:10012000E7010008E7010008E7010008E70100080F
:1001300000F002F800F03AF80AA090E8000C8244BF
:100140008344AAF10107DA4501D100F02FF8AFF29C
:10015000090EBAE80F0013F0010F18BFFB1A43F0A5
:1001600001031847482F0000682F0000103A24BFF1
:1001700078C878C1FAD8520724BF30C830C144BF0C
:1001800004680C607047000000230024002500264E
:10019000103A28BF78C1FBD8520728BF30C148BFEA
:1001A0000B6070471FB51FBD10B510BD00F031F8D2
:1001B0001146FFF7F7FF02F073F800F04FF803B4B1
:1001C000FFF7F2FF03BC00F057F800000948804732
:1001D00009480047FEE7FEE7FEE7FEE7FEE7FEE729
:1001E000FEE7FEE7FEE7FEE704480549054A064B41
:1001F00070470000D51800083101000800040020F5
:10020000000A00200006002000060020704770470A
:100210007047754600F02CF8AE4605006946534617
:1002200020F00700854618B020B5FFF7DDFFBDE8D8
:1002300020404FF000064FF000074FF000084FF04D
:10024000000B21F00701AC46ACE8C009ACE8C009DE
:10025000ACE8C009ACE8C0098D46704710B504464B
:10026000AFF300802046BDE81040FFF7A8BF0000B4
:10027000004870479C03002001491820ABBEFEE7F0
:10028000260002007047000008B50121084600F072
:100290009BFE01214FF4017000F0C6FE7E20ADF8F8
:1002A000000000208DF803006946024800F036FC8B
:1002B00008BD00000008014000B591B0444800F0BE
:1002C000B5F94448069044480790002008903C2027
:1002D000099000200A9080200B9040000C90800034
:1002E0000D9020200E9000020F900020109006A983
:1002F000374800F041FA0121354800F08BF9002021
:10030000019001208DF808008DF809004FF460205D
:1003100003900020049006208DF8140001A92D48B8
:100320004C3800F085F84FF4404000F041FE0723C0
:100330000122114627484C3800F0A2F80723022278
:10034000114624484C3800F09BF80723032211463D
:1003500020484C3800F094F80723042211461D4829
:100360004C3800F08DF807230522114619484C3807
:1003700000F086F807230622114616484C3800F094
:100380007FF8012113484C3800F033F8012111485F
:100390004C3800F023F80F484C3800F0CDF800BF7F
:1003A0000C484C3800F03AF80028F9D109484C388C
:1003B00000F0D2F800BF07484C3800F025F80028BC
:1003C000F9D1012103484C3800F0BBF811B000BD51
:1003D000080002404C2401404C00002021B18268FA
:1003E00042F00102826003E0826822F00102826032
:1003F000704721B1826842F48072826003E08268B3
:1004000022F4807282607047014600208A6802F000
:1004100004020AB1012000E00020704701460020DC
:100420008A6802F008020AB1012000E0002070474B
:1004300030B502460020002350680F4C20400D7953
:100440000C6844EA05242043506090680B4C20401F
:10045000D1E902542C434D7944EA4504204390608D
:10046000D06A20F470000C7C641EE4B2234340EA9E
:100470000350D06230BD0000FFFEF0FFFDF7F1FF3A
:10048000F0B504460D4600200021092D11DDE0687D
:10049000A5F10A0606EB4607072606FA07F1884388
:1004A000A5F10A0606EB460603FA06F10843E060EA
:1004B0000CE0206905EB4507072606FA07F188439B
:1004C00005EB450603FA06F108432061072A0FDA17
:1004D000606B561E06EB86071F2606FA07F1884357
:1004E000561E06EB860605FA06F10843606322E015
:1004F0000D2A0FDA206BD61F06EB86071F2606FA99
:1005000007F18843D61F06EB860605FA06F1084375
:10051000206310E0E06AA2F10D0606EB86071F26B5
:1005200006FA07F18843A2F10D0606EB860605FAE6
:1005300006F10843E062F0BD816841F00801816086
:10054000704721B1826842F4A002826003E08268B1
:1005500022F4A00282607047816841F0040181604A
:10056000704700BFFEE7000008B50121202000F021
:100570005BFD0F20ADF8000010208DF80300012076
:100580008DF802006946044800F0C8FA08210248C4
:1005900000F09CFB08BD00000014014070B504464B
:1005A000002501221146174800F094FB00F02CF8BA
:1005B00000220121134800F08DFB00BF1EE004F46F
:1005C0000040B0F5004F05D1012204210D4800F094
:1005D00081FB04E0002204210A4800F07BFB012299
:1005E0000221084800F076FB00F00EF800220221FC
:1005F000044800F06FFB6400681CC5B2102DDEDB00
:1006000070BD0000001401400A2000BF411E081EFA
:10061000FCD1704721B1026842F00102026004E09F
:1006200002684FF6FE731A400260704701684FF689
:10063000FE72114001600021016041608160C16073
:100640004B49884208D14A490839496841F00F01AD
:10065000474A083A51608AE045491431884208D136
:1006600043490839496841F0F001414A083A51606C
:100670007DE03F492831884208D13D490839496821
:1006800041F470613A4A083A516070E038493C31AF
:10069000884208D136490839496841F47041344AE2
:1006A000083A516063E032495031884208D13049FC
:1006B0000839496841F470212D4A083A516056E0E2
:1006C0002B496431884208D129490839496841F4E5
:1006D0007001274A083A516049E02549783188423B
:1006E00008D123490839496841F07061204A083A25
:1006F00051603CE01F49884206D1011F096841F062
:100700000F01021F116032E01A491431884208D1EA
:100710001849091F096841F0F001164A121F1160BB
:1007200025E014492831884208D11249091F096877
:1007300041F470610F4A121F116018E00D493C31FD
:10074000884208D10B49091F096841F47041094AE0
:10075000121F11600BE007495031884207D105494B
:10076000091F096841F47021024A121F1160704785
:10077000080002400804024010B50022026847F653
:10078000F0739A430C6A8B6823430C6923434C69CA
:1007900023438C692343CC6923434C6A23438C6AEB
:1007A00023431A430260CB6843600B6883604B6845
:1007B000C36010BD2DE9F041CCB000270026B04841
:1007C0000078052802D04CB0BDE8F081AD48007833
:1007D000801EC1B2AA4801F0E9FCAB490880A948D3
:1007E0000078401EA649095CA6480078801EA44AED
:1007F000105C01EB0020A5490880A3480088098807
:10080000884200D0DFE74FF000080BE0A04A08F173
:10081000010152F8210002F015FB9E4921F8180051
:1008200008F10108B8F1060FF0DB9B48007800F0F2
:100830000100984988819848007800F00200C8813A
:100840009548007800F0040008829348007800F092
:10085000080048820A2406E08E4810F8140033A9E4
:100860000855601CC4B2642CF6DB002407E08B48FA
:1008700030F8140001A921F81400601CC4B2642CE3
:10088000F5DB7F48C178807801EB002086B27C4898
:100890004179007901EB002087B2F01964287DDAF4
:1008A0000025052229466D1C7D4842547448427833
:1008B00029466D1C7A48425471484078032804D078
:1008C000062825D010286AD14AE0F019642800DDF6
:1008D00079E77806020E2846691CCDB270490A54A1
:1008E000002412E0301933A9085C02122846691C62
:1008F000CDB26B490A54301933A9085C29466A1CE9
:10090000D5B2674A5054601CC4B2BC42EADB82E0F4
:10091000642E00DB57E75A484179007901EB00204B
:1009200001A921F81600564882782846691CCDB2E4
:100930005B490A545248C2782846691CCDB25849CE
:100940000A544F4802792846691CCDB254490A54CA
:100950004B4842792846691CCDB251490A545AE0A5
:10096000F019642800DB2EE7002411E0082000EBDA
:1009700044004349095C072000EB4400404A105CF6
:1009800001EB0020311901AA22F81100601CC4B249
:10099000BC42EBDB3A488278284601E051E019E09E
:1009A000691CCDB23E490A543548C2782846691CB4
:1009B000CDB23B490A54324802792846691CCDB26F
:1009C00037490A542E4842792846691CCDB2344929
:1009D0000A5420E02A4882782846691CCDB2304962
:1009E0000A542748C2782846691CCDB22C490A54BB
:1009F000234802792846691CCDB229490A54204867
:100A000042792846691CCDB225490A548020487095
:100A10000120887000BF00BF2946214801F0C6FBB5
:100A2000194908800846008802122846691CCDB280
:100A30001B490A54144802782946681CC5B2184854
:100A400042544FF40061174800F040F92946144819
:100A500001F0DCFC022001F013FC4FF400611148AE
:100A600000F036F9002407E001A830F814000B4923
:100A700021F81400601CC4B2642CF5DB00BFA2E6B0
:100A80005A010020350000204200002040000020D4
:100A9000F00100200C02002045000020D4020020BC
:100AA000C4000020000801407047000008B5012183
:100AB000802000F0B9FA4FF47060ADF80000042017
:100AC0008DF8030001208DF802006946014800F00E
:100AD00025F808BD0018014010B500F003F8FFF735
:100AE000E5FF10BD08B50121202000F09DFA4FF46C
:100AF0007061094800F0EAF84FF47060ADF800004A
:100B000010208DF8030001208DF80200694602488C
:100B100000F004F808BD0000001401402DE9F04188
:100B2000024600250026002000230024002791F81B
:100B300003C00CF00F0591F803C00CF0100CBCF1D1
:100B4000000F03D091F802C04CEA050591F800C0EF
:100B5000BCF1000F31D0146800202BE04FF0010CE5
:100B60000CFA00F3B1F800C00CEA03069E4220D153
:100B700083004FF00F0C0CFA03F7BC4305FA03FC9B
:100B80004CEA040491F803C0BCF1280F06D14FF0E1
:100B9000010C0CFA00FCC2F814C00AE091F803C082
:100BA000BCF1480F05D14FF0010C0CFA00FCC2F863
:100BB00010C0401C0828D1D31460B1F800C0BCF1AB
:100BC000FF0F34DD546800202EE000F1080C4FF0D8
:100BD000010808FA0CF3B1F800C00CEA03069E42C3
:100BE00021D183004FF00F0C0CFA03F7BC4305FA38
:100BF00003FC4CEA040491F803C0BCF1280F05D1B2
:100C000000F1080C08FA0CF8C2F8148091F803C03F
:100C1000BCF1480F07D100F1080C4FF0010808FAA9
:100C20000CF8C2F81080401C0828CED35460BDE8F0
:100C3000F0810000F0B50A460023002400210025C1
:100C400000F00046B6F1004F02D11D4EF16901E0FF
:100C50001B4E7168C0F3034583B200F44016B6F52D
:100C6000401F08D121F07061154E766826F070663D
:100C7000134F7E6012E000F48016B6F5801F06D197
:100C8000032606FA05F4A14341F0706106E0460D23
:100C9000360103FA06F6B14341F0706122B1460D08
:100CA000360103FA06F6314300F00046B6F1004F74
:100CB00002D1034EF16101E0014E7160F0BD000010
:100CC000000001400146886880B27047416170476A
:100CD000016170470AB1016100E0416170470000A5
:100CE00010B50348FFF7EEFF0446200A10BD0000D0
:100CF0000018014000BFFEE708B50121082000F000
:100D000093F94FF40070ADF8000003208DF8020055
:100D100010208DF8030069460948FFF7FFFE012106
:100D2000402000F081F90320ADF800008DF80200AA
:100D300010208DF8030069460248FFF7EFFE08BD5A
:100D4000000C01400018014000BFFEE7704708B5E5
:100D500000214FF0006000F05FF84FF4407000F0A9
:100D600051F825208DF8000001208DF801008DF844
:100D70000300684600F00EF81C208DF800000220E9
:100D80008DF8010001208DF80300684600F002F89C
:100D900008BD000070B5002100230F22C47804B301
:100DA000154C246804F4E064C4F5E064210AC1F140
:100DB0000403CA40447804FA03F1847814402143C0
:100DC00009010E4C0678A155047804F01F05012492
:100DD000AC4005786D11AD0005F1E025C5F8004186
:100DE00009E0047804F01F050124AC40044D0678A6
:100DF000761145F8264070BD0CED00E000E400E0FF
:100E000080E100E002490143024A1160704700009E
:100E10000000FA050CED00E0024A0A400243024BD2
:100E20001A60704780FFFF1F08ED00E010B588B022
:100E30000446214804800121022000F0D5F8012158
:100E4000112000F0F1F801211C48FFF7F3FE4020CB
:100E5000ADF81C0018208DF81F0003208DF81E002F
:100E600007A91748FFF75AFE601E80B2ADF81400BC
:100E700041F61F40ADF810000020ADF81600ADF8A7
:100E8000120004A90F4800F0F7FE6020ADF8000042
:100E90000120ADF802000020ADF8080069460948BD
:100EA00000F090FE0821074800F0D8FE0121054817
:100EB00000F06EFD08B010BD2E000020000C1A00DE
:100EC000001001400004004010B5044605480088A9
:100ED000844201DD034804882146034800F0C7FE30
:100EE00010BD00002E0000200004004010B588B0A6
:100EF0000446224804800121042000F075F80121F5
:100F0000212000F091F801210803FFF793FE4FF430
:100F10008050ADF81C0018208DF81F0003208DF8BC
:100F20001E0007A91648FFF7F9FD601E80B2ADF854
:100F3000140041F61F40ADF810000020ADF8160077
:100F4000ADF8120004A90F4800F096FE6020ADF83D
:100F500000000120ADF802000020ADF8080069464D
:100F6000084800F02FFE0821064800F077FE012116
:100F7000044800F00DFD08B010BD00002E00002058
:100F8000001401400008004010B5044605480088E0
:100F9000844201DD034804882146034800F067FECF
:100FA00010BD00002E000020000800407047000027
:100FB00001460020034A506820F440400843506036
:100FC000704700000010024029B1064A52690243EE
:100FD000044B5A6104E0034A52698243014B5A614F
:100FE000704700000010024029B1064AD26902434E
:100FF000044BDA6104E0034AD2698243014BDA61AF
:10100000704700000010024029B1064A12690243ED
:10101000044B1A6104E0034A12698243014B1A61CE
:10102000704700000010024029B1064A926902434D
:10103000044B9A6104E0034A92698243014B9A612E
:10104000704700000010024029B1064AD2680243EE
:10105000044BDA6004E0034AD2688243014BDA6051
:10106000704700000010024010B500F029F84FF45E
:10107000803000F0E7F800F043F90446012C1ED15F
:10108000002000F0D3F8002000F00EF9A00200F0DC
:10109000FFF84FF4E011200400F018F9012000F0EF
:1010A0000FF900BF392000F09BF80028FAD0022089
:1010B00000F01AF900BF00F0B1F80828FBD110BD0C
:1010C0000F48006840F001000D490860084640687C
:1010D0000C4908400A494860084600680A49084027
:1010E000074908600846006820F480200860084628
:1010F000406820F4FE0048604FF41F00886070478D
:10110000001002400000FFF8FFFFF6FE30B500219E
:101110000022002400232D4D6D6805F00C0121B143
:10112000042905D0082923D105E0294D056022E0D6
:10113000274D05601FE0254D6D6805F47012234DA5
:101140006D6805F48034022505EB92421CB9214DEF
:10115000554305600BE01D4D6D6805F400351DB16C
:101160001C4D5543056002E0194D5543056002E0F2
:10117000174D056000BF00BF144D6D6805F0F0010C
:101180000909154D6B5C0568DD4045600F4D6D68C4
:1011900005F4E061090A104D6B5C4568DD4085602F
:1011A0000A4D6D6805F46051C90A0B4D6B5C4568CA
:1011B000DD40C560054D6D6805F44041890B074D64
:1011C0006B5CC568B5FBF3F5056130BD00100240EE
:1011D00000127A0000093D001400002024000020C5
:1011E00010B501460022002300204A11012A02D135
:1011F000094C236806E0022A02D1074C236A01E069
:10120000054C636A01F01F02012494401C400CB19C
:10121000012000E0002010BD00100240024840689C
:1012200000F00C0070470000001002400146002052
:10123000034A506820F0F0000843506070470000F7
:10124000001002401149096821F480310F4A1160F1
:101250001146096821F480211160B0F5803F03D068
:10126000B0F5802F0ED106E00849096841F48031BD
:10127000064A116007E00549096841F4A021034AC4
:10128000116000E000BF00BF704700000010024086
:1012900001460020034A506820F4E0600843506093
:1012A000704700000010024001460020034A5068C9
:1012B00020F4605040EAC1005060704700100240C6
:1012C00001490866704700000000424202460020C3
:1012D000044B586820F47C1042EA01031843014B88
:1012E000586070470010024001460020034A5068D1
:1012F00020F00300084350607047000000100240D7
:1013000038B5002000900024002500BF3120FFF7F1
:1013100067FF05460098401C00900098B0F5A06F4C
:1013200001D0002DF2D03120FFF75AFF08B101247F
:1013300000E00024204638BD2DE9F0478AB0814600
:101340008A4600203249086000240EE004EB440085
:10135000304901EB8001A9F1010031F810002C495E
:10136000096808442A490860641C0A2CEEDBBAF1BB
:10137000010F2DD12648006801F0BFFA0746002270
:10138000254B01F009FB05460022244B01F030F902
:101390000022234BCDE9000101F02AF94FF055322C
:1013A000204BCDE9020101F0F7FA00221E4BCDE9F6
:1013B000040101F0F1FA1D4A1D4BCDE9060101F0CF
:1013C00017F9CDE9080101F02DF80AB0BDE8F08762
:1013D0000F48006801F091FA054600220E4B01F01B
:1013E000DBFA00220D4BCDE9040101F001F90022E6
:1013F0000B4BCDE9060101F0FBF84FF05532094BDC
:10140000CDE9080101F0C8FA074601F00BF8DCE766
:10141000280000204C000020000004400000244070
:101420000000B0405555114000408F40D7A3703D9B
:101430000A9F684021B1028842F04002028004E025
:1014400002884FF6BF731A400280704710B500F053
:101450001FF810BD10B50022028802F441520B881B
:101460004C8823438C882343CC8823430C89234313
:101470004C8923438C892343CC8923431A4302801C
:10148000838B4FF2FF74234083830B8A038210BD4A
:1014900000B587B001218803FFF7A6FD01210846AA
:1014A000FFF7C2FD01211020FFF7BEFD46F220002C
:1014B000ADF8040003208DF8060018208DF8070011
:1014C00001A92648FFF72AFB1020ADF804000320ED
:1014D0008DF8060010208DF8070001A92048FFF7BD
:1014E0001DFB10211E48FFF7F3FB4FF48050ADF8B1
:1014F000040003208DF8060010208DF8070001A9D4
:101500001648FFF70BFB10211448FFF7E1FB002002
:10151000ADF808004FF48270ADF80A000020ADF875
:101520000C000220ADF80E000120ADF810004002C2
:10153000ADF812001020ADF814000020ADF8160030
:101540000720ADF8180002A90648FFF783FF012124
:101550000448FFF76FFF07B000BD0000000C01401A
:101560000010014000380040704700002DE9F74F9F
:1015700088B08B4692460021089801F097FC01D272
:1015800000200890BAF1000F03D0BAF1010F18D172
:101590000BE0089801F01EFC0446524A524B01F041
:1015A000F9FA01D2514808900CE0089801F012FCB9
:1015B00004464F4A4F4B01F0EDFA01D24E480890D5
:1015C00000E000BF00BFBAF1000F03D0BAF1010F75
:1015D00055D119E0089801F0FDFB00224FF080433F
:1015E000CDE9060101F004F806460022434B00F065
:1015F000FFFF04460022424B01F0CEF9804601F085
:101600004FF9404908803EE0089801F0E3FB0446AA
:101610003D4A3E4B01F084F903D800203949088047
:101620002CE0089801F0D6FB0446374A374B01F00E
:10163000E7FA0646364A374B00F0DAFF00222A4B1B
:101640008433CDE9000101F0A7F900224FF0804377
:10165000CDE9020100F0CCFF0022284BCDE90401C6
:1016600000F0C6FF0022264BCDE9060101F094F9F7
:10167000804601F015F92349088004E000BF0020EE
:101680002049088000BF00BFBBF1010F09D0BBF1AA
:10169000020F0DD0BBF1030F11D0BBF1040F1CD111
:1016A00014E01849098801F50040FEF777FF15E0BE
:1016B0001449098801F51040FEF770FF0EE011494A
:1016C000098801F52040FEF769FF07E00D49098808
:1016D00001F53040FEF762FF00E000BF00BF0BB035
:1016E000BDE8F08F736891ED7CFF2340E7FB1F415D
:1016F00039B4C876BEFF3340F4FD9F41000014406A
:101700000000B0402C000020016A6AD95ADF0F4067
:10171000D4601A868F18304070B504460D4615B156
:10172000012D48D123E0012C06D0022C0AD0032C35
:101730000ED0042C18D111E04FF480711F48FFF730
:10174000C5FA12E04FF400711C48FFF7BFFA0CE035
:101750004FF480611948FFF7B9FA06E04FF40061D1
:101760001648FFF7B3FA00E000BF00BF24E0012CE9
:1017700006D0022C0AD0032C0ED0042C18D111E074
:101780004FF480710D48FFF7A3FA12E04FF4007197
:101790000A48FFF79DFA0CE04FF480610748FFF715
:1017A00097FA06E04FF400610448FFF791FA00E071
:1017B00000BF00BF00E000BF00BF70BD00140140CB
:1017C00010B500F001F810BD0CB50020019000909C
:1017D0003348006840F480303149086000BF304829
:1017E000006800F4003000900198401C01900098BF
:1017F00018B90198B0F5A06FF1D12948006800F43C
:10180000003010B10120009001E00020009000980D
:10181000012843D12348006840F0100021490860A6
:101820000846006820F0030008600846006840F0A1
:10183000020008601A484068194948600846406834
:1018400048600846406840F4806048600846406848
:1018500020F47C1048600846406840F4E810486076
:101860000846006840F08070086000BF0C480068BF
:1018700000F000700028F9D00948406820F003000B
:10188000074948600846406840F00200486000BFD1
:101890000348406800F00C000828F9D10CBD000096
:1018A0000010024000200240042808D14FF0E0213F
:1018B000096941F004014FF0E022116107E04FF0A7
:1018C000E021096921F004014FF0E0221161704725
:1018D0007047000010B51348006840F0010011493E
:1018E000086008464068104908400E4948600846AC
:1018F00000680E4908400B4908600846006820F45B
:10190000802008600846406820F4FE0048604FF4DC
:101910001F008860FFF754FF4FF000600449086023
:1019200010BD0000001002400000FFF8FFFFF6FEAF
:1019300008ED00E010B50121880700F029F9B8B1E1
:101940000121880700F021F801200A4908700A489F
:10195000007801280CD100200749087001200749B0
:101960000870FEF727FF002005490870034908703A
:1019700010BD00003C0000203D0000203E00002083
:1019800035000020CA4302827047CA430282704772
:1019900021B1028842F00102028004E002884FF681
:1019A000FE731A400280704710B5044668488442AE
:1019B00008D10121C014FFF747FB0021E014FFF715
:1019C00043FBC4E0B4F1804F08D101210846FFF782
:1019D0001BFB00210120FFF717FBB8E05D488442A4
:1019E00008D101210220FFF70FFB00210220FFF7A1
:1019F0000BFBACE05848844208D101210420FFF7DA
:101A000003FB00210420FFF7FFFAA0E053488442C3
:101A100008D101210820FFF7F7FA00210820FFF77D
:101A2000F3FA94E04E48844208D101211020FFF7D8
:101A3000EBFA00211020FFF7E7FA88E049488442DA
:101A400008D101212020FFF7DFFA00212020FFF735
:101A5000DBFA7CE04448844208D101214014FFF7BE
:101A6000F3FA00216014FFF7EFFA70E03F48844278
:101A700009D10121C804FFF7E7FA00214FF4002043
:101A8000FFF7E2FA63E03A48844209D101210805F0
:101A9000FFF7DAFA00214FF48010FFF7D5FA56E08D
:101AA0003448844209D101214805FFF7CDFA0021CD
:101AB0004FF40010FFF7C8FA49E02F48844208D1DC
:101AC00001214020FFF7A0FA00214020FFF79CFAF7
:101AD0003DE02A48844208D101218020FFF794FA92
:101AE00000218020FFF790FA31E02548844208D198
:101AF00001218015FFF788FA0021A015FFF784FA6D
:101B000025E02048844209D101210804FFF79CFA0E
:101B100000214FF48030FFF797FA18E01A4884420A
:101B200009D101214804FFF78FFA00214FF400305A
:101B3000FFF78AFA0BE01548844208D10121880496
:101B4000FFF782FA00214FF48020FFF77DFA10BDE5
:101B5000002C01400004004000080040000C004040
:101B6000001000400014004000340140004C0140CF
:101B7000005001400054014000180040001C00408B
:101B80000020004000400140004401400048014066
:101B900030B50246002000230024158A05EA01031F
:101BA000958905EA010413B10CB1012000E0002081
:101BB00030BD1AB183890B43838102E083898B4353
:101BC0008381704770B5002400220023058C4FF6F6
:101BD000FE7635400584028C8388048B4FF68F7522
:101BE0002C40B51E2C400D882C43751E2A400D89B3
:101BF0002A434D882A43144DA8420BD0134DA842C6
:101C000008D0134DA84205D0124DA84202D0124D63
:101C1000A84213D14FF6F7752A404D892A434FF653
:101C2000FB752A408D882A434FF6FF652B404FF6FF
:101C3000FF552B408D892B43CD892B438380048313
:101C4000CD888586028470BD002C0140003401409F
:101C50000040014000440140004801400A46002184
:101C6000018B4FF6F773194011430183704781864A
:101C70007047818470470000002202881D4B984203
:101C80000ED01D4B98420BD0B0F1804F08D01B4BAB
:101C9000984205D01A4B984202D01A4B984204D170
:101CA0004FF68F731A404B881A43174B984207D050
:101CB000164B984204D04FF6FF431A40CB881A4384
:101CC00002808B8883850B8803850A4B98420BD052
:101CD000094B984208D00E4B984205D00D4B9842C4
:101CE00002D00D4B984201D10B7A038601238382E7
:101CF00070470000002C0140003401400004004007
:101D000000080040000C004000100040001400409B
:101D10000040014000440140004801400EB501214F
:101D20000846FFF761F94FF08040FFF73DFE1420B1
:101D3000ADF8040041F61F40ADF800000020ADF8FA
:101D40000600ADF8020069464FF08040FFF794FFAF
:101D500001218807FFF716FE012211469007FFF7C1
:101D600028FF01218807FFF713FE0EBD10B50821DB
:101D7000314800F0E7F818B108212F4800F079F851
:101D800040F225512C4800F0EAF810B32B480078B7
:101D900000B110BD00214FF08040FFF7F9FD002198
:101DA0004FF08040FFF765FF234800F093F9244986
:101DB000244A127888542448007858B100202249D7
:101DC00008700120214908701E480078401C1D49F8
:101DD000087007E01D48007820B11A480078401CC0
:101DE0001849087040F22771134800F0B8F8E8B1BC
:101DF000174800781749097888420BDA14480278A6
:101E00000078401C124B18701348815C0A4800F09F
:101E100066F90BE000200E49087001200F490860A8
:101E2000002240F22771044800F0C3F8012188071E
:101E3000FFF7AEFD00BFACE7003801403E000020D8
:101E40005A010020350000203C0000203D00002009
:101E50003400002036000020C4000020AC012142E4
:101E600001F40072B2F5007F00D100BFCA430280C6
:101E7000704710B50022002340F66A14A14200D139
:101E800000BF0A1201249440A3B2DC43048010BDB9
:101E900021B1828942F40052828104E082894DF6A8
:101EA000FF731A408281704710B50446204884426F
:101EB00009D101218803FFF7C7F800214FF48040C2
:101EC000FFF7C2F832E01B48844209D101214804DF
:101ED000FFF79AF800214FF40030FFF795F825E05E
:101EE0001548844209D101218804FFF78DF80021AB
:101EF0004FF48020FFF788F818E01048844209D199
:101F00000121C804FFF780F800214FF40020FFF7FB
:101F10007BF80BE00A48844208D101210805FFF74D
:101F200073F800214FF48010FFF76EF810BD000029
:101F3000003801400044004000480040004C004090
:101F40000050004002460020B1F5007F00D100BFE4
:101F500013880B400BB1012000E00020704770B5E2
:101F60000246002400230025002040F66A16B142F4
:101F700000D100BFC1F3421501F01F03012606FA8C
:101F800003F3012D02D19689334006E0022D02D1E0
:101F9000168A334001E0968A33400C12012606FA75
:101FA00004F41688344013B10CB1012000E0002085
:101FB00070BDF0B50346002400260025002040F641
:101FC0006A17B94200D100BF1846C1F3421401F0AC
:101FD0001F06012707FA06F5012C01D10C3004E099
:101FE000022C01D1103000E014301AB107682F43E1
:101FF000076002E00768AF430760F0BD2DE9F047D6
:1020000086B005460E460024A24600BFA146002722
:10201000B08900B100BF2F462C8A4CF6FF700440F7
:10202000F08804432C82AC894EF6F3100440B0884B
:1020300031890843718908430443AC81AC8A4FF667
:10204000FF400440B0890443AC8201A8FFF75EF86A
:102050001F48874202D1DDF810A001E0DDF80CA096
:10206000A88900F4004040B10AEBCA0000EB0A1056
:1020700031684900B0FBF1F807E00AEBCA0000EB59
:102080000A1031688900B0FBF1F86420B8FBF0F069
:1020900004012009642101FB1089A88900F4004093
:1020A00040B1322000EBC900B0FBF1F000F00700B6
:1020B000044308E0322000EB09106421B0FBF1F08A
:1020C00000F00F0004432C8106B0BDE8F08700004B
:1020D0000038014001468888C0F308007047C1F30A
:1020E00008028280704700BFFEE7000000B585B09F
:1020F00001210D20FEF798FF01218803FEF794FFD0
:102100004FF40070ADF8100003208DF81200182075
:102110008DF8130004A92248FEF700FD4FF48060FB
:10212000ADF8100004208DF8130004A91C48FEF738
:10213000F5FC4FF40060ADF8100010208DF813008E
:1021400003208DF8120004A91548FEF7E7FC0120D2
:10215000144908601448FFF7A7FE4FF4165000908A
:102160000020ADF80400ADF80600ADF80800ADF8A9
:102170000C000C20ADF80A0069460B48FFF73EFF43
:1021800040210948FFF76CFE012240F22551064824
:10219000FFF70FFF01210448FFF77AFE05B000BDED
:1021A00000080140AC0121420038014070B50246F0
:1021B0000B464FF6FF710024002500BF11E012F816
:1021C000010B4140002509E001F0010020B14AF275
:1021D000010080EA510100E049086D1C082DF3DB85
:1021E000641C9C42EBDB080240EA112080B270BD07
:1021F00010B56FF00400FFF757FB0A4800680A4962
:10220000B0FBF1F0094908700846007800EB400186
:10221000C1EBC0104FF6FF7101EAC000044908800D
:1022200010BD00000000002000127A0030000020E5
:10223000320000200146114A12884A434FF0E02341
:102240005A6100229A611A46126942F001021A612B
:1022500000BF4FF0E022106900F001021AB100F453
:102260008032002AF5D04FF0E022126922F00102FC
:102270004FF0E0231A6100229A617047320000207B
:10228000002107E042F6E06100BF0A1EA1F1010350
:1022900099B2FAD1021EA0F1010398B2F2D17047AF
:1022A000FEF7E2FEFEF753FDFFF7A2FFFDF7ECFF9E
:1022B000FEF702F8FEF710FCFEF71EFDFFF7C6F86A
:1022C000FEF752F9FFF712FFFFF728FD7CE0002030
:1022D0003E4908603E4908600FE03D4908783D49A5
:1022E0000978FFF729F83C49394A126841F8220079
:1022F00037480068401C36490860354800680628A1
:10230000EBDD35494868354900F004FE3449086082
:10231000FEF7E6FC334908703349888CFEF786FDEA
:102320003149C88CFEF7D0FD2F49088DFEF7DEFD40
:102330002D49488DFEF728FE2B49088800F0A2FDA4
:1023400004462448027801212046FFF70FF9264968
:10235000488800F097FD04461E4802780221204676
:10236000FFF704F92049888800F08CFD04461948DD
:10237000027803212046FFF7F9F81B49C88800F0CE
:1023800081FD04461348027804212046FFF7EEF849
:102390001548017F0120FFF7BFF91348817F032013
:1023A000FFF7BAF9104890F820100220FFF7B4F9AF
:1023B0000D4890F822100420FFF7AEF96420FFF7D3
:1023C00039FF01200149086081E70000A481214212
:1023D0004800002044000020F00100200000A0413F
:1023E0003800002045000020D402002010B504462B
:1023F00000BF40210448FFF7A5FD0028F9D0214681
:102400000148FFF76CFE10BD0038014070B505466D
:102410000E46002403E0285DFFF7E8FF641CB44289
:10242000F9DB70BD21F00042A2F16052B2F5801FCD
:1024300001F0004328BFD2F17F6C0BD95FEA001C8A
:1024400043EAC20242EB507018BF704728BF20F029
:1024500001007047B2F5801FBCBF184670474FEAB5
:10246000410C1CF5001F02D2084600F01ABE70B5E0
:1024700000F03CFB00000089FFF7F6BF4FF0004082
:10248000A0F580007047000010B591EA030F48BF27
:1024900083F0004300F1BC83841A71EB030C05D276
:1024A000121943EB0C03001B61EB0C01DFF824E174
:1024B0004FEA1154A4EB135C1EEA430F18BF9EEAC7
:1024C000445F73D023EA0E03DCF1200E21EA0451AD
:1024D00043F4801332D322FA0CFE10EB0E0023FAE1
:1024E0000CFE41EB0E01CCF1200E03FA0EFE10EBB8
:1024F0000E0051F10001B1F5801FCCF1200E32D257
:1025000001EB045112FA0EF2BDE8104058BF7047BB
:10251000401C38BF5FEA420218BF7047002814BF52
:1025200020F0010041F100014FEA410313F5001FC3
:1025300038BF7047A1F1C04100F026BB012A43EB30
:102540000302ACF1200CDCF11F0E32BF4FF0000E85
:1025500023FA0CF310EB030041EB0451B4EB115FD1
:10256000D0D0A1EB045101F5801149085FEA300099
:1025700001EB04510ED350F1000038BF12FA0EFEE9
:1025800008D1BDE81040C9E7401C38BF5FEA4202ED
:10259000CAD1C3E7BDE810404FEA410313F5001F5D
:1025A00038BF7047A1F1C04100F0EEBA9EEA445F27
:1025B00008D011EA5E0FBDE8104004BF01F00041F1
:1025C00000207047BDE8104070B500F08FFA00BFE2
:1025D00064FBBE3E0000E0FF491058BFC1F140411E
:1025E0005B1058BFC3F140438B42EFF3008070474C
:1025F0002DE9C04130B4DFF8A0C23CEA111418BF85
:102600003CEA131400F0EC8081EA03051CEA111483
:1026100044EAD57418BF1CEA131500F0C780A4EB78
:1026200005044FF0004545EAC12145EAC32341EACC
:10263000505143EA525304F17F74994204F5003437
:102640004FEAC0204FEAC22208BF904200F09C80AF
:102650004FEA13650FF24016765D4FEA134506FB0D
:1026600005F7C7F1807706FB07F74FEAD737A7FBD7
:1026700003687642C8F58038A7FB06CE38BFA8F1BC
:10268000010807FB08E64FF0000EA6FB028CE6FBF4
:1026900003CEDCF1000CCEF1004E38BFAEF1010EDE
:1026A000A6FB0C584FF000074FF00005E6FB0E8725
:1026B000A1FB08C6A0FB07CE16EB0E0645F10005F0
:1026C000E1FB076515F1E04E7EBFA4F580345FEABB
:1026D00046066D4116F1800745F100054FEA1727C0
:1026E0004FEA066647EA0567A6F1DE46B6F1805F67
:1026F0004FEA15251FD9384624F0010C05EBC471AB
:10270000BCF1FE6F01EB0C1102D8F0BCBDE80081FA
:1027100024425CBF01F5801E9EEAC47F02D4F0BC57
:10272000BDE80081244238D4F0BCA1F1C041BDE82D
:10273000004100F029BA4FEAD22242EA43524FEA5E
:10274000D323A7FB02864FEAD02040EA415007FB83
:1027500003661EEA0E0F4FEAD12105FB026658BF41
:10276000A6EB0056B6EB00564FEA520E4EEAC37E79
:1027700018EB0E0E56EB530EBDD518EB02085E415A
:102780007F1C55F10005B6E74FF480154FF00007A8
:102790004FF000064FF00008ADE7F0BC4FF000002E
:1027A00001F1C04101F00041BDE8008111EA0C1FB8
:1027B0000CEA131500D00CE013EA0C1F00F0258082
:1027C0004FF00000F0BC81EA030101F00041BDE8D8
:1027D0000081F0BCBDE8004181EA030100F0D4B9FA
:1027E000F0BCBDE8004170B500F080F9097EFC3E08
:1027F00000F007B881EA03014FF0000001F000414A
:10280000704781EA030100F0BFB9F0BCBDE80041A8
:102810004FF0000021497047FFFDFBF9F7F5F4F296
:10282000F0EEEDEBE9E8E6E4E3E1E0DEDDDBDAD86B
:10283000D7D5D4D3D1D0CFCDCCCBCAC8C7C6C5C4C9
:10284000C2C1C0BFBEBDBCBBBAB9B8B7B6B5B4B3E0
:10285000B2B1B0AFAEADACABAAA9A8A8A7A6A5A4CB
:10286000A3A3A2A1A09F9F9E9D9C9C9B9A9999988F
:102870009797969595949393929191908F8F8E8E32
:102880008D8C8C8B8B8A89898888878786858584BF
:1028900084838382828181800000FF070000F87FAB
:1028A0004FEA1153A3F58063D3F11E03A8BFD3F100
:1028B000200C08DB4FF0004242EAC12252EA50529B
:1028C00032FA03F0704709420BD4102BC4BF00202A
:1028D000704703F5787CBCF1FF3F05D04FF0FF3027
:1028E00070474FF00000704770B500F0FFF800BF70
:1028F0004992248000207047F0E7B0FA80F310FA84
:1029000003F10AD0C3F11D0303F580634FEA415080
:102910004FEA035202EBD12170474FF0000070479D
:1029200051EA030C17D41CF5801F58BFBCF5801F5B
:1029300000F10680994218BF704708BF9042704767
:1029400007D711F5801F58BF13F5801F19D499427E
:102950007047894270471CF5801F08D5BCF5801F61
:10296000F7D58B4218BF704708BF824270474FF4BB
:10297000001C1CEB410F38BF1CEB430F01D28B42F4
:10298000704770B500F0B2F8922449004FF0005142
:102990004FF08053FFF720BEDFF848C170B51CEA46
:1029A000111E1EBF1CEA13159EEA0C0F95EA0C0FB0
:1029B00000F06F8081EA030423EA4C134EEAD47ED0
:1029C00021EA4C1141F4801143F48013AE44A1FB81
:1029D000024CA0FB0365AEF17F7E361955EB0C056A
:1029E000A1FB034C4CF10003A0FB021C16EB0C06F0
:1029F000654153F10003094218BF46F0010613F484
:102A0000007F0BD14FEA03314FEA0530340341EA2E
:102A1000155140EA16506FF003020AE04FEAC32155
:102A20004FEAC520F40241EA555140EA56506FF092
:102A3000020202EB2E4201EB025585EACE710AD06A
:102A40005FEA440C18BF24F0004450F1000041F14B
:102A5000000120EAD47040F2FE7C624500D270BDD5
:102A6000A84214BF4FF080444FF04044002E08BFEE
:102A70000024BEF1806FA8BFA1F1C041BDE8704045
:102A800080F282804FF0000001F1C04101F000416E
:102A900070479EEA0C0F0CEA131518BF95EA0C0F4D
:102AA00006D04FF0000081EA030E0EF0004170BD29
:102AB00000F01CF88900013E00F007B800F009B8EA
:102AC0004FEA430C5FEA5C5C08D081EA030100F046
:102AD0005BB84FEA410C5FEA5C5CF6D14FF0000056
:102AE000014970470000FF070000F87F0EF1020E59
:102AF0002EF0030E5EF8046B364205D4012A43EB38
:102B0000030515F5001F12D8012841EB010C1CF537
:102B1000001F0CD80ED14FEAD17C15F5001F0CEB2D
:102B20004C0C0CF1020C08BF4CEBD37C04E04FF0D2
:102B3000080C01E04FEAD37C0CEB4C0526FA05F6B5
:102B400006F00706B6F1040C06D20EEB860CBDE8C3
:102B500070404CF0010C6047DFE80CF0090B0202FA
:102B60004FF000414FF00000A1F5002170BD194663
:102B70001046012851EB010418BFD4F5001484BF9E
:102B8000002001F0004170BD0808A0F500114FEAD7
:102B90003101704753EA010C17D41CF5801F58BF50
:102BA000BCF5801F00F106808B4218BF704708BF3C
:102BB0008242704707D713F5801F58BF11F5801F59
:102BC00019D48B4270479B4270471CF5801F08D573
:102BD000BCF5801FF7D5994218BF704708BF9042D7
:102BE00070474FF4001C1CEB430F38BF1CEB410F28
:102BF00001D2994270470FB40CBC03BCFFF7C1BEB1
:102C000010B591EA030F48BF83F000433FF544AC91
:102C1000841A71EB030C07D212198CF0004C43EBB1
:102C20000C03001B61EB0C01DFF8A4E14FEA115427
:102C3000A4EB135C1EEA430F18BF9EEA445F00F04A
:102C4000B08023EA6E03524221EA0451C3EB6E03C3
:102C500038BF5B1EDCF1200E25D322FA0CFE10EBF0
:102C60000E0043FA0CFE41EB0E01CCF1200E03FAEC
:102C70000EFE10EB0E0051F10001CCF1200E29D414
:102C800012FA0EF201EB0451BDE8104058BF704734
:102C9000401C1CBFB2F1004F704700280CBF491CFC
:102CA00020F00100704712EB020E43EB030218BF45
:102CB0004FF0010E4EEA4202ACF1200CDCF11E0E88
:102CC00054D943FA0CFE10EB0E0051F1FF31CCF158
:102CD0001E0ED5D50EF1010E12FA0EFE404141EB4B
:102CE000010101EB445C5FEA5C5C10D910EBDE7023
:102CF00001EB045138BFBEF1004FBDE8104018BFD2
:102D0000704700280CBF491C20F00100704730D2EA
:102D10004FEAD42C11F5001124F400641BD0B1FA51
:102D200081F20B3AA41AA41ED2F12003914030FA8A
:102D300003F31943904001EBCC71002C01EB0451DB
:102D4000BDE81040A8BF704701F1C0414FF000003E
:102D500001F000417047B0FA80F310FA03F100D19E
:102D600010BDE41A173C4805C90AE4E701EB045119
:102D700010BD491001EB0451BDE810404FEA30008E
:102D800002E04FF0000170474A0008BF0042F8D04F
:102D9000B2F5001F28BF704701F000414FF000005E
:102DA00070479EEA445F07D011EA5E0FBDE810400D
:102DB00004BF002100207047BDE8104070B5FFF748
:102DC00095FE00BF40DFF63E83F00041104670479D
:102DD0000000E0FF43004FEAD30C4FEA3C0C4340B5
:102DE0001FBF40070CF1605113F0FE4F70471CF0FD
:102DF000006F03D100200CF0004170470CF000433D
:102E000043EA507010B540EACC0000F004F900BF6E
:102E1000000000924FEA0001FFF7B6BE4FF00041FC
:102E20004FF00000A1F500217047401058BFC0F1DD
:102E30004040491058BFC1F140418142EFF300804A
:102E400070470000C10DD1F19E0206DB4FEA00235E
:102E500043F0004323FA02F07047004207D54FEADF
:102E60004001B1F1FE4F02D24FF00000704710B5A3
:102E700000F0D1F849922480002070476FEA2000CA
:102E800070470000B0FA80F310FA03F2C3F19D031B
:102E90000AD0D90501EB1220530638BF704700F164
:102EA000010008BF20F001007047000050EA010C4B
:102EB00000F113801CF5000F58BFBCF5000F01D4C2
:102EC0008842704707D710F5000F58BF11F5000F63
:102ED00015D488427047894270471CF5000F04D50D
:102EE000BCF5000FF7D5814270474FF0807C1CEB9A
:102EF000400F38BF1CEB410F01D28142704710B523
:102F000000F089F8922449004FF000504FF08051B2
:102F1000FFF78BBF4FF47F0C1CEAD0121EBF1CEAD8
:102F2000D11392EA0C0F93EA0C0F00F0478090EA5D
:102F3000010F48BF42F480724FF0004C4CEA002071
:102F40004CEA012102EB0302A0FB0113A2F50002EF
:102F5000002918BF43F001035B0028BF4FEA330389
:102F600042EB22425FEA132C4CEBC2502EBFBCEB6B
:102F7000436FB2F57C0F70474FEA036CBCF1004F12
:102F800008BF20F00100B2F57C0F38BF70470BD5A9
:102F900082F0FF0212F5803FC8BF704700F1C040C9
:102FA000D8BF00F00040704700F5000C5FEA4C0C01
:102FB00048BF7047B0F1C04000F073B890EA010F0D
:102FC0000CEAD11348BF42F48072624538BF6345B2
:102FD00004D280EA010000F00040704710B500F014
:102FE0001AF800BF8900013E00F007B800F009B8E8
:102FF0005FEA410C5FEA1C6C08D080EA010000F037
:1030000050B85FEA400C5FEA1C6CF6D14FF000400C
:10301000A0F5800070470EF1020E2EF0030E5EF850
:10302000044B244204D44FEA4102B2F17F4F11D83D
:103030004FEA4003B3F17F4F0CD80ED14FEAD07C5A
:10304000B2F17F4F0CEB4C0C0CF1020C08BF4CEBB7
:10305000D17C04E04FF0080C01E04FEAD17C0CEB8E
:103060004C0324FA03F404F00704B4F1040C06D270
:103070000EEB840CBDE810404CF0010C6047DFE81B
:103080000CF0070802024FF00040A0F5800010BDD0
:103090000846420018BFD2F1807288BF00F000409D
:1030A00010BDFF2141EAD050C0057047CC30000868
:1030B000000000204C0000006C01000818310008DE
:1030C0004C000020B40900008801000800A24A0456
:1030D00000000000000000000102030406070809C8
:1030E00000000000010203040102030406070809AE
:1030F00002040608000000000000000000000000BC
:1031000000000000000000000000000000000000BF
:083110000000000000000000B7
:0400000508000131BD
:00000001FF
